{
	"QuadraticVoting.sol": {
		"QuadraticVoting": {
			"abi": [
				{
					"inputs": [
						{
							"internalType": "uint256",
							"name": "_tokenPrice",
							"type": "uint256"
						},
						{
							"internalType": "uint256",
							"name": "_maxTokens",
							"type": "uint256"
						}
					],
					"payable": false,
					"stateMutability": "nonpayable",
					"type": "constructor"
				},
				{
					"anonymous": false,
					"inputs": [
						{
							"indexed": false,
							"internalType": "uint256",
							"name": "proposalId",
							"type": "uint256"
						}
					],
					"name": "CanWithdrawnFromProposal",
					"type": "event"
				},
				{
					"anonymous": false,
					"inputs": [],
					"name": "ClosedVote",
					"type": "event"
				},
				{
					"anonymous": false,
					"inputs": [],
					"name": "OpenVote",
					"type": "event"
				},
				{
					"constant": false,
					"inputs": [],
					"name": "addParticipant",
					"outputs": [],
					"payable": true,
					"stateMutability": "payable",
					"type": "function"
				},
				{
					"constant": false,
					"inputs": [
						{
							"internalType": "string",
							"name": "title",
							"type": "string"
						},
						{
							"internalType": "string",
							"name": "description",
							"type": "string"
						},
						{
							"internalType": "uint256",
							"name": "minBudget",
							"type": "uint256"
						},
						{
							"internalType": "address",
							"name": "executableProposal",
							"type": "address"
						}
					],
					"name": "addProposal",
					"outputs": [
						{
							"internalType": "uint256",
							"name": "",
							"type": "uint256"
						}
					],
					"payable": false,
					"stateMutability": "nonpayable",
					"type": "function"
				},
				{
					"constant": false,
					"inputs": [],
					"name": "buyTokens",
					"outputs": [],
					"payable": true,
					"stateMutability": "payable",
					"type": "function"
				},
				{
					"constant": false,
					"inputs": [
						{
							"internalType": "uint256",
							"name": "id",
							"type": "uint256"
						}
					],
					"name": "cancelProposal",
					"outputs": [],
					"payable": false,
					"stateMutability": "nonpayable",
					"type": "function"
				},
				{
					"constant": false,
					"inputs": [],
					"name": "closeVoting",
					"outputs": [],
					"payable": true,
					"stateMutability": "payable",
					"type": "function"
				},
				{
					"constant": false,
					"inputs": [
						{
							"internalType": "uint256",
							"name": "id",
							"type": "uint256"
						}
					],
					"name": "executeSignaling",
					"outputs": [],
					"payable": false,
					"stateMutability": "nonpayable",
					"type": "function"
				},
				{
					"constant": true,
					"inputs": [],
					"name": "getApprovedProposals",
					"outputs": [
						{
							"internalType": "uint256[]",
							"name": "",
							"type": "uint256[]"
						}
					],
					"payable": false,
					"stateMutability": "view",
					"type": "function"
				},
				{
					"constant": true,
					"inputs": [],
					"name": "getERC20",
					"outputs": [
						{
							"internalType": "contract UCMToken",
							"name": "",
							"type": "address"
						}
					],
					"payable": false,
					"stateMutability": "view",
					"type": "function"
				},
				{
					"constant": true,
					"inputs": [],
					"name": "getPendingProposals",
					"outputs": [
						{
							"internalType": "uint256[]",
							"name": "",
							"type": "uint256[]"
						}
					],
					"payable": false,
					"stateMutability": "view",
					"type": "function"
				},
				{
					"constant": true,
					"inputs": [
						{
							"internalType": "uint256",
							"name": "id",
							"type": "uint256"
						}
					],
					"name": "getProposalInfo",
					"outputs": [
						{
							"internalType": "string",
							"name": "title",
							"type": "string"
						},
						{
							"internalType": "string",
							"name": "description",
							"type": "string"
						},
						{
							"internalType": "contract IExecutableProposal",
							"name": "executableProposal",
							"type": "address"
						}
					],
					"payable": false,
					"stateMutability": "view",
					"type": "function"
				},
				{
					"constant": true,
					"inputs": [],
					"name": "getSignalingProposals",
					"outputs": [
						{
							"internalType": "uint256[]",
							"name": "",
							"type": "uint256[]"
						}
					],
					"payable": false,
					"stateMutability": "view",
					"type": "function"
				},
				{
					"constant": true,
					"inputs": [],
					"name": "maxTokens",
					"outputs": [
						{
							"internalType": "uint256",
							"name": "",
							"type": "uint256"
						}
					],
					"payable": false,
					"stateMutability": "view",
					"type": "function"
				},
				{
					"constant": false,
					"inputs": [],
					"name": "openVoting",
					"outputs": [],
					"payable": true,
					"stateMutability": "payable",
					"type": "function"
				},
				{
					"constant": true,
					"inputs": [
						{
							"internalType": "address",
							"name": "",
							"type": "address"
						}
					],
					"name": "participants",
					"outputs": [
						{
							"internalType": "bool",
							"name": "",
							"type": "bool"
						}
					],
					"payable": false,
					"stateMutability": "view",
					"type": "function"
				},
				{
					"constant": false,
					"inputs": [
						{
							"internalType": "uint256",
							"name": "amount",
							"type": "uint256"
						}
					],
					"name": "sellTokens",
					"outputs": [],
					"payable": false,
					"stateMutability": "nonpayable",
					"type": "function"
				},
				{
					"constant": false,
					"inputs": [
						{
							"internalType": "uint256",
							"name": "id",
							"type": "uint256"
						},
						{
							"internalType": "uint256",
							"name": "votes",
							"type": "uint256"
						}
					],
					"name": "stake",
					"outputs": [],
					"payable": false,
					"stateMutability": "nonpayable",
					"type": "function"
				},
				{
					"constant": true,
					"inputs": [],
					"name": "tokenPrice",
					"outputs": [
						{
							"internalType": "uint256",
							"name": "",
							"type": "uint256"
						}
					],
					"payable": false,
					"stateMutability": "view",
					"type": "function"
				},
				{
					"constant": false,
					"inputs": [
						{
							"internalType": "uint256",
							"name": "amount",
							"type": "uint256"
						},
						{
							"internalType": "uint256",
							"name": "id",
							"type": "uint256"
						}
					],
					"name": "withdrawFromProposal",
					"outputs": [],
					"payable": false,
					"stateMutability": "nonpayable",
					"type": "function"
				}
			],
			"devdoc": {
				"methods": {}
			},
			"evm": {
				"assembly": "    /* \"QuadraticVoting.sol\":93:9855  contract QuadraticVoting is IQuadraticVoting {... */\n  mstore(0x40, 0x80)\n    /* \"QuadraticVoting.sol\":530:829  constructor(uint _tokenPrice, uint _maxTokens) public {... */\n  callvalue\n    /* \"--CODEGEN--\":8:17   */\n  dup1\n    /* \"--CODEGEN--\":5:7   */\n  iszero\n  tag_1\n  jumpi\n    /* \"--CODEGEN--\":30:31   */\n  0x00\n    /* \"--CODEGEN--\":27:28   */\n  dup1\n    /* \"--CODEGEN--\":20:32   */\n  revert\n    /* \"--CODEGEN--\":5:7   */\ntag_1:\n    /* \"QuadraticVoting.sol\":530:829  constructor(uint _tokenPrice, uint _maxTokens) public {... */\n  pop\n  mload(0x40)\n  sub(codesize, bytecodeSize)\n  dup1\n  bytecodeSize\n  dup4\n  codecopy\n  dup2\n  dup2\n  add\n  0x40\n  mstore\n  tag_2\n  swap2\n  swap1\n  dup2\n  add\n  swap1\n  jump(tag_3)\ntag_2:\n    /* \"QuadraticVoting.sol\":602:612  msg.sender */\n  caller\n    /* \"QuadraticVoting.sol\":594:599  owner */\n  0x00\n  dup1\n    /* \"QuadraticVoting.sol\":594:612  owner = msg.sender */\n  0x0100\n  exp\n  dup2\n  sload\n  dup2\n  0xffffffffffffffffffffffffffffffffffffffff\n  mul\n  not\n  and\n  swap1\n  dup4\n  0xffffffffffffffffffffffffffffffffffffffff\n  and\n  mul\n  or\n  swap1\n  sstore\n  pop\n    /* \"QuadraticVoting.sol\":638:652  new UCMToken() */\n  mload(0x40)\n  tag_6\n  swap1\n  tag_7\n  jump\t// in\ntag_6:\n  mload(0x40)\n  dup1\n  swap2\n  sub\n  swap1\n  0x00\n  create\n  dup1\n  iszero\n    /* \"--CODEGEN--\":8:17   */\n  dup1\n    /* \"--CODEGEN--\":5:7   */\n  iszero\n  tag_8\n  jumpi\n    /* \"--CODEGEN--\":45:61   */\n  returndatasize\n    /* \"--CODEGEN--\":42:43   */\n  0x00\n    /* \"--CODEGEN--\":39:40   */\n  dup1\n    /* \"--CODEGEN--\":24:62   */\n  returndatacopy\n    /* \"--CODEGEN--\":77:93   */\n  returndatasize\n    /* \"--CODEGEN--\":74:75   */\n  0x00\n    /* \"--CODEGEN--\":67:94   */\n  revert\n    /* \"--CODEGEN--\":5:7   */\ntag_8:\n    /* \"QuadraticVoting.sol\":638:652  new UCMToken() */\n  pop\n    /* \"QuadraticVoting.sol\":622:635  tokenContract */\n  0x01\n  0x00\n    /* \"QuadraticVoting.sol\":622:652  tokenContract = new UCMToken() */\n  0x0100\n  exp\n  dup2\n  sload\n  dup2\n  0xffffffffffffffffffffffffffffffffffffffff\n  mul\n  not\n  and\n  swap1\n  dup4\n  0xffffffffffffffffffffffffffffffffffffffff\n  and\n  mul\n  or\n  swap1\n  sstore\n  pop\n    /* \"QuadraticVoting.sol\":676:677  0 */\n  0x00\n    /* \"QuadraticVoting.sol\":662:673  votingState */\n  0x01\n  0x14\n    /* \"QuadraticVoting.sol\":662:677  votingState = 0 */\n  0x0100\n  exp\n  dup2\n  sload\n  dup2\n  0xff\n  mul\n  not\n  and\n  swap1\n  dup4\n  0xff\n  and\n  mul\n  or\n  swap1\n  sstore\n  pop\n    /* \"QuadraticVoting.sol\":700:711  _tokenPrice */\n  dup2\n    /* \"QuadraticVoting.sol\":687:697  tokenPrice */\n  0x02\n    /* \"QuadraticVoting.sol\":687:711  tokenPrice = _tokenPrice */\n  dup2\n  swap1\n  sstore\n  pop\n    /* \"QuadraticVoting.sol\":733:743  _maxTokens */\n  dup1\n    /* \"QuadraticVoting.sol\":721:730  maxTokens */\n  0x03\n    /* \"QuadraticVoting.sol\":721:743  maxTokens = _maxTokens */\n  dup2\n  swap1\n  sstore\n  pop\n    /* \"QuadraticVoting.sol\":769:770  0 */\n  0x00\n    /* \"QuadraticVoting.sol\":753:766  nParticipants */\n  0x04\n    /* \"QuadraticVoting.sol\":753:770  nParticipants = 0 */\n  dup2\n  swap1\n  sstore\n  pop\n    /* \"QuadraticVoting.sol\":793:794  0 */\n  0x00\n    /* \"QuadraticVoting.sol\":780:790  nProposals */\n  0x06\n    /* \"QuadraticVoting.sol\":780:794  nProposals = 0 */\n  dup2\n  swap1\n  sstore\n  pop\n    /* \"QuadraticVoting.sol\":821:822  0 */\n  0x00\n    /* \"QuadraticVoting.sol\":804:818  lastProposalId */\n  0x08\n    /* \"QuadraticVoting.sol\":804:822  lastProposalId = 0 */\n  dup2\n  swap1\n  sstore\n  pop\n    /* \"QuadraticVoting.sol\":530:829  constructor(uint _tokenPrice, uint _maxTokens) public {... */\n  pop\n  pop\n    /* \"QuadraticVoting.sol\":93:9855  contract QuadraticVoting is IQuadraticVoting {... */\n  jump(tag_9)\ntag_7:\n  dataSize(sub_1)\n  dup1\n  dataOffset(sub_1)\n  dup4\n  codecopy\n  add\n  swap1\n  jump\t// out\n    /* \"--CODEGEN--\":5:139   */\ntag_11:\n  0x00\n    /* \"--CODEGEN--\":89:95   */\n  dup2\n    /* \"--CODEGEN--\":83:96   */\n  mload\n    /* \"--CODEGEN--\":74:96   */\n  swap1\n  pop\n    /* \"--CODEGEN--\":101:134   */\n  tag_12\n    /* \"--CODEGEN--\":128:133   */\n  dup2\n    /* \"--CODEGEN--\":101:134   */\n  jump(tag_13)\ntag_12:\n    /* \"--CODEGEN--\":68:139   */\n  swap3\n  swap2\n  pop\n  pop\n  jump\n    /* \"--CODEGEN--\":146:545   */\ntag_3:\n  0x00\n  dup1\n    /* \"--CODEGEN--\":278:280   */\n  0x40\n    /* \"--CODEGEN--\":266:275   */\n  dup4\n    /* \"--CODEGEN--\":257:264   */\n  dup6\n    /* \"--CODEGEN--\":253:276   */\n  sub\n    /* \"--CODEGEN--\":249:281   */\n  slt\n    /* \"--CODEGEN--\":246:248   */\n  iszero\n  tag_14\n  jumpi\n    /* \"--CODEGEN--\":294:295   */\n  0x00\n    /* \"--CODEGEN--\":291:292   */\n  dup1\n    /* \"--CODEGEN--\":284:296   */\n  revert\n    /* \"--CODEGEN--\":246:248   */\ntag_14:\n    /* \"--CODEGEN--\":329:330   */\n  0x00\n    /* \"--CODEGEN--\":346:410   */\n  tag_15\n    /* \"--CODEGEN--\":402:409   */\n  dup6\n    /* \"--CODEGEN--\":393:399   */\n  dup3\n    /* \"--CODEGEN--\":382:391   */\n  dup7\n    /* \"--CODEGEN--\":378:400   */\n  add\n    /* \"--CODEGEN--\":346:410   */\n  jump(tag_11)\ntag_15:\n    /* \"--CODEGEN--\":336:410   */\n  swap3\n  pop\n    /* \"--CODEGEN--\":308:416   */\n  pop\n    /* \"--CODEGEN--\":447:449   */\n  0x20\n    /* \"--CODEGEN--\":465:529   */\n  tag_16\n    /* \"--CODEGEN--\":521:528   */\n  dup6\n    /* \"--CODEGEN--\":512:518   */\n  dup3\n    /* \"--CODEGEN--\":501:510   */\n  dup7\n    /* \"--CODEGEN--\":497:519   */\n  add\n    /* \"--CODEGEN--\":465:529   */\n  jump(tag_11)\ntag_16:\n    /* \"--CODEGEN--\":455:529   */\n  swap2\n  pop\n    /* \"--CODEGEN--\":426:535   */\n  pop\n    /* \"--CODEGEN--\":240:545   */\n  swap3\n  pop\n  swap3\n  swap1\n  pop\n  jump\n    /* \"--CODEGEN--\":552:624   */\ntag_17:\n  0x00\n    /* \"--CODEGEN--\":614:619   */\n  dup2\n    /* \"--CODEGEN--\":603:619   */\n  swap1\n  pop\n    /* \"--CODEGEN--\":597:624   */\n  swap2\n  swap1\n  pop\n  jump\n    /* \"--CODEGEN--\":631:748   */\ntag_13:\n    /* \"--CODEGEN--\":700:724   */\n  tag_18\n    /* \"--CODEGEN--\":718:723   */\n  dup2\n    /* \"--CODEGEN--\":700:724   */\n  jump(tag_17)\ntag_18:\n    /* \"--CODEGEN--\":693:698   */\n  dup2\n    /* \"--CODEGEN--\":690:725   */\n  eq\n    /* \"--CODEGEN--\":680:682   */\n  tag_19\n  jumpi\n    /* \"--CODEGEN--\":739:740   */\n  0x00\n    /* \"--CODEGEN--\":736:737   */\n  dup1\n    /* \"--CODEGEN--\":729:741   */\n  revert\n    /* \"--CODEGEN--\":680:682   */\ntag_19:\n    /* \"--CODEGEN--\":674:748   */\n  pop\n  jump\n    /* \"QuadraticVoting.sol\":93:9855  contract QuadraticVoting is IQuadraticVoting {... */\ntag_9:\n  dataSize(sub_0)\n  dup1\n  dataOffset(sub_0)\n  0x00\n  codecopy\n  0x00\n  return\nstop\n\nsub_0: assembly {\n        /* \"QuadraticVoting.sol\":93:9855  contract QuadraticVoting is IQuadraticVoting {... */\n      mstore(0x40, 0x80)\n      jumpi(tag_1, lt(calldatasize, 0x04))\n      shr(0xe0, calldataload(0x00))\n      dup1\n      0xa80db6fc\n      gt\n      tag_20\n      jumpi\n      dup1\n      0xd0febe4c\n      gt\n      tag_21\n      jumpi\n      dup1\n      0xd0febe4c\n      eq\n      tag_15\n      jumpi\n      dup1\n      0xda6001d1\n      eq\n      tag_16\n      jumpi\n      dup1\n      0xe0a8f6f5\n      eq\n      tag_17\n      jumpi\n      dup1\n      0xe8315742\n      eq\n      tag_18\n      jumpi\n      dup1\n      0xfffefd91\n      eq\n      tag_19\n      jumpi\n      jump(tag_1)\n    tag_21:\n      dup1\n      0xa80db6fc\n      eq\n      tag_11\n      jumpi\n      dup1\n      0xaffc0670\n      eq\n      tag_12\n      jumpi\n      dup1\n      0xbc903cb8\n      eq\n      tag_13\n      jumpi\n      dup1\n      0xc631b292\n      eq\n      tag_14\n      jumpi\n      jump(tag_1)\n    tag_20:\n      dup1\n      0x6c11bcd3\n      gt\n      tag_22\n      jumpi\n      dup1\n      0x6c11bcd3\n      eq\n      tag_6\n      jumpi\n      dup1\n      0x7b0472f0\n      eq\n      tag_7\n      jumpi\n      dup1\n      0x7ff9b596\n      eq\n      tag_8\n      jumpi\n      dup1\n      0x8e08a50b\n      eq\n      tag_9\n      jumpi\n      dup1\n      0x9ab3f7a6\n      eq\n      tag_10\n      jumpi\n      jump(tag_1)\n    tag_22:\n      dup1\n      0x09e69ede\n      eq\n      tag_2\n      jumpi\n      dup1\n      0x3ac0feac\n      eq\n      tag_3\n      jumpi\n      dup1\n      0x4ece90a8\n      eq\n      tag_4\n      jumpi\n      dup1\n      0x649c649c\n      eq\n      tag_5\n      jumpi\n    tag_1:\n      0x00\n      dup1\n      revert\n        /* \"QuadraticVoting.sol\":367:411  mapping(address => bool) public participants */\n    tag_2:\n      callvalue\n        /* \"--CODEGEN--\":8:17   */\n      dup1\n        /* \"--CODEGEN--\":5:7   */\n      iszero\n      tag_23\n      jumpi\n        /* \"--CODEGEN--\":30:31   */\n      0x00\n        /* \"--CODEGEN--\":27:28   */\n      dup1\n        /* \"--CODEGEN--\":20:32   */\n      revert\n        /* \"--CODEGEN--\":5:7   */\n    tag_23:\n        /* \"QuadraticVoting.sol\":367:411  mapping(address => bool) public participants */\n      pop\n      tag_24\n      0x04\n      dup1\n      calldatasize\n      sub\n      tag_25\n      swap2\n      swap1\n      dup2\n      add\n      swap1\n      jump(tag_26)\n    tag_25:\n      tag_27\n      jump\t// in\n    tag_24:\n      mload(0x40)\n      tag_28\n      swap2\n      swap1\n      jump(tag_29)\n    tag_28:\n      mload(0x40)\n      dup1\n      swap2\n      sub\n      swap1\n      return\n        /* \"QuadraticVoting.sol\":4457:4604  function getApprovedProposals() checkVotingOpen view external returns(uint[] memory) {... */\n    tag_3:\n      callvalue\n        /* \"--CODEGEN--\":8:17   */\n      dup1\n        /* \"--CODEGEN--\":5:7   */\n      iszero\n      tag_30\n      jumpi\n        /* \"--CODEGEN--\":30:31   */\n      0x00\n        /* \"--CODEGEN--\":27:28   */\n      dup1\n        /* \"--CODEGEN--\":20:32   */\n      revert\n        /* \"--CODEGEN--\":5:7   */\n    tag_30:\n        /* \"QuadraticVoting.sol\":4457:4604  function getApprovedProposals() checkVotingOpen view external returns(uint[] memory) {... */\n      pop\n      tag_31\n      tag_32\n      jump\t// in\n    tag_31:\n      mload(0x40)\n      tag_33\n      swap2\n      swap1\n      jump(tag_34)\n    tag_33:\n      mload(0x40)\n      dup1\n      swap2\n      sub\n      swap1\n      return\n        /* \"QuadraticVoting.sol\":4099:4188  function getERC20() view external returns(UCMToken) {... */\n    tag_4:\n      callvalue\n        /* \"--CODEGEN--\":8:17   */\n      dup1\n        /* \"--CODEGEN--\":5:7   */\n      iszero\n      tag_35\n      jumpi\n        /* \"--CODEGEN--\":30:31   */\n      0x00\n        /* \"--CODEGEN--\":27:28   */\n      dup1\n        /* \"--CODEGEN--\":20:32   */\n      revert\n        /* \"--CODEGEN--\":5:7   */\n    tag_35:\n        /* \"QuadraticVoting.sol\":4099:4188  function getERC20() view external returns(UCMToken) {... */\n      pop\n      tag_36\n      tag_37\n      jump\t// in\n    tag_36:\n      mload(0x40)\n      tag_38\n      swap2\n      swap1\n      jump(tag_39)\n    tag_38:\n      mload(0x40)\n      dup1\n      swap2\n      sub\n      swap1\n      return\n        /* \"QuadraticVoting.sol\":7256:7481  function withdrawFromProposal(uint amount, uint id) checkParticipant external {... */\n    tag_5:\n      callvalue\n        /* \"--CODEGEN--\":8:17   */\n      dup1\n        /* \"--CODEGEN--\":5:7   */\n      iszero\n      tag_40\n      jumpi\n        /* \"--CODEGEN--\":30:31   */\n      0x00\n        /* \"--CODEGEN--\":27:28   */\n      dup1\n        /* \"--CODEGEN--\":20:32   */\n      revert\n        /* \"--CODEGEN--\":5:7   */\n    tag_40:\n        /* \"QuadraticVoting.sol\":7256:7481  function withdrawFromProposal(uint amount, uint id) checkParticipant external {... */\n      pop\n      tag_41\n      0x04\n      dup1\n      calldatasize\n      sub\n      tag_42\n      swap2\n      swap1\n      dup2\n      add\n      swap1\n      jump(tag_43)\n    tag_42:\n      tag_44\n      jump\t// in\n    tag_41:\n      stop\n        /* \"QuadraticVoting.sol\":3773:4041  function sellTokens(uint amount) checkParticipant checkTokenAmount(amount) external {... */\n    tag_6:\n      callvalue\n        /* \"--CODEGEN--\":8:17   */\n      dup1\n        /* \"--CODEGEN--\":5:7   */\n      iszero\n      tag_45\n      jumpi\n        /* \"--CODEGEN--\":30:31   */\n      0x00\n        /* \"--CODEGEN--\":27:28   */\n      dup1\n        /* \"--CODEGEN--\":20:32   */\n      revert\n        /* \"--CODEGEN--\":5:7   */\n    tag_45:\n        /* \"QuadraticVoting.sol\":3773:4041  function sellTokens(uint amount) checkParticipant checkTokenAmount(amount) external {... */\n      pop\n      tag_46\n      0x04\n      dup1\n      calldatasize\n      sub\n      tag_47\n      swap2\n      swap1\n      dup2\n      add\n      swap1\n      jump(tag_48)\n    tag_47:\n      tag_49\n      jump\t// in\n    tag_46:\n      stop\n        /* \"QuadraticVoting.sol\":5177:5652  function stake(uint id, uint votes) external {... */\n    tag_7:\n      callvalue\n        /* \"--CODEGEN--\":8:17   */\n      dup1\n        /* \"--CODEGEN--\":5:7   */\n      iszero\n      tag_50\n      jumpi\n        /* \"--CODEGEN--\":30:31   */\n      0x00\n        /* \"--CODEGEN--\":27:28   */\n      dup1\n        /* \"--CODEGEN--\":20:32   */\n      revert\n        /* \"--CODEGEN--\":5:7   */\n    tag_50:\n        /* \"QuadraticVoting.sol\":5177:5652  function stake(uint id, uint votes) external {... */\n      pop\n      tag_51\n      0x04\n      dup1\n      calldatasize\n      sub\n      tag_52\n      swap2\n      swap1\n      dup2\n      add\n      swap1\n      jump(tag_43)\n    tag_52:\n      tag_53\n      jump\t// in\n    tag_51:\n      stop\n        /* \"QuadraticVoting.sol\":280:302  uint public tokenPrice */\n    tag_8:\n      callvalue\n        /* \"--CODEGEN--\":8:17   */\n      dup1\n        /* \"--CODEGEN--\":5:7   */\n      iszero\n      tag_54\n      jumpi\n        /* \"--CODEGEN--\":30:31   */\n      0x00\n        /* \"--CODEGEN--\":27:28   */\n      dup1\n        /* \"--CODEGEN--\":20:32   */\n      revert\n        /* \"--CODEGEN--\":5:7   */\n    tag_54:\n        /* \"QuadraticVoting.sol\":280:302  uint public tokenPrice */\n      pop\n      tag_55\n      tag_56\n      jump\t// in\n    tag_55:\n      mload(0x40)\n      tag_57\n      swap2\n      swap1\n      jump(tag_58)\n    tag_57:\n      mload(0x40)\n      dup1\n      swap2\n      sub\n      swap1\n      return\n        /* \"QuadraticVoting.sol\":4665:4813  function getSignalingProposals() checkVotingOpen view external returns(uint[] memory) {... */\n    tag_9:\n      callvalue\n        /* \"--CODEGEN--\":8:17   */\n      dup1\n        /* \"--CODEGEN--\":5:7   */\n      iszero\n      tag_59\n      jumpi\n        /* \"--CODEGEN--\":30:31   */\n      0x00\n        /* \"--CODEGEN--\":27:28   */\n      dup1\n        /* \"--CODEGEN--\":20:32   */\n      revert\n        /* \"--CODEGEN--\":5:7   */\n    tag_59:\n        /* \"QuadraticVoting.sol\":4665:4813  function getSignalingProposals() checkVotingOpen view external returns(uint[] memory) {... */\n      pop\n      tag_60\n      tag_61\n      jump\t// in\n    tag_60:\n      mload(0x40)\n      tag_62\n      swap2\n      swap1\n      jump(tag_34)\n    tag_62:\n      mload(0x40)\n      dup1\n      swap2\n      sub\n      swap1\n      return\n        /* \"QuadraticVoting.sol\":2343:3043  function addProposal(string calldata title, string calldata description, uint minBudget, address executableProposal) checkParticipant checkVotingOpen external returns(uint) {... */\n    tag_10:\n      callvalue\n        /* \"--CODEGEN--\":8:17   */\n      dup1\n        /* \"--CODEGEN--\":5:7   */\n      iszero\n      tag_63\n      jumpi\n        /* \"--CODEGEN--\":30:31   */\n      0x00\n        /* \"--CODEGEN--\":27:28   */\n      dup1\n        /* \"--CODEGEN--\":20:32   */\n      revert\n        /* \"--CODEGEN--\":5:7   */\n    tag_63:\n        /* \"QuadraticVoting.sol\":2343:3043  function addProposal(string calldata title, string calldata description, uint minBudget, address executableProposal) checkParticipant checkVotingOpen external returns(uint) {... */\n      pop\n      tag_64\n      0x04\n      dup1\n      calldatasize\n      sub\n      tag_65\n      swap2\n      swap1\n      dup2\n      add\n      swap1\n      jump(tag_66)\n    tag_65:\n      tag_67\n      jump\t// in\n    tag_64:\n      mload(0x40)\n      tag_68\n      swap2\n      swap1\n      jump(tag_58)\n    tag_68:\n      mload(0x40)\n      dup1\n      swap2\n      sub\n      swap1\n      return\n        /* \"QuadraticVoting.sol\":4250:4396  function getPendingProposals() checkVotingOpen view external returns(uint[] memory) {... */\n    tag_11:\n      callvalue\n        /* \"--CODEGEN--\":8:17   */\n      dup1\n        /* \"--CODEGEN--\":5:7   */\n      iszero\n      tag_69\n      jumpi\n        /* \"--CODEGEN--\":30:31   */\n      0x00\n        /* \"--CODEGEN--\":27:28   */\n      dup1\n        /* \"--CODEGEN--\":20:32   */\n      revert\n        /* \"--CODEGEN--\":5:7   */\n    tag_69:\n        /* \"QuadraticVoting.sol\":4250:4396  function getPendingProposals() checkVotingOpen view external returns(uint[] memory) {... */\n      pop\n      tag_70\n      tag_71\n      jump\t// in\n    tag_70:\n      mload(0x40)\n      tag_72\n      swap2\n      swap1\n      jump(tag_34)\n    tag_72:\n      mload(0x40)\n      dup1\n      swap2\n      sub\n      swap1\n      return\n        /* \"QuadraticVoting.sol\":1916:2023  function openVoting() checkOwner external payable {... */\n    tag_12:\n      tag_73\n      tag_74\n      jump\t// in\n    tag_73:\n      stop\n        /* \"QuadraticVoting.sol\":4871:5137  function getProposalInfo(uint id) checkVotingOpen view external returns(string memory title, string memory description, IExecutableProposal executableProposal) {... */\n    tag_13:\n      callvalue\n        /* \"--CODEGEN--\":8:17   */\n      dup1\n        /* \"--CODEGEN--\":5:7   */\n      iszero\n      tag_75\n      jumpi\n        /* \"--CODEGEN--\":30:31   */\n      0x00\n        /* \"--CODEGEN--\":27:28   */\n      dup1\n        /* \"--CODEGEN--\":20:32   */\n      revert\n        /* \"--CODEGEN--\":5:7   */\n    tag_75:\n        /* \"QuadraticVoting.sol\":4871:5137  function getProposalInfo(uint id) checkVotingOpen view external returns(string memory title, string memory description, IExecutableProposal executableProposal) {... */\n      pop\n      tag_76\n      0x04\n      dup1\n      calldatasize\n      sub\n      tag_77\n      swap2\n      swap1\n      dup2\n      add\n      swap1\n      jump(tag_48)\n    tag_77:\n      tag_78\n      jump\t// in\n    tag_76:\n      mload(0x40)\n      tag_79\n      swap4\n      swap3\n      swap2\n      swap1\n      jump(tag_80)\n    tag_79:\n      mload(0x40)\n      dup1\n      swap2\n      sub\n      swap1\n      return\n        /* \"QuadraticVoting.sol\":8836:8946  function closeVoting() checkOwner external payable {... */\n    tag_14:\n      tag_81\n      tag_82\n      jump\t// in\n    tag_81:\n      stop\n        /* \"QuadraticVoting.sol\":3560:3724  function buyTokens() checkParticipant checkMinimumPurchaseAmount(msg.value) external payable {... */\n    tag_15:\n      tag_83\n      tag_84\n      jump\t// in\n    tag_83:\n      stop\n        /* \"QuadraticVoting.sol\":8952:9119  function executeSignaling(uint id) checkParticipant checkProposalOwner(id) external {... */\n    tag_16:\n      callvalue\n        /* \"--CODEGEN--\":8:17   */\n      dup1\n        /* \"--CODEGEN--\":5:7   */\n      iszero\n      tag_85\n      jumpi\n        /* \"--CODEGEN--\":30:31   */\n      0x00\n        /* \"--CODEGEN--\":27:28   */\n      dup1\n        /* \"--CODEGEN--\":20:32   */\n      revert\n        /* \"--CODEGEN--\":5:7   */\n    tag_85:\n        /* \"QuadraticVoting.sol\":8952:9119  function executeSignaling(uint id) checkParticipant checkProposalOwner(id) external {... */\n      pop\n      tag_86\n      0x04\n      dup1\n      calldatasize\n      sub\n      tag_87\n      swap2\n      swap1\n      dup2\n      add\n      swap1\n      jump(tag_48)\n    tag_87:\n      tag_88\n      jump\t// in\n    tag_86:\n      stop\n        /* \"QuadraticVoting.sol\":3266:3505  function cancelProposal(uint id) checkParticipant checkVotingOpen checkProposalOwner(id) external {... */\n    tag_17:\n      callvalue\n        /* \"--CODEGEN--\":8:17   */\n      dup1\n        /* \"--CODEGEN--\":5:7   */\n      iszero\n      tag_89\n      jumpi\n        /* \"--CODEGEN--\":30:31   */\n      0x00\n        /* \"--CODEGEN--\":27:28   */\n      dup1\n        /* \"--CODEGEN--\":20:32   */\n      revert\n        /* \"--CODEGEN--\":5:7   */\n    tag_89:\n        /* \"QuadraticVoting.sol\":3266:3505  function cancelProposal(uint id) checkParticipant checkVotingOpen checkProposalOwner(id) external {... */\n      pop\n      tag_90\n      0x04\n      dup1\n      calldatasize\n      sub\n      tag_91\n      swap2\n      swap1\n      dup2\n      add\n      swap1\n      jump(tag_48)\n    tag_91:\n      tag_92\n      jump\t// in\n    tag_90:\n      stop\n        /* \"QuadraticVoting.sol\":308:329  uint public maxTokens */\n    tag_18:\n      callvalue\n        /* \"--CODEGEN--\":8:17   */\n      dup1\n        /* \"--CODEGEN--\":5:7   */\n      iszero\n      tag_93\n      jumpi\n        /* \"--CODEGEN--\":30:31   */\n      0x00\n        /* \"--CODEGEN--\":27:28   */\n      dup1\n        /* \"--CODEGEN--\":20:32   */\n      revert\n        /* \"--CODEGEN--\":5:7   */\n    tag_93:\n        /* \"QuadraticVoting.sol\":308:329  uint public maxTokens */\n      pop\n      tag_94\n      tag_95\n      jump\t// in\n    tag_94:\n      mload(0x40)\n      tag_96\n      swap2\n      swap1\n      jump(tag_58)\n    tag_96:\n      mload(0x40)\n      dup1\n      swap2\n      sub\n      swap1\n      return\n        /* \"QuadraticVoting.sol\":2092:2310  function addParticipant() checkMinimumPurchaseAmount(msg.value) external payable {... */\n    tag_19:\n      tag_97\n      tag_98\n      jump\t// in\n    tag_97:\n      stop\n        /* \"QuadraticVoting.sol\":367:411  mapping(address => bool) public participants */\n    tag_27:\n      mstore(0x20, 0x05)\n      dup1\n      0x00\n      mstore\n      keccak256(0x00, 0x40)\n      0x00\n      swap2\n      pop\n      sload\n      swap1\n      0x0100\n      exp\n      swap1\n      div\n      0xff\n      and\n      dup2\n      jump\t// out\n        /* \"QuadraticVoting.sol\":4457:4604  function getApprovedProposals() checkVotingOpen view external returns(uint[] memory) {... */\n    tag_32:\n        /* \"QuadraticVoting.sol\":4527:4540  uint[] memory */\n      0x60\n        /* \"QuadraticVoting.sol\":9401:9402  1 */\n      0x01\n        /* \"QuadraticVoting.sol\":9386:9397  votingState */\n      dup1\n      0x14\n      swap1\n      sload\n      swap1\n      0x0100\n      exp\n      swap1\n      div\n      0xff\n      and\n        /* \"QuadraticVoting.sol\":9386:9402  votingState == 1 */\n      0xff\n      and\n      eq\n        /* \"QuadraticVoting.sol\":9378:9422  require(votingState == 1, \"Voting not open\") */\n      tag_100\n      jumpi\n      mload(0x40)\n      0x08c379a000000000000000000000000000000000000000000000000000000000\n      dup2\n      mstore\n      0x04\n      add\n      tag_101\n      swap1\n      jump(tag_102)\n    tag_101:\n      mload(0x40)\n      dup1\n      swap2\n      sub\n      swap1\n      revert\n    tag_100:\n        /* \"QuadraticVoting.sol\":4552:4570  uint [] memory ids */\n      0x60\n        /* \"QuadraticVoting.sol\":4587:4590  ids */\n      dup1\n        /* \"QuadraticVoting.sol\":4580:4590  return ids */\n      swap2\n      pop\n      pop\n        /* \"QuadraticVoting.sol\":4457:4604  function getApprovedProposals() checkVotingOpen view external returns(uint[] memory) {... */\n      swap1\n      jump\t// out\n        /* \"QuadraticVoting.sol\":4099:4188  function getERC20() view external returns(UCMToken) {... */\n    tag_37:\n        /* \"QuadraticVoting.sol\":4141:4149  UCMToken */\n      0x00\n        /* \"QuadraticVoting.sol\":4168:4181  tokenContract */\n      0x01\n      0x00\n      swap1\n      sload\n      swap1\n      0x0100\n      exp\n      swap1\n      div\n      0xffffffffffffffffffffffffffffffffffffffff\n      and\n        /* \"QuadraticVoting.sol\":4161:4181  return tokenContract */\n      swap1\n      pop\n        /* \"QuadraticVoting.sol\":4099:4188  function getERC20() view external returns(UCMToken) {... */\n      swap1\n      jump\t// out\n        /* \"QuadraticVoting.sol\":7256:7481  function withdrawFromProposal(uint amount, uint id) checkParticipant external {... */\n    tag_44:\n        /* \"QuadraticVoting.sol\":9271:9283  participants */\n      0x05\n        /* \"QuadraticVoting.sol\":9271:9295  participants[msg.sender] */\n      0x00\n        /* \"QuadraticVoting.sol\":9284:9294  msg.sender */\n      caller\n        /* \"QuadraticVoting.sol\":9271:9295  participants[msg.sender] */\n      0xffffffffffffffffffffffffffffffffffffffff\n      and\n      0xffffffffffffffffffffffffffffffffffffffff\n      and\n      dup2\n      mstore\n      0x20\n      add\n      swap1\n      dup2\n      mstore\n      0x20\n      add\n      0x00\n      keccak256\n      0x00\n      swap1\n      sload\n      swap1\n      0x0100\n      exp\n      swap1\n      div\n      0xff\n      and\n        /* \"QuadraticVoting.sol\":9263:9317  require(participants[msg.sender], \"Not a participant\") */\n      tag_106\n      jumpi\n      mload(0x40)\n      0x08c379a000000000000000000000000000000000000000000000000000000000\n      dup2\n      mstore\n      0x04\n      add\n      tag_107\n      swap1\n      jump(tag_108)\n    tag_107:\n      mload(0x40)\n      dup1\n      swap2\n      sub\n      swap1\n      revert\n    tag_106:\n        /* \"QuadraticVoting.sol\":7374:7375  0 */\n      0x00\n        /* \"QuadraticVoting.sol\":7348:7357  proposals */\n      0x07\n        /* \"QuadraticVoting.sol\":7348:7361  proposals[id] */\n      0x00\n        /* \"QuadraticVoting.sol\":7358:7360  id */\n      dup4\n        /* \"QuadraticVoting.sol\":7348:7361  proposals[id] */\n      dup2\n      mstore\n      0x20\n      add\n      swap1\n      dup2\n      mstore\n      0x20\n      add\n      0x00\n      keccak256\n        /* \"QuadraticVoting.sol\":7348:7371  proposals[id].minBudget */\n      0x04\n      add\n      sload\n        /* \"QuadraticVoting.sol\":7348:7375  proposals[id].minBudget > 0 */\n      gt\n        /* \"QuadraticVoting.sol\":7344:7474  if (proposals[id].minBudget > 0) _withdrawFromFinanceProposal(amount, id);... */\n      iszero\n      tag_110\n      jumpi\n        /* \"QuadraticVoting.sol\":7377:7417  _withdrawFromFinanceProposal(amount, id) */\n      tag_111\n        /* \"QuadraticVoting.sol\":7406:7412  amount */\n      dup3\n        /* \"QuadraticVoting.sol\":7414:7416  id */\n      dup3\n        /* \"QuadraticVoting.sol\":7377:7405  _withdrawFromFinanceProposal */\n      tag_112\n        /* \"QuadraticVoting.sol\":7377:7417  _withdrawFromFinanceProposal(amount, id) */\n      jump\t// in\n    tag_111:\n        /* \"QuadraticVoting.sol\":7344:7474  if (proposals[id].minBudget > 0) _withdrawFromFinanceProposal(amount, id);... */\n      jump(tag_113)\n    tag_110:\n        /* \"QuadraticVoting.sol\":7432:7474  _withdrawFromSignalingProposal(amount, id) */\n      tag_114\n        /* \"QuadraticVoting.sol\":7463:7469  amount */\n      dup3\n        /* \"QuadraticVoting.sol\":7471:7473  id */\n      dup3\n        /* \"QuadraticVoting.sol\":7432:7462  _withdrawFromSignalingProposal */\n      tag_115\n        /* \"QuadraticVoting.sol\":7432:7474  _withdrawFromSignalingProposal(amount, id) */\n      jump\t// in\n    tag_114:\n        /* \"QuadraticVoting.sol\":7344:7474  if (proposals[id].minBudget > 0) _withdrawFromFinanceProposal(amount, id);... */\n    tag_113:\n        /* \"QuadraticVoting.sol\":7256:7481  function withdrawFromProposal(uint amount, uint id) checkParticipant external {... */\n      pop\n      pop\n      jump\t// out\n        /* \"QuadraticVoting.sol\":3773:4041  function sellTokens(uint amount) checkParticipant checkTokenAmount(amount) external {... */\n    tag_49:\n        /* \"QuadraticVoting.sol\":9271:9283  participants */\n      0x05\n        /* \"QuadraticVoting.sol\":9271:9295  participants[msg.sender] */\n      0x00\n        /* \"QuadraticVoting.sol\":9284:9294  msg.sender */\n      caller\n        /* \"QuadraticVoting.sol\":9271:9295  participants[msg.sender] */\n      0xffffffffffffffffffffffffffffffffffffffff\n      and\n      0xffffffffffffffffffffffffffffffffffffffff\n      and\n      dup2\n      mstore\n      0x20\n      add\n      swap1\n      dup2\n      mstore\n      0x20\n      add\n      0x00\n      keccak256\n      0x00\n      swap1\n      sload\n      swap1\n      0x0100\n      exp\n      swap1\n      div\n      0xff\n      and\n        /* \"QuadraticVoting.sol\":9263:9317  require(participants[msg.sender], \"Not a participant\") */\n      tag_117\n      jumpi\n      mload(0x40)\n      0x08c379a000000000000000000000000000000000000000000000000000000000\n      dup2\n      mstore\n      0x04\n      add\n      tag_118\n      swap1\n      jump(tag_108)\n    tag_118:\n      mload(0x40)\n      dup1\n      swap2\n      sub\n      swap1\n      revert\n    tag_117:\n        /* \"QuadraticVoting.sol\":3840:3846  amount */\n      dup1\n        /* \"QuadraticVoting.sol\":9781:9794  tokenContract */\n      0x01\n      0x00\n      swap1\n      sload\n      swap1\n      0x0100\n      exp\n      swap1\n      div\n      0xffffffffffffffffffffffffffffffffffffffff\n      and\n        /* \"QuadraticVoting.sol\":9781:9804  tokenContract.balanceOf */\n      0xffffffffffffffffffffffffffffffffffffffff\n      and\n      0x70a08231\n        /* \"QuadraticVoting.sol\":9805:9815  msg.sender */\n      caller\n        /* \"QuadraticVoting.sol\":9781:9816  tokenContract.balanceOf(msg.sender) */\n      mload(0x40)\n      dup3\n      0xffffffff\n      and\n      0xe0\n      shl\n      dup2\n      mstore\n      0x04\n      add\n      tag_120\n      swap2\n      swap1\n      jump(tag_121)\n    tag_120:\n      0x20\n      mload(0x40)\n      dup1\n      dup4\n      sub\n      dup2\n      dup7\n      dup1\n      extcodesize\n      iszero\n        /* \"--CODEGEN--\":8:17   */\n      dup1\n        /* \"--CODEGEN--\":5:7   */\n      iszero\n      tag_122\n      jumpi\n        /* \"--CODEGEN--\":30:31   */\n      0x00\n        /* \"--CODEGEN--\":27:28   */\n      dup1\n        /* \"--CODEGEN--\":20:32   */\n      revert\n        /* \"--CODEGEN--\":5:7   */\n    tag_122:\n        /* \"QuadraticVoting.sol\":9781:9816  tokenContract.balanceOf(msg.sender) */\n      pop\n      gas\n      staticcall\n      iszero\n        /* \"--CODEGEN--\":8:17   */\n      dup1\n        /* \"--CODEGEN--\":5:7   */\n      iszero\n      tag_123\n      jumpi\n        /* \"--CODEGEN--\":45:61   */\n      returndatasize\n        /* \"--CODEGEN--\":42:43   */\n      0x00\n        /* \"--CODEGEN--\":39:40   */\n      dup1\n        /* \"--CODEGEN--\":24:62   */\n      returndatacopy\n        /* \"--CODEGEN--\":77:93   */\n      returndatasize\n        /* \"--CODEGEN--\":74:75   */\n      0x00\n        /* \"--CODEGEN--\":67:94   */\n      revert\n        /* \"--CODEGEN--\":5:7   */\n    tag_123:\n        /* \"QuadraticVoting.sol\":9781:9816  tokenContract.balanceOf(msg.sender) */\n      pop\n      pop\n      pop\n      pop\n      mload(0x40)\n      returndatasize\n        /* \"--CODEGEN--\":101:105   */\n      0x1f\n        /* \"--CODEGEN--\":97:106   */\n      not\n        /* \"--CODEGEN--\":90:94   */\n      0x1f\n        /* \"--CODEGEN--\":84:88   */\n      dup3\n        /* \"--CODEGEN--\":80:95   */\n      add\n        /* \"--CODEGEN--\":76:107   */\n      and\n        /* \"--CODEGEN--\":69:74   */\n      dup3\n        /* \"--CODEGEN--\":65:108   */\n      add\n        /* \"--CODEGEN--\":126:132   */\n      dup1\n        /* \"--CODEGEN--\":120:124   */\n      0x40\n        /* \"--CODEGEN--\":113:133   */\n      mstore\n        /* \"--CODEGEN--\":0:138   */\n      pop\n        /* \"QuadraticVoting.sol\":9781:9816  tokenContract.balanceOf(msg.sender) */\n      tag_124\n      swap2\n      swap1\n      dup2\n      add\n      swap1\n      jump(tag_125)\n    tag_124:\n        /* \"QuadraticVoting.sol\":9771:9777  amount */\n      dup2\n        /* \"QuadraticVoting.sol\":9771:9816  amount >= tokenContract.balanceOf(msg.sender) */\n      lt\n      iszero\n        /* \"QuadraticVoting.sol\":9763:9835  require(amount >= tokenContract.balanceOf(msg.sender), \"Invalid amount\") */\n      tag_126\n      jumpi\n      mload(0x40)\n      0x08c379a000000000000000000000000000000000000000000000000000000000\n      dup2\n      mstore\n      0x04\n      add\n      tag_127\n      swap1\n      jump(tag_128)\n    tag_127:\n      mload(0x40)\n      dup1\n      swap2\n      sub\n      swap1\n      revert\n    tag_126:\n        /* \"QuadraticVoting.sol\":3910:3916  amount */\n      dup2\n        /* \"QuadraticVoting.sol\":3871:3884  tokenContract */\n      0x01\n      0x00\n      swap1\n      sload\n      swap1\n      0x0100\n      exp\n      swap1\n      div\n      0xffffffffffffffffffffffffffffffffffffffff\n      and\n        /* \"QuadraticVoting.sol\":3871:3894  tokenContract.balanceOf */\n      0xffffffffffffffffffffffffffffffffffffffff\n      and\n      0x70a08231\n        /* \"QuadraticVoting.sol\":3895:3905  msg.sender */\n      caller\n        /* \"QuadraticVoting.sol\":3871:3906  tokenContract.balanceOf(msg.sender) */\n      mload(0x40)\n      dup3\n      0xffffffff\n      and\n      0xe0\n      shl\n      dup2\n      mstore\n      0x04\n      add\n      tag_130\n      swap2\n      swap1\n      jump(tag_121)\n    tag_130:\n      0x20\n      mload(0x40)\n      dup1\n      dup4\n      sub\n      dup2\n      dup7\n      dup1\n      extcodesize\n      iszero\n        /* \"--CODEGEN--\":8:17   */\n      dup1\n        /* \"--CODEGEN--\":5:7   */\n      iszero\n      tag_131\n      jumpi\n        /* \"--CODEGEN--\":30:31   */\n      0x00\n        /* \"--CODEGEN--\":27:28   */\n      dup1\n        /* \"--CODEGEN--\":20:32   */\n      revert\n        /* \"--CODEGEN--\":5:7   */\n    tag_131:\n        /* \"QuadraticVoting.sol\":3871:3906  tokenContract.balanceOf(msg.sender) */\n      pop\n      gas\n      staticcall\n      iszero\n        /* \"--CODEGEN--\":8:17   */\n      dup1\n        /* \"--CODEGEN--\":5:7   */\n      iszero\n      tag_132\n      jumpi\n        /* \"--CODEGEN--\":45:61   */\n      returndatasize\n        /* \"--CODEGEN--\":42:43   */\n      0x00\n        /* \"--CODEGEN--\":39:40   */\n      dup1\n        /* \"--CODEGEN--\":24:62   */\n      returndatacopy\n        /* \"--CODEGEN--\":77:93   */\n      returndatasize\n        /* \"--CODEGEN--\":74:75   */\n      0x00\n        /* \"--CODEGEN--\":67:94   */\n      revert\n        /* \"--CODEGEN--\":5:7   */\n    tag_132:\n        /* \"QuadraticVoting.sol\":3871:3906  tokenContract.balanceOf(msg.sender) */\n      pop\n      pop\n      pop\n      pop\n      mload(0x40)\n      returndatasize\n        /* \"--CODEGEN--\":101:105   */\n      0x1f\n        /* \"--CODEGEN--\":97:106   */\n      not\n        /* \"--CODEGEN--\":90:94   */\n      0x1f\n        /* \"--CODEGEN--\":84:88   */\n      dup3\n        /* \"--CODEGEN--\":80:95   */\n      add\n        /* \"--CODEGEN--\":76:107   */\n      and\n        /* \"--CODEGEN--\":69:74   */\n      dup3\n        /* \"--CODEGEN--\":65:108   */\n      add\n        /* \"--CODEGEN--\":126:132   */\n      dup1\n        /* \"--CODEGEN--\":120:124   */\n      0x40\n        /* \"--CODEGEN--\":113:133   */\n      mstore\n        /* \"--CODEGEN--\":0:138   */\n      pop\n        /* \"QuadraticVoting.sol\":3871:3906  tokenContract.balanceOf(msg.sender) */\n      tag_133\n      swap2\n      swap1\n      dup2\n      add\n      swap1\n      jump(tag_125)\n    tag_133:\n        /* \"QuadraticVoting.sol\":3871:3916  tokenContract.balanceOf(msg.sender) >= amount */\n      lt\n        /* \"QuadraticVoting.sol\":3867:4035  if (tokenContract.balanceOf(msg.sender) >= amount) {... */\n      tag_134\n      jumpi\n        /* \"QuadraticVoting.sol\":3932:3945  tokenContract */\n      0x01\n      0x00\n      swap1\n      sload\n      swap1\n      0x0100\n      exp\n      swap1\n      div\n      0xffffffffffffffffffffffffffffffffffffffff\n      and\n        /* \"QuadraticVoting.sol\":3932:3950  tokenContract.burn */\n      0xffffffffffffffffffffffffffffffffffffffff\n      and\n      0x9dc29fac\n        /* \"QuadraticVoting.sol\":3951:3961  msg.sender */\n      caller\n        /* \"QuadraticVoting.sol\":3963:3969  amount */\n      dup5\n        /* \"QuadraticVoting.sol\":3932:3970  tokenContract.burn(msg.sender, amount) */\n      mload(0x40)\n      dup4\n      0xffffffff\n      and\n      0xe0\n      shl\n      dup2\n      mstore\n      0x04\n      add\n      tag_135\n      swap3\n      swap2\n      swap1\n      jump(tag_136)\n    tag_135:\n      0x00\n      mload(0x40)\n      dup1\n      dup4\n      sub\n      dup2\n      0x00\n      dup8\n      dup1\n      extcodesize\n      iszero\n        /* \"--CODEGEN--\":8:17   */\n      dup1\n        /* \"--CODEGEN--\":5:7   */\n      iszero\n      tag_137\n      jumpi\n        /* \"--CODEGEN--\":30:31   */\n      0x00\n        /* \"--CODEGEN--\":27:28   */\n      dup1\n        /* \"--CODEGEN--\":20:32   */\n      revert\n        /* \"--CODEGEN--\":5:7   */\n    tag_137:\n        /* \"QuadraticVoting.sol\":3932:3970  tokenContract.burn(msg.sender, amount) */\n      pop\n      gas\n      call\n      iszero\n        /* \"--CODEGEN--\":8:17   */\n      dup1\n        /* \"--CODEGEN--\":5:7   */\n      iszero\n      tag_138\n      jumpi\n        /* \"--CODEGEN--\":45:61   */\n      returndatasize\n        /* \"--CODEGEN--\":42:43   */\n      0x00\n        /* \"--CODEGEN--\":39:40   */\n      dup1\n        /* \"--CODEGEN--\":24:62   */\n      returndatacopy\n        /* \"--CODEGEN--\":77:93   */\n      returndatasize\n        /* \"--CODEGEN--\":74:75   */\n      0x00\n        /* \"--CODEGEN--\":67:94   */\n      revert\n        /* \"--CODEGEN--\":5:7   */\n    tag_138:\n        /* \"QuadraticVoting.sol\":3932:3970  tokenContract.burn(msg.sender, amount) */\n      pop\n      pop\n      pop\n      pop\n        /* \"QuadraticVoting.sol\":3984:3994  msg.sender */\n      caller\n        /* \"QuadraticVoting.sol\":3984:4003  msg.sender.transfer */\n      0xffffffffffffffffffffffffffffffffffffffff\n      and\n        /* \"QuadraticVoting.sol\":3984:4024  msg.sender.transfer(amount * tokenPrice) */\n      0x08fc\n        /* \"QuadraticVoting.sol\":4013:4023  tokenPrice */\n      sload(0x02)\n        /* \"QuadraticVoting.sol\":4004:4010  amount */\n      dup5\n        /* \"QuadraticVoting.sol\":4004:4023  amount * tokenPrice */\n      mul\n        /* \"QuadraticVoting.sol\":3984:4024  msg.sender.transfer(amount * tokenPrice) */\n      swap1\n      dup2\n      iszero\n      mul\n      swap1\n      mload(0x40)\n      0x00\n      mload(0x40)\n      dup1\n      dup4\n      sub\n      dup2\n      dup6\n      dup9\n      dup9\n      call\n      swap4\n      pop\n      pop\n      pop\n      pop\n      iszero\n        /* \"--CODEGEN--\":8:17   */\n      dup1\n        /* \"--CODEGEN--\":5:7   */\n      iszero\n      tag_139\n      jumpi\n        /* \"--CODEGEN--\":45:61   */\n      returndatasize\n        /* \"--CODEGEN--\":42:43   */\n      0x00\n        /* \"--CODEGEN--\":39:40   */\n      dup1\n        /* \"--CODEGEN--\":24:62   */\n      returndatacopy\n        /* \"--CODEGEN--\":77:93   */\n      returndatasize\n        /* \"--CODEGEN--\":74:75   */\n      0x00\n        /* \"--CODEGEN--\":67:94   */\n      revert\n        /* \"--CODEGEN--\":5:7   */\n    tag_139:\n        /* \"QuadraticVoting.sol\":3984:4024  msg.sender.transfer(amount * tokenPrice) */\n      pop\n        /* \"QuadraticVoting.sol\":3867:4035  if (tokenContract.balanceOf(msg.sender) >= amount) {... */\n    tag_134:\n        /* \"QuadraticVoting.sol\":9327:9328  _ */\n      pop\n        /* \"QuadraticVoting.sol\":3773:4041  function sellTokens(uint amount) checkParticipant checkTokenAmount(amount) external {... */\n      pop\n      jump\t// out\n        /* \"QuadraticVoting.sol\":5177:5652  function stake(uint id, uint votes) external {... */\n    tag_53:\n        /* \"QuadraticVoting.sol\":5232:5246  uint tokenCost */\n      0x00\n        /* \"QuadraticVoting.sol\":5249:5278  _calculateVoteCost(id, votes) */\n      tag_141\n        /* \"QuadraticVoting.sol\":5268:5270  id */\n      dup4\n        /* \"QuadraticVoting.sol\":5272:5277  votes */\n      dup4\n        /* \"QuadraticVoting.sol\":5249:5267  _calculateVoteCost */\n      tag_142\n        /* \"QuadraticVoting.sol\":5249:5278  _calculateVoteCost(id, votes) */\n      jump\t// in\n    tag_141:\n        /* \"QuadraticVoting.sol\":5232:5278  uint tokenCost = _calculateVoteCost(id, votes) */\n      swap1\n      pop\n        /* \"QuadraticVoting.sol\":5331:5340  tokenCost */\n      dup1\n        /* \"QuadraticVoting.sol\":5292:5305  tokenContract */\n      0x01\n      0x00\n      swap1\n      sload\n      swap1\n      0x0100\n      exp\n      swap1\n      div\n      0xffffffffffffffffffffffffffffffffffffffff\n      and\n        /* \"QuadraticVoting.sol\":5292:5315  tokenContract.balanceOf */\n      0xffffffffffffffffffffffffffffffffffffffff\n      and\n      0x70a08231\n        /* \"QuadraticVoting.sol\":5316:5326  msg.sender */\n      caller\n        /* \"QuadraticVoting.sol\":5292:5327  tokenContract.balanceOf(msg.sender) */\n      mload(0x40)\n      dup3\n      0xffffffff\n      and\n      0xe0\n      shl\n      dup2\n      mstore\n      0x04\n      add\n      tag_143\n      swap2\n      swap1\n      jump(tag_121)\n    tag_143:\n      0x20\n      mload(0x40)\n      dup1\n      dup4\n      sub\n      dup2\n      dup7\n      dup1\n      extcodesize\n      iszero\n        /* \"--CODEGEN--\":8:17   */\n      dup1\n        /* \"--CODEGEN--\":5:7   */\n      iszero\n      tag_144\n      jumpi\n        /* \"--CODEGEN--\":30:31   */\n      0x00\n        /* \"--CODEGEN--\":27:28   */\n      dup1\n        /* \"--CODEGEN--\":20:32   */\n      revert\n        /* \"--CODEGEN--\":5:7   */\n    tag_144:\n        /* \"QuadraticVoting.sol\":5292:5327  tokenContract.balanceOf(msg.sender) */\n      pop\n      gas\n      staticcall\n      iszero\n        /* \"--CODEGEN--\":8:17   */\n      dup1\n        /* \"--CODEGEN--\":5:7   */\n      iszero\n      tag_145\n      jumpi\n        /* \"--CODEGEN--\":45:61   */\n      returndatasize\n        /* \"--CODEGEN--\":42:43   */\n      0x00\n        /* \"--CODEGEN--\":39:40   */\n      dup1\n        /* \"--CODEGEN--\":24:62   */\n      returndatacopy\n        /* \"--CODEGEN--\":77:93   */\n      returndatasize\n        /* \"--CODEGEN--\":74:75   */\n      0x00\n        /* \"--CODEGEN--\":67:94   */\n      revert\n        /* \"--CODEGEN--\":5:7   */\n    tag_145:\n        /* \"QuadraticVoting.sol\":5292:5327  tokenContract.balanceOf(msg.sender) */\n      pop\n      pop\n      pop\n      pop\n      mload(0x40)\n      returndatasize\n        /* \"--CODEGEN--\":101:105   */\n      0x1f\n        /* \"--CODEGEN--\":97:106   */\n      not\n        /* \"--CODEGEN--\":90:94   */\n      0x1f\n        /* \"--CODEGEN--\":84:88   */\n      dup3\n        /* \"--CODEGEN--\":80:95   */\n      add\n        /* \"--CODEGEN--\":76:107   */\n      and\n        /* \"--CODEGEN--\":69:74   */\n      dup3\n        /* \"--CODEGEN--\":65:108   */\n      add\n        /* \"--CODEGEN--\":126:132   */\n      dup1\n        /* \"--CODEGEN--\":120:124   */\n      0x40\n        /* \"--CODEGEN--\":113:133   */\n      mstore\n        /* \"--CODEGEN--\":0:138   */\n      pop\n        /* \"QuadraticVoting.sol\":5292:5327  tokenContract.balanceOf(msg.sender) */\n      tag_146\n      swap2\n      swap1\n      dup2\n      add\n      swap1\n      jump(tag_125)\n    tag_146:\n        /* \"QuadraticVoting.sol\":5292:5340  tokenContract.balanceOf(msg.sender) >= tokenCost */\n      lt\n      iszero\n        /* \"QuadraticVoting.sol\":5292:5364  tokenContract.balanceOf(msg.sender) >= tokenCost && proposals[id].exists */\n      dup1\n      iszero\n      tag_147\n      jumpi\n      pop\n        /* \"QuadraticVoting.sol\":5344:5353  proposals */\n      0x07\n        /* \"QuadraticVoting.sol\":5344:5357  proposals[id] */\n      0x00\n        /* \"QuadraticVoting.sol\":5354:5356  id */\n      dup5\n        /* \"QuadraticVoting.sol\":5344:5357  proposals[id] */\n      dup2\n      mstore\n      0x20\n      add\n      swap1\n      dup2\n      mstore\n      0x20\n      add\n      0x00\n      keccak256\n        /* \"QuadraticVoting.sol\":5344:5364  proposals[id].exists */\n      0x08\n      add\n      0x01\n      swap1\n      sload\n      swap1\n      0x0100\n      exp\n      swap1\n      div\n      0xff\n      and\n        /* \"QuadraticVoting.sol\":5292:5364  tokenContract.balanceOf(msg.sender) >= tokenCost && proposals[id].exists */\n    tag_147:\n        /* \"QuadraticVoting.sol\":5288:5646  if (tokenContract.balanceOf(msg.sender) >= tokenCost && proposals[id].exists) { //Check if exist proposal id... */\n      iszero\n      tag_148\n      jumpi\n        /* \"QuadraticVoting.sol\":5409:5422  tokenContract */\n      0x01\n      0x00\n      swap1\n      sload\n      swap1\n      0x0100\n      exp\n      swap1\n      div\n      0xffffffffffffffffffffffffffffffffffffffff\n      and\n        /* \"QuadraticVoting.sol\":5409:5436  tokenContract.stakeTransfer */\n      0xffffffffffffffffffffffffffffffffffffffff\n      and\n      0xebc3adcd\n        /* \"QuadraticVoting.sol\":5437:5447  msg.sender */\n      caller\n        /* \"QuadraticVoting.sol\":5449:5458  tokenCost */\n      dup4\n        /* \"QuadraticVoting.sol\":5409:5459  tokenContract.stakeTransfer(msg.sender, tokenCost) */\n      mload(0x40)\n      dup4\n      0xffffffff\n      and\n      0xe0\n      shl\n      dup2\n      mstore\n      0x04\n      add\n      tag_149\n      swap3\n      swap2\n      swap1\n      jump(tag_136)\n    tag_149:\n      0x00\n      mload(0x40)\n      dup1\n      dup4\n      sub\n      dup2\n      0x00\n      dup8\n      dup1\n      extcodesize\n      iszero\n        /* \"--CODEGEN--\":8:17   */\n      dup1\n        /* \"--CODEGEN--\":5:7   */\n      iszero\n      tag_150\n      jumpi\n        /* \"--CODEGEN--\":30:31   */\n      0x00\n        /* \"--CODEGEN--\":27:28   */\n      dup1\n        /* \"--CODEGEN--\":20:32   */\n      revert\n        /* \"--CODEGEN--\":5:7   */\n    tag_150:\n        /* \"QuadraticVoting.sol\":5409:5459  tokenContract.stakeTransfer(msg.sender, tokenCost) */\n      pop\n      gas\n      call\n      iszero\n        /* \"--CODEGEN--\":8:17   */\n      dup1\n        /* \"--CODEGEN--\":5:7   */\n      iszero\n      tag_151\n      jumpi\n        /* \"--CODEGEN--\":45:61   */\n      returndatasize\n        /* \"--CODEGEN--\":42:43   */\n      0x00\n        /* \"--CODEGEN--\":39:40   */\n      dup1\n        /* \"--CODEGEN--\":24:62   */\n      returndatacopy\n        /* \"--CODEGEN--\":77:93   */\n      returndatasize\n        /* \"--CODEGEN--\":74:75   */\n      0x00\n        /* \"--CODEGEN--\":67:94   */\n      revert\n        /* \"--CODEGEN--\":5:7   */\n    tag_151:\n        /* \"QuadraticVoting.sol\":5409:5459  tokenContract.stakeTransfer(msg.sender, tokenCost) */\n      pop\n      pop\n      pop\n      pop\n        /* \"QuadraticVoting.sol\":5503:5508  votes */\n      dup2\n        /* \"QuadraticVoting.sol\":5473:5482  proposals */\n      0x07\n        /* \"QuadraticVoting.sol\":5473:5486  proposals[id] */\n      0x00\n        /* \"QuadraticVoting.sol\":5483:5485  id */\n      dup6\n        /* \"QuadraticVoting.sol\":5473:5486  proposals[id] */\n      dup2\n      mstore\n      0x20\n      add\n      swap1\n      dup2\n      mstore\n      0x20\n      add\n      0x00\n      keccak256\n        /* \"QuadraticVoting.sol\":5473:5499  proposals[id].currentVotes */\n      0x05\n      add\n      0x00\n        /* \"QuadraticVoting.sol\":5473:5508  proposals[id].currentVotes += votes */\n      dup3\n      dup3\n      sload\n      add\n      swap3\n      pop\n      pop\n      dup2\n      swap1\n      sstore\n      pop\n        /* \"QuadraticVoting.sol\":5527:5550  _isProposalApproved(id) */\n      tag_152\n        /* \"QuadraticVoting.sol\":5547:5549  id */\n      dup4\n        /* \"QuadraticVoting.sol\":5527:5546  _isProposalApproved */\n      tag_153\n        /* \"QuadraticVoting.sol\":5527:5550  _isProposalApproved(id) */\n      jump\t// in\n    tag_152:\n        /* \"QuadraticVoting.sol\":5527:5581  _isProposalApproved(id) && proposals[id].minBudget > 0 */\n      dup1\n      iszero\n      tag_154\n      jumpi\n      pop\n        /* \"QuadraticVoting.sol\":5580:5581  0 */\n      0x00\n        /* \"QuadraticVoting.sol\":5554:5563  proposals */\n      0x07\n        /* \"QuadraticVoting.sol\":5554:5567  proposals[id] */\n      0x00\n        /* \"QuadraticVoting.sol\":5564:5566  id */\n      dup6\n        /* \"QuadraticVoting.sol\":5554:5567  proposals[id] */\n      dup2\n      mstore\n      0x20\n      add\n      swap1\n      dup2\n      mstore\n      0x20\n      add\n      0x00\n      keccak256\n        /* \"QuadraticVoting.sol\":5554:5577  proposals[id].minBudget */\n      0x04\n      add\n      sload\n        /* \"QuadraticVoting.sol\":5554:5581  proposals[id].minBudget > 0 */\n      gt\n        /* \"QuadraticVoting.sol\":5527:5581  _isProposalApproved(id) && proposals[id].minBudget > 0 */\n    tag_154:\n        /* \"QuadraticVoting.sol\":5523:5636  if (_isProposalApproved(id) && proposals[id].minBudget > 0) {... */\n      iszero\n      tag_155\n      jumpi\n        /* \"QuadraticVoting.sol\":5601:5621  _approveProposal(id) */\n      tag_156\n        /* \"QuadraticVoting.sol\":5618:5620  id */\n      dup4\n        /* \"QuadraticVoting.sol\":5601:5617  _approveProposal */\n      tag_157\n        /* \"QuadraticVoting.sol\":5601:5621  _approveProposal(id) */\n      jump\t// in\n    tag_156:\n        /* \"QuadraticVoting.sol\":5523:5636  if (_isProposalApproved(id) && proposals[id].minBudget > 0) {... */\n    tag_155:\n        /* \"QuadraticVoting.sol\":5288:5646  if (tokenContract.balanceOf(msg.sender) >= tokenCost && proposals[id].exists) { //Check if exist proposal id... */\n    tag_148:\n        /* \"QuadraticVoting.sol\":5177:5652  function stake(uint id, uint votes) external {... */\n      pop\n      pop\n      pop\n      jump\t// out\n        /* \"QuadraticVoting.sol\":280:302  uint public tokenPrice */\n    tag_56:\n      sload(0x02)\n      dup2\n      jump\t// out\n        /* \"QuadraticVoting.sol\":4665:4813  function getSignalingProposals() checkVotingOpen view external returns(uint[] memory) {... */\n    tag_61:\n        /* \"QuadraticVoting.sol\":4736:4749  uint[] memory */\n      0x60\n        /* \"QuadraticVoting.sol\":9401:9402  1 */\n      0x01\n        /* \"QuadraticVoting.sol\":9386:9397  votingState */\n      dup1\n      0x14\n      swap1\n      sload\n      swap1\n      0x0100\n      exp\n      swap1\n      div\n      0xff\n      and\n        /* \"QuadraticVoting.sol\":9386:9402  votingState == 1 */\n      0xff\n      and\n      eq\n        /* \"QuadraticVoting.sol\":9378:9422  require(votingState == 1, \"Voting not open\") */\n      tag_159\n      jumpi\n      mload(0x40)\n      0x08c379a000000000000000000000000000000000000000000000000000000000\n      dup2\n      mstore\n      0x04\n      add\n      tag_160\n      swap1\n      jump(tag_102)\n    tag_160:\n      mload(0x40)\n      dup1\n      swap2\n      sub\n      swap1\n      revert\n    tag_159:\n        /* \"QuadraticVoting.sol\":4761:4779  uint [] memory ids */\n      0x60\n        /* \"QuadraticVoting.sol\":4796:4799  ids */\n      dup1\n        /* \"QuadraticVoting.sol\":4789:4799  return ids */\n      swap2\n      pop\n      pop\n        /* \"QuadraticVoting.sol\":4665:4813  function getSignalingProposals() checkVotingOpen view external returns(uint[] memory) {... */\n      swap1\n      jump\t// out\n        /* \"QuadraticVoting.sol\":2343:3043  function addProposal(string calldata title, string calldata description, uint minBudget, address executableProposal) checkParticipant checkVotingOpen external returns(uint) {... */\n    tag_67:\n        /* \"QuadraticVoting.sol\":2510:2514  uint */\n      0x00\n        /* \"QuadraticVoting.sol\":9271:9283  participants */\n      0x05\n        /* \"QuadraticVoting.sol\":9271:9295  participants[msg.sender] */\n      0x00\n        /* \"QuadraticVoting.sol\":9284:9294  msg.sender */\n      caller\n        /* \"QuadraticVoting.sol\":9271:9295  participants[msg.sender] */\n      0xffffffffffffffffffffffffffffffffffffffff\n      and\n      0xffffffffffffffffffffffffffffffffffffffff\n      and\n      dup2\n      mstore\n      0x20\n      add\n      swap1\n      dup2\n      mstore\n      0x20\n      add\n      0x00\n      keccak256\n      0x00\n      swap1\n      sload\n      swap1\n      0x0100\n      exp\n      swap1\n      div\n      0xff\n      and\n        /* \"QuadraticVoting.sol\":9263:9317  require(participants[msg.sender], \"Not a participant\") */\n      tag_163\n      jumpi\n      mload(0x40)\n      0x08c379a000000000000000000000000000000000000000000000000000000000\n      dup2\n      mstore\n      0x04\n      add\n      tag_164\n      swap1\n      jump(tag_108)\n    tag_164:\n      mload(0x40)\n      dup1\n      swap2\n      sub\n      swap1\n      revert\n    tag_163:\n        /* \"QuadraticVoting.sol\":9401:9402  1 */\n      0x01\n        /* \"QuadraticVoting.sol\":9386:9397  votingState */\n      dup1\n      0x14\n      swap1\n      sload\n      swap1\n      0x0100\n      exp\n      swap1\n      div\n      0xff\n      and\n        /* \"QuadraticVoting.sol\":9386:9402  votingState == 1 */\n      0xff\n      and\n      eq\n        /* \"QuadraticVoting.sol\":9378:9422  require(votingState == 1, \"Voting not open\") */\n      tag_166\n      jumpi\n      mload(0x40)\n      0x08c379a000000000000000000000000000000000000000000000000000000000\n      dup2\n      mstore\n      0x04\n      add\n      tag_167\n      swap1\n      jump(tag_102)\n    tag_167:\n      mload(0x40)\n      dup1\n      swap2\n      sub\n      swap1\n      revert\n    tag_166:\n        /* \"QuadraticVoting.sol\":2526:2550  Proposal memory proposal */\n      tag_169\n      tag_170\n      jump\t// in\n    tag_169:\n        /* \"QuadraticVoting.sol\":2577:2587  msg.sender */\n      caller\n        /* \"QuadraticVoting.sol\":2560:2568  proposal */\n      dup2\n        /* \"QuadraticVoting.sol\":2560:2574  proposal.owner */\n      0x00\n      add\n        /* \"QuadraticVoting.sol\":2560:2587  proposal.owner = msg.sender */\n      swap1\n      0xffffffffffffffffffffffffffffffffffffffff\n      and\n      swap1\n      dup2\n      0xffffffffffffffffffffffffffffffffffffffff\n      and\n      dup2\n      mstore\n      pop\n      pop\n        /* \"QuadraticVoting.sol\":2647:2665  executableProposal */\n      dup3\n        /* \"QuadraticVoting.sol\":2597:2605  proposal */\n      dup2\n        /* \"QuadraticVoting.sol\":2597:2624  proposal.executableProposal */\n      0x20\n      add\n        /* \"QuadraticVoting.sol\":2597:2666  proposal.executableProposal = IExecutableProposal(executableProposal) */\n      swap1\n      0xffffffffffffffffffffffffffffffffffffffff\n      and\n      swap1\n      dup2\n      0xffffffffffffffffffffffffffffffffffffffff\n      and\n      dup2\n      mstore\n      pop\n      pop\n        /* \"QuadraticVoting.sol\":2693:2698  title */\n      dup8\n      dup8\n        /* \"QuadraticVoting.sol\":2676:2698  proposal.title = title */\n      dup1\n      dup1\n      0x1f\n      add\n      0x20\n      dup1\n      swap2\n      div\n      mul\n      0x20\n      add\n      mload(0x40)\n      swap1\n      dup2\n      add\n      0x40\n      mstore\n      dup1\n      swap4\n      swap3\n      swap2\n      swap1\n      dup2\n      dup2\n      mstore\n      0x20\n      add\n      dup4\n      dup4\n        /* \"--CODEGEN--\":30:33   */\n      dup1\n        /* \"--CODEGEN--\":22:28   */\n      dup3\n        /* \"--CODEGEN--\":14:20   */\n      dup5\n        /* \"--CODEGEN--\":1:34   */\n      calldatacopy\n        /* \"--CODEGEN--\":99:100   */\n      0x00\n        /* \"--CODEGEN--\":93:96   */\n      dup2\n        /* \"--CODEGEN--\":85:91   */\n      dup5\n        /* \"--CODEGEN--\":81:97   */\n      add\n        /* \"--CODEGEN--\":74:101   */\n      mstore\n        /* \"--CODEGEN--\":137:141   */\n      0x1f\n        /* \"--CODEGEN--\":133:142   */\n      not\n        /* \"--CODEGEN--\":126:130   */\n      0x1f\n        /* \"--CODEGEN--\":121:124   */\n      dup3\n        /* \"--CODEGEN--\":117:131   */\n      add\n        /* \"--CODEGEN--\":113:143   */\n      and\n        /* \"--CODEGEN--\":106:143   */\n      swap1\n      pop\n        /* \"--CODEGEN--\":169:172   */\n      dup1\n        /* \"--CODEGEN--\":161:167   */\n      dup4\n        /* \"--CODEGEN--\":157:173   */\n      add\n        /* \"--CODEGEN--\":147:173   */\n      swap3\n      pop\n        /* \"QuadraticVoting.sol\":2676:2698  proposal.title = title */\n      pop\n      pop\n      pop\n      pop\n      pop\n      pop\n        /* \"QuadraticVoting.sol\":2676:2684  proposal */\n      dup2\n        /* \"QuadraticVoting.sol\":2676:2690  proposal.title */\n      0x40\n      add\n        /* \"QuadraticVoting.sol\":2676:2698  proposal.title = title */\n      dup2\n      swap1\n      mstore\n      pop\n        /* \"QuadraticVoting.sol\":2731:2742  description */\n      dup6\n      dup6\n        /* \"QuadraticVoting.sol\":2708:2742  proposal.description = description */\n      dup1\n      dup1\n      0x1f\n      add\n      0x20\n      dup1\n      swap2\n      div\n      mul\n      0x20\n      add\n      mload(0x40)\n      swap1\n      dup2\n      add\n      0x40\n      mstore\n      dup1\n      swap4\n      swap3\n      swap2\n      swap1\n      dup2\n      dup2\n      mstore\n      0x20\n      add\n      dup4\n      dup4\n        /* \"--CODEGEN--\":30:33   */\n      dup1\n        /* \"--CODEGEN--\":22:28   */\n      dup3\n        /* \"--CODEGEN--\":14:20   */\n      dup5\n        /* \"--CODEGEN--\":1:34   */\n      calldatacopy\n        /* \"--CODEGEN--\":99:100   */\n      0x00\n        /* \"--CODEGEN--\":93:96   */\n      dup2\n        /* \"--CODEGEN--\":85:91   */\n      dup5\n        /* \"--CODEGEN--\":81:97   */\n      add\n        /* \"--CODEGEN--\":74:101   */\n      mstore\n        /* \"--CODEGEN--\":137:141   */\n      0x1f\n        /* \"--CODEGEN--\":133:142   */\n      not\n        /* \"--CODEGEN--\":126:130   */\n      0x1f\n        /* \"--CODEGEN--\":121:124   */\n      dup3\n        /* \"--CODEGEN--\":117:131   */\n      add\n        /* \"--CODEGEN--\":113:143   */\n      and\n        /* \"--CODEGEN--\":106:143   */\n      swap1\n      pop\n        /* \"--CODEGEN--\":169:172   */\n      dup1\n        /* \"--CODEGEN--\":161:167   */\n      dup4\n        /* \"--CODEGEN--\":157:173   */\n      add\n        /* \"--CODEGEN--\":147:173   */\n      swap3\n      pop\n        /* \"QuadraticVoting.sol\":2708:2742  proposal.description = description */\n      pop\n      pop\n      pop\n      pop\n      pop\n      pop\n        /* \"QuadraticVoting.sol\":2708:2716  proposal */\n      dup2\n        /* \"QuadraticVoting.sol\":2708:2728  proposal.description */\n      0x60\n      add\n        /* \"QuadraticVoting.sol\":2708:2742  proposal.description = description */\n      dup2\n      swap1\n      mstore\n      pop\n        /* \"QuadraticVoting.sol\":2773:2782  minBudget */\n      dup4\n        /* \"QuadraticVoting.sol\":2752:2760  proposal */\n      dup2\n        /* \"QuadraticVoting.sol\":2752:2770  proposal.minBudget */\n      0x80\n      add\n        /* \"QuadraticVoting.sol\":2752:2782  proposal.minBudget = minBudget */\n      dup2\n      dup2\n      mstore\n      pop\n      pop\n        /* \"QuadraticVoting.sol\":2816:2817  0 */\n      0x00\n        /* \"QuadraticVoting.sol\":2792:2800  proposal */\n      dup2\n        /* \"QuadraticVoting.sol\":2792:2813  proposal.currentVotes */\n      0xa0\n      add\n        /* \"QuadraticVoting.sol\":2792:2817  proposal.currentVotes = 0 */\n      dup2\n      dup2\n      mstore\n      pop\n      pop\n        /* \"QuadraticVoting.sol\":2852:2853  0 */\n      0x00\n        /* \"QuadraticVoting.sol\":2827:2835  proposal */\n      dup2\n        /* \"QuadraticVoting.sol\":2827:2849  proposal.currentTokens */\n      0xc0\n      add\n        /* \"QuadraticVoting.sol\":2827:2853  proposal.currentTokens = 0 */\n      dup2\n      dup2\n      mstore\n      pop\n      pop\n        /* \"QuadraticVoting.sol\":2880:2881  0 */\n      0x00\n        /* \"QuadraticVoting.sol\":2863:2871  proposal */\n      dup2\n        /* \"QuadraticVoting.sol\":2863:2877  proposal.state */\n      0xe0\n      add\n        /* \"QuadraticVoting.sol\":2863:2881  proposal.state = 0 */\n      swap1\n      0xff\n      and\n      swap1\n      dup2\n      0xff\n      and\n      dup2\n      mstore\n      pop\n      pop\n        /* \"QuadraticVoting.sol\":2907:2911  true */\n      0x01\n        /* \"QuadraticVoting.sol\":2891:2899  proposal */\n      dup2\n        /* \"QuadraticVoting.sol\":2891:2906  proposal.exists */\n      0x0100\n      add\n        /* \"QuadraticVoting.sol\":2891:2911  proposal.exists=true */\n      swap1\n      iszero\n      iszero\n      swap1\n      dup2\n      iszero\n      iszero\n      dup2\n      mstore\n      pop\n      pop\n        /* \"QuadraticVoting.sol\":2921:2935  lastProposalId */\n      0x08\n      0x00\n        /* \"QuadraticVoting.sol\":2921:2937  lastProposalId++ */\n      dup2\n      sload\n      dup1\n      swap3\n      swap2\n      swap1\n      0x01\n      add\n      swap2\n      swap1\n      pop\n      sstore\n      pop\n        /* \"QuadraticVoting.sol\":2975:2983  proposal */\n      dup1\n        /* \"QuadraticVoting.sol\":2947:2956  proposals */\n      0x07\n        /* \"QuadraticVoting.sol\":2947:2972  proposals[lastProposalId] */\n      0x00\n        /* \"QuadraticVoting.sol\":2957:2971  lastProposalId */\n      sload(0x08)\n        /* \"QuadraticVoting.sol\":2947:2972  proposals[lastProposalId] */\n      dup2\n      mstore\n      0x20\n      add\n      swap1\n      dup2\n      mstore\n      0x20\n      add\n      0x00\n      keccak256\n        /* \"QuadraticVoting.sol\":2947:2983  proposals[lastProposalId] = proposal */\n      0x00\n      dup3\n      add\n      mload\n      dup2\n      0x00\n      add\n      exp(0x0100, 0x00)\n      dup2\n      sload\n      dup2\n      0xffffffffffffffffffffffffffffffffffffffff\n      mul\n      not\n      and\n      swap1\n      dup4\n      0xffffffffffffffffffffffffffffffffffffffff\n      and\n      mul\n      or\n      swap1\n      sstore\n      pop\n      0x20\n      dup3\n      add\n      mload\n      dup2\n      0x01\n      add\n      exp(0x0100, 0x00)\n      dup2\n      sload\n      dup2\n      0xffffffffffffffffffffffffffffffffffffffff\n      mul\n      not\n      and\n      swap1\n      dup4\n      0xffffffffffffffffffffffffffffffffffffffff\n      and\n      mul\n      or\n      swap1\n      sstore\n      pop\n      0x40\n      dup3\n      add\n      mload\n      dup2\n      0x02\n      add\n      swap1\n      dup1\n      mload\n      swap1\n      0x20\n      add\n      swap1\n      tag_171\n      swap3\n      swap2\n      swap1\n      tag_172\n      jump\t// in\n    tag_171:\n      pop\n      0x60\n      dup3\n      add\n      mload\n      dup2\n      0x03\n      add\n      swap1\n      dup1\n      mload\n      swap1\n      0x20\n      add\n      swap1\n      tag_173\n      swap3\n      swap2\n      swap1\n      tag_172\n      jump\t// in\n    tag_173:\n      pop\n      0x80\n      dup3\n      add\n      mload\n      dup2\n      0x04\n      add\n      sstore\n      0xa0\n      dup3\n      add\n      mload\n      dup2\n      0x05\n      add\n      sstore\n      0xc0\n      dup3\n      add\n      mload\n      dup2\n      0x06\n      add\n      sstore\n      0xe0\n      dup3\n      add\n      mload\n      dup2\n      0x08\n      add\n      exp(0x0100, 0x00)\n      dup2\n      sload\n      dup2\n      0xff\n      mul\n      not\n      and\n      swap1\n      dup4\n      0xff\n      and\n      mul\n      or\n      swap1\n      sstore\n      pop\n      0x0100\n      dup3\n      add\n      mload\n      dup2\n      0x08\n      add\n      exp(0x0100, 0x01)\n      dup2\n      sload\n      dup2\n      0xff\n      mul\n      not\n      and\n      swap1\n      dup4\n      iszero\n      iszero\n      mul\n      or\n      swap1\n      sstore\n      pop\n      swap1\n      pop\n      pop\n        /* \"QuadraticVoting.sol\":2993:3003  nProposals */\n      0x06\n      0x00\n        /* \"QuadraticVoting.sol\":2993:3005  nProposals++ */\n      dup2\n      sload\n      dup1\n      swap3\n      swap2\n      swap1\n      0x01\n      add\n      swap2\n      swap1\n      pop\n      sstore\n      pop\n        /* \"QuadraticVoting.sol\":3022:3036  lastProposalId */\n      sload(0x08)\n        /* \"QuadraticVoting.sol\":3015:3036  return lastProposalId */\n      swap2\n      pop\n      pop\n        /* \"QuadraticVoting.sol\":2343:3043  function addProposal(string calldata title, string calldata description, uint minBudget, address executableProposal) checkParticipant checkVotingOpen external returns(uint) {... */\n      swap7\n      swap6\n      pop\n      pop\n      pop\n      pop\n      pop\n      pop\n      jump\t// out\n        /* \"QuadraticVoting.sol\":4250:4396  function getPendingProposals() checkVotingOpen view external returns(uint[] memory) {... */\n    tag_71:\n        /* \"QuadraticVoting.sol\":4319:4332  uint[] memory */\n      0x60\n        /* \"QuadraticVoting.sol\":9401:9402  1 */\n      0x01\n        /* \"QuadraticVoting.sol\":9386:9397  votingState */\n      dup1\n      0x14\n      swap1\n      sload\n      swap1\n      0x0100\n      exp\n      swap1\n      div\n      0xff\n      and\n        /* \"QuadraticVoting.sol\":9386:9402  votingState == 1 */\n      0xff\n      and\n      eq\n        /* \"QuadraticVoting.sol\":9378:9422  require(votingState == 1, \"Voting not open\") */\n      tag_175\n      jumpi\n      mload(0x40)\n      0x08c379a000000000000000000000000000000000000000000000000000000000\n      dup2\n      mstore\n      0x04\n      add\n      tag_176\n      swap1\n      jump(tag_102)\n    tag_176:\n      mload(0x40)\n      dup1\n      swap2\n      sub\n      swap1\n      revert\n    tag_175:\n        /* \"QuadraticVoting.sol\":4344:4362  uint [] memory ids */\n      0x60\n        /* \"QuadraticVoting.sol\":4379:4382  ids */\n      dup1\n        /* \"QuadraticVoting.sol\":4372:4382  return ids */\n      swap2\n      pop\n      pop\n        /* \"QuadraticVoting.sol\":4250:4396  function getPendingProposals() checkVotingOpen view external returns(uint[] memory) {... */\n      swap1\n      jump\t// out\n        /* \"QuadraticVoting.sol\":1916:2023  function openVoting() checkOwner external payable {... */\n    tag_74:\n        /* \"QuadraticVoting.sol\":9179:9184  owner */\n      0x00\n      dup1\n      swap1\n      sload\n      swap1\n      0x0100\n      exp\n      swap1\n      div\n      0xffffffffffffffffffffffffffffffffffffffff\n      and\n        /* \"QuadraticVoting.sol\":9165:9184  msg.sender == owner */\n      0xffffffffffffffffffffffffffffffffffffffff\n      and\n        /* \"QuadraticVoting.sol\":9165:9175  msg.sender */\n      caller\n        /* \"QuadraticVoting.sol\":9165:9184  msg.sender == owner */\n      0xffffffffffffffffffffffffffffffffffffffff\n      and\n      eq\n        /* \"QuadraticVoting.sol\":9157:9201  require(msg.sender == owner, \"Unauthorized\") */\n      tag_179\n      jumpi\n      mload(0x40)\n      0x08c379a000000000000000000000000000000000000000000000000000000000\n      dup2\n      mstore\n      0x04\n      add\n      tag_180\n      swap1\n      jump(tag_181)\n    tag_180:\n      mload(0x40)\n      dup1\n      swap2\n      sub\n      swap1\n      revert\n    tag_179:\n        /* \"QuadraticVoting.sol\":1990:1991  1 */\n      0x01\n        /* \"QuadraticVoting.sol\":1976:1987  votingState */\n      dup1\n      0x14\n        /* \"QuadraticVoting.sol\":1976:1991  votingState = 1 */\n      0x0100\n      exp\n      dup2\n      sload\n      dup2\n      0xff\n      mul\n      not\n      and\n      swap1\n      dup4\n      0xff\n      and\n      mul\n      or\n      swap1\n      sstore\n      pop\n        /* \"QuadraticVoting.sol\":2006:2016  OpenVote() */\n      0x1c9b9ae417b15d6782146a380a280b52403258caac00795087e065bbc9fb9e80\n      mload(0x40)\n      mload(0x40)\n      dup1\n      swap2\n      sub\n      swap1\n      log1\n        /* \"QuadraticVoting.sol\":1916:2023  function openVoting() checkOwner external payable {... */\n      jump\t// out\n        /* \"QuadraticVoting.sol\":4871:5137  function getProposalInfo(uint id) checkVotingOpen view external returns(string memory title, string memory description, IExecutableProposal executableProposal) {... */\n    tag_78:\n        /* \"QuadraticVoting.sol\":4943:4962  string memory title */\n      0x60\n        /* \"QuadraticVoting.sol\":4964:4989  string memory description */\n      dup1\n        /* \"QuadraticVoting.sol\":4991:5029  IExecutableProposal executableProposal */\n      0x00\n        /* \"QuadraticVoting.sol\":9401:9402  1 */\n      0x01\n        /* \"QuadraticVoting.sol\":9386:9397  votingState */\n      dup1\n      0x14\n      swap1\n      sload\n      swap1\n      0x0100\n      exp\n      swap1\n      div\n      0xff\n      and\n        /* \"QuadraticVoting.sol\":9386:9402  votingState == 1 */\n      0xff\n      and\n      eq\n        /* \"QuadraticVoting.sol\":9378:9422  require(votingState == 1, \"Voting not open\") */\n      tag_184\n      jumpi\n      mload(0x40)\n      0x08c379a000000000000000000000000000000000000000000000000000000000\n      dup2\n      mstore\n      0x04\n      add\n      tag_185\n      swap1\n      jump(tag_102)\n    tag_185:\n      mload(0x40)\n      dup1\n      swap2\n      sub\n      swap1\n      revert\n    tag_184:\n        /* \"QuadraticVoting.sol\":5049:5058  proposals */\n      0x07\n        /* \"QuadraticVoting.sol\":5049:5062  proposals[id] */\n      0x00\n        /* \"QuadraticVoting.sol\":5059:5061  id */\n      dup6\n        /* \"QuadraticVoting.sol\":5049:5062  proposals[id] */\n      dup2\n      mstore\n      0x20\n      add\n      swap1\n      dup2\n      mstore\n      0x20\n      add\n      0x00\n      keccak256\n        /* \"QuadraticVoting.sol\":5049:5068  proposals[id].title */\n      0x02\n      add\n        /* \"QuadraticVoting.sol\":5070:5079  proposals */\n      0x07\n        /* \"QuadraticVoting.sol\":5070:5083  proposals[id] */\n      0x00\n        /* \"QuadraticVoting.sol\":5080:5082  id */\n      dup7\n        /* \"QuadraticVoting.sol\":5070:5083  proposals[id] */\n      dup2\n      mstore\n      0x20\n      add\n      swap1\n      dup2\n      mstore\n      0x20\n      add\n      0x00\n      keccak256\n        /* \"QuadraticVoting.sol\":5070:5095  proposals[id].description */\n      0x03\n      add\n        /* \"QuadraticVoting.sol\":5097:5106  proposals */\n      0x07\n        /* \"QuadraticVoting.sol\":5097:5110  proposals[id] */\n      0x00\n        /* \"QuadraticVoting.sol\":5107:5109  id */\n      dup8\n        /* \"QuadraticVoting.sol\":5097:5110  proposals[id] */\n      dup2\n      mstore\n      0x20\n      add\n      swap1\n      dup2\n      mstore\n      0x20\n      add\n      0x00\n      keccak256\n        /* \"QuadraticVoting.sol\":5097:5129  proposals[id].executableProposal */\n      0x01\n      add\n      0x00\n      swap1\n      sload\n      swap1\n      0x0100\n      exp\n      swap1\n      div\n      0xffffffffffffffffffffffffffffffffffffffff\n      and\n        /* \"QuadraticVoting.sol\":5041:5130  return (proposals[id].title, proposals[id].description, proposals[id].executableProposal) */\n      dup3\n      dup1\n      sload\n      0x01\n      dup2\n      0x01\n      and\n      iszero\n      0x0100\n      mul\n      sub\n      and\n      0x02\n      swap1\n      div\n      dup1\n      0x1f\n      add\n      0x20\n      dup1\n      swap2\n      div\n      mul\n      0x20\n      add\n      mload(0x40)\n      swap1\n      dup2\n      add\n      0x40\n      mstore\n      dup1\n      swap3\n      swap2\n      swap1\n      dup2\n      dup2\n      mstore\n      0x20\n      add\n      dup3\n      dup1\n      sload\n      0x01\n      dup2\n      0x01\n      and\n      iszero\n      0x0100\n      mul\n      sub\n      and\n      0x02\n      swap1\n      div\n      dup1\n      iszero\n      tag_187\n      jumpi\n      dup1\n      0x1f\n      lt\n      tag_188\n      jumpi\n      0x0100\n      dup1\n      dup4\n      sload\n      div\n      mul\n      dup4\n      mstore\n      swap2\n      0x20\n      add\n      swap2\n      jump(tag_187)\n    tag_188:\n      dup3\n      add\n      swap2\n      swap1\n      0x00\n      mstore\n      keccak256(0x00, 0x20)\n      swap1\n    tag_189:\n      dup2\n      sload\n      dup2\n      mstore\n      swap1\n      0x01\n      add\n      swap1\n      0x20\n      add\n      dup1\n      dup4\n      gt\n      tag_189\n      jumpi\n      dup3\n      swap1\n      sub\n      0x1f\n      and\n      dup3\n      add\n      swap2\n    tag_187:\n      pop\n      pop\n      pop\n      pop\n      pop\n      swap3\n      pop\n      dup2\n      dup1\n      sload\n      0x01\n      dup2\n      0x01\n      and\n      iszero\n      0x0100\n      mul\n      sub\n      and\n      0x02\n      swap1\n      div\n      dup1\n      0x1f\n      add\n      0x20\n      dup1\n      swap2\n      div\n      mul\n      0x20\n      add\n      mload(0x40)\n      swap1\n      dup2\n      add\n      0x40\n      mstore\n      dup1\n      swap3\n      swap2\n      swap1\n      dup2\n      dup2\n      mstore\n      0x20\n      add\n      dup3\n      dup1\n      sload\n      0x01\n      dup2\n      0x01\n      and\n      iszero\n      0x0100\n      mul\n      sub\n      and\n      0x02\n      swap1\n      div\n      dup1\n      iszero\n      tag_190\n      jumpi\n      dup1\n      0x1f\n      lt\n      tag_191\n      jumpi\n      0x0100\n      dup1\n      dup4\n      sload\n      div\n      mul\n      dup4\n      mstore\n      swap2\n      0x20\n      add\n      swap2\n      jump(tag_190)\n    tag_191:\n      dup3\n      add\n      swap2\n      swap1\n      0x00\n      mstore\n      keccak256(0x00, 0x20)\n      swap1\n    tag_192:\n      dup2\n      sload\n      dup2\n      mstore\n      swap1\n      0x01\n      add\n      swap1\n      0x20\n      add\n      dup1\n      dup4\n      gt\n      tag_192\n      jumpi\n      dup3\n      swap1\n      sub\n      0x1f\n      and\n      dup3\n      add\n      swap2\n    tag_190:\n      pop\n      pop\n      pop\n      pop\n      pop\n      swap2\n      pop\n      swap3\n      pop\n      swap3\n      pop\n      swap3\n      pop\n        /* \"QuadraticVoting.sol\":4871:5137  function getProposalInfo(uint id) checkVotingOpen view external returns(string memory title, string memory description, IExecutableProposal executableProposal) {... */\n      swap2\n      swap4\n      swap1\n      swap3\n      pop\n      jump\t// out\n        /* \"QuadraticVoting.sol\":8836:8946  function closeVoting() checkOwner external payable {... */\n    tag_82:\n        /* \"QuadraticVoting.sol\":9179:9184  owner */\n      0x00\n      dup1\n      swap1\n      sload\n      swap1\n      0x0100\n      exp\n      swap1\n      div\n      0xffffffffffffffffffffffffffffffffffffffff\n      and\n        /* \"QuadraticVoting.sol\":9165:9184  msg.sender == owner */\n      0xffffffffffffffffffffffffffffffffffffffff\n      and\n        /* \"QuadraticVoting.sol\":9165:9175  msg.sender */\n      caller\n        /* \"QuadraticVoting.sol\":9165:9184  msg.sender == owner */\n      0xffffffffffffffffffffffffffffffffffffffff\n      and\n      eq\n        /* \"QuadraticVoting.sol\":9157:9201  require(msg.sender == owner, \"Unauthorized\") */\n      tag_194\n      jumpi\n      mload(0x40)\n      0x08c379a000000000000000000000000000000000000000000000000000000000\n      dup2\n      mstore\n      0x04\n      add\n      tag_195\n      swap1\n      jump(tag_181)\n    tag_195:\n      mload(0x40)\n      dup1\n      swap2\n      sub\n      swap1\n      revert\n    tag_194:\n        /* \"QuadraticVoting.sol\":8911:8912  2 */\n      0x02\n        /* \"QuadraticVoting.sol\":8897:8908  votingState */\n      0x01\n      0x14\n        /* \"QuadraticVoting.sol\":8897:8912  votingState = 2 */\n      0x0100\n      exp\n      dup2\n      sload\n      dup2\n      0xff\n      mul\n      not\n      and\n      swap1\n      dup4\n      0xff\n      and\n      mul\n      or\n      swap1\n      sstore\n      pop\n        /* \"QuadraticVoting.sol\":8927:8939  ClosedVote() */\n      0x345684bfb9687888cddebd9905f5f98f8bd31ee0d8b4397209cbbf0655c63677\n      mload(0x40)\n      mload(0x40)\n      dup1\n      swap2\n      sub\n      swap1\n      log1\n        /* \"QuadraticVoting.sol\":8836:8946  function closeVoting() checkOwner external payable {... */\n      jump\t// out\n        /* \"QuadraticVoting.sol\":3560:3724  function buyTokens() checkParticipant checkMinimumPurchaseAmount(msg.value) external payable {... */\n    tag_84:\n        /* \"QuadraticVoting.sol\":9271:9283  participants */\n      0x05\n        /* \"QuadraticVoting.sol\":9271:9295  participants[msg.sender] */\n      0x00\n        /* \"QuadraticVoting.sol\":9284:9294  msg.sender */\n      caller\n        /* \"QuadraticVoting.sol\":9271:9295  participants[msg.sender] */\n      0xffffffffffffffffffffffffffffffffffffffff\n      and\n      0xffffffffffffffffffffffffffffffffffffffff\n      and\n      dup2\n      mstore\n      0x20\n      add\n      swap1\n      dup2\n      mstore\n      0x20\n      add\n      0x00\n      keccak256\n      0x00\n      swap1\n      sload\n      swap1\n      0x0100\n      exp\n      swap1\n      div\n      0xff\n      and\n        /* \"QuadraticVoting.sol\":9263:9317  require(participants[msg.sender], \"Not a participant\") */\n      tag_198\n      jumpi\n      mload(0x40)\n      0x08c379a000000000000000000000000000000000000000000000000000000000\n      dup2\n      mstore\n      0x04\n      add\n      tag_199\n      swap1\n      jump(tag_108)\n    tag_199:\n      mload(0x40)\n      dup1\n      swap2\n      sub\n      swap1\n      revert\n    tag_198:\n        /* \"QuadraticVoting.sol\":3625:3634  msg.value */\n      callvalue\n        /* \"QuadraticVoting.sol\":9652:9662  tokenPrice */\n      sload(0x02)\n        /* \"QuadraticVoting.sol\":9642:9648  amount */\n      dup2\n        /* \"QuadraticVoting.sol\":9642:9662  amount >= tokenPrice */\n      lt\n      iszero\n        /* \"QuadraticVoting.sol\":9634:9690  require(amount >= tokenPrice, \"Invalid purchase amount\") */\n      tag_201\n      jumpi\n      mload(0x40)\n      0x08c379a000000000000000000000000000000000000000000000000000000000\n      dup2\n      mstore\n      0x04\n      add\n      tag_202\n      swap1\n      jump(tag_203)\n    tag_202:\n      mload(0x40)\n      dup1\n      swap2\n      sub\n      swap1\n      revert\n    tag_201:\n        /* \"QuadraticVoting.sol\":3663:3676  tokenContract */\n      0x01\n      0x00\n      swap1\n      sload\n      swap1\n      0x0100\n      exp\n      swap1\n      div\n      0xffffffffffffffffffffffffffffffffffffffff\n      and\n        /* \"QuadraticVoting.sol\":3663:3681  tokenContract.mint */\n      0xffffffffffffffffffffffffffffffffffffffff\n      and\n      0x40c10f19\n        /* \"QuadraticVoting.sol\":3682:3692  msg.sender */\n      caller\n        /* \"QuadraticVoting.sol\":3706:3716  tokenPrice */\n      sload(0x02)\n        /* \"QuadraticVoting.sol\":3694:3703  msg.value */\n      callvalue\n        /* \"QuadraticVoting.sol\":3694:3716  msg.value / tokenPrice */\n      dup2\n      tag_205\n      jumpi\n      invalid\n    tag_205:\n      div\n        /* \"QuadraticVoting.sol\":3663:3717  tokenContract.mint(msg.sender, msg.value / tokenPrice) */\n      mload(0x40)\n      dup4\n      0xffffffff\n      and\n      0xe0\n      shl\n      dup2\n      mstore\n      0x04\n      add\n      tag_206\n      swap3\n      swap2\n      swap1\n      jump(tag_136)\n    tag_206:\n      0x00\n      mload(0x40)\n      dup1\n      dup4\n      sub\n      dup2\n      0x00\n      dup8\n      dup1\n      extcodesize\n      iszero\n        /* \"--CODEGEN--\":8:17   */\n      dup1\n        /* \"--CODEGEN--\":5:7   */\n      iszero\n      tag_207\n      jumpi\n        /* \"--CODEGEN--\":30:31   */\n      0x00\n        /* \"--CODEGEN--\":27:28   */\n      dup1\n        /* \"--CODEGEN--\":20:32   */\n      revert\n        /* \"--CODEGEN--\":5:7   */\n    tag_207:\n        /* \"QuadraticVoting.sol\":3663:3717  tokenContract.mint(msg.sender, msg.value / tokenPrice) */\n      pop\n      gas\n      call\n      iszero\n        /* \"--CODEGEN--\":8:17   */\n      dup1\n        /* \"--CODEGEN--\":5:7   */\n      iszero\n      tag_208\n      jumpi\n        /* \"--CODEGEN--\":45:61   */\n      returndatasize\n        /* \"--CODEGEN--\":42:43   */\n      0x00\n        /* \"--CODEGEN--\":39:40   */\n      dup1\n        /* \"--CODEGEN--\":24:62   */\n      returndatacopy\n        /* \"--CODEGEN--\":77:93   */\n      returndatasize\n        /* \"--CODEGEN--\":74:75   */\n      0x00\n        /* \"--CODEGEN--\":67:94   */\n      revert\n        /* \"--CODEGEN--\":5:7   */\n    tag_208:\n        /* \"QuadraticVoting.sol\":3663:3717  tokenContract.mint(msg.sender, msg.value / tokenPrice) */\n      pop\n      pop\n      pop\n      pop\n        /* \"QuadraticVoting.sol\":9327:9328  _ */\n      pop\n        /* \"QuadraticVoting.sol\":3560:3724  function buyTokens() checkParticipant checkMinimumPurchaseAmount(msg.value) external payable {... */\n      jump\t// out\n        /* \"QuadraticVoting.sol\":8952:9119  function executeSignaling(uint id) checkParticipant checkProposalOwner(id) external {... */\n    tag_88:\n        /* \"QuadraticVoting.sol\":9271:9283  participants */\n      0x05\n        /* \"QuadraticVoting.sol\":9271:9295  participants[msg.sender] */\n      0x00\n        /* \"QuadraticVoting.sol\":9284:9294  msg.sender */\n      caller\n        /* \"QuadraticVoting.sol\":9271:9295  participants[msg.sender] */\n      0xffffffffffffffffffffffffffffffffffffffff\n      and\n      0xffffffffffffffffffffffffffffffffffffffff\n      and\n      dup2\n      mstore\n      0x20\n      add\n      swap1\n      dup2\n      mstore\n      0x20\n      add\n      0x00\n      keccak256\n      0x00\n      swap1\n      sload\n      swap1\n      0x0100\n      exp\n      swap1\n      div\n      0xff\n      and\n        /* \"QuadraticVoting.sol\":9263:9317  require(participants[msg.sender], \"Not a participant\") */\n      tag_210\n      jumpi\n      mload(0x40)\n      0x08c379a000000000000000000000000000000000000000000000000000000000\n      dup2\n      mstore\n      0x04\n      add\n      tag_211\n      swap1\n      jump(tag_108)\n    tag_211:\n      mload(0x40)\n      dup1\n      swap2\n      sub\n      swap1\n      revert\n    tag_210:\n        /* \"QuadraticVoting.sol\":9023:9025  id */\n      dup1\n        /* \"QuadraticVoting.sol\":9524:9534  msg.sender */\n      caller\n        /* \"QuadraticVoting.sol\":9501:9534  proposals[id].owner == msg.sender */\n      0xffffffffffffffffffffffffffffffffffffffff\n      and\n        /* \"QuadraticVoting.sol\":9501:9510  proposals */\n      0x07\n        /* \"QuadraticVoting.sol\":9501:9514  proposals[id] */\n      0x00\n        /* \"QuadraticVoting.sol\":9511:9513  id */\n      dup4\n        /* \"QuadraticVoting.sol\":9501:9514  proposals[id] */\n      dup2\n      mstore\n      0x20\n      add\n      swap1\n      dup2\n      mstore\n      0x20\n      add\n      0x00\n      keccak256\n        /* \"QuadraticVoting.sol\":9501:9520  proposals[id].owner */\n      0x00\n      add\n      0x00\n      swap1\n      sload\n      swap1\n      0x0100\n      exp\n      swap1\n      div\n      0xffffffffffffffffffffffffffffffffffffffff\n      and\n        /* \"QuadraticVoting.sol\":9501:9534  proposals[id].owner == msg.sender */\n      0xffffffffffffffffffffffffffffffffffffffff\n      and\n      eq\n        /* \"QuadraticVoting.sol\":9493:9551  require(proposals[id].owner == msg.sender, \"Unauthorized\") */\n      tag_213\n      jumpi\n      mload(0x40)\n      0x08c379a000000000000000000000000000000000000000000000000000000000\n      dup2\n      mstore\n      0x04\n      add\n      tag_214\n      swap1\n      jump(tag_181)\n    tag_214:\n      mload(0x40)\n      dup1\n      swap2\n      sub\n      swap1\n      revert\n    tag_213:\n        /* \"QuadraticVoting.sol\":9065:9066  2 */\n      0x02\n        /* \"QuadraticVoting.sol\":9050:9061  votingState */\n      0x01\n      0x14\n      swap1\n      sload\n      swap1\n      0x0100\n      exp\n      swap1\n      div\n      0xff\n      and\n        /* \"QuadraticVoting.sol\":9050:9066  votingState == 2 */\n      0xff\n      and\n      eq\n        /* \"QuadraticVoting.sol\":9046:9113  if (votingState == 2) {... */\n      iszero\n      tag_216\n      jumpi\n        /* \"QuadraticVoting.sol\":9082:9102  _approveProposal(id) */\n      tag_217\n        /* \"QuadraticVoting.sol\":9099:9101  id */\n      dup3\n        /* \"QuadraticVoting.sol\":9082:9098  _approveProposal */\n      tag_157\n        /* \"QuadraticVoting.sol\":9082:9102  _approveProposal(id) */\n      jump\t// in\n    tag_217:\n        /* \"QuadraticVoting.sol\":9046:9113  if (votingState == 2) {... */\n    tag_216:\n        /* \"QuadraticVoting.sol\":9327:9328  _ */\n      pop\n        /* \"QuadraticVoting.sol\":8952:9119  function executeSignaling(uint id) checkParticipant checkProposalOwner(id) external {... */\n      pop\n      jump\t// out\n        /* \"QuadraticVoting.sol\":3266:3505  function cancelProposal(uint id) checkParticipant checkVotingOpen checkProposalOwner(id) external {... */\n    tag_92:\n        /* \"QuadraticVoting.sol\":9271:9283  participants */\n      0x05\n        /* \"QuadraticVoting.sol\":9271:9295  participants[msg.sender] */\n      0x00\n        /* \"QuadraticVoting.sol\":9284:9294  msg.sender */\n      caller\n        /* \"QuadraticVoting.sol\":9271:9295  participants[msg.sender] */\n      0xffffffffffffffffffffffffffffffffffffffff\n      and\n      0xffffffffffffffffffffffffffffffffffffffff\n      and\n      dup2\n      mstore\n      0x20\n      add\n      swap1\n      dup2\n      mstore\n      0x20\n      add\n      0x00\n      keccak256\n      0x00\n      swap1\n      sload\n      swap1\n      0x0100\n      exp\n      swap1\n      div\n      0xff\n      and\n        /* \"QuadraticVoting.sol\":9263:9317  require(participants[msg.sender], \"Not a participant\") */\n      tag_219\n      jumpi\n      mload(0x40)\n      0x08c379a000000000000000000000000000000000000000000000000000000000\n      dup2\n      mstore\n      0x04\n      add\n      tag_220\n      swap1\n      jump(tag_108)\n    tag_220:\n      mload(0x40)\n      dup1\n      swap2\n      sub\n      swap1\n      revert\n    tag_219:\n        /* \"QuadraticVoting.sol\":9401:9402  1 */\n      0x01\n        /* \"QuadraticVoting.sol\":9386:9397  votingState */\n      dup1\n      0x14\n      swap1\n      sload\n      swap1\n      0x0100\n      exp\n      swap1\n      div\n      0xff\n      and\n        /* \"QuadraticVoting.sol\":9386:9402  votingState == 1 */\n      0xff\n      and\n      eq\n        /* \"QuadraticVoting.sol\":9378:9422  require(votingState == 1, \"Voting not open\") */\n      tag_222\n      jumpi\n      mload(0x40)\n      0x08c379a000000000000000000000000000000000000000000000000000000000\n      dup2\n      mstore\n      0x04\n      add\n      tag_223\n      swap1\n      jump(tag_102)\n    tag_223:\n      mload(0x40)\n      dup1\n      swap2\n      sub\n      swap1\n      revert\n    tag_222:\n        /* \"QuadraticVoting.sol\":3351:3353  id */\n      dup1\n        /* \"QuadraticVoting.sol\":9524:9534  msg.sender */\n      caller\n        /* \"QuadraticVoting.sol\":9501:9534  proposals[id].owner == msg.sender */\n      0xffffffffffffffffffffffffffffffffffffffff\n      and\n        /* \"QuadraticVoting.sol\":9501:9510  proposals */\n      0x07\n        /* \"QuadraticVoting.sol\":9501:9514  proposals[id] */\n      0x00\n        /* \"QuadraticVoting.sol\":9511:9513  id */\n      dup4\n        /* \"QuadraticVoting.sol\":9501:9514  proposals[id] */\n      dup2\n      mstore\n      0x20\n      add\n      swap1\n      dup2\n      mstore\n      0x20\n      add\n      0x00\n      keccak256\n        /* \"QuadraticVoting.sol\":9501:9520  proposals[id].owner */\n      0x00\n      add\n      0x00\n      swap1\n      sload\n      swap1\n      0x0100\n      exp\n      swap1\n      div\n      0xffffffffffffffffffffffffffffffffffffffff\n      and\n        /* \"QuadraticVoting.sol\":9501:9534  proposals[id].owner == msg.sender */\n      0xffffffffffffffffffffffffffffffffffffffff\n      and\n      eq\n        /* \"QuadraticVoting.sol\":9493:9551  require(proposals[id].owner == msg.sender, \"Unauthorized\") */\n      tag_225\n      jumpi\n      mload(0x40)\n      0x08c379a000000000000000000000000000000000000000000000000000000000\n      dup2\n      mstore\n      0x04\n      add\n      tag_226\n      swap1\n      jump(tag_181)\n    tag_226:\n      mload(0x40)\n      dup1\n      swap2\n      sub\n      swap1\n      revert\n    tag_225:\n        /* \"QuadraticVoting.sol\":3401:3402  0 */\n      0x00\n        /* \"QuadraticVoting.sol\":3378:3387  proposals */\n      0x07\n        /* \"QuadraticVoting.sol\":3378:3391  proposals[id] */\n      0x00\n        /* \"QuadraticVoting.sol\":3388:3390  id */\n      dup5\n        /* \"QuadraticVoting.sol\":3378:3391  proposals[id] */\n      dup2\n      mstore\n      0x20\n      add\n      swap1\n      dup2\n      mstore\n      0x20\n      add\n      0x00\n      keccak256\n        /* \"QuadraticVoting.sol\":3378:3397  proposals[id].state */\n      0x08\n      add\n      0x00\n      swap1\n      sload\n      swap1\n      0x0100\n      exp\n      swap1\n      div\n      0xff\n      and\n        /* \"QuadraticVoting.sol\":3378:3402  proposals[id].state == 0 */\n      0xff\n      and\n      eq\n        /* \"QuadraticVoting.sol\":3374:3499  if (proposals[id].state == 0) {... */\n      iszero\n      tag_228\n      jumpi\n        /* \"QuadraticVoting.sol\":3440:3441  1 */\n      0x01\n        /* \"QuadraticVoting.sol\":3418:3427  proposals */\n      0x07\n        /* \"QuadraticVoting.sol\":3418:3431  proposals[id] */\n      0x00\n        /* \"QuadraticVoting.sol\":3428:3430  id */\n      dup5\n        /* \"QuadraticVoting.sol\":3418:3431  proposals[id] */\n      dup2\n      mstore\n      0x20\n      add\n      swap1\n      dup2\n      mstore\n      0x20\n      add\n      0x00\n      keccak256\n        /* \"QuadraticVoting.sol\":3418:3437  proposals[id].state */\n      0x08\n      add\n      0x00\n        /* \"QuadraticVoting.sol\":3418:3441  proposals[id].state = 1 */\n      0x0100\n      exp\n      dup2\n      sload\n      dup2\n      0xff\n      mul\n      not\n      and\n      swap1\n      dup4\n      0xff\n      and\n      mul\n      or\n      swap1\n      sstore\n      pop\n        /* \"QuadraticVoting.sol\":3460:3488  CanWithdrawnFromProposal(id) */\n      0x91222b74076a9254a8ea367a3678ea96fbde84afe416fd6530a5777ea85a9bbe\n        /* \"QuadraticVoting.sol\":3485:3487  id */\n      dup3\n        /* \"QuadraticVoting.sol\":3460:3488  CanWithdrawnFromProposal(id) */\n      mload(0x40)\n      tag_229\n      swap2\n      swap1\n      jump(tag_58)\n    tag_229:\n      mload(0x40)\n      dup1\n      swap2\n      sub\n      swap1\n      log1\n        /* \"QuadraticVoting.sol\":3374:3499  if (proposals[id].state == 0) {... */\n    tag_228:\n        /* \"QuadraticVoting.sol\":9432:9433  _ */\n      pop\n        /* \"QuadraticVoting.sol\":3266:3505  function cancelProposal(uint id) checkParticipant checkVotingOpen checkProposalOwner(id) external {... */\n      pop\n      jump\t// out\n        /* \"QuadraticVoting.sol\":308:329  uint public maxTokens */\n    tag_95:\n      sload(0x03)\n      dup2\n      jump\t// out\n        /* \"QuadraticVoting.sol\":2092:2310  function addParticipant() checkMinimumPurchaseAmount(msg.value) external payable {... */\n    tag_98:\n        /* \"QuadraticVoting.sol\":2145:2154  msg.value */\n      callvalue\n        /* \"QuadraticVoting.sol\":9652:9662  tokenPrice */\n      sload(0x02)\n        /* \"QuadraticVoting.sol\":9642:9648  amount */\n      dup2\n        /* \"QuadraticVoting.sol\":9642:9662  amount >= tokenPrice */\n      lt\n      iszero\n        /* \"QuadraticVoting.sol\":9634:9690  require(amount >= tokenPrice, \"Invalid purchase amount\") */\n      tag_231\n      jumpi\n      mload(0x40)\n      0x08c379a000000000000000000000000000000000000000000000000000000000\n      dup2\n      mstore\n      0x04\n      add\n      tag_232\n      swap1\n      jump(tag_203)\n    tag_232:\n      mload(0x40)\n      dup1\n      swap2\n      sub\n      swap1\n      revert\n    tag_231:\n        /* \"QuadraticVoting.sol\":2210:2214  true */\n      0x01\n        /* \"QuadraticVoting.sol\":2183:2195  participants */\n      0x05\n        /* \"QuadraticVoting.sol\":2183:2207  participants[msg.sender] */\n      0x00\n        /* \"QuadraticVoting.sol\":2196:2206  msg.sender */\n      caller\n        /* \"QuadraticVoting.sol\":2183:2207  participants[msg.sender] */\n      0xffffffffffffffffffffffffffffffffffffffff\n      and\n      0xffffffffffffffffffffffffffffffffffffffff\n      and\n      dup2\n      mstore\n      0x20\n      add\n      swap1\n      dup2\n      mstore\n      0x20\n      add\n      0x00\n      keccak256\n      0x00\n        /* \"QuadraticVoting.sol\":2183:2214  participants[msg.sender] = true */\n      0x0100\n      exp\n      dup2\n      sload\n      dup2\n      0xff\n      mul\n      not\n      and\n      swap1\n      dup4\n      iszero\n      iszero\n      mul\n      or\n      swap1\n      sstore\n      pop\n        /* \"QuadraticVoting.sol\":2224:2237  tokenContract */\n      0x01\n      0x00\n      swap1\n      sload\n      swap1\n      0x0100\n      exp\n      swap1\n      div\n      0xffffffffffffffffffffffffffffffffffffffff\n      and\n        /* \"QuadraticVoting.sol\":2224:2242  tokenContract.mint */\n      0xffffffffffffffffffffffffffffffffffffffff\n      and\n      0x40c10f19\n        /* \"QuadraticVoting.sol\":2243:2253  msg.sender */\n      caller\n        /* \"QuadraticVoting.sol\":2267:2277  tokenPrice */\n      sload(0x02)\n        /* \"QuadraticVoting.sol\":2255:2264  msg.value */\n      callvalue\n        /* \"QuadraticVoting.sol\":2255:2277  msg.value / tokenPrice */\n      dup2\n      tag_234\n      jumpi\n      invalid\n    tag_234:\n      div\n        /* \"QuadraticVoting.sol\":2224:2278  tokenContract.mint(msg.sender, msg.value / tokenPrice) */\n      mload(0x40)\n      dup4\n      0xffffffff\n      and\n      0xe0\n      shl\n      dup2\n      mstore\n      0x04\n      add\n      tag_235\n      swap3\n      swap2\n      swap1\n      jump(tag_136)\n    tag_235:\n      0x00\n      mload(0x40)\n      dup1\n      dup4\n      sub\n      dup2\n      0x00\n      dup8\n      dup1\n      extcodesize\n      iszero\n        /* \"--CODEGEN--\":8:17   */\n      dup1\n        /* \"--CODEGEN--\":5:7   */\n      iszero\n      tag_236\n      jumpi\n        /* \"--CODEGEN--\":30:31   */\n      0x00\n        /* \"--CODEGEN--\":27:28   */\n      dup1\n        /* \"--CODEGEN--\":20:32   */\n      revert\n        /* \"--CODEGEN--\":5:7   */\n    tag_236:\n        /* \"QuadraticVoting.sol\":2224:2278  tokenContract.mint(msg.sender, msg.value / tokenPrice) */\n      pop\n      gas\n      call\n      iszero\n        /* \"--CODEGEN--\":8:17   */\n      dup1\n        /* \"--CODEGEN--\":5:7   */\n      iszero\n      tag_237\n      jumpi\n        /* \"--CODEGEN--\":45:61   */\n      returndatasize\n        /* \"--CODEGEN--\":42:43   */\n      0x00\n        /* \"--CODEGEN--\":39:40   */\n      dup1\n        /* \"--CODEGEN--\":24:62   */\n      returndatacopy\n        /* \"--CODEGEN--\":77:93   */\n      returndatasize\n        /* \"--CODEGEN--\":74:75   */\n      0x00\n        /* \"--CODEGEN--\":67:94   */\n      revert\n        /* \"--CODEGEN--\":5:7   */\n    tag_237:\n        /* \"QuadraticVoting.sol\":2224:2278  tokenContract.mint(msg.sender, msg.value / tokenPrice) */\n      pop\n      pop\n      pop\n      pop\n        /* \"QuadraticVoting.sol\":2288:2301  nParticipants */\n      0x04\n      0x00\n        /* \"QuadraticVoting.sol\":2288:2303  nParticipants++ */\n      dup2\n      sload\n      dup1\n      swap3\n      swap2\n      swap1\n      0x01\n      add\n      swap2\n      swap1\n      pop\n      sstore\n      pop\n        /* \"QuadraticVoting.sol\":2092:2310  function addParticipant() checkMinimumPurchaseAmount(msg.value) external payable {... */\n      pop\n      jump\t// out\n        /* \"QuadraticVoting.sol\":5658:6183  function _withdrawFromFinanceProposal(uint amount, uint id) internal {... */\n    tag_112:\n        /* \"QuadraticVoting.sol\":5775:5776  0 */\n      0x00\n        /* \"QuadraticVoting.sol\":5741:5750  proposals */\n      0x07\n        /* \"QuadraticVoting.sol\":5741:5754  proposals[id] */\n      0x00\n        /* \"QuadraticVoting.sol\":5751:5753  id */\n      dup4\n        /* \"QuadraticVoting.sol\":5741:5754  proposals[id] */\n      dup2\n      mstore\n      0x20\n      add\n      swap1\n      dup2\n      mstore\n      0x20\n      add\n      0x00\n      keccak256\n        /* \"QuadraticVoting.sol\":5741:5760  proposals[id].votes */\n      0x07\n      add\n        /* \"QuadraticVoting.sol\":5741:5772  proposals[id].votes[msg.sender] */\n      0x00\n        /* \"QuadraticVoting.sol\":5761:5771  msg.sender */\n      caller\n        /* \"QuadraticVoting.sol\":5741:5772  proposals[id].votes[msg.sender] */\n      0xffffffffffffffffffffffffffffffffffffffff\n      and\n      0xffffffffffffffffffffffffffffffffffffffff\n      and\n      dup2\n      mstore\n      0x20\n      add\n      swap1\n      dup2\n      mstore\n      0x20\n      add\n      0x00\n      keccak256\n      sload\n        /* \"QuadraticVoting.sol\":5741:5776  proposals[id].votes[msg.sender] > 0 */\n      gt\n        /* \"QuadraticVoting.sol\":5741:5821  proposals[id].votes[msg.sender] > 0 && proposals[id].votes[msg.sender] >= amount */\n      dup1\n      iszero\n      tag_239\n      jumpi\n      pop\n        /* \"QuadraticVoting.sol\":5815:5821  amount */\n      dup2\n        /* \"QuadraticVoting.sol\":5780:5789  proposals */\n      0x07\n        /* \"QuadraticVoting.sol\":5780:5793  proposals[id] */\n      0x00\n        /* \"QuadraticVoting.sol\":5790:5792  id */\n      dup4\n        /* \"QuadraticVoting.sol\":5780:5793  proposals[id] */\n      dup2\n      mstore\n      0x20\n      add\n      swap1\n      dup2\n      mstore\n      0x20\n      add\n      0x00\n      keccak256\n        /* \"QuadraticVoting.sol\":5780:5799  proposals[id].votes */\n      0x07\n      add\n        /* \"QuadraticVoting.sol\":5780:5811  proposals[id].votes[msg.sender] */\n      0x00\n        /* \"QuadraticVoting.sol\":5800:5810  msg.sender */\n      caller\n        /* \"QuadraticVoting.sol\":5780:5811  proposals[id].votes[msg.sender] */\n      0xffffffffffffffffffffffffffffffffffffffff\n      and\n      0xffffffffffffffffffffffffffffffffffffffff\n      and\n      dup2\n      mstore\n      0x20\n      add\n      swap1\n      dup2\n      mstore\n      0x20\n      add\n      0x00\n      keccak256\n      sload\n        /* \"QuadraticVoting.sol\":5780:5821  proposals[id].votes[msg.sender] >= amount */\n      lt\n      iszero\n        /* \"QuadraticVoting.sol\":5741:5821  proposals[id].votes[msg.sender] > 0 && proposals[id].votes[msg.sender] >= amount */\n    tag_239:\n        /* \"QuadraticVoting.sol\":5741:5849  proposals[id].votes[msg.sender] > 0 && proposals[id].votes[msg.sender] >= amount && proposals[id].state != 2 */\n      dup1\n      iszero\n      tag_240\n      jumpi\n      pop\n        /* \"QuadraticVoting.sol\":5848:5849  2 */\n      0x02\n        /* \"QuadraticVoting.sol\":5825:5834  proposals */\n      0x07\n        /* \"QuadraticVoting.sol\":5825:5838  proposals[id] */\n      0x00\n        /* \"QuadraticVoting.sol\":5835:5837  id */\n      dup4\n        /* \"QuadraticVoting.sol\":5825:5838  proposals[id] */\n      dup2\n      mstore\n      0x20\n      add\n      swap1\n      dup2\n      mstore\n      0x20\n      add\n      0x00\n      keccak256\n        /* \"QuadraticVoting.sol\":5825:5844  proposals[id].state */\n      0x08\n      add\n      0x00\n      swap1\n      sload\n      swap1\n      0x0100\n      exp\n      swap1\n      div\n      0xff\n      and\n        /* \"QuadraticVoting.sol\":5825:5849  proposals[id].state != 2 */\n      0xff\n      and\n      eq\n      iszero\n        /* \"QuadraticVoting.sol\":5741:5849  proposals[id].votes[msg.sender] > 0 && proposals[id].votes[msg.sender] >= amount && proposals[id].state != 2 */\n    tag_240:\n        /* \"QuadraticVoting.sol\":5737:6177  if (proposals[id].votes[msg.sender] > 0 && proposals[id].votes[msg.sender] >= amount && proposals[id].state != 2) {... */\n      iszero\n      tag_241\n      jumpi\n        /* \"QuadraticVoting.sol\":5865:5881  uint tokenAmount */\n      0x00\n        /* \"QuadraticVoting.sol\":5884:5918  _calculateWithdrawVote(id, amount) */\n      tag_242\n        /* \"QuadraticVoting.sol\":5907:5909  id */\n      dup3\n        /* \"QuadraticVoting.sol\":5911:5917  amount */\n      dup5\n        /* \"QuadraticVoting.sol\":5884:5906  _calculateWithdrawVote */\n      tag_243\n        /* \"QuadraticVoting.sol\":5884:5918  _calculateWithdrawVote(id, amount) */\n      jump\t// in\n    tag_242:\n        /* \"QuadraticVoting.sol\":5865:5918  uint tokenAmount = _calculateWithdrawVote(id, amount) */\n      swap1\n      pop\n        /* \"QuadraticVoting.sol\":5962:5971  proposals */\n      0x07\n        /* \"QuadraticVoting.sol\":5962:5975  proposals[id] */\n      0x00\n        /* \"QuadraticVoting.sol\":5972:5974  id */\n      dup4\n        /* \"QuadraticVoting.sol\":5962:5975  proposals[id] */\n      dup2\n      mstore\n      0x20\n      add\n      swap1\n      dup2\n      mstore\n      0x20\n      add\n      0x00\n      keccak256\n        /* \"QuadraticVoting.sol\":5962:5981  proposals[id].votes */\n      0x07\n      add\n        /* \"QuadraticVoting.sol\":5962:5993  proposals[id].votes[msg.sender] */\n      0x00\n        /* \"QuadraticVoting.sol\":5982:5992  msg.sender */\n      caller\n        /* \"QuadraticVoting.sol\":5962:5993  proposals[id].votes[msg.sender] */\n      0xffffffffffffffffffffffffffffffffffffffff\n      and\n      0xffffffffffffffffffffffffffffffffffffffff\n      and\n      dup2\n      mstore\n      0x20\n      add\n      swap1\n      dup2\n      mstore\n      0x20\n      add\n      0x00\n      keccak256\n      sload\n        /* \"QuadraticVoting.sol\":5932:5941  proposals */\n      0x07\n        /* \"QuadraticVoting.sol\":5932:5945  proposals[id] */\n      0x00\n        /* \"QuadraticVoting.sol\":5942:5944  id */\n      dup5\n        /* \"QuadraticVoting.sol\":5932:5945  proposals[id] */\n      dup2\n      mstore\n      0x20\n      add\n      swap1\n      dup2\n      mstore\n      0x20\n      add\n      0x00\n      keccak256\n        /* \"QuadraticVoting.sol\":5932:5958  proposals[id].currentVotes */\n      0x05\n      add\n      0x00\n        /* \"QuadraticVoting.sol\":5932:5993  proposals[id].currentVotes -= proposals[id].votes[msg.sender] */\n      dup3\n      dup3\n      sload\n      sub\n      swap3\n      pop\n      pop\n      dup2\n      swap1\n      sstore\n      pop\n        /* \"QuadraticVoting.sol\":6042:6048  amount */\n      dup3\n        /* \"QuadraticVoting.sol\":6007:6016  proposals */\n      0x07\n        /* \"QuadraticVoting.sol\":6007:6020  proposals[id] */\n      0x00\n        /* \"QuadraticVoting.sol\":6017:6019  id */\n      dup5\n        /* \"QuadraticVoting.sol\":6007:6020  proposals[id] */\n      dup2\n      mstore\n      0x20\n      add\n      swap1\n      dup2\n      mstore\n      0x20\n      add\n      0x00\n      keccak256\n        /* \"QuadraticVoting.sol\":6007:6026  proposals[id].votes */\n      0x07\n      add\n        /* \"QuadraticVoting.sol\":6007:6038  proposals[id].votes[msg.sender] */\n      0x00\n        /* \"QuadraticVoting.sol\":6027:6037  msg.sender */\n      caller\n        /* \"QuadraticVoting.sol\":6007:6038  proposals[id].votes[msg.sender] */\n      0xffffffffffffffffffffffffffffffffffffffff\n      and\n      0xffffffffffffffffffffffffffffffffffffffff\n      and\n      dup2\n      mstore\n      0x20\n      add\n      swap1\n      dup2\n      mstore\n      0x20\n      add\n      0x00\n      keccak256\n      0x00\n        /* \"QuadraticVoting.sol\":6007:6048  proposals[id].votes[msg.sender] -= amount */\n      dup3\n      dup3\n      sload\n      sub\n      swap3\n      pop\n      pop\n      dup2\n      swap1\n      sstore\n      pop\n        /* \"QuadraticVoting.sol\":6093:6104  tokenAmount */\n      dup1\n        /* \"QuadraticVoting.sol\":6062:6071  proposals */\n      0x07\n        /* \"QuadraticVoting.sol\":6062:6075  proposals[id] */\n      0x00\n        /* \"QuadraticVoting.sol\":6072:6074  id */\n      dup5\n        /* \"QuadraticVoting.sol\":6062:6075  proposals[id] */\n      dup2\n      mstore\n      0x20\n      add\n      swap1\n      dup2\n      mstore\n      0x20\n      add\n      0x00\n      keccak256\n        /* \"QuadraticVoting.sol\":6062:6089  proposals[id].currentTokens */\n      0x06\n      add\n      0x00\n        /* \"QuadraticVoting.sol\":6062:6104  proposals[id].currentTokens -= tokenAmount */\n      dup3\n      dup3\n      sload\n      sub\n      swap3\n      pop\n      pop\n      dup2\n      swap1\n      sstore\n      pop\n        /* \"QuadraticVoting.sol\":6119:6132  tokenContract */\n      0x01\n      0x00\n      swap1\n      sload\n      swap1\n      0x0100\n      exp\n      swap1\n      div\n      0xffffffffffffffffffffffffffffffffffffffff\n      and\n        /* \"QuadraticVoting.sol\":6119:6141  tokenContract.transfer */\n      0xffffffffffffffffffffffffffffffffffffffff\n      and\n      0xa9059cbb\n        /* \"QuadraticVoting.sol\":6142:6152  msg.sender */\n      caller\n        /* \"QuadraticVoting.sol\":6154:6165  tokenAmount */\n      dup4\n        /* \"QuadraticVoting.sol\":6119:6166  tokenContract.transfer(msg.sender, tokenAmount) */\n      mload(0x40)\n      dup4\n      0xffffffff\n      and\n      0xe0\n      shl\n      dup2\n      mstore\n      0x04\n      add\n      tag_244\n      swap3\n      swap2\n      swap1\n      jump(tag_136)\n    tag_244:\n      0x20\n      mload(0x40)\n      dup1\n      dup4\n      sub\n      dup2\n      0x00\n      dup8\n      dup1\n      extcodesize\n      iszero\n        /* \"--CODEGEN--\":8:17   */\n      dup1\n        /* \"--CODEGEN--\":5:7   */\n      iszero\n      tag_245\n      jumpi\n        /* \"--CODEGEN--\":30:31   */\n      0x00\n        /* \"--CODEGEN--\":27:28   */\n      dup1\n        /* \"--CODEGEN--\":20:32   */\n      revert\n        /* \"--CODEGEN--\":5:7   */\n    tag_245:\n        /* \"QuadraticVoting.sol\":6119:6166  tokenContract.transfer(msg.sender, tokenAmount) */\n      pop\n      gas\n      call\n      iszero\n        /* \"--CODEGEN--\":8:17   */\n      dup1\n        /* \"--CODEGEN--\":5:7   */\n      iszero\n      tag_246\n      jumpi\n        /* \"--CODEGEN--\":45:61   */\n      returndatasize\n        /* \"--CODEGEN--\":42:43   */\n      0x00\n        /* \"--CODEGEN--\":39:40   */\n      dup1\n        /* \"--CODEGEN--\":24:62   */\n      returndatacopy\n        /* \"--CODEGEN--\":77:93   */\n      returndatasize\n        /* \"--CODEGEN--\":74:75   */\n      0x00\n        /* \"--CODEGEN--\":67:94   */\n      revert\n        /* \"--CODEGEN--\":5:7   */\n    tag_246:\n        /* \"QuadraticVoting.sol\":6119:6166  tokenContract.transfer(msg.sender, tokenAmount) */\n      pop\n      pop\n      pop\n      pop\n      mload(0x40)\n      returndatasize\n        /* \"--CODEGEN--\":101:105   */\n      0x1f\n        /* \"--CODEGEN--\":97:106   */\n      not\n        /* \"--CODEGEN--\":90:94   */\n      0x1f\n        /* \"--CODEGEN--\":84:88   */\n      dup3\n        /* \"--CODEGEN--\":80:95   */\n      add\n        /* \"--CODEGEN--\":76:107   */\n      and\n        /* \"--CODEGEN--\":69:74   */\n      dup3\n        /* \"--CODEGEN--\":65:108   */\n      add\n        /* \"--CODEGEN--\":126:132   */\n      dup1\n        /* \"--CODEGEN--\":120:124   */\n      0x40\n        /* \"--CODEGEN--\":113:133   */\n      mstore\n        /* \"--CODEGEN--\":0:138   */\n      pop\n        /* \"QuadraticVoting.sol\":6119:6166  tokenContract.transfer(msg.sender, tokenAmount) */\n      tag_247\n      swap2\n      swap1\n      dup2\n      add\n      swap1\n      jump(tag_248)\n    tag_247:\n      pop\n        /* \"QuadraticVoting.sol\":5737:6177  if (proposals[id].votes[msg.sender] > 0 && proposals[id].votes[msg.sender] >= amount && proposals[id].state != 2) {... */\n      pop\n    tag_241:\n        /* \"QuadraticVoting.sol\":5658:6183  function _withdrawFromFinanceProposal(uint amount, uint id) internal {... */\n      pop\n      pop\n      jump\t// out\n        /* \"QuadraticVoting.sol\":6189:7168  function _withdrawFromSignalingProposal(uint amount, uint id) internal {... */\n    tag_115:\n        /* \"QuadraticVoting.sol\":6289:6290  1 */\n      0x01\n        /* \"QuadraticVoting.sol\":6274:6285  votingState */\n      dup1\n      0x14\n      swap1\n      sload\n      swap1\n      0x0100\n      exp\n      swap1\n      div\n      0xff\n      and\n        /* \"QuadraticVoting.sol\":6274:6290  votingState == 1 */\n      0xff\n      and\n      eq\n        /* \"QuadraticVoting.sol\":6270:7162  if (votingState == 1) {... */\n      iszero\n      tag_250\n      jumpi\n        /* \"QuadraticVoting.sol\":6344:6345  0 */\n      0x00\n        /* \"QuadraticVoting.sol\":6310:6319  proposals */\n      0x07\n        /* \"QuadraticVoting.sol\":6310:6323  proposals[id] */\n      0x00\n        /* \"QuadraticVoting.sol\":6320:6322  id */\n      dup4\n        /* \"QuadraticVoting.sol\":6310:6323  proposals[id] */\n      dup2\n      mstore\n      0x20\n      add\n      swap1\n      dup2\n      mstore\n      0x20\n      add\n      0x00\n      keccak256\n        /* \"QuadraticVoting.sol\":6310:6329  proposals[id].votes */\n      0x07\n      add\n        /* \"QuadraticVoting.sol\":6310:6341  proposals[id].votes[msg.sender] */\n      0x00\n        /* \"QuadraticVoting.sol\":6330:6340  msg.sender */\n      caller\n        /* \"QuadraticVoting.sol\":6310:6341  proposals[id].votes[msg.sender] */\n      0xffffffffffffffffffffffffffffffffffffffff\n      and\n      0xffffffffffffffffffffffffffffffffffffffff\n      and\n      dup2\n      mstore\n      0x20\n      add\n      swap1\n      dup2\n      mstore\n      0x20\n      add\n      0x00\n      keccak256\n      sload\n        /* \"QuadraticVoting.sol\":6310:6345  proposals[id].votes[msg.sender] > 0 */\n      gt\n        /* \"QuadraticVoting.sol\":6310:6390  proposals[id].votes[msg.sender] > 0 && proposals[id].votes[msg.sender] >= amount */\n      dup1\n      iszero\n      tag_251\n      jumpi\n      pop\n        /* \"QuadraticVoting.sol\":6384:6390  amount */\n      dup2\n        /* \"QuadraticVoting.sol\":6349:6358  proposals */\n      0x07\n        /* \"QuadraticVoting.sol\":6349:6362  proposals[id] */\n      0x00\n        /* \"QuadraticVoting.sol\":6359:6361  id */\n      dup4\n        /* \"QuadraticVoting.sol\":6349:6362  proposals[id] */\n      dup2\n      mstore\n      0x20\n      add\n      swap1\n      dup2\n      mstore\n      0x20\n      add\n      0x00\n      keccak256\n        /* \"QuadraticVoting.sol\":6349:6368  proposals[id].votes */\n      0x07\n      add\n        /* \"QuadraticVoting.sol\":6349:6380  proposals[id].votes[msg.sender] */\n      0x00\n        /* \"QuadraticVoting.sol\":6369:6379  msg.sender */\n      caller\n        /* \"QuadraticVoting.sol\":6349:6380  proposals[id].votes[msg.sender] */\n      0xffffffffffffffffffffffffffffffffffffffff\n      and\n      0xffffffffffffffffffffffffffffffffffffffff\n      and\n      dup2\n      mstore\n      0x20\n      add\n      swap1\n      dup2\n      mstore\n      0x20\n      add\n      0x00\n      keccak256\n      sload\n        /* \"QuadraticVoting.sol\":6349:6390  proposals[id].votes[msg.sender] >= amount */\n      lt\n      iszero\n        /* \"QuadraticVoting.sol\":6310:6390  proposals[id].votes[msg.sender] > 0 && proposals[id].votes[msg.sender] >= amount */\n    tag_251:\n        /* \"QuadraticVoting.sol\":6306:6742  if (proposals[id].votes[msg.sender] > 0 && proposals[id].votes[msg.sender] >= amount) {... */\n      iszero\n      tag_252\n      jumpi\n        /* \"QuadraticVoting.sol\":6410:6426  uint tokenAmount */\n      0x00\n        /* \"QuadraticVoting.sol\":6429:6463  _calculateWithdrawVote(id, amount) */\n      tag_253\n        /* \"QuadraticVoting.sol\":6452:6454  id */\n      dup3\n        /* \"QuadraticVoting.sol\":6456:6462  amount */\n      dup5\n        /* \"QuadraticVoting.sol\":6429:6451  _calculateWithdrawVote */\n      tag_243\n        /* \"QuadraticVoting.sol\":6429:6463  _calculateWithdrawVote(id, amount) */\n      jump\t// in\n    tag_253:\n        /* \"QuadraticVoting.sol\":6410:6463  uint tokenAmount = _calculateWithdrawVote(id, amount) */\n      swap1\n      pop\n        /* \"QuadraticVoting.sol\":6511:6520  proposals */\n      0x07\n        /* \"QuadraticVoting.sol\":6511:6524  proposals[id] */\n      0x00\n        /* \"QuadraticVoting.sol\":6521:6523  id */\n      dup4\n        /* \"QuadraticVoting.sol\":6511:6524  proposals[id] */\n      dup2\n      mstore\n      0x20\n      add\n      swap1\n      dup2\n      mstore\n      0x20\n      add\n      0x00\n      keccak256\n        /* \"QuadraticVoting.sol\":6511:6530  proposals[id].votes */\n      0x07\n      add\n        /* \"QuadraticVoting.sol\":6511:6542  proposals[id].votes[msg.sender] */\n      0x00\n        /* \"QuadraticVoting.sol\":6531:6541  msg.sender */\n      caller\n        /* \"QuadraticVoting.sol\":6511:6542  proposals[id].votes[msg.sender] */\n      0xffffffffffffffffffffffffffffffffffffffff\n      and\n      0xffffffffffffffffffffffffffffffffffffffff\n      and\n      dup2\n      mstore\n      0x20\n      add\n      swap1\n      dup2\n      mstore\n      0x20\n      add\n      0x00\n      keccak256\n      sload\n        /* \"QuadraticVoting.sol\":6481:6490  proposals */\n      0x07\n        /* \"QuadraticVoting.sol\":6481:6494  proposals[id] */\n      0x00\n        /* \"QuadraticVoting.sol\":6491:6493  id */\n      dup5\n        /* \"QuadraticVoting.sol\":6481:6494  proposals[id] */\n      dup2\n      mstore\n      0x20\n      add\n      swap1\n      dup2\n      mstore\n      0x20\n      add\n      0x00\n      keccak256\n        /* \"QuadraticVoting.sol\":6481:6507  proposals[id].currentVotes */\n      0x05\n      add\n      0x00\n        /* \"QuadraticVoting.sol\":6481:6542  proposals[id].currentVotes -= proposals[id].votes[msg.sender] */\n      dup3\n      dup3\n      sload\n      sub\n      swap3\n      pop\n      pop\n      dup2\n      swap1\n      sstore\n      pop\n        /* \"QuadraticVoting.sol\":6595:6601  amount */\n      dup3\n        /* \"QuadraticVoting.sol\":6560:6569  proposals */\n      0x07\n        /* \"QuadraticVoting.sol\":6560:6573  proposals[id] */\n      0x00\n        /* \"QuadraticVoting.sol\":6570:6572  id */\n      dup5\n        /* \"QuadraticVoting.sol\":6560:6573  proposals[id] */\n      dup2\n      mstore\n      0x20\n      add\n      swap1\n      dup2\n      mstore\n      0x20\n      add\n      0x00\n      keccak256\n        /* \"QuadraticVoting.sol\":6560:6579  proposals[id].votes */\n      0x07\n      add\n        /* \"QuadraticVoting.sol\":6560:6591  proposals[id].votes[msg.sender] */\n      0x00\n        /* \"QuadraticVoting.sol\":6580:6590  msg.sender */\n      caller\n        /* \"QuadraticVoting.sol\":6560:6591  proposals[id].votes[msg.sender] */\n      0xffffffffffffffffffffffffffffffffffffffff\n      and\n      0xffffffffffffffffffffffffffffffffffffffff\n      and\n      dup2\n      mstore\n      0x20\n      add\n      swap1\n      dup2\n      mstore\n      0x20\n      add\n      0x00\n      keccak256\n      0x00\n        /* \"QuadraticVoting.sol\":6560:6601  proposals[id].votes[msg.sender] -= amount */\n      dup3\n      dup3\n      sload\n      sub\n      swap3\n      pop\n      pop\n      dup2\n      swap1\n      sstore\n      pop\n        /* \"QuadraticVoting.sol\":6650:6661  tokenAmount */\n      dup1\n        /* \"QuadraticVoting.sol\":6619:6628  proposals */\n      0x07\n        /* \"QuadraticVoting.sol\":6619:6632  proposals[id] */\n      0x00\n        /* \"QuadraticVoting.sol\":6629:6631  id */\n      dup5\n        /* \"QuadraticVoting.sol\":6619:6632  proposals[id] */\n      dup2\n      mstore\n      0x20\n      add\n      swap1\n      dup2\n      mstore\n      0x20\n      add\n      0x00\n      keccak256\n        /* \"QuadraticVoting.sol\":6619:6646  proposals[id].currentTokens */\n      0x06\n      add\n      0x00\n        /* \"QuadraticVoting.sol\":6619:6661  proposals[id].currentTokens -= tokenAmount */\n      dup3\n      dup3\n      sload\n      sub\n      swap3\n      pop\n      pop\n      dup2\n      swap1\n      sstore\n      pop\n        /* \"QuadraticVoting.sol\":6680:6693  tokenContract */\n      0x01\n      0x00\n      swap1\n      sload\n      swap1\n      0x0100\n      exp\n      swap1\n      div\n      0xffffffffffffffffffffffffffffffffffffffff\n      and\n        /* \"QuadraticVoting.sol\":6680:6702  tokenContract.transfer */\n      0xffffffffffffffffffffffffffffffffffffffff\n      and\n      0xa9059cbb\n        /* \"QuadraticVoting.sol\":6703:6713  msg.sender */\n      caller\n        /* \"QuadraticVoting.sol\":6715:6726  tokenAmount */\n      dup4\n        /* \"QuadraticVoting.sol\":6680:6727  tokenContract.transfer(msg.sender, tokenAmount) */\n      mload(0x40)\n      dup4\n      0xffffffff\n      and\n      0xe0\n      shl\n      dup2\n      mstore\n      0x04\n      add\n      tag_254\n      swap3\n      swap2\n      swap1\n      jump(tag_136)\n    tag_254:\n      0x20\n      mload(0x40)\n      dup1\n      dup4\n      sub\n      dup2\n      0x00\n      dup8\n      dup1\n      extcodesize\n      iszero\n        /* \"--CODEGEN--\":8:17   */\n      dup1\n        /* \"--CODEGEN--\":5:7   */\n      iszero\n      tag_255\n      jumpi\n        /* \"--CODEGEN--\":30:31   */\n      0x00\n        /* \"--CODEGEN--\":27:28   */\n      dup1\n        /* \"--CODEGEN--\":20:32   */\n      revert\n        /* \"--CODEGEN--\":5:7   */\n    tag_255:\n        /* \"QuadraticVoting.sol\":6680:6727  tokenContract.transfer(msg.sender, tokenAmount) */\n      pop\n      gas\n      call\n      iszero\n        /* \"--CODEGEN--\":8:17   */\n      dup1\n        /* \"--CODEGEN--\":5:7   */\n      iszero\n      tag_256\n      jumpi\n        /* \"--CODEGEN--\":45:61   */\n      returndatasize\n        /* \"--CODEGEN--\":42:43   */\n      0x00\n        /* \"--CODEGEN--\":39:40   */\n      dup1\n        /* \"--CODEGEN--\":24:62   */\n      returndatacopy\n        /* \"--CODEGEN--\":77:93   */\n      returndatasize\n        /* \"--CODEGEN--\":74:75   */\n      0x00\n        /* \"--CODEGEN--\":67:94   */\n      revert\n        /* \"--CODEGEN--\":5:7   */\n    tag_256:\n        /* \"QuadraticVoting.sol\":6680:6727  tokenContract.transfer(msg.sender, tokenAmount) */\n      pop\n      pop\n      pop\n      pop\n      mload(0x40)\n      returndatasize\n        /* \"--CODEGEN--\":101:105   */\n      0x1f\n        /* \"--CODEGEN--\":97:106   */\n      not\n        /* \"--CODEGEN--\":90:94   */\n      0x1f\n        /* \"--CODEGEN--\":84:88   */\n      dup3\n        /* \"--CODEGEN--\":80:95   */\n      add\n        /* \"--CODEGEN--\":76:107   */\n      and\n        /* \"--CODEGEN--\":69:74   */\n      dup3\n        /* \"--CODEGEN--\":65:108   */\n      add\n        /* \"--CODEGEN--\":126:132   */\n      dup1\n        /* \"--CODEGEN--\":120:124   */\n      0x40\n        /* \"--CODEGEN--\":113:133   */\n      mstore\n        /* \"--CODEGEN--\":0:138   */\n      pop\n        /* \"QuadraticVoting.sol\":6680:6727  tokenContract.transfer(msg.sender, tokenAmount) */\n      tag_257\n      swap2\n      swap1\n      dup2\n      add\n      swap1\n      jump(tag_248)\n    tag_257:\n      pop\n        /* \"QuadraticVoting.sol\":6306:6742  if (proposals[id].votes[msg.sender] > 0 && proposals[id].votes[msg.sender] >= amount) {... */\n      pop\n    tag_252:\n        /* \"QuadraticVoting.sol\":6270:7162  if (votingState == 1) {... */\n      jump(tag_258)\n    tag_250:\n        /* \"QuadraticVoting.sol\":6777:6778  2 */\n      0x02\n        /* \"QuadraticVoting.sol\":6762:6773  votingState */\n      0x01\n      0x14\n      swap1\n      sload\n      swap1\n      0x0100\n      exp\n      swap1\n      div\n      0xff\n      and\n        /* \"QuadraticVoting.sol\":6762:6778  votingState == 2 */\n      0xff\n      and\n      eq\n        /* \"QuadraticVoting.sol\":6758:7162  if (votingState == 2) {... */\n      iszero\n      tag_259\n      jumpi\n        /* \"QuadraticVoting.sol\":6832:6833  0 */\n      0x00\n        /* \"QuadraticVoting.sol\":6798:6807  proposals */\n      0x07\n        /* \"QuadraticVoting.sol\":6798:6811  proposals[id] */\n      0x00\n        /* \"QuadraticVoting.sol\":6808:6810  id */\n      dup4\n        /* \"QuadraticVoting.sol\":6798:6811  proposals[id] */\n      dup2\n      mstore\n      0x20\n      add\n      swap1\n      dup2\n      mstore\n      0x20\n      add\n      0x00\n      keccak256\n        /* \"QuadraticVoting.sol\":6798:6817  proposals[id].votes */\n      0x07\n      add\n        /* \"QuadraticVoting.sol\":6798:6829  proposals[id].votes[msg.sender] */\n      0x00\n        /* \"QuadraticVoting.sol\":6818:6828  msg.sender */\n      caller\n        /* \"QuadraticVoting.sol\":6798:6829  proposals[id].votes[msg.sender] */\n      0xffffffffffffffffffffffffffffffffffffffff\n      and\n      0xffffffffffffffffffffffffffffffffffffffff\n      and\n      dup2\n      mstore\n      0x20\n      add\n      swap1\n      dup2\n      mstore\n      0x20\n      add\n      0x00\n      keccak256\n      sload\n        /* \"QuadraticVoting.sol\":6798:6833  proposals[id].votes[msg.sender] > 0 */\n      gt\n        /* \"QuadraticVoting.sol\":6798:6878  proposals[id].votes[msg.sender] > 0 && proposals[id].votes[msg.sender] >= amount */\n      dup1\n      iszero\n      tag_260\n      jumpi\n      pop\n        /* \"QuadraticVoting.sol\":6872:6878  amount */\n      dup2\n        /* \"QuadraticVoting.sol\":6837:6846  proposals */\n      0x07\n        /* \"QuadraticVoting.sol\":6837:6850  proposals[id] */\n      0x00\n        /* \"QuadraticVoting.sol\":6847:6849  id */\n      dup4\n        /* \"QuadraticVoting.sol\":6837:6850  proposals[id] */\n      dup2\n      mstore\n      0x20\n      add\n      swap1\n      dup2\n      mstore\n      0x20\n      add\n      0x00\n      keccak256\n        /* \"QuadraticVoting.sol\":6837:6856  proposals[id].votes */\n      0x07\n      add\n        /* \"QuadraticVoting.sol\":6837:6868  proposals[id].votes[msg.sender] */\n      0x00\n        /* \"QuadraticVoting.sol\":6857:6867  msg.sender */\n      caller\n        /* \"QuadraticVoting.sol\":6837:6868  proposals[id].votes[msg.sender] */\n      0xffffffffffffffffffffffffffffffffffffffff\n      and\n      0xffffffffffffffffffffffffffffffffffffffff\n      and\n      dup2\n      mstore\n      0x20\n      add\n      swap1\n      dup2\n      mstore\n      0x20\n      add\n      0x00\n      keccak256\n      sload\n        /* \"QuadraticVoting.sol\":6837:6878  proposals[id].votes[msg.sender] >= amount */\n      lt\n      iszero\n        /* \"QuadraticVoting.sol\":6798:6878  proposals[id].votes[msg.sender] > 0 && proposals[id].votes[msg.sender] >= amount */\n    tag_260:\n        /* \"QuadraticVoting.sol\":6794:7151  if (proposals[id].votes[msg.sender] > 0 && proposals[id].votes[msg.sender] >= amount) {... */\n      iszero\n      tag_261\n      jumpi\n        /* \"QuadraticVoting.sol\":6898:6914  uint tokenAmount */\n      0x00\n        /* \"QuadraticVoting.sol\":6917:6951  _calculateWithdrawVote(id, amount) */\n      tag_262\n        /* \"QuadraticVoting.sol\":6940:6942  id */\n      dup3\n        /* \"QuadraticVoting.sol\":6944:6950  amount */\n      dup5\n        /* \"QuadraticVoting.sol\":6917:6939  _calculateWithdrawVote */\n      tag_243\n        /* \"QuadraticVoting.sol\":6917:6951  _calculateWithdrawVote(id, amount) */\n      jump\t// in\n    tag_262:\n        /* \"QuadraticVoting.sol\":6898:6951  uint tokenAmount = _calculateWithdrawVote(id, amount) */\n      swap1\n      pop\n        /* \"QuadraticVoting.sol\":7004:7010  amount */\n      dup3\n        /* \"QuadraticVoting.sol\":6969:6978  proposals */\n      0x07\n        /* \"QuadraticVoting.sol\":6969:6982  proposals[id] */\n      0x00\n        /* \"QuadraticVoting.sol\":6979:6981  id */\n      dup5\n        /* \"QuadraticVoting.sol\":6969:6982  proposals[id] */\n      dup2\n      mstore\n      0x20\n      add\n      swap1\n      dup2\n      mstore\n      0x20\n      add\n      0x00\n      keccak256\n        /* \"QuadraticVoting.sol\":6969:6988  proposals[id].votes */\n      0x07\n      add\n        /* \"QuadraticVoting.sol\":6969:7000  proposals[id].votes[msg.sender] */\n      0x00\n        /* \"QuadraticVoting.sol\":6989:6999  msg.sender */\n      caller\n        /* \"QuadraticVoting.sol\":6969:7000  proposals[id].votes[msg.sender] */\n      0xffffffffffffffffffffffffffffffffffffffff\n      and\n      0xffffffffffffffffffffffffffffffffffffffff\n      and\n      dup2\n      mstore\n      0x20\n      add\n      swap1\n      dup2\n      mstore\n      0x20\n      add\n      0x00\n      keccak256\n      0x00\n        /* \"QuadraticVoting.sol\":6969:7010  proposals[id].votes[msg.sender] -= amount */\n      dup3\n      dup3\n      sload\n      sub\n      swap3\n      pop\n      pop\n      dup2\n      swap1\n      sstore\n      pop\n        /* \"QuadraticVoting.sol\":7059:7070  tokenAmount */\n      dup1\n        /* \"QuadraticVoting.sol\":7028:7037  proposals */\n      0x07\n        /* \"QuadraticVoting.sol\":7028:7041  proposals[id] */\n      0x00\n        /* \"QuadraticVoting.sol\":7038:7040  id */\n      dup5\n        /* \"QuadraticVoting.sol\":7028:7041  proposals[id] */\n      dup2\n      mstore\n      0x20\n      add\n      swap1\n      dup2\n      mstore\n      0x20\n      add\n      0x00\n      keccak256\n        /* \"QuadraticVoting.sol\":7028:7055  proposals[id].currentTokens */\n      0x06\n      add\n      0x00\n        /* \"QuadraticVoting.sol\":7028:7070  proposals[id].currentTokens -= tokenAmount */\n      dup3\n      dup3\n      sload\n      sub\n      swap3\n      pop\n      pop\n      dup2\n      swap1\n      sstore\n      pop\n        /* \"QuadraticVoting.sol\":7089:7102  tokenContract */\n      0x01\n      0x00\n      swap1\n      sload\n      swap1\n      0x0100\n      exp\n      swap1\n      div\n      0xffffffffffffffffffffffffffffffffffffffff\n      and\n        /* \"QuadraticVoting.sol\":7089:7111  tokenContract.transfer */\n      0xffffffffffffffffffffffffffffffffffffffff\n      and\n      0xa9059cbb\n        /* \"QuadraticVoting.sol\":7112:7122  msg.sender */\n      caller\n        /* \"QuadraticVoting.sol\":7124:7135  tokenAmount */\n      dup4\n        /* \"QuadraticVoting.sol\":7089:7136  tokenContract.transfer(msg.sender, tokenAmount) */\n      mload(0x40)\n      dup4\n      0xffffffff\n      and\n      0xe0\n      shl\n      dup2\n      mstore\n      0x04\n      add\n      tag_263\n      swap3\n      swap2\n      swap1\n      jump(tag_136)\n    tag_263:\n      0x20\n      mload(0x40)\n      dup1\n      dup4\n      sub\n      dup2\n      0x00\n      dup8\n      dup1\n      extcodesize\n      iszero\n        /* \"--CODEGEN--\":8:17   */\n      dup1\n        /* \"--CODEGEN--\":5:7   */\n      iszero\n      tag_264\n      jumpi\n        /* \"--CODEGEN--\":30:31   */\n      0x00\n        /* \"--CODEGEN--\":27:28   */\n      dup1\n        /* \"--CODEGEN--\":20:32   */\n      revert\n        /* \"--CODEGEN--\":5:7   */\n    tag_264:\n        /* \"QuadraticVoting.sol\":7089:7136  tokenContract.transfer(msg.sender, tokenAmount) */\n      pop\n      gas\n      call\n      iszero\n        /* \"--CODEGEN--\":8:17   */\n      dup1\n        /* \"--CODEGEN--\":5:7   */\n      iszero\n      tag_265\n      jumpi\n        /* \"--CODEGEN--\":45:61   */\n      returndatasize\n        /* \"--CODEGEN--\":42:43   */\n      0x00\n        /* \"--CODEGEN--\":39:40   */\n      dup1\n        /* \"--CODEGEN--\":24:62   */\n      returndatacopy\n        /* \"--CODEGEN--\":77:93   */\n      returndatasize\n        /* \"--CODEGEN--\":74:75   */\n      0x00\n        /* \"--CODEGEN--\":67:94   */\n      revert\n        /* \"--CODEGEN--\":5:7   */\n    tag_265:\n        /* \"QuadraticVoting.sol\":7089:7136  tokenContract.transfer(msg.sender, tokenAmount) */\n      pop\n      pop\n      pop\n      pop\n      mload(0x40)\n      returndatasize\n        /* \"--CODEGEN--\":101:105   */\n      0x1f\n        /* \"--CODEGEN--\":97:106   */\n      not\n        /* \"--CODEGEN--\":90:94   */\n      0x1f\n        /* \"--CODEGEN--\":84:88   */\n      dup3\n        /* \"--CODEGEN--\":80:95   */\n      add\n        /* \"--CODEGEN--\":76:107   */\n      and\n        /* \"--CODEGEN--\":69:74   */\n      dup3\n        /* \"--CODEGEN--\":65:108   */\n      add\n        /* \"--CODEGEN--\":126:132   */\n      dup1\n        /* \"--CODEGEN--\":120:124   */\n      0x40\n        /* \"--CODEGEN--\":113:133   */\n      mstore\n        /* \"--CODEGEN--\":0:138   */\n      pop\n        /* \"QuadraticVoting.sol\":7089:7136  tokenContract.transfer(msg.sender, tokenAmount) */\n      tag_266\n      swap2\n      swap1\n      dup2\n      add\n      swap1\n      jump(tag_248)\n    tag_266:\n      pop\n        /* \"QuadraticVoting.sol\":6794:7151  if (proposals[id].votes[msg.sender] > 0 && proposals[id].votes[msg.sender] >= amount) {... */\n      pop\n    tag_261:\n        /* \"QuadraticVoting.sol\":6758:7162  if (votingState == 2) {... */\n    tag_259:\n        /* \"QuadraticVoting.sol\":6270:7162  if (votingState == 1) {... */\n    tag_258:\n        /* \"QuadraticVoting.sol\":6189:7168  function _withdrawFromSignalingProposal(uint amount, uint id) internal {... */\n      pop\n      pop\n      jump\t// out\n        /* \"QuadraticVoting.sol\":910:1231  function _calculateVoteCost(uint proposalId, uint votes) view internal returns(uint) {... */\n    tag_142:\n        /* \"QuadraticVoting.sol\":989:993  uint */\n      0x00\n        /* \"QuadraticVoting.sol\":1005:1018  uint oldVotes */\n      dup1\n        /* \"QuadraticVoting.sol\":1021:1030  proposals */\n      0x07\n        /* \"QuadraticVoting.sol\":1021:1042  proposals[proposalId] */\n      0x00\n        /* \"QuadraticVoting.sol\":1031:1041  proposalId */\n      dup6\n        /* \"QuadraticVoting.sol\":1021:1042  proposals[proposalId] */\n      dup2\n      mstore\n      0x20\n      add\n      swap1\n      dup2\n      mstore\n      0x20\n      add\n      0x00\n      keccak256\n        /* \"QuadraticVoting.sol\":1021:1048  proposals[proposalId].votes */\n      0x07\n      add\n        /* \"QuadraticVoting.sol\":1021:1060  proposals[proposalId].votes[msg.sender] */\n      0x00\n        /* \"QuadraticVoting.sol\":1049:1059  msg.sender */\n      caller\n        /* \"QuadraticVoting.sol\":1021:1060  proposals[proposalId].votes[msg.sender] */\n      0xffffffffffffffffffffffffffffffffffffffff\n      and\n      0xffffffffffffffffffffffffffffffffffffffff\n      and\n      dup2\n      mstore\n      0x20\n      add\n      swap1\n      dup2\n      mstore\n      0x20\n      add\n      0x00\n      keccak256\n      sload\n        /* \"QuadraticVoting.sol\":1005:1060  uint oldVotes = proposals[proposalId].votes[msg.sender] */\n      swap1\n      pop\n        /* \"QuadraticVoting.sol\":1070:1083  uint oldPrice */\n      0x00\n        /* \"QuadraticVoting.sol\":1098:1099  2 */\n      0x02\n        /* \"QuadraticVoting.sol\":1086:1094  oldVotes */\n      dup3\n        /* \"QuadraticVoting.sol\":1086:1099  oldVotes ** 2 */\n      exp\n        /* \"QuadraticVoting.sol\":1070:1099  uint oldPrice = oldVotes ** 2 */\n      swap1\n      pop\n        /* \"QuadraticVoting.sol\":1109:1124  uint totalVotes */\n      0x00\n        /* \"QuadraticVoting.sol\":1138:1143  votes */\n      dup5\n        /* \"QuadraticVoting.sol\":1127:1135  oldVotes */\n      dup4\n        /* \"QuadraticVoting.sol\":1127:1143  oldVotes + votes */\n      add\n        /* \"QuadraticVoting.sol\":1109:1143  uint totalVotes = oldVotes + votes */\n      swap1\n      pop\n        /* \"QuadraticVoting.sol\":1153:1168  uint totalPrice */\n      0x00\n        /* \"QuadraticVoting.sol\":1185:1186  2 */\n      0x02\n        /* \"QuadraticVoting.sol\":1171:1181  totalVotes */\n      dup3\n        /* \"QuadraticVoting.sol\":1171:1186  totalVotes ** 2 */\n      exp\n        /* \"QuadraticVoting.sol\":1153:1186  uint totalPrice = totalVotes ** 2 */\n      swap1\n      pop\n        /* \"QuadraticVoting.sol\":1216:1224  oldPrice */\n      dup3\n        /* \"QuadraticVoting.sol\":1203:1213  totalPrice */\n      dup2\n        /* \"QuadraticVoting.sol\":1203:1224  totalPrice - oldPrice */\n      sub\n        /* \"QuadraticVoting.sol\":1196:1224  return totalPrice - oldPrice */\n      swap5\n      pop\n      pop\n      pop\n      pop\n      pop\n        /* \"QuadraticVoting.sol\":910:1231  function _calculateVoteCost(uint proposalId, uint votes) view internal returns(uint) {... */\n      swap3\n      swap2\n      pop\n      pop\n      jump\t// out\n        /* \"QuadraticVoting.sol\":7534:7791  function _isProposalApproved(uint proposalId) view internal returns(bool) {... */\n    tag_153:\n        /* \"QuadraticVoting.sol\":7602:7606  bool */\n      0x00\n        /* \"QuadraticVoting.sol\":7618:7642  Proposal memory proposal */\n      tag_269\n      tag_170\n      jump\t// in\n    tag_269:\n        /* \"QuadraticVoting.sol\":7645:7654  proposals */\n      0x07\n        /* \"QuadraticVoting.sol\":7645:7666  proposals[proposalId] */\n      0x00\n        /* \"QuadraticVoting.sol\":7655:7665  proposalId */\n      dup5\n        /* \"QuadraticVoting.sol\":7645:7666  proposals[proposalId] */\n      dup2\n      mstore\n      0x20\n      add\n      swap1\n      dup2\n      mstore\n      0x20\n      add\n      0x00\n      keccak256\n        /* \"QuadraticVoting.sol\":7618:7666  Proposal memory proposal = proposals[proposalId] */\n      mload(0x40)\n      dup1\n      0x0120\n      add\n      0x40\n      mstore\n      swap1\n      dup2\n      0x00\n      dup3\n      add\n      0x00\n      swap1\n      sload\n      swap1\n      0x0100\n      exp\n      swap1\n      div\n      0xffffffffffffffffffffffffffffffffffffffff\n      and\n      0xffffffffffffffffffffffffffffffffffffffff\n      and\n      0xffffffffffffffffffffffffffffffffffffffff\n      and\n      dup2\n      mstore\n      0x20\n      add\n      0x01\n      dup3\n      add\n      0x00\n      swap1\n      sload\n      swap1\n      0x0100\n      exp\n      swap1\n      div\n      0xffffffffffffffffffffffffffffffffffffffff\n      and\n      0xffffffffffffffffffffffffffffffffffffffff\n      and\n      0xffffffffffffffffffffffffffffffffffffffff\n      and\n      dup2\n      mstore\n      0x20\n      add\n      0x02\n      dup3\n      add\n      dup1\n      sload\n      0x01\n      dup2\n      0x01\n      and\n      iszero\n      0x0100\n      mul\n      sub\n      and\n      0x02\n      swap1\n      div\n      dup1\n      0x1f\n      add\n      0x20\n      dup1\n      swap2\n      div\n      mul\n      0x20\n      add\n      mload(0x40)\n      swap1\n      dup2\n      add\n      0x40\n      mstore\n      dup1\n      swap3\n      swap2\n      swap1\n      dup2\n      dup2\n      mstore\n      0x20\n      add\n      dup3\n      dup1\n      sload\n      0x01\n      dup2\n      0x01\n      and\n      iszero\n      0x0100\n      mul\n      sub\n      and\n      0x02\n      swap1\n      div\n      dup1\n      iszero\n      tag_270\n      jumpi\n      dup1\n      0x1f\n      lt\n      tag_271\n      jumpi\n      0x0100\n      dup1\n      dup4\n      sload\n      div\n      mul\n      dup4\n      mstore\n      swap2\n      0x20\n      add\n      swap2\n      jump(tag_270)\n    tag_271:\n      dup3\n      add\n      swap2\n      swap1\n      0x00\n      mstore\n      keccak256(0x00, 0x20)\n      swap1\n    tag_272:\n      dup2\n      sload\n      dup2\n      mstore\n      swap1\n      0x01\n      add\n      swap1\n      0x20\n      add\n      dup1\n      dup4\n      gt\n      tag_272\n      jumpi\n      dup3\n      swap1\n      sub\n      0x1f\n      and\n      dup3\n      add\n      swap2\n    tag_270:\n      pop\n      pop\n      pop\n      pop\n      pop\n      dup2\n      mstore\n      0x20\n      add\n      0x03\n      dup3\n      add\n      dup1\n      sload\n      0x01\n      dup2\n      0x01\n      and\n      iszero\n      0x0100\n      mul\n      sub\n      and\n      0x02\n      swap1\n      div\n      dup1\n      0x1f\n      add\n      0x20\n      dup1\n      swap2\n      div\n      mul\n      0x20\n      add\n      mload(0x40)\n      swap1\n      dup2\n      add\n      0x40\n      mstore\n      dup1\n      swap3\n      swap2\n      swap1\n      dup2\n      dup2\n      mstore\n      0x20\n      add\n      dup3\n      dup1\n      sload\n      0x01\n      dup2\n      0x01\n      and\n      iszero\n      0x0100\n      mul\n      sub\n      and\n      0x02\n      swap1\n      div\n      dup1\n      iszero\n      tag_273\n      jumpi\n      dup1\n      0x1f\n      lt\n      tag_274\n      jumpi\n      0x0100\n      dup1\n      dup4\n      sload\n      div\n      mul\n      dup4\n      mstore\n      swap2\n      0x20\n      add\n      swap2\n      jump(tag_273)\n    tag_274:\n      dup3\n      add\n      swap2\n      swap1\n      0x00\n      mstore\n      keccak256(0x00, 0x20)\n      swap1\n    tag_275:\n      dup2\n      sload\n      dup2\n      mstore\n      swap1\n      0x01\n      add\n      swap1\n      0x20\n      add\n      dup1\n      dup4\n      gt\n      tag_275\n      jumpi\n      dup3\n      swap1\n      sub\n      0x1f\n      and\n      dup3\n      add\n      swap2\n    tag_273:\n      pop\n      pop\n      pop\n      pop\n      pop\n      dup2\n      mstore\n      0x20\n      add\n      0x04\n      dup3\n      add\n      sload\n      dup2\n      mstore\n      0x20\n      add\n      0x05\n      dup3\n      add\n      sload\n      dup2\n      mstore\n      0x20\n      add\n      0x06\n      dup3\n      add\n      sload\n      dup2\n      mstore\n      0x20\n      add\n      0x08\n      dup3\n      add\n      0x00\n      swap1\n      sload\n      swap1\n      0x0100\n      exp\n      swap1\n      div\n      0xff\n      and\n      0xff\n      and\n      0xff\n      and\n      dup2\n      mstore\n      0x20\n      add\n      0x08\n      dup3\n      add\n      0x01\n      swap1\n      sload\n      swap1\n      0x0100\n      exp\n      swap1\n      div\n      0xff\n      and\n      iszero\n      iszero\n      iszero\n      iszero\n      dup2\n      mstore\n      pop\n      pop\n      swap1\n      pop\n        /* \"QuadraticVoting.sol\":7704:7725  address(this).balance */\n      selfbalance\n        /* \"QuadraticVoting.sol\":7683:7691  proposal */\n      dup2\n        /* \"QuadraticVoting.sol\":7683:7701  proposal.minBudget */\n      0x80\n      add\n      mload\n        /* \"QuadraticVoting.sol\":7683:7725  proposal.minBudget < address(this).balance */\n      lt\n        /* \"QuadraticVoting.sol\":7683:7784  proposal.minBudget < address(this).balance && proposal.currentVotes > _calculateThreshold(proposalId) */\n      dup1\n      iszero\n      tag_276\n      jumpi\n      pop\n        /* \"QuadraticVoting.sol\":7753:7784  _calculateThreshold(proposalId) */\n      tag_277\n        /* \"QuadraticVoting.sol\":7773:7783  proposalId */\n      dup4\n        /* \"QuadraticVoting.sol\":7753:7772  _calculateThreshold */\n      tag_278\n        /* \"QuadraticVoting.sol\":7753:7784  _calculateThreshold(proposalId) */\n      jump\t// in\n    tag_277:\n        /* \"QuadraticVoting.sol\":7729:7737  proposal */\n      dup2\n        /* \"QuadraticVoting.sol\":7729:7750  proposal.currentVotes */\n      0xa0\n      add\n      mload\n        /* \"QuadraticVoting.sol\":7729:7784  proposal.currentVotes > _calculateThreshold(proposalId) */\n      gt\n        /* \"QuadraticVoting.sol\":7683:7784  proposal.minBudget < address(this).balance && proposal.currentVotes > _calculateThreshold(proposalId) */\n    tag_276:\n        /* \"QuadraticVoting.sol\":7676:7784  return proposal.minBudget < address(this).balance && proposal.currentVotes > _calculateThreshold(proposalId) */\n      swap2\n      pop\n      pop\n        /* \"QuadraticVoting.sol\":7534:7791  function _isProposalApproved(uint proposalId) view internal returns(bool) {... */\n      swap2\n      swap1\n      pop\n      jump\t// out\n        /* \"QuadraticVoting.sol\":8159:8584  function _approveProposal(uint proposalId) internal {... */\n    tag_157:\n        /* \"QuadraticVoting.sol\":8251:8252  2 */\n      0x02\n        /* \"QuadraticVoting.sol\":8221:8230  proposals */\n      0x07\n        /* \"QuadraticVoting.sol\":8221:8242  proposals[proposalId] */\n      0x00\n        /* \"QuadraticVoting.sol\":8231:8241  proposalId */\n      dup4\n        /* \"QuadraticVoting.sol\":8221:8242  proposals[proposalId] */\n      dup2\n      mstore\n      0x20\n      add\n      swap1\n      dup2\n      mstore\n      0x20\n      add\n      0x00\n      keccak256\n        /* \"QuadraticVoting.sol\":8221:8248  proposals[proposalId].state */\n      0x08\n      add\n      0x00\n        /* \"QuadraticVoting.sol\":8221:8252  proposals[proposalId].state = 2 */\n      0x0100\n      exp\n      dup2\n      sload\n      dup2\n      0xff\n      mul\n      not\n      and\n      swap1\n      dup4\n      0xff\n      and\n      mul\n      or\n      swap1\n      sstore\n      pop\n        /* \"QuadraticVoting.sol\":8262:8286  Proposal memory proposal */\n      tag_280\n      tag_170\n      jump\t// in\n    tag_280:\n        /* \"QuadraticVoting.sol\":8289:8298  proposals */\n      0x07\n        /* \"QuadraticVoting.sol\":8289:8310  proposals[proposalId] */\n      0x00\n        /* \"QuadraticVoting.sol\":8299:8309  proposalId */\n      dup4\n        /* \"QuadraticVoting.sol\":8289:8310  proposals[proposalId] */\n      dup2\n      mstore\n      0x20\n      add\n      swap1\n      dup2\n      mstore\n      0x20\n      add\n      0x00\n      keccak256\n        /* \"QuadraticVoting.sol\":8262:8310  Proposal memory proposal = proposals[proposalId] */\n      mload(0x40)\n      dup1\n      0x0120\n      add\n      0x40\n      mstore\n      swap1\n      dup2\n      0x00\n      dup3\n      add\n      0x00\n      swap1\n      sload\n      swap1\n      0x0100\n      exp\n      swap1\n      div\n      0xffffffffffffffffffffffffffffffffffffffff\n      and\n      0xffffffffffffffffffffffffffffffffffffffff\n      and\n      0xffffffffffffffffffffffffffffffffffffffff\n      and\n      dup2\n      mstore\n      0x20\n      add\n      0x01\n      dup3\n      add\n      0x00\n      swap1\n      sload\n      swap1\n      0x0100\n      exp\n      swap1\n      div\n      0xffffffffffffffffffffffffffffffffffffffff\n      and\n      0xffffffffffffffffffffffffffffffffffffffff\n      and\n      0xffffffffffffffffffffffffffffffffffffffff\n      and\n      dup2\n      mstore\n      0x20\n      add\n      0x02\n      dup3\n      add\n      dup1\n      sload\n      0x01\n      dup2\n      0x01\n      and\n      iszero\n      0x0100\n      mul\n      sub\n      and\n      0x02\n      swap1\n      div\n      dup1\n      0x1f\n      add\n      0x20\n      dup1\n      swap2\n      div\n      mul\n      0x20\n      add\n      mload(0x40)\n      swap1\n      dup2\n      add\n      0x40\n      mstore\n      dup1\n      swap3\n      swap2\n      swap1\n      dup2\n      dup2\n      mstore\n      0x20\n      add\n      dup3\n      dup1\n      sload\n      0x01\n      dup2\n      0x01\n      and\n      iszero\n      0x0100\n      mul\n      sub\n      and\n      0x02\n      swap1\n      div\n      dup1\n      iszero\n      tag_281\n      jumpi\n      dup1\n      0x1f\n      lt\n      tag_282\n      jumpi\n      0x0100\n      dup1\n      dup4\n      sload\n      div\n      mul\n      dup4\n      mstore\n      swap2\n      0x20\n      add\n      swap2\n      jump(tag_281)\n    tag_282:\n      dup3\n      add\n      swap2\n      swap1\n      0x00\n      mstore\n      keccak256(0x00, 0x20)\n      swap1\n    tag_283:\n      dup2\n      sload\n      dup2\n      mstore\n      swap1\n      0x01\n      add\n      swap1\n      0x20\n      add\n      dup1\n      dup4\n      gt\n      tag_283\n      jumpi\n      dup3\n      swap1\n      sub\n      0x1f\n      and\n      dup3\n      add\n      swap2\n    tag_281:\n      pop\n      pop\n      pop\n      pop\n      pop\n      dup2\n      mstore\n      0x20\n      add\n      0x03\n      dup3\n      add\n      dup1\n      sload\n      0x01\n      dup2\n      0x01\n      and\n      iszero\n      0x0100\n      mul\n      sub\n      and\n      0x02\n      swap1\n      div\n      dup1\n      0x1f\n      add\n      0x20\n      dup1\n      swap2\n      div\n      mul\n      0x20\n      add\n      mload(0x40)\n      swap1\n      dup2\n      add\n      0x40\n      mstore\n      dup1\n      swap3\n      swap2\n      swap1\n      dup2\n      dup2\n      mstore\n      0x20\n      add\n      dup3\n      dup1\n      sload\n      0x01\n      dup2\n      0x01\n      and\n      iszero\n      0x0100\n      mul\n      sub\n      and\n      0x02\n      swap1\n      div\n      dup1\n      iszero\n      tag_284\n      jumpi\n      dup1\n      0x1f\n      lt\n      tag_285\n      jumpi\n      0x0100\n      dup1\n      dup4\n      sload\n      div\n      mul\n      dup4\n      mstore\n      swap2\n      0x20\n      add\n      swap2\n      jump(tag_284)\n    tag_285:\n      dup3\n      add\n      swap2\n      swap1\n      0x00\n      mstore\n      keccak256(0x00, 0x20)\n      swap1\n    tag_286:\n      dup2\n      sload\n      dup2\n      mstore\n      swap1\n      0x01\n      add\n      swap1\n      0x20\n      add\n      dup1\n      dup4\n      gt\n      tag_286\n      jumpi\n      dup3\n      swap1\n      sub\n      0x1f\n      and\n      dup3\n      add\n      swap2\n    tag_284:\n      pop\n      pop\n      pop\n      pop\n      pop\n      dup2\n      mstore\n      0x20\n      add\n      0x04\n      dup3\n      add\n      sload\n      dup2\n      mstore\n      0x20\n      add\n      0x05\n      dup3\n      add\n      sload\n      dup2\n      mstore\n      0x20\n      add\n      0x06\n      dup3\n      add\n      sload\n      dup2\n      mstore\n      0x20\n      add\n      0x08\n      dup3\n      add\n      0x00\n      swap1\n      sload\n      swap1\n      0x0100\n      exp\n      swap1\n      div\n      0xff\n      and\n      0xff\n      and\n      0xff\n      and\n      dup2\n      mstore\n      0x20\n      add\n      0x08\n      dup3\n      add\n      0x01\n      swap1\n      sload\n      swap1\n      0x0100\n      exp\n      swap1\n      div\n      0xff\n      and\n      iszero\n      iszero\n      iszero\n      iszero\n      dup2\n      mstore\n      pop\n      pop\n      swap1\n      pop\n        /* \"QuadraticVoting.sol\":8346:8347  0 */\n      0x00\n        /* \"QuadraticVoting.sol\":8325:8333  proposal */\n      dup2\n        /* \"QuadraticVoting.sol\":8325:8343  proposal.minBudget */\n      0x80\n      add\n      mload\n        /* \"QuadraticVoting.sol\":8325:8347  proposal.minBudget > 0 */\n      gt\n        /* \"QuadraticVoting.sol\":8321:8431  if (proposal.minBudget > 0) {... */\n      iszero\n      tag_287\n      jumpi\n        /* \"QuadraticVoting.sol\":8363:8376  tokenContract */\n      0x01\n      0x00\n      swap1\n      sload\n      swap1\n      0x0100\n      exp\n      swap1\n      div\n      0xffffffffffffffffffffffffffffffffffffffff\n      and\n        /* \"QuadraticVoting.sol\":8363:8381  tokenContract.burn */\n      0xffffffffffffffffffffffffffffffffffffffff\n      and\n      0x9dc29fac\n        /* \"QuadraticVoting.sol\":8390:8394  this */\n      address\n        /* \"QuadraticVoting.sol\":8397:8405  proposal */\n      dup4\n        /* \"QuadraticVoting.sol\":8397:8419  proposal.currentTokens */\n      0xc0\n      add\n      mload\n        /* \"QuadraticVoting.sol\":8363:8420  tokenContract.burn(address(this), proposal.currentTokens) */\n      mload(0x40)\n      dup4\n      0xffffffff\n      and\n      0xe0\n      shl\n      dup2\n      mstore\n      0x04\n      add\n      tag_288\n      swap3\n      swap2\n      swap1\n      jump(tag_289)\n    tag_288:\n      0x00\n      mload(0x40)\n      dup1\n      dup4\n      sub\n      dup2\n      0x00\n      dup8\n      dup1\n      extcodesize\n      iszero\n        /* \"--CODEGEN--\":8:17   */\n      dup1\n        /* \"--CODEGEN--\":5:7   */\n      iszero\n      tag_290\n      jumpi\n        /* \"--CODEGEN--\":30:31   */\n      0x00\n        /* \"--CODEGEN--\":27:28   */\n      dup1\n        /* \"--CODEGEN--\":20:32   */\n      revert\n        /* \"--CODEGEN--\":5:7   */\n    tag_290:\n        /* \"QuadraticVoting.sol\":8363:8420  tokenContract.burn(address(this), proposal.currentTokens) */\n      pop\n      gas\n      call\n      iszero\n        /* \"--CODEGEN--\":8:17   */\n      dup1\n        /* \"--CODEGEN--\":5:7   */\n      iszero\n      tag_291\n      jumpi\n        /* \"--CODEGEN--\":45:61   */\n      returndatasize\n        /* \"--CODEGEN--\":42:43   */\n      0x00\n        /* \"--CODEGEN--\":39:40   */\n      dup1\n        /* \"--CODEGEN--\":24:62   */\n      returndatacopy\n        /* \"--CODEGEN--\":77:93   */\n      returndatasize\n        /* \"--CODEGEN--\":74:75   */\n      0x00\n        /* \"--CODEGEN--\":67:94   */\n      revert\n        /* \"--CODEGEN--\":5:7   */\n    tag_291:\n        /* \"QuadraticVoting.sol\":8363:8420  tokenContract.burn(address(this), proposal.currentTokens) */\n      pop\n      pop\n      pop\n      pop\n        /* \"QuadraticVoting.sol\":8321:8431  if (proposal.minBudget > 0) {... */\n    tag_287:\n        /* \"QuadraticVoting.sol\":8449:8457  proposal */\n      dup1\n        /* \"QuadraticVoting.sol\":8449:8476  proposal.executableProposal */\n      0x20\n      add\n      mload\n        /* \"QuadraticVoting.sol\":8449:8492  proposal.executableProposal.executeProposal */\n      0xffffffffffffffffffffffffffffffffffffffff\n      and\n      0x986cc311\n        /* \"QuadraticVoting.sol\":8499:8507  proposal */\n      dup3\n        /* \"QuadraticVoting.sol\":8499:8517  proposal.minBudget */\n      0x80\n      add\n      mload\n        /* \"QuadraticVoting.sol\":8519:8529  proposalId */\n      dup5\n        /* \"QuadraticVoting.sol\":8531:8539  proposal */\n      dup5\n        /* \"QuadraticVoting.sol\":8531:8552  proposal.currentVotes */\n      0xa0\n      add\n      mload\n        /* \"QuadraticVoting.sol\":8554:8562  proposal */\n      dup6\n        /* \"QuadraticVoting.sol\":8554:8576  proposal.currentTokens */\n      0xc0\n      add\n      mload\n        /* \"QuadraticVoting.sol\":8449:8577  proposal.executableProposal.executeProposal.value(proposal.minBudget)(proposalId, proposal.currentVotes, proposal.currentTokens) */\n      mload(0x40)\n      dup6\n      0xffffffff\n      and\n      0xe0\n      shl\n      dup2\n      mstore\n      0x04\n      add\n      tag_292\n      swap4\n      swap3\n      swap2\n      swap1\n      jump(tag_293)\n    tag_292:\n      0x00\n      mload(0x40)\n      dup1\n      dup4\n      sub\n      dup2\n      dup6\n      dup9\n      dup1\n      extcodesize\n      iszero\n        /* \"--CODEGEN--\":8:17   */\n      dup1\n        /* \"--CODEGEN--\":5:7   */\n      iszero\n      tag_294\n      jumpi\n        /* \"--CODEGEN--\":30:31   */\n      0x00\n        /* \"--CODEGEN--\":27:28   */\n      dup1\n        /* \"--CODEGEN--\":20:32   */\n      revert\n        /* \"--CODEGEN--\":5:7   */\n    tag_294:\n        /* \"QuadraticVoting.sol\":8449:8577  proposal.executableProposal.executeProposal.value(proposal.minBudget)(proposalId, proposal.currentVotes, proposal.currentTokens) */\n      pop\n      gas\n      call\n      iszero\n        /* \"--CODEGEN--\":8:17   */\n      dup1\n        /* \"--CODEGEN--\":5:7   */\n      iszero\n      tag_295\n      jumpi\n        /* \"--CODEGEN--\":45:61   */\n      returndatasize\n        /* \"--CODEGEN--\":42:43   */\n      0x00\n        /* \"--CODEGEN--\":39:40   */\n      dup1\n        /* \"--CODEGEN--\":24:62   */\n      returndatacopy\n        /* \"--CODEGEN--\":77:93   */\n      returndatasize\n        /* \"--CODEGEN--\":74:75   */\n      0x00\n        /* \"--CODEGEN--\":67:94   */\n      revert\n        /* \"--CODEGEN--\":5:7   */\n    tag_295:\n        /* \"QuadraticVoting.sol\":8449:8577  proposal.executableProposal.executeProposal.value(proposal.minBudget)(proposalId, proposal.currentVotes, proposal.currentTokens) */\n      pop\n      pop\n      pop\n      pop\n      pop\n        /* \"QuadraticVoting.sol\":8159:8584  function _approveProposal(uint proposalId) internal {... */\n      pop\n      pop\n      jump\t// out\n        /* \"QuadraticVoting.sol\":1312:1637  function _calculateWithdrawVote(uint proposalId, uint votes) view internal returns(uint) {... */\n    tag_243:\n        /* \"QuadraticVoting.sol\":1395:1399  uint */\n      0x00\n        /* \"QuadraticVoting.sol\":1411:1424  uint oldVotes */\n      dup1\n        /* \"QuadraticVoting.sol\":1427:1436  proposals */\n      0x07\n        /* \"QuadraticVoting.sol\":1427:1448  proposals[proposalId] */\n      0x00\n        /* \"QuadraticVoting.sol\":1437:1447  proposalId */\n      dup6\n        /* \"QuadraticVoting.sol\":1427:1448  proposals[proposalId] */\n      dup2\n      mstore\n      0x20\n      add\n      swap1\n      dup2\n      mstore\n      0x20\n      add\n      0x00\n      keccak256\n        /* \"QuadraticVoting.sol\":1427:1454  proposals[proposalId].votes */\n      0x07\n      add\n        /* \"QuadraticVoting.sol\":1427:1466  proposals[proposalId].votes[msg.sender] */\n      0x00\n        /* \"QuadraticVoting.sol\":1455:1465  msg.sender */\n      caller\n        /* \"QuadraticVoting.sol\":1427:1466  proposals[proposalId].votes[msg.sender] */\n      0xffffffffffffffffffffffffffffffffffffffff\n      and\n      0xffffffffffffffffffffffffffffffffffffffff\n      and\n      dup2\n      mstore\n      0x20\n      add\n      swap1\n      dup2\n      mstore\n      0x20\n      add\n      0x00\n      keccak256\n      sload\n        /* \"QuadraticVoting.sol\":1411:1466  uint oldVotes = proposals[proposalId].votes[msg.sender] */\n      swap1\n      pop\n        /* \"QuadraticVoting.sol\":1476:1489  uint oldPrice */\n      0x00\n        /* \"QuadraticVoting.sol\":1504:1505  2 */\n      0x02\n        /* \"QuadraticVoting.sol\":1492:1500  oldVotes */\n      dup3\n        /* \"QuadraticVoting.sol\":1492:1505  oldVotes ** 2 */\n      exp\n        /* \"QuadraticVoting.sol\":1476:1505  uint oldPrice = oldVotes ** 2 */\n      swap1\n      pop\n        /* \"QuadraticVoting.sol\":1515:1530  uint totalVotes */\n      0x00\n        /* \"QuadraticVoting.sol\":1544:1549  votes */\n      dup5\n        /* \"QuadraticVoting.sol\":1533:1541  oldVotes */\n      dup4\n        /* \"QuadraticVoting.sol\":1533:1549  oldVotes - votes */\n      sub\n        /* \"QuadraticVoting.sol\":1515:1549  uint totalVotes = oldVotes - votes */\n      swap1\n      pop\n        /* \"QuadraticVoting.sol\":1559:1574  uint totalPrice */\n      0x00\n        /* \"QuadraticVoting.sol\":1591:1592  2 */\n      0x02\n        /* \"QuadraticVoting.sol\":1577:1587  totalVotes */\n      dup3\n        /* \"QuadraticVoting.sol\":1577:1592  totalVotes ** 2 */\n      exp\n        /* \"QuadraticVoting.sol\":1559:1592  uint totalPrice = totalVotes ** 2 */\n      swap1\n      pop\n        /* \"QuadraticVoting.sol\":1620:1630  totalPrice */\n      dup1\n        /* \"QuadraticVoting.sol\":1609:1617  oldPrice */\n      dup4\n        /* \"QuadraticVoting.sol\":1609:1630  oldPrice - totalPrice */\n      sub\n        /* \"QuadraticVoting.sol\":1602:1630  return oldPrice - totalPrice */\n      swap5\n      pop\n      pop\n      pop\n      pop\n      pop\n        /* \"QuadraticVoting.sol\":1312:1637  function _calculateWithdrawVote(uint proposalId, uint votes) view internal returns(uint) {... */\n      swap3\n      swap2\n      pop\n      pop\n      jump\t// out\n        /* \"QuadraticVoting.sol\":1685:1886  function _calculateThreshold(uint proposalId) view internal returns(uint) {... */\n    tag_278:\n        /* \"QuadraticVoting.sol\":1753:1757  uint */\n      0x00\n        /* \"QuadraticVoting.sol\":1869:1879  nProposals */\n      sload(0x06)\n        /* \"QuadraticVoting.sol\":1853:1866  nParticipants */\n      sload(0x04)\n        /* \"QuadraticVoting.sol\":1848:1850  10 */\n      0x0a\n        /* \"QuadraticVoting.sol\":1843:1845  10 */\n      dup1\n        /* \"QuadraticVoting.sol\":1821:1842  address(this).balance */\n      selfbalance\n        /* \"QuadraticVoting.sol\":1821:1845  address(this).balance*10 */\n      mul\n        /* \"QuadraticVoting.sol\":1814:1816  10 */\n      0x0a\n        /* \"QuadraticVoting.sol\":1782:1791  proposals */\n      0x07\n        /* \"QuadraticVoting.sol\":1782:1803  proposals[proposalId] */\n      0x00\n        /* \"QuadraticVoting.sol\":1792:1802  proposalId */\n      dup9\n        /* \"QuadraticVoting.sol\":1782:1803  proposals[proposalId] */\n      dup2\n      mstore\n      0x20\n      add\n      swap1\n      dup2\n      mstore\n      0x20\n      add\n      0x00\n      keccak256\n        /* \"QuadraticVoting.sol\":1782:1813  proposals[proposalId].minBudget */\n      0x04\n      add\n      sload\n        /* \"QuadraticVoting.sol\":1782:1816  proposals[proposalId].minBudget*10 */\n      mul\n        /* \"QuadraticVoting.sol\":1781:1846  (proposals[proposalId].minBudget*10) / (address(this).balance*10) */\n      dup2\n      tag_298\n      jumpi\n      invalid\n    tag_298:\n      div\n        /* \"QuadraticVoting.sol\":1777:1778  2 */\n      0x02\n        /* \"QuadraticVoting.sol\":1777:1846  2 + (proposals[proposalId].minBudget*10) / (address(this).balance*10) */\n      add\n        /* \"QuadraticVoting.sol\":1776:1850  (2 + (proposals[proposalId].minBudget*10) / (address(this).balance*10))/10 */\n      dup2\n      tag_299\n      jumpi\n      invalid\n    tag_299:\n      div\n        /* \"QuadraticVoting.sol\":1776:1866  (2 + (proposals[proposalId].minBudget*10) / (address(this).balance*10))/10 * nParticipants */\n      mul\n        /* \"QuadraticVoting.sol\":1776:1879  (2 + (proposals[proposalId].minBudget*10) / (address(this).balance*10))/10 * nParticipants + nProposals */\n      add\n        /* \"QuadraticVoting.sol\":1769:1879  return (2 + (proposals[proposalId].minBudget*10) / (address(this).balance*10))/10 * nParticipants + nProposals */\n      swap1\n      pop\n        /* \"QuadraticVoting.sol\":1685:1886  function _calculateThreshold(uint proposalId) view internal returns(uint) {... */\n      swap2\n      swap1\n      pop\n      jump\t// out\n        /* \"QuadraticVoting.sol\":93:9855  contract QuadraticVoting is IQuadraticVoting {... */\n    tag_170:\n      mload(0x40)\n      dup1\n      0x0120\n      add\n      0x40\n      mstore\n      dup1\n      and(0xffffffffffffffffffffffffffffffffffffffff, 0x00)\n      dup2\n      mstore\n      0x20\n      add\n      and(0xffffffffffffffffffffffffffffffffffffffff, 0x00)\n      dup2\n      mstore\n      0x20\n      add\n      0x60\n      dup2\n      mstore\n      0x20\n      add\n      0x60\n      dup2\n      mstore\n      0x20\n      add\n      0x00\n      dup2\n      mstore\n      0x20\n      add\n      0x00\n      dup2\n      mstore\n      0x20\n      add\n      0x00\n      dup2\n      mstore\n      0x20\n      add\n      and(0xff, 0x00)\n      dup2\n      mstore\n      0x20\n      add\n      iszero(iszero(0x00))\n      dup2\n      mstore\n      pop\n      swap1\n      jump\t// out\n    tag_172:\n      dup3\n      dup1\n      sload\n      0x01\n      dup2\n      0x01\n      and\n      iszero\n      0x0100\n      mul\n      sub\n      and\n      0x02\n      swap1\n      div\n      swap1\n      0x00\n      mstore\n      keccak256(0x00, 0x20)\n      swap1\n      0x1f\n      add\n      0x20\n      swap1\n      div\n      dup2\n      add\n      swap3\n      dup3\n      0x1f\n      lt\n      tag_301\n      jumpi\n      dup1\n      mload\n      not(0xff)\n      and\n      dup4\n      dup1\n      add\n      or\n      dup6\n      sstore\n      jump(tag_300)\n    tag_301:\n      dup3\n      dup1\n      add\n      0x01\n      add\n      dup6\n      sstore\n      dup3\n      iszero\n      tag_300\n      jumpi\n      swap2\n      dup3\n      add\n    tag_302:\n      dup3\n      dup2\n      gt\n      iszero\n      tag_303\n      jumpi\n      dup3\n      mload\n      dup3\n      sstore\n      swap2\n      0x20\n      add\n      swap2\n      swap1\n      0x01\n      add\n      swap1\n      jump(tag_302)\n    tag_303:\n    tag_300:\n      pop\n      swap1\n      pop\n      tag_304\n      swap2\n      swap1\n      tag_305\n      jump\t// in\n    tag_304:\n      pop\n      swap1\n      jump\t// out\n    tag_305:\n      tag_306\n      swap2\n      swap1\n    tag_307:\n      dup1\n      dup3\n      gt\n      iszero\n      tag_308\n      jumpi\n      0x00\n      dup2\n      0x00\n      swap1\n      sstore\n      pop\n      0x01\n      add\n      jump(tag_307)\n    tag_308:\n      pop\n      swap1\n      jump\n    tag_306:\n      swap1\n      jump\t// out\n        /* \"--CODEGEN--\":5:135   */\n    tag_310:\n      0x00\n        /* \"--CODEGEN--\":85:91   */\n      dup2\n        /* \"--CODEGEN--\":72:92   */\n      calldataload\n        /* \"--CODEGEN--\":63:92   */\n      swap1\n      pop\n        /* \"--CODEGEN--\":97:130   */\n      tag_311\n        /* \"--CODEGEN--\":124:129   */\n      dup2\n        /* \"--CODEGEN--\":97:130   */\n      jump(tag_312)\n    tag_311:\n        /* \"--CODEGEN--\":57:135   */\n      swap3\n      swap2\n      pop\n      pop\n      jump\n        /* \"--CODEGEN--\":142:270   */\n    tag_313:\n      0x00\n        /* \"--CODEGEN--\":223:229   */\n      dup2\n        /* \"--CODEGEN--\":217:230   */\n      mload\n        /* \"--CODEGEN--\":208:230   */\n      swap1\n      pop\n        /* \"--CODEGEN--\":235:265   */\n      tag_314\n        /* \"--CODEGEN--\":259:264   */\n      dup2\n        /* \"--CODEGEN--\":235:265   */\n      jump(tag_315)\n    tag_314:\n        /* \"--CODEGEN--\":202:270   */\n      swap3\n      swap2\n      pop\n      pop\n      jump\n        /* \"--CODEGEN--\":292:629   */\n    tag_316:\n      0x00\n      dup1\n        /* \"--CODEGEN--\":407:410   */\n      dup4\n        /* \"--CODEGEN--\":400:404   */\n      0x1f\n        /* \"--CODEGEN--\":392:398   */\n      dup5\n        /* \"--CODEGEN--\":388:405   */\n      add\n        /* \"--CODEGEN--\":384:411   */\n      slt\n        /* \"--CODEGEN--\":374:376   */\n      tag_317\n      jumpi\n        /* \"--CODEGEN--\":425:426   */\n      0x00\n        /* \"--CODEGEN--\":422:423   */\n      dup1\n        /* \"--CODEGEN--\":415:427   */\n      revert\n        /* \"--CODEGEN--\":374:376   */\n    tag_317:\n        /* \"--CODEGEN--\":458:464   */\n      dup3\n        /* \"--CODEGEN--\":445:465   */\n      calldataload\n        /* \"--CODEGEN--\":435:465   */\n      swap1\n      pop\n        /* \"--CODEGEN--\":485:503   */\n      0xffffffffffffffff\n        /* \"--CODEGEN--\":477:483   */\n      dup2\n        /* \"--CODEGEN--\":474:504   */\n      gt\n        /* \"--CODEGEN--\":471:473   */\n      iszero\n      tag_318\n      jumpi\n        /* \"--CODEGEN--\":517:518   */\n      0x00\n        /* \"--CODEGEN--\":514:515   */\n      dup1\n        /* \"--CODEGEN--\":507:519   */\n      revert\n        /* \"--CODEGEN--\":471:473   */\n    tag_318:\n        /* \"--CODEGEN--\":551:555   */\n      0x20\n        /* \"--CODEGEN--\":543:549   */\n      dup4\n        /* \"--CODEGEN--\":539:556   */\n      add\n        /* \"--CODEGEN--\":527:556   */\n      swap2\n      pop\n        /* \"--CODEGEN--\":602:605   */\n      dup4\n        /* \"--CODEGEN--\":594:598   */\n      0x01\n        /* \"--CODEGEN--\":586:592   */\n      dup3\n        /* \"--CODEGEN--\":582:599   */\n      mul\n        /* \"--CODEGEN--\":572:580   */\n      dup4\n        /* \"--CODEGEN--\":568:600   */\n      add\n        /* \"--CODEGEN--\":565:606   */\n      gt\n        /* \"--CODEGEN--\":562:564   */\n      iszero\n      tag_319\n      jumpi\n        /* \"--CODEGEN--\":619:620   */\n      0x00\n        /* \"--CODEGEN--\":616:617   */\n      dup1\n        /* \"--CODEGEN--\":609:621   */\n      revert\n        /* \"--CODEGEN--\":562:564   */\n    tag_319:\n        /* \"--CODEGEN--\":367:629   */\n      swap3\n      pop\n      swap3\n      swap1\n      pop\n      jump\n        /* \"--CODEGEN--\":637:767   */\n    tag_320:\n      0x00\n        /* \"--CODEGEN--\":717:723   */\n      dup2\n        /* \"--CODEGEN--\":704:724   */\n      calldataload\n        /* \"--CODEGEN--\":695:724   */\n      swap1\n      pop\n        /* \"--CODEGEN--\":729:762   */\n      tag_321\n        /* \"--CODEGEN--\":756:761   */\n      dup2\n        /* \"--CODEGEN--\":729:762   */\n      jump(tag_322)\n    tag_321:\n        /* \"--CODEGEN--\":689:767   */\n      swap3\n      swap2\n      pop\n      pop\n      jump\n        /* \"--CODEGEN--\":774:908   */\n    tag_323:\n      0x00\n        /* \"--CODEGEN--\":858:864   */\n      dup2\n        /* \"--CODEGEN--\":852:865   */\n      mload\n        /* \"--CODEGEN--\":843:865   */\n      swap1\n      pop\n        /* \"--CODEGEN--\":870:903   */\n      tag_324\n        /* \"--CODEGEN--\":897:902   */\n      dup2\n        /* \"--CODEGEN--\":870:903   */\n      jump(tag_322)\n    tag_324:\n        /* \"--CODEGEN--\":837:908   */\n      swap3\n      swap2\n      pop\n      pop\n      jump\n        /* \"--CODEGEN--\":915:1156   */\n    tag_26:\n      0x00\n        /* \"--CODEGEN--\":1019:1021   */\n      0x20\n        /* \"--CODEGEN--\":1007:1016   */\n      dup3\n        /* \"--CODEGEN--\":998:1005   */\n      dup5\n        /* \"--CODEGEN--\":994:1017   */\n      sub\n        /* \"--CODEGEN--\":990:1022   */\n      slt\n        /* \"--CODEGEN--\":987:989   */\n      iszero\n      tag_325\n      jumpi\n        /* \"--CODEGEN--\":1035:1036   */\n      0x00\n        /* \"--CODEGEN--\":1032:1033   */\n      dup1\n        /* \"--CODEGEN--\":1025:1037   */\n      revert\n        /* \"--CODEGEN--\":987:989   */\n    tag_325:\n        /* \"--CODEGEN--\":1070:1071   */\n      0x00\n        /* \"--CODEGEN--\":1087:1140   */\n      tag_326\n        /* \"--CODEGEN--\":1132:1139   */\n      dup5\n        /* \"--CODEGEN--\":1123:1129   */\n      dup3\n        /* \"--CODEGEN--\":1112:1121   */\n      dup6\n        /* \"--CODEGEN--\":1108:1130   */\n      add\n        /* \"--CODEGEN--\":1087:1140   */\n      jump(tag_310)\n    tag_326:\n        /* \"--CODEGEN--\":1077:1140   */\n      swap2\n      pop\n        /* \"--CODEGEN--\":1049:1146   */\n      pop\n        /* \"--CODEGEN--\":981:1156   */\n      swap3\n      swap2\n      pop\n      pop\n      jump\n        /* \"--CODEGEN--\":1163:1420   */\n    tag_248:\n      0x00\n        /* \"--CODEGEN--\":1275:1277   */\n      0x20\n        /* \"--CODEGEN--\":1263:1272   */\n      dup3\n        /* \"--CODEGEN--\":1254:1261   */\n      dup5\n        /* \"--CODEGEN--\":1250:1273   */\n      sub\n        /* \"--CODEGEN--\":1246:1278   */\n      slt\n        /* \"--CODEGEN--\":1243:1245   */\n      iszero\n      tag_327\n      jumpi\n        /* \"--CODEGEN--\":1291:1292   */\n      0x00\n        /* \"--CODEGEN--\":1288:1289   */\n      dup1\n        /* \"--CODEGEN--\":1281:1293   */\n      revert\n        /* \"--CODEGEN--\":1243:1245   */\n    tag_327:\n        /* \"--CODEGEN--\":1326:1327   */\n      0x00\n        /* \"--CODEGEN--\":1343:1404   */\n      tag_328\n        /* \"--CODEGEN--\":1396:1403   */\n      dup5\n        /* \"--CODEGEN--\":1387:1393   */\n      dup3\n        /* \"--CODEGEN--\":1376:1385   */\n      dup6\n        /* \"--CODEGEN--\":1372:1394   */\n      add\n        /* \"--CODEGEN--\":1343:1404   */\n      jump(tag_313)\n    tag_328:\n        /* \"--CODEGEN--\":1333:1404   */\n      swap2\n      pop\n        /* \"--CODEGEN--\":1305:1410   */\n      pop\n        /* \"--CODEGEN--\":1237:1420   */\n      swap3\n      swap2\n      pop\n      pop\n      jump\n        /* \"--CODEGEN--\":1427:2296   */\n    tag_66:\n      0x00\n      dup1\n      0x00\n      dup1\n      0x00\n      dup1\n        /* \"--CODEGEN--\":1622:1625   */\n      0x80\n        /* \"--CODEGEN--\":1610:1619   */\n      dup8\n        /* \"--CODEGEN--\":1601:1608   */\n      dup10\n        /* \"--CODEGEN--\":1597:1620   */\n      sub\n        /* \"--CODEGEN--\":1593:1626   */\n      slt\n        /* \"--CODEGEN--\":1590:1592   */\n      iszero\n      tag_329\n      jumpi\n        /* \"--CODEGEN--\":1639:1640   */\n      0x00\n        /* \"--CODEGEN--\":1636:1637   */\n      dup1\n        /* \"--CODEGEN--\":1629:1641   */\n      revert\n        /* \"--CODEGEN--\":1590:1592   */\n    tag_329:\n        /* \"--CODEGEN--\":1702:1703   */\n      0x00\n        /* \"--CODEGEN--\":1691:1700   */\n      dup8\n        /* \"--CODEGEN--\":1687:1704   */\n      add\n        /* \"--CODEGEN--\":1674:1705   */\n      calldataload\n        /* \"--CODEGEN--\":1725:1743   */\n      0xffffffffffffffff\n        /* \"--CODEGEN--\":1717:1723   */\n      dup2\n        /* \"--CODEGEN--\":1714:1744   */\n      gt\n        /* \"--CODEGEN--\":1711:1713   */\n      iszero\n      tag_330\n      jumpi\n        /* \"--CODEGEN--\":1757:1758   */\n      0x00\n        /* \"--CODEGEN--\":1754:1755   */\n      dup1\n        /* \"--CODEGEN--\":1747:1759   */\n      revert\n        /* \"--CODEGEN--\":1711:1713   */\n    tag_330:\n        /* \"--CODEGEN--\":1785:1850   */\n      tag_331\n        /* \"--CODEGEN--\":1842:1849   */\n      dup10\n        /* \"--CODEGEN--\":1833:1839   */\n      dup3\n        /* \"--CODEGEN--\":1822:1831   */\n      dup11\n        /* \"--CODEGEN--\":1818:1840   */\n      add\n        /* \"--CODEGEN--\":1785:1850   */\n      jump(tag_316)\n    tag_331:\n        /* \"--CODEGEN--\":1775:1850   */\n      swap7\n      pop\n      swap7\n      pop\n        /* \"--CODEGEN--\":1653:1856   */\n      pop\n        /* \"--CODEGEN--\":1915:1917   */\n      0x20\n        /* \"--CODEGEN--\":1904:1913   */\n      dup8\n        /* \"--CODEGEN--\":1900:1918   */\n      add\n        /* \"--CODEGEN--\":1887:1919   */\n      calldataload\n        /* \"--CODEGEN--\":1939:1957   */\n      0xffffffffffffffff\n        /* \"--CODEGEN--\":1931:1937   */\n      dup2\n        /* \"--CODEGEN--\":1928:1958   */\n      gt\n        /* \"--CODEGEN--\":1925:1927   */\n      iszero\n      tag_332\n      jumpi\n        /* \"--CODEGEN--\":1971:1972   */\n      0x00\n        /* \"--CODEGEN--\":1968:1969   */\n      dup1\n        /* \"--CODEGEN--\":1961:1973   */\n      revert\n        /* \"--CODEGEN--\":1925:1927   */\n    tag_332:\n        /* \"--CODEGEN--\":1999:2064   */\n      tag_333\n        /* \"--CODEGEN--\":2056:2063   */\n      dup10\n        /* \"--CODEGEN--\":2047:2053   */\n      dup3\n        /* \"--CODEGEN--\":2036:2045   */\n      dup11\n        /* \"--CODEGEN--\":2032:2054   */\n      add\n        /* \"--CODEGEN--\":1999:2064   */\n      jump(tag_316)\n    tag_333:\n        /* \"--CODEGEN--\":1989:2064   */\n      swap5\n      pop\n      swap5\n      pop\n        /* \"--CODEGEN--\":1866:2070   */\n      pop\n        /* \"--CODEGEN--\":2101:2103   */\n      0x40\n        /* \"--CODEGEN--\":2119:2172   */\n      tag_334\n        /* \"--CODEGEN--\":2164:2171   */\n      dup10\n        /* \"--CODEGEN--\":2155:2161   */\n      dup3\n        /* \"--CODEGEN--\":2144:2153   */\n      dup11\n        /* \"--CODEGEN--\":2140:2162   */\n      add\n        /* \"--CODEGEN--\":2119:2172   */\n      jump(tag_320)\n    tag_334:\n        /* \"--CODEGEN--\":2109:2172   */\n      swap3\n      pop\n        /* \"--CODEGEN--\":2080:2178   */\n      pop\n        /* \"--CODEGEN--\":2209:2211   */\n      0x60\n        /* \"--CODEGEN--\":2227:2280   */\n      tag_335\n        /* \"--CODEGEN--\":2272:2279   */\n      dup10\n        /* \"--CODEGEN--\":2263:2269   */\n      dup3\n        /* \"--CODEGEN--\":2252:2261   */\n      dup11\n        /* \"--CODEGEN--\":2248:2270   */\n      add\n        /* \"--CODEGEN--\":2227:2280   */\n      jump(tag_310)\n    tag_335:\n        /* \"--CODEGEN--\":2217:2280   */\n      swap2\n      pop\n        /* \"--CODEGEN--\":2188:2286   */\n      pop\n        /* \"--CODEGEN--\":1584:2296   */\n      swap3\n      swap6\n      pop\n      swap3\n      swap6\n      pop\n      swap3\n      swap6\n      jump\n        /* \"--CODEGEN--\":2303:2544   */\n    tag_48:\n      0x00\n        /* \"--CODEGEN--\":2407:2409   */\n      0x20\n        /* \"--CODEGEN--\":2395:2404   */\n      dup3\n        /* \"--CODEGEN--\":2386:2393   */\n      dup5\n        /* \"--CODEGEN--\":2382:2405   */\n      sub\n        /* \"--CODEGEN--\":2378:2410   */\n      slt\n        /* \"--CODEGEN--\":2375:2377   */\n      iszero\n      tag_336\n      jumpi\n        /* \"--CODEGEN--\":2423:2424   */\n      0x00\n        /* \"--CODEGEN--\":2420:2421   */\n      dup1\n        /* \"--CODEGEN--\":2413:2425   */\n      revert\n        /* \"--CODEGEN--\":2375:2377   */\n    tag_336:\n        /* \"--CODEGEN--\":2458:2459   */\n      0x00\n        /* \"--CODEGEN--\":2475:2528   */\n      tag_337\n        /* \"--CODEGEN--\":2520:2527   */\n      dup5\n        /* \"--CODEGEN--\":2511:2517   */\n      dup3\n        /* \"--CODEGEN--\":2500:2509   */\n      dup6\n        /* \"--CODEGEN--\":2496:2518   */\n      add\n        /* \"--CODEGEN--\":2475:2528   */\n      jump(tag_320)\n    tag_337:\n        /* \"--CODEGEN--\":2465:2528   */\n      swap2\n      pop\n        /* \"--CODEGEN--\":2437:2534   */\n      pop\n        /* \"--CODEGEN--\":2369:2544   */\n      swap3\n      swap2\n      pop\n      pop\n      jump\n        /* \"--CODEGEN--\":2551:2814   */\n    tag_125:\n      0x00\n        /* \"--CODEGEN--\":2666:2668   */\n      0x20\n        /* \"--CODEGEN--\":2654:2663   */\n      dup3\n        /* \"--CODEGEN--\":2645:2652   */\n      dup5\n        /* \"--CODEGEN--\":2641:2664   */\n      sub\n        /* \"--CODEGEN--\":2637:2669   */\n      slt\n        /* \"--CODEGEN--\":2634:2636   */\n      iszero\n      tag_338\n      jumpi\n        /* \"--CODEGEN--\":2682:2683   */\n      0x00\n        /* \"--CODEGEN--\":2679:2680   */\n      dup1\n        /* \"--CODEGEN--\":2672:2684   */\n      revert\n        /* \"--CODEGEN--\":2634:2636   */\n    tag_338:\n        /* \"--CODEGEN--\":2717:2718   */\n      0x00\n        /* \"--CODEGEN--\":2734:2798   */\n      tag_339\n        /* \"--CODEGEN--\":2790:2797   */\n      dup5\n        /* \"--CODEGEN--\":2781:2787   */\n      dup3\n        /* \"--CODEGEN--\":2770:2779   */\n      dup6\n        /* \"--CODEGEN--\":2766:2788   */\n      add\n        /* \"--CODEGEN--\":2734:2798   */\n      jump(tag_323)\n    tag_339:\n        /* \"--CODEGEN--\":2724:2798   */\n      swap2\n      pop\n        /* \"--CODEGEN--\":2696:2804   */\n      pop\n        /* \"--CODEGEN--\":2628:2814   */\n      swap3\n      swap2\n      pop\n      pop\n      jump\n        /* \"--CODEGEN--\":2821:3187   */\n    tag_43:\n      0x00\n      dup1\n        /* \"--CODEGEN--\":2942:2944   */\n      0x40\n        /* \"--CODEGEN--\":2930:2939   */\n      dup4\n        /* \"--CODEGEN--\":2921:2928   */\n      dup6\n        /* \"--CODEGEN--\":2917:2940   */\n      sub\n        /* \"--CODEGEN--\":2913:2945   */\n      slt\n        /* \"--CODEGEN--\":2910:2912   */\n      iszero\n      tag_340\n      jumpi\n        /* \"--CODEGEN--\":2958:2959   */\n      0x00\n        /* \"--CODEGEN--\":2955:2956   */\n      dup1\n        /* \"--CODEGEN--\":2948:2960   */\n      revert\n        /* \"--CODEGEN--\":2910:2912   */\n    tag_340:\n        /* \"--CODEGEN--\":2993:2994   */\n      0x00\n        /* \"--CODEGEN--\":3010:3063   */\n      tag_341\n        /* \"--CODEGEN--\":3055:3062   */\n      dup6\n        /* \"--CODEGEN--\":3046:3052   */\n      dup3\n        /* \"--CODEGEN--\":3035:3044   */\n      dup7\n        /* \"--CODEGEN--\":3031:3053   */\n      add\n        /* \"--CODEGEN--\":3010:3063   */\n      jump(tag_320)\n    tag_341:\n        /* \"--CODEGEN--\":3000:3063   */\n      swap3\n      pop\n        /* \"--CODEGEN--\":2972:3069   */\n      pop\n        /* \"--CODEGEN--\":3100:3102   */\n      0x20\n        /* \"--CODEGEN--\":3118:3171   */\n      tag_342\n        /* \"--CODEGEN--\":3163:3170   */\n      dup6\n        /* \"--CODEGEN--\":3154:3160   */\n      dup3\n        /* \"--CODEGEN--\":3143:3152   */\n      dup7\n        /* \"--CODEGEN--\":3139:3161   */\n      add\n        /* \"--CODEGEN--\":3118:3171   */\n      jump(tag_320)\n    tag_342:\n        /* \"--CODEGEN--\":3108:3171   */\n      swap2\n      pop\n        /* \"--CODEGEN--\":3079:3177   */\n      pop\n        /* \"--CODEGEN--\":2904:3187   */\n      swap3\n      pop\n      swap3\n      swap1\n      pop\n      jump\n        /* \"--CODEGEN--\":3195:3368   */\n    tag_343:\n      0x00\n        /* \"--CODEGEN--\":3282:3328   */\n      tag_344\n        /* \"--CODEGEN--\":3324:3327   */\n      dup4\n        /* \"--CODEGEN--\":3316:3322   */\n      dup4\n        /* \"--CODEGEN--\":3282:3328   */\n      jump(tag_345)\n    tag_344:\n        /* \"--CODEGEN--\":3357:3361   */\n      0x20\n        /* \"--CODEGEN--\":3352:3355   */\n      dup4\n        /* \"--CODEGEN--\":3348:3362   */\n      add\n        /* \"--CODEGEN--\":3334:3362   */\n      swap1\n      pop\n        /* \"--CODEGEN--\":3275:3368   */\n      swap3\n      swap2\n      pop\n      pop\n      jump\n        /* \"--CODEGEN--\":3376:3518   */\n    tag_346:\n        /* \"--CODEGEN--\":3467:3512   */\n      tag_347\n        /* \"--CODEGEN--\":3506:3511   */\n      dup2\n        /* \"--CODEGEN--\":3467:3512   */\n      jump(tag_348)\n    tag_347:\n        /* \"--CODEGEN--\":3462:3465   */\n      dup3\n        /* \"--CODEGEN--\":3455:3513   */\n      mstore\n        /* \"--CODEGEN--\":3449:3518   */\n      pop\n      pop\n      jump\n        /* \"--CODEGEN--\":3525:3638   */\n    tag_349:\n        /* \"--CODEGEN--\":3608:3632   */\n      tag_350\n        /* \"--CODEGEN--\":3626:3631   */\n      dup2\n        /* \"--CODEGEN--\":3608:3632   */\n      jump(tag_351)\n    tag_350:\n        /* \"--CODEGEN--\":3603:3606   */\n      dup3\n        /* \"--CODEGEN--\":3596:3633   */\n      mstore\n        /* \"--CODEGEN--\":3590:3638   */\n      pop\n      pop\n      jump\n        /* \"--CODEGEN--\":3676:4366   */\n    tag_352:\n      0x00\n        /* \"--CODEGEN--\":3821:3875   */\n      tag_353\n        /* \"--CODEGEN--\":3869:3874   */\n      dup3\n        /* \"--CODEGEN--\":3821:3875   */\n      jump(tag_354)\n    tag_353:\n        /* \"--CODEGEN--\":3888:3974   */\n      tag_355\n        /* \"--CODEGEN--\":3967:3973   */\n      dup2\n        /* \"--CODEGEN--\":3962:3965   */\n      dup6\n        /* \"--CODEGEN--\":3888:3974   */\n      jump(tag_356)\n    tag_355:\n        /* \"--CODEGEN--\":3881:3974   */\n      swap4\n      pop\n        /* \"--CODEGEN--\":3995:4051   */\n      tag_357\n        /* \"--CODEGEN--\":4045:4050   */\n      dup4\n        /* \"--CODEGEN--\":3995:4051   */\n      jump(tag_358)\n    tag_357:\n        /* \"--CODEGEN--\":4071:4078   */\n      dup1\n        /* \"--CODEGEN--\":4099:4100   */\n      0x00\n        /* \"--CODEGEN--\":4084:4344   */\n    tag_359:\n        /* \"--CODEGEN--\":4109:4115   */\n      dup4\n        /* \"--CODEGEN--\":4106:4107   */\n      dup2\n        /* \"--CODEGEN--\":4103:4116   */\n      lt\n        /* \"--CODEGEN--\":4084:4344   */\n      iszero\n      tag_361\n      jumpi\n        /* \"--CODEGEN--\":4176:4182   */\n      dup2\n        /* \"--CODEGEN--\":4170:4183   */\n      mload\n        /* \"--CODEGEN--\":4197:4260   */\n      tag_362\n        /* \"--CODEGEN--\":4256:4259   */\n      dup9\n        /* \"--CODEGEN--\":4241:4254   */\n      dup3\n        /* \"--CODEGEN--\":4197:4260   */\n      jump(tag_343)\n    tag_362:\n        /* \"--CODEGEN--\":4190:4260   */\n      swap8\n      pop\n        /* \"--CODEGEN--\":4277:4337   */\n      tag_363\n        /* \"--CODEGEN--\":4330:4336   */\n      dup4\n        /* \"--CODEGEN--\":4277:4337   */\n      jump(tag_364)\n    tag_363:\n        /* \"--CODEGEN--\":4267:4337   */\n      swap3\n      pop\n        /* \"--CODEGEN--\":4141:4344   */\n      pop\n        /* \"--CODEGEN--\":4131:4132   */\n      0x01\n        /* \"--CODEGEN--\":4128:4129   */\n      dup2\n        /* \"--CODEGEN--\":4124:4133   */\n      add\n        /* \"--CODEGEN--\":4119:4133   */\n      swap1\n      pop\n        /* \"--CODEGEN--\":4084:4344   */\n      jump(tag_359)\n    tag_361:\n        /* \"--CODEGEN--\":4088:4102   */\n      pop\n        /* \"--CODEGEN--\":4357:4360   */\n      dup6\n        /* \"--CODEGEN--\":4350:4360   */\n      swap4\n      pop\n        /* \"--CODEGEN--\":3800:4366   */\n      pop\n      pop\n      pop\n      swap3\n      swap2\n      pop\n      pop\n      jump\n        /* \"--CODEGEN--\":4374:4478   */\n    tag_365:\n        /* \"--CODEGEN--\":4451:4472   */\n      tag_366\n        /* \"--CODEGEN--\":4466:4471   */\n      dup2\n        /* \"--CODEGEN--\":4451:4472   */\n      jump(tag_367)\n    tag_366:\n        /* \"--CODEGEN--\":4446:4449   */\n      dup3\n        /* \"--CODEGEN--\":4439:4473   */\n      mstore\n        /* \"--CODEGEN--\":4433:4478   */\n      pop\n      pop\n      jump\n        /* \"--CODEGEN--\":4485:4663   */\n    tag_368:\n        /* \"--CODEGEN--\":4594:4657   */\n      tag_369\n        /* \"--CODEGEN--\":4651:4656   */\n      dup2\n        /* \"--CODEGEN--\":4594:4657   */\n      jump(tag_370)\n    tag_369:\n        /* \"--CODEGEN--\":4589:4592   */\n      dup3\n        /* \"--CODEGEN--\":4582:4658   */\n      mstore\n        /* \"--CODEGEN--\":4576:4663   */\n      pop\n      pop\n      jump\n        /* \"--CODEGEN--\":4670:4830   */\n    tag_371:\n        /* \"--CODEGEN--\":4770:4824   */\n      tag_372\n        /* \"--CODEGEN--\":4818:4823   */\n      dup2\n        /* \"--CODEGEN--\":4770:4824   */\n      jump(tag_373)\n    tag_372:\n        /* \"--CODEGEN--\":4765:4768   */\n      dup3\n        /* \"--CODEGEN--\":4758:4825   */\n      mstore\n        /* \"--CODEGEN--\":4752:4830   */\n      pop\n      pop\n      jump\n        /* \"--CODEGEN--\":4837:5184   */\n    tag_374:\n      0x00\n        /* \"--CODEGEN--\":4949:4988   */\n      tag_375\n        /* \"--CODEGEN--\":4982:4987   */\n      dup3\n        /* \"--CODEGEN--\":4949:4988   */\n      jump(tag_376)\n    tag_375:\n        /* \"--CODEGEN--\":5000:5071   */\n      tag_377\n        /* \"--CODEGEN--\":5064:5070   */\n      dup2\n        /* \"--CODEGEN--\":5059:5062   */\n      dup6\n        /* \"--CODEGEN--\":5000:5071   */\n      jump(tag_378)\n    tag_377:\n        /* \"--CODEGEN--\":4993:5071   */\n      swap4\n      pop\n        /* \"--CODEGEN--\":5076:5128   */\n      tag_379\n        /* \"--CODEGEN--\":5121:5127   */\n      dup2\n        /* \"--CODEGEN--\":5116:5119   */\n      dup6\n        /* \"--CODEGEN--\":5109:5113   */\n      0x20\n        /* \"--CODEGEN--\":5102:5107   */\n      dup7\n        /* \"--CODEGEN--\":5098:5114   */\n      add\n        /* \"--CODEGEN--\":5076:5128   */\n      jump(tag_380)\n    tag_379:\n        /* \"--CODEGEN--\":5149:5178   */\n      tag_381\n        /* \"--CODEGEN--\":5171:5177   */\n      dup2\n        /* \"--CODEGEN--\":5149:5178   */\n      jump(tag_382)\n    tag_381:\n        /* \"--CODEGEN--\":5144:5147   */\n      dup5\n        /* \"--CODEGEN--\":5140:5179   */\n      add\n        /* \"--CODEGEN--\":5133:5179   */\n      swap2\n      pop\n        /* \"--CODEGEN--\":4929:5184   */\n      pop\n      swap3\n      swap2\n      pop\n      pop\n      jump\n        /* \"--CODEGEN--\":5192:5509   */\n    tag_383:\n      0x00\n        /* \"--CODEGEN--\":5352:5419   */\n      tag_384\n        /* \"--CODEGEN--\":5416:5418   */\n      0x11\n        /* \"--CODEGEN--\":5411:5414   */\n      dup4\n        /* \"--CODEGEN--\":5352:5419   */\n      jump(tag_378)\n    tag_384:\n        /* \"--CODEGEN--\":5345:5419   */\n      swap2\n      pop\n        /* \"--CODEGEN--\":5452:5471   */\n      0x4e6f742061207061727469636970616e74000000000000000000000000000000\n        /* \"--CODEGEN--\":5448:5449   */\n      0x00\n        /* \"--CODEGEN--\":5443:5446   */\n      dup4\n        /* \"--CODEGEN--\":5439:5450   */\n      add\n        /* \"--CODEGEN--\":5432:5472   */\n      mstore\n        /* \"--CODEGEN--\":5500:5502   */\n      0x20\n        /* \"--CODEGEN--\":5495:5498   */\n      dup3\n        /* \"--CODEGEN--\":5491:5503   */\n      add\n        /* \"--CODEGEN--\":5484:5503   */\n      swap1\n      pop\n        /* \"--CODEGEN--\":5338:5509   */\n      swap2\n      swap1\n      pop\n      jump\n        /* \"--CODEGEN--\":5518:5830   */\n    tag_385:\n      0x00\n        /* \"--CODEGEN--\":5678:5745   */\n      tag_386\n        /* \"--CODEGEN--\":5742:5744   */\n      0x0c\n        /* \"--CODEGEN--\":5737:5740   */\n      dup4\n        /* \"--CODEGEN--\":5678:5745   */\n      jump(tag_378)\n    tag_386:\n        /* \"--CODEGEN--\":5671:5745   */\n      swap2\n      pop\n        /* \"--CODEGEN--\":5778:5792   */\n      0x556e617574686f72697a65640000000000000000000000000000000000000000\n        /* \"--CODEGEN--\":5774:5775   */\n      0x00\n        /* \"--CODEGEN--\":5769:5772   */\n      dup4\n        /* \"--CODEGEN--\":5765:5776   */\n      add\n        /* \"--CODEGEN--\":5758:5793   */\n      mstore\n        /* \"--CODEGEN--\":5821:5823   */\n      0x20\n        /* \"--CODEGEN--\":5816:5819   */\n      dup3\n        /* \"--CODEGEN--\":5812:5824   */\n      add\n        /* \"--CODEGEN--\":5805:5824   */\n      swap1\n      pop\n        /* \"--CODEGEN--\":5664:5830   */\n      swap2\n      swap1\n      pop\n      jump\n        /* \"--CODEGEN--\":5839:6153   */\n    tag_387:\n      0x00\n        /* \"--CODEGEN--\":5999:6066   */\n      tag_388\n        /* \"--CODEGEN--\":6063:6065   */\n      0x0e\n        /* \"--CODEGEN--\":6058:6061   */\n      dup4\n        /* \"--CODEGEN--\":5999:6066   */\n      jump(tag_378)\n    tag_388:\n        /* \"--CODEGEN--\":5992:6066   */\n      swap2\n      pop\n        /* \"--CODEGEN--\":6099:6115   */\n      0x496e76616c696420616d6f756e74000000000000000000000000000000000000\n        /* \"--CODEGEN--\":6095:6096   */\n      0x00\n        /* \"--CODEGEN--\":6090:6093   */\n      dup4\n        /* \"--CODEGEN--\":6086:6097   */\n      add\n        /* \"--CODEGEN--\":6079:6116   */\n      mstore\n        /* \"--CODEGEN--\":6144:6146   */\n      0x20\n        /* \"--CODEGEN--\":6139:6142   */\n      dup3\n        /* \"--CODEGEN--\":6135:6147   */\n      add\n        /* \"--CODEGEN--\":6128:6147   */\n      swap1\n      pop\n        /* \"--CODEGEN--\":5985:6153   */\n      swap2\n      swap1\n      pop\n      jump\n        /* \"--CODEGEN--\":6162:6477   */\n    tag_389:\n      0x00\n        /* \"--CODEGEN--\":6322:6389   */\n      tag_390\n        /* \"--CODEGEN--\":6386:6388   */\n      0x0f\n        /* \"--CODEGEN--\":6381:6384   */\n      dup4\n        /* \"--CODEGEN--\":6322:6389   */\n      jump(tag_378)\n    tag_390:\n        /* \"--CODEGEN--\":6315:6389   */\n      swap2\n      pop\n        /* \"--CODEGEN--\":6422:6439   */\n      0x566f74696e67206e6f74206f70656e0000000000000000000000000000000000\n        /* \"--CODEGEN--\":6418:6419   */\n      0x00\n        /* \"--CODEGEN--\":6413:6416   */\n      dup4\n        /* \"--CODEGEN--\":6409:6420   */\n      add\n        /* \"--CODEGEN--\":6402:6440   */\n      mstore\n        /* \"--CODEGEN--\":6468:6470   */\n      0x20\n        /* \"--CODEGEN--\":6463:6466   */\n      dup3\n        /* \"--CODEGEN--\":6459:6471   */\n      add\n        /* \"--CODEGEN--\":6452:6471   */\n      swap1\n      pop\n        /* \"--CODEGEN--\":6308:6477   */\n      swap2\n      swap1\n      pop\n      jump\n        /* \"--CODEGEN--\":6486:6809   */\n    tag_391:\n      0x00\n        /* \"--CODEGEN--\":6646:6713   */\n      tag_392\n        /* \"--CODEGEN--\":6710:6712   */\n      0x17\n        /* \"--CODEGEN--\":6705:6708   */\n      dup4\n        /* \"--CODEGEN--\":6646:6713   */\n      jump(tag_378)\n    tag_392:\n        /* \"--CODEGEN--\":6639:6713   */\n      swap2\n      pop\n        /* \"--CODEGEN--\":6746:6771   */\n      0x496e76616c696420707572636861736520616d6f756e74000000000000000000\n        /* \"--CODEGEN--\":6742:6743   */\n      0x00\n        /* \"--CODEGEN--\":6737:6740   */\n      dup4\n        /* \"--CODEGEN--\":6733:6744   */\n      add\n        /* \"--CODEGEN--\":6726:6772   */\n      mstore\n        /* \"--CODEGEN--\":6800:6802   */\n      0x20\n        /* \"--CODEGEN--\":6795:6798   */\n      dup3\n        /* \"--CODEGEN--\":6791:6803   */\n      add\n        /* \"--CODEGEN--\":6784:6803   */\n      swap1\n      pop\n        /* \"--CODEGEN--\":6632:6809   */\n      swap2\n      swap1\n      pop\n      jump\n        /* \"--CODEGEN--\":6817:6920   */\n    tag_345:\n        /* \"--CODEGEN--\":6890:6914   */\n      tag_393\n        /* \"--CODEGEN--\":6908:6913   */\n      dup2\n        /* \"--CODEGEN--\":6890:6914   */\n      jump(tag_394)\n    tag_393:\n        /* \"--CODEGEN--\":6885:6888   */\n      dup3\n        /* \"--CODEGEN--\":6878:6915   */\n      mstore\n        /* \"--CODEGEN--\":6872:6920   */\n      pop\n      pop\n      jump\n        /* \"--CODEGEN--\":6927:7040   */\n    tag_395:\n        /* \"--CODEGEN--\":7010:7034   */\n      tag_396\n        /* \"--CODEGEN--\":7028:7033   */\n      dup2\n        /* \"--CODEGEN--\":7010:7034   */\n      jump(tag_394)\n    tag_396:\n        /* \"--CODEGEN--\":7005:7008   */\n      dup3\n        /* \"--CODEGEN--\":6998:7035   */\n      mstore\n        /* \"--CODEGEN--\":6992:7040   */\n      pop\n      pop\n      jump\n        /* \"--CODEGEN--\":7047:7276   */\n    tag_121:\n      0x00\n        /* \"--CODEGEN--\":7173:7175   */\n      0x20\n        /* \"--CODEGEN--\":7162:7171   */\n      dup3\n        /* \"--CODEGEN--\":7158:7176   */\n      add\n        /* \"--CODEGEN--\":7150:7176   */\n      swap1\n      pop\n        /* \"--CODEGEN--\":7187:7266   */\n      tag_397\n        /* \"--CODEGEN--\":7263:7264   */\n      0x00\n        /* \"--CODEGEN--\":7252:7261   */\n      dup4\n        /* \"--CODEGEN--\":7248:7265   */\n      add\n        /* \"--CODEGEN--\":7239:7245   */\n      dup5\n        /* \"--CODEGEN--\":7187:7266   */\n      jump(tag_346)\n    tag_397:\n        /* \"--CODEGEN--\":7144:7276   */\n      swap3\n      swap2\n      pop\n      pop\n      jump\n        /* \"--CODEGEN--\":7283:7623   */\n    tag_136:\n      0x00\n        /* \"--CODEGEN--\":7437:7439   */\n      0x40\n        /* \"--CODEGEN--\":7426:7435   */\n      dup3\n        /* \"--CODEGEN--\":7422:7440   */\n      add\n        /* \"--CODEGEN--\":7414:7440   */\n      swap1\n      pop\n        /* \"--CODEGEN--\":7451:7530   */\n      tag_398\n        /* \"--CODEGEN--\":7527:7528   */\n      0x00\n        /* \"--CODEGEN--\":7516:7525   */\n      dup4\n        /* \"--CODEGEN--\":7512:7529   */\n      add\n        /* \"--CODEGEN--\":7503:7509   */\n      dup6\n        /* \"--CODEGEN--\":7451:7530   */\n      jump(tag_346)\n    tag_398:\n        /* \"--CODEGEN--\":7541:7613   */\n      tag_399\n        /* \"--CODEGEN--\":7609:7611   */\n      0x20\n        /* \"--CODEGEN--\":7598:7607   */\n      dup4\n        /* \"--CODEGEN--\":7594:7612   */\n      add\n        /* \"--CODEGEN--\":7585:7591   */\n      dup5\n        /* \"--CODEGEN--\":7541:7613   */\n      jump(tag_395)\n    tag_399:\n        /* \"--CODEGEN--\":7408:7623   */\n      swap4\n      swap3\n      pop\n      pop\n      pop\n      jump\n        /* \"--CODEGEN--\":7630:7954   */\n    tag_289:\n      0x00\n        /* \"--CODEGEN--\":7776:7778   */\n      0x40\n        /* \"--CODEGEN--\":7765:7774   */\n      dup3\n        /* \"--CODEGEN--\":7761:7779   */\n      add\n        /* \"--CODEGEN--\":7753:7779   */\n      swap1\n      pop\n        /* \"--CODEGEN--\":7790:7861   */\n      tag_400\n        /* \"--CODEGEN--\":7858:7859   */\n      0x00\n        /* \"--CODEGEN--\":7847:7856   */\n      dup4\n        /* \"--CODEGEN--\":7843:7860   */\n      add\n        /* \"--CODEGEN--\":7834:7840   */\n      dup6\n        /* \"--CODEGEN--\":7790:7861   */\n      jump(tag_349)\n    tag_400:\n        /* \"--CODEGEN--\":7872:7944   */\n      tag_401\n        /* \"--CODEGEN--\":7940:7942   */\n      0x20\n        /* \"--CODEGEN--\":7929:7938   */\n      dup4\n        /* \"--CODEGEN--\":7925:7943   */\n      add\n        /* \"--CODEGEN--\":7916:7922   */\n      dup5\n        /* \"--CODEGEN--\":7872:7944   */\n      jump(tag_395)\n    tag_401:\n        /* \"--CODEGEN--\":7747:7954   */\n      swap4\n      swap3\n      pop\n      pop\n      pop\n      jump\n        /* \"--CODEGEN--\":7961:8322   */\n    tag_34:\n      0x00\n        /* \"--CODEGEN--\":8129:8131   */\n      0x20\n        /* \"--CODEGEN--\":8118:8127   */\n      dup3\n        /* \"--CODEGEN--\":8114:8132   */\n      add\n        /* \"--CODEGEN--\":8106:8132   */\n      swap1\n      pop\n        /* \"--CODEGEN--\":8179:8188   */\n      dup2\n        /* \"--CODEGEN--\":8173:8177   */\n      dup2\n        /* \"--CODEGEN--\":8169:8189   */\n      sub\n        /* \"--CODEGEN--\":8165:8166   */\n      0x00\n        /* \"--CODEGEN--\":8154:8163   */\n      dup4\n        /* \"--CODEGEN--\":8150:8167   */\n      add\n        /* \"--CODEGEN--\":8143:8190   */\n      mstore\n        /* \"--CODEGEN--\":8204:8312   */\n      tag_402\n        /* \"--CODEGEN--\":8307:8311   */\n      dup2\n        /* \"--CODEGEN--\":8298:8304   */\n      dup5\n        /* \"--CODEGEN--\":8204:8312   */\n      jump(tag_352)\n    tag_402:\n        /* \"--CODEGEN--\":8196:8312   */\n      swap1\n      pop\n        /* \"--CODEGEN--\":8100:8322   */\n      swap3\n      swap2\n      pop\n      pop\n      jump\n        /* \"--CODEGEN--\":8329:8530   */\n    tag_29:\n      0x00\n        /* \"--CODEGEN--\":8441:8443   */\n      0x20\n        /* \"--CODEGEN--\":8430:8439   */\n      dup3\n        /* \"--CODEGEN--\":8426:8444   */\n      add\n        /* \"--CODEGEN--\":8418:8444   */\n      swap1\n      pop\n        /* \"--CODEGEN--\":8455:8520   */\n      tag_403\n        /* \"--CODEGEN--\":8517:8518   */\n      0x00\n        /* \"--CODEGEN--\":8506:8515   */\n      dup4\n        /* \"--CODEGEN--\":8502:8519   */\n      add\n        /* \"--CODEGEN--\":8493:8499   */\n      dup5\n        /* \"--CODEGEN--\":8455:8520   */\n      jump(tag_365)\n    tag_403:\n        /* \"--CODEGEN--\":8412:8530   */\n      swap3\n      swap2\n      pop\n      pop\n      jump\n        /* \"--CODEGEN--\":8537:8784   */\n    tag_39:\n      0x00\n        /* \"--CODEGEN--\":8672:8674   */\n      0x20\n        /* \"--CODEGEN--\":8661:8670   */\n      dup3\n        /* \"--CODEGEN--\":8657:8675   */\n      add\n        /* \"--CODEGEN--\":8649:8675   */\n      swap1\n      pop\n        /* \"--CODEGEN--\":8686:8774   */\n      tag_404\n        /* \"--CODEGEN--\":8771:8772   */\n      0x00\n        /* \"--CODEGEN--\":8760:8769   */\n      dup4\n        /* \"--CODEGEN--\":8756:8773   */\n      add\n        /* \"--CODEGEN--\":8747:8753   */\n      dup5\n        /* \"--CODEGEN--\":8686:8774   */\n      jump(tag_371)\n    tag_404:\n        /* \"--CODEGEN--\":8643:8784   */\n      swap3\n      swap2\n      pop\n      pop\n      jump\n        /* \"--CODEGEN--\":8791:9454   */\n    tag_80:\n      0x00\n        /* \"--CODEGEN--\":9031:9033   */\n      0x60\n        /* \"--CODEGEN--\":9020:9029   */\n      dup3\n        /* \"--CODEGEN--\":9016:9034   */\n      add\n        /* \"--CODEGEN--\":9008:9034   */\n      swap1\n      pop\n        /* \"--CODEGEN--\":9081:9090   */\n      dup2\n        /* \"--CODEGEN--\":9075:9079   */\n      dup2\n        /* \"--CODEGEN--\":9071:9091   */\n      sub\n        /* \"--CODEGEN--\":9067:9068   */\n      0x00\n        /* \"--CODEGEN--\":9056:9065   */\n      dup4\n        /* \"--CODEGEN--\":9052:9069   */\n      add\n        /* \"--CODEGEN--\":9045:9092   */\n      mstore\n        /* \"--CODEGEN--\":9106:9184   */\n      tag_405\n        /* \"--CODEGEN--\":9179:9183   */\n      dup2\n        /* \"--CODEGEN--\":9170:9176   */\n      dup7\n        /* \"--CODEGEN--\":9106:9184   */\n      jump(tag_374)\n    tag_405:\n        /* \"--CODEGEN--\":9098:9184   */\n      swap1\n      pop\n        /* \"--CODEGEN--\":9232:9241   */\n      dup2\n        /* \"--CODEGEN--\":9226:9230   */\n      dup2\n        /* \"--CODEGEN--\":9222:9242   */\n      sub\n        /* \"--CODEGEN--\":9217:9219   */\n      0x20\n        /* \"--CODEGEN--\":9206:9215   */\n      dup4\n        /* \"--CODEGEN--\":9202:9220   */\n      add\n        /* \"--CODEGEN--\":9195:9243   */\n      mstore\n        /* \"--CODEGEN--\":9257:9335   */\n      tag_406\n        /* \"--CODEGEN--\":9330:9334   */\n      dup2\n        /* \"--CODEGEN--\":9321:9327   */\n      dup6\n        /* \"--CODEGEN--\":9257:9335   */\n      jump(tag_374)\n    tag_406:\n        /* \"--CODEGEN--\":9249:9335   */\n      swap1\n      pop\n        /* \"--CODEGEN--\":9346:9444   */\n      tag_407\n        /* \"--CODEGEN--\":9440:9442   */\n      0x40\n        /* \"--CODEGEN--\":9429:9438   */\n      dup4\n        /* \"--CODEGEN--\":9425:9443   */\n      add\n        /* \"--CODEGEN--\":9416:9422   */\n      dup5\n        /* \"--CODEGEN--\":9346:9444   */\n      jump(tag_368)\n    tag_407:\n        /* \"--CODEGEN--\":9002:9454   */\n      swap5\n      swap4\n      pop\n      pop\n      pop\n      pop\n      jump\n        /* \"--CODEGEN--\":9461:9868   */\n    tag_108:\n      0x00\n        /* \"--CODEGEN--\":9652:9654   */\n      0x20\n        /* \"--CODEGEN--\":9641:9650   */\n      dup3\n        /* \"--CODEGEN--\":9637:9655   */\n      add\n        /* \"--CODEGEN--\":9629:9655   */\n      swap1\n      pop\n        /* \"--CODEGEN--\":9702:9711   */\n      dup2\n        /* \"--CODEGEN--\":9696:9700   */\n      dup2\n        /* \"--CODEGEN--\":9692:9712   */\n      sub\n        /* \"--CODEGEN--\":9688:9689   */\n      0x00\n        /* \"--CODEGEN--\":9677:9686   */\n      dup4\n        /* \"--CODEGEN--\":9673:9690   */\n      add\n        /* \"--CODEGEN--\":9666:9713   */\n      mstore\n        /* \"--CODEGEN--\":9727:9858   */\n      tag_408\n        /* \"--CODEGEN--\":9853:9857   */\n      dup2\n        /* \"--CODEGEN--\":9727:9858   */\n      jump(tag_383)\n    tag_408:\n        /* \"--CODEGEN--\":9719:9858   */\n      swap1\n      pop\n        /* \"--CODEGEN--\":9623:9868   */\n      swap2\n      swap1\n      pop\n      jump\n        /* \"--CODEGEN--\":9875:10282   */\n    tag_181:\n      0x00\n        /* \"--CODEGEN--\":10066:10068   */\n      0x20\n        /* \"--CODEGEN--\":10055:10064   */\n      dup3\n        /* \"--CODEGEN--\":10051:10069   */\n      add\n        /* \"--CODEGEN--\":10043:10069   */\n      swap1\n      pop\n        /* \"--CODEGEN--\":10116:10125   */\n      dup2\n        /* \"--CODEGEN--\":10110:10114   */\n      dup2\n        /* \"--CODEGEN--\":10106:10126   */\n      sub\n        /* \"--CODEGEN--\":10102:10103   */\n      0x00\n        /* \"--CODEGEN--\":10091:10100   */\n      dup4\n        /* \"--CODEGEN--\":10087:10104   */\n      add\n        /* \"--CODEGEN--\":10080:10127   */\n      mstore\n        /* \"--CODEGEN--\":10141:10272   */\n      tag_409\n        /* \"--CODEGEN--\":10267:10271   */\n      dup2\n        /* \"--CODEGEN--\":10141:10272   */\n      jump(tag_385)\n    tag_409:\n        /* \"--CODEGEN--\":10133:10272   */\n      swap1\n      pop\n        /* \"--CODEGEN--\":10037:10282   */\n      swap2\n      swap1\n      pop\n      jump\n        /* \"--CODEGEN--\":10289:10696   */\n    tag_128:\n      0x00\n        /* \"--CODEGEN--\":10480:10482   */\n      0x20\n        /* \"--CODEGEN--\":10469:10478   */\n      dup3\n        /* \"--CODEGEN--\":10465:10483   */\n      add\n        /* \"--CODEGEN--\":10457:10483   */\n      swap1\n      pop\n        /* \"--CODEGEN--\":10530:10539   */\n      dup2\n        /* \"--CODEGEN--\":10524:10528   */\n      dup2\n        /* \"--CODEGEN--\":10520:10540   */\n      sub\n        /* \"--CODEGEN--\":10516:10517   */\n      0x00\n        /* \"--CODEGEN--\":10505:10514   */\n      dup4\n        /* \"--CODEGEN--\":10501:10518   */\n      add\n        /* \"--CODEGEN--\":10494:10541   */\n      mstore\n        /* \"--CODEGEN--\":10555:10686   */\n      tag_410\n        /* \"--CODEGEN--\":10681:10685   */\n      dup2\n        /* \"--CODEGEN--\":10555:10686   */\n      jump(tag_387)\n    tag_410:\n        /* \"--CODEGEN--\":10547:10686   */\n      swap1\n      pop\n        /* \"--CODEGEN--\":10451:10696   */\n      swap2\n      swap1\n      pop\n      jump\n        /* \"--CODEGEN--\":10703:11110   */\n    tag_102:\n      0x00\n        /* \"--CODEGEN--\":10894:10896   */\n      0x20\n        /* \"--CODEGEN--\":10883:10892   */\n      dup3\n        /* \"--CODEGEN--\":10879:10897   */\n      add\n        /* \"--CODEGEN--\":10871:10897   */\n      swap1\n      pop\n        /* \"--CODEGEN--\":10944:10953   */\n      dup2\n        /* \"--CODEGEN--\":10938:10942   */\n      dup2\n        /* \"--CODEGEN--\":10934:10954   */\n      sub\n        /* \"--CODEGEN--\":10930:10931   */\n      0x00\n        /* \"--CODEGEN--\":10919:10928   */\n      dup4\n        /* \"--CODEGEN--\":10915:10932   */\n      add\n        /* \"--CODEGEN--\":10908:10955   */\n      mstore\n        /* \"--CODEGEN--\":10969:11100   */\n      tag_411\n        /* \"--CODEGEN--\":11095:11099   */\n      dup2\n        /* \"--CODEGEN--\":10969:11100   */\n      jump(tag_389)\n    tag_411:\n        /* \"--CODEGEN--\":10961:11100   */\n      swap1\n      pop\n        /* \"--CODEGEN--\":10865:11110   */\n      swap2\n      swap1\n      pop\n      jump\n        /* \"--CODEGEN--\":11117:11524   */\n    tag_203:\n      0x00\n        /* \"--CODEGEN--\":11308:11310   */\n      0x20\n        /* \"--CODEGEN--\":11297:11306   */\n      dup3\n        /* \"--CODEGEN--\":11293:11311   */\n      add\n        /* \"--CODEGEN--\":11285:11311   */\n      swap1\n      pop\n        /* \"--CODEGEN--\":11358:11367   */\n      dup2\n        /* \"--CODEGEN--\":11352:11356   */\n      dup2\n        /* \"--CODEGEN--\":11348:11368   */\n      sub\n        /* \"--CODEGEN--\":11344:11345   */\n      0x00\n        /* \"--CODEGEN--\":11333:11342   */\n      dup4\n        /* \"--CODEGEN--\":11329:11346   */\n      add\n        /* \"--CODEGEN--\":11322:11369   */\n      mstore\n        /* \"--CODEGEN--\":11383:11514   */\n      tag_412\n        /* \"--CODEGEN--\":11509:11513   */\n      dup2\n        /* \"--CODEGEN--\":11383:11514   */\n      jump(tag_391)\n    tag_412:\n        /* \"--CODEGEN--\":11375:11514   */\n      swap1\n      pop\n        /* \"--CODEGEN--\":11279:11524   */\n      swap2\n      swap1\n      pop\n      jump\n        /* \"--CODEGEN--\":11531:11744   */\n    tag_58:\n      0x00\n        /* \"--CODEGEN--\":11649:11651   */\n      0x20\n        /* \"--CODEGEN--\":11638:11647   */\n      dup3\n        /* \"--CODEGEN--\":11634:11652   */\n      add\n        /* \"--CODEGEN--\":11626:11652   */\n      swap1\n      pop\n        /* \"--CODEGEN--\":11663:11734   */\n      tag_413\n        /* \"--CODEGEN--\":11731:11732   */\n      0x00\n        /* \"--CODEGEN--\":11720:11729   */\n      dup4\n        /* \"--CODEGEN--\":11716:11733   */\n      add\n        /* \"--CODEGEN--\":11707:11713   */\n      dup5\n        /* \"--CODEGEN--\":11663:11734   */\n      jump(tag_395)\n    tag_413:\n        /* \"--CODEGEN--\":11620:11744   */\n      swap3\n      swap2\n      pop\n      pop\n      jump\n        /* \"--CODEGEN--\":11751:12186   */\n    tag_293:\n      0x00\n        /* \"--CODEGEN--\":11925:11927   */\n      0x60\n        /* \"--CODEGEN--\":11914:11923   */\n      dup3\n        /* \"--CODEGEN--\":11910:11928   */\n      add\n        /* \"--CODEGEN--\":11902:11928   */\n      swap1\n      pop\n        /* \"--CODEGEN--\":11939:12010   */\n      tag_414\n        /* \"--CODEGEN--\":12007:12008   */\n      0x00\n        /* \"--CODEGEN--\":11996:12005   */\n      dup4\n        /* \"--CODEGEN--\":11992:12009   */\n      add\n        /* \"--CODEGEN--\":11983:11989   */\n      dup7\n        /* \"--CODEGEN--\":11939:12010   */\n      jump(tag_395)\n    tag_414:\n        /* \"--CODEGEN--\":12021:12093   */\n      tag_415\n        /* \"--CODEGEN--\":12089:12091   */\n      0x20\n        /* \"--CODEGEN--\":12078:12087   */\n      dup4\n        /* \"--CODEGEN--\":12074:12092   */\n      add\n        /* \"--CODEGEN--\":12065:12071   */\n      dup6\n        /* \"--CODEGEN--\":12021:12093   */\n      jump(tag_395)\n    tag_415:\n        /* \"--CODEGEN--\":12104:12176   */\n      tag_416\n        /* \"--CODEGEN--\":12172:12174   */\n      0x40\n        /* \"--CODEGEN--\":12161:12170   */\n      dup4\n        /* \"--CODEGEN--\":12157:12175   */\n      add\n        /* \"--CODEGEN--\":12148:12154   */\n      dup5\n        /* \"--CODEGEN--\":12104:12176   */\n      jump(tag_395)\n    tag_416:\n        /* \"--CODEGEN--\":11896:12186   */\n      swap5\n      swap4\n      pop\n      pop\n      pop\n      pop\n      jump\n        /* \"--CODEGEN--\":12193:12344   */\n    tag_358:\n      0x00\n        /* \"--CODEGEN--\":12279:12282   */\n      dup2\n        /* \"--CODEGEN--\":12271:12282   */\n      swap1\n      pop\n        /* \"--CODEGEN--\":12317:12321   */\n      0x20\n        /* \"--CODEGEN--\":12312:12315   */\n      dup3\n        /* \"--CODEGEN--\":12308:12322   */\n      add\n        /* \"--CODEGEN--\":12300:12322   */\n      swap1\n      pop\n        /* \"--CODEGEN--\":12265:12344   */\n      swap2\n      swap1\n      pop\n      jump\n        /* \"--CODEGEN--\":12351:12488   */\n    tag_354:\n      0x00\n        /* \"--CODEGEN--\":12460:12465   */\n      dup2\n        /* \"--CODEGEN--\":12454:12466   */\n      mload\n        /* \"--CODEGEN--\":12444:12466   */\n      swap1\n      pop\n        /* \"--CODEGEN--\":12425:12488   */\n      swap2\n      swap1\n      pop\n      jump\n        /* \"--CODEGEN--\":12495:12617   */\n    tag_376:\n      0x00\n        /* \"--CODEGEN--\":12589:12594   */\n      dup2\n        /* \"--CODEGEN--\":12583:12595   */\n      mload\n        /* \"--CODEGEN--\":12573:12595   */\n      swap1\n      pop\n        /* \"--CODEGEN--\":12554:12617   */\n      swap2\n      swap1\n      pop\n      jump\n        /* \"--CODEGEN--\":12624:12732   */\n    tag_364:\n      0x00\n        /* \"--CODEGEN--\":12722:12726   */\n      0x20\n        /* \"--CODEGEN--\":12717:12720   */\n      dup3\n        /* \"--CODEGEN--\":12713:12727   */\n      add\n        /* \"--CODEGEN--\":12705:12727   */\n      swap1\n      pop\n        /* \"--CODEGEN--\":12699:12732   */\n      swap2\n      swap1\n      pop\n      jump\n        /* \"--CODEGEN--\":12740:12918   */\n    tag_356:\n      0x00\n        /* \"--CODEGEN--\":12870:12876   */\n      dup3\n        /* \"--CODEGEN--\":12865:12868   */\n      dup3\n        /* \"--CODEGEN--\":12858:12877   */\n      mstore\n        /* \"--CODEGEN--\":12907:12911   */\n      0x20\n        /* \"--CODEGEN--\":12902:12905   */\n      dup3\n        /* \"--CODEGEN--\":12898:12912   */\n      add\n        /* \"--CODEGEN--\":12883:12912   */\n      swap1\n      pop\n        /* \"--CODEGEN--\":12851:12918   */\n      swap3\n      swap2\n      pop\n      pop\n      jump\n        /* \"--CODEGEN--\":12927:13090   */\n    tag_378:\n      0x00\n        /* \"--CODEGEN--\":13042:13048   */\n      dup3\n        /* \"--CODEGEN--\":13037:13040   */\n      dup3\n        /* \"--CODEGEN--\":13030:13049   */\n      mstore\n        /* \"--CODEGEN--\":13079:13083   */\n      0x20\n        /* \"--CODEGEN--\":13074:13077   */\n      dup3\n        /* \"--CODEGEN--\":13070:13084   */\n      add\n        /* \"--CODEGEN--\":13055:13084   */\n      swap1\n      pop\n        /* \"--CODEGEN--\":13023:13090   */\n      swap3\n      swap2\n      pop\n      pop\n      jump\n        /* \"--CODEGEN--\":13098:13189   */\n    tag_351:\n      0x00\n        /* \"--CODEGEN--\":13160:13184   */\n      tag_417\n        /* \"--CODEGEN--\":13178:13183   */\n      dup3\n        /* \"--CODEGEN--\":13160:13184   */\n      jump(tag_418)\n    tag_417:\n        /* \"--CODEGEN--\":13149:13184   */\n      swap1\n      pop\n        /* \"--CODEGEN--\":13143:13189   */\n      swap2\n      swap1\n      pop\n      jump\n        /* \"--CODEGEN--\":13196:13281   */\n    tag_367:\n      0x00\n        /* \"--CODEGEN--\":13269:13274   */\n      dup2\n        /* \"--CODEGEN--\":13262:13275   */\n      iszero\n        /* \"--CODEGEN--\":13255:13276   */\n      iszero\n        /* \"--CODEGEN--\":13244:13276   */\n      swap1\n      pop\n        /* \"--CODEGEN--\":13238:13281   */\n      swap2\n      swap1\n      pop\n      jump\n        /* \"--CODEGEN--\":13288:13409   */\n    tag_418:\n      0x00\n        /* \"--CODEGEN--\":13361:13403   */\n      0xffffffffffffffffffffffffffffffffffffffff\n        /* \"--CODEGEN--\":13354:13359   */\n      dup3\n        /* \"--CODEGEN--\":13350:13404   */\n      and\n        /* \"--CODEGEN--\":13339:13404   */\n      swap1\n      pop\n        /* \"--CODEGEN--\":13333:13409   */\n      swap2\n      swap1\n      pop\n      jump\n        /* \"--CODEGEN--\":13416:13488   */\n    tag_394:\n      0x00\n        /* \"--CODEGEN--\":13478:13483   */\n      dup2\n        /* \"--CODEGEN--\":13467:13483   */\n      swap1\n      pop\n        /* \"--CODEGEN--\":13461:13488   */\n      swap2\n      swap1\n      pop\n      jump\n        /* \"--CODEGEN--\":13495:13624   */\n    tag_348:\n      0x00\n        /* \"--CODEGEN--\":13582:13619   */\n      tag_419\n        /* \"--CODEGEN--\":13613:13618   */\n      dup3\n        /* \"--CODEGEN--\":13582:13619   */\n      jump(tag_420)\n    tag_419:\n        /* \"--CODEGEN--\":13569:13619   */\n      swap1\n      pop\n        /* \"--CODEGEN--\":13563:13624   */\n      swap2\n      swap1\n      pop\n      jump\n        /* \"--CODEGEN--\":13631:13804   */\n    tag_370:\n      0x00\n        /* \"--CODEGEN--\":13736:13799   */\n      tag_421\n        /* \"--CODEGEN--\":13793:13798   */\n      dup3\n        /* \"--CODEGEN--\":13736:13799   */\n      jump(tag_422)\n    tag_421:\n        /* \"--CODEGEN--\":13723:13799   */\n      swap1\n      pop\n        /* \"--CODEGEN--\":13717:13804   */\n      swap2\n      swap1\n      pop\n      jump\n        /* \"--CODEGEN--\":13811:13945   */\n    tag_422:\n      0x00\n        /* \"--CODEGEN--\":13916:13940   */\n      tag_423\n        /* \"--CODEGEN--\":13934:13939   */\n      dup3\n        /* \"--CODEGEN--\":13916:13940   */\n      jump(tag_418)\n    tag_423:\n        /* \"--CODEGEN--\":13903:13940   */\n      swap1\n      pop\n        /* \"--CODEGEN--\":13897:13945   */\n      swap2\n      swap1\n      pop\n      jump\n        /* \"--CODEGEN--\":13952:14107   */\n    tag_373:\n      0x00\n        /* \"--CODEGEN--\":14048:14102   */\n      tag_424\n        /* \"--CODEGEN--\":14096:14101   */\n      dup3\n        /* \"--CODEGEN--\":14048:14102   */\n      jump(tag_425)\n    tag_424:\n        /* \"--CODEGEN--\":14035:14102   */\n      swap1\n      pop\n        /* \"--CODEGEN--\":14029:14107   */\n      swap2\n      swap1\n      pop\n      jump\n        /* \"--CODEGEN--\":14114:14239   */\n    tag_425:\n      0x00\n        /* \"--CODEGEN--\":14210:14234   */\n      tag_426\n        /* \"--CODEGEN--\":14228:14233   */\n      dup3\n        /* \"--CODEGEN--\":14210:14234   */\n      jump(tag_418)\n    tag_426:\n        /* \"--CODEGEN--\":14197:14234   */\n      swap1\n      pop\n        /* \"--CODEGEN--\":14191:14239   */\n      swap2\n      swap1\n      pop\n      jump\n        /* \"--CODEGEN--\":14246:14367   */\n    tag_420:\n      0x00\n        /* \"--CODEGEN--\":14325:14362   */\n      tag_427\n        /* \"--CODEGEN--\":14356:14361   */\n      dup3\n        /* \"--CODEGEN--\":14325:14362   */\n      jump(tag_428)\n    tag_427:\n        /* \"--CODEGEN--\":14312:14362   */\n      swap1\n      pop\n        /* \"--CODEGEN--\":14306:14367   */\n      swap2\n      swap1\n      pop\n      jump\n        /* \"--CODEGEN--\":14374:14482   */\n    tag_428:\n      0x00\n        /* \"--CODEGEN--\":14453:14477   */\n      tag_429\n        /* \"--CODEGEN--\":14471:14476   */\n      dup3\n        /* \"--CODEGEN--\":14453:14477   */\n      jump(tag_418)\n    tag_429:\n        /* \"--CODEGEN--\":14440:14477   */\n      swap1\n      pop\n        /* \"--CODEGEN--\":14434:14482   */\n      swap2\n      swap1\n      pop\n      jump\n        /* \"--CODEGEN--\":14490:14758   */\n    tag_380:\n        /* \"--CODEGEN--\":14555:14556   */\n      0x00\n        /* \"--CODEGEN--\":14562:14663   */\n    tag_430:\n        /* \"--CODEGEN--\":14576:14582   */\n      dup4\n        /* \"--CODEGEN--\":14573:14574   */\n      dup2\n        /* \"--CODEGEN--\":14570:14583   */\n      lt\n        /* \"--CODEGEN--\":14562:14663   */\n      iszero\n      tag_432\n      jumpi\n        /* \"--CODEGEN--\":14652:14653   */\n      dup1\n        /* \"--CODEGEN--\":14647:14650   */\n      dup3\n        /* \"--CODEGEN--\":14643:14654   */\n      add\n        /* \"--CODEGEN--\":14637:14655   */\n      mload\n        /* \"--CODEGEN--\":14633:14634   */\n      dup2\n        /* \"--CODEGEN--\":14628:14631   */\n      dup5\n        /* \"--CODEGEN--\":14624:14635   */\n      add\n        /* \"--CODEGEN--\":14617:14656   */\n      mstore\n        /* \"--CODEGEN--\":14598:14600   */\n      0x20\n        /* \"--CODEGEN--\":14595:14596   */\n      dup2\n        /* \"--CODEGEN--\":14591:14601   */\n      add\n        /* \"--CODEGEN--\":14586:14601   */\n      swap1\n      pop\n        /* \"--CODEGEN--\":14562:14663   */\n      jump(tag_430)\n    tag_432:\n        /* \"--CODEGEN--\":14678:14684   */\n      dup4\n        /* \"--CODEGEN--\":14675:14676   */\n      dup2\n        /* \"--CODEGEN--\":14672:14685   */\n      gt\n        /* \"--CODEGEN--\":14669:14671   */\n      iszero\n      tag_433\n      jumpi\n        /* \"--CODEGEN--\":14743:14744   */\n      0x00\n        /* \"--CODEGEN--\":14734:14740   */\n      dup5\n        /* \"--CODEGEN--\":14729:14732   */\n      dup5\n        /* \"--CODEGEN--\":14725:14741   */\n      add\n        /* \"--CODEGEN--\":14718:14745   */\n      mstore\n        /* \"--CODEGEN--\":14669:14671   */\n    tag_433:\n        /* \"--CODEGEN--\":14539:14758   */\n      pop\n      pop\n      pop\n      pop\n      jump\n        /* \"--CODEGEN--\":14766:14863   */\n    tag_382:\n      0x00\n        /* \"--CODEGEN--\":14854:14856   */\n      0x1f\n        /* \"--CODEGEN--\":14850:14857   */\n      not\n        /* \"--CODEGEN--\":14845:14847   */\n      0x1f\n        /* \"--CODEGEN--\":14838:14843   */\n      dup4\n        /* \"--CODEGEN--\":14834:14848   */\n      add\n        /* \"--CODEGEN--\":14830:14858   */\n      and\n        /* \"--CODEGEN--\":14820:14858   */\n      swap1\n      pop\n        /* \"--CODEGEN--\":14814:14863   */\n      swap2\n      swap1\n      pop\n      jump\n        /* \"--CODEGEN--\":14871:14988   */\n    tag_312:\n        /* \"--CODEGEN--\":14940:14964   */\n      tag_434\n        /* \"--CODEGEN--\":14958:14963   */\n      dup2\n        /* \"--CODEGEN--\":14940:14964   */\n      jump(tag_351)\n    tag_434:\n        /* \"--CODEGEN--\":14933:14938   */\n      dup2\n        /* \"--CODEGEN--\":14930:14965   */\n      eq\n        /* \"--CODEGEN--\":14920:14922   */\n      tag_435\n      jumpi\n        /* \"--CODEGEN--\":14979:14980   */\n      0x00\n        /* \"--CODEGEN--\":14976:14977   */\n      dup1\n        /* \"--CODEGEN--\":14969:14981   */\n      revert\n        /* \"--CODEGEN--\":14920:14922   */\n    tag_435:\n        /* \"--CODEGEN--\":14914:14988   */\n      pop\n      jump\n        /* \"--CODEGEN--\":14995:15106   */\n    tag_315:\n        /* \"--CODEGEN--\":15061:15082   */\n      tag_436\n        /* \"--CODEGEN--\":15076:15081   */\n      dup2\n        /* \"--CODEGEN--\":15061:15082   */\n      jump(tag_367)\n    tag_436:\n        /* \"--CODEGEN--\":15054:15059   */\n      dup2\n        /* \"--CODEGEN--\":15051:15083   */\n      eq\n        /* \"--CODEGEN--\":15041:15043   */\n      tag_437\n      jumpi\n        /* \"--CODEGEN--\":15097:15098   */\n      0x00\n        /* \"--CODEGEN--\":15094:15095   */\n      dup1\n        /* \"--CODEGEN--\":15087:15099   */\n      revert\n        /* \"--CODEGEN--\":15041:15043   */\n    tag_437:\n        /* \"--CODEGEN--\":15035:15106   */\n      pop\n      jump\n        /* \"--CODEGEN--\":15113:15230   */\n    tag_322:\n        /* \"--CODEGEN--\":15182:15206   */\n      tag_438\n        /* \"--CODEGEN--\":15200:15205   */\n      dup2\n        /* \"--CODEGEN--\":15182:15206   */\n      jump(tag_394)\n    tag_438:\n        /* \"--CODEGEN--\":15175:15180   */\n      dup2\n        /* \"--CODEGEN--\":15172:15207   */\n      eq\n        /* \"--CODEGEN--\":15162:15164   */\n      tag_439\n      jumpi\n        /* \"--CODEGEN--\":15221:15222   */\n      0x00\n        /* \"--CODEGEN--\":15218:15219   */\n      dup1\n        /* \"--CODEGEN--\":15211:15223   */\n      revert\n        /* \"--CODEGEN--\":15162:15164   */\n    tag_439:\n        /* \"--CODEGEN--\":15156:15230   */\n      pop\n      jump\n\n    auxdata: 0xa365627a7a7231582049dd6987cfbc26de1c2d2ac7443c6be3c89556b725ee3be0f93d4bd140a13ef06c6578706572696d656e74616cf564736f6c63430005110040\n}\n\nsub_1: assembly {\n        /* \"UCMToken.sol\":150:781  contract UCMToken is ERC20, ERC20Detailed, MinterRole {... */\n      mstore(0x40, 0x80)\n        /* \"UCMToken.sol\":239:326  constructor() ERC20Detailed(\"UCM\", \"UCM\", 0) public {... */\n      callvalue\n        /* \"--CODEGEN--\":8:17   */\n      dup1\n        /* \"--CODEGEN--\":5:7   */\n      iszero\n      tag_1\n      jumpi\n        /* \"--CODEGEN--\":30:31   */\n      0x00\n        /* \"--CODEGEN--\":27:28   */\n      dup1\n        /* \"--CODEGEN--\":20:32   */\n      revert\n        /* \"--CODEGEN--\":5:7   */\n    tag_1:\n        /* \"UCMToken.sol\":239:326  constructor() ERC20Detailed(\"UCM\", \"UCM\", 0) public {... */\n      pop\n        /* \"openzeppelin/ERC20Detailed.sol\":512:675  constructor (string memory name, string memory symbol, uint8 decimals) public {... */\n      mload(0x40)\n      dup1\n      0x40\n      add\n      0x40\n      mstore\n      dup1\n      0x03\n      dup2\n      mstore\n      0x20\n      add\n      0x55434d0000000000000000000000000000000000000000000000000000000000\n      dup2\n      mstore\n      pop\n      mload(0x40)\n      dup1\n      0x40\n      add\n      0x40\n      mstore\n      dup1\n      0x03\n      dup2\n      mstore\n      0x20\n      add\n      0x55434d0000000000000000000000000000000000000000000000000000000000\n      dup2\n      mstore\n      pop\n        /* \"UCMToken.sol\":281:282  0 */\n      0x00\n        /* \"openzeppelin/ERC20Detailed.sol\":608:612  name */\n      dup3\n        /* \"openzeppelin/ERC20Detailed.sol\":600:605  _name */\n      0x03\n        /* \"openzeppelin/ERC20Detailed.sol\":600:612  _name = name */\n      swap1\n      dup1\n      mload\n      swap1\n      0x20\n      add\n      swap1\n      tag_8\n      swap3\n      swap2\n      swap1\n      tag_9\n      jump\t// in\n    tag_8:\n      pop\n        /* \"openzeppelin/ERC20Detailed.sol\":632:638  symbol */\n      dup2\n        /* \"openzeppelin/ERC20Detailed.sol\":622:629  _symbol */\n      0x04\n        /* \"openzeppelin/ERC20Detailed.sol\":622:638  _symbol = symbol */\n      swap1\n      dup1\n      mload\n      swap1\n      0x20\n      add\n      swap1\n      tag_10\n      swap3\n      swap2\n      swap1\n      tag_9\n      jump\t// in\n    tag_10:\n      pop\n        /* \"openzeppelin/ERC20Detailed.sol\":660:668  decimals */\n      dup1\n        /* \"openzeppelin/ERC20Detailed.sol\":648:657  _decimals */\n      0x05\n      0x00\n        /* \"openzeppelin/ERC20Detailed.sol\":648:668  _decimals = decimals */\n      0x0100\n      exp\n      dup2\n      sload\n      dup2\n      0xff\n      mul\n      not\n      and\n      swap1\n      dup4\n      0xff\n      and\n      mul\n      or\n      swap1\n      sstore\n      pop\n        /* \"openzeppelin/ERC20Detailed.sol\":512:675  constructor (string memory name, string memory symbol, uint8 decimals) public {... */\n      pop\n      pop\n      pop\n        /* \"openzeppelin/roles/MinterRole.sol\":408:432  _addMinter(_msgSender()) */\n      tag_12\n        /* \"openzeppelin/roles/MinterRole.sol\":419:431  _msgSender() */\n      tag_13\n        /* \"openzeppelin/roles/MinterRole.sol\":419:429  _msgSender */\n      shl(0x20, tag_14)\n        /* \"openzeppelin/roles/MinterRole.sol\":419:431  _msgSender() */\n      0x20\n      shr\n      jump\t// in\n    tag_13:\n        /* \"openzeppelin/roles/MinterRole.sol\":408:418  _addMinter */\n      shl(0x20, tag_15)\n        /* \"openzeppelin/roles/MinterRole.sol\":408:432  _addMinter(_msgSender()) */\n      0x20\n      shr\n      jump\t// in\n    tag_12:\n        /* \"UCMToken.sol\":309:319  msg.sender */\n      caller\n        /* \"UCMToken.sol\":301:306  owner */\n      0x07\n      0x00\n        /* \"UCMToken.sol\":301:319  owner = msg.sender */\n      0x0100\n      exp\n      dup2\n      sload\n      dup2\n      0xffffffffffffffffffffffffffffffffffffffff\n      mul\n      not\n      and\n      swap1\n      dup4\n      0xffffffffffffffffffffffffffffffffffffffff\n      and\n      mul\n      or\n      swap1\n      sstore\n      pop\n        /* \"UCMToken.sol\":150:781  contract UCMToken is ERC20, ERC20Detailed, MinterRole {... */\n      jump(tag_17)\n        /* \"openzeppelin/GSN/Context.sol\":870:966  function _msgSender() internal view returns (address payable) {... */\n    tag_14:\n        /* \"openzeppelin/GSN/Context.sol\":915:930  address payable */\n      0x00\n        /* \"openzeppelin/GSN/Context.sol\":949:959  msg.sender */\n      caller\n        /* \"openzeppelin/GSN/Context.sol\":942:959  return msg.sender */\n      swap1\n      pop\n        /* \"openzeppelin/GSN/Context.sol\":870:966  function _msgSender() internal view returns (address payable) {... */\n      swap1\n      jump\t// out\n        /* \"openzeppelin/roles/MinterRole.sol\":876:995  function _addMinter(address account) internal {... */\n    tag_15:\n        /* \"openzeppelin/roles/MinterRole.sol\":932:953  _minters.add(account) */\n      tag_20\n        /* \"openzeppelin/roles/MinterRole.sol\":945:952  account */\n      dup2\n        /* \"openzeppelin/roles/MinterRole.sol\":932:940  _minters */\n      0x06\n        /* \"openzeppelin/roles/MinterRole.sol\":932:944  _minters.add */\n      or(tag_0_173, shl(0x20, tag_21))\n      swap1\n        /* \"openzeppelin/roles/MinterRole.sol\":932:953  _minters.add(account) */\n      swap2\n      swap1\n      0x20\n      shr\n      jump\t// in\n    tag_20:\n        /* \"openzeppelin/roles/MinterRole.sol\":980:987  account */\n      dup1\n        /* \"openzeppelin/roles/MinterRole.sol\":968:988  MinterAdded(account) */\n      0xffffffffffffffffffffffffffffffffffffffff\n      and\n      0x6ae172837ea30b801fbfcdd4108aa1d5bf8ff775444fd70256b44e6bf3dfc3f6\n      mload(0x40)\n      mload(0x40)\n      dup1\n      swap2\n      sub\n      swap1\n      log2\n        /* \"openzeppelin/roles/MinterRole.sol\":876:995  function _addMinter(address account) internal {... */\n      pop\n      jump\t// out\n        /* \"openzeppelin/roles/Roles.sol\":343:518  function add(Role storage role, address account) internal {... */\n    tag_21:\n        /* \"openzeppelin/roles/Roles.sol\":420:438  has(role, account) */\n      tag_23\n        /* \"openzeppelin/roles/Roles.sol\":424:428  role */\n      dup3\n        /* \"openzeppelin/roles/Roles.sol\":430:437  account */\n      dup3\n        /* \"openzeppelin/roles/Roles.sol\":420:423  has */\n      shl(0x20, tag_24)\n        /* \"openzeppelin/roles/Roles.sol\":420:438  has(role, account) */\n      0x20\n      shr\n      jump\t// in\n    tag_23:\n        /* \"openzeppelin/roles/Roles.sol\":419:438  !has(role, account) */\n      iszero\n        /* \"openzeppelin/roles/Roles.sol\":411:474  require(!has(role, account), \"Roles: account already has role\") */\n      tag_25\n      jumpi\n      mload(0x40)\n      0x08c379a000000000000000000000000000000000000000000000000000000000\n      dup2\n      mstore\n      0x04\n      add\n      dup1\n      dup1\n      0x20\n      add\n      dup3\n      dup2\n      sub\n      dup3\n      mstore\n      0x1f\n      dup2\n      mstore\n      0x20\n      add\n      dup1\n      0x526f6c65733a206163636f756e7420616c72656164792068617320726f6c6500\n      dup2\n      mstore\n      pop\n      0x20\n      add\n      swap2\n      pop\n      pop\n      mload(0x40)\n      dup1\n      swap2\n      sub\n      swap1\n      revert\n    tag_25:\n        /* \"openzeppelin/roles/Roles.sol\":507:511  true */\n      0x01\n        /* \"openzeppelin/roles/Roles.sol\":484:488  role */\n      dup3\n        /* \"openzeppelin/roles/Roles.sol\":484:495  role.bearer */\n      0x00\n      add\n        /* \"openzeppelin/roles/Roles.sol\":484:504  role.bearer[account] */\n      0x00\n        /* \"openzeppelin/roles/Roles.sol\":496:503  account */\n      dup4\n        /* \"openzeppelin/roles/Roles.sol\":484:504  role.bearer[account] */\n      0xffffffffffffffffffffffffffffffffffffffff\n      and\n      0xffffffffffffffffffffffffffffffffffffffff\n      and\n      dup2\n      mstore\n      0x20\n      add\n      swap1\n      dup2\n      mstore\n      0x20\n      add\n      0x00\n      keccak256\n      0x00\n        /* \"openzeppelin/roles/Roles.sol\":484:511  role.bearer[account] = true */\n      0x0100\n      exp\n      dup2\n      sload\n      dup2\n      0xff\n      mul\n      not\n      and\n      swap1\n      dup4\n      iszero\n      iszero\n      mul\n      or\n      swap1\n      sstore\n      pop\n        /* \"openzeppelin/roles/Roles.sol\":343:518  function add(Role storage role, address account) internal {... */\n      pop\n      pop\n      jump\t// out\n        /* \"openzeppelin/roles/Roles.sol\":862:1062  function has(Role storage role, address account) internal view returns (bool) {... */\n    tag_24:\n        /* \"openzeppelin/roles/Roles.sol\":934:938  bool */\n      0x00\n        /* \"openzeppelin/roles/Roles.sol\":977:978  0 */\n      dup1\n        /* \"openzeppelin/roles/Roles.sol\":958:979  account != address(0) */\n      0xffffffffffffffffffffffffffffffffffffffff\n      and\n        /* \"openzeppelin/roles/Roles.sol\":958:965  account */\n      dup3\n        /* \"openzeppelin/roles/Roles.sol\":958:979  account != address(0) */\n      0xffffffffffffffffffffffffffffffffffffffff\n      and\n      eq\n      iszero\n        /* \"openzeppelin/roles/Roles.sol\":950:1018  require(account != address(0), \"Roles: account is the zero address\") */\n      tag_27\n      jumpi\n      mload(0x40)\n      0x08c379a000000000000000000000000000000000000000000000000000000000\n      dup2\n      mstore\n      0x04\n      add\n      dup1\n      dup1\n      0x20\n      add\n      dup3\n      dup2\n      sub\n      dup3\n      mstore\n      0x22\n      dup2\n      mstore\n      0x20\n      add\n      dup1\n      data_9d214fa89563f4e6456a3929327e54500ea1cde2c0ba9fb2035ec106190d682f\n      0x22\n      swap2\n      codecopy\n      0x40\n      add\n      swap2\n      pop\n      pop\n      mload(0x40)\n      dup1\n      swap2\n      sub\n      swap1\n      revert\n    tag_27:\n        /* \"openzeppelin/roles/Roles.sol\":1035:1039  role */\n      dup3\n        /* \"openzeppelin/roles/Roles.sol\":1035:1046  role.bearer */\n      0x00\n      add\n        /* \"openzeppelin/roles/Roles.sol\":1035:1055  role.bearer[account] */\n      0x00\n        /* \"openzeppelin/roles/Roles.sol\":1047:1054  account */\n      dup4\n        /* \"openzeppelin/roles/Roles.sol\":1035:1055  role.bearer[account] */\n      0xffffffffffffffffffffffffffffffffffffffff\n      and\n      0xffffffffffffffffffffffffffffffffffffffff\n      and\n      dup2\n      mstore\n      0x20\n      add\n      swap1\n      dup2\n      mstore\n      0x20\n      add\n      0x00\n      keccak256\n      0x00\n      swap1\n      sload\n      swap1\n      0x0100\n      exp\n      swap1\n      div\n      0xff\n      and\n        /* \"openzeppelin/roles/Roles.sol\":1028:1055  return role.bearer[account] */\n      swap1\n      pop\n        /* \"openzeppelin/roles/Roles.sol\":862:1062  function has(Role storage role, address account) internal view returns (bool) {... */\n      swap3\n      swap2\n      pop\n      pop\n      jump\t// out\n        /* \"UCMToken.sol\":150:781  contract UCMToken is ERC20, ERC20Detailed, MinterRole {... */\n    tag_9:\n      dup3\n      dup1\n      sload\n      0x01\n      dup2\n      0x01\n      and\n      iszero\n      0x0100\n      mul\n      sub\n      and\n      0x02\n      swap1\n      div\n      swap1\n      0x00\n      mstore\n      keccak256(0x00, 0x20)\n      swap1\n      0x1f\n      add\n      0x20\n      swap1\n      div\n      dup2\n      add\n      swap3\n      dup3\n      0x1f\n      lt\n      tag_29\n      jumpi\n      dup1\n      mload\n      not(0xff)\n      and\n      dup4\n      dup1\n      add\n      or\n      dup6\n      sstore\n      jump(tag_28)\n    tag_29:\n      dup3\n      dup1\n      add\n      0x01\n      add\n      dup6\n      sstore\n      dup3\n      iszero\n      tag_28\n      jumpi\n      swap2\n      dup3\n      add\n    tag_30:\n      dup3\n      dup2\n      gt\n      iszero\n      tag_31\n      jumpi\n      dup3\n      mload\n      dup3\n      sstore\n      swap2\n      0x20\n      add\n      swap2\n      swap1\n      0x01\n      add\n      swap1\n      jump(tag_30)\n    tag_31:\n    tag_28:\n      pop\n      swap1\n      pop\n      tag_32\n      swap2\n      swap1\n      tag_33\n      jump\t// in\n    tag_32:\n      pop\n      swap1\n      jump\t// out\n    tag_33:\n      tag_34\n      swap2\n      swap1\n    tag_35:\n      dup1\n      dup3\n      gt\n      iszero\n      tag_36\n      jumpi\n      0x00\n      dup2\n      0x00\n      swap1\n      sstore\n      pop\n      0x01\n      add\n      jump(tag_35)\n    tag_36:\n      pop\n      swap1\n      jump\n    tag_34:\n      swap1\n      jump\t// out\n    tag_17:\n      dataSize(sub_0)\n      dup1\n      dataOffset(sub_0)\n      0x00\n      codecopy\n      0x00\n      return\n    stop\n    data_9d214fa89563f4e6456a3929327e54500ea1cde2c0ba9fb2035ec106190d682f 526f6c65733a206163636f756e7420697320746865207a65726f2061646472657373\n\n    sub_0: assembly {\n            /* \"UCMToken.sol\":150:781  contract UCMToken is ERC20, ERC20Detailed, MinterRole {... */\n          mstore(0x40, 0x80)\n          callvalue\n            /* \"--CODEGEN--\":8:17   */\n          dup1\n            /* \"--CODEGEN--\":5:7   */\n          iszero\n          tag_1\n          jumpi\n            /* \"--CODEGEN--\":30:31   */\n          0x00\n            /* \"--CODEGEN--\":27:28   */\n          dup1\n            /* \"--CODEGEN--\":20:32   */\n          revert\n            /* \"--CODEGEN--\":5:7   */\n        tag_1:\n            /* \"UCMToken.sol\":150:781  contract UCMToken is ERC20, ERC20Detailed, MinterRole {... */\n          pop\n          jumpi(tag_2, lt(calldatasize, 0x04))\n          shr(0xe0, calldataload(0x00))\n          dup1\n          0x95d89b41\n          gt\n          tag_20\n          jumpi\n          dup1\n          0xa457c2d7\n          gt\n          tag_21\n          jumpi\n          dup1\n          0xa457c2d7\n          eq\n          tag_15\n          jumpi\n          dup1\n          0xa9059cbb\n          eq\n          tag_16\n          jumpi\n          dup1\n          0xaa271e1a\n          eq\n          tag_17\n          jumpi\n          dup1\n          0xdd62ed3e\n          eq\n          tag_18\n          jumpi\n          dup1\n          0xebc3adcd\n          eq\n          tag_19\n          jumpi\n          jump(tag_2)\n        tag_21:\n          dup1\n          0x95d89b41\n          eq\n          tag_11\n          jumpi\n          dup1\n          0x983b2d56\n          eq\n          tag_12\n          jumpi\n          dup1\n          0x98650275\n          eq\n          tag_13\n          jumpi\n          dup1\n          0x9dc29fac\n          eq\n          tag_14\n          jumpi\n          jump(tag_2)\n        tag_20:\n          dup1\n          0x313ce567\n          gt\n          tag_22\n          jumpi\n          dup1\n          0x313ce567\n          eq\n          tag_7\n          jumpi\n          dup1\n          0x39509351\n          eq\n          tag_8\n          jumpi\n          dup1\n          0x40c10f19\n          eq\n          tag_9\n          jumpi\n          dup1\n          0x70a08231\n          eq\n          tag_10\n          jumpi\n          jump(tag_2)\n        tag_22:\n          dup1\n          0x06fdde03\n          eq\n          tag_3\n          jumpi\n          dup1\n          0x095ea7b3\n          eq\n          tag_4\n          jumpi\n          dup1\n          0x18160ddd\n          eq\n          tag_5\n          jumpi\n          dup1\n          0x23b872dd\n          eq\n          tag_6\n          jumpi\n        tag_2:\n          0x00\n          dup1\n          revert\n            /* \"openzeppelin/ERC20Detailed.sol\":740:821  function name() public view returns (string memory) {... */\n        tag_3:\n          tag_23\n          tag_24\n          jump\t// in\n        tag_23:\n          mload(0x40)\n          dup1\n          dup1\n          0x20\n          add\n          dup3\n          dup2\n          sub\n          dup3\n          mstore\n          dup4\n          dup2\n          dup2\n          mload\n          dup2\n          mstore\n          0x20\n          add\n          swap2\n          pop\n          dup1\n          mload\n          swap1\n          0x20\n          add\n          swap1\n          dup1\n          dup4\n          dup4\n            /* \"--CODEGEN--\":23:24   */\n          0x00\n            /* \"--CODEGEN--\":8:108   */\n        tag_25:\n            /* \"--CODEGEN--\":33:36   */\n          dup4\n            /* \"--CODEGEN--\":30:31   */\n          dup2\n            /* \"--CODEGEN--\":27:37   */\n          lt\n            /* \"--CODEGEN--\":8:108   */\n          iszero\n          tag_27\n          jumpi\n            /* \"--CODEGEN--\":99:100   */\n          dup1\n            /* \"--CODEGEN--\":94:97   */\n          dup3\n            /* \"--CODEGEN--\":90:101   */\n          add\n            /* \"--CODEGEN--\":84:102   */\n          mload\n            /* \"--CODEGEN--\":80:81   */\n          dup2\n            /* \"--CODEGEN--\":75:78   */\n          dup5\n            /* \"--CODEGEN--\":71:82   */\n          add\n            /* \"--CODEGEN--\":64:103   */\n          mstore\n            /* \"--CODEGEN--\":52:54   */\n          0x20\n            /* \"--CODEGEN--\":49:50   */\n          dup2\n            /* \"--CODEGEN--\":45:55   */\n          add\n            /* \"--CODEGEN--\":40:55   */\n          swap1\n          pop\n            /* \"--CODEGEN--\":8:108   */\n          jump(tag_25)\n        tag_27:\n            /* \"--CODEGEN--\":12:26   */\n          pop\n            /* \"openzeppelin/ERC20Detailed.sol\":740:821  function name() public view returns (string memory) {... */\n          pop\n          pop\n          pop\n          swap1\n          pop\n          swap1\n          dup2\n          add\n          swap1\n          0x1f\n          and\n          dup1\n          iszero\n          tag_28\n          jumpi\n          dup1\n          dup3\n          sub\n          dup1\n          mload\n          0x01\n          dup4\n          0x20\n          sub\n          0x0100\n          exp\n          sub\n          not\n          and\n          dup2\n          mstore\n          0x20\n          add\n          swap2\n          pop\n        tag_28:\n          pop\n          swap3\n          pop\n          pop\n          pop\n          mload(0x40)\n          dup1\n          swap2\n          sub\n          swap1\n          return\n            /* \"openzeppelin/ERC20.sol\":2580:2729  function approve(address spender, uint256 amount) public returns (bool) {... */\n        tag_4:\n          tag_29\n          0x04\n          dup1\n          calldatasize\n          sub\n            /* \"--CODEGEN--\":13:15   */\n          0x40\n            /* \"--CODEGEN--\":8:11   */\n          dup2\n            /* \"--CODEGEN--\":5:16   */\n          lt\n            /* \"--CODEGEN--\":2:4   */\n          iszero\n          tag_30\n          jumpi\n            /* \"--CODEGEN--\":29:30   */\n          0x00\n            /* \"--CODEGEN--\":26:27   */\n          dup1\n            /* \"--CODEGEN--\":19:31   */\n          revert\n            /* \"--CODEGEN--\":2:4   */\n        tag_30:\n            /* \"openzeppelin/ERC20.sol\":2580:2729  function approve(address spender, uint256 amount) public returns (bool) {... */\n          dup2\n          add\n          swap1\n          dup1\n          dup1\n          calldataload\n          0xffffffffffffffffffffffffffffffffffffffff\n          and\n          swap1\n          0x20\n          add\n          swap1\n          swap3\n          swap2\n          swap1\n          dup1\n          calldataload\n          swap1\n          0x20\n          add\n          swap1\n          swap3\n          swap2\n          swap1\n          pop\n          pop\n          pop\n          tag_31\n          jump\t// in\n        tag_29:\n          mload(0x40)\n          dup1\n          dup3\n          iszero\n          iszero\n          iszero\n          iszero\n          dup2\n          mstore\n          0x20\n          add\n          swap2\n          pop\n          pop\n          mload(0x40)\n          dup1\n          swap2\n          sub\n          swap1\n          return\n            /* \"openzeppelin/ERC20.sol\":1639:1728  function totalSupply() public view returns (uint256) {... */\n        tag_5:\n          tag_32\n          tag_33\n          jump\t// in\n        tag_32:\n          mload(0x40)\n          dup1\n          dup3\n          dup2\n          mstore\n          0x20\n          add\n          swap2\n          pop\n          pop\n          mload(0x40)\n          dup1\n          swap2\n          sub\n          swap1\n          return\n            /* \"openzeppelin/ERC20.sol\":3187:3487  function transferFrom(address sender, address recipient, uint256 amount) public returns (bool) {... */\n        tag_6:\n          tag_34\n          0x04\n          dup1\n          calldatasize\n          sub\n            /* \"--CODEGEN--\":13:15   */\n          0x60\n            /* \"--CODEGEN--\":8:11   */\n          dup2\n            /* \"--CODEGEN--\":5:16   */\n          lt\n            /* \"--CODEGEN--\":2:4   */\n          iszero\n          tag_35\n          jumpi\n            /* \"--CODEGEN--\":29:30   */\n          0x00\n            /* \"--CODEGEN--\":26:27   */\n          dup1\n            /* \"--CODEGEN--\":19:31   */\n          revert\n            /* \"--CODEGEN--\":2:4   */\n        tag_35:\n            /* \"openzeppelin/ERC20.sol\":3187:3487  function transferFrom(address sender, address recipient, uint256 amount) public returns (bool) {... */\n          dup2\n          add\n          swap1\n          dup1\n          dup1\n          calldataload\n          0xffffffffffffffffffffffffffffffffffffffff\n          and\n          swap1\n          0x20\n          add\n          swap1\n          swap3\n          swap2\n          swap1\n          dup1\n          calldataload\n          0xffffffffffffffffffffffffffffffffffffffff\n          and\n          swap1\n          0x20\n          add\n          swap1\n          swap3\n          swap2\n          swap1\n          dup1\n          calldataload\n          swap1\n          0x20\n          add\n          swap1\n          swap3\n          swap2\n          swap1\n          pop\n          pop\n          pop\n          tag_36\n          jump\t// in\n        tag_34:\n          mload(0x40)\n          dup1\n          dup3\n          iszero\n          iszero\n          iszero\n          iszero\n          dup2\n          mstore\n          0x20\n          add\n          swap2\n          pop\n          pop\n          mload(0x40)\n          dup1\n          swap2\n          sub\n          swap1\n          return\n            /* \"openzeppelin/ERC20Detailed.sol\":1568:1649  function decimals() public view returns (uint8) {... */\n        tag_7:\n          tag_37\n          tag_38\n          jump\t// in\n        tag_37:\n          mload(0x40)\n          dup1\n          dup3\n          0xff\n          and\n          0xff\n          and\n          dup2\n          mstore\n          0x20\n          add\n          swap2\n          pop\n          pop\n          mload(0x40)\n          dup1\n          swap2\n          sub\n          swap1\n          return\n            /* \"openzeppelin/ERC20.sol\":3882:4089  function increaseAllowance(address spender, uint256 addedValue) public returns (bool) {... */\n        tag_8:\n          tag_39\n          0x04\n          dup1\n          calldatasize\n          sub\n            /* \"--CODEGEN--\":13:15   */\n          0x40\n            /* \"--CODEGEN--\":8:11   */\n          dup2\n            /* \"--CODEGEN--\":5:16   */\n          lt\n            /* \"--CODEGEN--\":2:4   */\n          iszero\n          tag_40\n          jumpi\n            /* \"--CODEGEN--\":29:30   */\n          0x00\n            /* \"--CODEGEN--\":26:27   */\n          dup1\n            /* \"--CODEGEN--\":19:31   */\n          revert\n            /* \"--CODEGEN--\":2:4   */\n        tag_40:\n            /* \"openzeppelin/ERC20.sol\":3882:4089  function increaseAllowance(address spender, uint256 addedValue) public returns (bool) {... */\n          dup2\n          add\n          swap1\n          dup1\n          dup1\n          calldataload\n          0xffffffffffffffffffffffffffffffffffffffff\n          and\n          swap1\n          0x20\n          add\n          swap1\n          swap3\n          swap2\n          swap1\n          dup1\n          calldataload\n          swap1\n          0x20\n          add\n          swap1\n          swap3\n          swap2\n          swap1\n          pop\n          pop\n          pop\n          tag_41\n          jump\t// in\n        tag_39:\n          mload(0x40)\n          dup1\n          dup3\n          iszero\n          iszero\n          iszero\n          iszero\n          dup2\n          mstore\n          0x20\n          add\n          swap2\n          pop\n          pop\n          mload(0x40)\n          dup1\n          swap2\n          sub\n          swap1\n          return\n            /* \"UCMToken.sol\":332:435  function mint(address account, uint amount) external onlyMinter {... */\n        tag_9:\n          tag_42\n          0x04\n          dup1\n          calldatasize\n          sub\n            /* \"--CODEGEN--\":13:15   */\n          0x40\n            /* \"--CODEGEN--\":8:11   */\n          dup2\n            /* \"--CODEGEN--\":5:16   */\n          lt\n            /* \"--CODEGEN--\":2:4   */\n          iszero\n          tag_43\n          jumpi\n            /* \"--CODEGEN--\":29:30   */\n          0x00\n            /* \"--CODEGEN--\":26:27   */\n          dup1\n            /* \"--CODEGEN--\":19:31   */\n          revert\n            /* \"--CODEGEN--\":2:4   */\n        tag_43:\n            /* \"UCMToken.sol\":332:435  function mint(address account, uint amount) external onlyMinter {... */\n          dup2\n          add\n          swap1\n          dup1\n          dup1\n          calldataload\n          0xffffffffffffffffffffffffffffffffffffffff\n          and\n          swap1\n          0x20\n          add\n          swap1\n          swap3\n          swap2\n          swap1\n          dup1\n          calldataload\n          swap1\n          0x20\n          add\n          swap1\n          swap3\n          swap2\n          swap1\n          pop\n          pop\n          pop\n          tag_44\n          jump\t// in\n        tag_42:\n          stop\n            /* \"openzeppelin/ERC20.sol\":1786:1894  function balanceOf(address account) public view returns (uint256) {... */\n        tag_10:\n          tag_45\n          0x04\n          dup1\n          calldatasize\n          sub\n            /* \"--CODEGEN--\":13:15   */\n          0x20\n            /* \"--CODEGEN--\":8:11   */\n          dup2\n            /* \"--CODEGEN--\":5:16   */\n          lt\n            /* \"--CODEGEN--\":2:4   */\n          iszero\n          tag_46\n          jumpi\n            /* \"--CODEGEN--\":29:30   */\n          0x00\n            /* \"--CODEGEN--\":26:27   */\n          dup1\n            /* \"--CODEGEN--\":19:31   */\n          revert\n            /* \"--CODEGEN--\":2:4   */\n        tag_46:\n            /* \"openzeppelin/ERC20.sol\":1786:1894  function balanceOf(address account) public view returns (uint256) {... */\n          dup2\n          add\n          swap1\n          dup1\n          dup1\n          calldataload\n          0xffffffffffffffffffffffffffffffffffffffff\n          and\n          swap1\n          0x20\n          add\n          swap1\n          swap3\n          swap2\n          swap1\n          pop\n          pop\n          pop\n          tag_47\n          jump\t// in\n        tag_45:\n          mload(0x40)\n          dup1\n          dup3\n          dup2\n          mstore\n          0x20\n          add\n          swap2\n          pop\n          pop\n          mload(0x40)\n          dup1\n          swap2\n          sub\n          swap1\n          return\n            /* \"openzeppelin/ERC20Detailed.sol\":934:1019  function symbol() public view returns (string memory) {... */\n        tag_11:\n          tag_48\n          tag_49\n          jump\t// in\n        tag_48:\n          mload(0x40)\n          dup1\n          dup1\n          0x20\n          add\n          dup3\n          dup2\n          sub\n          dup3\n          mstore\n          dup4\n          dup2\n          dup2\n          mload\n          dup2\n          mstore\n          0x20\n          add\n          swap2\n          pop\n          dup1\n          mload\n          swap1\n          0x20\n          add\n          swap1\n          dup1\n          dup4\n          dup4\n            /* \"--CODEGEN--\":23:24   */\n          0x00\n            /* \"--CODEGEN--\":8:108   */\n        tag_50:\n            /* \"--CODEGEN--\":33:36   */\n          dup4\n            /* \"--CODEGEN--\":30:31   */\n          dup2\n            /* \"--CODEGEN--\":27:37   */\n          lt\n            /* \"--CODEGEN--\":8:108   */\n          iszero\n          tag_52\n          jumpi\n            /* \"--CODEGEN--\":99:100   */\n          dup1\n            /* \"--CODEGEN--\":94:97   */\n          dup3\n            /* \"--CODEGEN--\":90:101   */\n          add\n            /* \"--CODEGEN--\":84:102   */\n          mload\n            /* \"--CODEGEN--\":80:81   */\n          dup2\n            /* \"--CODEGEN--\":75:78   */\n          dup5\n            /* \"--CODEGEN--\":71:82   */\n          add\n            /* \"--CODEGEN--\":64:103   */\n          mstore\n            /* \"--CODEGEN--\":52:54   */\n          0x20\n            /* \"--CODEGEN--\":49:50   */\n          dup2\n            /* \"--CODEGEN--\":45:55   */\n          add\n            /* \"--CODEGEN--\":40:55   */\n          swap1\n          pop\n            /* \"--CODEGEN--\":8:108   */\n          jump(tag_50)\n        tag_52:\n            /* \"--CODEGEN--\":12:26   */\n          pop\n            /* \"openzeppelin/ERC20Detailed.sol\":934:1019  function symbol() public view returns (string memory) {... */\n          pop\n          pop\n          pop\n          swap1\n          pop\n          swap1\n          dup2\n          add\n          swap1\n          0x1f\n          and\n          dup1\n          iszero\n          tag_53\n          jumpi\n          dup1\n          dup3\n          sub\n          dup1\n          mload\n          0x01\n          dup4\n          0x20\n          sub\n          0x0100\n          exp\n          sub\n          not\n          and\n          dup2\n          mstore\n          0x20\n          add\n          swap2\n          pop\n        tag_53:\n          pop\n          swap3\n          pop\n          pop\n          pop\n          mload(0x40)\n          dup1\n          swap2\n          sub\n          swap1\n          return\n            /* \"openzeppelin/roles/MinterRole.sol\":697:787  function addMinter(address account) public onlyMinter {... */\n        tag_12:\n          tag_54\n          0x04\n          dup1\n          calldatasize\n          sub\n            /* \"--CODEGEN--\":13:15   */\n          0x20\n            /* \"--CODEGEN--\":8:11   */\n          dup2\n            /* \"--CODEGEN--\":5:16   */\n          lt\n            /* \"--CODEGEN--\":2:4   */\n          iszero\n          tag_55\n          jumpi\n            /* \"--CODEGEN--\":29:30   */\n          0x00\n            /* \"--CODEGEN--\":26:27   */\n          dup1\n            /* \"--CODEGEN--\":19:31   */\n          revert\n            /* \"--CODEGEN--\":2:4   */\n        tag_55:\n            /* \"openzeppelin/roles/MinterRole.sol\":697:787  function addMinter(address account) public onlyMinter {... */\n          dup2\n          add\n          swap1\n          dup1\n          dup1\n          calldataload\n          0xffffffffffffffffffffffffffffffffffffffff\n          and\n          swap1\n          0x20\n          add\n          swap1\n          swap3\n          swap2\n          swap1\n          pop\n          pop\n          pop\n          tag_56\n          jump\t// in\n        tag_54:\n          stop\n            /* \"openzeppelin/roles/MinterRole.sol\":793:870  function renounceMinter() public {... */\n        tag_13:\n          tag_57\n          tag_58\n          jump\t// in\n        tag_57:\n          stop\n            /* \"UCMToken.sol\":441:544  function burn(address account, uint amount) external onlyMinter {... */\n        tag_14:\n          tag_59\n          0x04\n          dup1\n          calldatasize\n          sub\n            /* \"--CODEGEN--\":13:15   */\n          0x40\n            /* \"--CODEGEN--\":8:11   */\n          dup2\n            /* \"--CODEGEN--\":5:16   */\n          lt\n            /* \"--CODEGEN--\":2:4   */\n          iszero\n          tag_60\n          jumpi\n            /* \"--CODEGEN--\":29:30   */\n          0x00\n            /* \"--CODEGEN--\":26:27   */\n          dup1\n            /* \"--CODEGEN--\":19:31   */\n          revert\n            /* \"--CODEGEN--\":2:4   */\n        tag_60:\n            /* \"UCMToken.sol\":441:544  function burn(address account, uint amount) external onlyMinter {... */\n          dup2\n          add\n          swap1\n          dup1\n          dup1\n          calldataload\n          0xffffffffffffffffffffffffffffffffffffffff\n          and\n          swap1\n          0x20\n          add\n          swap1\n          swap3\n          swap2\n          swap1\n          dup1\n          calldataload\n          swap1\n          0x20\n          add\n          swap1\n          swap3\n          swap2\n          swap1\n          pop\n          pop\n          pop\n          tag_61\n          jump\t// in\n        tag_59:\n          stop\n            /* \"openzeppelin/ERC20.sol\":4576:4834  function decreaseAllowance(address spender, uint256 subtractedValue) public returns (bool) {... */\n        tag_15:\n          tag_62\n          0x04\n          dup1\n          calldatasize\n          sub\n            /* \"--CODEGEN--\":13:15   */\n          0x40\n            /* \"--CODEGEN--\":8:11   */\n          dup2\n            /* \"--CODEGEN--\":5:16   */\n          lt\n            /* \"--CODEGEN--\":2:4   */\n          iszero\n          tag_63\n          jumpi\n            /* \"--CODEGEN--\":29:30   */\n          0x00\n            /* \"--CODEGEN--\":26:27   */\n          dup1\n            /* \"--CODEGEN--\":19:31   */\n          revert\n            /* \"--CODEGEN--\":2:4   */\n        tag_63:\n            /* \"openzeppelin/ERC20.sol\":4576:4834  function decreaseAllowance(address spender, uint256 subtractedValue) public returns (bool) {... */\n          dup2\n          add\n          swap1\n          dup1\n          dup1\n          calldataload\n          0xffffffffffffffffffffffffffffffffffffffff\n          and\n          swap1\n          0x20\n          add\n          swap1\n          swap3\n          swap2\n          swap1\n          dup1\n          calldataload\n          swap1\n          0x20\n          add\n          swap1\n          swap3\n          swap2\n          swap1\n          pop\n          pop\n          pop\n          tag_64\n          jump\t// in\n        tag_62:\n          mload(0x40)\n          dup1\n          dup3\n          iszero\n          iszero\n          iszero\n          iszero\n          dup2\n          mstore\n          0x20\n          add\n          swap2\n          pop\n          pop\n          mload(0x40)\n          dup1\n          swap2\n          sub\n          swap1\n          return\n            /* \"openzeppelin/ERC20.sol\":2097:2252  function transfer(address recipient, uint256 amount) public returns (bool) {... */\n        tag_16:\n          tag_65\n          0x04\n          dup1\n          calldatasize\n          sub\n            /* \"--CODEGEN--\":13:15   */\n          0x40\n            /* \"--CODEGEN--\":8:11   */\n          dup2\n            /* \"--CODEGEN--\":5:16   */\n          lt\n            /* \"--CODEGEN--\":2:4   */\n          iszero\n          tag_66\n          jumpi\n            /* \"--CODEGEN--\":29:30   */\n          0x00\n            /* \"--CODEGEN--\":26:27   */\n          dup1\n            /* \"--CODEGEN--\":19:31   */\n          revert\n            /* \"--CODEGEN--\":2:4   */\n        tag_66:\n            /* \"openzeppelin/ERC20.sol\":2097:2252  function transfer(address recipient, uint256 amount) public returns (bool) {... */\n          dup2\n          add\n          swap1\n          dup1\n          dup1\n          calldataload\n          0xffffffffffffffffffffffffffffffffffffffff\n          and\n          swap1\n          0x20\n          add\n          swap1\n          swap3\n          swap2\n          swap1\n          dup1\n          calldataload\n          swap1\n          0x20\n          add\n          swap1\n          swap3\n          swap2\n          swap1\n          pop\n          pop\n          pop\n          tag_67\n          jump\t// in\n        tag_65:\n          mload(0x40)\n          dup1\n          dup3\n          iszero\n          iszero\n          iszero\n          iszero\n          dup2\n          mstore\n          0x20\n          add\n          swap2\n          pop\n          pop\n          mload(0x40)\n          dup1\n          swap2\n          sub\n          swap1\n          return\n            /* \"openzeppelin/roles/MinterRole.sol\":584:691  function isMinter(address account) public view returns (bool) {... */\n        tag_17:\n          tag_68\n          0x04\n          dup1\n          calldatasize\n          sub\n            /* \"--CODEGEN--\":13:15   */\n          0x20\n            /* \"--CODEGEN--\":8:11   */\n          dup2\n            /* \"--CODEGEN--\":5:16   */\n          lt\n            /* \"--CODEGEN--\":2:4   */\n          iszero\n          tag_69\n          jumpi\n            /* \"--CODEGEN--\":29:30   */\n          0x00\n            /* \"--CODEGEN--\":26:27   */\n          dup1\n            /* \"--CODEGEN--\":19:31   */\n          revert\n            /* \"--CODEGEN--\":2:4   */\n        tag_69:\n            /* \"openzeppelin/roles/MinterRole.sol\":584:691  function isMinter(address account) public view returns (bool) {... */\n          dup2\n          add\n          swap1\n          dup1\n          dup1\n          calldataload\n          0xffffffffffffffffffffffffffffffffffffffff\n          and\n          swap1\n          0x20\n          add\n          swap1\n          swap3\n          swap2\n          swap1\n          pop\n          pop\n          pop\n          tag_70\n          jump\t// in\n        tag_68:\n          mload(0x40)\n          dup1\n          dup3\n          iszero\n          iszero\n          iszero\n          iszero\n          dup2\n          mstore\n          0x20\n          add\n          swap2\n          pop\n          pop\n          mload(0x40)\n          dup1\n          swap2\n          sub\n          swap1\n          return\n            /* \"openzeppelin/ERC20.sol\":2310:2442  function allowance(address owner, address spender) public view returns (uint256) {... */\n        tag_18:\n          tag_71\n          0x04\n          dup1\n          calldatasize\n          sub\n            /* \"--CODEGEN--\":13:15   */\n          0x40\n            /* \"--CODEGEN--\":8:11   */\n          dup2\n            /* \"--CODEGEN--\":5:16   */\n          lt\n            /* \"--CODEGEN--\":2:4   */\n          iszero\n          tag_72\n          jumpi\n            /* \"--CODEGEN--\":29:30   */\n          0x00\n            /* \"--CODEGEN--\":26:27   */\n          dup1\n            /* \"--CODEGEN--\":19:31   */\n          revert\n            /* \"--CODEGEN--\":2:4   */\n        tag_72:\n            /* \"openzeppelin/ERC20.sol\":2310:2442  function allowance(address owner, address spender) public view returns (uint256) {... */\n          dup2\n          add\n          swap1\n          dup1\n          dup1\n          calldataload\n          0xffffffffffffffffffffffffffffffffffffffff\n          and\n          swap1\n          0x20\n          add\n          swap1\n          swap3\n          swap2\n          swap1\n          dup1\n          calldataload\n          0xffffffffffffffffffffffffffffffffffffffff\n          and\n          swap1\n          0x20\n          add\n          swap1\n          swap3\n          swap2\n          swap1\n          pop\n          pop\n          pop\n          tag_73\n          jump\t// in\n        tag_71:\n          mload(0x40)\n          dup1\n          dup3\n          dup2\n          mstore\n          0x20\n          add\n          swap2\n          pop\n          pop\n          mload(0x40)\n          dup1\n          swap2\n          sub\n          swap1\n          return\n            /* \"UCMToken.sol\":550:679  function stakeTransfer(address stakeOwner, uint amount) external onlyMinter {... */\n        tag_19:\n          tag_74\n          0x04\n          dup1\n          calldatasize\n          sub\n            /* \"--CODEGEN--\":13:15   */\n          0x40\n            /* \"--CODEGEN--\":8:11   */\n          dup2\n            /* \"--CODEGEN--\":5:16   */\n          lt\n            /* \"--CODEGEN--\":2:4   */\n          iszero\n          tag_75\n          jumpi\n            /* \"--CODEGEN--\":29:30   */\n          0x00\n            /* \"--CODEGEN--\":26:27   */\n          dup1\n            /* \"--CODEGEN--\":19:31   */\n          revert\n            /* \"--CODEGEN--\":2:4   */\n        tag_75:\n            /* \"UCMToken.sol\":550:679  function stakeTransfer(address stakeOwner, uint amount) external onlyMinter {... */\n          dup2\n          add\n          swap1\n          dup1\n          dup1\n          calldataload\n          0xffffffffffffffffffffffffffffffffffffffff\n          and\n          swap1\n          0x20\n          add\n          swap1\n          swap3\n          swap2\n          swap1\n          dup1\n          calldataload\n          swap1\n          0x20\n          add\n          swap1\n          swap3\n          swap2\n          swap1\n          pop\n          pop\n          pop\n          tag_76\n          jump\t// in\n        tag_74:\n          stop\n            /* \"openzeppelin/ERC20Detailed.sol\":740:821  function name() public view returns (string memory) {... */\n        tag_24:\n            /* \"openzeppelin/ERC20Detailed.sol\":777:790  string memory */\n          0x60\n            /* \"openzeppelin/ERC20Detailed.sol\":809:814  _name */\n          0x03\n            /* \"openzeppelin/ERC20Detailed.sol\":802:814  return _name */\n          dup1\n          sload\n          0x01\n          dup2\n          0x01\n          and\n          iszero\n          0x0100\n          mul\n          sub\n          and\n          0x02\n          swap1\n          div\n          dup1\n          0x1f\n          add\n          0x20\n          dup1\n          swap2\n          div\n          mul\n          0x20\n          add\n          mload(0x40)\n          swap1\n          dup2\n          add\n          0x40\n          mstore\n          dup1\n          swap3\n          swap2\n          swap1\n          dup2\n          dup2\n          mstore\n          0x20\n          add\n          dup3\n          dup1\n          sload\n          0x01\n          dup2\n          0x01\n          and\n          iszero\n          0x0100\n          mul\n          sub\n          and\n          0x02\n          swap1\n          div\n          dup1\n          iszero\n          tag_78\n          jumpi\n          dup1\n          0x1f\n          lt\n          tag_79\n          jumpi\n          0x0100\n          dup1\n          dup4\n          sload\n          div\n          mul\n          dup4\n          mstore\n          swap2\n          0x20\n          add\n          swap2\n          jump(tag_78)\n        tag_79:\n          dup3\n          add\n          swap2\n          swap1\n          0x00\n          mstore\n          keccak256(0x00, 0x20)\n          swap1\n        tag_80:\n          dup2\n          sload\n          dup2\n          mstore\n          swap1\n          0x01\n          add\n          swap1\n          0x20\n          add\n          dup1\n          dup4\n          gt\n          tag_80\n          jumpi\n          dup3\n          swap1\n          sub\n          0x1f\n          and\n          dup3\n          add\n          swap2\n        tag_78:\n          pop\n          pop\n          pop\n          pop\n          pop\n          swap1\n          pop\n            /* \"openzeppelin/ERC20Detailed.sol\":740:821  function name() public view returns (string memory) {... */\n          swap1\n          jump\t// out\n            /* \"openzeppelin/ERC20.sol\":2580:2729  function approve(address spender, uint256 amount) public returns (bool) {... */\n        tag_31:\n            /* \"openzeppelin/ERC20.sol\":2646:2650  bool */\n          0x00\n            /* \"openzeppelin/ERC20.sol\":2662:2701  _approve(_msgSender(), spender, amount) */\n          tag_82\n            /* \"openzeppelin/ERC20.sol\":2671:2683  _msgSender() */\n          tag_83\n            /* \"openzeppelin/ERC20.sol\":2671:2681  _msgSender */\n          tag_84\n            /* \"openzeppelin/ERC20.sol\":2671:2683  _msgSender() */\n          jump\t// in\n        tag_83:\n            /* \"openzeppelin/ERC20.sol\":2685:2692  spender */\n          dup5\n            /* \"openzeppelin/ERC20.sol\":2694:2700  amount */\n          dup5\n            /* \"openzeppelin/ERC20.sol\":2662:2670  _approve */\n          tag_85\n            /* \"openzeppelin/ERC20.sol\":2662:2701  _approve(_msgSender(), spender, amount) */\n          jump\t// in\n        tag_82:\n            /* \"openzeppelin/ERC20.sol\":2718:2722  true */\n          0x01\n            /* \"openzeppelin/ERC20.sol\":2711:2722  return true */\n          swap1\n          pop\n            /* \"openzeppelin/ERC20.sol\":2580:2729  function approve(address spender, uint256 amount) public returns (bool) {... */\n          swap3\n          swap2\n          pop\n          pop\n          jump\t// out\n            /* \"openzeppelin/ERC20.sol\":1639:1728  function totalSupply() public view returns (uint256) {... */\n        tag_33:\n            /* \"openzeppelin/ERC20.sol\":1683:1690  uint256 */\n          0x00\n            /* \"openzeppelin/ERC20.sol\":1709:1721  _totalSupply */\n          sload(0x02)\n            /* \"openzeppelin/ERC20.sol\":1702:1721  return _totalSupply */\n          swap1\n          pop\n            /* \"openzeppelin/ERC20.sol\":1639:1728  function totalSupply() public view returns (uint256) {... */\n          swap1\n          jump\t// out\n            /* \"openzeppelin/ERC20.sol\":3187:3487  function transferFrom(address sender, address recipient, uint256 amount) public returns (bool) {... */\n        tag_36:\n            /* \"openzeppelin/ERC20.sol\":3276:3280  bool */\n          0x00\n            /* \"openzeppelin/ERC20.sol\":3292:3328  _transfer(sender, recipient, amount) */\n          tag_88\n            /* \"openzeppelin/ERC20.sol\":3302:3308  sender */\n          dup5\n            /* \"openzeppelin/ERC20.sol\":3310:3319  recipient */\n          dup5\n            /* \"openzeppelin/ERC20.sol\":3321:3327  amount */\n          dup5\n            /* \"openzeppelin/ERC20.sol\":3292:3301  _transfer */\n          tag_89\n            /* \"openzeppelin/ERC20.sol\":3292:3328  _transfer(sender, recipient, amount) */\n          jump\t// in\n        tag_88:\n            /* \"openzeppelin/ERC20.sol\":3338:3459  _approve(sender, _msgSender(), _allowances[sender][_msgSender()].sub(amount, \"ERC20: transfer amount exceeds allowance\")) */\n          tag_90\n            /* \"openzeppelin/ERC20.sol\":3347:3353  sender */\n          dup5\n            /* \"openzeppelin/ERC20.sol\":3355:3367  _msgSender() */\n          tag_91\n            /* \"openzeppelin/ERC20.sol\":3355:3365  _msgSender */\n          tag_84\n            /* \"openzeppelin/ERC20.sol\":3355:3367  _msgSender() */\n          jump\t// in\n        tag_91:\n            /* \"openzeppelin/ERC20.sol\":3369:3458  _allowances[sender][_msgSender()].sub(amount, \"ERC20: transfer amount exceeds allowance\") */\n          tag_92\n            /* \"openzeppelin/ERC20.sol\":3407:3413  amount */\n          dup6\n            /* \"openzeppelin/ERC20.sol\":3369:3458  _allowances[sender][_msgSender()].sub(amount, \"ERC20: transfer amount exceeds allowance\") */\n          mload(0x40)\n          dup1\n          0x60\n          add\n          0x40\n          mstore\n          dup1\n          0x28\n          dup2\n          mstore\n          0x20\n          add\n          data_974d1b4421da69cc60b481194f0dad36a5bb4e23da810da7a7fb30cdba178330\n          0x28\n          swap2\n          codecopy\n            /* \"openzeppelin/ERC20.sol\":3369:3380  _allowances */\n          0x01\n            /* \"openzeppelin/ERC20.sol\":3369:3388  _allowances[sender] */\n          0x00\n            /* \"openzeppelin/ERC20.sol\":3381:3387  sender */\n          dup12\n            /* \"openzeppelin/ERC20.sol\":3369:3388  _allowances[sender] */\n          0xffffffffffffffffffffffffffffffffffffffff\n          and\n          0xffffffffffffffffffffffffffffffffffffffff\n          and\n          dup2\n          mstore\n          0x20\n          add\n          swap1\n          dup2\n          mstore\n          0x20\n          add\n          0x00\n          keccak256\n            /* \"openzeppelin/ERC20.sol\":3369:3402  _allowances[sender][_msgSender()] */\n          0x00\n            /* \"openzeppelin/ERC20.sol\":3389:3401  _msgSender() */\n          tag_93\n            /* \"openzeppelin/ERC20.sol\":3389:3399  _msgSender */\n          tag_84\n            /* \"openzeppelin/ERC20.sol\":3389:3401  _msgSender() */\n          jump\t// in\n        tag_93:\n            /* \"openzeppelin/ERC20.sol\":3369:3402  _allowances[sender][_msgSender()] */\n          0xffffffffffffffffffffffffffffffffffffffff\n          and\n          0xffffffffffffffffffffffffffffffffffffffff\n          and\n          dup2\n          mstore\n          0x20\n          add\n          swap1\n          dup2\n          mstore\n          0x20\n          add\n          0x00\n          keccak256\n          sload\n            /* \"openzeppelin/ERC20.sol\":3369:3406  _allowances[sender][_msgSender()].sub */\n          tag_94\n          swap1\n            /* \"openzeppelin/ERC20.sol\":3369:3458  _allowances[sender][_msgSender()].sub(amount, \"ERC20: transfer amount exceeds allowance\") */\n          swap3\n          swap2\n          swap1\n          0xffffffff\n          and\n          jump\t// in\n        tag_92:\n            /* \"openzeppelin/ERC20.sol\":3338:3346  _approve */\n          tag_85\n            /* \"openzeppelin/ERC20.sol\":3338:3459  _approve(sender, _msgSender(), _allowances[sender][_msgSender()].sub(amount, \"ERC20: transfer amount exceeds allowance\")) */\n          jump\t// in\n        tag_90:\n            /* \"openzeppelin/ERC20.sol\":3476:3480  true */\n          0x01\n            /* \"openzeppelin/ERC20.sol\":3469:3480  return true */\n          swap1\n          pop\n            /* \"openzeppelin/ERC20.sol\":3187:3487  function transferFrom(address sender, address recipient, uint256 amount) public returns (bool) {... */\n          swap4\n          swap3\n          pop\n          pop\n          pop\n          jump\t// out\n            /* \"openzeppelin/ERC20Detailed.sol\":1568:1649  function decimals() public view returns (uint8) {... */\n        tag_38:\n            /* \"openzeppelin/ERC20Detailed.sol\":1609:1614  uint8 */\n          0x00\n            /* \"openzeppelin/ERC20Detailed.sol\":1633:1642  _decimals */\n          0x05\n          0x00\n          swap1\n          sload\n          swap1\n          0x0100\n          exp\n          swap1\n          div\n          0xff\n          and\n            /* \"openzeppelin/ERC20Detailed.sol\":1626:1642  return _decimals */\n          swap1\n          pop\n            /* \"openzeppelin/ERC20Detailed.sol\":1568:1649  function decimals() public view returns (uint8) {... */\n          swap1\n          jump\t// out\n            /* \"openzeppelin/ERC20.sol\":3882:4089  function increaseAllowance(address spender, uint256 addedValue) public returns (bool) {... */\n        tag_41:\n            /* \"openzeppelin/ERC20.sol\":3962:3966  bool */\n          0x00\n            /* \"openzeppelin/ERC20.sol\":3978:4061  _approve(_msgSender(), spender, _allowances[_msgSender()][spender].add(addedValue)) */\n          tag_97\n            /* \"openzeppelin/ERC20.sol\":3987:3999  _msgSender() */\n          tag_98\n            /* \"openzeppelin/ERC20.sol\":3987:3997  _msgSender */\n          tag_84\n            /* \"openzeppelin/ERC20.sol\":3987:3999  _msgSender() */\n          jump\t// in\n        tag_98:\n            /* \"openzeppelin/ERC20.sol\":4001:4008  spender */\n          dup5\n            /* \"openzeppelin/ERC20.sol\":4010:4060  _allowances[_msgSender()][spender].add(addedValue) */\n          tag_99\n            /* \"openzeppelin/ERC20.sol\":4049:4059  addedValue */\n          dup6\n            /* \"openzeppelin/ERC20.sol\":4010:4021  _allowances */\n          0x01\n            /* \"openzeppelin/ERC20.sol\":4010:4035  _allowances[_msgSender()] */\n          0x00\n            /* \"openzeppelin/ERC20.sol\":4022:4034  _msgSender() */\n          tag_100\n            /* \"openzeppelin/ERC20.sol\":4022:4032  _msgSender */\n          tag_84\n            /* \"openzeppelin/ERC20.sol\":4022:4034  _msgSender() */\n          jump\t// in\n        tag_100:\n            /* \"openzeppelin/ERC20.sol\":4010:4035  _allowances[_msgSender()] */\n          0xffffffffffffffffffffffffffffffffffffffff\n          and\n          0xffffffffffffffffffffffffffffffffffffffff\n          and\n          dup2\n          mstore\n          0x20\n          add\n          swap1\n          dup2\n          mstore\n          0x20\n          add\n          0x00\n          keccak256\n            /* \"openzeppelin/ERC20.sol\":4010:4044  _allowances[_msgSender()][spender] */\n          0x00\n            /* \"openzeppelin/ERC20.sol\":4036:4043  spender */\n          dup10\n            /* \"openzeppelin/ERC20.sol\":4010:4044  _allowances[_msgSender()][spender] */\n          0xffffffffffffffffffffffffffffffffffffffff\n          and\n          0xffffffffffffffffffffffffffffffffffffffff\n          and\n          dup2\n          mstore\n          0x20\n          add\n          swap1\n          dup2\n          mstore\n          0x20\n          add\n          0x00\n          keccak256\n          sload\n            /* \"openzeppelin/ERC20.sol\":4010:4048  _allowances[_msgSender()][spender].add */\n          tag_101\n          swap1\n            /* \"openzeppelin/ERC20.sol\":4010:4060  _allowances[_msgSender()][spender].add(addedValue) */\n          swap2\n          swap1\n          0xffffffff\n          and\n          jump\t// in\n        tag_99:\n            /* \"openzeppelin/ERC20.sol\":3978:3986  _approve */\n          tag_85\n            /* \"openzeppelin/ERC20.sol\":3978:4061  _approve(_msgSender(), spender, _allowances[_msgSender()][spender].add(addedValue)) */\n          jump\t// in\n        tag_97:\n            /* \"openzeppelin/ERC20.sol\":4078:4082  true */\n          0x01\n            /* \"openzeppelin/ERC20.sol\":4071:4082  return true */\n          swap1\n          pop\n            /* \"openzeppelin/ERC20.sol\":3882:4089  function increaseAllowance(address spender, uint256 addedValue) public returns (bool) {... */\n          swap3\n          swap2\n          pop\n          pop\n          jump\t// out\n            /* \"UCMToken.sol\":332:435  function mint(address account, uint amount) external onlyMinter {... */\n        tag_44:\n            /* \"openzeppelin/roles/MinterRole.sol\":485:507  isMinter(_msgSender()) */\n          tag_103\n            /* \"openzeppelin/roles/MinterRole.sol\":494:506  _msgSender() */\n          tag_104\n            /* \"openzeppelin/roles/MinterRole.sol\":494:504  _msgSender */\n          tag_84\n            /* \"openzeppelin/roles/MinterRole.sol\":494:506  _msgSender() */\n          jump\t// in\n        tag_104:\n            /* \"openzeppelin/roles/MinterRole.sol\":485:493  isMinter */\n          tag_70\n            /* \"openzeppelin/roles/MinterRole.sol\":485:507  isMinter(_msgSender()) */\n          jump\t// in\n        tag_103:\n            /* \"openzeppelin/roles/MinterRole.sol\":477:560  require(isMinter(_msgSender()), \"MinterRole: caller does not have the Minter role\") */\n          tag_105\n          jumpi\n          mload(0x40)\n          0x08c379a000000000000000000000000000000000000000000000000000000000\n          dup2\n          mstore\n          0x04\n          add\n          dup1\n          dup1\n          0x20\n          add\n          dup3\n          dup2\n          sub\n          dup3\n          mstore\n          0x30\n          dup2\n          mstore\n          0x20\n          add\n          dup1\n          data_79ecb50133735b20228dea9d08fe36a462bbc1350f591a146908848db91104cd\n          0x30\n          swap2\n          codecopy\n          0x40\n          add\n          swap2\n          pop\n          pop\n          mload(0x40)\n          dup1\n          swap2\n          sub\n          swap1\n          revert\n        tag_105:\n            /* \"UCMToken.sol\":406:428  _mint(account, amount) */\n          tag_107\n            /* \"UCMToken.sol\":412:419  account */\n          dup3\n            /* \"UCMToken.sol\":421:427  amount */\n          dup3\n            /* \"UCMToken.sol\":406:411  _mint */\n          tag_108\n            /* \"UCMToken.sol\":406:428  _mint(account, amount) */\n          jump\t// in\n        tag_107:\n            /* \"UCMToken.sol\":332:435  function mint(address account, uint amount) external onlyMinter {... */\n          pop\n          pop\n          jump\t// out\n            /* \"openzeppelin/ERC20.sol\":1786:1894  function balanceOf(address account) public view returns (uint256) {... */\n        tag_47:\n            /* \"openzeppelin/ERC20.sol\":1843:1850  uint256 */\n          0x00\n            /* \"openzeppelin/ERC20.sol\":1869:1878  _balances */\n          dup1\n            /* \"openzeppelin/ERC20.sol\":1869:1887  _balances[account] */\n          0x00\n            /* \"openzeppelin/ERC20.sol\":1879:1886  account */\n          dup4\n            /* \"openzeppelin/ERC20.sol\":1869:1887  _balances[account] */\n          0xffffffffffffffffffffffffffffffffffffffff\n          and\n          0xffffffffffffffffffffffffffffffffffffffff\n          and\n          dup2\n          mstore\n          0x20\n          add\n          swap1\n          dup2\n          mstore\n          0x20\n          add\n          0x00\n          keccak256\n          sload\n            /* \"openzeppelin/ERC20.sol\":1862:1887  return _balances[account] */\n          swap1\n          pop\n            /* \"openzeppelin/ERC20.sol\":1786:1894  function balanceOf(address account) public view returns (uint256) {... */\n          swap2\n          swap1\n          pop\n          jump\t// out\n            /* \"openzeppelin/ERC20Detailed.sol\":934:1019  function symbol() public view returns (string memory) {... */\n        tag_49:\n            /* \"openzeppelin/ERC20Detailed.sol\":973:986  string memory */\n          0x60\n            /* \"openzeppelin/ERC20Detailed.sol\":1005:1012  _symbol */\n          0x04\n            /* \"openzeppelin/ERC20Detailed.sol\":998:1012  return _symbol */\n          dup1\n          sload\n          0x01\n          dup2\n          0x01\n          and\n          iszero\n          0x0100\n          mul\n          sub\n          and\n          0x02\n          swap1\n          div\n          dup1\n          0x1f\n          add\n          0x20\n          dup1\n          swap2\n          div\n          mul\n          0x20\n          add\n          mload(0x40)\n          swap1\n          dup2\n          add\n          0x40\n          mstore\n          dup1\n          swap3\n          swap2\n          swap1\n          dup2\n          dup2\n          mstore\n          0x20\n          add\n          dup3\n          dup1\n          sload\n          0x01\n          dup2\n          0x01\n          and\n          iszero\n          0x0100\n          mul\n          sub\n          and\n          0x02\n          swap1\n          div\n          dup1\n          iszero\n          tag_111\n          jumpi\n          dup1\n          0x1f\n          lt\n          tag_112\n          jumpi\n          0x0100\n          dup1\n          dup4\n          sload\n          div\n          mul\n          dup4\n          mstore\n          swap2\n          0x20\n          add\n          swap2\n          jump(tag_111)\n        tag_112:\n          dup3\n          add\n          swap2\n          swap1\n          0x00\n          mstore\n          keccak256(0x00, 0x20)\n          swap1\n        tag_113:\n          dup2\n          sload\n          dup2\n          mstore\n          swap1\n          0x01\n          add\n          swap1\n          0x20\n          add\n          dup1\n          dup4\n          gt\n          tag_113\n          jumpi\n          dup3\n          swap1\n          sub\n          0x1f\n          and\n          dup3\n          add\n          swap2\n        tag_111:\n          pop\n          pop\n          pop\n          pop\n          pop\n          swap1\n          pop\n            /* \"openzeppelin/ERC20Detailed.sol\":934:1019  function symbol() public view returns (string memory) {... */\n          swap1\n          jump\t// out\n            /* \"openzeppelin/roles/MinterRole.sol\":697:787  function addMinter(address account) public onlyMinter {... */\n        tag_56:\n            /* \"openzeppelin/roles/MinterRole.sol\":485:507  isMinter(_msgSender()) */\n          tag_115\n            /* \"openzeppelin/roles/MinterRole.sol\":494:506  _msgSender() */\n          tag_116\n            /* \"openzeppelin/roles/MinterRole.sol\":494:504  _msgSender */\n          tag_84\n            /* \"openzeppelin/roles/MinterRole.sol\":494:506  _msgSender() */\n          jump\t// in\n        tag_116:\n            /* \"openzeppelin/roles/MinterRole.sol\":485:493  isMinter */\n          tag_70\n            /* \"openzeppelin/roles/MinterRole.sol\":485:507  isMinter(_msgSender()) */\n          jump\t// in\n        tag_115:\n            /* \"openzeppelin/roles/MinterRole.sol\":477:560  require(isMinter(_msgSender()), \"MinterRole: caller does not have the Minter role\") */\n          tag_117\n          jumpi\n          mload(0x40)\n          0x08c379a000000000000000000000000000000000000000000000000000000000\n          dup2\n          mstore\n          0x04\n          add\n          dup1\n          dup1\n          0x20\n          add\n          dup3\n          dup2\n          sub\n          dup3\n          mstore\n          0x30\n          dup2\n          mstore\n          0x20\n          add\n          dup1\n          data_79ecb50133735b20228dea9d08fe36a462bbc1350f591a146908848db91104cd\n          0x30\n          swap2\n          codecopy\n          0x40\n          add\n          swap2\n          pop\n          pop\n          mload(0x40)\n          dup1\n          swap2\n          sub\n          swap1\n          revert\n        tag_117:\n            /* \"openzeppelin/roles/MinterRole.sol\":761:780  _addMinter(account) */\n          tag_119\n            /* \"openzeppelin/roles/MinterRole.sol\":772:779  account */\n          dup2\n            /* \"openzeppelin/roles/MinterRole.sol\":761:771  _addMinter */\n          tag_120\n            /* \"openzeppelin/roles/MinterRole.sol\":761:780  _addMinter(account) */\n          jump\t// in\n        tag_119:\n            /* \"openzeppelin/roles/MinterRole.sol\":697:787  function addMinter(address account) public onlyMinter {... */\n          pop\n          jump\t// out\n            /* \"openzeppelin/roles/MinterRole.sol\":793:870  function renounceMinter() public {... */\n        tag_58:\n            /* \"openzeppelin/roles/MinterRole.sol\":836:863  _removeMinter(_msgSender()) */\n          tag_122\n            /* \"openzeppelin/roles/MinterRole.sol\":850:862  _msgSender() */\n          tag_123\n            /* \"openzeppelin/roles/MinterRole.sol\":850:860  _msgSender */\n          tag_84\n            /* \"openzeppelin/roles/MinterRole.sol\":850:862  _msgSender() */\n          jump\t// in\n        tag_123:\n            /* \"openzeppelin/roles/MinterRole.sol\":836:849  _removeMinter */\n          tag_124\n            /* \"openzeppelin/roles/MinterRole.sol\":836:863  _removeMinter(_msgSender()) */\n          jump\t// in\n        tag_122:\n            /* \"openzeppelin/roles/MinterRole.sol\":793:870  function renounceMinter() public {... */\n          jump\t// out\n            /* \"UCMToken.sol\":441:544  function burn(address account, uint amount) external onlyMinter {... */\n        tag_61:\n            /* \"openzeppelin/roles/MinterRole.sol\":485:507  isMinter(_msgSender()) */\n          tag_126\n            /* \"openzeppelin/roles/MinterRole.sol\":494:506  _msgSender() */\n          tag_127\n            /* \"openzeppelin/roles/MinterRole.sol\":494:504  _msgSender */\n          tag_84\n            /* \"openzeppelin/roles/MinterRole.sol\":494:506  _msgSender() */\n          jump\t// in\n        tag_127:\n            /* \"openzeppelin/roles/MinterRole.sol\":485:493  isMinter */\n          tag_70\n            /* \"openzeppelin/roles/MinterRole.sol\":485:507  isMinter(_msgSender()) */\n          jump\t// in\n        tag_126:\n            /* \"openzeppelin/roles/MinterRole.sol\":477:560  require(isMinter(_msgSender()), \"MinterRole: caller does not have the Minter role\") */\n          tag_128\n          jumpi\n          mload(0x40)\n          0x08c379a000000000000000000000000000000000000000000000000000000000\n          dup2\n          mstore\n          0x04\n          add\n          dup1\n          dup1\n          0x20\n          add\n          dup3\n          dup2\n          sub\n          dup3\n          mstore\n          0x30\n          dup2\n          mstore\n          0x20\n          add\n          dup1\n          data_79ecb50133735b20228dea9d08fe36a462bbc1350f591a146908848db91104cd\n          0x30\n          swap2\n          codecopy\n          0x40\n          add\n          swap2\n          pop\n          pop\n          mload(0x40)\n          dup1\n          swap2\n          sub\n          swap1\n          revert\n        tag_128:\n            /* \"UCMToken.sol\":515:537  _burn(account, amount) */\n          tag_130\n            /* \"UCMToken.sol\":521:528  account */\n          dup3\n            /* \"UCMToken.sol\":530:536  amount */\n          dup3\n            /* \"UCMToken.sol\":515:520  _burn */\n          tag_131\n            /* \"UCMToken.sol\":515:537  _burn(account, amount) */\n          jump\t// in\n        tag_130:\n            /* \"UCMToken.sol\":441:544  function burn(address account, uint amount) external onlyMinter {... */\n          pop\n          pop\n          jump\t// out\n            /* \"openzeppelin/ERC20.sol\":4576:4834  function decreaseAllowance(address spender, uint256 subtractedValue) public returns (bool) {... */\n        tag_64:\n            /* \"openzeppelin/ERC20.sol\":4661:4665  bool */\n          0x00\n            /* \"openzeppelin/ERC20.sol\":4677:4806  _approve(_msgSender(), spender, _allowances[_msgSender()][spender].sub(subtractedValue, \"ERC20: decreased allowance below zero\")) */\n          tag_133\n            /* \"openzeppelin/ERC20.sol\":4686:4698  _msgSender() */\n          tag_134\n            /* \"openzeppelin/ERC20.sol\":4686:4696  _msgSender */\n          tag_84\n            /* \"openzeppelin/ERC20.sol\":4686:4698  _msgSender() */\n          jump\t// in\n        tag_134:\n            /* \"openzeppelin/ERC20.sol\":4700:4707  spender */\n          dup5\n            /* \"openzeppelin/ERC20.sol\":4709:4805  _allowances[_msgSender()][spender].sub(subtractedValue, \"ERC20: decreased allowance below zero\") */\n          tag_135\n            /* \"openzeppelin/ERC20.sol\":4748:4763  subtractedValue */\n          dup6\n            /* \"openzeppelin/ERC20.sol\":4709:4805  _allowances[_msgSender()][spender].sub(subtractedValue, \"ERC20: decreased allowance below zero\") */\n          mload(0x40)\n          dup1\n          0x60\n          add\n          0x40\n          mstore\n          dup1\n          0x25\n          dup2\n          mstore\n          0x20\n          add\n          data_f8b476f7d28209d77d4a4ac1fe36b9f8259aa1bb6bddfa6e89de7e51615cf8a8\n          0x25\n          swap2\n          codecopy\n            /* \"openzeppelin/ERC20.sol\":4709:4720  _allowances */\n          0x01\n            /* \"openzeppelin/ERC20.sol\":4709:4734  _allowances[_msgSender()] */\n          0x00\n            /* \"openzeppelin/ERC20.sol\":4721:4733  _msgSender() */\n          tag_136\n            /* \"openzeppelin/ERC20.sol\":4721:4731  _msgSender */\n          tag_84\n            /* \"openzeppelin/ERC20.sol\":4721:4733  _msgSender() */\n          jump\t// in\n        tag_136:\n            /* \"openzeppelin/ERC20.sol\":4709:4734  _allowances[_msgSender()] */\n          0xffffffffffffffffffffffffffffffffffffffff\n          and\n          0xffffffffffffffffffffffffffffffffffffffff\n          and\n          dup2\n          mstore\n          0x20\n          add\n          swap1\n          dup2\n          mstore\n          0x20\n          add\n          0x00\n          keccak256\n            /* \"openzeppelin/ERC20.sol\":4709:4743  _allowances[_msgSender()][spender] */\n          0x00\n            /* \"openzeppelin/ERC20.sol\":4735:4742  spender */\n          dup11\n            /* \"openzeppelin/ERC20.sol\":4709:4743  _allowances[_msgSender()][spender] */\n          0xffffffffffffffffffffffffffffffffffffffff\n          and\n          0xffffffffffffffffffffffffffffffffffffffff\n          and\n          dup2\n          mstore\n          0x20\n          add\n          swap1\n          dup2\n          mstore\n          0x20\n          add\n          0x00\n          keccak256\n          sload\n            /* \"openzeppelin/ERC20.sol\":4709:4747  _allowances[_msgSender()][spender].sub */\n          tag_94\n          swap1\n            /* \"openzeppelin/ERC20.sol\":4709:4805  _allowances[_msgSender()][spender].sub(subtractedValue, \"ERC20: decreased allowance below zero\") */\n          swap3\n          swap2\n          swap1\n          0xffffffff\n          and\n          jump\t// in\n        tag_135:\n            /* \"openzeppelin/ERC20.sol\":4677:4685  _approve */\n          tag_85\n            /* \"openzeppelin/ERC20.sol\":4677:4806  _approve(_msgSender(), spender, _allowances[_msgSender()][spender].sub(subtractedValue, \"ERC20: decreased allowance below zero\")) */\n          jump\t// in\n        tag_133:\n            /* \"openzeppelin/ERC20.sol\":4823:4827  true */\n          0x01\n            /* \"openzeppelin/ERC20.sol\":4816:4827  return true */\n          swap1\n          pop\n            /* \"openzeppelin/ERC20.sol\":4576:4834  function decreaseAllowance(address spender, uint256 subtractedValue) public returns (bool) {... */\n          swap3\n          swap2\n          pop\n          pop\n          jump\t// out\n            /* \"openzeppelin/ERC20.sol\":2097:2252  function transfer(address recipient, uint256 amount) public returns (bool) {... */\n        tag_67:\n            /* \"openzeppelin/ERC20.sol\":2166:2170  bool */\n          0x00\n            /* \"openzeppelin/ERC20.sol\":2182:2224  _transfer(_msgSender(), recipient, amount) */\n          tag_138\n            /* \"openzeppelin/ERC20.sol\":2192:2204  _msgSender() */\n          tag_139\n            /* \"openzeppelin/ERC20.sol\":2192:2202  _msgSender */\n          tag_84\n            /* \"openzeppelin/ERC20.sol\":2192:2204  _msgSender() */\n          jump\t// in\n        tag_139:\n            /* \"openzeppelin/ERC20.sol\":2206:2215  recipient */\n          dup5\n            /* \"openzeppelin/ERC20.sol\":2217:2223  amount */\n          dup5\n            /* \"openzeppelin/ERC20.sol\":2182:2191  _transfer */\n          tag_89\n            /* \"openzeppelin/ERC20.sol\":2182:2224  _transfer(_msgSender(), recipient, amount) */\n          jump\t// in\n        tag_138:\n            /* \"openzeppelin/ERC20.sol\":2241:2245  true */\n          0x01\n            /* \"openzeppelin/ERC20.sol\":2234:2245  return true */\n          swap1\n          pop\n            /* \"openzeppelin/ERC20.sol\":2097:2252  function transfer(address recipient, uint256 amount) public returns (bool) {... */\n          swap3\n          swap2\n          pop\n          pop\n          jump\t// out\n            /* \"openzeppelin/roles/MinterRole.sol\":584:691  function isMinter(address account) public view returns (bool) {... */\n        tag_70:\n            /* \"openzeppelin/roles/MinterRole.sol\":640:644  bool */\n          0x00\n            /* \"openzeppelin/roles/MinterRole.sol\":663:684  _minters.has(account) */\n          tag_141\n            /* \"openzeppelin/roles/MinterRole.sol\":676:683  account */\n          dup3\n            /* \"openzeppelin/roles/MinterRole.sol\":663:671  _minters */\n          0x06\n            /* \"openzeppelin/roles/MinterRole.sol\":663:675  _minters.has */\n          tag_142\n          swap1\n            /* \"openzeppelin/roles/MinterRole.sol\":663:684  _minters.has(account) */\n          swap2\n          swap1\n          0xffffffff\n          and\n          jump\t// in\n        tag_141:\n            /* \"openzeppelin/roles/MinterRole.sol\":656:684  return _minters.has(account) */\n          swap1\n          pop\n            /* \"openzeppelin/roles/MinterRole.sol\":584:691  function isMinter(address account) public view returns (bool) {... */\n          swap2\n          swap1\n          pop\n          jump\t// out\n            /* \"openzeppelin/ERC20.sol\":2310:2442  function allowance(address owner, address spender) public view returns (uint256) {... */\n        tag_73:\n            /* \"openzeppelin/ERC20.sol\":2382:2389  uint256 */\n          0x00\n            /* \"openzeppelin/ERC20.sol\":2408:2419  _allowances */\n          0x01\n            /* \"openzeppelin/ERC20.sol\":2408:2426  _allowances[owner] */\n          0x00\n            /* \"openzeppelin/ERC20.sol\":2420:2425  owner */\n          dup5\n            /* \"openzeppelin/ERC20.sol\":2408:2426  _allowances[owner] */\n          0xffffffffffffffffffffffffffffffffffffffff\n          and\n          0xffffffffffffffffffffffffffffffffffffffff\n          and\n          dup2\n          mstore\n          0x20\n          add\n          swap1\n          dup2\n          mstore\n          0x20\n          add\n          0x00\n          keccak256\n            /* \"openzeppelin/ERC20.sol\":2408:2435  _allowances[owner][spender] */\n          0x00\n            /* \"openzeppelin/ERC20.sol\":2427:2434  spender */\n          dup4\n            /* \"openzeppelin/ERC20.sol\":2408:2435  _allowances[owner][spender] */\n          0xffffffffffffffffffffffffffffffffffffffff\n          and\n          0xffffffffffffffffffffffffffffffffffffffff\n          and\n          dup2\n          mstore\n          0x20\n          add\n          swap1\n          dup2\n          mstore\n          0x20\n          add\n          0x00\n          keccak256\n          sload\n            /* \"openzeppelin/ERC20.sol\":2401:2435  return _allowances[owner][spender] */\n          swap1\n          pop\n            /* \"openzeppelin/ERC20.sol\":2310:2442  function allowance(address owner, address spender) public view returns (uint256) {... */\n          swap3\n          swap2\n          pop\n          pop\n          jump\t// out\n            /* \"UCMToken.sol\":550:679  function stakeTransfer(address stakeOwner, uint amount) external onlyMinter {... */\n        tag_76:\n            /* \"openzeppelin/roles/MinterRole.sol\":485:507  isMinter(_msgSender()) */\n          tag_145\n            /* \"openzeppelin/roles/MinterRole.sol\":494:506  _msgSender() */\n          tag_146\n            /* \"openzeppelin/roles/MinterRole.sol\":494:504  _msgSender */\n          tag_84\n            /* \"openzeppelin/roles/MinterRole.sol\":494:506  _msgSender() */\n          jump\t// in\n        tag_146:\n            /* \"openzeppelin/roles/MinterRole.sol\":485:493  isMinter */\n          tag_70\n            /* \"openzeppelin/roles/MinterRole.sol\":485:507  isMinter(_msgSender()) */\n          jump\t// in\n        tag_145:\n            /* \"openzeppelin/roles/MinterRole.sol\":477:560  require(isMinter(_msgSender()), \"MinterRole: caller does not have the Minter role\") */\n          tag_147\n          jumpi\n          mload(0x40)\n          0x08c379a000000000000000000000000000000000000000000000000000000000\n          dup2\n          mstore\n          0x04\n          add\n          dup1\n          dup1\n          0x20\n          add\n          dup3\n          dup2\n          sub\n          dup3\n          mstore\n          0x30\n          dup2\n          mstore\n          0x20\n          add\n          dup1\n          data_79ecb50133735b20228dea9d08fe36a462bbc1350f591a146908848db91104cd\n          0x30\n          swap2\n          codecopy\n          0x40\n          add\n          swap2\n          pop\n          pop\n          mload(0x40)\n          dup1\n          swap2\n          sub\n          swap1\n          revert\n        tag_147:\n            /* \"UCMToken.sol\":636:672  _transfer(stakeOwner, owner, amount) */\n          tag_149\n            /* \"UCMToken.sol\":646:656  stakeOwner */\n          dup3\n            /* \"UCMToken.sol\":658:663  owner */\n          0x07\n          0x00\n          swap1\n          sload\n          swap1\n          0x0100\n          exp\n          swap1\n          div\n          0xffffffffffffffffffffffffffffffffffffffff\n          and\n            /* \"UCMToken.sol\":665:671  amount */\n          dup4\n            /* \"UCMToken.sol\":636:645  _transfer */\n          tag_89\n            /* \"UCMToken.sol\":636:672  _transfer(stakeOwner, owner, amount) */\n          jump\t// in\n        tag_149:\n            /* \"UCMToken.sol\":550:679  function stakeTransfer(address stakeOwner, uint amount) external onlyMinter {... */\n          pop\n          pop\n          jump\t// out\n            /* \"openzeppelin/GSN/Context.sol\":870:966  function _msgSender() internal view returns (address payable) {... */\n        tag_84:\n            /* \"openzeppelin/GSN/Context.sol\":915:930  address payable */\n          0x00\n            /* \"openzeppelin/GSN/Context.sol\":949:959  msg.sender */\n          caller\n            /* \"openzeppelin/GSN/Context.sol\":942:959  return msg.sender */\n          swap1\n          pop\n            /* \"openzeppelin/GSN/Context.sol\":870:966  function _msgSender() internal view returns (address payable) {... */\n          swap1\n          jump\t// out\n            /* \"openzeppelin/ERC20.sol\":7430:7762  function _approve(address owner, address spender, uint256 amount) internal {... */\n        tag_85:\n            /* \"openzeppelin/ERC20.sol\":7540:7541  0 */\n          0x00\n            /* \"openzeppelin/ERC20.sol\":7523:7542  owner != address(0) */\n          0xffffffffffffffffffffffffffffffffffffffff\n          and\n            /* \"openzeppelin/ERC20.sol\":7523:7528  owner */\n          dup4\n            /* \"openzeppelin/ERC20.sol\":7523:7542  owner != address(0) */\n          0xffffffffffffffffffffffffffffffffffffffff\n          and\n          eq\n          iszero\n            /* \"openzeppelin/ERC20.sol\":7515:7583  require(owner != address(0), \"ERC20: approve from the zero address\") */\n          tag_152\n          jumpi\n          mload(0x40)\n          0x08c379a000000000000000000000000000000000000000000000000000000000\n          dup2\n          mstore\n          0x04\n          add\n          dup1\n          dup1\n          0x20\n          add\n          dup3\n          dup2\n          sub\n          dup3\n          mstore\n          0x24\n          dup2\n          mstore\n          0x20\n          add\n          dup1\n          data_c953f4879035ed60e766b34720f656aab5c697b141d924c283124ecedb91c208\n          0x24\n          swap2\n          codecopy\n          0x40\n          add\n          swap2\n          pop\n          pop\n          mload(0x40)\n          dup1\n          swap2\n          sub\n          swap1\n          revert\n        tag_152:\n            /* \"openzeppelin/ERC20.sol\":7620:7621  0 */\n          0x00\n            /* \"openzeppelin/ERC20.sol\":7601:7622  spender != address(0) */\n          0xffffffffffffffffffffffffffffffffffffffff\n          and\n            /* \"openzeppelin/ERC20.sol\":7601:7608  spender */\n          dup3\n            /* \"openzeppelin/ERC20.sol\":7601:7622  spender != address(0) */\n          0xffffffffffffffffffffffffffffffffffffffff\n          and\n          eq\n          iszero\n            /* \"openzeppelin/ERC20.sol\":7593:7661  require(spender != address(0), \"ERC20: approve to the zero address\") */\n          tag_153\n          jumpi\n          mload(0x40)\n          0x08c379a000000000000000000000000000000000000000000000000000000000\n          dup2\n          mstore\n          0x04\n          add\n          dup1\n          dup1\n          0x20\n          add\n          dup3\n          dup2\n          sub\n          dup3\n          mstore\n          0x22\n          dup2\n          mstore\n          0x20\n          add\n          dup1\n          data_24883cc5fe64ace9d0df1893501ecb93c77180f0ff69cca79affb3c316dc8029\n          0x22\n          swap2\n          codecopy\n          0x40\n          add\n          swap2\n          pop\n          pop\n          mload(0x40)\n          dup1\n          swap2\n          sub\n          swap1\n          revert\n        tag_153:\n            /* \"openzeppelin/ERC20.sol\":7702:7708  amount */\n          dup1\n            /* \"openzeppelin/ERC20.sol\":7672:7683  _allowances */\n          0x01\n            /* \"openzeppelin/ERC20.sol\":7672:7690  _allowances[owner] */\n          0x00\n            /* \"openzeppelin/ERC20.sol\":7684:7689  owner */\n          dup6\n            /* \"openzeppelin/ERC20.sol\":7672:7690  _allowances[owner] */\n          0xffffffffffffffffffffffffffffffffffffffff\n          and\n          0xffffffffffffffffffffffffffffffffffffffff\n          and\n          dup2\n          mstore\n          0x20\n          add\n          swap1\n          dup2\n          mstore\n          0x20\n          add\n          0x00\n          keccak256\n            /* \"openzeppelin/ERC20.sol\":7672:7699  _allowances[owner][spender] */\n          0x00\n            /* \"openzeppelin/ERC20.sol\":7691:7698  spender */\n          dup5\n            /* \"openzeppelin/ERC20.sol\":7672:7699  _allowances[owner][spender] */\n          0xffffffffffffffffffffffffffffffffffffffff\n          and\n          0xffffffffffffffffffffffffffffffffffffffff\n          and\n          dup2\n          mstore\n          0x20\n          add\n          swap1\n          dup2\n          mstore\n          0x20\n          add\n          0x00\n          keccak256\n            /* \"openzeppelin/ERC20.sol\":7672:7708  _allowances[owner][spender] = amount */\n          dup2\n          swap1\n          sstore\n          pop\n            /* \"openzeppelin/ERC20.sol\":7739:7746  spender */\n          dup2\n            /* \"openzeppelin/ERC20.sol\":7723:7755  Approval(owner, spender, amount) */\n          0xffffffffffffffffffffffffffffffffffffffff\n          and\n            /* \"openzeppelin/ERC20.sol\":7732:7737  owner */\n          dup4\n            /* \"openzeppelin/ERC20.sol\":7723:7755  Approval(owner, spender, amount) */\n          0xffffffffffffffffffffffffffffffffffffffff\n          and\n          0x8c5be1e5ebec7d5bd14f71427d1e84f3dd0314c0f7b2291e5b200ac8c7c3b925\n            /* \"openzeppelin/ERC20.sol\":7748:7754  amount */\n          dup4\n            /* \"openzeppelin/ERC20.sol\":7723:7755  Approval(owner, spender, amount) */\n          mload(0x40)\n          dup1\n          dup3\n          dup2\n          mstore\n          0x20\n          add\n          swap2\n          pop\n          pop\n          mload(0x40)\n          dup1\n          swap2\n          sub\n          swap1\n          log3\n            /* \"openzeppelin/ERC20.sol\":7430:7762  function _approve(address owner, address spender, uint256 amount) internal {... */\n          pop\n          pop\n          pop\n          jump\t// out\n            /* \"openzeppelin/ERC20.sol\":5308:5772  function _transfer(address sender, address recipient, uint256 amount) internal {... */\n        tag_89:\n            /* \"openzeppelin/ERC20.sol\":5423:5424  0 */\n          0x00\n            /* \"openzeppelin/ERC20.sol\":5405:5425  sender != address(0) */\n          0xffffffffffffffffffffffffffffffffffffffff\n          and\n            /* \"openzeppelin/ERC20.sol\":5405:5411  sender */\n          dup4\n            /* \"openzeppelin/ERC20.sol\":5405:5425  sender != address(0) */\n          0xffffffffffffffffffffffffffffffffffffffff\n          and\n          eq\n          iszero\n            /* \"openzeppelin/ERC20.sol\":5397:5467  require(sender != address(0), \"ERC20: transfer from the zero address\") */\n          tag_155\n          jumpi\n          mload(0x40)\n          0x08c379a000000000000000000000000000000000000000000000000000000000\n          dup2\n          mstore\n          0x04\n          add\n          dup1\n          dup1\n          0x20\n          add\n          dup3\n          dup2\n          sub\n          dup3\n          mstore\n          0x25\n          dup2\n          mstore\n          0x20\n          add\n          dup1\n          data_baecc556b46f4ed0f2b4cb599d60785ac8563dd2dc0a5bf12edea1c39e5e1fea\n          0x25\n          swap2\n          codecopy\n          0x40\n          add\n          swap2\n          pop\n          pop\n          mload(0x40)\n          dup1\n          swap2\n          sub\n          swap1\n          revert\n        tag_155:\n            /* \"openzeppelin/ERC20.sol\":5506:5507  0 */\n          0x00\n            /* \"openzeppelin/ERC20.sol\":5485:5508  recipient != address(0) */\n          0xffffffffffffffffffffffffffffffffffffffff\n          and\n            /* \"openzeppelin/ERC20.sol\":5485:5494  recipient */\n          dup3\n            /* \"openzeppelin/ERC20.sol\":5485:5508  recipient != address(0) */\n          0xffffffffffffffffffffffffffffffffffffffff\n          and\n          eq\n          iszero\n            /* \"openzeppelin/ERC20.sol\":5477:5548  require(recipient != address(0), \"ERC20: transfer to the zero address\") */\n          tag_156\n          jumpi\n          mload(0x40)\n          0x08c379a000000000000000000000000000000000000000000000000000000000\n          dup2\n          mstore\n          0x04\n          add\n          dup1\n          dup1\n          0x20\n          add\n          dup3\n          dup2\n          sub\n          dup3\n          mstore\n          0x23\n          dup2\n          mstore\n          0x20\n          add\n          dup1\n          data_0557e210f7a69a685100a7e4e3d0a7024c546085cee28910fd17d0b081d9516f\n          0x23\n          swap2\n          codecopy\n          0x40\n          add\n          swap2\n          pop\n          pop\n          mload(0x40)\n          dup1\n          swap2\n          sub\n          swap1\n          revert\n        tag_156:\n            /* \"openzeppelin/ERC20.sol\":5579:5650  _balances[sender].sub(amount, \"ERC20: transfer amount exceeds balance\") */\n          tag_157\n            /* \"openzeppelin/ERC20.sol\":5601:5607  amount */\n          dup2\n            /* \"openzeppelin/ERC20.sol\":5579:5650  _balances[sender].sub(amount, \"ERC20: transfer amount exceeds balance\") */\n          mload(0x40)\n          dup1\n          0x60\n          add\n          0x40\n          mstore\n          dup1\n          0x26\n          dup2\n          mstore\n          0x20\n          add\n          data_4107e8a8b9e94bf8ff83080ddec1c0bffe897ebc2241b89d44f66b3d274088b6\n          0x26\n          swap2\n          codecopy\n            /* \"openzeppelin/ERC20.sol\":5579:5588  _balances */\n          0x00\n            /* \"openzeppelin/ERC20.sol\":5579:5596  _balances[sender] */\n          dup1\n            /* \"openzeppelin/ERC20.sol\":5589:5595  sender */\n          dup8\n            /* \"openzeppelin/ERC20.sol\":5579:5596  _balances[sender] */\n          0xffffffffffffffffffffffffffffffffffffffff\n          and\n          0xffffffffffffffffffffffffffffffffffffffff\n          and\n          dup2\n          mstore\n          0x20\n          add\n          swap1\n          dup2\n          mstore\n          0x20\n          add\n          0x00\n          keccak256\n          sload\n            /* \"openzeppelin/ERC20.sol\":5579:5600  _balances[sender].sub */\n          tag_94\n          swap1\n            /* \"openzeppelin/ERC20.sol\":5579:5650  _balances[sender].sub(amount, \"ERC20: transfer amount exceeds balance\") */\n          swap3\n          swap2\n          swap1\n          0xffffffff\n          and\n          jump\t// in\n        tag_157:\n            /* \"openzeppelin/ERC20.sol\":5559:5568  _balances */\n          0x00\n            /* \"openzeppelin/ERC20.sol\":5559:5576  _balances[sender] */\n          dup1\n            /* \"openzeppelin/ERC20.sol\":5569:5575  sender */\n          dup6\n            /* \"openzeppelin/ERC20.sol\":5559:5576  _balances[sender] */\n          0xffffffffffffffffffffffffffffffffffffffff\n          and\n          0xffffffffffffffffffffffffffffffffffffffff\n          and\n          dup2\n          mstore\n          0x20\n          add\n          swap1\n          dup2\n          mstore\n          0x20\n          add\n          0x00\n          keccak256\n            /* \"openzeppelin/ERC20.sol\":5559:5650  _balances[sender] = _balances[sender].sub(amount, \"ERC20: transfer amount exceeds balance\") */\n          dup2\n          swap1\n          sstore\n          pop\n            /* \"openzeppelin/ERC20.sol\":5683:5715  _balances[recipient].add(amount) */\n          tag_158\n            /* \"openzeppelin/ERC20.sol\":5708:5714  amount */\n          dup2\n            /* \"openzeppelin/ERC20.sol\":5683:5692  _balances */\n          0x00\n            /* \"openzeppelin/ERC20.sol\":5683:5703  _balances[recipient] */\n          dup1\n            /* \"openzeppelin/ERC20.sol\":5693:5702  recipient */\n          dup6\n            /* \"openzeppelin/ERC20.sol\":5683:5703  _balances[recipient] */\n          0xffffffffffffffffffffffffffffffffffffffff\n          and\n          0xffffffffffffffffffffffffffffffffffffffff\n          and\n          dup2\n          mstore\n          0x20\n          add\n          swap1\n          dup2\n          mstore\n          0x20\n          add\n          0x00\n          keccak256\n          sload\n            /* \"openzeppelin/ERC20.sol\":5683:5707  _balances[recipient].add */\n          tag_101\n          swap1\n            /* \"openzeppelin/ERC20.sol\":5683:5715  _balances[recipient].add(amount) */\n          swap2\n          swap1\n          0xffffffff\n          and\n          jump\t// in\n        tag_158:\n            /* \"openzeppelin/ERC20.sol\":5660:5669  _balances */\n          0x00\n            /* \"openzeppelin/ERC20.sol\":5660:5680  _balances[recipient] */\n          dup1\n            /* \"openzeppelin/ERC20.sol\":5670:5679  recipient */\n          dup5\n            /* \"openzeppelin/ERC20.sol\":5660:5680  _balances[recipient] */\n          0xffffffffffffffffffffffffffffffffffffffff\n          and\n          0xffffffffffffffffffffffffffffffffffffffff\n          and\n          dup2\n          mstore\n          0x20\n          add\n          swap1\n          dup2\n          mstore\n          0x20\n          add\n          0x00\n          keccak256\n            /* \"openzeppelin/ERC20.sol\":5660:5715  _balances[recipient] = _balances[recipient].add(amount) */\n          dup2\n          swap1\n          sstore\n          pop\n            /* \"openzeppelin/ERC20.sol\":5747:5756  recipient */\n          dup2\n            /* \"openzeppelin/ERC20.sol\":5730:5765  Transfer(sender, recipient, amount) */\n          0xffffffffffffffffffffffffffffffffffffffff\n          and\n            /* \"openzeppelin/ERC20.sol\":5739:5745  sender */\n          dup4\n            /* \"openzeppelin/ERC20.sol\":5730:5765  Transfer(sender, recipient, amount) */\n          0xffffffffffffffffffffffffffffffffffffffff\n          and\n          0xddf252ad1be2c89b69c2b068fc378daa952ba7f163c4a11628f55a4df523b3ef\n            /* \"openzeppelin/ERC20.sol\":5758:5764  amount */\n          dup4\n            /* \"openzeppelin/ERC20.sol\":5730:5765  Transfer(sender, recipient, amount) */\n          mload(0x40)\n          dup1\n          dup3\n          dup2\n          mstore\n          0x20\n          add\n          swap2\n          pop\n          pop\n          mload(0x40)\n          dup1\n          swap2\n          sub\n          swap1\n          log3\n            /* \"openzeppelin/ERC20.sol\":5308:5772  function _transfer(address sender, address recipient, uint256 amount) internal {... */\n          pop\n          pop\n          pop\n          jump\t// out\n            /* \"openzeppelin/math/SafeMath.sol\":1816:2003  function sub(uint256 a, uint256 b, string memory errorMessage) internal pure returns (uint256) {... */\n        tag_94:\n            /* \"openzeppelin/math/SafeMath.sol\":1902:1909  uint256 */\n          0x00\n            /* \"openzeppelin/math/SafeMath.sol\":1934:1935  a */\n          dup4\n            /* \"openzeppelin/math/SafeMath.sol\":1929:1930  b */\n          dup4\n            /* \"openzeppelin/math/SafeMath.sol\":1929:1935  b <= a */\n          gt\n          iszero\n            /* \"openzeppelin/math/SafeMath.sol\":1937:1949  errorMessage */\n          dup3\n            /* \"openzeppelin/math/SafeMath.sol\":1921:1950  require(b <= a, errorMessage) */\n          swap1\n          tag_160\n          jumpi\n          mload(0x40)\n          0x08c379a000000000000000000000000000000000000000000000000000000000\n          dup2\n          mstore\n          0x04\n          add\n          dup1\n          dup1\n          0x20\n          add\n          dup3\n          dup2\n          sub\n          dup3\n          mstore\n          dup4\n          dup2\n          dup2\n          mload\n          dup2\n          mstore\n          0x20\n          add\n          swap2\n          pop\n          dup1\n          mload\n          swap1\n          0x20\n          add\n          swap1\n          dup1\n          dup4\n          dup4\n            /* \"--CODEGEN--\":23:24   */\n          0x00\n            /* \"--CODEGEN--\":8:108   */\n        tag_161:\n            /* \"--CODEGEN--\":33:36   */\n          dup4\n            /* \"--CODEGEN--\":30:31   */\n          dup2\n            /* \"--CODEGEN--\":27:37   */\n          lt\n            /* \"--CODEGEN--\":8:108   */\n          iszero\n          tag_163\n          jumpi\n            /* \"--CODEGEN--\":99:100   */\n          dup1\n            /* \"--CODEGEN--\":94:97   */\n          dup3\n            /* \"--CODEGEN--\":90:101   */\n          add\n            /* \"--CODEGEN--\":84:102   */\n          mload\n            /* \"--CODEGEN--\":80:81   */\n          dup2\n            /* \"--CODEGEN--\":75:78   */\n          dup5\n            /* \"--CODEGEN--\":71:82   */\n          add\n            /* \"--CODEGEN--\":64:103   */\n          mstore\n            /* \"--CODEGEN--\":52:54   */\n          0x20\n            /* \"--CODEGEN--\":49:50   */\n          dup2\n            /* \"--CODEGEN--\":45:55   */\n          add\n            /* \"--CODEGEN--\":40:55   */\n          swap1\n          pop\n            /* \"--CODEGEN--\":8:108   */\n          jump(tag_161)\n        tag_163:\n            /* \"--CODEGEN--\":12:26   */\n          pop\n            /* \"openzeppelin/math/SafeMath.sol\":1921:1950  require(b <= a, errorMessage) */\n          pop\n          pop\n          pop\n          swap1\n          pop\n          swap1\n          dup2\n          add\n          swap1\n          0x1f\n          and\n          dup1\n          iszero\n          tag_164\n          jumpi\n          dup1\n          dup3\n          sub\n          dup1\n          mload\n          0x01\n          dup4\n          0x20\n          sub\n          0x0100\n          exp\n          sub\n          not\n          and\n          dup2\n          mstore\n          0x20\n          add\n          swap2\n          pop\n        tag_164:\n          pop\n          swap3\n          pop\n          pop\n          pop\n          mload(0x40)\n          dup1\n          swap2\n          sub\n          swap1\n          revert\n        tag_160:\n          pop\n            /* \"openzeppelin/math/SafeMath.sol\":1960:1969  uint256 c */\n          0x00\n            /* \"openzeppelin/math/SafeMath.sol\":1976:1977  b */\n          dup4\n            /* \"openzeppelin/math/SafeMath.sol\":1972:1973  a */\n          dup6\n            /* \"openzeppelin/math/SafeMath.sol\":1972:1977  a - b */\n          sub\n            /* \"openzeppelin/math/SafeMath.sol\":1960:1977  uint256 c = a - b */\n          swap1\n          pop\n            /* \"openzeppelin/math/SafeMath.sol\":1995:1996  c */\n          dup1\n            /* \"openzeppelin/math/SafeMath.sol\":1988:1996  return c */\n          swap2\n          pop\n          pop\n            /* \"openzeppelin/math/SafeMath.sol\":1816:2003  function sub(uint256 a, uint256 b, string memory errorMessage) internal pure returns (uint256) {... */\n          swap4\n          swap3\n          pop\n          pop\n          pop\n          jump\t// out\n            /* \"openzeppelin/math/SafeMath.sol\":918:1094  function add(uint256 a, uint256 b) internal pure returns (uint256) {... */\n        tag_101:\n            /* \"openzeppelin/math/SafeMath.sol\":976:983  uint256 */\n          0x00\n            /* \"openzeppelin/math/SafeMath.sol\":995:1004  uint256 c */\n          dup1\n            /* \"openzeppelin/math/SafeMath.sol\":1011:1012  b */\n          dup3\n            /* \"openzeppelin/math/SafeMath.sol\":1007:1008  a */\n          dup5\n            /* \"openzeppelin/math/SafeMath.sol\":1007:1012  a + b */\n          add\n            /* \"openzeppelin/math/SafeMath.sol\":995:1012  uint256 c = a + b */\n          swap1\n          pop\n            /* \"openzeppelin/math/SafeMath.sol\":1035:1036  a */\n          dup4\n            /* \"openzeppelin/math/SafeMath.sol\":1030:1031  c */\n          dup2\n            /* \"openzeppelin/math/SafeMath.sol\":1030:1036  c >= a */\n          lt\n          iszero\n            /* \"openzeppelin/math/SafeMath.sol\":1022:1068  require(c >= a, \"SafeMath: addition overflow\") */\n          tag_166\n          jumpi\n          mload(0x40)\n          0x08c379a000000000000000000000000000000000000000000000000000000000\n          dup2\n          mstore\n          0x04\n          add\n          dup1\n          dup1\n          0x20\n          add\n          dup3\n          dup2\n          sub\n          dup3\n          mstore\n          0x1b\n          dup2\n          mstore\n          0x20\n          add\n          dup1\n          0x536166654d6174683a206164646974696f6e206f766572666c6f770000000000\n          dup2\n          mstore\n          pop\n          0x20\n          add\n          swap2\n          pop\n          pop\n          mload(0x40)\n          dup1\n          swap2\n          sub\n          swap1\n          revert\n        tag_166:\n            /* \"openzeppelin/math/SafeMath.sol\":1086:1087  c */\n          dup1\n            /* \"openzeppelin/math/SafeMath.sol\":1079:1087  return c */\n          swap2\n          pop\n          pop\n            /* \"openzeppelin/math/SafeMath.sol\":918:1094  function add(uint256 a, uint256 b) internal pure returns (uint256) {... */\n          swap3\n          swap2\n          pop\n          pop\n          jump\t// out\n            /* \"openzeppelin/ERC20.sol\":6042:6344  function _mint(address account, uint256 amount) internal {... */\n        tag_108:\n            /* \"openzeppelin/ERC20.sol\":6136:6137  0 */\n          0x00\n            /* \"openzeppelin/ERC20.sol\":6117:6138  account != address(0) */\n          0xffffffffffffffffffffffffffffffffffffffff\n          and\n            /* \"openzeppelin/ERC20.sol\":6117:6124  account */\n          dup3\n            /* \"openzeppelin/ERC20.sol\":6117:6138  account != address(0) */\n          0xffffffffffffffffffffffffffffffffffffffff\n          and\n          eq\n          iszero\n            /* \"openzeppelin/ERC20.sol\":6109:6174  require(account != address(0), \"ERC20: mint to the zero address\") */\n          tag_168\n          jumpi\n          mload(0x40)\n          0x08c379a000000000000000000000000000000000000000000000000000000000\n          dup2\n          mstore\n          0x04\n          add\n          dup1\n          dup1\n          0x20\n          add\n          dup3\n          dup2\n          sub\n          dup3\n          mstore\n          0x1f\n          dup2\n          mstore\n          0x20\n          add\n          dup1\n          0x45524332303a206d696e7420746f20746865207a65726f206164647265737300\n          dup2\n          mstore\n          pop\n          0x20\n          add\n          swap2\n          pop\n          pop\n          mload(0x40)\n          dup1\n          swap2\n          sub\n          swap1\n          revert\n        tag_168:\n            /* \"openzeppelin/ERC20.sol\":6200:6224  _totalSupply.add(amount) */\n          tag_169\n            /* \"openzeppelin/ERC20.sol\":6217:6223  amount */\n          dup2\n            /* \"openzeppelin/ERC20.sol\":6200:6212  _totalSupply */\n          sload(0x02)\n            /* \"openzeppelin/ERC20.sol\":6200:6216  _totalSupply.add */\n          tag_101\n          swap1\n            /* \"openzeppelin/ERC20.sol\":6200:6224  _totalSupply.add(amount) */\n          swap2\n          swap1\n          0xffffffff\n          and\n          jump\t// in\n        tag_169:\n            /* \"openzeppelin/ERC20.sol\":6185:6197  _totalSupply */\n          0x02\n            /* \"openzeppelin/ERC20.sol\":6185:6224  _totalSupply = _totalSupply.add(amount) */\n          dup2\n          swap1\n          sstore\n          pop\n            /* \"openzeppelin/ERC20.sol\":6255:6285  _balances[account].add(amount) */\n          tag_170\n            /* \"openzeppelin/ERC20.sol\":6278:6284  amount */\n          dup2\n            /* \"openzeppelin/ERC20.sol\":6255:6264  _balances */\n          0x00\n            /* \"openzeppelin/ERC20.sol\":6255:6273  _balances[account] */\n          dup1\n            /* \"openzeppelin/ERC20.sol\":6265:6272  account */\n          dup6\n            /* \"openzeppelin/ERC20.sol\":6255:6273  _balances[account] */\n          0xffffffffffffffffffffffffffffffffffffffff\n          and\n          0xffffffffffffffffffffffffffffffffffffffff\n          and\n          dup2\n          mstore\n          0x20\n          add\n          swap1\n          dup2\n          mstore\n          0x20\n          add\n          0x00\n          keccak256\n          sload\n            /* \"openzeppelin/ERC20.sol\":6255:6277  _balances[account].add */\n          tag_101\n          swap1\n            /* \"openzeppelin/ERC20.sol\":6255:6285  _balances[account].add(amount) */\n          swap2\n          swap1\n          0xffffffff\n          and\n          jump\t// in\n        tag_170:\n            /* \"openzeppelin/ERC20.sol\":6234:6243  _balances */\n          0x00\n            /* \"openzeppelin/ERC20.sol\":6234:6252  _balances[account] */\n          dup1\n            /* \"openzeppelin/ERC20.sol\":6244:6251  account */\n          dup5\n            /* \"openzeppelin/ERC20.sol\":6234:6252  _balances[account] */\n          0xffffffffffffffffffffffffffffffffffffffff\n          and\n          0xffffffffffffffffffffffffffffffffffffffff\n          and\n          dup2\n          mstore\n          0x20\n          add\n          swap1\n          dup2\n          mstore\n          0x20\n          add\n          0x00\n          keccak256\n            /* \"openzeppelin/ERC20.sol\":6234:6285  _balances[account] = _balances[account].add(amount) */\n          dup2\n          swap1\n          sstore\n          pop\n            /* \"openzeppelin/ERC20.sol\":6321:6328  account */\n          dup2\n            /* \"openzeppelin/ERC20.sol\":6300:6337  Transfer(address(0), account, amount) */\n          0xffffffffffffffffffffffffffffffffffffffff\n          and\n            /* \"openzeppelin/ERC20.sol\":6317:6318  0 */\n          0x00\n            /* \"openzeppelin/ERC20.sol\":6300:6337  Transfer(address(0), account, amount) */\n          0xffffffffffffffffffffffffffffffffffffffff\n          and\n          0xddf252ad1be2c89b69c2b068fc378daa952ba7f163c4a11628f55a4df523b3ef\n            /* \"openzeppelin/ERC20.sol\":6330:6336  amount */\n          dup4\n            /* \"openzeppelin/ERC20.sol\":6300:6337  Transfer(address(0), account, amount) */\n          mload(0x40)\n          dup1\n          dup3\n          dup2\n          mstore\n          0x20\n          add\n          swap2\n          pop\n          pop\n          mload(0x40)\n          dup1\n          swap2\n          sub\n          swap1\n          log3\n            /* \"openzeppelin/ERC20.sol\":6042:6344  function _mint(address account, uint256 amount) internal {... */\n          pop\n          pop\n          jump\t// out\n            /* \"openzeppelin/roles/MinterRole.sol\":876:995  function _addMinter(address account) internal {... */\n        tag_120:\n            /* \"openzeppelin/roles/MinterRole.sol\":932:953  _minters.add(account) */\n          tag_172\n            /* \"openzeppelin/roles/MinterRole.sol\":945:952  account */\n          dup2\n            /* \"openzeppelin/roles/MinterRole.sol\":932:940  _minters */\n          0x06\n            /* \"openzeppelin/roles/MinterRole.sol\":932:944  _minters.add */\n          tag_173\n          swap1\n            /* \"openzeppelin/roles/MinterRole.sol\":932:953  _minters.add(account) */\n          swap2\n          swap1\n          0xffffffff\n          and\n          jump\t// in\n        tag_172:\n            /* \"openzeppelin/roles/MinterRole.sol\":980:987  account */\n          dup1\n            /* \"openzeppelin/roles/MinterRole.sol\":968:988  MinterAdded(account) */\n          0xffffffffffffffffffffffffffffffffffffffff\n          and\n          0x6ae172837ea30b801fbfcdd4108aa1d5bf8ff775444fd70256b44e6bf3dfc3f6\n          mload(0x40)\n          mload(0x40)\n          dup1\n          swap2\n          sub\n          swap1\n          log2\n            /* \"openzeppelin/roles/MinterRole.sol\":876:995  function _addMinter(address account) internal {... */\n          pop\n          jump\t// out\n            /* \"openzeppelin/roles/MinterRole.sol\":1001:1128  function _removeMinter(address account) internal {... */\n        tag_124:\n            /* \"openzeppelin/roles/MinterRole.sol\":1060:1084  _minters.remove(account) */\n          tag_175\n            /* \"openzeppelin/roles/MinterRole.sol\":1076:1083  account */\n          dup2\n            /* \"openzeppelin/roles/MinterRole.sol\":1060:1068  _minters */\n          0x06\n            /* \"openzeppelin/roles/MinterRole.sol\":1060:1075  _minters.remove */\n          tag_176\n          swap1\n            /* \"openzeppelin/roles/MinterRole.sol\":1060:1084  _minters.remove(account) */\n          swap2\n          swap1\n          0xffffffff\n          and\n          jump\t// in\n        tag_175:\n            /* \"openzeppelin/roles/MinterRole.sol\":1113:1120  account */\n          dup1\n            /* \"openzeppelin/roles/MinterRole.sol\":1099:1121  MinterRemoved(account) */\n          0xffffffffffffffffffffffffffffffffffffffff\n          and\n          0xe94479a9f7e1952cc78f2d6baab678adc1b772d936c6583def489e524cb66692\n          mload(0x40)\n          mload(0x40)\n          dup1\n          swap2\n          sub\n          swap1\n          log2\n            /* \"openzeppelin/roles/MinterRole.sol\":1001:1128  function _removeMinter(address account) internal {... */\n          pop\n          jump\t// out\n            /* \"openzeppelin/ERC20.sol\":6663:7005  function _burn(address account, uint256 amount) internal {... */\n        tag_131:\n            /* \"openzeppelin/ERC20.sol\":6757:6758  0 */\n          0x00\n            /* \"openzeppelin/ERC20.sol\":6738:6759  account != address(0) */\n          0xffffffffffffffffffffffffffffffffffffffff\n          and\n            /* \"openzeppelin/ERC20.sol\":6738:6745  account */\n          dup3\n            /* \"openzeppelin/ERC20.sol\":6738:6759  account != address(0) */\n          0xffffffffffffffffffffffffffffffffffffffff\n          and\n          eq\n          iszero\n            /* \"openzeppelin/ERC20.sol\":6730:6797  require(account != address(0), \"ERC20: burn from the zero address\") */\n          tag_178\n          jumpi\n          mload(0x40)\n          0x08c379a000000000000000000000000000000000000000000000000000000000\n          dup2\n          mstore\n          0x04\n          add\n          dup1\n          dup1\n          0x20\n          add\n          dup3\n          dup2\n          sub\n          dup3\n          mstore\n          0x21\n          dup2\n          mstore\n          0x20\n          add\n          dup1\n          data_b16788493b576042bb52c50ed56189e0b250db113c7bfb1c3897d25cf9632d7f\n          0x21\n          swap2\n          codecopy\n          0x40\n          add\n          swap2\n          pop\n          pop\n          mload(0x40)\n          dup1\n          swap2\n          sub\n          swap1\n          revert\n        tag_178:\n            /* \"openzeppelin/ERC20.sol\":6829:6897  _balances[account].sub(amount, \"ERC20: burn amount exceeds balance\") */\n          tag_179\n            /* \"openzeppelin/ERC20.sol\":6852:6858  amount */\n          dup2\n            /* \"openzeppelin/ERC20.sol\":6829:6897  _balances[account].sub(amount, \"ERC20: burn amount exceeds balance\") */\n          mload(0x40)\n          dup1\n          0x60\n          add\n          0x40\n          mstore\n          dup1\n          0x22\n          dup2\n          mstore\n          0x20\n          add\n          data_149b126e7125232b4200af45303d04fba8b74653b1a295a6a561a528c33fefdd\n          0x22\n          swap2\n          codecopy\n            /* \"openzeppelin/ERC20.sol\":6829:6838  _balances */\n          0x00\n            /* \"openzeppelin/ERC20.sol\":6829:6847  _balances[account] */\n          dup1\n            /* \"openzeppelin/ERC20.sol\":6839:6846  account */\n          dup7\n            /* \"openzeppelin/ERC20.sol\":6829:6847  _balances[account] */\n          0xffffffffffffffffffffffffffffffffffffffff\n          and\n          0xffffffffffffffffffffffffffffffffffffffff\n          and\n          dup2\n          mstore\n          0x20\n          add\n          swap1\n          dup2\n          mstore\n          0x20\n          add\n          0x00\n          keccak256\n          sload\n            /* \"openzeppelin/ERC20.sol\":6829:6851  _balances[account].sub */\n          tag_94\n          swap1\n            /* \"openzeppelin/ERC20.sol\":6829:6897  _balances[account].sub(amount, \"ERC20: burn amount exceeds balance\") */\n          swap3\n          swap2\n          swap1\n          0xffffffff\n          and\n          jump\t// in\n        tag_179:\n            /* \"openzeppelin/ERC20.sol\":6808:6817  _balances */\n          0x00\n            /* \"openzeppelin/ERC20.sol\":6808:6826  _balances[account] */\n          dup1\n            /* \"openzeppelin/ERC20.sol\":6818:6825  account */\n          dup5\n            /* \"openzeppelin/ERC20.sol\":6808:6826  _balances[account] */\n          0xffffffffffffffffffffffffffffffffffffffff\n          and\n          0xffffffffffffffffffffffffffffffffffffffff\n          and\n          dup2\n          mstore\n          0x20\n          add\n          swap1\n          dup2\n          mstore\n          0x20\n          add\n          0x00\n          keccak256\n            /* \"openzeppelin/ERC20.sol\":6808:6897  _balances[account] = _balances[account].sub(amount, \"ERC20: burn amount exceeds balance\") */\n          dup2\n          swap1\n          sstore\n          pop\n            /* \"openzeppelin/ERC20.sol\":6922:6946  _totalSupply.sub(amount) */\n          tag_180\n            /* \"openzeppelin/ERC20.sol\":6939:6945  amount */\n          dup2\n            /* \"openzeppelin/ERC20.sol\":6922:6934  _totalSupply */\n          sload(0x02)\n            /* \"openzeppelin/ERC20.sol\":6922:6938  _totalSupply.sub */\n          tag_181\n          swap1\n            /* \"openzeppelin/ERC20.sol\":6922:6946  _totalSupply.sub(amount) */\n          swap2\n          swap1\n          0xffffffff\n          and\n          jump\t// in\n        tag_180:\n            /* \"openzeppelin/ERC20.sol\":6907:6919  _totalSupply */\n          0x02\n            /* \"openzeppelin/ERC20.sol\":6907:6946  _totalSupply = _totalSupply.sub(amount) */\n          dup2\n          swap1\n          sstore\n          pop\n            /* \"openzeppelin/ERC20.sol\":6987:6988  0 */\n          0x00\n            /* \"openzeppelin/ERC20.sol\":6961:6998  Transfer(account, address(0), amount) */\n          0xffffffffffffffffffffffffffffffffffffffff\n          and\n            /* \"openzeppelin/ERC20.sol\":6970:6977  account */\n          dup3\n            /* \"openzeppelin/ERC20.sol\":6961:6998  Transfer(account, address(0), amount) */\n          0xffffffffffffffffffffffffffffffffffffffff\n          and\n          0xddf252ad1be2c89b69c2b068fc378daa952ba7f163c4a11628f55a4df523b3ef\n            /* \"openzeppelin/ERC20.sol\":6991:6997  amount */\n          dup4\n            /* \"openzeppelin/ERC20.sol\":6961:6998  Transfer(account, address(0), amount) */\n          mload(0x40)\n          dup1\n          dup3\n          dup2\n          mstore\n          0x20\n          add\n          swap2\n          pop\n          pop\n          mload(0x40)\n          dup1\n          swap2\n          sub\n          swap1\n          log3\n            /* \"openzeppelin/ERC20.sol\":6663:7005  function _burn(address account, uint256 amount) internal {... */\n          pop\n          pop\n          jump\t// out\n            /* \"openzeppelin/roles/Roles.sol\":862:1062  function has(Role storage role, address account) internal view returns (bool) {... */\n        tag_142:\n            /* \"openzeppelin/roles/Roles.sol\":934:938  bool */\n          0x00\n            /* \"openzeppelin/roles/Roles.sol\":977:978  0 */\n          dup1\n            /* \"openzeppelin/roles/Roles.sol\":958:979  account != address(0) */\n          0xffffffffffffffffffffffffffffffffffffffff\n          and\n            /* \"openzeppelin/roles/Roles.sol\":958:965  account */\n          dup3\n            /* \"openzeppelin/roles/Roles.sol\":958:979  account != address(0) */\n          0xffffffffffffffffffffffffffffffffffffffff\n          and\n          eq\n          iszero\n            /* \"openzeppelin/roles/Roles.sol\":950:1018  require(account != address(0), \"Roles: account is the zero address\") */\n          tag_183\n          jumpi\n          mload(0x40)\n          0x08c379a000000000000000000000000000000000000000000000000000000000\n          dup2\n          mstore\n          0x04\n          add\n          dup1\n          dup1\n          0x20\n          add\n          dup3\n          dup2\n          sub\n          dup3\n          mstore\n          0x22\n          dup2\n          mstore\n          0x20\n          add\n          dup1\n          data_9d214fa89563f4e6456a3929327e54500ea1cde2c0ba9fb2035ec106190d682f\n          0x22\n          swap2\n          codecopy\n          0x40\n          add\n          swap2\n          pop\n          pop\n          mload(0x40)\n          dup1\n          swap2\n          sub\n          swap1\n          revert\n        tag_183:\n            /* \"openzeppelin/roles/Roles.sol\":1035:1039  role */\n          dup3\n            /* \"openzeppelin/roles/Roles.sol\":1035:1046  role.bearer */\n          0x00\n          add\n            /* \"openzeppelin/roles/Roles.sol\":1035:1055  role.bearer[account] */\n          0x00\n            /* \"openzeppelin/roles/Roles.sol\":1047:1054  account */\n          dup4\n            /* \"openzeppelin/roles/Roles.sol\":1035:1055  role.bearer[account] */\n          0xffffffffffffffffffffffffffffffffffffffff\n          and\n          0xffffffffffffffffffffffffffffffffffffffff\n          and\n          dup2\n          mstore\n          0x20\n          add\n          swap1\n          dup2\n          mstore\n          0x20\n          add\n          0x00\n          keccak256\n          0x00\n          swap1\n          sload\n          swap1\n          0x0100\n          exp\n          swap1\n          div\n          0xff\n          and\n            /* \"openzeppelin/roles/Roles.sol\":1028:1055  return role.bearer[account] */\n          swap1\n          pop\n            /* \"openzeppelin/roles/Roles.sol\":862:1062  function has(Role storage role, address account) internal view returns (bool) {... */\n          swap3\n          swap2\n          pop\n          pop\n          jump\t// out\n            /* \"openzeppelin/roles/Roles.sol\":343:518  function add(Role storage role, address account) internal {... */\n        tag_173:\n            /* \"openzeppelin/roles/Roles.sol\":420:438  has(role, account) */\n          tag_185\n            /* \"openzeppelin/roles/Roles.sol\":424:428  role */\n          dup3\n            /* \"openzeppelin/roles/Roles.sol\":430:437  account */\n          dup3\n            /* \"openzeppelin/roles/Roles.sol\":420:423  has */\n          tag_142\n            /* \"openzeppelin/roles/Roles.sol\":420:438  has(role, account) */\n          jump\t// in\n        tag_185:\n            /* \"openzeppelin/roles/Roles.sol\":419:438  !has(role, account) */\n          iszero\n            /* \"openzeppelin/roles/Roles.sol\":411:474  require(!has(role, account), \"Roles: account already has role\") */\n          tag_186\n          jumpi\n          mload(0x40)\n          0x08c379a000000000000000000000000000000000000000000000000000000000\n          dup2\n          mstore\n          0x04\n          add\n          dup1\n          dup1\n          0x20\n          add\n          dup3\n          dup2\n          sub\n          dup3\n          mstore\n          0x1f\n          dup2\n          mstore\n          0x20\n          add\n          dup1\n          0x526f6c65733a206163636f756e7420616c72656164792068617320726f6c6500\n          dup2\n          mstore\n          pop\n          0x20\n          add\n          swap2\n          pop\n          pop\n          mload(0x40)\n          dup1\n          swap2\n          sub\n          swap1\n          revert\n        tag_186:\n            /* \"openzeppelin/roles/Roles.sol\":507:511  true */\n          0x01\n            /* \"openzeppelin/roles/Roles.sol\":484:488  role */\n          dup3\n            /* \"openzeppelin/roles/Roles.sol\":484:495  role.bearer */\n          0x00\n          add\n            /* \"openzeppelin/roles/Roles.sol\":484:504  role.bearer[account] */\n          0x00\n            /* \"openzeppelin/roles/Roles.sol\":496:503  account */\n          dup4\n            /* \"openzeppelin/roles/Roles.sol\":484:504  role.bearer[account] */\n          0xffffffffffffffffffffffffffffffffffffffff\n          and\n          0xffffffffffffffffffffffffffffffffffffffff\n          and\n          dup2\n          mstore\n          0x20\n          add\n          swap1\n          dup2\n          mstore\n          0x20\n          add\n          0x00\n          keccak256\n          0x00\n            /* \"openzeppelin/roles/Roles.sol\":484:511  role.bearer[account] = true */\n          0x0100\n          exp\n          dup2\n          sload\n          dup2\n          0xff\n          mul\n          not\n          and\n          swap1\n          dup4\n          iszero\n          iszero\n          mul\n          or\n          swap1\n          sstore\n          pop\n            /* \"openzeppelin/roles/Roles.sol\":343:518  function add(Role storage role, address account) internal {... */\n          pop\n          pop\n          jump\t// out\n            /* \"openzeppelin/roles/Roles.sol\":593:773  function remove(Role storage role, address account) internal {... */\n        tag_176:\n            /* \"openzeppelin/roles/Roles.sol\":672:690  has(role, account) */\n          tag_188\n            /* \"openzeppelin/roles/Roles.sol\":676:680  role */\n          dup3\n            /* \"openzeppelin/roles/Roles.sol\":682:689  account */\n          dup3\n            /* \"openzeppelin/roles/Roles.sol\":672:675  has */\n          tag_142\n            /* \"openzeppelin/roles/Roles.sol\":672:690  has(role, account) */\n          jump\t// in\n        tag_188:\n            /* \"openzeppelin/roles/Roles.sol\":664:728  require(has(role, account), \"Roles: account does not have role\") */\n          tag_189\n          jumpi\n          mload(0x40)\n          0x08c379a000000000000000000000000000000000000000000000000000000000\n          dup2\n          mstore\n          0x04\n          add\n          dup1\n          dup1\n          0x20\n          add\n          dup3\n          dup2\n          sub\n          dup3\n          mstore\n          0x21\n          dup2\n          mstore\n          0x20\n          add\n          dup1\n          data_7bd893145ac435f339bb7c288622d270324b7033b011f693aca172f5cbc3c257\n          0x21\n          swap2\n          codecopy\n          0x40\n          add\n          swap2\n          pop\n          pop\n          mload(0x40)\n          dup1\n          swap2\n          sub\n          swap1\n          revert\n        tag_189:\n            /* \"openzeppelin/roles/Roles.sol\":761:766  false */\n          0x00\n            /* \"openzeppelin/roles/Roles.sol\":738:742  role */\n          dup3\n            /* \"openzeppelin/roles/Roles.sol\":738:749  role.bearer */\n          0x00\n          add\n            /* \"openzeppelin/roles/Roles.sol\":738:758  role.bearer[account] */\n          0x00\n            /* \"openzeppelin/roles/Roles.sol\":750:757  account */\n          dup4\n            /* \"openzeppelin/roles/Roles.sol\":738:758  role.bearer[account] */\n          0xffffffffffffffffffffffffffffffffffffffff\n          and\n          0xffffffffffffffffffffffffffffffffffffffff\n          and\n          dup2\n          mstore\n          0x20\n          add\n          swap1\n          dup2\n          mstore\n          0x20\n          add\n          0x00\n          keccak256\n          0x00\n            /* \"openzeppelin/roles/Roles.sol\":738:766  role.bearer[account] = false */\n          0x0100\n          exp\n          dup2\n          sload\n          dup2\n          0xff\n          mul\n          not\n          and\n          swap1\n          dup4\n          iszero\n          iszero\n          mul\n          or\n          swap1\n          sstore\n          pop\n            /* \"openzeppelin/roles/Roles.sol\":593:773  function remove(Role storage role, address account) internal {... */\n          pop\n          pop\n          jump\t// out\n            /* \"openzeppelin/math/SafeMath.sol\":1358:1492  function sub(uint256 a, uint256 b) internal pure returns (uint256) {... */\n        tag_181:\n            /* \"openzeppelin/math/SafeMath.sol\":1416:1423  uint256 */\n          0x00\n            /* \"openzeppelin/math/SafeMath.sol\":1442:1485  sub(a, b, \"SafeMath: subtraction overflow\") */\n          tag_191\n            /* \"openzeppelin/math/SafeMath.sol\":1446:1447  a */\n          dup4\n            /* \"openzeppelin/math/SafeMath.sol\":1449:1450  b */\n          dup4\n            /* \"openzeppelin/math/SafeMath.sol\":1442:1485  sub(a, b, \"SafeMath: subtraction overflow\") */\n          mload(0x40)\n          dup1\n          0x40\n          add\n          0x40\n          mstore\n          dup1\n          0x1e\n          dup2\n          mstore\n          0x20\n          add\n          0x536166654d6174683a207375627472616374696f6e206f766572666c6f770000\n          dup2\n          mstore\n          pop\n            /* \"openzeppelin/math/SafeMath.sol\":1442:1445  sub */\n          tag_94\n            /* \"openzeppelin/math/SafeMath.sol\":1442:1485  sub(a, b, \"SafeMath: subtraction overflow\") */\n          jump\t// in\n        tag_191:\n            /* \"openzeppelin/math/SafeMath.sol\":1435:1485  return sub(a, b, \"SafeMath: subtraction overflow\") */\n          swap1\n          pop\n            /* \"openzeppelin/math/SafeMath.sol\":1358:1492  function sub(uint256 a, uint256 b) internal pure returns (uint256) {... */\n          swap3\n          swap2\n          pop\n          pop\n          jump\t// out\n        stop\n        data_0557e210f7a69a685100a7e4e3d0a7024c546085cee28910fd17d0b081d9516f 45524332303a207472616e7366657220746f20746865207a65726f2061646472657373\n        data_149b126e7125232b4200af45303d04fba8b74653b1a295a6a561a528c33fefdd 45524332303a206275726e20616d6f756e7420657863656564732062616c616e6365\n        data_24883cc5fe64ace9d0df1893501ecb93c77180f0ff69cca79affb3c316dc8029 45524332303a20617070726f766520746f20746865207a65726f2061646472657373\n        data_4107e8a8b9e94bf8ff83080ddec1c0bffe897ebc2241b89d44f66b3d274088b6 45524332303a207472616e7366657220616d6f756e7420657863656564732062616c616e6365\n        data_79ecb50133735b20228dea9d08fe36a462bbc1350f591a146908848db91104cd 4d696e746572526f6c653a2063616c6c657220646f6573206e6f74206861766520746865204d696e74657220726f6c65\n        data_7bd893145ac435f339bb7c288622d270324b7033b011f693aca172f5cbc3c257 526f6c65733a206163636f756e7420646f6573206e6f74206861766520726f6c65\n        data_974d1b4421da69cc60b481194f0dad36a5bb4e23da810da7a7fb30cdba178330 45524332303a207472616e7366657220616d6f756e74206578636565647320616c6c6f77616e6365\n        data_9d214fa89563f4e6456a3929327e54500ea1cde2c0ba9fb2035ec106190d682f 526f6c65733a206163636f756e7420697320746865207a65726f2061646472657373\n        data_b16788493b576042bb52c50ed56189e0b250db113c7bfb1c3897d25cf9632d7f 45524332303a206275726e2066726f6d20746865207a65726f2061646472657373\n        data_baecc556b46f4ed0f2b4cb599d60785ac8563dd2dc0a5bf12edea1c39e5e1fea 45524332303a207472616e736665722066726f6d20746865207a65726f2061646472657373\n        data_c953f4879035ed60e766b34720f656aab5c697b141d924c283124ecedb91c208 45524332303a20617070726f76652066726f6d20746865207a65726f2061646472657373\n        data_f8b476f7d28209d77d4a4ac1fe36b9f8259aa1bb6bddfa6e89de7e51615cf8a8 45524332303a2064656372656173656420616c6c6f77616e63652062656c6f77207a65726f\n\n        auxdata: 0xa265627a7a723158203e4aa20fc4f73a3c2828e0b469810cc62747386989986d41706dcef41d37fa4864736f6c63430005110032\n    }\n}\n",
				"bytecode": {
					"linkReferences": {},
					"object": "60806040523480156200001157600080fd5b506040516200538c3803806200538c833981810160405262000037919081019062000152565b336000806101000a81548173ffffffffffffffffffffffffffffffffffffffff021916908373ffffffffffffffffffffffffffffffffffffffff16021790555060405162000085906200012d565b604051809103906000f080158015620000a2573d6000803e3d6000fd5b50600160006101000a81548173ffffffffffffffffffffffffffffffffffffffff021916908373ffffffffffffffffffffffffffffffffffffffff1602179055506000600160146101000a81548160ff021916908360ff16021790555081600281905550806003819055506000600481905550600060068190555060006008819055505050620001b7565b6120d480620032b883390190565b6000815190506200014c816200019d565b92915050565b600080604083850312156200016657600080fd5b600062000176858286016200013b565b925050602062000189858286016200013b565b9150509250929050565b6000819050919050565b620001a88162000193565b8114620001b457600080fd5b50565b6130f180620001c76000396000f3fe6080604052600436106101095760003560e01c8063a80db6fc11610095578063d0febe4c11610064578063d0febe4c1461032d578063da6001d114610337578063e0a8f6f514610360578063e831574214610389578063fffefd91146103b457610109565b8063a80db6fc146102af578063affc0670146102da578063bc903cb8146102e4578063c631b2921461032357610109565b80636c11bcd3116100dc5780636c11bcd3146101ca5780637b0472f0146101f35780637ff9b5961461021c5780638e08a50b146102475780639ab3f7a61461027257610109565b806309e69ede1461010e5780633ac0feac1461014b5780634ece90a814610176578063649c649c146101a1575b600080fd5b34801561011a57600080fd5b506101356004803603610130919081019061293b565b6103be565b6040516101429190612d9d565b60405180910390f35b34801561015757600080fd5b506101606103de565b60405161016d9190612d7b565b60405180910390f35b34801561018257600080fd5b5061018b61043d565b6040516101989190612db8565b60405180910390f35b3480156101ad57600080fd5b506101c860048036036101c39190810190612a7a565b610467565b005b3480156101d657600080fd5b506101f160048036036101ec9190810190612a28565b610530565b005b3480156101ff57600080fd5b5061021a60048036036102159190810190612a7a565b61083a565b005b34801561022857600080fd5b50610231610a1a565b60405161023e9190612eb8565b60405180910390f35b34801561025357600080fd5b5061025c610a20565b6040516102699190612d7b565b60405180910390f35b34801561027e57600080fd5b506102996004803603610294919081019061298d565b610a7f565b6040516102a69190612eb8565b60405180910390f35b3480156102bb57600080fd5b506102c4610e2d565b6040516102d19190612d7b565b60405180910390f35b6102e2610e8c565b005b3480156102f057600080fd5b5061030b60048036036103069190810190612a28565b610f64565b60405161031a93929190612dd3565b60405180910390f35b61032b611165565b005b61033561123e565b005b34801561034357600080fd5b5061035e60048036036103599190810190612a28565b6113ad565b005b34801561036c57600080fd5b5061038760048036036103829190810190612a28565b611507565b005b34801561039557600080fd5b5061039e611727565b6040516103ab9190612eb8565b60405180910390f35b6103bc61172d565b005b60056020528060005260406000206000915054906101000a900460ff1681565b606060018060149054906101000a900460ff1660ff1614610434576040517f08c379a000000000000000000000000000000000000000000000000000000000815260040161042b90612e78565b60405180910390fd5b60608091505090565b6000600160009054906101000a900473ffffffffffffffffffffffffffffffffffffffff16905090565b600560003373ffffffffffffffffffffffffffffffffffffffff1673ffffffffffffffffffffffffffffffffffffffff16815260200190815260200160002060009054906101000a900460ff166104f3576040517f08c379a00000000000000000000000000000000000000000000000000000000081526004016104ea90612e18565b60405180910390fd5b6000600760008381526020019081526020016000206004015411156105215761051c828261187a565b61052c565b61052b8282611b28565b5b5050565b600560003373ffffffffffffffffffffffffffffffffffffffff1673ffffffffffffffffffffffffffffffffffffffff16815260200190815260200160002060009054906101000a900460ff166105bc576040517f08c379a00000000000000000000000000000000000000000000000000000000081526004016105b390612e18565b60405180910390fd5b80600160009054906101000a900473ffffffffffffffffffffffffffffffffffffffff1673ffffffffffffffffffffffffffffffffffffffff166370a08231336040518263ffffffff1660e01b81526004016106189190612d0e565b60206040518083038186803b15801561063057600080fd5b505afa158015610644573d6000803e3d6000fd5b505050506040513d601f19601f820116820180604052506106689190810190612a51565b8110156106aa576040517f08c379a00000000000000000000000000000000000000000000000000000000081526004016106a190612e58565b60405180910390fd5b81600160009054906101000a900473ffffffffffffffffffffffffffffffffffffffff1673ffffffffffffffffffffffffffffffffffffffff166370a08231336040518263ffffffff1660e01b81526004016107069190612d0e565b60206040518083038186803b15801561071e57600080fd5b505afa158015610732573d6000803e3d6000fd5b505050506040513d601f19601f820116820180604052506107569190810190612a51565b1061083657600160009054906101000a900473ffffffffffffffffffffffffffffffffffffffff1673ffffffffffffffffffffffffffffffffffffffff16639dc29fac33846040518363ffffffff1660e01b81526004016107b8929190612d29565b600060405180830381600087803b1580156107d257600080fd5b505af11580156107e6573d6000803e3d6000fd5b505050503373ffffffffffffffffffffffffffffffffffffffff166108fc60025484029081150290604051600060405180830381858888f19350505050158015610834573d6000803e3d6000fd5b505b5050565b60006108468383611fdf565b905080600160009054906101000a900473ffffffffffffffffffffffffffffffffffffffff1673ffffffffffffffffffffffffffffffffffffffff166370a08231336040518263ffffffff1660e01b81526004016108a49190612d0e565b60206040518083038186803b1580156108bc57600080fd5b505afa1580156108d0573d6000803e3d6000fd5b505050506040513d601f19601f820116820180604052506108f49190810190612a51565b1015801561092257506007600084815260200190815260200160002060080160019054906101000a900460ff165b15610a1557600160009054906101000a900473ffffffffffffffffffffffffffffffffffffffff1673ffffffffffffffffffffffffffffffffffffffff1663ebc3adcd33836040518363ffffffff1660e01b8152600401610984929190612d29565b600060405180830381600087803b15801561099e57600080fd5b505af11580156109b2573d6000803e3d6000fd5b505050508160076000858152602001908152602001600020600501600082825401925050819055506109e38361205e565b8015610a05575060006007600085815260200190815260200160002060040154115b15610a1457610a13836122f5565b5b5b505050565b60025481565b606060018060149054906101000a900460ff1660ff1614610a76576040517f08c379a0000000000000000000000000000000000000000000000000000000008152600401610a6d90612e78565b60405180910390fd5b60608091505090565b6000600560003373ffffffffffffffffffffffffffffffffffffffff1673ffffffffffffffffffffffffffffffffffffffff16815260200190815260200160002060009054906101000a900460ff16610b0d576040517f08c379a0000000000000000000000000000000000000000000000000000000008152600401610b0490612e18565b60405180910390fd5b60018060149054906101000a900460ff1660ff1614610b61576040517f08c379a0000000000000000000000000000000000000000000000000000000008152600401610b5890612e78565b60405180910390fd5b610b6961277b565b33816000019073ffffffffffffffffffffffffffffffffffffffff16908173ffffffffffffffffffffffffffffffffffffffff168152505082816020019073ffffffffffffffffffffffffffffffffffffffff16908173ffffffffffffffffffffffffffffffffffffffff168152505087878080601f016020809104026020016040519081016040528093929190818152602001838380828437600081840152601f19601f82011690508083019250505050505050816040018190525085858080601f016020809104026020016040519081016040528093929190818152602001838380828437600081840152601f19601f8201169050808301925050505050505081606001819052508381608001818152505060008160a001818152505060008160c001818152505060008160e0019060ff16908160ff16815250506001816101000190151590811515815250506008600081548092919060010191905055508060076000600854815260200190815260200160002060008201518160000160006101000a81548173ffffffffffffffffffffffffffffffffffffffff021916908373ffffffffffffffffffffffffffffffffffffffff16021790555060208201518160010160006101000a81548173ffffffffffffffffffffffffffffffffffffffff021916908373ffffffffffffffffffffffffffffffffffffffff1602179055506040820151816002019080519060200190610d8a9291906127f8565b506060820151816003019080519060200190610da79291906127f8565b506080820151816004015560a0820151816005015560c0820151816006015560e08201518160080160006101000a81548160ff021916908360ff1602179055506101008201518160080160016101000a81548160ff0219169083151502179055509050506006600081548092919060010191905055506008549150509695505050505050565b606060018060149054906101000a900460ff1660ff1614610e83576040517f08c379a0000000000000000000000000000000000000000000000000000000008152600401610e7a90612e78565b60405180910390fd5b60608091505090565b6000809054906101000a900473ffffffffffffffffffffffffffffffffffffffff1673ffffffffffffffffffffffffffffffffffffffff163373ffffffffffffffffffffffffffffffffffffffff1614610f1b576040517f08c379a0000000000000000000000000000000000000000000000000000000008152600401610f1290612e38565b60405180910390fd5b60018060146101000a81548160ff021916908360ff1602179055507f1c9b9ae417b15d6782146a380a280b52403258caac00795087e065bbc9fb9e8060405160405180910390a1565b606080600060018060149054906101000a900460ff1660ff1614610fbd576040517f08c379a0000000000000000000000000000000000000000000000000000000008152600401610fb490612e78565b60405180910390fd5b60076000858152602001908152602001600020600201600760008681526020019081526020016000206003016007600087815260200190815260200160002060010160009054906101000a900473ffffffffffffffffffffffffffffffffffffffff16828054600181600116156101000203166002900480601f0160208091040260200160405190810160405280929190818152602001828054600181600116156101000203166002900480156110b55780601f1061108a576101008083540402835291602001916110b5565b820191906000526020600020905b81548152906001019060200180831161109857829003601f168201915b50505050509250818054600181600116156101000203166002900480601f0160208091040260200160405190810160405280929190818152602001828054600181600116156101000203166002900480156111515780601f1061112657610100808354040283529160200191611151565b820191906000526020600020905b81548152906001019060200180831161113457829003601f168201915b505050505091509250925092509193909250565b6000809054906101000a900473ffffffffffffffffffffffffffffffffffffffff1673ffffffffffffffffffffffffffffffffffffffff163373ffffffffffffffffffffffffffffffffffffffff16146111f4576040517f08c379a00000000000000000000000000000000000000000000000000000000081526004016111eb90612e38565b60405180910390fd5b6002600160146101000a81548160ff021916908360ff1602179055507f345684bfb9687888cddebd9905f5f98f8bd31ee0d8b4397209cbbf0655c6367760405160405180910390a1565b600560003373ffffffffffffffffffffffffffffffffffffffff1673ffffffffffffffffffffffffffffffffffffffff16815260200190815260200160002060009054906101000a900460ff166112ca576040517f08c379a00000000000000000000000000000000000000000000000000000000081526004016112c190612e18565b60405180910390fd5b34600254811015611310576040517f08c379a000000000000000000000000000000000000000000000000000000000815260040161130790612e98565b60405180910390fd5b600160009054906101000a900473ffffffffffffffffffffffffffffffffffffffff1673ffffffffffffffffffffffffffffffffffffffff166340c10f1933600254348161135a57fe5b046040518363ffffffff1660e01b8152600401611378929190612d29565b600060405180830381600087803b15801561139257600080fd5b505af11580156113a6573d6000803e3d6000fd5b5050505050565b600560003373ffffffffffffffffffffffffffffffffffffffff1673ffffffffffffffffffffffffffffffffffffffff16815260200190815260200160002060009054906101000a900460ff16611439576040517f08c379a000000000000000000000000000000000000000000000000000000000815260040161143090612e18565b60405180910390fd5b803373ffffffffffffffffffffffffffffffffffffffff166007600083815260200190815260200160002060000160009054906101000a900473ffffffffffffffffffffffffffffffffffffffff1673ffffffffffffffffffffffffffffffffffffffff16146114de576040517f08c379a00000000000000000000000000000000000000000000000000000000081526004016114d590612e38565b60405180910390fd5b6002600160149054906101000a900460ff1660ff16141561150357611502826122f5565b5b5050565b600560003373ffffffffffffffffffffffffffffffffffffffff1673ffffffffffffffffffffffffffffffffffffffff16815260200190815260200160002060009054906101000a900460ff16611593576040517f08c379a000000000000000000000000000000000000000000000000000000000815260040161158a90612e18565b60405180910390fd5b60018060149054906101000a900460ff1660ff16146115e7576040517f08c379a00000000000000000000000000000000000000000000000000000000081526004016115de90612e78565b60405180910390fd5b803373ffffffffffffffffffffffffffffffffffffffff166007600083815260200190815260200160002060000160009054906101000a900473ffffffffffffffffffffffffffffffffffffffff1673ffffffffffffffffffffffffffffffffffffffff161461168c576040517f08c379a000000000000000000000000000000000000000000000000000000000815260040161168390612e38565b60405180910390fd5b60006007600084815260200190815260200160002060080160009054906101000a900460ff1660ff1614156117235760016007600084815260200190815260200160002060080160006101000a81548160ff021916908360ff1602179055507f91222b74076a9254a8ea367a3678ea96fbde84afe416fd6530a5777ea85a9bbe8260405161171a9190612eb8565b60405180910390a15b5050565b60035481565b34600254811015611773576040517f08c379a000000000000000000000000000000000000000000000000000000000815260040161176a90612e98565b60405180910390fd5b6001600560003373ffffffffffffffffffffffffffffffffffffffff1673ffffffffffffffffffffffffffffffffffffffff16815260200190815260200160002060006101000a81548160ff021916908315150217905550600160009054906101000a900473ffffffffffffffffffffffffffffffffffffffff1673ffffffffffffffffffffffffffffffffffffffff166340c10f1933600254348161181557fe5b046040518363ffffffff1660e01b8152600401611833929190612d29565b600060405180830381600087803b15801561184d57600080fd5b505af1158015611861573d6000803e3d6000fd5b5050505060046000815480929190600101919050555050565b60006007600083815260200190815260200160002060070160003373ffffffffffffffffffffffffffffffffffffffff1673ffffffffffffffffffffffffffffffffffffffff168152602001908152602001600020541180156119305750816007600083815260200190815260200160002060070160003373ffffffffffffffffffffffffffffffffffffffff1673ffffffffffffffffffffffffffffffffffffffff1681526020019081526020016000205410155b8015611963575060026007600083815260200190815260200160002060080160009054906101000a900460ff1660ff1614155b15611b2457600061197482846126b9565b90506007600083815260200190815260200160002060070160003373ffffffffffffffffffffffffffffffffffffffff1673ffffffffffffffffffffffffffffffffffffffff168152602001908152602001600020546007600084815260200190815260200160002060050160008282540392505081905550826007600084815260200190815260200160002060070160003373ffffffffffffffffffffffffffffffffffffffff1673ffffffffffffffffffffffffffffffffffffffff16815260200190815260200160002060008282540392505081905550806007600084815260200190815260200160002060060160008282540392505081905550600160009054906101000a900473ffffffffffffffffffffffffffffffffffffffff1673ffffffffffffffffffffffffffffffffffffffff1663a9059cbb33836040518363ffffffff1660e01b8152600401611acf929190612d29565b602060405180830381600087803b158015611ae957600080fd5b505af1158015611afd573d6000803e3d6000fd5b505050506040513d601f19601f82011682018060405250611b219190810190612964565b50505b5050565b60018060149054906101000a900460ff1660ff161415611dbe5760006007600083815260200190815260200160002060070160003373ffffffffffffffffffffffffffffffffffffffff1673ffffffffffffffffffffffffffffffffffffffff16815260200190815260200160002054118015611bf85750816007600083815260200190815260200160002060070160003373ffffffffffffffffffffffffffffffffffffffff1673ffffffffffffffffffffffffffffffffffffffff1681526020019081526020016000205410155b15611db9576000611c0982846126b9565b90506007600083815260200190815260200160002060070160003373ffffffffffffffffffffffffffffffffffffffff1673ffffffffffffffffffffffffffffffffffffffff168152602001908152602001600020546007600084815260200190815260200160002060050160008282540392505081905550826007600084815260200190815260200160002060070160003373ffffffffffffffffffffffffffffffffffffffff1673ffffffffffffffffffffffffffffffffffffffff16815260200190815260200160002060008282540392505081905550806007600084815260200190815260200160002060060160008282540392505081905550600160009054906101000a900473ffffffffffffffffffffffffffffffffffffffff1673ffffffffffffffffffffffffffffffffffffffff1663a9059cbb33836040518363ffffffff1660e01b8152600401611d64929190612d29565b602060405180830381600087803b158015611d7e57600080fd5b505af1158015611d92573d6000803e3d6000fd5b505050506040513d601f19601f82011682018060405250611db69190810190612964565b50505b611fdb565b6002600160149054906101000a900460ff1660ff161415611fda5760006007600083815260200190815260200160002060070160003373ffffffffffffffffffffffffffffffffffffffff1673ffffffffffffffffffffffffffffffffffffffff16815260200190815260200160002054118015611e8f5750816007600083815260200190815260200160002060070160003373ffffffffffffffffffffffffffffffffffffffff1673ffffffffffffffffffffffffffffffffffffffff1681526020019081526020016000205410155b15611fd9576000611ea082846126b9565b9050826007600084815260200190815260200160002060070160003373ffffffffffffffffffffffffffffffffffffffff1673ffffffffffffffffffffffffffffffffffffffff16815260200190815260200160002060008282540392505081905550806007600084815260200190815260200160002060060160008282540392505081905550600160009054906101000a900473ffffffffffffffffffffffffffffffffffffffff1673ffffffffffffffffffffffffffffffffffffffff1663a9059cbb33836040518363ffffffff1660e01b8152600401611f84929190612d29565b602060405180830381600087803b158015611f9e57600080fd5b505af1158015611fb2573d6000803e3d6000fd5b505050506040513d601f19601f82011682018060405250611fd69190810190612964565b50505b5b5b5050565b6000806007600085815260200190815260200160002060070160003373ffffffffffffffffffffffffffffffffffffffff1673ffffffffffffffffffffffffffffffffffffffff16815260200190815260200160002054905060006002820a90506000848301905060006002820a905082810394505050505092915050565b600061206861277b565b60076000848152602001908152602001600020604051806101200160405290816000820160009054906101000a900473ffffffffffffffffffffffffffffffffffffffff1673ffffffffffffffffffffffffffffffffffffffff1673ffffffffffffffffffffffffffffffffffffffff1681526020016001820160009054906101000a900473ffffffffffffffffffffffffffffffffffffffff1673ffffffffffffffffffffffffffffffffffffffff1673ffffffffffffffffffffffffffffffffffffffff168152602001600282018054600181600116156101000203166002900480601f0160208091040260200160405190810160405280929190818152602001828054600181600116156101000203166002900480156121cc5780601f106121a1576101008083540402835291602001916121cc565b820191906000526020600020905b8154815290600101906020018083116121af57829003601f168201915b50505050508152602001600382018054600181600116156101000203166002900480601f01602080910402602001604051908101604052809291908181526020018280546001816001161561010002031660029004801561226e5780601f106122435761010080835404028352916020019161226e565b820191906000526020600020905b81548152906001019060200180831161225157829003601f168201915b505050505081526020016004820154815260200160058201548152602001600682015481526020016008820160009054906101000a900460ff1660ff1660ff1681526020016008820160019054906101000a900460ff16151515158152505090504781608001511080156122ed57506122e683612738565b8160a00151115b915050919050565b60026007600083815260200190815260200160002060080160006101000a81548160ff021916908360ff16021790555061232d61277b565b60076000838152602001908152602001600020604051806101200160405290816000820160009054906101000a900473ffffffffffffffffffffffffffffffffffffffff1673ffffffffffffffffffffffffffffffffffffffff1673ffffffffffffffffffffffffffffffffffffffff1681526020016001820160009054906101000a900473ffffffffffffffffffffffffffffffffffffffff1673ffffffffffffffffffffffffffffffffffffffff1673ffffffffffffffffffffffffffffffffffffffff168152602001600282018054600181600116156101000203166002900480601f0160208091040260200160405190810160405280929190818152602001828054600181600116156101000203166002900480156124915780601f1061246657610100808354040283529160200191612491565b820191906000526020600020905b81548152906001019060200180831161247457829003601f168201915b50505050508152602001600382018054600181600116156101000203166002900480601f0160208091040260200160405190810160405280929190818152602001828054600181600116156101000203166002900480156125335780601f1061250857610100808354040283529160200191612533565b820191906000526020600020905b81548152906001019060200180831161251657829003601f168201915b505050505081526020016004820154815260200160058201548152602001600682015481526020016008820160009054906101000a900460ff1660ff1660ff1681526020016008820160019054906101000a900460ff161515151581525050905060008160800151111561263557600160009054906101000a900473ffffffffffffffffffffffffffffffffffffffff1673ffffffffffffffffffffffffffffffffffffffff16639dc29fac308360c001516040518363ffffffff1660e01b8152600401612602929190612d52565b600060405180830381600087803b15801561261c57600080fd5b505af1158015612630573d6000803e3d6000fd5b505050505b806020015173ffffffffffffffffffffffffffffffffffffffff1663986cc3118260800151848460a001518560c001516040518563ffffffff1660e01b815260040161268393929190612ed3565b6000604051808303818588803b15801561269c57600080fd5b505af11580156126b0573d6000803e3d6000fd5b50505050505050565b6000806007600085815260200190815260200160002060070160003373ffffffffffffffffffffffffffffffffffffffff1673ffffffffffffffffffffffffffffffffffffffff16815260200190815260200160002054905060006002820a90506000848303905060006002820a905080830394505050505092915050565b6000600654600454600a804702600a6007600088815260200190815260200160002060040154028161276657fe5b046002018161277157fe5b0402019050919050565b604051806101200160405280600073ffffffffffffffffffffffffffffffffffffffff168152602001600073ffffffffffffffffffffffffffffffffffffffff1681526020016060815260200160608152602001600081526020016000815260200160008152602001600060ff1681526020016000151581525090565b828054600181600116156101000203166002900490600052602060002090601f016020900481019282601f1061283957805160ff1916838001178555612867565b82800160010185558215612867579182015b8281111561286657825182559160200191906001019061284b565b5b5090506128749190612878565b5090565b61289a91905b8082111561289657600081600090555060010161287e565b5090565b90565b6000813590506128ac81613069565b92915050565b6000815190506128c181613080565b92915050565b60008083601f8401126128d957600080fd5b8235905067ffffffffffffffff8111156128f257600080fd5b60208301915083600182028301111561290a57600080fd5b9250929050565b60008135905061292081613097565b92915050565b60008151905061293581613097565b92915050565b60006020828403121561294d57600080fd5b600061295b8482850161289d565b91505092915050565b60006020828403121561297657600080fd5b6000612984848285016128b2565b91505092915050565b600080600080600080608087890312156129a657600080fd5b600087013567ffffffffffffffff8111156129c057600080fd5b6129cc89828a016128c7565b9650965050602087013567ffffffffffffffff8111156129eb57600080fd5b6129f789828a016128c7565b94509450506040612a0a89828a01612911565b9250506060612a1b89828a0161289d565b9150509295509295509295565b600060208284031215612a3a57600080fd5b6000612a4884828501612911565b91505092915050565b600060208284031215612a6357600080fd5b6000612a7184828501612926565b91505092915050565b60008060408385031215612a8d57600080fd5b6000612a9b85828601612911565b9250506020612aac85828601612911565b9150509250929050565b6000612ac28383612cf0565b60208301905092915050565b612ad781612fa7565b82525050565b612ae681612f5f565b82525050565b6000612af782612f1a565b612b018185612f3d565b9350612b0c83612f0a565b8060005b83811015612b3d578151612b248882612ab6565b9750612b2f83612f30565b925050600181019050612b10565b5085935050505092915050565b612b5381612f71565b82525050565b612b6281612fb9565b82525050565b612b7181612fdd565b82525050565b6000612b8282612f25565b612b8c8185612f4e565b9350612b9c818560208601613025565b612ba581613058565b840191505092915050565b6000612bbd601183612f4e565b91507f4e6f742061207061727469636970616e740000000000000000000000000000006000830152602082019050919050565b6000612bfd600c83612f4e565b91507f556e617574686f72697a656400000000000000000000000000000000000000006000830152602082019050919050565b6000612c3d600e83612f4e565b91507f496e76616c696420616d6f756e740000000000000000000000000000000000006000830152602082019050919050565b6000612c7d600f83612f4e565b91507f566f74696e67206e6f74206f70656e00000000000000000000000000000000006000830152602082019050919050565b6000612cbd601783612f4e565b91507f496e76616c696420707572636861736520616d6f756e740000000000000000006000830152602082019050919050565b612cf981612f9d565b82525050565b612d0881612f9d565b82525050565b6000602082019050612d236000830184612ace565b92915050565b6000604082019050612d3e6000830185612ace565b612d4b6020830184612cff565b9392505050565b6000604082019050612d676000830185612add565b612d746020830184612cff565b9392505050565b60006020820190508181036000830152612d958184612aec565b905092915050565b6000602082019050612db26000830184612b4a565b92915050565b6000602082019050612dcd6000830184612b68565b92915050565b60006060820190508181036000830152612ded8186612b77565b90508181036020830152612e018185612b77565b9050612e106040830184612b59565b949350505050565b60006020820190508181036000830152612e3181612bb0565b9050919050565b60006020820190508181036000830152612e5181612bf0565b9050919050565b60006020820190508181036000830152612e7181612c30565b9050919050565b60006020820190508181036000830152612e9181612c70565b9050919050565b60006020820190508181036000830152612eb181612cb0565b9050919050565b6000602082019050612ecd6000830184612cff565b92915050565b6000606082019050612ee86000830186612cff565b612ef56020830185612cff565b612f026040830184612cff565b949350505050565b6000819050602082019050919050565b600081519050919050565b600081519050919050565b6000602082019050919050565b600082825260208201905092915050565b600082825260208201905092915050565b6000612f6a82612f7d565b9050919050565b60008115159050919050565b600073ffffffffffffffffffffffffffffffffffffffff82169050919050565b6000819050919050565b6000612fb282613001565b9050919050565b6000612fc482612fcb565b9050919050565b6000612fd682612f7d565b9050919050565b6000612fe882612fef565b9050919050565b6000612ffa82612f7d565b9050919050565b600061300c82613013565b9050919050565b600061301e82612f7d565b9050919050565b60005b83811015613043578082015181840152602081019050613028565b83811115613052576000848401525b50505050565b6000601f19601f8301169050919050565b61307281612f5f565b811461307d57600080fd5b50565b61308981612f71565b811461309457600080fd5b50565b6130a081612f9d565b81146130ab57600080fd5b5056fea365627a7a7231582049dd6987cfbc26de1c2d2ac7443c6be3c89556b725ee3be0f93d4bd140a13ef06c6578706572696d656e74616cf564736f6c6343000511004060806040523480156200001157600080fd5b506040518060400160405280600381526020017f55434d00000000000000000000000000000000000000000000000000000000008152506040518060400160405280600381526020017f55434d0000000000000000000000000000000000000000000000000000000000815250600082600390805190602001906200009892919062000364565b508160049080519060200190620000b192919062000364565b5080600560006101000a81548160ff021916908360ff160217905550505050620000f0620000e46200013760201b60201c565b6200013f60201b60201c565b33600760006101000a81548173ffffffffffffffffffffffffffffffffffffffff021916908373ffffffffffffffffffffffffffffffffffffffff16021790555062000413565b600033905090565b6200015a816006620001a060201b620018c11790919060201c565b8073ffffffffffffffffffffffffffffffffffffffff167f6ae172837ea30b801fbfcdd4108aa1d5bf8ff775444fd70256b44e6bf3dfc3f660405160405180910390a250565b620001b282826200028460201b60201c565b1562000226576040517f08c379a000000000000000000000000000000000000000000000000000000000815260040180806020018281038252601f8152602001807f526f6c65733a206163636f756e7420616c72656164792068617320726f6c650081525060200191505060405180910390fd5b60018260000160008373ffffffffffffffffffffffffffffffffffffffff1673ffffffffffffffffffffffffffffffffffffffff16815260200190815260200160002060006101000a81548160ff0219169083151502179055505050565b60008073ffffffffffffffffffffffffffffffffffffffff168273ffffffffffffffffffffffffffffffffffffffff1614156200030d576040517f08c379a0000000000000000000000000000000000000000000000000000000008152600401808060200182810382526022815260200180620020b26022913960400191505060405180910390fd5b8260000160008373ffffffffffffffffffffffffffffffffffffffff1673ffffffffffffffffffffffffffffffffffffffff16815260200190815260200160002060009054906101000a900460ff16905092915050565b828054600181600116156101000203166002900490600052602060002090601f016020900481019282601f10620003a757805160ff1916838001178555620003d8565b82800160010185558215620003d8579182015b82811115620003d7578251825591602001919060010190620003ba565b5b509050620003e79190620003eb565b5090565b6200041091905b808211156200040c576000816000905550600101620003f2565b5090565b90565b611c8f80620004236000396000f3fe608060405234801561001057600080fd5b506004361061010b5760003560e01c806395d89b41116100a2578063a457c2d711610071578063a457c2d7146104ec578063a9059cbb14610552578063aa271e1a146105b8578063dd62ed3e14610614578063ebc3adcd1461068c5761010b565b806395d89b41146103cd578063983b2d561461045057806398650275146104945780639dc29fac1461049e5761010b565b8063313ce567116100de578063313ce5671461029d57806339509351146102c157806340c10f191461032757806370a08231146103755761010b565b806306fdde0314610110578063095ea7b31461019357806318160ddd146101f957806323b872dd14610217575b600080fd5b6101186106da565b6040518080602001828103825283818151815260200191508051906020019080838360005b8381101561015857808201518184015260208101905061013d565b50505050905090810190601f1680156101855780820380516001836020036101000a031916815260200191505b509250505060405180910390f35b6101df600480360360408110156101a957600080fd5b81019080803573ffffffffffffffffffffffffffffffffffffffff1690602001909291908035906020019092919050505061077c565b604051808215151515815260200191505060405180910390f35b61020161079a565b6040518082815260200191505060405180910390f35b6102836004803603606081101561022d57600080fd5b81019080803573ffffffffffffffffffffffffffffffffffffffff169060200190929190803573ffffffffffffffffffffffffffffffffffffffff169060200190929190803590602001909291905050506107a4565b604051808215151515815260200191505060405180910390f35b6102a561087d565b604051808260ff1660ff16815260200191505060405180910390f35b61030d600480360360408110156102d757600080fd5b81019080803573ffffffffffffffffffffffffffffffffffffffff16906020019092919080359060200190929190505050610894565b604051808215151515815260200191505060405180910390f35b6103736004803603604081101561033d57600080fd5b81019080803573ffffffffffffffffffffffffffffffffffffffff16906020019092919080359060200190929190505050610947565b005b6103b76004803603602081101561038b57600080fd5b81019080803573ffffffffffffffffffffffffffffffffffffffff1690602001909291905050506109ba565b6040518082815260200191505060405180910390f35b6103d5610a02565b6040518080602001828103825283818151815260200191508051906020019080838360005b838110156104155780820151818401526020810190506103fa565b50505050905090810190601f1680156104425780820380516001836020036101000a031916815260200191505b509250505060405180910390f35b6104926004803603602081101561046657600080fd5b81019080803573ffffffffffffffffffffffffffffffffffffffff169060200190929190505050610aa4565b005b61049c610b15565b005b6104ea600480360360408110156104b457600080fd5b81019080803573ffffffffffffffffffffffffffffffffffffffff16906020019092919080359060200190929190505050610b27565b005b6105386004803603604081101561050257600080fd5b81019080803573ffffffffffffffffffffffffffffffffffffffff16906020019092919080359060200190929190505050610b9a565b604051808215151515815260200191505060405180910390f35b61059e6004803603604081101561056857600080fd5b81019080803573ffffffffffffffffffffffffffffffffffffffff16906020019092919080359060200190929190505050610c67565b604051808215151515815260200191505060405180910390f35b6105fa600480360360208110156105ce57600080fd5b81019080803573ffffffffffffffffffffffffffffffffffffffff169060200190929190505050610c85565b604051808215151515815260200191505060405180910390f35b6106766004803603604081101561062a57600080fd5b81019080803573ffffffffffffffffffffffffffffffffffffffff169060200190929190803573ffffffffffffffffffffffffffffffffffffffff169060200190929190505050610ca2565b6040518082815260200191505060405180910390f35b6106d8600480360360408110156106a257600080fd5b81019080803573ffffffffffffffffffffffffffffffffffffffff16906020019092919080359060200190929190505050610d29565b005b606060038054600181600116156101000203166002900480601f0160208091040260200160405190810160405280929190818152602001828054600181600116156101000203166002900480156107725780601f1061074757610100808354040283529160200191610772565b820191906000526020600020905b81548152906001019060200180831161075557829003601f168201915b5050505050905090565b6000610790610789610dbf565b8484610dc7565b6001905092915050565b6000600254905090565b60006107b1848484610fbe565b610872846107bd610dbf565b61086d85604051806060016040528060288152602001611b8260289139600160008b73ffffffffffffffffffffffffffffffffffffffff1673ffffffffffffffffffffffffffffffffffffffff1681526020019081526020016000206000610823610dbf565b73ffffffffffffffffffffffffffffffffffffffff1673ffffffffffffffffffffffffffffffffffffffff168152602001908152602001600020546112749092919063ffffffff16565b610dc7565b600190509392505050565b6000600560009054906101000a900460ff16905090565b600061093d6108a1610dbf565b8461093885600160006108b2610dbf565b73ffffffffffffffffffffffffffffffffffffffff1673ffffffffffffffffffffffffffffffffffffffff16815260200190815260200160002060008973ffffffffffffffffffffffffffffffffffffffff1673ffffffffffffffffffffffffffffffffffffffff1681526020019081526020016000205461133490919063ffffffff16565b610dc7565b6001905092915050565b610957610952610dbf565b610c85565b6109ac576040517f08c379a0000000000000000000000000000000000000000000000000000000008152600401808060200182810382526030815260200180611b316030913960400191505060405180910390fd5b6109b682826113bc565b5050565b60008060008373ffffffffffffffffffffffffffffffffffffffff1673ffffffffffffffffffffffffffffffffffffffff168152602001908152602001600020549050919050565b606060048054600181600116156101000203166002900480601f016020809104026020016040519081016040528092919081815260200182805460018160011615610100020316600290048015610a9a5780601f10610a6f57610100808354040283529160200191610a9a565b820191906000526020600020905b815481529060010190602001808311610a7d57829003601f168201915b5050505050905090565b610ab4610aaf610dbf565b610c85565b610b09576040517f08c379a0000000000000000000000000000000000000000000000000000000008152600401808060200182810382526030815260200180611b316030913960400191505060405180910390fd5b610b1281611577565b50565b610b25610b20610dbf565b6115d1565b565b610b37610b32610dbf565b610c85565b610b8c576040517f08c379a0000000000000000000000000000000000000000000000000000000008152600401808060200182810382526030815260200180611b316030913960400191505060405180910390fd5b610b96828261162b565b5050565b6000610c5d610ba7610dbf565b84610c5885604051806060016040528060258152602001611c366025913960016000610bd1610dbf565b73ffffffffffffffffffffffffffffffffffffffff1673ffffffffffffffffffffffffffffffffffffffff16815260200190815260200160002060008a73ffffffffffffffffffffffffffffffffffffffff1673ffffffffffffffffffffffffffffffffffffffff168152602001908152602001600020546112749092919063ffffffff16565b610dc7565b6001905092915050565b6000610c7b610c74610dbf565b8484610fbe565b6001905092915050565b6000610c9b8260066117e390919063ffffffff16565b9050919050565b6000600160008473ffffffffffffffffffffffffffffffffffffffff1673ffffffffffffffffffffffffffffffffffffffff16815260200190815260200160002060008373ffffffffffffffffffffffffffffffffffffffff1673ffffffffffffffffffffffffffffffffffffffff16815260200190815260200160002054905092915050565b610d39610d34610dbf565b610c85565b610d8e576040517f08c379a0000000000000000000000000000000000000000000000000000000008152600401808060200182810382526030815260200180611b316030913960400191505060405180910390fd5b610dbb82600760009054906101000a900473ffffffffffffffffffffffffffffffffffffffff1683610fbe565b5050565b600033905090565b600073ffffffffffffffffffffffffffffffffffffffff168373ffffffffffffffffffffffffffffffffffffffff161415610e4d576040517f08c379a0000000000000000000000000000000000000000000000000000000008152600401808060200182810382526024815260200180611c126024913960400191505060405180910390fd5b600073ffffffffffffffffffffffffffffffffffffffff168273ffffffffffffffffffffffffffffffffffffffff161415610ed3576040517f08c379a0000000000000000000000000000000000000000000000000000000008152600401808060200182810382526022815260200180611ae96022913960400191505060405180910390fd5b80600160008573ffffffffffffffffffffffffffffffffffffffff1673ffffffffffffffffffffffffffffffffffffffff16815260200190815260200160002060008473ffffffffffffffffffffffffffffffffffffffff1673ffffffffffffffffffffffffffffffffffffffff168152602001908152602001600020819055508173ffffffffffffffffffffffffffffffffffffffff168373ffffffffffffffffffffffffffffffffffffffff167f8c5be1e5ebec7d5bd14f71427d1e84f3dd0314c0f7b2291e5b200ac8c7c3b925836040518082815260200191505060405180910390a3505050565b600073ffffffffffffffffffffffffffffffffffffffff168373ffffffffffffffffffffffffffffffffffffffff161415611044576040517f08c379a0000000000000000000000000000000000000000000000000000000008152600401808060200182810382526025815260200180611bed6025913960400191505060405180910390fd5b600073ffffffffffffffffffffffffffffffffffffffff168273ffffffffffffffffffffffffffffffffffffffff1614156110ca576040517f08c379a0000000000000000000000000000000000000000000000000000000008152600401808060200182810382526023815260200180611aa46023913960400191505060405180910390fd5b61113581604051806060016040528060268152602001611b0b602691396000808773ffffffffffffffffffffffffffffffffffffffff1673ffffffffffffffffffffffffffffffffffffffff168152602001908152602001600020546112749092919063ffffffff16565b6000808573ffffffffffffffffffffffffffffffffffffffff1673ffffffffffffffffffffffffffffffffffffffff168152602001908152602001600020819055506111c8816000808573ffffffffffffffffffffffffffffffffffffffff1673ffffffffffffffffffffffffffffffffffffffff1681526020019081526020016000205461133490919063ffffffff16565b6000808473ffffffffffffffffffffffffffffffffffffffff1673ffffffffffffffffffffffffffffffffffffffff168152602001908152602001600020819055508173ffffffffffffffffffffffffffffffffffffffff168373ffffffffffffffffffffffffffffffffffffffff167fddf252ad1be2c89b69c2b068fc378daa952ba7f163c4a11628f55a4df523b3ef836040518082815260200191505060405180910390a3505050565b6000838311158290611321576040517f08c379a00000000000000000000000000000000000000000000000000000000081526004018080602001828103825283818151815260200191508051906020019080838360005b838110156112e65780820151818401526020810190506112cb565b50505050905090810190601f1680156113135780820380516001836020036101000a031916815260200191505b509250505060405180910390fd5b5060008385039050809150509392505050565b6000808284019050838110156113b2576040517f08c379a000000000000000000000000000000000000000000000000000000000815260040180806020018281038252601b8152602001807f536166654d6174683a206164646974696f6e206f766572666c6f77000000000081525060200191505060405180910390fd5b8091505092915050565b600073ffffffffffffffffffffffffffffffffffffffff168273ffffffffffffffffffffffffffffffffffffffff16141561145f576040517f08c379a000000000000000000000000000000000000000000000000000000000815260040180806020018281038252601f8152602001807f45524332303a206d696e7420746f20746865207a65726f20616464726573730081525060200191505060405180910390fd5b6114748160025461133490919063ffffffff16565b6002819055506114cb816000808573ffffffffffffffffffffffffffffffffffffffff1673ffffffffffffffffffffffffffffffffffffffff1681526020019081526020016000205461133490919063ffffffff16565b6000808473ffffffffffffffffffffffffffffffffffffffff1673ffffffffffffffffffffffffffffffffffffffff168152602001908152602001600020819055508173ffffffffffffffffffffffffffffffffffffffff16600073ffffffffffffffffffffffffffffffffffffffff167fddf252ad1be2c89b69c2b068fc378daa952ba7f163c4a11628f55a4df523b3ef836040518082815260200191505060405180910390a35050565b61158b8160066118c190919063ffffffff16565b8073ffffffffffffffffffffffffffffffffffffffff167f6ae172837ea30b801fbfcdd4108aa1d5bf8ff775444fd70256b44e6bf3dfc3f660405160405180910390a250565b6115e581600661199c90919063ffffffff16565b8073ffffffffffffffffffffffffffffffffffffffff167fe94479a9f7e1952cc78f2d6baab678adc1b772d936c6583def489e524cb6669260405160405180910390a250565b600073ffffffffffffffffffffffffffffffffffffffff168273ffffffffffffffffffffffffffffffffffffffff1614156116b1576040517f08c379a0000000000000000000000000000000000000000000000000000000008152600401808060200182810382526021815260200180611bcc6021913960400191505060405180910390fd5b61171c81604051806060016040528060228152602001611ac7602291396000808673ffffffffffffffffffffffffffffffffffffffff1673ffffffffffffffffffffffffffffffffffffffff168152602001908152602001600020546112749092919063ffffffff16565b6000808473ffffffffffffffffffffffffffffffffffffffff1673ffffffffffffffffffffffffffffffffffffffff1681526020019081526020016000208190555061177381600254611a5990919063ffffffff16565b600281905550600073ffffffffffffffffffffffffffffffffffffffff168273ffffffffffffffffffffffffffffffffffffffff167fddf252ad1be2c89b69c2b068fc378daa952ba7f163c4a11628f55a4df523b3ef836040518082815260200191505060405180910390a35050565b60008073ffffffffffffffffffffffffffffffffffffffff168273ffffffffffffffffffffffffffffffffffffffff16141561186a576040517f08c379a0000000000000000000000000000000000000000000000000000000008152600401808060200182810382526022815260200180611baa6022913960400191505060405180910390fd5b8260000160008373ffffffffffffffffffffffffffffffffffffffff1673ffffffffffffffffffffffffffffffffffffffff16815260200190815260200160002060009054906101000a900460ff16905092915050565b6118cb82826117e3565b1561193e576040517f08c379a000000000000000000000000000000000000000000000000000000000815260040180806020018281038252601f8152602001807f526f6c65733a206163636f756e7420616c72656164792068617320726f6c650081525060200191505060405180910390fd5b60018260000160008373ffffffffffffffffffffffffffffffffffffffff1673ffffffffffffffffffffffffffffffffffffffff16815260200190815260200160002060006101000a81548160ff0219169083151502179055505050565b6119a682826117e3565b6119fb576040517f08c379a0000000000000000000000000000000000000000000000000000000008152600401808060200182810382526021815260200180611b616021913960400191505060405180910390fd5b60008260000160008373ffffffffffffffffffffffffffffffffffffffff1673ffffffffffffffffffffffffffffffffffffffff16815260200190815260200160002060006101000a81548160ff0219169083151502179055505050565b6000611a9b83836040518060400160405280601e81526020017f536166654d6174683a207375627472616374696f6e206f766572666c6f770000815250611274565b90509291505056fe45524332303a207472616e7366657220746f20746865207a65726f206164647265737345524332303a206275726e20616d6f756e7420657863656564732062616c616e636545524332303a20617070726f766520746f20746865207a65726f206164647265737345524332303a207472616e7366657220616d6f756e7420657863656564732062616c616e63654d696e746572526f6c653a2063616c6c657220646f6573206e6f74206861766520746865204d696e74657220726f6c65526f6c65733a206163636f756e7420646f6573206e6f74206861766520726f6c6545524332303a207472616e7366657220616d6f756e74206578636565647320616c6c6f77616e6365526f6c65733a206163636f756e7420697320746865207a65726f206164647265737345524332303a206275726e2066726f6d20746865207a65726f206164647265737345524332303a207472616e736665722066726f6d20746865207a65726f206164647265737345524332303a20617070726f76652066726f6d20746865207a65726f206164647265737345524332303a2064656372656173656420616c6c6f77616e63652062656c6f77207a65726fa265627a7a723158203e4aa20fc4f73a3c2828e0b469810cc62747386989986d41706dcef41d37fa4864736f6c63430005110032526f6c65733a206163636f756e7420697320746865207a65726f2061646472657373",
					"opcodes": "PUSH1 0x80 PUSH1 0x40 MSTORE CALLVALUE DUP1 ISZERO PUSH3 0x11 JUMPI PUSH1 0x0 DUP1 REVERT JUMPDEST POP PUSH1 0x40 MLOAD PUSH3 0x538C CODESIZE SUB DUP1 PUSH3 0x538C DUP4 CODECOPY DUP2 DUP2 ADD PUSH1 0x40 MSTORE PUSH3 0x37 SWAP2 SWAP1 DUP2 ADD SWAP1 PUSH3 0x152 JUMP JUMPDEST CALLER PUSH1 0x0 DUP1 PUSH2 0x100 EXP DUP2 SLOAD DUP2 PUSH20 0xFFFFFFFFFFFFFFFFFFFFFFFFFFFFFFFFFFFFFFFF MUL NOT AND SWAP1 DUP4 PUSH20 0xFFFFFFFFFFFFFFFFFFFFFFFFFFFFFFFFFFFFFFFF AND MUL OR SWAP1 SSTORE POP PUSH1 0x40 MLOAD PUSH3 0x85 SWAP1 PUSH3 0x12D JUMP JUMPDEST PUSH1 0x40 MLOAD DUP1 SWAP2 SUB SWAP1 PUSH1 0x0 CREATE DUP1 ISZERO DUP1 ISZERO PUSH3 0xA2 JUMPI RETURNDATASIZE PUSH1 0x0 DUP1 RETURNDATACOPY RETURNDATASIZE PUSH1 0x0 REVERT JUMPDEST POP PUSH1 0x1 PUSH1 0x0 PUSH2 0x100 EXP DUP2 SLOAD DUP2 PUSH20 0xFFFFFFFFFFFFFFFFFFFFFFFFFFFFFFFFFFFFFFFF MUL NOT AND SWAP1 DUP4 PUSH20 0xFFFFFFFFFFFFFFFFFFFFFFFFFFFFFFFFFFFFFFFF AND MUL OR SWAP1 SSTORE POP PUSH1 0x0 PUSH1 0x1 PUSH1 0x14 PUSH2 0x100 EXP DUP2 SLOAD DUP2 PUSH1 0xFF MUL NOT AND SWAP1 DUP4 PUSH1 0xFF AND MUL OR SWAP1 SSTORE POP DUP2 PUSH1 0x2 DUP2 SWAP1 SSTORE POP DUP1 PUSH1 0x3 DUP2 SWAP1 SSTORE POP PUSH1 0x0 PUSH1 0x4 DUP2 SWAP1 SSTORE POP PUSH1 0x0 PUSH1 0x6 DUP2 SWAP1 SSTORE POP PUSH1 0x0 PUSH1 0x8 DUP2 SWAP1 SSTORE POP POP POP PUSH3 0x1B7 JUMP JUMPDEST PUSH2 0x20D4 DUP1 PUSH3 0x32B8 DUP4 CODECOPY ADD SWAP1 JUMP JUMPDEST PUSH1 0x0 DUP2 MLOAD SWAP1 POP PUSH3 0x14C DUP2 PUSH3 0x19D JUMP JUMPDEST SWAP3 SWAP2 POP POP JUMP JUMPDEST PUSH1 0x0 DUP1 PUSH1 0x40 DUP4 DUP6 SUB SLT ISZERO PUSH3 0x166 JUMPI PUSH1 0x0 DUP1 REVERT JUMPDEST PUSH1 0x0 PUSH3 0x176 DUP6 DUP3 DUP7 ADD PUSH3 0x13B JUMP JUMPDEST SWAP3 POP POP PUSH1 0x20 PUSH3 0x189 DUP6 DUP3 DUP7 ADD PUSH3 0x13B JUMP JUMPDEST SWAP2 POP POP SWAP3 POP SWAP3 SWAP1 POP JUMP JUMPDEST PUSH1 0x0 DUP2 SWAP1 POP SWAP2 SWAP1 POP JUMP JUMPDEST PUSH3 0x1A8 DUP2 PUSH3 0x193 JUMP JUMPDEST DUP2 EQ PUSH3 0x1B4 JUMPI PUSH1 0x0 DUP1 REVERT JUMPDEST POP JUMP JUMPDEST PUSH2 0x30F1 DUP1 PUSH3 0x1C7 PUSH1 0x0 CODECOPY PUSH1 0x0 RETURN INVALID PUSH1 0x80 PUSH1 0x40 MSTORE PUSH1 0x4 CALLDATASIZE LT PUSH2 0x109 JUMPI PUSH1 0x0 CALLDATALOAD PUSH1 0xE0 SHR DUP1 PUSH4 0xA80DB6FC GT PUSH2 0x95 JUMPI DUP1 PUSH4 0xD0FEBE4C GT PUSH2 0x64 JUMPI DUP1 PUSH4 0xD0FEBE4C EQ PUSH2 0x32D JUMPI DUP1 PUSH4 0xDA6001D1 EQ PUSH2 0x337 JUMPI DUP1 PUSH4 0xE0A8F6F5 EQ PUSH2 0x360 JUMPI DUP1 PUSH4 0xE8315742 EQ PUSH2 0x389 JUMPI DUP1 PUSH4 0xFFFEFD91 EQ PUSH2 0x3B4 JUMPI PUSH2 0x109 JUMP JUMPDEST DUP1 PUSH4 0xA80DB6FC EQ PUSH2 0x2AF JUMPI DUP1 PUSH4 0xAFFC0670 EQ PUSH2 0x2DA JUMPI DUP1 PUSH4 0xBC903CB8 EQ PUSH2 0x2E4 JUMPI DUP1 PUSH4 0xC631B292 EQ PUSH2 0x323 JUMPI PUSH2 0x109 JUMP JUMPDEST DUP1 PUSH4 0x6C11BCD3 GT PUSH2 0xDC JUMPI DUP1 PUSH4 0x6C11BCD3 EQ PUSH2 0x1CA JUMPI DUP1 PUSH4 0x7B0472F0 EQ PUSH2 0x1F3 JUMPI DUP1 PUSH4 0x7FF9B596 EQ PUSH2 0x21C JUMPI DUP1 PUSH4 0x8E08A50B EQ PUSH2 0x247 JUMPI DUP1 PUSH4 0x9AB3F7A6 EQ PUSH2 0x272 JUMPI PUSH2 0x109 JUMP JUMPDEST DUP1 PUSH4 0x9E69EDE EQ PUSH2 0x10E JUMPI DUP1 PUSH4 0x3AC0FEAC EQ PUSH2 0x14B JUMPI DUP1 PUSH4 0x4ECE90A8 EQ PUSH2 0x176 JUMPI DUP1 PUSH4 0x649C649C EQ PUSH2 0x1A1 JUMPI JUMPDEST PUSH1 0x0 DUP1 REVERT JUMPDEST CALLVALUE DUP1 ISZERO PUSH2 0x11A JUMPI PUSH1 0x0 DUP1 REVERT JUMPDEST POP PUSH2 0x135 PUSH1 0x4 DUP1 CALLDATASIZE SUB PUSH2 0x130 SWAP2 SWAP1 DUP2 ADD SWAP1 PUSH2 0x293B JUMP JUMPDEST PUSH2 0x3BE JUMP JUMPDEST PUSH1 0x40 MLOAD PUSH2 0x142 SWAP2 SWAP1 PUSH2 0x2D9D JUMP JUMPDEST PUSH1 0x40 MLOAD DUP1 SWAP2 SUB SWAP1 RETURN JUMPDEST CALLVALUE DUP1 ISZERO PUSH2 0x157 JUMPI PUSH1 0x0 DUP1 REVERT JUMPDEST POP PUSH2 0x160 PUSH2 0x3DE JUMP JUMPDEST PUSH1 0x40 MLOAD PUSH2 0x16D SWAP2 SWAP1 PUSH2 0x2D7B JUMP JUMPDEST PUSH1 0x40 MLOAD DUP1 SWAP2 SUB SWAP1 RETURN JUMPDEST CALLVALUE DUP1 ISZERO PUSH2 0x182 JUMPI PUSH1 0x0 DUP1 REVERT JUMPDEST POP PUSH2 0x18B PUSH2 0x43D JUMP JUMPDEST PUSH1 0x40 MLOAD PUSH2 0x198 SWAP2 SWAP1 PUSH2 0x2DB8 JUMP JUMPDEST PUSH1 0x40 MLOAD DUP1 SWAP2 SUB SWAP1 RETURN JUMPDEST CALLVALUE DUP1 ISZERO PUSH2 0x1AD JUMPI PUSH1 0x0 DUP1 REVERT JUMPDEST POP PUSH2 0x1C8 PUSH1 0x4 DUP1 CALLDATASIZE SUB PUSH2 0x1C3 SWAP2 SWAP1 DUP2 ADD SWAP1 PUSH2 0x2A7A JUMP JUMPDEST PUSH2 0x467 JUMP JUMPDEST STOP JUMPDEST CALLVALUE DUP1 ISZERO PUSH2 0x1D6 JUMPI PUSH1 0x0 DUP1 REVERT JUMPDEST POP PUSH2 0x1F1 PUSH1 0x4 DUP1 CALLDATASIZE SUB PUSH2 0x1EC SWAP2 SWAP1 DUP2 ADD SWAP1 PUSH2 0x2A28 JUMP JUMPDEST PUSH2 0x530 JUMP JUMPDEST STOP JUMPDEST CALLVALUE DUP1 ISZERO PUSH2 0x1FF JUMPI PUSH1 0x0 DUP1 REVERT JUMPDEST POP PUSH2 0x21A PUSH1 0x4 DUP1 CALLDATASIZE SUB PUSH2 0x215 SWAP2 SWAP1 DUP2 ADD SWAP1 PUSH2 0x2A7A JUMP JUMPDEST PUSH2 0x83A JUMP JUMPDEST STOP JUMPDEST CALLVALUE DUP1 ISZERO PUSH2 0x228 JUMPI PUSH1 0x0 DUP1 REVERT JUMPDEST POP PUSH2 0x231 PUSH2 0xA1A JUMP JUMPDEST PUSH1 0x40 MLOAD PUSH2 0x23E SWAP2 SWAP1 PUSH2 0x2EB8 JUMP JUMPDEST PUSH1 0x40 MLOAD DUP1 SWAP2 SUB SWAP1 RETURN JUMPDEST CALLVALUE DUP1 ISZERO PUSH2 0x253 JUMPI PUSH1 0x0 DUP1 REVERT JUMPDEST POP PUSH2 0x25C PUSH2 0xA20 JUMP JUMPDEST PUSH1 0x40 MLOAD PUSH2 0x269 SWAP2 SWAP1 PUSH2 0x2D7B JUMP JUMPDEST PUSH1 0x40 MLOAD DUP1 SWAP2 SUB SWAP1 RETURN JUMPDEST CALLVALUE DUP1 ISZERO PUSH2 0x27E JUMPI PUSH1 0x0 DUP1 REVERT JUMPDEST POP PUSH2 0x299 PUSH1 0x4 DUP1 CALLDATASIZE SUB PUSH2 0x294 SWAP2 SWAP1 DUP2 ADD SWAP1 PUSH2 0x298D JUMP JUMPDEST PUSH2 0xA7F JUMP JUMPDEST PUSH1 0x40 MLOAD PUSH2 0x2A6 SWAP2 SWAP1 PUSH2 0x2EB8 JUMP JUMPDEST PUSH1 0x40 MLOAD DUP1 SWAP2 SUB SWAP1 RETURN JUMPDEST CALLVALUE DUP1 ISZERO PUSH2 0x2BB JUMPI PUSH1 0x0 DUP1 REVERT JUMPDEST POP PUSH2 0x2C4 PUSH2 0xE2D JUMP JUMPDEST PUSH1 0x40 MLOAD PUSH2 0x2D1 SWAP2 SWAP1 PUSH2 0x2D7B JUMP JUMPDEST PUSH1 0x40 MLOAD DUP1 SWAP2 SUB SWAP1 RETURN JUMPDEST PUSH2 0x2E2 PUSH2 0xE8C JUMP JUMPDEST STOP JUMPDEST CALLVALUE DUP1 ISZERO PUSH2 0x2F0 JUMPI PUSH1 0x0 DUP1 REVERT JUMPDEST POP PUSH2 0x30B PUSH1 0x4 DUP1 CALLDATASIZE SUB PUSH2 0x306 SWAP2 SWAP1 DUP2 ADD SWAP1 PUSH2 0x2A28 JUMP JUMPDEST PUSH2 0xF64 JUMP JUMPDEST PUSH1 0x40 MLOAD PUSH2 0x31A SWAP4 SWAP3 SWAP2 SWAP1 PUSH2 0x2DD3 JUMP JUMPDEST PUSH1 0x40 MLOAD DUP1 SWAP2 SUB SWAP1 RETURN JUMPDEST PUSH2 0x32B PUSH2 0x1165 JUMP JUMPDEST STOP JUMPDEST PUSH2 0x335 PUSH2 0x123E JUMP JUMPDEST STOP JUMPDEST CALLVALUE DUP1 ISZERO PUSH2 0x343 JUMPI PUSH1 0x0 DUP1 REVERT JUMPDEST POP PUSH2 0x35E PUSH1 0x4 DUP1 CALLDATASIZE SUB PUSH2 0x359 SWAP2 SWAP1 DUP2 ADD SWAP1 PUSH2 0x2A28 JUMP JUMPDEST PUSH2 0x13AD JUMP JUMPDEST STOP JUMPDEST CALLVALUE DUP1 ISZERO PUSH2 0x36C JUMPI PUSH1 0x0 DUP1 REVERT JUMPDEST POP PUSH2 0x387 PUSH1 0x4 DUP1 CALLDATASIZE SUB PUSH2 0x382 SWAP2 SWAP1 DUP2 ADD SWAP1 PUSH2 0x2A28 JUMP JUMPDEST PUSH2 0x1507 JUMP JUMPDEST STOP JUMPDEST CALLVALUE DUP1 ISZERO PUSH2 0x395 JUMPI PUSH1 0x0 DUP1 REVERT JUMPDEST POP PUSH2 0x39E PUSH2 0x1727 JUMP JUMPDEST PUSH1 0x40 MLOAD PUSH2 0x3AB SWAP2 SWAP1 PUSH2 0x2EB8 JUMP JUMPDEST PUSH1 0x40 MLOAD DUP1 SWAP2 SUB SWAP1 RETURN JUMPDEST PUSH2 0x3BC PUSH2 0x172D JUMP JUMPDEST STOP JUMPDEST PUSH1 0x5 PUSH1 0x20 MSTORE DUP1 PUSH1 0x0 MSTORE PUSH1 0x40 PUSH1 0x0 KECCAK256 PUSH1 0x0 SWAP2 POP SLOAD SWAP1 PUSH2 0x100 EXP SWAP1 DIV PUSH1 0xFF AND DUP2 JUMP JUMPDEST PUSH1 0x60 PUSH1 0x1 DUP1 PUSH1 0x14 SWAP1 SLOAD SWAP1 PUSH2 0x100 EXP SWAP1 DIV PUSH1 0xFF AND PUSH1 0xFF AND EQ PUSH2 0x434 JUMPI PUSH1 0x40 MLOAD PUSH32 0x8C379A000000000000000000000000000000000000000000000000000000000 DUP2 MSTORE PUSH1 0x4 ADD PUSH2 0x42B SWAP1 PUSH2 0x2E78 JUMP JUMPDEST PUSH1 0x40 MLOAD DUP1 SWAP2 SUB SWAP1 REVERT JUMPDEST PUSH1 0x60 DUP1 SWAP2 POP POP SWAP1 JUMP JUMPDEST PUSH1 0x0 PUSH1 0x1 PUSH1 0x0 SWAP1 SLOAD SWAP1 PUSH2 0x100 EXP SWAP1 DIV PUSH20 0xFFFFFFFFFFFFFFFFFFFFFFFFFFFFFFFFFFFFFFFF AND SWAP1 POP SWAP1 JUMP JUMPDEST PUSH1 0x5 PUSH1 0x0 CALLER PUSH20 0xFFFFFFFFFFFFFFFFFFFFFFFFFFFFFFFFFFFFFFFF AND PUSH20 0xFFFFFFFFFFFFFFFFFFFFFFFFFFFFFFFFFFFFFFFF AND DUP2 MSTORE PUSH1 0x20 ADD SWAP1 DUP2 MSTORE PUSH1 0x20 ADD PUSH1 0x0 KECCAK256 PUSH1 0x0 SWAP1 SLOAD SWAP1 PUSH2 0x100 EXP SWAP1 DIV PUSH1 0xFF AND PUSH2 0x4F3 JUMPI PUSH1 0x40 MLOAD PUSH32 0x8C379A000000000000000000000000000000000000000000000000000000000 DUP2 MSTORE PUSH1 0x4 ADD PUSH2 0x4EA SWAP1 PUSH2 0x2E18 JUMP JUMPDEST PUSH1 0x40 MLOAD DUP1 SWAP2 SUB SWAP1 REVERT JUMPDEST PUSH1 0x0 PUSH1 0x7 PUSH1 0x0 DUP4 DUP2 MSTORE PUSH1 0x20 ADD SWAP1 DUP2 MSTORE PUSH1 0x20 ADD PUSH1 0x0 KECCAK256 PUSH1 0x4 ADD SLOAD GT ISZERO PUSH2 0x521 JUMPI PUSH2 0x51C DUP3 DUP3 PUSH2 0x187A JUMP JUMPDEST PUSH2 0x52C JUMP JUMPDEST PUSH2 0x52B DUP3 DUP3 PUSH2 0x1B28 JUMP JUMPDEST JUMPDEST POP POP JUMP JUMPDEST PUSH1 0x5 PUSH1 0x0 CALLER PUSH20 0xFFFFFFFFFFFFFFFFFFFFFFFFFFFFFFFFFFFFFFFF AND PUSH20 0xFFFFFFFFFFFFFFFFFFFFFFFFFFFFFFFFFFFFFFFF AND DUP2 MSTORE PUSH1 0x20 ADD SWAP1 DUP2 MSTORE PUSH1 0x20 ADD PUSH1 0x0 KECCAK256 PUSH1 0x0 SWAP1 SLOAD SWAP1 PUSH2 0x100 EXP SWAP1 DIV PUSH1 0xFF AND PUSH2 0x5BC JUMPI PUSH1 0x40 MLOAD PUSH32 0x8C379A000000000000000000000000000000000000000000000000000000000 DUP2 MSTORE PUSH1 0x4 ADD PUSH2 0x5B3 SWAP1 PUSH2 0x2E18 JUMP JUMPDEST PUSH1 0x40 MLOAD DUP1 SWAP2 SUB SWAP1 REVERT JUMPDEST DUP1 PUSH1 0x1 PUSH1 0x0 SWAP1 SLOAD SWAP1 PUSH2 0x100 EXP SWAP1 DIV PUSH20 0xFFFFFFFFFFFFFFFFFFFFFFFFFFFFFFFFFFFFFFFF AND PUSH20 0xFFFFFFFFFFFFFFFFFFFFFFFFFFFFFFFFFFFFFFFF AND PUSH4 0x70A08231 CALLER PUSH1 0x40 MLOAD DUP3 PUSH4 0xFFFFFFFF AND PUSH1 0xE0 SHL DUP2 MSTORE PUSH1 0x4 ADD PUSH2 0x618 SWAP2 SWAP1 PUSH2 0x2D0E JUMP JUMPDEST PUSH1 0x20 PUSH1 0x40 MLOAD DUP1 DUP4 SUB DUP2 DUP7 DUP1 EXTCODESIZE ISZERO DUP1 ISZERO PUSH2 0x630 JUMPI PUSH1 0x0 DUP1 REVERT JUMPDEST POP GAS STATICCALL ISZERO DUP1 ISZERO PUSH2 0x644 JUMPI RETURNDATASIZE PUSH1 0x0 DUP1 RETURNDATACOPY RETURNDATASIZE PUSH1 0x0 REVERT JUMPDEST POP POP POP POP PUSH1 0x40 MLOAD RETURNDATASIZE PUSH1 0x1F NOT PUSH1 0x1F DUP3 ADD AND DUP3 ADD DUP1 PUSH1 0x40 MSTORE POP PUSH2 0x668 SWAP2 SWAP1 DUP2 ADD SWAP1 PUSH2 0x2A51 JUMP JUMPDEST DUP2 LT ISZERO PUSH2 0x6AA JUMPI PUSH1 0x40 MLOAD PUSH32 0x8C379A000000000000000000000000000000000000000000000000000000000 DUP2 MSTORE PUSH1 0x4 ADD PUSH2 0x6A1 SWAP1 PUSH2 0x2E58 JUMP JUMPDEST PUSH1 0x40 MLOAD DUP1 SWAP2 SUB SWAP1 REVERT JUMPDEST DUP2 PUSH1 0x1 PUSH1 0x0 SWAP1 SLOAD SWAP1 PUSH2 0x100 EXP SWAP1 DIV PUSH20 0xFFFFFFFFFFFFFFFFFFFFFFFFFFFFFFFFFFFFFFFF AND PUSH20 0xFFFFFFFFFFFFFFFFFFFFFFFFFFFFFFFFFFFFFFFF AND PUSH4 0x70A08231 CALLER PUSH1 0x40 MLOAD DUP3 PUSH4 0xFFFFFFFF AND PUSH1 0xE0 SHL DUP2 MSTORE PUSH1 0x4 ADD PUSH2 0x706 SWAP2 SWAP1 PUSH2 0x2D0E JUMP JUMPDEST PUSH1 0x20 PUSH1 0x40 MLOAD DUP1 DUP4 SUB DUP2 DUP7 DUP1 EXTCODESIZE ISZERO DUP1 ISZERO PUSH2 0x71E JUMPI PUSH1 0x0 DUP1 REVERT JUMPDEST POP GAS STATICCALL ISZERO DUP1 ISZERO PUSH2 0x732 JUMPI RETURNDATASIZE PUSH1 0x0 DUP1 RETURNDATACOPY RETURNDATASIZE PUSH1 0x0 REVERT JUMPDEST POP POP POP POP PUSH1 0x40 MLOAD RETURNDATASIZE PUSH1 0x1F NOT PUSH1 0x1F DUP3 ADD AND DUP3 ADD DUP1 PUSH1 0x40 MSTORE POP PUSH2 0x756 SWAP2 SWAP1 DUP2 ADD SWAP1 PUSH2 0x2A51 JUMP JUMPDEST LT PUSH2 0x836 JUMPI PUSH1 0x1 PUSH1 0x0 SWAP1 SLOAD SWAP1 PUSH2 0x100 EXP SWAP1 DIV PUSH20 0xFFFFFFFFFFFFFFFFFFFFFFFFFFFFFFFFFFFFFFFF AND PUSH20 0xFFFFFFFFFFFFFFFFFFFFFFFFFFFFFFFFFFFFFFFF AND PUSH4 0x9DC29FAC CALLER DUP5 PUSH1 0x40 MLOAD DUP4 PUSH4 0xFFFFFFFF AND PUSH1 0xE0 SHL DUP2 MSTORE PUSH1 0x4 ADD PUSH2 0x7B8 SWAP3 SWAP2 SWAP1 PUSH2 0x2D29 JUMP JUMPDEST PUSH1 0x0 PUSH1 0x40 MLOAD DUP1 DUP4 SUB DUP2 PUSH1 0x0 DUP8 DUP1 EXTCODESIZE ISZERO DUP1 ISZERO PUSH2 0x7D2 JUMPI PUSH1 0x0 DUP1 REVERT JUMPDEST POP GAS CALL ISZERO DUP1 ISZERO PUSH2 0x7E6 JUMPI RETURNDATASIZE PUSH1 0x0 DUP1 RETURNDATACOPY RETURNDATASIZE PUSH1 0x0 REVERT JUMPDEST POP POP POP POP CALLER PUSH20 0xFFFFFFFFFFFFFFFFFFFFFFFFFFFFFFFFFFFFFFFF AND PUSH2 0x8FC PUSH1 0x2 SLOAD DUP5 MUL SWAP1 DUP2 ISZERO MUL SWAP1 PUSH1 0x40 MLOAD PUSH1 0x0 PUSH1 0x40 MLOAD DUP1 DUP4 SUB DUP2 DUP6 DUP9 DUP9 CALL SWAP4 POP POP POP POP ISZERO DUP1 ISZERO PUSH2 0x834 JUMPI RETURNDATASIZE PUSH1 0x0 DUP1 RETURNDATACOPY RETURNDATASIZE PUSH1 0x0 REVERT JUMPDEST POP JUMPDEST POP POP JUMP JUMPDEST PUSH1 0x0 PUSH2 0x846 DUP4 DUP4 PUSH2 0x1FDF JUMP JUMPDEST SWAP1 POP DUP1 PUSH1 0x1 PUSH1 0x0 SWAP1 SLOAD SWAP1 PUSH2 0x100 EXP SWAP1 DIV PUSH20 0xFFFFFFFFFFFFFFFFFFFFFFFFFFFFFFFFFFFFFFFF AND PUSH20 0xFFFFFFFFFFFFFFFFFFFFFFFFFFFFFFFFFFFFFFFF AND PUSH4 0x70A08231 CALLER PUSH1 0x40 MLOAD DUP3 PUSH4 0xFFFFFFFF AND PUSH1 0xE0 SHL DUP2 MSTORE PUSH1 0x4 ADD PUSH2 0x8A4 SWAP2 SWAP1 PUSH2 0x2D0E JUMP JUMPDEST PUSH1 0x20 PUSH1 0x40 MLOAD DUP1 DUP4 SUB DUP2 DUP7 DUP1 EXTCODESIZE ISZERO DUP1 ISZERO PUSH2 0x8BC JUMPI PUSH1 0x0 DUP1 REVERT JUMPDEST POP GAS STATICCALL ISZERO DUP1 ISZERO PUSH2 0x8D0 JUMPI RETURNDATASIZE PUSH1 0x0 DUP1 RETURNDATACOPY RETURNDATASIZE PUSH1 0x0 REVERT JUMPDEST POP POP POP POP PUSH1 0x40 MLOAD RETURNDATASIZE PUSH1 0x1F NOT PUSH1 0x1F DUP3 ADD AND DUP3 ADD DUP1 PUSH1 0x40 MSTORE POP PUSH2 0x8F4 SWAP2 SWAP1 DUP2 ADD SWAP1 PUSH2 0x2A51 JUMP JUMPDEST LT ISZERO DUP1 ISZERO PUSH2 0x922 JUMPI POP PUSH1 0x7 PUSH1 0x0 DUP5 DUP2 MSTORE PUSH1 0x20 ADD SWAP1 DUP2 MSTORE PUSH1 0x20 ADD PUSH1 0x0 KECCAK256 PUSH1 0x8 ADD PUSH1 0x1 SWAP1 SLOAD SWAP1 PUSH2 0x100 EXP SWAP1 DIV PUSH1 0xFF AND JUMPDEST ISZERO PUSH2 0xA15 JUMPI PUSH1 0x1 PUSH1 0x0 SWAP1 SLOAD SWAP1 PUSH2 0x100 EXP SWAP1 DIV PUSH20 0xFFFFFFFFFFFFFFFFFFFFFFFFFFFFFFFFFFFFFFFF AND PUSH20 0xFFFFFFFFFFFFFFFFFFFFFFFFFFFFFFFFFFFFFFFF AND PUSH4 0xEBC3ADCD CALLER DUP4 PUSH1 0x40 MLOAD DUP4 PUSH4 0xFFFFFFFF AND PUSH1 0xE0 SHL DUP2 MSTORE PUSH1 0x4 ADD PUSH2 0x984 SWAP3 SWAP2 SWAP1 PUSH2 0x2D29 JUMP JUMPDEST PUSH1 0x0 PUSH1 0x40 MLOAD DUP1 DUP4 SUB DUP2 PUSH1 0x0 DUP8 DUP1 EXTCODESIZE ISZERO DUP1 ISZERO PUSH2 0x99E JUMPI PUSH1 0x0 DUP1 REVERT JUMPDEST POP GAS CALL ISZERO DUP1 ISZERO PUSH2 0x9B2 JUMPI RETURNDATASIZE PUSH1 0x0 DUP1 RETURNDATACOPY RETURNDATASIZE PUSH1 0x0 REVERT JUMPDEST POP POP POP POP DUP2 PUSH1 0x7 PUSH1 0x0 DUP6 DUP2 MSTORE PUSH1 0x20 ADD SWAP1 DUP2 MSTORE PUSH1 0x20 ADD PUSH1 0x0 KECCAK256 PUSH1 0x5 ADD PUSH1 0x0 DUP3 DUP3 SLOAD ADD SWAP3 POP POP DUP2 SWAP1 SSTORE POP PUSH2 0x9E3 DUP4 PUSH2 0x205E JUMP JUMPDEST DUP1 ISZERO PUSH2 0xA05 JUMPI POP PUSH1 0x0 PUSH1 0x7 PUSH1 0x0 DUP6 DUP2 MSTORE PUSH1 0x20 ADD SWAP1 DUP2 MSTORE PUSH1 0x20 ADD PUSH1 0x0 KECCAK256 PUSH1 0x4 ADD SLOAD GT JUMPDEST ISZERO PUSH2 0xA14 JUMPI PUSH2 0xA13 DUP4 PUSH2 0x22F5 JUMP JUMPDEST JUMPDEST JUMPDEST POP POP POP JUMP JUMPDEST PUSH1 0x2 SLOAD DUP2 JUMP JUMPDEST PUSH1 0x60 PUSH1 0x1 DUP1 PUSH1 0x14 SWAP1 SLOAD SWAP1 PUSH2 0x100 EXP SWAP1 DIV PUSH1 0xFF AND PUSH1 0xFF AND EQ PUSH2 0xA76 JUMPI PUSH1 0x40 MLOAD PUSH32 0x8C379A000000000000000000000000000000000000000000000000000000000 DUP2 MSTORE PUSH1 0x4 ADD PUSH2 0xA6D SWAP1 PUSH2 0x2E78 JUMP JUMPDEST PUSH1 0x40 MLOAD DUP1 SWAP2 SUB SWAP1 REVERT JUMPDEST PUSH1 0x60 DUP1 SWAP2 POP POP SWAP1 JUMP JUMPDEST PUSH1 0x0 PUSH1 0x5 PUSH1 0x0 CALLER PUSH20 0xFFFFFFFFFFFFFFFFFFFFFFFFFFFFFFFFFFFFFFFF AND PUSH20 0xFFFFFFFFFFFFFFFFFFFFFFFFFFFFFFFFFFFFFFFF AND DUP2 MSTORE PUSH1 0x20 ADD SWAP1 DUP2 MSTORE PUSH1 0x20 ADD PUSH1 0x0 KECCAK256 PUSH1 0x0 SWAP1 SLOAD SWAP1 PUSH2 0x100 EXP SWAP1 DIV PUSH1 0xFF AND PUSH2 0xB0D JUMPI PUSH1 0x40 MLOAD PUSH32 0x8C379A000000000000000000000000000000000000000000000000000000000 DUP2 MSTORE PUSH1 0x4 ADD PUSH2 0xB04 SWAP1 PUSH2 0x2E18 JUMP JUMPDEST PUSH1 0x40 MLOAD DUP1 SWAP2 SUB SWAP1 REVERT JUMPDEST PUSH1 0x1 DUP1 PUSH1 0x14 SWAP1 SLOAD SWAP1 PUSH2 0x100 EXP SWAP1 DIV PUSH1 0xFF AND PUSH1 0xFF AND EQ PUSH2 0xB61 JUMPI PUSH1 0x40 MLOAD PUSH32 0x8C379A000000000000000000000000000000000000000000000000000000000 DUP2 MSTORE PUSH1 0x4 ADD PUSH2 0xB58 SWAP1 PUSH2 0x2E78 JUMP JUMPDEST PUSH1 0x40 MLOAD DUP1 SWAP2 SUB SWAP1 REVERT JUMPDEST PUSH2 0xB69 PUSH2 0x277B JUMP JUMPDEST CALLER DUP2 PUSH1 0x0 ADD SWAP1 PUSH20 0xFFFFFFFFFFFFFFFFFFFFFFFFFFFFFFFFFFFFFFFF AND SWAP1 DUP2 PUSH20 0xFFFFFFFFFFFFFFFFFFFFFFFFFFFFFFFFFFFFFFFF AND DUP2 MSTORE POP POP DUP3 DUP2 PUSH1 0x20 ADD SWAP1 PUSH20 0xFFFFFFFFFFFFFFFFFFFFFFFFFFFFFFFFFFFFFFFF AND SWAP1 DUP2 PUSH20 0xFFFFFFFFFFFFFFFFFFFFFFFFFFFFFFFFFFFFFFFF AND DUP2 MSTORE POP POP DUP8 DUP8 DUP1 DUP1 PUSH1 0x1F ADD PUSH1 0x20 DUP1 SWAP2 DIV MUL PUSH1 0x20 ADD PUSH1 0x40 MLOAD SWAP1 DUP2 ADD PUSH1 0x40 MSTORE DUP1 SWAP4 SWAP3 SWAP2 SWAP1 DUP2 DUP2 MSTORE PUSH1 0x20 ADD DUP4 DUP4 DUP1 DUP3 DUP5 CALLDATACOPY PUSH1 0x0 DUP2 DUP5 ADD MSTORE PUSH1 0x1F NOT PUSH1 0x1F DUP3 ADD AND SWAP1 POP DUP1 DUP4 ADD SWAP3 POP POP POP POP POP POP POP DUP2 PUSH1 0x40 ADD DUP2 SWAP1 MSTORE POP DUP6 DUP6 DUP1 DUP1 PUSH1 0x1F ADD PUSH1 0x20 DUP1 SWAP2 DIV MUL PUSH1 0x20 ADD PUSH1 0x40 MLOAD SWAP1 DUP2 ADD PUSH1 0x40 MSTORE DUP1 SWAP4 SWAP3 SWAP2 SWAP1 DUP2 DUP2 MSTORE PUSH1 0x20 ADD DUP4 DUP4 DUP1 DUP3 DUP5 CALLDATACOPY PUSH1 0x0 DUP2 DUP5 ADD MSTORE PUSH1 0x1F NOT PUSH1 0x1F DUP3 ADD AND SWAP1 POP DUP1 DUP4 ADD SWAP3 POP POP POP POP POP POP POP DUP2 PUSH1 0x60 ADD DUP2 SWAP1 MSTORE POP DUP4 DUP2 PUSH1 0x80 ADD DUP2 DUP2 MSTORE POP POP PUSH1 0x0 DUP2 PUSH1 0xA0 ADD DUP2 DUP2 MSTORE POP POP PUSH1 0x0 DUP2 PUSH1 0xC0 ADD DUP2 DUP2 MSTORE POP POP PUSH1 0x0 DUP2 PUSH1 0xE0 ADD SWAP1 PUSH1 0xFF AND SWAP1 DUP2 PUSH1 0xFF AND DUP2 MSTORE POP POP PUSH1 0x1 DUP2 PUSH2 0x100 ADD SWAP1 ISZERO ISZERO SWAP1 DUP2 ISZERO ISZERO DUP2 MSTORE POP POP PUSH1 0x8 PUSH1 0x0 DUP2 SLOAD DUP1 SWAP3 SWAP2 SWAP1 PUSH1 0x1 ADD SWAP2 SWAP1 POP SSTORE POP DUP1 PUSH1 0x7 PUSH1 0x0 PUSH1 0x8 SLOAD DUP2 MSTORE PUSH1 0x20 ADD SWAP1 DUP2 MSTORE PUSH1 0x20 ADD PUSH1 0x0 KECCAK256 PUSH1 0x0 DUP3 ADD MLOAD DUP2 PUSH1 0x0 ADD PUSH1 0x0 PUSH2 0x100 EXP DUP2 SLOAD DUP2 PUSH20 0xFFFFFFFFFFFFFFFFFFFFFFFFFFFFFFFFFFFFFFFF MUL NOT AND SWAP1 DUP4 PUSH20 0xFFFFFFFFFFFFFFFFFFFFFFFFFFFFFFFFFFFFFFFF AND MUL OR SWAP1 SSTORE POP PUSH1 0x20 DUP3 ADD MLOAD DUP2 PUSH1 0x1 ADD PUSH1 0x0 PUSH2 0x100 EXP DUP2 SLOAD DUP2 PUSH20 0xFFFFFFFFFFFFFFFFFFFFFFFFFFFFFFFFFFFFFFFF MUL NOT AND SWAP1 DUP4 PUSH20 0xFFFFFFFFFFFFFFFFFFFFFFFFFFFFFFFFFFFFFFFF AND MUL OR SWAP1 SSTORE POP PUSH1 0x40 DUP3 ADD MLOAD DUP2 PUSH1 0x2 ADD SWAP1 DUP1 MLOAD SWAP1 PUSH1 0x20 ADD SWAP1 PUSH2 0xD8A SWAP3 SWAP2 SWAP1 PUSH2 0x27F8 JUMP JUMPDEST POP PUSH1 0x60 DUP3 ADD MLOAD DUP2 PUSH1 0x3 ADD SWAP1 DUP1 MLOAD SWAP1 PUSH1 0x20 ADD SWAP1 PUSH2 0xDA7 SWAP3 SWAP2 SWAP1 PUSH2 0x27F8 JUMP JUMPDEST POP PUSH1 0x80 DUP3 ADD MLOAD DUP2 PUSH1 0x4 ADD SSTORE PUSH1 0xA0 DUP3 ADD MLOAD DUP2 PUSH1 0x5 ADD SSTORE PUSH1 0xC0 DUP3 ADD MLOAD DUP2 PUSH1 0x6 ADD SSTORE PUSH1 0xE0 DUP3 ADD MLOAD DUP2 PUSH1 0x8 ADD PUSH1 0x0 PUSH2 0x100 EXP DUP2 SLOAD DUP2 PUSH1 0xFF MUL NOT AND SWAP1 DUP4 PUSH1 0xFF AND MUL OR SWAP1 SSTORE POP PUSH2 0x100 DUP3 ADD MLOAD DUP2 PUSH1 0x8 ADD PUSH1 0x1 PUSH2 0x100 EXP DUP2 SLOAD DUP2 PUSH1 0xFF MUL NOT AND SWAP1 DUP4 ISZERO ISZERO MUL OR SWAP1 SSTORE POP SWAP1 POP POP PUSH1 0x6 PUSH1 0x0 DUP2 SLOAD DUP1 SWAP3 SWAP2 SWAP1 PUSH1 0x1 ADD SWAP2 SWAP1 POP SSTORE POP PUSH1 0x8 SLOAD SWAP2 POP POP SWAP7 SWAP6 POP POP POP POP POP POP JUMP JUMPDEST PUSH1 0x60 PUSH1 0x1 DUP1 PUSH1 0x14 SWAP1 SLOAD SWAP1 PUSH2 0x100 EXP SWAP1 DIV PUSH1 0xFF AND PUSH1 0xFF AND EQ PUSH2 0xE83 JUMPI PUSH1 0x40 MLOAD PUSH32 0x8C379A000000000000000000000000000000000000000000000000000000000 DUP2 MSTORE PUSH1 0x4 ADD PUSH2 0xE7A SWAP1 PUSH2 0x2E78 JUMP JUMPDEST PUSH1 0x40 MLOAD DUP1 SWAP2 SUB SWAP1 REVERT JUMPDEST PUSH1 0x60 DUP1 SWAP2 POP POP SWAP1 JUMP JUMPDEST PUSH1 0x0 DUP1 SWAP1 SLOAD SWAP1 PUSH2 0x100 EXP SWAP1 DIV PUSH20 0xFFFFFFFFFFFFFFFFFFFFFFFFFFFFFFFFFFFFFFFF AND PUSH20 0xFFFFFFFFFFFFFFFFFFFFFFFFFFFFFFFFFFFFFFFF AND CALLER PUSH20 0xFFFFFFFFFFFFFFFFFFFFFFFFFFFFFFFFFFFFFFFF AND EQ PUSH2 0xF1B JUMPI PUSH1 0x40 MLOAD PUSH32 0x8C379A000000000000000000000000000000000000000000000000000000000 DUP2 MSTORE PUSH1 0x4 ADD PUSH2 0xF12 SWAP1 PUSH2 0x2E38 JUMP JUMPDEST PUSH1 0x40 MLOAD DUP1 SWAP2 SUB SWAP1 REVERT JUMPDEST PUSH1 0x1 DUP1 PUSH1 0x14 PUSH2 0x100 EXP DUP2 SLOAD DUP2 PUSH1 0xFF MUL NOT AND SWAP1 DUP4 PUSH1 0xFF AND MUL OR SWAP1 SSTORE POP PUSH32 0x1C9B9AE417B15D6782146A380A280B52403258CAAC00795087E065BBC9FB9E80 PUSH1 0x40 MLOAD PUSH1 0x40 MLOAD DUP1 SWAP2 SUB SWAP1 LOG1 JUMP JUMPDEST PUSH1 0x60 DUP1 PUSH1 0x0 PUSH1 0x1 DUP1 PUSH1 0x14 SWAP1 SLOAD SWAP1 PUSH2 0x100 EXP SWAP1 DIV PUSH1 0xFF AND PUSH1 0xFF AND EQ PUSH2 0xFBD JUMPI PUSH1 0x40 MLOAD PUSH32 0x8C379A000000000000000000000000000000000000000000000000000000000 DUP2 MSTORE PUSH1 0x4 ADD PUSH2 0xFB4 SWAP1 PUSH2 0x2E78 JUMP JUMPDEST PUSH1 0x40 MLOAD DUP1 SWAP2 SUB SWAP1 REVERT JUMPDEST PUSH1 0x7 PUSH1 0x0 DUP6 DUP2 MSTORE PUSH1 0x20 ADD SWAP1 DUP2 MSTORE PUSH1 0x20 ADD PUSH1 0x0 KECCAK256 PUSH1 0x2 ADD PUSH1 0x7 PUSH1 0x0 DUP7 DUP2 MSTORE PUSH1 0x20 ADD SWAP1 DUP2 MSTORE PUSH1 0x20 ADD PUSH1 0x0 KECCAK256 PUSH1 0x3 ADD PUSH1 0x7 PUSH1 0x0 DUP8 DUP2 MSTORE PUSH1 0x20 ADD SWAP1 DUP2 MSTORE PUSH1 0x20 ADD PUSH1 0x0 KECCAK256 PUSH1 0x1 ADD PUSH1 0x0 SWAP1 SLOAD SWAP1 PUSH2 0x100 EXP SWAP1 DIV PUSH20 0xFFFFFFFFFFFFFFFFFFFFFFFFFFFFFFFFFFFFFFFF AND DUP3 DUP1 SLOAD PUSH1 0x1 DUP2 PUSH1 0x1 AND ISZERO PUSH2 0x100 MUL SUB AND PUSH1 0x2 SWAP1 DIV DUP1 PUSH1 0x1F ADD PUSH1 0x20 DUP1 SWAP2 DIV MUL PUSH1 0x20 ADD PUSH1 0x40 MLOAD SWAP1 DUP2 ADD PUSH1 0x40 MSTORE DUP1 SWAP3 SWAP2 SWAP1 DUP2 DUP2 MSTORE PUSH1 0x20 ADD DUP3 DUP1 SLOAD PUSH1 0x1 DUP2 PUSH1 0x1 AND ISZERO PUSH2 0x100 MUL SUB AND PUSH1 0x2 SWAP1 DIV DUP1 ISZERO PUSH2 0x10B5 JUMPI DUP1 PUSH1 0x1F LT PUSH2 0x108A JUMPI PUSH2 0x100 DUP1 DUP4 SLOAD DIV MUL DUP4 MSTORE SWAP2 PUSH1 0x20 ADD SWAP2 PUSH2 0x10B5 JUMP JUMPDEST DUP3 ADD SWAP2 SWAP1 PUSH1 0x0 MSTORE PUSH1 0x20 PUSH1 0x0 KECCAK256 SWAP1 JUMPDEST DUP2 SLOAD DUP2 MSTORE SWAP1 PUSH1 0x1 ADD SWAP1 PUSH1 0x20 ADD DUP1 DUP4 GT PUSH2 0x1098 JUMPI DUP3 SWAP1 SUB PUSH1 0x1F AND DUP3 ADD SWAP2 JUMPDEST POP POP POP POP POP SWAP3 POP DUP2 DUP1 SLOAD PUSH1 0x1 DUP2 PUSH1 0x1 AND ISZERO PUSH2 0x100 MUL SUB AND PUSH1 0x2 SWAP1 DIV DUP1 PUSH1 0x1F ADD PUSH1 0x20 DUP1 SWAP2 DIV MUL PUSH1 0x20 ADD PUSH1 0x40 MLOAD SWAP1 DUP2 ADD PUSH1 0x40 MSTORE DUP1 SWAP3 SWAP2 SWAP1 DUP2 DUP2 MSTORE PUSH1 0x20 ADD DUP3 DUP1 SLOAD PUSH1 0x1 DUP2 PUSH1 0x1 AND ISZERO PUSH2 0x100 MUL SUB AND PUSH1 0x2 SWAP1 DIV DUP1 ISZERO PUSH2 0x1151 JUMPI DUP1 PUSH1 0x1F LT PUSH2 0x1126 JUMPI PUSH2 0x100 DUP1 DUP4 SLOAD DIV MUL DUP4 MSTORE SWAP2 PUSH1 0x20 ADD SWAP2 PUSH2 0x1151 JUMP JUMPDEST DUP3 ADD SWAP2 SWAP1 PUSH1 0x0 MSTORE PUSH1 0x20 PUSH1 0x0 KECCAK256 SWAP1 JUMPDEST DUP2 SLOAD DUP2 MSTORE SWAP1 PUSH1 0x1 ADD SWAP1 PUSH1 0x20 ADD DUP1 DUP4 GT PUSH2 0x1134 JUMPI DUP3 SWAP1 SUB PUSH1 0x1F AND DUP3 ADD SWAP2 JUMPDEST POP POP POP POP POP SWAP2 POP SWAP3 POP SWAP3 POP SWAP3 POP SWAP2 SWAP4 SWAP1 SWAP3 POP JUMP JUMPDEST PUSH1 0x0 DUP1 SWAP1 SLOAD SWAP1 PUSH2 0x100 EXP SWAP1 DIV PUSH20 0xFFFFFFFFFFFFFFFFFFFFFFFFFFFFFFFFFFFFFFFF AND PUSH20 0xFFFFFFFFFFFFFFFFFFFFFFFFFFFFFFFFFFFFFFFF AND CALLER PUSH20 0xFFFFFFFFFFFFFFFFFFFFFFFFFFFFFFFFFFFFFFFF AND EQ PUSH2 0x11F4 JUMPI PUSH1 0x40 MLOAD PUSH32 0x8C379A000000000000000000000000000000000000000000000000000000000 DUP2 MSTORE PUSH1 0x4 ADD PUSH2 0x11EB SWAP1 PUSH2 0x2E38 JUMP JUMPDEST PUSH1 0x40 MLOAD DUP1 SWAP2 SUB SWAP1 REVERT JUMPDEST PUSH1 0x2 PUSH1 0x1 PUSH1 0x14 PUSH2 0x100 EXP DUP2 SLOAD DUP2 PUSH1 0xFF MUL NOT AND SWAP1 DUP4 PUSH1 0xFF AND MUL OR SWAP1 SSTORE POP PUSH32 0x345684BFB9687888CDDEBD9905F5F98F8BD31EE0D8B4397209CBBF0655C63677 PUSH1 0x40 MLOAD PUSH1 0x40 MLOAD DUP1 SWAP2 SUB SWAP1 LOG1 JUMP JUMPDEST PUSH1 0x5 PUSH1 0x0 CALLER PUSH20 0xFFFFFFFFFFFFFFFFFFFFFFFFFFFFFFFFFFFFFFFF AND PUSH20 0xFFFFFFFFFFFFFFFFFFFFFFFFFFFFFFFFFFFFFFFF AND DUP2 MSTORE PUSH1 0x20 ADD SWAP1 DUP2 MSTORE PUSH1 0x20 ADD PUSH1 0x0 KECCAK256 PUSH1 0x0 SWAP1 SLOAD SWAP1 PUSH2 0x100 EXP SWAP1 DIV PUSH1 0xFF AND PUSH2 0x12CA JUMPI PUSH1 0x40 MLOAD PUSH32 0x8C379A000000000000000000000000000000000000000000000000000000000 DUP2 MSTORE PUSH1 0x4 ADD PUSH2 0x12C1 SWAP1 PUSH2 0x2E18 JUMP JUMPDEST PUSH1 0x40 MLOAD DUP1 SWAP2 SUB SWAP1 REVERT JUMPDEST CALLVALUE PUSH1 0x2 SLOAD DUP2 LT ISZERO PUSH2 0x1310 JUMPI PUSH1 0x40 MLOAD PUSH32 0x8C379A000000000000000000000000000000000000000000000000000000000 DUP2 MSTORE PUSH1 0x4 ADD PUSH2 0x1307 SWAP1 PUSH2 0x2E98 JUMP JUMPDEST PUSH1 0x40 MLOAD DUP1 SWAP2 SUB SWAP1 REVERT JUMPDEST PUSH1 0x1 PUSH1 0x0 SWAP1 SLOAD SWAP1 PUSH2 0x100 EXP SWAP1 DIV PUSH20 0xFFFFFFFFFFFFFFFFFFFFFFFFFFFFFFFFFFFFFFFF AND PUSH20 0xFFFFFFFFFFFFFFFFFFFFFFFFFFFFFFFFFFFFFFFF AND PUSH4 0x40C10F19 CALLER PUSH1 0x2 SLOAD CALLVALUE DUP2 PUSH2 0x135A JUMPI INVALID JUMPDEST DIV PUSH1 0x40 MLOAD DUP4 PUSH4 0xFFFFFFFF AND PUSH1 0xE0 SHL DUP2 MSTORE PUSH1 0x4 ADD PUSH2 0x1378 SWAP3 SWAP2 SWAP1 PUSH2 0x2D29 JUMP JUMPDEST PUSH1 0x0 PUSH1 0x40 MLOAD DUP1 DUP4 SUB DUP2 PUSH1 0x0 DUP8 DUP1 EXTCODESIZE ISZERO DUP1 ISZERO PUSH2 0x1392 JUMPI PUSH1 0x0 DUP1 REVERT JUMPDEST POP GAS CALL ISZERO DUP1 ISZERO PUSH2 0x13A6 JUMPI RETURNDATASIZE PUSH1 0x0 DUP1 RETURNDATACOPY RETURNDATASIZE PUSH1 0x0 REVERT JUMPDEST POP POP POP POP POP JUMP JUMPDEST PUSH1 0x5 PUSH1 0x0 CALLER PUSH20 0xFFFFFFFFFFFFFFFFFFFFFFFFFFFFFFFFFFFFFFFF AND PUSH20 0xFFFFFFFFFFFFFFFFFFFFFFFFFFFFFFFFFFFFFFFF AND DUP2 MSTORE PUSH1 0x20 ADD SWAP1 DUP2 MSTORE PUSH1 0x20 ADD PUSH1 0x0 KECCAK256 PUSH1 0x0 SWAP1 SLOAD SWAP1 PUSH2 0x100 EXP SWAP1 DIV PUSH1 0xFF AND PUSH2 0x1439 JUMPI PUSH1 0x40 MLOAD PUSH32 0x8C379A000000000000000000000000000000000000000000000000000000000 DUP2 MSTORE PUSH1 0x4 ADD PUSH2 0x1430 SWAP1 PUSH2 0x2E18 JUMP JUMPDEST PUSH1 0x40 MLOAD DUP1 SWAP2 SUB SWAP1 REVERT JUMPDEST DUP1 CALLER PUSH20 0xFFFFFFFFFFFFFFFFFFFFFFFFFFFFFFFFFFFFFFFF AND PUSH1 0x7 PUSH1 0x0 DUP4 DUP2 MSTORE PUSH1 0x20 ADD SWAP1 DUP2 MSTORE PUSH1 0x20 ADD PUSH1 0x0 KECCAK256 PUSH1 0x0 ADD PUSH1 0x0 SWAP1 SLOAD SWAP1 PUSH2 0x100 EXP SWAP1 DIV PUSH20 0xFFFFFFFFFFFFFFFFFFFFFFFFFFFFFFFFFFFFFFFF AND PUSH20 0xFFFFFFFFFFFFFFFFFFFFFFFFFFFFFFFFFFFFFFFF AND EQ PUSH2 0x14DE JUMPI PUSH1 0x40 MLOAD PUSH32 0x8C379A000000000000000000000000000000000000000000000000000000000 DUP2 MSTORE PUSH1 0x4 ADD PUSH2 0x14D5 SWAP1 PUSH2 0x2E38 JUMP JUMPDEST PUSH1 0x40 MLOAD DUP1 SWAP2 SUB SWAP1 REVERT JUMPDEST PUSH1 0x2 PUSH1 0x1 PUSH1 0x14 SWAP1 SLOAD SWAP1 PUSH2 0x100 EXP SWAP1 DIV PUSH1 0xFF AND PUSH1 0xFF AND EQ ISZERO PUSH2 0x1503 JUMPI PUSH2 0x1502 DUP3 PUSH2 0x22F5 JUMP JUMPDEST JUMPDEST POP POP JUMP JUMPDEST PUSH1 0x5 PUSH1 0x0 CALLER PUSH20 0xFFFFFFFFFFFFFFFFFFFFFFFFFFFFFFFFFFFFFFFF AND PUSH20 0xFFFFFFFFFFFFFFFFFFFFFFFFFFFFFFFFFFFFFFFF AND DUP2 MSTORE PUSH1 0x20 ADD SWAP1 DUP2 MSTORE PUSH1 0x20 ADD PUSH1 0x0 KECCAK256 PUSH1 0x0 SWAP1 SLOAD SWAP1 PUSH2 0x100 EXP SWAP1 DIV PUSH1 0xFF AND PUSH2 0x1593 JUMPI PUSH1 0x40 MLOAD PUSH32 0x8C379A000000000000000000000000000000000000000000000000000000000 DUP2 MSTORE PUSH1 0x4 ADD PUSH2 0x158A SWAP1 PUSH2 0x2E18 JUMP JUMPDEST PUSH1 0x40 MLOAD DUP1 SWAP2 SUB SWAP1 REVERT JUMPDEST PUSH1 0x1 DUP1 PUSH1 0x14 SWAP1 SLOAD SWAP1 PUSH2 0x100 EXP SWAP1 DIV PUSH1 0xFF AND PUSH1 0xFF AND EQ PUSH2 0x15E7 JUMPI PUSH1 0x40 MLOAD PUSH32 0x8C379A000000000000000000000000000000000000000000000000000000000 DUP2 MSTORE PUSH1 0x4 ADD PUSH2 0x15DE SWAP1 PUSH2 0x2E78 JUMP JUMPDEST PUSH1 0x40 MLOAD DUP1 SWAP2 SUB SWAP1 REVERT JUMPDEST DUP1 CALLER PUSH20 0xFFFFFFFFFFFFFFFFFFFFFFFFFFFFFFFFFFFFFFFF AND PUSH1 0x7 PUSH1 0x0 DUP4 DUP2 MSTORE PUSH1 0x20 ADD SWAP1 DUP2 MSTORE PUSH1 0x20 ADD PUSH1 0x0 KECCAK256 PUSH1 0x0 ADD PUSH1 0x0 SWAP1 SLOAD SWAP1 PUSH2 0x100 EXP SWAP1 DIV PUSH20 0xFFFFFFFFFFFFFFFFFFFFFFFFFFFFFFFFFFFFFFFF AND PUSH20 0xFFFFFFFFFFFFFFFFFFFFFFFFFFFFFFFFFFFFFFFF AND EQ PUSH2 0x168C JUMPI PUSH1 0x40 MLOAD PUSH32 0x8C379A000000000000000000000000000000000000000000000000000000000 DUP2 MSTORE PUSH1 0x4 ADD PUSH2 0x1683 SWAP1 PUSH2 0x2E38 JUMP JUMPDEST PUSH1 0x40 MLOAD DUP1 SWAP2 SUB SWAP1 REVERT JUMPDEST PUSH1 0x0 PUSH1 0x7 PUSH1 0x0 DUP5 DUP2 MSTORE PUSH1 0x20 ADD SWAP1 DUP2 MSTORE PUSH1 0x20 ADD PUSH1 0x0 KECCAK256 PUSH1 0x8 ADD PUSH1 0x0 SWAP1 SLOAD SWAP1 PUSH2 0x100 EXP SWAP1 DIV PUSH1 0xFF AND PUSH1 0xFF AND EQ ISZERO PUSH2 0x1723 JUMPI PUSH1 0x1 PUSH1 0x7 PUSH1 0x0 DUP5 DUP2 MSTORE PUSH1 0x20 ADD SWAP1 DUP2 MSTORE PUSH1 0x20 ADD PUSH1 0x0 KECCAK256 PUSH1 0x8 ADD PUSH1 0x0 PUSH2 0x100 EXP DUP2 SLOAD DUP2 PUSH1 0xFF MUL NOT AND SWAP1 DUP4 PUSH1 0xFF AND MUL OR SWAP1 SSTORE POP PUSH32 0x91222B74076A9254A8EA367A3678EA96FBDE84AFE416FD6530A5777EA85A9BBE DUP3 PUSH1 0x40 MLOAD PUSH2 0x171A SWAP2 SWAP1 PUSH2 0x2EB8 JUMP JUMPDEST PUSH1 0x40 MLOAD DUP1 SWAP2 SUB SWAP1 LOG1 JUMPDEST POP POP JUMP JUMPDEST PUSH1 0x3 SLOAD DUP2 JUMP JUMPDEST CALLVALUE PUSH1 0x2 SLOAD DUP2 LT ISZERO PUSH2 0x1773 JUMPI PUSH1 0x40 MLOAD PUSH32 0x8C379A000000000000000000000000000000000000000000000000000000000 DUP2 MSTORE PUSH1 0x4 ADD PUSH2 0x176A SWAP1 PUSH2 0x2E98 JUMP JUMPDEST PUSH1 0x40 MLOAD DUP1 SWAP2 SUB SWAP1 REVERT JUMPDEST PUSH1 0x1 PUSH1 0x5 PUSH1 0x0 CALLER PUSH20 0xFFFFFFFFFFFFFFFFFFFFFFFFFFFFFFFFFFFFFFFF AND PUSH20 0xFFFFFFFFFFFFFFFFFFFFFFFFFFFFFFFFFFFFFFFF AND DUP2 MSTORE PUSH1 0x20 ADD SWAP1 DUP2 MSTORE PUSH1 0x20 ADD PUSH1 0x0 KECCAK256 PUSH1 0x0 PUSH2 0x100 EXP DUP2 SLOAD DUP2 PUSH1 0xFF MUL NOT AND SWAP1 DUP4 ISZERO ISZERO MUL OR SWAP1 SSTORE POP PUSH1 0x1 PUSH1 0x0 SWAP1 SLOAD SWAP1 PUSH2 0x100 EXP SWAP1 DIV PUSH20 0xFFFFFFFFFFFFFFFFFFFFFFFFFFFFFFFFFFFFFFFF AND PUSH20 0xFFFFFFFFFFFFFFFFFFFFFFFFFFFFFFFFFFFFFFFF AND PUSH4 0x40C10F19 CALLER PUSH1 0x2 SLOAD CALLVALUE DUP2 PUSH2 0x1815 JUMPI INVALID JUMPDEST DIV PUSH1 0x40 MLOAD DUP4 PUSH4 0xFFFFFFFF AND PUSH1 0xE0 SHL DUP2 MSTORE PUSH1 0x4 ADD PUSH2 0x1833 SWAP3 SWAP2 SWAP1 PUSH2 0x2D29 JUMP JUMPDEST PUSH1 0x0 PUSH1 0x40 MLOAD DUP1 DUP4 SUB DUP2 PUSH1 0x0 DUP8 DUP1 EXTCODESIZE ISZERO DUP1 ISZERO PUSH2 0x184D JUMPI PUSH1 0x0 DUP1 REVERT JUMPDEST POP GAS CALL ISZERO DUP1 ISZERO PUSH2 0x1861 JUMPI RETURNDATASIZE PUSH1 0x0 DUP1 RETURNDATACOPY RETURNDATASIZE PUSH1 0x0 REVERT JUMPDEST POP POP POP POP PUSH1 0x4 PUSH1 0x0 DUP2 SLOAD DUP1 SWAP3 SWAP2 SWAP1 PUSH1 0x1 ADD SWAP2 SWAP1 POP SSTORE POP POP JUMP JUMPDEST PUSH1 0x0 PUSH1 0x7 PUSH1 0x0 DUP4 DUP2 MSTORE PUSH1 0x20 ADD SWAP1 DUP2 MSTORE PUSH1 0x20 ADD PUSH1 0x0 KECCAK256 PUSH1 0x7 ADD PUSH1 0x0 CALLER PUSH20 0xFFFFFFFFFFFFFFFFFFFFFFFFFFFFFFFFFFFFFFFF AND PUSH20 0xFFFFFFFFFFFFFFFFFFFFFFFFFFFFFFFFFFFFFFFF AND DUP2 MSTORE PUSH1 0x20 ADD SWAP1 DUP2 MSTORE PUSH1 0x20 ADD PUSH1 0x0 KECCAK256 SLOAD GT DUP1 ISZERO PUSH2 0x1930 JUMPI POP DUP2 PUSH1 0x7 PUSH1 0x0 DUP4 DUP2 MSTORE PUSH1 0x20 ADD SWAP1 DUP2 MSTORE PUSH1 0x20 ADD PUSH1 0x0 KECCAK256 PUSH1 0x7 ADD PUSH1 0x0 CALLER PUSH20 0xFFFFFFFFFFFFFFFFFFFFFFFFFFFFFFFFFFFFFFFF AND PUSH20 0xFFFFFFFFFFFFFFFFFFFFFFFFFFFFFFFFFFFFFFFF AND DUP2 MSTORE PUSH1 0x20 ADD SWAP1 DUP2 MSTORE PUSH1 0x20 ADD PUSH1 0x0 KECCAK256 SLOAD LT ISZERO JUMPDEST DUP1 ISZERO PUSH2 0x1963 JUMPI POP PUSH1 0x2 PUSH1 0x7 PUSH1 0x0 DUP4 DUP2 MSTORE PUSH1 0x20 ADD SWAP1 DUP2 MSTORE PUSH1 0x20 ADD PUSH1 0x0 KECCAK256 PUSH1 0x8 ADD PUSH1 0x0 SWAP1 SLOAD SWAP1 PUSH2 0x100 EXP SWAP1 DIV PUSH1 0xFF AND PUSH1 0xFF AND EQ ISZERO JUMPDEST ISZERO PUSH2 0x1B24 JUMPI PUSH1 0x0 PUSH2 0x1974 DUP3 DUP5 PUSH2 0x26B9 JUMP JUMPDEST SWAP1 POP PUSH1 0x7 PUSH1 0x0 DUP4 DUP2 MSTORE PUSH1 0x20 ADD SWAP1 DUP2 MSTORE PUSH1 0x20 ADD PUSH1 0x0 KECCAK256 PUSH1 0x7 ADD PUSH1 0x0 CALLER PUSH20 0xFFFFFFFFFFFFFFFFFFFFFFFFFFFFFFFFFFFFFFFF AND PUSH20 0xFFFFFFFFFFFFFFFFFFFFFFFFFFFFFFFFFFFFFFFF AND DUP2 MSTORE PUSH1 0x20 ADD SWAP1 DUP2 MSTORE PUSH1 0x20 ADD PUSH1 0x0 KECCAK256 SLOAD PUSH1 0x7 PUSH1 0x0 DUP5 DUP2 MSTORE PUSH1 0x20 ADD SWAP1 DUP2 MSTORE PUSH1 0x20 ADD PUSH1 0x0 KECCAK256 PUSH1 0x5 ADD PUSH1 0x0 DUP3 DUP3 SLOAD SUB SWAP3 POP POP DUP2 SWAP1 SSTORE POP DUP3 PUSH1 0x7 PUSH1 0x0 DUP5 DUP2 MSTORE PUSH1 0x20 ADD SWAP1 DUP2 MSTORE PUSH1 0x20 ADD PUSH1 0x0 KECCAK256 PUSH1 0x7 ADD PUSH1 0x0 CALLER PUSH20 0xFFFFFFFFFFFFFFFFFFFFFFFFFFFFFFFFFFFFFFFF AND PUSH20 0xFFFFFFFFFFFFFFFFFFFFFFFFFFFFFFFFFFFFFFFF AND DUP2 MSTORE PUSH1 0x20 ADD SWAP1 DUP2 MSTORE PUSH1 0x20 ADD PUSH1 0x0 KECCAK256 PUSH1 0x0 DUP3 DUP3 SLOAD SUB SWAP3 POP POP DUP2 SWAP1 SSTORE POP DUP1 PUSH1 0x7 PUSH1 0x0 DUP5 DUP2 MSTORE PUSH1 0x20 ADD SWAP1 DUP2 MSTORE PUSH1 0x20 ADD PUSH1 0x0 KECCAK256 PUSH1 0x6 ADD PUSH1 0x0 DUP3 DUP3 SLOAD SUB SWAP3 POP POP DUP2 SWAP1 SSTORE POP PUSH1 0x1 PUSH1 0x0 SWAP1 SLOAD SWAP1 PUSH2 0x100 EXP SWAP1 DIV PUSH20 0xFFFFFFFFFFFFFFFFFFFFFFFFFFFFFFFFFFFFFFFF AND PUSH20 0xFFFFFFFFFFFFFFFFFFFFFFFFFFFFFFFFFFFFFFFF AND PUSH4 0xA9059CBB CALLER DUP4 PUSH1 0x40 MLOAD DUP4 PUSH4 0xFFFFFFFF AND PUSH1 0xE0 SHL DUP2 MSTORE PUSH1 0x4 ADD PUSH2 0x1ACF SWAP3 SWAP2 SWAP1 PUSH2 0x2D29 JUMP JUMPDEST PUSH1 0x20 PUSH1 0x40 MLOAD DUP1 DUP4 SUB DUP2 PUSH1 0x0 DUP8 DUP1 EXTCODESIZE ISZERO DUP1 ISZERO PUSH2 0x1AE9 JUMPI PUSH1 0x0 DUP1 REVERT JUMPDEST POP GAS CALL ISZERO DUP1 ISZERO PUSH2 0x1AFD JUMPI RETURNDATASIZE PUSH1 0x0 DUP1 RETURNDATACOPY RETURNDATASIZE PUSH1 0x0 REVERT JUMPDEST POP POP POP POP PUSH1 0x40 MLOAD RETURNDATASIZE PUSH1 0x1F NOT PUSH1 0x1F DUP3 ADD AND DUP3 ADD DUP1 PUSH1 0x40 MSTORE POP PUSH2 0x1B21 SWAP2 SWAP1 DUP2 ADD SWAP1 PUSH2 0x2964 JUMP JUMPDEST POP POP JUMPDEST POP POP JUMP JUMPDEST PUSH1 0x1 DUP1 PUSH1 0x14 SWAP1 SLOAD SWAP1 PUSH2 0x100 EXP SWAP1 DIV PUSH1 0xFF AND PUSH1 0xFF AND EQ ISZERO PUSH2 0x1DBE JUMPI PUSH1 0x0 PUSH1 0x7 PUSH1 0x0 DUP4 DUP2 MSTORE PUSH1 0x20 ADD SWAP1 DUP2 MSTORE PUSH1 0x20 ADD PUSH1 0x0 KECCAK256 PUSH1 0x7 ADD PUSH1 0x0 CALLER PUSH20 0xFFFFFFFFFFFFFFFFFFFFFFFFFFFFFFFFFFFFFFFF AND PUSH20 0xFFFFFFFFFFFFFFFFFFFFFFFFFFFFFFFFFFFFFFFF AND DUP2 MSTORE PUSH1 0x20 ADD SWAP1 DUP2 MSTORE PUSH1 0x20 ADD PUSH1 0x0 KECCAK256 SLOAD GT DUP1 ISZERO PUSH2 0x1BF8 JUMPI POP DUP2 PUSH1 0x7 PUSH1 0x0 DUP4 DUP2 MSTORE PUSH1 0x20 ADD SWAP1 DUP2 MSTORE PUSH1 0x20 ADD PUSH1 0x0 KECCAK256 PUSH1 0x7 ADD PUSH1 0x0 CALLER PUSH20 0xFFFFFFFFFFFFFFFFFFFFFFFFFFFFFFFFFFFFFFFF AND PUSH20 0xFFFFFFFFFFFFFFFFFFFFFFFFFFFFFFFFFFFFFFFF AND DUP2 MSTORE PUSH1 0x20 ADD SWAP1 DUP2 MSTORE PUSH1 0x20 ADD PUSH1 0x0 KECCAK256 SLOAD LT ISZERO JUMPDEST ISZERO PUSH2 0x1DB9 JUMPI PUSH1 0x0 PUSH2 0x1C09 DUP3 DUP5 PUSH2 0x26B9 JUMP JUMPDEST SWAP1 POP PUSH1 0x7 PUSH1 0x0 DUP4 DUP2 MSTORE PUSH1 0x20 ADD SWAP1 DUP2 MSTORE PUSH1 0x20 ADD PUSH1 0x0 KECCAK256 PUSH1 0x7 ADD PUSH1 0x0 CALLER PUSH20 0xFFFFFFFFFFFFFFFFFFFFFFFFFFFFFFFFFFFFFFFF AND PUSH20 0xFFFFFFFFFFFFFFFFFFFFFFFFFFFFFFFFFFFFFFFF AND DUP2 MSTORE PUSH1 0x20 ADD SWAP1 DUP2 MSTORE PUSH1 0x20 ADD PUSH1 0x0 KECCAK256 SLOAD PUSH1 0x7 PUSH1 0x0 DUP5 DUP2 MSTORE PUSH1 0x20 ADD SWAP1 DUP2 MSTORE PUSH1 0x20 ADD PUSH1 0x0 KECCAK256 PUSH1 0x5 ADD PUSH1 0x0 DUP3 DUP3 SLOAD SUB SWAP3 POP POP DUP2 SWAP1 SSTORE POP DUP3 PUSH1 0x7 PUSH1 0x0 DUP5 DUP2 MSTORE PUSH1 0x20 ADD SWAP1 DUP2 MSTORE PUSH1 0x20 ADD PUSH1 0x0 KECCAK256 PUSH1 0x7 ADD PUSH1 0x0 CALLER PUSH20 0xFFFFFFFFFFFFFFFFFFFFFFFFFFFFFFFFFFFFFFFF AND PUSH20 0xFFFFFFFFFFFFFFFFFFFFFFFFFFFFFFFFFFFFFFFF AND DUP2 MSTORE PUSH1 0x20 ADD SWAP1 DUP2 MSTORE PUSH1 0x20 ADD PUSH1 0x0 KECCAK256 PUSH1 0x0 DUP3 DUP3 SLOAD SUB SWAP3 POP POP DUP2 SWAP1 SSTORE POP DUP1 PUSH1 0x7 PUSH1 0x0 DUP5 DUP2 MSTORE PUSH1 0x20 ADD SWAP1 DUP2 MSTORE PUSH1 0x20 ADD PUSH1 0x0 KECCAK256 PUSH1 0x6 ADD PUSH1 0x0 DUP3 DUP3 SLOAD SUB SWAP3 POP POP DUP2 SWAP1 SSTORE POP PUSH1 0x1 PUSH1 0x0 SWAP1 SLOAD SWAP1 PUSH2 0x100 EXP SWAP1 DIV PUSH20 0xFFFFFFFFFFFFFFFFFFFFFFFFFFFFFFFFFFFFFFFF AND PUSH20 0xFFFFFFFFFFFFFFFFFFFFFFFFFFFFFFFFFFFFFFFF AND PUSH4 0xA9059CBB CALLER DUP4 PUSH1 0x40 MLOAD DUP4 PUSH4 0xFFFFFFFF AND PUSH1 0xE0 SHL DUP2 MSTORE PUSH1 0x4 ADD PUSH2 0x1D64 SWAP3 SWAP2 SWAP1 PUSH2 0x2D29 JUMP JUMPDEST PUSH1 0x20 PUSH1 0x40 MLOAD DUP1 DUP4 SUB DUP2 PUSH1 0x0 DUP8 DUP1 EXTCODESIZE ISZERO DUP1 ISZERO PUSH2 0x1D7E JUMPI PUSH1 0x0 DUP1 REVERT JUMPDEST POP GAS CALL ISZERO DUP1 ISZERO PUSH2 0x1D92 JUMPI RETURNDATASIZE PUSH1 0x0 DUP1 RETURNDATACOPY RETURNDATASIZE PUSH1 0x0 REVERT JUMPDEST POP POP POP POP PUSH1 0x40 MLOAD RETURNDATASIZE PUSH1 0x1F NOT PUSH1 0x1F DUP3 ADD AND DUP3 ADD DUP1 PUSH1 0x40 MSTORE POP PUSH2 0x1DB6 SWAP2 SWAP1 DUP2 ADD SWAP1 PUSH2 0x2964 JUMP JUMPDEST POP POP JUMPDEST PUSH2 0x1FDB JUMP JUMPDEST PUSH1 0x2 PUSH1 0x1 PUSH1 0x14 SWAP1 SLOAD SWAP1 PUSH2 0x100 EXP SWAP1 DIV PUSH1 0xFF AND PUSH1 0xFF AND EQ ISZERO PUSH2 0x1FDA JUMPI PUSH1 0x0 PUSH1 0x7 PUSH1 0x0 DUP4 DUP2 MSTORE PUSH1 0x20 ADD SWAP1 DUP2 MSTORE PUSH1 0x20 ADD PUSH1 0x0 KECCAK256 PUSH1 0x7 ADD PUSH1 0x0 CALLER PUSH20 0xFFFFFFFFFFFFFFFFFFFFFFFFFFFFFFFFFFFFFFFF AND PUSH20 0xFFFFFFFFFFFFFFFFFFFFFFFFFFFFFFFFFFFFFFFF AND DUP2 MSTORE PUSH1 0x20 ADD SWAP1 DUP2 MSTORE PUSH1 0x20 ADD PUSH1 0x0 KECCAK256 SLOAD GT DUP1 ISZERO PUSH2 0x1E8F JUMPI POP DUP2 PUSH1 0x7 PUSH1 0x0 DUP4 DUP2 MSTORE PUSH1 0x20 ADD SWAP1 DUP2 MSTORE PUSH1 0x20 ADD PUSH1 0x0 KECCAK256 PUSH1 0x7 ADD PUSH1 0x0 CALLER PUSH20 0xFFFFFFFFFFFFFFFFFFFFFFFFFFFFFFFFFFFFFFFF AND PUSH20 0xFFFFFFFFFFFFFFFFFFFFFFFFFFFFFFFFFFFFFFFF AND DUP2 MSTORE PUSH1 0x20 ADD SWAP1 DUP2 MSTORE PUSH1 0x20 ADD PUSH1 0x0 KECCAK256 SLOAD LT ISZERO JUMPDEST ISZERO PUSH2 0x1FD9 JUMPI PUSH1 0x0 PUSH2 0x1EA0 DUP3 DUP5 PUSH2 0x26B9 JUMP JUMPDEST SWAP1 POP DUP3 PUSH1 0x7 PUSH1 0x0 DUP5 DUP2 MSTORE PUSH1 0x20 ADD SWAP1 DUP2 MSTORE PUSH1 0x20 ADD PUSH1 0x0 KECCAK256 PUSH1 0x7 ADD PUSH1 0x0 CALLER PUSH20 0xFFFFFFFFFFFFFFFFFFFFFFFFFFFFFFFFFFFFFFFF AND PUSH20 0xFFFFFFFFFFFFFFFFFFFFFFFFFFFFFFFFFFFFFFFF AND DUP2 MSTORE PUSH1 0x20 ADD SWAP1 DUP2 MSTORE PUSH1 0x20 ADD PUSH1 0x0 KECCAK256 PUSH1 0x0 DUP3 DUP3 SLOAD SUB SWAP3 POP POP DUP2 SWAP1 SSTORE POP DUP1 PUSH1 0x7 PUSH1 0x0 DUP5 DUP2 MSTORE PUSH1 0x20 ADD SWAP1 DUP2 MSTORE PUSH1 0x20 ADD PUSH1 0x0 KECCAK256 PUSH1 0x6 ADD PUSH1 0x0 DUP3 DUP3 SLOAD SUB SWAP3 POP POP DUP2 SWAP1 SSTORE POP PUSH1 0x1 PUSH1 0x0 SWAP1 SLOAD SWAP1 PUSH2 0x100 EXP SWAP1 DIV PUSH20 0xFFFFFFFFFFFFFFFFFFFFFFFFFFFFFFFFFFFFFFFF AND PUSH20 0xFFFFFFFFFFFFFFFFFFFFFFFFFFFFFFFFFFFFFFFF AND PUSH4 0xA9059CBB CALLER DUP4 PUSH1 0x40 MLOAD DUP4 PUSH4 0xFFFFFFFF AND PUSH1 0xE0 SHL DUP2 MSTORE PUSH1 0x4 ADD PUSH2 0x1F84 SWAP3 SWAP2 SWAP1 PUSH2 0x2D29 JUMP JUMPDEST PUSH1 0x20 PUSH1 0x40 MLOAD DUP1 DUP4 SUB DUP2 PUSH1 0x0 DUP8 DUP1 EXTCODESIZE ISZERO DUP1 ISZERO PUSH2 0x1F9E JUMPI PUSH1 0x0 DUP1 REVERT JUMPDEST POP GAS CALL ISZERO DUP1 ISZERO PUSH2 0x1FB2 JUMPI RETURNDATASIZE PUSH1 0x0 DUP1 RETURNDATACOPY RETURNDATASIZE PUSH1 0x0 REVERT JUMPDEST POP POP POP POP PUSH1 0x40 MLOAD RETURNDATASIZE PUSH1 0x1F NOT PUSH1 0x1F DUP3 ADD AND DUP3 ADD DUP1 PUSH1 0x40 MSTORE POP PUSH2 0x1FD6 SWAP2 SWAP1 DUP2 ADD SWAP1 PUSH2 0x2964 JUMP JUMPDEST POP POP JUMPDEST JUMPDEST JUMPDEST POP POP JUMP JUMPDEST PUSH1 0x0 DUP1 PUSH1 0x7 PUSH1 0x0 DUP6 DUP2 MSTORE PUSH1 0x20 ADD SWAP1 DUP2 MSTORE PUSH1 0x20 ADD PUSH1 0x0 KECCAK256 PUSH1 0x7 ADD PUSH1 0x0 CALLER PUSH20 0xFFFFFFFFFFFFFFFFFFFFFFFFFFFFFFFFFFFFFFFF AND PUSH20 0xFFFFFFFFFFFFFFFFFFFFFFFFFFFFFFFFFFFFFFFF AND DUP2 MSTORE PUSH1 0x20 ADD SWAP1 DUP2 MSTORE PUSH1 0x20 ADD PUSH1 0x0 KECCAK256 SLOAD SWAP1 POP PUSH1 0x0 PUSH1 0x2 DUP3 EXP SWAP1 POP PUSH1 0x0 DUP5 DUP4 ADD SWAP1 POP PUSH1 0x0 PUSH1 0x2 DUP3 EXP SWAP1 POP DUP3 DUP2 SUB SWAP5 POP POP POP POP POP SWAP3 SWAP2 POP POP JUMP JUMPDEST PUSH1 0x0 PUSH2 0x2068 PUSH2 0x277B JUMP JUMPDEST PUSH1 0x7 PUSH1 0x0 DUP5 DUP2 MSTORE PUSH1 0x20 ADD SWAP1 DUP2 MSTORE PUSH1 0x20 ADD PUSH1 0x0 KECCAK256 PUSH1 0x40 MLOAD DUP1 PUSH2 0x120 ADD PUSH1 0x40 MSTORE SWAP1 DUP2 PUSH1 0x0 DUP3 ADD PUSH1 0x0 SWAP1 SLOAD SWAP1 PUSH2 0x100 EXP SWAP1 DIV PUSH20 0xFFFFFFFFFFFFFFFFFFFFFFFFFFFFFFFFFFFFFFFF AND PUSH20 0xFFFFFFFFFFFFFFFFFFFFFFFFFFFFFFFFFFFFFFFF AND PUSH20 0xFFFFFFFFFFFFFFFFFFFFFFFFFFFFFFFFFFFFFFFF AND DUP2 MSTORE PUSH1 0x20 ADD PUSH1 0x1 DUP3 ADD PUSH1 0x0 SWAP1 SLOAD SWAP1 PUSH2 0x100 EXP SWAP1 DIV PUSH20 0xFFFFFFFFFFFFFFFFFFFFFFFFFFFFFFFFFFFFFFFF AND PUSH20 0xFFFFFFFFFFFFFFFFFFFFFFFFFFFFFFFFFFFFFFFF AND PUSH20 0xFFFFFFFFFFFFFFFFFFFFFFFFFFFFFFFFFFFFFFFF AND DUP2 MSTORE PUSH1 0x20 ADD PUSH1 0x2 DUP3 ADD DUP1 SLOAD PUSH1 0x1 DUP2 PUSH1 0x1 AND ISZERO PUSH2 0x100 MUL SUB AND PUSH1 0x2 SWAP1 DIV DUP1 PUSH1 0x1F ADD PUSH1 0x20 DUP1 SWAP2 DIV MUL PUSH1 0x20 ADD PUSH1 0x40 MLOAD SWAP1 DUP2 ADD PUSH1 0x40 MSTORE DUP1 SWAP3 SWAP2 SWAP1 DUP2 DUP2 MSTORE PUSH1 0x20 ADD DUP3 DUP1 SLOAD PUSH1 0x1 DUP2 PUSH1 0x1 AND ISZERO PUSH2 0x100 MUL SUB AND PUSH1 0x2 SWAP1 DIV DUP1 ISZERO PUSH2 0x21CC JUMPI DUP1 PUSH1 0x1F LT PUSH2 0x21A1 JUMPI PUSH2 0x100 DUP1 DUP4 SLOAD DIV MUL DUP4 MSTORE SWAP2 PUSH1 0x20 ADD SWAP2 PUSH2 0x21CC JUMP JUMPDEST DUP3 ADD SWAP2 SWAP1 PUSH1 0x0 MSTORE PUSH1 0x20 PUSH1 0x0 KECCAK256 SWAP1 JUMPDEST DUP2 SLOAD DUP2 MSTORE SWAP1 PUSH1 0x1 ADD SWAP1 PUSH1 0x20 ADD DUP1 DUP4 GT PUSH2 0x21AF JUMPI DUP3 SWAP1 SUB PUSH1 0x1F AND DUP3 ADD SWAP2 JUMPDEST POP POP POP POP POP DUP2 MSTORE PUSH1 0x20 ADD PUSH1 0x3 DUP3 ADD DUP1 SLOAD PUSH1 0x1 DUP2 PUSH1 0x1 AND ISZERO PUSH2 0x100 MUL SUB AND PUSH1 0x2 SWAP1 DIV DUP1 PUSH1 0x1F ADD PUSH1 0x20 DUP1 SWAP2 DIV MUL PUSH1 0x20 ADD PUSH1 0x40 MLOAD SWAP1 DUP2 ADD PUSH1 0x40 MSTORE DUP1 SWAP3 SWAP2 SWAP1 DUP2 DUP2 MSTORE PUSH1 0x20 ADD DUP3 DUP1 SLOAD PUSH1 0x1 DUP2 PUSH1 0x1 AND ISZERO PUSH2 0x100 MUL SUB AND PUSH1 0x2 SWAP1 DIV DUP1 ISZERO PUSH2 0x226E JUMPI DUP1 PUSH1 0x1F LT PUSH2 0x2243 JUMPI PUSH2 0x100 DUP1 DUP4 SLOAD DIV MUL DUP4 MSTORE SWAP2 PUSH1 0x20 ADD SWAP2 PUSH2 0x226E JUMP JUMPDEST DUP3 ADD SWAP2 SWAP1 PUSH1 0x0 MSTORE PUSH1 0x20 PUSH1 0x0 KECCAK256 SWAP1 JUMPDEST DUP2 SLOAD DUP2 MSTORE SWAP1 PUSH1 0x1 ADD SWAP1 PUSH1 0x20 ADD DUP1 DUP4 GT PUSH2 0x2251 JUMPI DUP3 SWAP1 SUB PUSH1 0x1F AND DUP3 ADD SWAP2 JUMPDEST POP POP POP POP POP DUP2 MSTORE PUSH1 0x20 ADD PUSH1 0x4 DUP3 ADD SLOAD DUP2 MSTORE PUSH1 0x20 ADD PUSH1 0x5 DUP3 ADD SLOAD DUP2 MSTORE PUSH1 0x20 ADD PUSH1 0x6 DUP3 ADD SLOAD DUP2 MSTORE PUSH1 0x20 ADD PUSH1 0x8 DUP3 ADD PUSH1 0x0 SWAP1 SLOAD SWAP1 PUSH2 0x100 EXP SWAP1 DIV PUSH1 0xFF AND PUSH1 0xFF AND PUSH1 0xFF AND DUP2 MSTORE PUSH1 0x20 ADD PUSH1 0x8 DUP3 ADD PUSH1 0x1 SWAP1 SLOAD SWAP1 PUSH2 0x100 EXP SWAP1 DIV PUSH1 0xFF AND ISZERO ISZERO ISZERO ISZERO DUP2 MSTORE POP POP SWAP1 POP SELFBALANCE DUP2 PUSH1 0x80 ADD MLOAD LT DUP1 ISZERO PUSH2 0x22ED JUMPI POP PUSH2 0x22E6 DUP4 PUSH2 0x2738 JUMP JUMPDEST DUP2 PUSH1 0xA0 ADD MLOAD GT JUMPDEST SWAP2 POP POP SWAP2 SWAP1 POP JUMP JUMPDEST PUSH1 0x2 PUSH1 0x7 PUSH1 0x0 DUP4 DUP2 MSTORE PUSH1 0x20 ADD SWAP1 DUP2 MSTORE PUSH1 0x20 ADD PUSH1 0x0 KECCAK256 PUSH1 0x8 ADD PUSH1 0x0 PUSH2 0x100 EXP DUP2 SLOAD DUP2 PUSH1 0xFF MUL NOT AND SWAP1 DUP4 PUSH1 0xFF AND MUL OR SWAP1 SSTORE POP PUSH2 0x232D PUSH2 0x277B JUMP JUMPDEST PUSH1 0x7 PUSH1 0x0 DUP4 DUP2 MSTORE PUSH1 0x20 ADD SWAP1 DUP2 MSTORE PUSH1 0x20 ADD PUSH1 0x0 KECCAK256 PUSH1 0x40 MLOAD DUP1 PUSH2 0x120 ADD PUSH1 0x40 MSTORE SWAP1 DUP2 PUSH1 0x0 DUP3 ADD PUSH1 0x0 SWAP1 SLOAD SWAP1 PUSH2 0x100 EXP SWAP1 DIV PUSH20 0xFFFFFFFFFFFFFFFFFFFFFFFFFFFFFFFFFFFFFFFF AND PUSH20 0xFFFFFFFFFFFFFFFFFFFFFFFFFFFFFFFFFFFFFFFF AND PUSH20 0xFFFFFFFFFFFFFFFFFFFFFFFFFFFFFFFFFFFFFFFF AND DUP2 MSTORE PUSH1 0x20 ADD PUSH1 0x1 DUP3 ADD PUSH1 0x0 SWAP1 SLOAD SWAP1 PUSH2 0x100 EXP SWAP1 DIV PUSH20 0xFFFFFFFFFFFFFFFFFFFFFFFFFFFFFFFFFFFFFFFF AND PUSH20 0xFFFFFFFFFFFFFFFFFFFFFFFFFFFFFFFFFFFFFFFF AND PUSH20 0xFFFFFFFFFFFFFFFFFFFFFFFFFFFFFFFFFFFFFFFF AND DUP2 MSTORE PUSH1 0x20 ADD PUSH1 0x2 DUP3 ADD DUP1 SLOAD PUSH1 0x1 DUP2 PUSH1 0x1 AND ISZERO PUSH2 0x100 MUL SUB AND PUSH1 0x2 SWAP1 DIV DUP1 PUSH1 0x1F ADD PUSH1 0x20 DUP1 SWAP2 DIV MUL PUSH1 0x20 ADD PUSH1 0x40 MLOAD SWAP1 DUP2 ADD PUSH1 0x40 MSTORE DUP1 SWAP3 SWAP2 SWAP1 DUP2 DUP2 MSTORE PUSH1 0x20 ADD DUP3 DUP1 SLOAD PUSH1 0x1 DUP2 PUSH1 0x1 AND ISZERO PUSH2 0x100 MUL SUB AND PUSH1 0x2 SWAP1 DIV DUP1 ISZERO PUSH2 0x2491 JUMPI DUP1 PUSH1 0x1F LT PUSH2 0x2466 JUMPI PUSH2 0x100 DUP1 DUP4 SLOAD DIV MUL DUP4 MSTORE SWAP2 PUSH1 0x20 ADD SWAP2 PUSH2 0x2491 JUMP JUMPDEST DUP3 ADD SWAP2 SWAP1 PUSH1 0x0 MSTORE PUSH1 0x20 PUSH1 0x0 KECCAK256 SWAP1 JUMPDEST DUP2 SLOAD DUP2 MSTORE SWAP1 PUSH1 0x1 ADD SWAP1 PUSH1 0x20 ADD DUP1 DUP4 GT PUSH2 0x2474 JUMPI DUP3 SWAP1 SUB PUSH1 0x1F AND DUP3 ADD SWAP2 JUMPDEST POP POP POP POP POP DUP2 MSTORE PUSH1 0x20 ADD PUSH1 0x3 DUP3 ADD DUP1 SLOAD PUSH1 0x1 DUP2 PUSH1 0x1 AND ISZERO PUSH2 0x100 MUL SUB AND PUSH1 0x2 SWAP1 DIV DUP1 PUSH1 0x1F ADD PUSH1 0x20 DUP1 SWAP2 DIV MUL PUSH1 0x20 ADD PUSH1 0x40 MLOAD SWAP1 DUP2 ADD PUSH1 0x40 MSTORE DUP1 SWAP3 SWAP2 SWAP1 DUP2 DUP2 MSTORE PUSH1 0x20 ADD DUP3 DUP1 SLOAD PUSH1 0x1 DUP2 PUSH1 0x1 AND ISZERO PUSH2 0x100 MUL SUB AND PUSH1 0x2 SWAP1 DIV DUP1 ISZERO PUSH2 0x2533 JUMPI DUP1 PUSH1 0x1F LT PUSH2 0x2508 JUMPI PUSH2 0x100 DUP1 DUP4 SLOAD DIV MUL DUP4 MSTORE SWAP2 PUSH1 0x20 ADD SWAP2 PUSH2 0x2533 JUMP JUMPDEST DUP3 ADD SWAP2 SWAP1 PUSH1 0x0 MSTORE PUSH1 0x20 PUSH1 0x0 KECCAK256 SWAP1 JUMPDEST DUP2 SLOAD DUP2 MSTORE SWAP1 PUSH1 0x1 ADD SWAP1 PUSH1 0x20 ADD DUP1 DUP4 GT PUSH2 0x2516 JUMPI DUP3 SWAP1 SUB PUSH1 0x1F AND DUP3 ADD SWAP2 JUMPDEST POP POP POP POP POP DUP2 MSTORE PUSH1 0x20 ADD PUSH1 0x4 DUP3 ADD SLOAD DUP2 MSTORE PUSH1 0x20 ADD PUSH1 0x5 DUP3 ADD SLOAD DUP2 MSTORE PUSH1 0x20 ADD PUSH1 0x6 DUP3 ADD SLOAD DUP2 MSTORE PUSH1 0x20 ADD PUSH1 0x8 DUP3 ADD PUSH1 0x0 SWAP1 SLOAD SWAP1 PUSH2 0x100 EXP SWAP1 DIV PUSH1 0xFF AND PUSH1 0xFF AND PUSH1 0xFF AND DUP2 MSTORE PUSH1 0x20 ADD PUSH1 0x8 DUP3 ADD PUSH1 0x1 SWAP1 SLOAD SWAP1 PUSH2 0x100 EXP SWAP1 DIV PUSH1 0xFF AND ISZERO ISZERO ISZERO ISZERO DUP2 MSTORE POP POP SWAP1 POP PUSH1 0x0 DUP2 PUSH1 0x80 ADD MLOAD GT ISZERO PUSH2 0x2635 JUMPI PUSH1 0x1 PUSH1 0x0 SWAP1 SLOAD SWAP1 PUSH2 0x100 EXP SWAP1 DIV PUSH20 0xFFFFFFFFFFFFFFFFFFFFFFFFFFFFFFFFFFFFFFFF AND PUSH20 0xFFFFFFFFFFFFFFFFFFFFFFFFFFFFFFFFFFFFFFFF AND PUSH4 0x9DC29FAC ADDRESS DUP4 PUSH1 0xC0 ADD MLOAD PUSH1 0x40 MLOAD DUP4 PUSH4 0xFFFFFFFF AND PUSH1 0xE0 SHL DUP2 MSTORE PUSH1 0x4 ADD PUSH2 0x2602 SWAP3 SWAP2 SWAP1 PUSH2 0x2D52 JUMP JUMPDEST PUSH1 0x0 PUSH1 0x40 MLOAD DUP1 DUP4 SUB DUP2 PUSH1 0x0 DUP8 DUP1 EXTCODESIZE ISZERO DUP1 ISZERO PUSH2 0x261C JUMPI PUSH1 0x0 DUP1 REVERT JUMPDEST POP GAS CALL ISZERO DUP1 ISZERO PUSH2 0x2630 JUMPI RETURNDATASIZE PUSH1 0x0 DUP1 RETURNDATACOPY RETURNDATASIZE PUSH1 0x0 REVERT JUMPDEST POP POP POP POP JUMPDEST DUP1 PUSH1 0x20 ADD MLOAD PUSH20 0xFFFFFFFFFFFFFFFFFFFFFFFFFFFFFFFFFFFFFFFF AND PUSH4 0x986CC311 DUP3 PUSH1 0x80 ADD MLOAD DUP5 DUP5 PUSH1 0xA0 ADD MLOAD DUP6 PUSH1 0xC0 ADD MLOAD PUSH1 0x40 MLOAD DUP6 PUSH4 0xFFFFFFFF AND PUSH1 0xE0 SHL DUP2 MSTORE PUSH1 0x4 ADD PUSH2 0x2683 SWAP4 SWAP3 SWAP2 SWAP1 PUSH2 0x2ED3 JUMP JUMPDEST PUSH1 0x0 PUSH1 0x40 MLOAD DUP1 DUP4 SUB DUP2 DUP6 DUP9 DUP1 EXTCODESIZE ISZERO DUP1 ISZERO PUSH2 0x269C JUMPI PUSH1 0x0 DUP1 REVERT JUMPDEST POP GAS CALL ISZERO DUP1 ISZERO PUSH2 0x26B0 JUMPI RETURNDATASIZE PUSH1 0x0 DUP1 RETURNDATACOPY RETURNDATASIZE PUSH1 0x0 REVERT JUMPDEST POP POP POP POP POP POP POP JUMP JUMPDEST PUSH1 0x0 DUP1 PUSH1 0x7 PUSH1 0x0 DUP6 DUP2 MSTORE PUSH1 0x20 ADD SWAP1 DUP2 MSTORE PUSH1 0x20 ADD PUSH1 0x0 KECCAK256 PUSH1 0x7 ADD PUSH1 0x0 CALLER PUSH20 0xFFFFFFFFFFFFFFFFFFFFFFFFFFFFFFFFFFFFFFFF AND PUSH20 0xFFFFFFFFFFFFFFFFFFFFFFFFFFFFFFFFFFFFFFFF AND DUP2 MSTORE PUSH1 0x20 ADD SWAP1 DUP2 MSTORE PUSH1 0x20 ADD PUSH1 0x0 KECCAK256 SLOAD SWAP1 POP PUSH1 0x0 PUSH1 0x2 DUP3 EXP SWAP1 POP PUSH1 0x0 DUP5 DUP4 SUB SWAP1 POP PUSH1 0x0 PUSH1 0x2 DUP3 EXP SWAP1 POP DUP1 DUP4 SUB SWAP5 POP POP POP POP POP SWAP3 SWAP2 POP POP JUMP JUMPDEST PUSH1 0x0 PUSH1 0x6 SLOAD PUSH1 0x4 SLOAD PUSH1 0xA DUP1 SELFBALANCE MUL PUSH1 0xA PUSH1 0x7 PUSH1 0x0 DUP9 DUP2 MSTORE PUSH1 0x20 ADD SWAP1 DUP2 MSTORE PUSH1 0x20 ADD PUSH1 0x0 KECCAK256 PUSH1 0x4 ADD SLOAD MUL DUP2 PUSH2 0x2766 JUMPI INVALID JUMPDEST DIV PUSH1 0x2 ADD DUP2 PUSH2 0x2771 JUMPI INVALID JUMPDEST DIV MUL ADD SWAP1 POP SWAP2 SWAP1 POP JUMP JUMPDEST PUSH1 0x40 MLOAD DUP1 PUSH2 0x120 ADD PUSH1 0x40 MSTORE DUP1 PUSH1 0x0 PUSH20 0xFFFFFFFFFFFFFFFFFFFFFFFFFFFFFFFFFFFFFFFF AND DUP2 MSTORE PUSH1 0x20 ADD PUSH1 0x0 PUSH20 0xFFFFFFFFFFFFFFFFFFFFFFFFFFFFFFFFFFFFFFFF AND DUP2 MSTORE PUSH1 0x20 ADD PUSH1 0x60 DUP2 MSTORE PUSH1 0x20 ADD PUSH1 0x60 DUP2 MSTORE PUSH1 0x20 ADD PUSH1 0x0 DUP2 MSTORE PUSH1 0x20 ADD PUSH1 0x0 DUP2 MSTORE PUSH1 0x20 ADD PUSH1 0x0 DUP2 MSTORE PUSH1 0x20 ADD PUSH1 0x0 PUSH1 0xFF AND DUP2 MSTORE PUSH1 0x20 ADD PUSH1 0x0 ISZERO ISZERO DUP2 MSTORE POP SWAP1 JUMP JUMPDEST DUP3 DUP1 SLOAD PUSH1 0x1 DUP2 PUSH1 0x1 AND ISZERO PUSH2 0x100 MUL SUB AND PUSH1 0x2 SWAP1 DIV SWAP1 PUSH1 0x0 MSTORE PUSH1 0x20 PUSH1 0x0 KECCAK256 SWAP1 PUSH1 0x1F ADD PUSH1 0x20 SWAP1 DIV DUP2 ADD SWAP3 DUP3 PUSH1 0x1F LT PUSH2 0x2839 JUMPI DUP1 MLOAD PUSH1 0xFF NOT AND DUP4 DUP1 ADD OR DUP6 SSTORE PUSH2 0x2867 JUMP JUMPDEST DUP3 DUP1 ADD PUSH1 0x1 ADD DUP6 SSTORE DUP3 ISZERO PUSH2 0x2867 JUMPI SWAP2 DUP3 ADD JUMPDEST DUP3 DUP2 GT ISZERO PUSH2 0x2866 JUMPI DUP3 MLOAD DUP3 SSTORE SWAP2 PUSH1 0x20 ADD SWAP2 SWAP1 PUSH1 0x1 ADD SWAP1 PUSH2 0x284B JUMP JUMPDEST JUMPDEST POP SWAP1 POP PUSH2 0x2874 SWAP2 SWAP1 PUSH2 0x2878 JUMP JUMPDEST POP SWAP1 JUMP JUMPDEST PUSH2 0x289A SWAP2 SWAP1 JUMPDEST DUP1 DUP3 GT ISZERO PUSH2 0x2896 JUMPI PUSH1 0x0 DUP2 PUSH1 0x0 SWAP1 SSTORE POP PUSH1 0x1 ADD PUSH2 0x287E JUMP JUMPDEST POP SWAP1 JUMP JUMPDEST SWAP1 JUMP JUMPDEST PUSH1 0x0 DUP2 CALLDATALOAD SWAP1 POP PUSH2 0x28AC DUP2 PUSH2 0x3069 JUMP JUMPDEST SWAP3 SWAP2 POP POP JUMP JUMPDEST PUSH1 0x0 DUP2 MLOAD SWAP1 POP PUSH2 0x28C1 DUP2 PUSH2 0x3080 JUMP JUMPDEST SWAP3 SWAP2 POP POP JUMP JUMPDEST PUSH1 0x0 DUP1 DUP4 PUSH1 0x1F DUP5 ADD SLT PUSH2 0x28D9 JUMPI PUSH1 0x0 DUP1 REVERT JUMPDEST DUP3 CALLDATALOAD SWAP1 POP PUSH8 0xFFFFFFFFFFFFFFFF DUP2 GT ISZERO PUSH2 0x28F2 JUMPI PUSH1 0x0 DUP1 REVERT JUMPDEST PUSH1 0x20 DUP4 ADD SWAP2 POP DUP4 PUSH1 0x1 DUP3 MUL DUP4 ADD GT ISZERO PUSH2 0x290A JUMPI PUSH1 0x0 DUP1 REVERT JUMPDEST SWAP3 POP SWAP3 SWAP1 POP JUMP JUMPDEST PUSH1 0x0 DUP2 CALLDATALOAD SWAP1 POP PUSH2 0x2920 DUP2 PUSH2 0x3097 JUMP JUMPDEST SWAP3 SWAP2 POP POP JUMP JUMPDEST PUSH1 0x0 DUP2 MLOAD SWAP1 POP PUSH2 0x2935 DUP2 PUSH2 0x3097 JUMP JUMPDEST SWAP3 SWAP2 POP POP JUMP JUMPDEST PUSH1 0x0 PUSH1 0x20 DUP3 DUP5 SUB SLT ISZERO PUSH2 0x294D JUMPI PUSH1 0x0 DUP1 REVERT JUMPDEST PUSH1 0x0 PUSH2 0x295B DUP5 DUP3 DUP6 ADD PUSH2 0x289D JUMP JUMPDEST SWAP2 POP POP SWAP3 SWAP2 POP POP JUMP JUMPDEST PUSH1 0x0 PUSH1 0x20 DUP3 DUP5 SUB SLT ISZERO PUSH2 0x2976 JUMPI PUSH1 0x0 DUP1 REVERT JUMPDEST PUSH1 0x0 PUSH2 0x2984 DUP5 DUP3 DUP6 ADD PUSH2 0x28B2 JUMP JUMPDEST SWAP2 POP POP SWAP3 SWAP2 POP POP JUMP JUMPDEST PUSH1 0x0 DUP1 PUSH1 0x0 DUP1 PUSH1 0x0 DUP1 PUSH1 0x80 DUP8 DUP10 SUB SLT ISZERO PUSH2 0x29A6 JUMPI PUSH1 0x0 DUP1 REVERT JUMPDEST PUSH1 0x0 DUP8 ADD CALLDATALOAD PUSH8 0xFFFFFFFFFFFFFFFF DUP2 GT ISZERO PUSH2 0x29C0 JUMPI PUSH1 0x0 DUP1 REVERT JUMPDEST PUSH2 0x29CC DUP10 DUP3 DUP11 ADD PUSH2 0x28C7 JUMP JUMPDEST SWAP7 POP SWAP7 POP POP PUSH1 0x20 DUP8 ADD CALLDATALOAD PUSH8 0xFFFFFFFFFFFFFFFF DUP2 GT ISZERO PUSH2 0x29EB JUMPI PUSH1 0x0 DUP1 REVERT JUMPDEST PUSH2 0x29F7 DUP10 DUP3 DUP11 ADD PUSH2 0x28C7 JUMP JUMPDEST SWAP5 POP SWAP5 POP POP PUSH1 0x40 PUSH2 0x2A0A DUP10 DUP3 DUP11 ADD PUSH2 0x2911 JUMP JUMPDEST SWAP3 POP POP PUSH1 0x60 PUSH2 0x2A1B DUP10 DUP3 DUP11 ADD PUSH2 0x289D JUMP JUMPDEST SWAP2 POP POP SWAP3 SWAP6 POP SWAP3 SWAP6 POP SWAP3 SWAP6 JUMP JUMPDEST PUSH1 0x0 PUSH1 0x20 DUP3 DUP5 SUB SLT ISZERO PUSH2 0x2A3A JUMPI PUSH1 0x0 DUP1 REVERT JUMPDEST PUSH1 0x0 PUSH2 0x2A48 DUP5 DUP3 DUP6 ADD PUSH2 0x2911 JUMP JUMPDEST SWAP2 POP POP SWAP3 SWAP2 POP POP JUMP JUMPDEST PUSH1 0x0 PUSH1 0x20 DUP3 DUP5 SUB SLT ISZERO PUSH2 0x2A63 JUMPI PUSH1 0x0 DUP1 REVERT JUMPDEST PUSH1 0x0 PUSH2 0x2A71 DUP5 DUP3 DUP6 ADD PUSH2 0x2926 JUMP JUMPDEST SWAP2 POP POP SWAP3 SWAP2 POP POP JUMP JUMPDEST PUSH1 0x0 DUP1 PUSH1 0x40 DUP4 DUP6 SUB SLT ISZERO PUSH2 0x2A8D JUMPI PUSH1 0x0 DUP1 REVERT JUMPDEST PUSH1 0x0 PUSH2 0x2A9B DUP6 DUP3 DUP7 ADD PUSH2 0x2911 JUMP JUMPDEST SWAP3 POP POP PUSH1 0x20 PUSH2 0x2AAC DUP6 DUP3 DUP7 ADD PUSH2 0x2911 JUMP JUMPDEST SWAP2 POP POP SWAP3 POP SWAP3 SWAP1 POP JUMP JUMPDEST PUSH1 0x0 PUSH2 0x2AC2 DUP4 DUP4 PUSH2 0x2CF0 JUMP JUMPDEST PUSH1 0x20 DUP4 ADD SWAP1 POP SWAP3 SWAP2 POP POP JUMP JUMPDEST PUSH2 0x2AD7 DUP2 PUSH2 0x2FA7 JUMP JUMPDEST DUP3 MSTORE POP POP JUMP JUMPDEST PUSH2 0x2AE6 DUP2 PUSH2 0x2F5F JUMP JUMPDEST DUP3 MSTORE POP POP JUMP JUMPDEST PUSH1 0x0 PUSH2 0x2AF7 DUP3 PUSH2 0x2F1A JUMP JUMPDEST PUSH2 0x2B01 DUP2 DUP6 PUSH2 0x2F3D JUMP JUMPDEST SWAP4 POP PUSH2 0x2B0C DUP4 PUSH2 0x2F0A JUMP JUMPDEST DUP1 PUSH1 0x0 JUMPDEST DUP4 DUP2 LT ISZERO PUSH2 0x2B3D JUMPI DUP2 MLOAD PUSH2 0x2B24 DUP9 DUP3 PUSH2 0x2AB6 JUMP JUMPDEST SWAP8 POP PUSH2 0x2B2F DUP4 PUSH2 0x2F30 JUMP JUMPDEST SWAP3 POP POP PUSH1 0x1 DUP2 ADD SWAP1 POP PUSH2 0x2B10 JUMP JUMPDEST POP DUP6 SWAP4 POP POP POP POP SWAP3 SWAP2 POP POP JUMP JUMPDEST PUSH2 0x2B53 DUP2 PUSH2 0x2F71 JUMP JUMPDEST DUP3 MSTORE POP POP JUMP JUMPDEST PUSH2 0x2B62 DUP2 PUSH2 0x2FB9 JUMP JUMPDEST DUP3 MSTORE POP POP JUMP JUMPDEST PUSH2 0x2B71 DUP2 PUSH2 0x2FDD JUMP JUMPDEST DUP3 MSTORE POP POP JUMP JUMPDEST PUSH1 0x0 PUSH2 0x2B82 DUP3 PUSH2 0x2F25 JUMP JUMPDEST PUSH2 0x2B8C DUP2 DUP6 PUSH2 0x2F4E JUMP JUMPDEST SWAP4 POP PUSH2 0x2B9C DUP2 DUP6 PUSH1 0x20 DUP7 ADD PUSH2 0x3025 JUMP JUMPDEST PUSH2 0x2BA5 DUP2 PUSH2 0x3058 JUMP JUMPDEST DUP5 ADD SWAP2 POP POP SWAP3 SWAP2 POP POP JUMP JUMPDEST PUSH1 0x0 PUSH2 0x2BBD PUSH1 0x11 DUP4 PUSH2 0x2F4E JUMP JUMPDEST SWAP2 POP PUSH32 0x4E6F742061207061727469636970616E74000000000000000000000000000000 PUSH1 0x0 DUP4 ADD MSTORE PUSH1 0x20 DUP3 ADD SWAP1 POP SWAP2 SWAP1 POP JUMP JUMPDEST PUSH1 0x0 PUSH2 0x2BFD PUSH1 0xC DUP4 PUSH2 0x2F4E JUMP JUMPDEST SWAP2 POP PUSH32 0x556E617574686F72697A65640000000000000000000000000000000000000000 PUSH1 0x0 DUP4 ADD MSTORE PUSH1 0x20 DUP3 ADD SWAP1 POP SWAP2 SWAP1 POP JUMP JUMPDEST PUSH1 0x0 PUSH2 0x2C3D PUSH1 0xE DUP4 PUSH2 0x2F4E JUMP JUMPDEST SWAP2 POP PUSH32 0x496E76616C696420616D6F756E74000000000000000000000000000000000000 PUSH1 0x0 DUP4 ADD MSTORE PUSH1 0x20 DUP3 ADD SWAP1 POP SWAP2 SWAP1 POP JUMP JUMPDEST PUSH1 0x0 PUSH2 0x2C7D PUSH1 0xF DUP4 PUSH2 0x2F4E JUMP JUMPDEST SWAP2 POP PUSH32 0x566F74696E67206E6F74206F70656E0000000000000000000000000000000000 PUSH1 0x0 DUP4 ADD MSTORE PUSH1 0x20 DUP3 ADD SWAP1 POP SWAP2 SWAP1 POP JUMP JUMPDEST PUSH1 0x0 PUSH2 0x2CBD PUSH1 0x17 DUP4 PUSH2 0x2F4E JUMP JUMPDEST SWAP2 POP PUSH32 0x496E76616C696420707572636861736520616D6F756E74000000000000000000 PUSH1 0x0 DUP4 ADD MSTORE PUSH1 0x20 DUP3 ADD SWAP1 POP SWAP2 SWAP1 POP JUMP JUMPDEST PUSH2 0x2CF9 DUP2 PUSH2 0x2F9D JUMP JUMPDEST DUP3 MSTORE POP POP JUMP JUMPDEST PUSH2 0x2D08 DUP2 PUSH2 0x2F9D JUMP JUMPDEST DUP3 MSTORE POP POP JUMP JUMPDEST PUSH1 0x0 PUSH1 0x20 DUP3 ADD SWAP1 POP PUSH2 0x2D23 PUSH1 0x0 DUP4 ADD DUP5 PUSH2 0x2ACE JUMP JUMPDEST SWAP3 SWAP2 POP POP JUMP JUMPDEST PUSH1 0x0 PUSH1 0x40 DUP3 ADD SWAP1 POP PUSH2 0x2D3E PUSH1 0x0 DUP4 ADD DUP6 PUSH2 0x2ACE JUMP JUMPDEST PUSH2 0x2D4B PUSH1 0x20 DUP4 ADD DUP5 PUSH2 0x2CFF JUMP JUMPDEST SWAP4 SWAP3 POP POP POP JUMP JUMPDEST PUSH1 0x0 PUSH1 0x40 DUP3 ADD SWAP1 POP PUSH2 0x2D67 PUSH1 0x0 DUP4 ADD DUP6 PUSH2 0x2ADD JUMP JUMPDEST PUSH2 0x2D74 PUSH1 0x20 DUP4 ADD DUP5 PUSH2 0x2CFF JUMP JUMPDEST SWAP4 SWAP3 POP POP POP JUMP JUMPDEST PUSH1 0x0 PUSH1 0x20 DUP3 ADD SWAP1 POP DUP2 DUP2 SUB PUSH1 0x0 DUP4 ADD MSTORE PUSH2 0x2D95 DUP2 DUP5 PUSH2 0x2AEC JUMP JUMPDEST SWAP1 POP SWAP3 SWAP2 POP POP JUMP JUMPDEST PUSH1 0x0 PUSH1 0x20 DUP3 ADD SWAP1 POP PUSH2 0x2DB2 PUSH1 0x0 DUP4 ADD DUP5 PUSH2 0x2B4A JUMP JUMPDEST SWAP3 SWAP2 POP POP JUMP JUMPDEST PUSH1 0x0 PUSH1 0x20 DUP3 ADD SWAP1 POP PUSH2 0x2DCD PUSH1 0x0 DUP4 ADD DUP5 PUSH2 0x2B68 JUMP JUMPDEST SWAP3 SWAP2 POP POP JUMP JUMPDEST PUSH1 0x0 PUSH1 0x60 DUP3 ADD SWAP1 POP DUP2 DUP2 SUB PUSH1 0x0 DUP4 ADD MSTORE PUSH2 0x2DED DUP2 DUP7 PUSH2 0x2B77 JUMP JUMPDEST SWAP1 POP DUP2 DUP2 SUB PUSH1 0x20 DUP4 ADD MSTORE PUSH2 0x2E01 DUP2 DUP6 PUSH2 0x2B77 JUMP JUMPDEST SWAP1 POP PUSH2 0x2E10 PUSH1 0x40 DUP4 ADD DUP5 PUSH2 0x2B59 JUMP JUMPDEST SWAP5 SWAP4 POP POP POP POP JUMP JUMPDEST PUSH1 0x0 PUSH1 0x20 DUP3 ADD SWAP1 POP DUP2 DUP2 SUB PUSH1 0x0 DUP4 ADD MSTORE PUSH2 0x2E31 DUP2 PUSH2 0x2BB0 JUMP JUMPDEST SWAP1 POP SWAP2 SWAP1 POP JUMP JUMPDEST PUSH1 0x0 PUSH1 0x20 DUP3 ADD SWAP1 POP DUP2 DUP2 SUB PUSH1 0x0 DUP4 ADD MSTORE PUSH2 0x2E51 DUP2 PUSH2 0x2BF0 JUMP JUMPDEST SWAP1 POP SWAP2 SWAP1 POP JUMP JUMPDEST PUSH1 0x0 PUSH1 0x20 DUP3 ADD SWAP1 POP DUP2 DUP2 SUB PUSH1 0x0 DUP4 ADD MSTORE PUSH2 0x2E71 DUP2 PUSH2 0x2C30 JUMP JUMPDEST SWAP1 POP SWAP2 SWAP1 POP JUMP JUMPDEST PUSH1 0x0 PUSH1 0x20 DUP3 ADD SWAP1 POP DUP2 DUP2 SUB PUSH1 0x0 DUP4 ADD MSTORE PUSH2 0x2E91 DUP2 PUSH2 0x2C70 JUMP JUMPDEST SWAP1 POP SWAP2 SWAP1 POP JUMP JUMPDEST PUSH1 0x0 PUSH1 0x20 DUP3 ADD SWAP1 POP DUP2 DUP2 SUB PUSH1 0x0 DUP4 ADD MSTORE PUSH2 0x2EB1 DUP2 PUSH2 0x2CB0 JUMP JUMPDEST SWAP1 POP SWAP2 SWAP1 POP JUMP JUMPDEST PUSH1 0x0 PUSH1 0x20 DUP3 ADD SWAP1 POP PUSH2 0x2ECD PUSH1 0x0 DUP4 ADD DUP5 PUSH2 0x2CFF JUMP JUMPDEST SWAP3 SWAP2 POP POP JUMP JUMPDEST PUSH1 0x0 PUSH1 0x60 DUP3 ADD SWAP1 POP PUSH2 0x2EE8 PUSH1 0x0 DUP4 ADD DUP7 PUSH2 0x2CFF JUMP JUMPDEST PUSH2 0x2EF5 PUSH1 0x20 DUP4 ADD DUP6 PUSH2 0x2CFF JUMP JUMPDEST PUSH2 0x2F02 PUSH1 0x40 DUP4 ADD DUP5 PUSH2 0x2CFF JUMP JUMPDEST SWAP5 SWAP4 POP POP POP POP JUMP JUMPDEST PUSH1 0x0 DUP2 SWAP1 POP PUSH1 0x20 DUP3 ADD SWAP1 POP SWAP2 SWAP1 POP JUMP JUMPDEST PUSH1 0x0 DUP2 MLOAD SWAP1 POP SWAP2 SWAP1 POP JUMP JUMPDEST PUSH1 0x0 DUP2 MLOAD SWAP1 POP SWAP2 SWAP1 POP JUMP JUMPDEST PUSH1 0x0 PUSH1 0x20 DUP3 ADD SWAP1 POP SWAP2 SWAP1 POP JUMP JUMPDEST PUSH1 0x0 DUP3 DUP3 MSTORE PUSH1 0x20 DUP3 ADD SWAP1 POP SWAP3 SWAP2 POP POP JUMP JUMPDEST PUSH1 0x0 DUP3 DUP3 MSTORE PUSH1 0x20 DUP3 ADD SWAP1 POP SWAP3 SWAP2 POP POP JUMP JUMPDEST PUSH1 0x0 PUSH2 0x2F6A DUP3 PUSH2 0x2F7D JUMP JUMPDEST SWAP1 POP SWAP2 SWAP1 POP JUMP JUMPDEST PUSH1 0x0 DUP2 ISZERO ISZERO SWAP1 POP SWAP2 SWAP1 POP JUMP JUMPDEST PUSH1 0x0 PUSH20 0xFFFFFFFFFFFFFFFFFFFFFFFFFFFFFFFFFFFFFFFF DUP3 AND SWAP1 POP SWAP2 SWAP1 POP JUMP JUMPDEST PUSH1 0x0 DUP2 SWAP1 POP SWAP2 SWAP1 POP JUMP JUMPDEST PUSH1 0x0 PUSH2 0x2FB2 DUP3 PUSH2 0x3001 JUMP JUMPDEST SWAP1 POP SWAP2 SWAP1 POP JUMP JUMPDEST PUSH1 0x0 PUSH2 0x2FC4 DUP3 PUSH2 0x2FCB JUMP JUMPDEST SWAP1 POP SWAP2 SWAP1 POP JUMP JUMPDEST PUSH1 0x0 PUSH2 0x2FD6 DUP3 PUSH2 0x2F7D JUMP JUMPDEST SWAP1 POP SWAP2 SWAP1 POP JUMP JUMPDEST PUSH1 0x0 PUSH2 0x2FE8 DUP3 PUSH2 0x2FEF JUMP JUMPDEST SWAP1 POP SWAP2 SWAP1 POP JUMP JUMPDEST PUSH1 0x0 PUSH2 0x2FFA DUP3 PUSH2 0x2F7D JUMP JUMPDEST SWAP1 POP SWAP2 SWAP1 POP JUMP JUMPDEST PUSH1 0x0 PUSH2 0x300C DUP3 PUSH2 0x3013 JUMP JUMPDEST SWAP1 POP SWAP2 SWAP1 POP JUMP JUMPDEST PUSH1 0x0 PUSH2 0x301E DUP3 PUSH2 0x2F7D JUMP JUMPDEST SWAP1 POP SWAP2 SWAP1 POP JUMP JUMPDEST PUSH1 0x0 JUMPDEST DUP4 DUP2 LT ISZERO PUSH2 0x3043 JUMPI DUP1 DUP3 ADD MLOAD DUP2 DUP5 ADD MSTORE PUSH1 0x20 DUP2 ADD SWAP1 POP PUSH2 0x3028 JUMP JUMPDEST DUP4 DUP2 GT ISZERO PUSH2 0x3052 JUMPI PUSH1 0x0 DUP5 DUP5 ADD MSTORE JUMPDEST POP POP POP POP JUMP JUMPDEST PUSH1 0x0 PUSH1 0x1F NOT PUSH1 0x1F DUP4 ADD AND SWAP1 POP SWAP2 SWAP1 POP JUMP JUMPDEST PUSH2 0x3072 DUP2 PUSH2 0x2F5F JUMP JUMPDEST DUP2 EQ PUSH2 0x307D JUMPI PUSH1 0x0 DUP1 REVERT JUMPDEST POP JUMP JUMPDEST PUSH2 0x3089 DUP2 PUSH2 0x2F71 JUMP JUMPDEST DUP2 EQ PUSH2 0x3094 JUMPI PUSH1 0x0 DUP1 REVERT JUMPDEST POP JUMP JUMPDEST PUSH2 0x30A0 DUP2 PUSH2 0x2F9D JUMP JUMPDEST DUP2 EQ PUSH2 0x30AB JUMPI PUSH1 0x0 DUP1 REVERT JUMPDEST POP JUMP INVALID LOG3 PUSH6 0x627A7A723158 KECCAK256 0x49 0xDD PUSH10 0x87CFBC26DE1C2D2AC744 EXTCODECOPY PUSH12 0xE3C89556B725EE3BE0F93D4B 0xD1 BLOCKHASH LOG1 RETURNDATACOPY CREATE PUSH13 0x6578706572696D656E74616CF5 PUSH5 0x736F6C6343 STOP SDIV GT STOP BLOCKHASH PUSH1 0x80 PUSH1 0x40 MSTORE CALLVALUE DUP1 ISZERO PUSH3 0x11 JUMPI PUSH1 0x0 DUP1 REVERT JUMPDEST POP PUSH1 0x40 MLOAD DUP1 PUSH1 0x40 ADD PUSH1 0x40 MSTORE DUP1 PUSH1 0x3 DUP2 MSTORE PUSH1 0x20 ADD PUSH32 0x55434D0000000000000000000000000000000000000000000000000000000000 DUP2 MSTORE POP PUSH1 0x40 MLOAD DUP1 PUSH1 0x40 ADD PUSH1 0x40 MSTORE DUP1 PUSH1 0x3 DUP2 MSTORE PUSH1 0x20 ADD PUSH32 0x55434D0000000000000000000000000000000000000000000000000000000000 DUP2 MSTORE POP PUSH1 0x0 DUP3 PUSH1 0x3 SWAP1 DUP1 MLOAD SWAP1 PUSH1 0x20 ADD SWAP1 PUSH3 0x98 SWAP3 SWAP2 SWAP1 PUSH3 0x364 JUMP JUMPDEST POP DUP2 PUSH1 0x4 SWAP1 DUP1 MLOAD SWAP1 PUSH1 0x20 ADD SWAP1 PUSH3 0xB1 SWAP3 SWAP2 SWAP1 PUSH3 0x364 JUMP JUMPDEST POP DUP1 PUSH1 0x5 PUSH1 0x0 PUSH2 0x100 EXP DUP2 SLOAD DUP2 PUSH1 0xFF MUL NOT AND SWAP1 DUP4 PUSH1 0xFF AND MUL OR SWAP1 SSTORE POP POP POP POP PUSH3 0xF0 PUSH3 0xE4 PUSH3 0x137 PUSH1 0x20 SHL PUSH1 0x20 SHR JUMP JUMPDEST PUSH3 0x13F PUSH1 0x20 SHL PUSH1 0x20 SHR JUMP JUMPDEST CALLER PUSH1 0x7 PUSH1 0x0 PUSH2 0x100 EXP DUP2 SLOAD DUP2 PUSH20 0xFFFFFFFFFFFFFFFFFFFFFFFFFFFFFFFFFFFFFFFF MUL NOT AND SWAP1 DUP4 PUSH20 0xFFFFFFFFFFFFFFFFFFFFFFFFFFFFFFFFFFFFFFFF AND MUL OR SWAP1 SSTORE POP PUSH3 0x413 JUMP JUMPDEST PUSH1 0x0 CALLER SWAP1 POP SWAP1 JUMP JUMPDEST PUSH3 0x15A DUP2 PUSH1 0x6 PUSH3 0x1A0 PUSH1 0x20 SHL PUSH3 0x18C1 OR SWAP1 SWAP2 SWAP1 PUSH1 0x20 SHR JUMP JUMPDEST DUP1 PUSH20 0xFFFFFFFFFFFFFFFFFFFFFFFFFFFFFFFFFFFFFFFF AND PUSH32 0x6AE172837EA30B801FBFCDD4108AA1D5BF8FF775444FD70256B44E6BF3DFC3F6 PUSH1 0x40 MLOAD PUSH1 0x40 MLOAD DUP1 SWAP2 SUB SWAP1 LOG2 POP JUMP JUMPDEST PUSH3 0x1B2 DUP3 DUP3 PUSH3 0x284 PUSH1 0x20 SHL PUSH1 0x20 SHR JUMP JUMPDEST ISZERO PUSH3 0x226 JUMPI PUSH1 0x40 MLOAD PUSH32 0x8C379A000000000000000000000000000000000000000000000000000000000 DUP2 MSTORE PUSH1 0x4 ADD DUP1 DUP1 PUSH1 0x20 ADD DUP3 DUP2 SUB DUP3 MSTORE PUSH1 0x1F DUP2 MSTORE PUSH1 0x20 ADD DUP1 PUSH32 0x526F6C65733A206163636F756E7420616C72656164792068617320726F6C6500 DUP2 MSTORE POP PUSH1 0x20 ADD SWAP2 POP POP PUSH1 0x40 MLOAD DUP1 SWAP2 SUB SWAP1 REVERT JUMPDEST PUSH1 0x1 DUP3 PUSH1 0x0 ADD PUSH1 0x0 DUP4 PUSH20 0xFFFFFFFFFFFFFFFFFFFFFFFFFFFFFFFFFFFFFFFF AND PUSH20 0xFFFFFFFFFFFFFFFFFFFFFFFFFFFFFFFFFFFFFFFF AND DUP2 MSTORE PUSH1 0x20 ADD SWAP1 DUP2 MSTORE PUSH1 0x20 ADD PUSH1 0x0 KECCAK256 PUSH1 0x0 PUSH2 0x100 EXP DUP2 SLOAD DUP2 PUSH1 0xFF MUL NOT AND SWAP1 DUP4 ISZERO ISZERO MUL OR SWAP1 SSTORE POP POP POP JUMP JUMPDEST PUSH1 0x0 DUP1 PUSH20 0xFFFFFFFFFFFFFFFFFFFFFFFFFFFFFFFFFFFFFFFF AND DUP3 PUSH20 0xFFFFFFFFFFFFFFFFFFFFFFFFFFFFFFFFFFFFFFFF AND EQ ISZERO PUSH3 0x30D JUMPI PUSH1 0x40 MLOAD PUSH32 0x8C379A000000000000000000000000000000000000000000000000000000000 DUP2 MSTORE PUSH1 0x4 ADD DUP1 DUP1 PUSH1 0x20 ADD DUP3 DUP2 SUB DUP3 MSTORE PUSH1 0x22 DUP2 MSTORE PUSH1 0x20 ADD DUP1 PUSH3 0x20B2 PUSH1 0x22 SWAP2 CODECOPY PUSH1 0x40 ADD SWAP2 POP POP PUSH1 0x40 MLOAD DUP1 SWAP2 SUB SWAP1 REVERT JUMPDEST DUP3 PUSH1 0x0 ADD PUSH1 0x0 DUP4 PUSH20 0xFFFFFFFFFFFFFFFFFFFFFFFFFFFFFFFFFFFFFFFF AND PUSH20 0xFFFFFFFFFFFFFFFFFFFFFFFFFFFFFFFFFFFFFFFF AND DUP2 MSTORE PUSH1 0x20 ADD SWAP1 DUP2 MSTORE PUSH1 0x20 ADD PUSH1 0x0 KECCAK256 PUSH1 0x0 SWAP1 SLOAD SWAP1 PUSH2 0x100 EXP SWAP1 DIV PUSH1 0xFF AND SWAP1 POP SWAP3 SWAP2 POP POP JUMP JUMPDEST DUP3 DUP1 SLOAD PUSH1 0x1 DUP2 PUSH1 0x1 AND ISZERO PUSH2 0x100 MUL SUB AND PUSH1 0x2 SWAP1 DIV SWAP1 PUSH1 0x0 MSTORE PUSH1 0x20 PUSH1 0x0 KECCAK256 SWAP1 PUSH1 0x1F ADD PUSH1 0x20 SWAP1 DIV DUP2 ADD SWAP3 DUP3 PUSH1 0x1F LT PUSH3 0x3A7 JUMPI DUP1 MLOAD PUSH1 0xFF NOT AND DUP4 DUP1 ADD OR DUP6 SSTORE PUSH3 0x3D8 JUMP JUMPDEST DUP3 DUP1 ADD PUSH1 0x1 ADD DUP6 SSTORE DUP3 ISZERO PUSH3 0x3D8 JUMPI SWAP2 DUP3 ADD JUMPDEST DUP3 DUP2 GT ISZERO PUSH3 0x3D7 JUMPI DUP3 MLOAD DUP3 SSTORE SWAP2 PUSH1 0x20 ADD SWAP2 SWAP1 PUSH1 0x1 ADD SWAP1 PUSH3 0x3BA JUMP JUMPDEST JUMPDEST POP SWAP1 POP PUSH3 0x3E7 SWAP2 SWAP1 PUSH3 0x3EB JUMP JUMPDEST POP SWAP1 JUMP JUMPDEST PUSH3 0x410 SWAP2 SWAP1 JUMPDEST DUP1 DUP3 GT ISZERO PUSH3 0x40C JUMPI PUSH1 0x0 DUP2 PUSH1 0x0 SWAP1 SSTORE POP PUSH1 0x1 ADD PUSH3 0x3F2 JUMP JUMPDEST POP SWAP1 JUMP JUMPDEST SWAP1 JUMP JUMPDEST PUSH2 0x1C8F DUP1 PUSH3 0x423 PUSH1 0x0 CODECOPY PUSH1 0x0 RETURN INVALID PUSH1 0x80 PUSH1 0x40 MSTORE CALLVALUE DUP1 ISZERO PUSH2 0x10 JUMPI PUSH1 0x0 DUP1 REVERT JUMPDEST POP PUSH1 0x4 CALLDATASIZE LT PUSH2 0x10B JUMPI PUSH1 0x0 CALLDATALOAD PUSH1 0xE0 SHR DUP1 PUSH4 0x95D89B41 GT PUSH2 0xA2 JUMPI DUP1 PUSH4 0xA457C2D7 GT PUSH2 0x71 JUMPI DUP1 PUSH4 0xA457C2D7 EQ PUSH2 0x4EC JUMPI DUP1 PUSH4 0xA9059CBB EQ PUSH2 0x552 JUMPI DUP1 PUSH4 0xAA271E1A EQ PUSH2 0x5B8 JUMPI DUP1 PUSH4 0xDD62ED3E EQ PUSH2 0x614 JUMPI DUP1 PUSH4 0xEBC3ADCD EQ PUSH2 0x68C JUMPI PUSH2 0x10B JUMP JUMPDEST DUP1 PUSH4 0x95D89B41 EQ PUSH2 0x3CD JUMPI DUP1 PUSH4 0x983B2D56 EQ PUSH2 0x450 JUMPI DUP1 PUSH4 0x98650275 EQ PUSH2 0x494 JUMPI DUP1 PUSH4 0x9DC29FAC EQ PUSH2 0x49E JUMPI PUSH2 0x10B JUMP JUMPDEST DUP1 PUSH4 0x313CE567 GT PUSH2 0xDE JUMPI DUP1 PUSH4 0x313CE567 EQ PUSH2 0x29D JUMPI DUP1 PUSH4 0x39509351 EQ PUSH2 0x2C1 JUMPI DUP1 PUSH4 0x40C10F19 EQ PUSH2 0x327 JUMPI DUP1 PUSH4 0x70A08231 EQ PUSH2 0x375 JUMPI PUSH2 0x10B JUMP JUMPDEST DUP1 PUSH4 0x6FDDE03 EQ PUSH2 0x110 JUMPI DUP1 PUSH4 0x95EA7B3 EQ PUSH2 0x193 JUMPI DUP1 PUSH4 0x18160DDD EQ PUSH2 0x1F9 JUMPI DUP1 PUSH4 0x23B872DD EQ PUSH2 0x217 JUMPI JUMPDEST PUSH1 0x0 DUP1 REVERT JUMPDEST PUSH2 0x118 PUSH2 0x6DA JUMP JUMPDEST PUSH1 0x40 MLOAD DUP1 DUP1 PUSH1 0x20 ADD DUP3 DUP2 SUB DUP3 MSTORE DUP4 DUP2 DUP2 MLOAD DUP2 MSTORE PUSH1 0x20 ADD SWAP2 POP DUP1 MLOAD SWAP1 PUSH1 0x20 ADD SWAP1 DUP1 DUP4 DUP4 PUSH1 0x0 JUMPDEST DUP4 DUP2 LT ISZERO PUSH2 0x158 JUMPI DUP1 DUP3 ADD MLOAD DUP2 DUP5 ADD MSTORE PUSH1 0x20 DUP2 ADD SWAP1 POP PUSH2 0x13D JUMP JUMPDEST POP POP POP POP SWAP1 POP SWAP1 DUP2 ADD SWAP1 PUSH1 0x1F AND DUP1 ISZERO PUSH2 0x185 JUMPI DUP1 DUP3 SUB DUP1 MLOAD PUSH1 0x1 DUP4 PUSH1 0x20 SUB PUSH2 0x100 EXP SUB NOT AND DUP2 MSTORE PUSH1 0x20 ADD SWAP2 POP JUMPDEST POP SWAP3 POP POP POP PUSH1 0x40 MLOAD DUP1 SWAP2 SUB SWAP1 RETURN JUMPDEST PUSH2 0x1DF PUSH1 0x4 DUP1 CALLDATASIZE SUB PUSH1 0x40 DUP2 LT ISZERO PUSH2 0x1A9 JUMPI PUSH1 0x0 DUP1 REVERT JUMPDEST DUP2 ADD SWAP1 DUP1 DUP1 CALLDATALOAD PUSH20 0xFFFFFFFFFFFFFFFFFFFFFFFFFFFFFFFFFFFFFFFF AND SWAP1 PUSH1 0x20 ADD SWAP1 SWAP3 SWAP2 SWAP1 DUP1 CALLDATALOAD SWAP1 PUSH1 0x20 ADD SWAP1 SWAP3 SWAP2 SWAP1 POP POP POP PUSH2 0x77C JUMP JUMPDEST PUSH1 0x40 MLOAD DUP1 DUP3 ISZERO ISZERO ISZERO ISZERO DUP2 MSTORE PUSH1 0x20 ADD SWAP2 POP POP PUSH1 0x40 MLOAD DUP1 SWAP2 SUB SWAP1 RETURN JUMPDEST PUSH2 0x201 PUSH2 0x79A JUMP JUMPDEST PUSH1 0x40 MLOAD DUP1 DUP3 DUP2 MSTORE PUSH1 0x20 ADD SWAP2 POP POP PUSH1 0x40 MLOAD DUP1 SWAP2 SUB SWAP1 RETURN JUMPDEST PUSH2 0x283 PUSH1 0x4 DUP1 CALLDATASIZE SUB PUSH1 0x60 DUP2 LT ISZERO PUSH2 0x22D JUMPI PUSH1 0x0 DUP1 REVERT JUMPDEST DUP2 ADD SWAP1 DUP1 DUP1 CALLDATALOAD PUSH20 0xFFFFFFFFFFFFFFFFFFFFFFFFFFFFFFFFFFFFFFFF AND SWAP1 PUSH1 0x20 ADD SWAP1 SWAP3 SWAP2 SWAP1 DUP1 CALLDATALOAD PUSH20 0xFFFFFFFFFFFFFFFFFFFFFFFFFFFFFFFFFFFFFFFF AND SWAP1 PUSH1 0x20 ADD SWAP1 SWAP3 SWAP2 SWAP1 DUP1 CALLDATALOAD SWAP1 PUSH1 0x20 ADD SWAP1 SWAP3 SWAP2 SWAP1 POP POP POP PUSH2 0x7A4 JUMP JUMPDEST PUSH1 0x40 MLOAD DUP1 DUP3 ISZERO ISZERO ISZERO ISZERO DUP2 MSTORE PUSH1 0x20 ADD SWAP2 POP POP PUSH1 0x40 MLOAD DUP1 SWAP2 SUB SWAP1 RETURN JUMPDEST PUSH2 0x2A5 PUSH2 0x87D JUMP JUMPDEST PUSH1 0x40 MLOAD DUP1 DUP3 PUSH1 0xFF AND PUSH1 0xFF AND DUP2 MSTORE PUSH1 0x20 ADD SWAP2 POP POP PUSH1 0x40 MLOAD DUP1 SWAP2 SUB SWAP1 RETURN JUMPDEST PUSH2 0x30D PUSH1 0x4 DUP1 CALLDATASIZE SUB PUSH1 0x40 DUP2 LT ISZERO PUSH2 0x2D7 JUMPI PUSH1 0x0 DUP1 REVERT JUMPDEST DUP2 ADD SWAP1 DUP1 DUP1 CALLDATALOAD PUSH20 0xFFFFFFFFFFFFFFFFFFFFFFFFFFFFFFFFFFFFFFFF AND SWAP1 PUSH1 0x20 ADD SWAP1 SWAP3 SWAP2 SWAP1 DUP1 CALLDATALOAD SWAP1 PUSH1 0x20 ADD SWAP1 SWAP3 SWAP2 SWAP1 POP POP POP PUSH2 0x894 JUMP JUMPDEST PUSH1 0x40 MLOAD DUP1 DUP3 ISZERO ISZERO ISZERO ISZERO DUP2 MSTORE PUSH1 0x20 ADD SWAP2 POP POP PUSH1 0x40 MLOAD DUP1 SWAP2 SUB SWAP1 RETURN JUMPDEST PUSH2 0x373 PUSH1 0x4 DUP1 CALLDATASIZE SUB PUSH1 0x40 DUP2 LT ISZERO PUSH2 0x33D JUMPI PUSH1 0x0 DUP1 REVERT JUMPDEST DUP2 ADD SWAP1 DUP1 DUP1 CALLDATALOAD PUSH20 0xFFFFFFFFFFFFFFFFFFFFFFFFFFFFFFFFFFFFFFFF AND SWAP1 PUSH1 0x20 ADD SWAP1 SWAP3 SWAP2 SWAP1 DUP1 CALLDATALOAD SWAP1 PUSH1 0x20 ADD SWAP1 SWAP3 SWAP2 SWAP1 POP POP POP PUSH2 0x947 JUMP JUMPDEST STOP JUMPDEST PUSH2 0x3B7 PUSH1 0x4 DUP1 CALLDATASIZE SUB PUSH1 0x20 DUP2 LT ISZERO PUSH2 0x38B JUMPI PUSH1 0x0 DUP1 REVERT JUMPDEST DUP2 ADD SWAP1 DUP1 DUP1 CALLDATALOAD PUSH20 0xFFFFFFFFFFFFFFFFFFFFFFFFFFFFFFFFFFFFFFFF AND SWAP1 PUSH1 0x20 ADD SWAP1 SWAP3 SWAP2 SWAP1 POP POP POP PUSH2 0x9BA JUMP JUMPDEST PUSH1 0x40 MLOAD DUP1 DUP3 DUP2 MSTORE PUSH1 0x20 ADD SWAP2 POP POP PUSH1 0x40 MLOAD DUP1 SWAP2 SUB SWAP1 RETURN JUMPDEST PUSH2 0x3D5 PUSH2 0xA02 JUMP JUMPDEST PUSH1 0x40 MLOAD DUP1 DUP1 PUSH1 0x20 ADD DUP3 DUP2 SUB DUP3 MSTORE DUP4 DUP2 DUP2 MLOAD DUP2 MSTORE PUSH1 0x20 ADD SWAP2 POP DUP1 MLOAD SWAP1 PUSH1 0x20 ADD SWAP1 DUP1 DUP4 DUP4 PUSH1 0x0 JUMPDEST DUP4 DUP2 LT ISZERO PUSH2 0x415 JUMPI DUP1 DUP3 ADD MLOAD DUP2 DUP5 ADD MSTORE PUSH1 0x20 DUP2 ADD SWAP1 POP PUSH2 0x3FA JUMP JUMPDEST POP POP POP POP SWAP1 POP SWAP1 DUP2 ADD SWAP1 PUSH1 0x1F AND DUP1 ISZERO PUSH2 0x442 JUMPI DUP1 DUP3 SUB DUP1 MLOAD PUSH1 0x1 DUP4 PUSH1 0x20 SUB PUSH2 0x100 EXP SUB NOT AND DUP2 MSTORE PUSH1 0x20 ADD SWAP2 POP JUMPDEST POP SWAP3 POP POP POP PUSH1 0x40 MLOAD DUP1 SWAP2 SUB SWAP1 RETURN JUMPDEST PUSH2 0x492 PUSH1 0x4 DUP1 CALLDATASIZE SUB PUSH1 0x20 DUP2 LT ISZERO PUSH2 0x466 JUMPI PUSH1 0x0 DUP1 REVERT JUMPDEST DUP2 ADD SWAP1 DUP1 DUP1 CALLDATALOAD PUSH20 0xFFFFFFFFFFFFFFFFFFFFFFFFFFFFFFFFFFFFFFFF AND SWAP1 PUSH1 0x20 ADD SWAP1 SWAP3 SWAP2 SWAP1 POP POP POP PUSH2 0xAA4 JUMP JUMPDEST STOP JUMPDEST PUSH2 0x49C PUSH2 0xB15 JUMP JUMPDEST STOP JUMPDEST PUSH2 0x4EA PUSH1 0x4 DUP1 CALLDATASIZE SUB PUSH1 0x40 DUP2 LT ISZERO PUSH2 0x4B4 JUMPI PUSH1 0x0 DUP1 REVERT JUMPDEST DUP2 ADD SWAP1 DUP1 DUP1 CALLDATALOAD PUSH20 0xFFFFFFFFFFFFFFFFFFFFFFFFFFFFFFFFFFFFFFFF AND SWAP1 PUSH1 0x20 ADD SWAP1 SWAP3 SWAP2 SWAP1 DUP1 CALLDATALOAD SWAP1 PUSH1 0x20 ADD SWAP1 SWAP3 SWAP2 SWAP1 POP POP POP PUSH2 0xB27 JUMP JUMPDEST STOP JUMPDEST PUSH2 0x538 PUSH1 0x4 DUP1 CALLDATASIZE SUB PUSH1 0x40 DUP2 LT ISZERO PUSH2 0x502 JUMPI PUSH1 0x0 DUP1 REVERT JUMPDEST DUP2 ADD SWAP1 DUP1 DUP1 CALLDATALOAD PUSH20 0xFFFFFFFFFFFFFFFFFFFFFFFFFFFFFFFFFFFFFFFF AND SWAP1 PUSH1 0x20 ADD SWAP1 SWAP3 SWAP2 SWAP1 DUP1 CALLDATALOAD SWAP1 PUSH1 0x20 ADD SWAP1 SWAP3 SWAP2 SWAP1 POP POP POP PUSH2 0xB9A JUMP JUMPDEST PUSH1 0x40 MLOAD DUP1 DUP3 ISZERO ISZERO ISZERO ISZERO DUP2 MSTORE PUSH1 0x20 ADD SWAP2 POP POP PUSH1 0x40 MLOAD DUP1 SWAP2 SUB SWAP1 RETURN JUMPDEST PUSH2 0x59E PUSH1 0x4 DUP1 CALLDATASIZE SUB PUSH1 0x40 DUP2 LT ISZERO PUSH2 0x568 JUMPI PUSH1 0x0 DUP1 REVERT JUMPDEST DUP2 ADD SWAP1 DUP1 DUP1 CALLDATALOAD PUSH20 0xFFFFFFFFFFFFFFFFFFFFFFFFFFFFFFFFFFFFFFFF AND SWAP1 PUSH1 0x20 ADD SWAP1 SWAP3 SWAP2 SWAP1 DUP1 CALLDATALOAD SWAP1 PUSH1 0x20 ADD SWAP1 SWAP3 SWAP2 SWAP1 POP POP POP PUSH2 0xC67 JUMP JUMPDEST PUSH1 0x40 MLOAD DUP1 DUP3 ISZERO ISZERO ISZERO ISZERO DUP2 MSTORE PUSH1 0x20 ADD SWAP2 POP POP PUSH1 0x40 MLOAD DUP1 SWAP2 SUB SWAP1 RETURN JUMPDEST PUSH2 0x5FA PUSH1 0x4 DUP1 CALLDATASIZE SUB PUSH1 0x20 DUP2 LT ISZERO PUSH2 0x5CE JUMPI PUSH1 0x0 DUP1 REVERT JUMPDEST DUP2 ADD SWAP1 DUP1 DUP1 CALLDATALOAD PUSH20 0xFFFFFFFFFFFFFFFFFFFFFFFFFFFFFFFFFFFFFFFF AND SWAP1 PUSH1 0x20 ADD SWAP1 SWAP3 SWAP2 SWAP1 POP POP POP PUSH2 0xC85 JUMP JUMPDEST PUSH1 0x40 MLOAD DUP1 DUP3 ISZERO ISZERO ISZERO ISZERO DUP2 MSTORE PUSH1 0x20 ADD SWAP2 POP POP PUSH1 0x40 MLOAD DUP1 SWAP2 SUB SWAP1 RETURN JUMPDEST PUSH2 0x676 PUSH1 0x4 DUP1 CALLDATASIZE SUB PUSH1 0x40 DUP2 LT ISZERO PUSH2 0x62A JUMPI PUSH1 0x0 DUP1 REVERT JUMPDEST DUP2 ADD SWAP1 DUP1 DUP1 CALLDATALOAD PUSH20 0xFFFFFFFFFFFFFFFFFFFFFFFFFFFFFFFFFFFFFFFF AND SWAP1 PUSH1 0x20 ADD SWAP1 SWAP3 SWAP2 SWAP1 DUP1 CALLDATALOAD PUSH20 0xFFFFFFFFFFFFFFFFFFFFFFFFFFFFFFFFFFFFFFFF AND SWAP1 PUSH1 0x20 ADD SWAP1 SWAP3 SWAP2 SWAP1 POP POP POP PUSH2 0xCA2 JUMP JUMPDEST PUSH1 0x40 MLOAD DUP1 DUP3 DUP2 MSTORE PUSH1 0x20 ADD SWAP2 POP POP PUSH1 0x40 MLOAD DUP1 SWAP2 SUB SWAP1 RETURN JUMPDEST PUSH2 0x6D8 PUSH1 0x4 DUP1 CALLDATASIZE SUB PUSH1 0x40 DUP2 LT ISZERO PUSH2 0x6A2 JUMPI PUSH1 0x0 DUP1 REVERT JUMPDEST DUP2 ADD SWAP1 DUP1 DUP1 CALLDATALOAD PUSH20 0xFFFFFFFFFFFFFFFFFFFFFFFFFFFFFFFFFFFFFFFF AND SWAP1 PUSH1 0x20 ADD SWAP1 SWAP3 SWAP2 SWAP1 DUP1 CALLDATALOAD SWAP1 PUSH1 0x20 ADD SWAP1 SWAP3 SWAP2 SWAP1 POP POP POP PUSH2 0xD29 JUMP JUMPDEST STOP JUMPDEST PUSH1 0x60 PUSH1 0x3 DUP1 SLOAD PUSH1 0x1 DUP2 PUSH1 0x1 AND ISZERO PUSH2 0x100 MUL SUB AND PUSH1 0x2 SWAP1 DIV DUP1 PUSH1 0x1F ADD PUSH1 0x20 DUP1 SWAP2 DIV MUL PUSH1 0x20 ADD PUSH1 0x40 MLOAD SWAP1 DUP2 ADD PUSH1 0x40 MSTORE DUP1 SWAP3 SWAP2 SWAP1 DUP2 DUP2 MSTORE PUSH1 0x20 ADD DUP3 DUP1 SLOAD PUSH1 0x1 DUP2 PUSH1 0x1 AND ISZERO PUSH2 0x100 MUL SUB AND PUSH1 0x2 SWAP1 DIV DUP1 ISZERO PUSH2 0x772 JUMPI DUP1 PUSH1 0x1F LT PUSH2 0x747 JUMPI PUSH2 0x100 DUP1 DUP4 SLOAD DIV MUL DUP4 MSTORE SWAP2 PUSH1 0x20 ADD SWAP2 PUSH2 0x772 JUMP JUMPDEST DUP3 ADD SWAP2 SWAP1 PUSH1 0x0 MSTORE PUSH1 0x20 PUSH1 0x0 KECCAK256 SWAP1 JUMPDEST DUP2 SLOAD DUP2 MSTORE SWAP1 PUSH1 0x1 ADD SWAP1 PUSH1 0x20 ADD DUP1 DUP4 GT PUSH2 0x755 JUMPI DUP3 SWAP1 SUB PUSH1 0x1F AND DUP3 ADD SWAP2 JUMPDEST POP POP POP POP POP SWAP1 POP SWAP1 JUMP JUMPDEST PUSH1 0x0 PUSH2 0x790 PUSH2 0x789 PUSH2 0xDBF JUMP JUMPDEST DUP5 DUP5 PUSH2 0xDC7 JUMP JUMPDEST PUSH1 0x1 SWAP1 POP SWAP3 SWAP2 POP POP JUMP JUMPDEST PUSH1 0x0 PUSH1 0x2 SLOAD SWAP1 POP SWAP1 JUMP JUMPDEST PUSH1 0x0 PUSH2 0x7B1 DUP5 DUP5 DUP5 PUSH2 0xFBE JUMP JUMPDEST PUSH2 0x872 DUP5 PUSH2 0x7BD PUSH2 0xDBF JUMP JUMPDEST PUSH2 0x86D DUP6 PUSH1 0x40 MLOAD DUP1 PUSH1 0x60 ADD PUSH1 0x40 MSTORE DUP1 PUSH1 0x28 DUP2 MSTORE PUSH1 0x20 ADD PUSH2 0x1B82 PUSH1 0x28 SWAP2 CODECOPY PUSH1 0x1 PUSH1 0x0 DUP12 PUSH20 0xFFFFFFFFFFFFFFFFFFFFFFFFFFFFFFFFFFFFFFFF AND PUSH20 0xFFFFFFFFFFFFFFFFFFFFFFFFFFFFFFFFFFFFFFFF AND DUP2 MSTORE PUSH1 0x20 ADD SWAP1 DUP2 MSTORE PUSH1 0x20 ADD PUSH1 0x0 KECCAK256 PUSH1 0x0 PUSH2 0x823 PUSH2 0xDBF JUMP JUMPDEST PUSH20 0xFFFFFFFFFFFFFFFFFFFFFFFFFFFFFFFFFFFFFFFF AND PUSH20 0xFFFFFFFFFFFFFFFFFFFFFFFFFFFFFFFFFFFFFFFF AND DUP2 MSTORE PUSH1 0x20 ADD SWAP1 DUP2 MSTORE PUSH1 0x20 ADD PUSH1 0x0 KECCAK256 SLOAD PUSH2 0x1274 SWAP1 SWAP3 SWAP2 SWAP1 PUSH4 0xFFFFFFFF AND JUMP JUMPDEST PUSH2 0xDC7 JUMP JUMPDEST PUSH1 0x1 SWAP1 POP SWAP4 SWAP3 POP POP POP JUMP JUMPDEST PUSH1 0x0 PUSH1 0x5 PUSH1 0x0 SWAP1 SLOAD SWAP1 PUSH2 0x100 EXP SWAP1 DIV PUSH1 0xFF AND SWAP1 POP SWAP1 JUMP JUMPDEST PUSH1 0x0 PUSH2 0x93D PUSH2 0x8A1 PUSH2 0xDBF JUMP JUMPDEST DUP5 PUSH2 0x938 DUP6 PUSH1 0x1 PUSH1 0x0 PUSH2 0x8B2 PUSH2 0xDBF JUMP JUMPDEST PUSH20 0xFFFFFFFFFFFFFFFFFFFFFFFFFFFFFFFFFFFFFFFF AND PUSH20 0xFFFFFFFFFFFFFFFFFFFFFFFFFFFFFFFFFFFFFFFF AND DUP2 MSTORE PUSH1 0x20 ADD SWAP1 DUP2 MSTORE PUSH1 0x20 ADD PUSH1 0x0 KECCAK256 PUSH1 0x0 DUP10 PUSH20 0xFFFFFFFFFFFFFFFFFFFFFFFFFFFFFFFFFFFFFFFF AND PUSH20 0xFFFFFFFFFFFFFFFFFFFFFFFFFFFFFFFFFFFFFFFF AND DUP2 MSTORE PUSH1 0x20 ADD SWAP1 DUP2 MSTORE PUSH1 0x20 ADD PUSH1 0x0 KECCAK256 SLOAD PUSH2 0x1334 SWAP1 SWAP2 SWAP1 PUSH4 0xFFFFFFFF AND JUMP JUMPDEST PUSH2 0xDC7 JUMP JUMPDEST PUSH1 0x1 SWAP1 POP SWAP3 SWAP2 POP POP JUMP JUMPDEST PUSH2 0x957 PUSH2 0x952 PUSH2 0xDBF JUMP JUMPDEST PUSH2 0xC85 JUMP JUMPDEST PUSH2 0x9AC JUMPI PUSH1 0x40 MLOAD PUSH32 0x8C379A000000000000000000000000000000000000000000000000000000000 DUP2 MSTORE PUSH1 0x4 ADD DUP1 DUP1 PUSH1 0x20 ADD DUP3 DUP2 SUB DUP3 MSTORE PUSH1 0x30 DUP2 MSTORE PUSH1 0x20 ADD DUP1 PUSH2 0x1B31 PUSH1 0x30 SWAP2 CODECOPY PUSH1 0x40 ADD SWAP2 POP POP PUSH1 0x40 MLOAD DUP1 SWAP2 SUB SWAP1 REVERT JUMPDEST PUSH2 0x9B6 DUP3 DUP3 PUSH2 0x13BC JUMP JUMPDEST POP POP JUMP JUMPDEST PUSH1 0x0 DUP1 PUSH1 0x0 DUP4 PUSH20 0xFFFFFFFFFFFFFFFFFFFFFFFFFFFFFFFFFFFFFFFF AND PUSH20 0xFFFFFFFFFFFFFFFFFFFFFFFFFFFFFFFFFFFFFFFF AND DUP2 MSTORE PUSH1 0x20 ADD SWAP1 DUP2 MSTORE PUSH1 0x20 ADD PUSH1 0x0 KECCAK256 SLOAD SWAP1 POP SWAP2 SWAP1 POP JUMP JUMPDEST PUSH1 0x60 PUSH1 0x4 DUP1 SLOAD PUSH1 0x1 DUP2 PUSH1 0x1 AND ISZERO PUSH2 0x100 MUL SUB AND PUSH1 0x2 SWAP1 DIV DUP1 PUSH1 0x1F ADD PUSH1 0x20 DUP1 SWAP2 DIV MUL PUSH1 0x20 ADD PUSH1 0x40 MLOAD SWAP1 DUP2 ADD PUSH1 0x40 MSTORE DUP1 SWAP3 SWAP2 SWAP1 DUP2 DUP2 MSTORE PUSH1 0x20 ADD DUP3 DUP1 SLOAD PUSH1 0x1 DUP2 PUSH1 0x1 AND ISZERO PUSH2 0x100 MUL SUB AND PUSH1 0x2 SWAP1 DIV DUP1 ISZERO PUSH2 0xA9A JUMPI DUP1 PUSH1 0x1F LT PUSH2 0xA6F JUMPI PUSH2 0x100 DUP1 DUP4 SLOAD DIV MUL DUP4 MSTORE SWAP2 PUSH1 0x20 ADD SWAP2 PUSH2 0xA9A JUMP JUMPDEST DUP3 ADD SWAP2 SWAP1 PUSH1 0x0 MSTORE PUSH1 0x20 PUSH1 0x0 KECCAK256 SWAP1 JUMPDEST DUP2 SLOAD DUP2 MSTORE SWAP1 PUSH1 0x1 ADD SWAP1 PUSH1 0x20 ADD DUP1 DUP4 GT PUSH2 0xA7D JUMPI DUP3 SWAP1 SUB PUSH1 0x1F AND DUP3 ADD SWAP2 JUMPDEST POP POP POP POP POP SWAP1 POP SWAP1 JUMP JUMPDEST PUSH2 0xAB4 PUSH2 0xAAF PUSH2 0xDBF JUMP JUMPDEST PUSH2 0xC85 JUMP JUMPDEST PUSH2 0xB09 JUMPI PUSH1 0x40 MLOAD PUSH32 0x8C379A000000000000000000000000000000000000000000000000000000000 DUP2 MSTORE PUSH1 0x4 ADD DUP1 DUP1 PUSH1 0x20 ADD DUP3 DUP2 SUB DUP3 MSTORE PUSH1 0x30 DUP2 MSTORE PUSH1 0x20 ADD DUP1 PUSH2 0x1B31 PUSH1 0x30 SWAP2 CODECOPY PUSH1 0x40 ADD SWAP2 POP POP PUSH1 0x40 MLOAD DUP1 SWAP2 SUB SWAP1 REVERT JUMPDEST PUSH2 0xB12 DUP2 PUSH2 0x1577 JUMP JUMPDEST POP JUMP JUMPDEST PUSH2 0xB25 PUSH2 0xB20 PUSH2 0xDBF JUMP JUMPDEST PUSH2 0x15D1 JUMP JUMPDEST JUMP JUMPDEST PUSH2 0xB37 PUSH2 0xB32 PUSH2 0xDBF JUMP JUMPDEST PUSH2 0xC85 JUMP JUMPDEST PUSH2 0xB8C JUMPI PUSH1 0x40 MLOAD PUSH32 0x8C379A000000000000000000000000000000000000000000000000000000000 DUP2 MSTORE PUSH1 0x4 ADD DUP1 DUP1 PUSH1 0x20 ADD DUP3 DUP2 SUB DUP3 MSTORE PUSH1 0x30 DUP2 MSTORE PUSH1 0x20 ADD DUP1 PUSH2 0x1B31 PUSH1 0x30 SWAP2 CODECOPY PUSH1 0x40 ADD SWAP2 POP POP PUSH1 0x40 MLOAD DUP1 SWAP2 SUB SWAP1 REVERT JUMPDEST PUSH2 0xB96 DUP3 DUP3 PUSH2 0x162B JUMP JUMPDEST POP POP JUMP JUMPDEST PUSH1 0x0 PUSH2 0xC5D PUSH2 0xBA7 PUSH2 0xDBF JUMP JUMPDEST DUP5 PUSH2 0xC58 DUP6 PUSH1 0x40 MLOAD DUP1 PUSH1 0x60 ADD PUSH1 0x40 MSTORE DUP1 PUSH1 0x25 DUP2 MSTORE PUSH1 0x20 ADD PUSH2 0x1C36 PUSH1 0x25 SWAP2 CODECOPY PUSH1 0x1 PUSH1 0x0 PUSH2 0xBD1 PUSH2 0xDBF JUMP JUMPDEST PUSH20 0xFFFFFFFFFFFFFFFFFFFFFFFFFFFFFFFFFFFFFFFF AND PUSH20 0xFFFFFFFFFFFFFFFFFFFFFFFFFFFFFFFFFFFFFFFF AND DUP2 MSTORE PUSH1 0x20 ADD SWAP1 DUP2 MSTORE PUSH1 0x20 ADD PUSH1 0x0 KECCAK256 PUSH1 0x0 DUP11 PUSH20 0xFFFFFFFFFFFFFFFFFFFFFFFFFFFFFFFFFFFFFFFF AND PUSH20 0xFFFFFFFFFFFFFFFFFFFFFFFFFFFFFFFFFFFFFFFF AND DUP2 MSTORE PUSH1 0x20 ADD SWAP1 DUP2 MSTORE PUSH1 0x20 ADD PUSH1 0x0 KECCAK256 SLOAD PUSH2 0x1274 SWAP1 SWAP3 SWAP2 SWAP1 PUSH4 0xFFFFFFFF AND JUMP JUMPDEST PUSH2 0xDC7 JUMP JUMPDEST PUSH1 0x1 SWAP1 POP SWAP3 SWAP2 POP POP JUMP JUMPDEST PUSH1 0x0 PUSH2 0xC7B PUSH2 0xC74 PUSH2 0xDBF JUMP JUMPDEST DUP5 DUP5 PUSH2 0xFBE JUMP JUMPDEST PUSH1 0x1 SWAP1 POP SWAP3 SWAP2 POP POP JUMP JUMPDEST PUSH1 0x0 PUSH2 0xC9B DUP3 PUSH1 0x6 PUSH2 0x17E3 SWAP1 SWAP2 SWAP1 PUSH4 0xFFFFFFFF AND JUMP JUMPDEST SWAP1 POP SWAP2 SWAP1 POP JUMP JUMPDEST PUSH1 0x0 PUSH1 0x1 PUSH1 0x0 DUP5 PUSH20 0xFFFFFFFFFFFFFFFFFFFFFFFFFFFFFFFFFFFFFFFF AND PUSH20 0xFFFFFFFFFFFFFFFFFFFFFFFFFFFFFFFFFFFFFFFF AND DUP2 MSTORE PUSH1 0x20 ADD SWAP1 DUP2 MSTORE PUSH1 0x20 ADD PUSH1 0x0 KECCAK256 PUSH1 0x0 DUP4 PUSH20 0xFFFFFFFFFFFFFFFFFFFFFFFFFFFFFFFFFFFFFFFF AND PUSH20 0xFFFFFFFFFFFFFFFFFFFFFFFFFFFFFFFFFFFFFFFF AND DUP2 MSTORE PUSH1 0x20 ADD SWAP1 DUP2 MSTORE PUSH1 0x20 ADD PUSH1 0x0 KECCAK256 SLOAD SWAP1 POP SWAP3 SWAP2 POP POP JUMP JUMPDEST PUSH2 0xD39 PUSH2 0xD34 PUSH2 0xDBF JUMP JUMPDEST PUSH2 0xC85 JUMP JUMPDEST PUSH2 0xD8E JUMPI PUSH1 0x40 MLOAD PUSH32 0x8C379A000000000000000000000000000000000000000000000000000000000 DUP2 MSTORE PUSH1 0x4 ADD DUP1 DUP1 PUSH1 0x20 ADD DUP3 DUP2 SUB DUP3 MSTORE PUSH1 0x30 DUP2 MSTORE PUSH1 0x20 ADD DUP1 PUSH2 0x1B31 PUSH1 0x30 SWAP2 CODECOPY PUSH1 0x40 ADD SWAP2 POP POP PUSH1 0x40 MLOAD DUP1 SWAP2 SUB SWAP1 REVERT JUMPDEST PUSH2 0xDBB DUP3 PUSH1 0x7 PUSH1 0x0 SWAP1 SLOAD SWAP1 PUSH2 0x100 EXP SWAP1 DIV PUSH20 0xFFFFFFFFFFFFFFFFFFFFFFFFFFFFFFFFFFFFFFFF AND DUP4 PUSH2 0xFBE JUMP JUMPDEST POP POP JUMP JUMPDEST PUSH1 0x0 CALLER SWAP1 POP SWAP1 JUMP JUMPDEST PUSH1 0x0 PUSH20 0xFFFFFFFFFFFFFFFFFFFFFFFFFFFFFFFFFFFFFFFF AND DUP4 PUSH20 0xFFFFFFFFFFFFFFFFFFFFFFFFFFFFFFFFFFFFFFFF AND EQ ISZERO PUSH2 0xE4D JUMPI PUSH1 0x40 MLOAD PUSH32 0x8C379A000000000000000000000000000000000000000000000000000000000 DUP2 MSTORE PUSH1 0x4 ADD DUP1 DUP1 PUSH1 0x20 ADD DUP3 DUP2 SUB DUP3 MSTORE PUSH1 0x24 DUP2 MSTORE PUSH1 0x20 ADD DUP1 PUSH2 0x1C12 PUSH1 0x24 SWAP2 CODECOPY PUSH1 0x40 ADD SWAP2 POP POP PUSH1 0x40 MLOAD DUP1 SWAP2 SUB SWAP1 REVERT JUMPDEST PUSH1 0x0 PUSH20 0xFFFFFFFFFFFFFFFFFFFFFFFFFFFFFFFFFFFFFFFF AND DUP3 PUSH20 0xFFFFFFFFFFFFFFFFFFFFFFFFFFFFFFFFFFFFFFFF AND EQ ISZERO PUSH2 0xED3 JUMPI PUSH1 0x40 MLOAD PUSH32 0x8C379A000000000000000000000000000000000000000000000000000000000 DUP2 MSTORE PUSH1 0x4 ADD DUP1 DUP1 PUSH1 0x20 ADD DUP3 DUP2 SUB DUP3 MSTORE PUSH1 0x22 DUP2 MSTORE PUSH1 0x20 ADD DUP1 PUSH2 0x1AE9 PUSH1 0x22 SWAP2 CODECOPY PUSH1 0x40 ADD SWAP2 POP POP PUSH1 0x40 MLOAD DUP1 SWAP2 SUB SWAP1 REVERT JUMPDEST DUP1 PUSH1 0x1 PUSH1 0x0 DUP6 PUSH20 0xFFFFFFFFFFFFFFFFFFFFFFFFFFFFFFFFFFFFFFFF AND PUSH20 0xFFFFFFFFFFFFFFFFFFFFFFFFFFFFFFFFFFFFFFFF AND DUP2 MSTORE PUSH1 0x20 ADD SWAP1 DUP2 MSTORE PUSH1 0x20 ADD PUSH1 0x0 KECCAK256 PUSH1 0x0 DUP5 PUSH20 0xFFFFFFFFFFFFFFFFFFFFFFFFFFFFFFFFFFFFFFFF AND PUSH20 0xFFFFFFFFFFFFFFFFFFFFFFFFFFFFFFFFFFFFFFFF AND DUP2 MSTORE PUSH1 0x20 ADD SWAP1 DUP2 MSTORE PUSH1 0x20 ADD PUSH1 0x0 KECCAK256 DUP2 SWAP1 SSTORE POP DUP2 PUSH20 0xFFFFFFFFFFFFFFFFFFFFFFFFFFFFFFFFFFFFFFFF AND DUP4 PUSH20 0xFFFFFFFFFFFFFFFFFFFFFFFFFFFFFFFFFFFFFFFF AND PUSH32 0x8C5BE1E5EBEC7D5BD14F71427D1E84F3DD0314C0F7B2291E5B200AC8C7C3B925 DUP4 PUSH1 0x40 MLOAD DUP1 DUP3 DUP2 MSTORE PUSH1 0x20 ADD SWAP2 POP POP PUSH1 0x40 MLOAD DUP1 SWAP2 SUB SWAP1 LOG3 POP POP POP JUMP JUMPDEST PUSH1 0x0 PUSH20 0xFFFFFFFFFFFFFFFFFFFFFFFFFFFFFFFFFFFFFFFF AND DUP4 PUSH20 0xFFFFFFFFFFFFFFFFFFFFFFFFFFFFFFFFFFFFFFFF AND EQ ISZERO PUSH2 0x1044 JUMPI PUSH1 0x40 MLOAD PUSH32 0x8C379A000000000000000000000000000000000000000000000000000000000 DUP2 MSTORE PUSH1 0x4 ADD DUP1 DUP1 PUSH1 0x20 ADD DUP3 DUP2 SUB DUP3 MSTORE PUSH1 0x25 DUP2 MSTORE PUSH1 0x20 ADD DUP1 PUSH2 0x1BED PUSH1 0x25 SWAP2 CODECOPY PUSH1 0x40 ADD SWAP2 POP POP PUSH1 0x40 MLOAD DUP1 SWAP2 SUB SWAP1 REVERT JUMPDEST PUSH1 0x0 PUSH20 0xFFFFFFFFFFFFFFFFFFFFFFFFFFFFFFFFFFFFFFFF AND DUP3 PUSH20 0xFFFFFFFFFFFFFFFFFFFFFFFFFFFFFFFFFFFFFFFF AND EQ ISZERO PUSH2 0x10CA JUMPI PUSH1 0x40 MLOAD PUSH32 0x8C379A000000000000000000000000000000000000000000000000000000000 DUP2 MSTORE PUSH1 0x4 ADD DUP1 DUP1 PUSH1 0x20 ADD DUP3 DUP2 SUB DUP3 MSTORE PUSH1 0x23 DUP2 MSTORE PUSH1 0x20 ADD DUP1 PUSH2 0x1AA4 PUSH1 0x23 SWAP2 CODECOPY PUSH1 0x40 ADD SWAP2 POP POP PUSH1 0x40 MLOAD DUP1 SWAP2 SUB SWAP1 REVERT JUMPDEST PUSH2 0x1135 DUP2 PUSH1 0x40 MLOAD DUP1 PUSH1 0x60 ADD PUSH1 0x40 MSTORE DUP1 PUSH1 0x26 DUP2 MSTORE PUSH1 0x20 ADD PUSH2 0x1B0B PUSH1 0x26 SWAP2 CODECOPY PUSH1 0x0 DUP1 DUP8 PUSH20 0xFFFFFFFFFFFFFFFFFFFFFFFFFFFFFFFFFFFFFFFF AND PUSH20 0xFFFFFFFFFFFFFFFFFFFFFFFFFFFFFFFFFFFFFFFF AND DUP2 MSTORE PUSH1 0x20 ADD SWAP1 DUP2 MSTORE PUSH1 0x20 ADD PUSH1 0x0 KECCAK256 SLOAD PUSH2 0x1274 SWAP1 SWAP3 SWAP2 SWAP1 PUSH4 0xFFFFFFFF AND JUMP JUMPDEST PUSH1 0x0 DUP1 DUP6 PUSH20 0xFFFFFFFFFFFFFFFFFFFFFFFFFFFFFFFFFFFFFFFF AND PUSH20 0xFFFFFFFFFFFFFFFFFFFFFFFFFFFFFFFFFFFFFFFF AND DUP2 MSTORE PUSH1 0x20 ADD SWAP1 DUP2 MSTORE PUSH1 0x20 ADD PUSH1 0x0 KECCAK256 DUP2 SWAP1 SSTORE POP PUSH2 0x11C8 DUP2 PUSH1 0x0 DUP1 DUP6 PUSH20 0xFFFFFFFFFFFFFFFFFFFFFFFFFFFFFFFFFFFFFFFF AND PUSH20 0xFFFFFFFFFFFFFFFFFFFFFFFFFFFFFFFFFFFFFFFF AND DUP2 MSTORE PUSH1 0x20 ADD SWAP1 DUP2 MSTORE PUSH1 0x20 ADD PUSH1 0x0 KECCAK256 SLOAD PUSH2 0x1334 SWAP1 SWAP2 SWAP1 PUSH4 0xFFFFFFFF AND JUMP JUMPDEST PUSH1 0x0 DUP1 DUP5 PUSH20 0xFFFFFFFFFFFFFFFFFFFFFFFFFFFFFFFFFFFFFFFF AND PUSH20 0xFFFFFFFFFFFFFFFFFFFFFFFFFFFFFFFFFFFFFFFF AND DUP2 MSTORE PUSH1 0x20 ADD SWAP1 DUP2 MSTORE PUSH1 0x20 ADD PUSH1 0x0 KECCAK256 DUP2 SWAP1 SSTORE POP DUP2 PUSH20 0xFFFFFFFFFFFFFFFFFFFFFFFFFFFFFFFFFFFFFFFF AND DUP4 PUSH20 0xFFFFFFFFFFFFFFFFFFFFFFFFFFFFFFFFFFFFFFFF AND PUSH32 0xDDF252AD1BE2C89B69C2B068FC378DAA952BA7F163C4A11628F55A4DF523B3EF DUP4 PUSH1 0x40 MLOAD DUP1 DUP3 DUP2 MSTORE PUSH1 0x20 ADD SWAP2 POP POP PUSH1 0x40 MLOAD DUP1 SWAP2 SUB SWAP1 LOG3 POP POP POP JUMP JUMPDEST PUSH1 0x0 DUP4 DUP4 GT ISZERO DUP3 SWAP1 PUSH2 0x1321 JUMPI PUSH1 0x40 MLOAD PUSH32 0x8C379A000000000000000000000000000000000000000000000000000000000 DUP2 MSTORE PUSH1 0x4 ADD DUP1 DUP1 PUSH1 0x20 ADD DUP3 DUP2 SUB DUP3 MSTORE DUP4 DUP2 DUP2 MLOAD DUP2 MSTORE PUSH1 0x20 ADD SWAP2 POP DUP1 MLOAD SWAP1 PUSH1 0x20 ADD SWAP1 DUP1 DUP4 DUP4 PUSH1 0x0 JUMPDEST DUP4 DUP2 LT ISZERO PUSH2 0x12E6 JUMPI DUP1 DUP3 ADD MLOAD DUP2 DUP5 ADD MSTORE PUSH1 0x20 DUP2 ADD SWAP1 POP PUSH2 0x12CB JUMP JUMPDEST POP POP POP POP SWAP1 POP SWAP1 DUP2 ADD SWAP1 PUSH1 0x1F AND DUP1 ISZERO PUSH2 0x1313 JUMPI DUP1 DUP3 SUB DUP1 MLOAD PUSH1 0x1 DUP4 PUSH1 0x20 SUB PUSH2 0x100 EXP SUB NOT AND DUP2 MSTORE PUSH1 0x20 ADD SWAP2 POP JUMPDEST POP SWAP3 POP POP POP PUSH1 0x40 MLOAD DUP1 SWAP2 SUB SWAP1 REVERT JUMPDEST POP PUSH1 0x0 DUP4 DUP6 SUB SWAP1 POP DUP1 SWAP2 POP POP SWAP4 SWAP3 POP POP POP JUMP JUMPDEST PUSH1 0x0 DUP1 DUP3 DUP5 ADD SWAP1 POP DUP4 DUP2 LT ISZERO PUSH2 0x13B2 JUMPI PUSH1 0x40 MLOAD PUSH32 0x8C379A000000000000000000000000000000000000000000000000000000000 DUP2 MSTORE PUSH1 0x4 ADD DUP1 DUP1 PUSH1 0x20 ADD DUP3 DUP2 SUB DUP3 MSTORE PUSH1 0x1B DUP2 MSTORE PUSH1 0x20 ADD DUP1 PUSH32 0x536166654D6174683A206164646974696F6E206F766572666C6F770000000000 DUP2 MSTORE POP PUSH1 0x20 ADD SWAP2 POP POP PUSH1 0x40 MLOAD DUP1 SWAP2 SUB SWAP1 REVERT JUMPDEST DUP1 SWAP2 POP POP SWAP3 SWAP2 POP POP JUMP JUMPDEST PUSH1 0x0 PUSH20 0xFFFFFFFFFFFFFFFFFFFFFFFFFFFFFFFFFFFFFFFF AND DUP3 PUSH20 0xFFFFFFFFFFFFFFFFFFFFFFFFFFFFFFFFFFFFFFFF AND EQ ISZERO PUSH2 0x145F JUMPI PUSH1 0x40 MLOAD PUSH32 0x8C379A000000000000000000000000000000000000000000000000000000000 DUP2 MSTORE PUSH1 0x4 ADD DUP1 DUP1 PUSH1 0x20 ADD DUP3 DUP2 SUB DUP3 MSTORE PUSH1 0x1F DUP2 MSTORE PUSH1 0x20 ADD DUP1 PUSH32 0x45524332303A206D696E7420746F20746865207A65726F206164647265737300 DUP2 MSTORE POP PUSH1 0x20 ADD SWAP2 POP POP PUSH1 0x40 MLOAD DUP1 SWAP2 SUB SWAP1 REVERT JUMPDEST PUSH2 0x1474 DUP2 PUSH1 0x2 SLOAD PUSH2 0x1334 SWAP1 SWAP2 SWAP1 PUSH4 0xFFFFFFFF AND JUMP JUMPDEST PUSH1 0x2 DUP2 SWAP1 SSTORE POP PUSH2 0x14CB DUP2 PUSH1 0x0 DUP1 DUP6 PUSH20 0xFFFFFFFFFFFFFFFFFFFFFFFFFFFFFFFFFFFFFFFF AND PUSH20 0xFFFFFFFFFFFFFFFFFFFFFFFFFFFFFFFFFFFFFFFF AND DUP2 MSTORE PUSH1 0x20 ADD SWAP1 DUP2 MSTORE PUSH1 0x20 ADD PUSH1 0x0 KECCAK256 SLOAD PUSH2 0x1334 SWAP1 SWAP2 SWAP1 PUSH4 0xFFFFFFFF AND JUMP JUMPDEST PUSH1 0x0 DUP1 DUP5 PUSH20 0xFFFFFFFFFFFFFFFFFFFFFFFFFFFFFFFFFFFFFFFF AND PUSH20 0xFFFFFFFFFFFFFFFFFFFFFFFFFFFFFFFFFFFFFFFF AND DUP2 MSTORE PUSH1 0x20 ADD SWAP1 DUP2 MSTORE PUSH1 0x20 ADD PUSH1 0x0 KECCAK256 DUP2 SWAP1 SSTORE POP DUP2 PUSH20 0xFFFFFFFFFFFFFFFFFFFFFFFFFFFFFFFFFFFFFFFF AND PUSH1 0x0 PUSH20 0xFFFFFFFFFFFFFFFFFFFFFFFFFFFFFFFFFFFFFFFF AND PUSH32 0xDDF252AD1BE2C89B69C2B068FC378DAA952BA7F163C4A11628F55A4DF523B3EF DUP4 PUSH1 0x40 MLOAD DUP1 DUP3 DUP2 MSTORE PUSH1 0x20 ADD SWAP2 POP POP PUSH1 0x40 MLOAD DUP1 SWAP2 SUB SWAP1 LOG3 POP POP JUMP JUMPDEST PUSH2 0x158B DUP2 PUSH1 0x6 PUSH2 0x18C1 SWAP1 SWAP2 SWAP1 PUSH4 0xFFFFFFFF AND JUMP JUMPDEST DUP1 PUSH20 0xFFFFFFFFFFFFFFFFFFFFFFFFFFFFFFFFFFFFFFFF AND PUSH32 0x6AE172837EA30B801FBFCDD4108AA1D5BF8FF775444FD70256B44E6BF3DFC3F6 PUSH1 0x40 MLOAD PUSH1 0x40 MLOAD DUP1 SWAP2 SUB SWAP1 LOG2 POP JUMP JUMPDEST PUSH2 0x15E5 DUP2 PUSH1 0x6 PUSH2 0x199C SWAP1 SWAP2 SWAP1 PUSH4 0xFFFFFFFF AND JUMP JUMPDEST DUP1 PUSH20 0xFFFFFFFFFFFFFFFFFFFFFFFFFFFFFFFFFFFFFFFF AND PUSH32 0xE94479A9F7E1952CC78F2D6BAAB678ADC1B772D936C6583DEF489E524CB66692 PUSH1 0x40 MLOAD PUSH1 0x40 MLOAD DUP1 SWAP2 SUB SWAP1 LOG2 POP JUMP JUMPDEST PUSH1 0x0 PUSH20 0xFFFFFFFFFFFFFFFFFFFFFFFFFFFFFFFFFFFFFFFF AND DUP3 PUSH20 0xFFFFFFFFFFFFFFFFFFFFFFFFFFFFFFFFFFFFFFFF AND EQ ISZERO PUSH2 0x16B1 JUMPI PUSH1 0x40 MLOAD PUSH32 0x8C379A000000000000000000000000000000000000000000000000000000000 DUP2 MSTORE PUSH1 0x4 ADD DUP1 DUP1 PUSH1 0x20 ADD DUP3 DUP2 SUB DUP3 MSTORE PUSH1 0x21 DUP2 MSTORE PUSH1 0x20 ADD DUP1 PUSH2 0x1BCC PUSH1 0x21 SWAP2 CODECOPY PUSH1 0x40 ADD SWAP2 POP POP PUSH1 0x40 MLOAD DUP1 SWAP2 SUB SWAP1 REVERT JUMPDEST PUSH2 0x171C DUP2 PUSH1 0x40 MLOAD DUP1 PUSH1 0x60 ADD PUSH1 0x40 MSTORE DUP1 PUSH1 0x22 DUP2 MSTORE PUSH1 0x20 ADD PUSH2 0x1AC7 PUSH1 0x22 SWAP2 CODECOPY PUSH1 0x0 DUP1 DUP7 PUSH20 0xFFFFFFFFFFFFFFFFFFFFFFFFFFFFFFFFFFFFFFFF AND PUSH20 0xFFFFFFFFFFFFFFFFFFFFFFFFFFFFFFFFFFFFFFFF AND DUP2 MSTORE PUSH1 0x20 ADD SWAP1 DUP2 MSTORE PUSH1 0x20 ADD PUSH1 0x0 KECCAK256 SLOAD PUSH2 0x1274 SWAP1 SWAP3 SWAP2 SWAP1 PUSH4 0xFFFFFFFF AND JUMP JUMPDEST PUSH1 0x0 DUP1 DUP5 PUSH20 0xFFFFFFFFFFFFFFFFFFFFFFFFFFFFFFFFFFFFFFFF AND PUSH20 0xFFFFFFFFFFFFFFFFFFFFFFFFFFFFFFFFFFFFFFFF AND DUP2 MSTORE PUSH1 0x20 ADD SWAP1 DUP2 MSTORE PUSH1 0x20 ADD PUSH1 0x0 KECCAK256 DUP2 SWAP1 SSTORE POP PUSH2 0x1773 DUP2 PUSH1 0x2 SLOAD PUSH2 0x1A59 SWAP1 SWAP2 SWAP1 PUSH4 0xFFFFFFFF AND JUMP JUMPDEST PUSH1 0x2 DUP2 SWAP1 SSTORE POP PUSH1 0x0 PUSH20 0xFFFFFFFFFFFFFFFFFFFFFFFFFFFFFFFFFFFFFFFF AND DUP3 PUSH20 0xFFFFFFFFFFFFFFFFFFFFFFFFFFFFFFFFFFFFFFFF AND PUSH32 0xDDF252AD1BE2C89B69C2B068FC378DAA952BA7F163C4A11628F55A4DF523B3EF DUP4 PUSH1 0x40 MLOAD DUP1 DUP3 DUP2 MSTORE PUSH1 0x20 ADD SWAP2 POP POP PUSH1 0x40 MLOAD DUP1 SWAP2 SUB SWAP1 LOG3 POP POP JUMP JUMPDEST PUSH1 0x0 DUP1 PUSH20 0xFFFFFFFFFFFFFFFFFFFFFFFFFFFFFFFFFFFFFFFF AND DUP3 PUSH20 0xFFFFFFFFFFFFFFFFFFFFFFFFFFFFFFFFFFFFFFFF AND EQ ISZERO PUSH2 0x186A JUMPI PUSH1 0x40 MLOAD PUSH32 0x8C379A000000000000000000000000000000000000000000000000000000000 DUP2 MSTORE PUSH1 0x4 ADD DUP1 DUP1 PUSH1 0x20 ADD DUP3 DUP2 SUB DUP3 MSTORE PUSH1 0x22 DUP2 MSTORE PUSH1 0x20 ADD DUP1 PUSH2 0x1BAA PUSH1 0x22 SWAP2 CODECOPY PUSH1 0x40 ADD SWAP2 POP POP PUSH1 0x40 MLOAD DUP1 SWAP2 SUB SWAP1 REVERT JUMPDEST DUP3 PUSH1 0x0 ADD PUSH1 0x0 DUP4 PUSH20 0xFFFFFFFFFFFFFFFFFFFFFFFFFFFFFFFFFFFFFFFF AND PUSH20 0xFFFFFFFFFFFFFFFFFFFFFFFFFFFFFFFFFFFFFFFF AND DUP2 MSTORE PUSH1 0x20 ADD SWAP1 DUP2 MSTORE PUSH1 0x20 ADD PUSH1 0x0 KECCAK256 PUSH1 0x0 SWAP1 SLOAD SWAP1 PUSH2 0x100 EXP SWAP1 DIV PUSH1 0xFF AND SWAP1 POP SWAP3 SWAP2 POP POP JUMP JUMPDEST PUSH2 0x18CB DUP3 DUP3 PUSH2 0x17E3 JUMP JUMPDEST ISZERO PUSH2 0x193E JUMPI PUSH1 0x40 MLOAD PUSH32 0x8C379A000000000000000000000000000000000000000000000000000000000 DUP2 MSTORE PUSH1 0x4 ADD DUP1 DUP1 PUSH1 0x20 ADD DUP3 DUP2 SUB DUP3 MSTORE PUSH1 0x1F DUP2 MSTORE PUSH1 0x20 ADD DUP1 PUSH32 0x526F6C65733A206163636F756E7420616C72656164792068617320726F6C6500 DUP2 MSTORE POP PUSH1 0x20 ADD SWAP2 POP POP PUSH1 0x40 MLOAD DUP1 SWAP2 SUB SWAP1 REVERT JUMPDEST PUSH1 0x1 DUP3 PUSH1 0x0 ADD PUSH1 0x0 DUP4 PUSH20 0xFFFFFFFFFFFFFFFFFFFFFFFFFFFFFFFFFFFFFFFF AND PUSH20 0xFFFFFFFFFFFFFFFFFFFFFFFFFFFFFFFFFFFFFFFF AND DUP2 MSTORE PUSH1 0x20 ADD SWAP1 DUP2 MSTORE PUSH1 0x20 ADD PUSH1 0x0 KECCAK256 PUSH1 0x0 PUSH2 0x100 EXP DUP2 SLOAD DUP2 PUSH1 0xFF MUL NOT AND SWAP1 DUP4 ISZERO ISZERO MUL OR SWAP1 SSTORE POP POP POP JUMP JUMPDEST PUSH2 0x19A6 DUP3 DUP3 PUSH2 0x17E3 JUMP JUMPDEST PUSH2 0x19FB JUMPI PUSH1 0x40 MLOAD PUSH32 0x8C379A000000000000000000000000000000000000000000000000000000000 DUP2 MSTORE PUSH1 0x4 ADD DUP1 DUP1 PUSH1 0x20 ADD DUP3 DUP2 SUB DUP3 MSTORE PUSH1 0x21 DUP2 MSTORE PUSH1 0x20 ADD DUP1 PUSH2 0x1B61 PUSH1 0x21 SWAP2 CODECOPY PUSH1 0x40 ADD SWAP2 POP POP PUSH1 0x40 MLOAD DUP1 SWAP2 SUB SWAP1 REVERT JUMPDEST PUSH1 0x0 DUP3 PUSH1 0x0 ADD PUSH1 0x0 DUP4 PUSH20 0xFFFFFFFFFFFFFFFFFFFFFFFFFFFFFFFFFFFFFFFF AND PUSH20 0xFFFFFFFFFFFFFFFFFFFFFFFFFFFFFFFFFFFFFFFF AND DUP2 MSTORE PUSH1 0x20 ADD SWAP1 DUP2 MSTORE PUSH1 0x20 ADD PUSH1 0x0 KECCAK256 PUSH1 0x0 PUSH2 0x100 EXP DUP2 SLOAD DUP2 PUSH1 0xFF MUL NOT AND SWAP1 DUP4 ISZERO ISZERO MUL OR SWAP1 SSTORE POP POP POP JUMP JUMPDEST PUSH1 0x0 PUSH2 0x1A9B DUP4 DUP4 PUSH1 0x40 MLOAD DUP1 PUSH1 0x40 ADD PUSH1 0x40 MSTORE DUP1 PUSH1 0x1E DUP2 MSTORE PUSH1 0x20 ADD PUSH32 0x536166654D6174683A207375627472616374696F6E206F766572666C6F770000 DUP2 MSTORE POP PUSH2 0x1274 JUMP JUMPDEST SWAP1 POP SWAP3 SWAP2 POP POP JUMP INVALID GASLIMIT MSTORE NUMBER ORIGIN ADDRESS GASPRICE KECCAK256 PUSH21 0x72616E7366657220746F20746865207A65726F2061 PUSH5 0x6472657373 GASLIMIT MSTORE NUMBER ORIGIN ADDRESS GASPRICE KECCAK256 PUSH3 0x75726E KECCAK256 PUSH2 0x6D6F PUSH22 0x6E7420657863656564732062616C616E636545524332 ADDRESS GASPRICE KECCAK256 PUSH2 0x7070 PUSH19 0x6F766520746F20746865207A65726F20616464 PUSH19 0x65737345524332303A207472616E7366657220 PUSH2 0x6D6F PUSH22 0x6E7420657863656564732062616C616E63654D696E74 PUSH6 0x72526F6C653A KECCAK256 PUSH4 0x616C6C65 PUSH19 0x20646F6573206E6F7420686176652074686520 0x4D PUSH10 0x6E74657220726F6C6552 PUSH16 0x6C65733A206163636F756E7420646F65 PUSH20 0x206E6F74206861766520726F6C6545524332303A KECCAK256 PUSH21 0x72616E7366657220616D6F756E7420657863656564 PUSH20 0x20616C6C6F77616E6365526F6C65733A20616363 PUSH16 0x756E7420697320746865207A65726F20 PUSH2 0x6464 PUSH19 0x65737345524332303A206275726E2066726F6D KECCAK256 PUSH21 0x6865207A65726F206164647265737345524332303A KECCAK256 PUSH21 0x72616E736665722066726F6D20746865207A65726F KECCAK256 PUSH2 0x6464 PUSH19 0x65737345524332303A20617070726F76652066 PUSH19 0x6F6D20746865207A65726F2061646472657373 GASLIMIT MSTORE NUMBER ORIGIN ADDRESS GASPRICE KECCAK256 PUSH5 0x6563726561 PUSH20 0x656420616C6C6F77616E63652062656C6F77207A PUSH6 0x726FA265627A PUSH27 0x723158203E4AA20FC4F73A3C2828E0B469810CC62747386989986D COINBASE PUSH17 0x6DCEF41D37FA4864736F6C634300051100 ORIGIN MSTORE PUSH16 0x6C65733A206163636F756E7420697320 PUSH21 0x6865207A65726F2061646472657373000000000000 "
				},
				"gasEstimates": {
					"creation": {
						"codeDepositCost": "2505800",
						"executionCost": "infinite",
						"totalCost": "infinite"
					},
					"external": {
						"addParticipant()": "infinite",
						"addProposal(string,string,uint256,address)": "infinite",
						"buyTokens()": "infinite",
						"cancelProposal(uint256)": "infinite",
						"closeVoting()": "22773",
						"executeSignaling(uint256)": "infinite",
						"getApprovedProposals()": "infinite",
						"getERC20()": "1333",
						"getPendingProposals()": "infinite",
						"getProposalInfo(uint256)": "infinite",
						"getSignalingProposals()": "infinite",
						"maxTokens()": "1217",
						"openVoting()": "22729",
						"participants(address)": "1569",
						"sellTokens(uint256)": "infinite",
						"stake(uint256,uint256)": "infinite",
						"tokenPrice()": "1196",
						"withdrawFromProposal(uint256,uint256)": "infinite"
					},
					"internal": {
						"_approveProposal(uint256)": "infinite",
						"_calculateThreshold(uint256)": "2606",
						"_calculateVoteCost(uint256,uint256)": "1199",
						"_calculateWithdrawVote(uint256,uint256)": "1199",
						"_checkAndExecuteProposal(uint256)": "infinite",
						"_isProposalApproved(uint256)": "infinite",
						"_withdrawFromFinanceProposal(uint256,uint256)": "infinite",
						"_withdrawFromSignalingProposal(uint256,uint256)": "infinite"
					}
				},
				"methodIdentifiers": {
					"addParticipant()": "fffefd91",
					"addProposal(string,string,uint256,address)": "9ab3f7a6",
					"buyTokens()": "d0febe4c",
					"cancelProposal(uint256)": "e0a8f6f5",
					"closeVoting()": "c631b292",
					"executeSignaling(uint256)": "da6001d1",
					"getApprovedProposals()": "3ac0feac",
					"getERC20()": "4ece90a8",
					"getPendingProposals()": "a80db6fc",
					"getProposalInfo(uint256)": "bc903cb8",
					"getSignalingProposals()": "8e08a50b",
					"maxTokens()": "e8315742",
					"openVoting()": "affc0670",
					"participants(address)": "09e69ede",
					"sellTokens(uint256)": "6c11bcd3",
					"stake(uint256,uint256)": "7b0472f0",
					"tokenPrice()": "7ff9b596",
					"withdrawFromProposal(uint256,uint256)": "649c649c"
				}
			},
			"storageLayout": {
				"storage": [
					{
						"astId": 132,
						"contract": "QuadraticVoting.sol:QuadraticVoting",
						"label": "owner",
						"offset": 0,
						"slot": "0",
						"type": "t_address"
					},
					{
						"astId": 134,
						"contract": "QuadraticVoting.sol:QuadraticVoting",
						"label": "tokenContract",
						"offset": 0,
						"slot": "1",
						"type": "t_contract(UCMToken)1226"
					},
					{
						"astId": 136,
						"contract": "QuadraticVoting.sol:QuadraticVoting",
						"label": "votingState",
						"offset": 20,
						"slot": "1",
						"type": "t_uint8"
					},
					{
						"astId": 138,
						"contract": "QuadraticVoting.sol:QuadraticVoting",
						"label": "tokenPrice",
						"offset": 0,
						"slot": "2",
						"type": "t_uint256"
					},
					{
						"astId": 140,
						"contract": "QuadraticVoting.sol:QuadraticVoting",
						"label": "maxTokens",
						"offset": 0,
						"slot": "3",
						"type": "t_uint256"
					},
					{
						"astId": 142,
						"contract": "QuadraticVoting.sol:QuadraticVoting",
						"label": "nParticipants",
						"offset": 0,
						"slot": "4",
						"type": "t_uint256"
					},
					{
						"astId": 146,
						"contract": "QuadraticVoting.sol:QuadraticVoting",
						"label": "participants",
						"offset": 0,
						"slot": "5",
						"type": "t_mapping(t_address,t_bool)"
					},
					{
						"astId": 148,
						"contract": "QuadraticVoting.sol:QuadraticVoting",
						"label": "nProposals",
						"offset": 0,
						"slot": "6",
						"type": "t_uint256"
					},
					{
						"astId": 152,
						"contract": "QuadraticVoting.sol:QuadraticVoting",
						"label": "proposals",
						"offset": 0,
						"slot": "7",
						"type": "t_mapping(t_uint256,t_struct(Proposal)46_storage)"
					},
					{
						"astId": 154,
						"contract": "QuadraticVoting.sol:QuadraticVoting",
						"label": "lastProposalId",
						"offset": 0,
						"slot": "8",
						"type": "t_uint256"
					}
				],
				"types": {
					"t_address": {
						"encoding": "inplace",
						"label": "address",
						"numberOfBytes": "20"
					},
					"t_bool": {
						"encoding": "inplace",
						"label": "bool",
						"numberOfBytes": "1"
					},
					"t_contract(IExecutableProposal)11": {
						"encoding": "inplace",
						"label": "contract IExecutableProposal",
						"numberOfBytes": "20"
					},
					"t_contract(UCMToken)1226": {
						"encoding": "inplace",
						"label": "contract UCMToken",
						"numberOfBytes": "20"
					},
					"t_mapping(t_address,t_bool)": {
						"encoding": "mapping",
						"key": "t_address",
						"label": "mapping(address => bool)",
						"numberOfBytes": "32",
						"value": "t_bool"
					},
					"t_mapping(t_address,t_uint256)": {
						"encoding": "mapping",
						"key": "t_address",
						"label": "mapping(address => uint256)",
						"numberOfBytes": "32",
						"value": "t_uint256"
					},
					"t_mapping(t_uint256,t_struct(Proposal)46_storage)": {
						"encoding": "mapping",
						"key": "t_uint256",
						"label": "mapping(uint256 => struct IQuadraticVoting.Proposal)",
						"numberOfBytes": "32",
						"value": "t_struct(Proposal)46_storage"
					},
					"t_string_storage": {
						"encoding": "bytes",
						"label": "string",
						"numberOfBytes": "32"
					},
					"t_struct(Proposal)46_storage": {
						"encoding": "inplace",
						"label": "struct IQuadraticVoting.Proposal",
						"members": [
							{
								"astId": 25,
								"contract": "QuadraticVoting.sol:QuadraticVoting",
								"label": "owner",
								"offset": 0,
								"slot": "0",
								"type": "t_address"
							},
							{
								"astId": 27,
								"contract": "QuadraticVoting.sol:QuadraticVoting",
								"label": "executableProposal",
								"offset": 0,
								"slot": "1",
								"type": "t_contract(IExecutableProposal)11"
							},
							{
								"astId": 29,
								"contract": "QuadraticVoting.sol:QuadraticVoting",
								"label": "title",
								"offset": 0,
								"slot": "2",
								"type": "t_string_storage"
							},
							{
								"astId": 31,
								"contract": "QuadraticVoting.sol:QuadraticVoting",
								"label": "description",
								"offset": 0,
								"slot": "3",
								"type": "t_string_storage"
							},
							{
								"astId": 33,
								"contract": "QuadraticVoting.sol:QuadraticVoting",
								"label": "minBudget",
								"offset": 0,
								"slot": "4",
								"type": "t_uint256"
							},
							{
								"astId": 35,
								"contract": "QuadraticVoting.sol:QuadraticVoting",
								"label": "currentVotes",
								"offset": 0,
								"slot": "5",
								"type": "t_uint256"
							},
							{
								"astId": 37,
								"contract": "QuadraticVoting.sol:QuadraticVoting",
								"label": "currentTokens",
								"offset": 0,
								"slot": "6",
								"type": "t_uint256"
							},
							{
								"astId": 41,
								"contract": "QuadraticVoting.sol:QuadraticVoting",
								"label": "votes",
								"offset": 0,
								"slot": "7",
								"type": "t_mapping(t_address,t_uint256)"
							},
							{
								"astId": 43,
								"contract": "QuadraticVoting.sol:QuadraticVoting",
								"label": "state",
								"offset": 0,
								"slot": "8",
								"type": "t_uint8"
							},
							{
								"astId": 45,
								"contract": "QuadraticVoting.sol:QuadraticVoting",
								"label": "exists",
								"offset": 1,
								"slot": "8",
								"type": "t_bool"
							}
						],
						"numberOfBytes": "288"
					},
					"t_uint256": {
						"encoding": "inplace",
						"label": "uint256",
						"numberOfBytes": "32"
					},
					"t_uint8": {
						"encoding": "inplace",
						"label": "uint8",
						"numberOfBytes": "1"
					}
				}
			},
			"userdoc": {
				"methods": {}
			}
		}
	}
}