{
	"QuadraticVoting.sol": {
		"QuadraticVoting": {
			"abi": [
				{
					"inputs": [
						{
							"internalType": "uint256",
							"name": "_tokenPrice",
							"type": "uint256"
						},
						{
							"internalType": "uint256",
							"name": "_maxTokens",
							"type": "uint256"
						}
					],
					"payable": false,
					"stateMutability": "nonpayable",
					"type": "constructor"
				},
				{
					"anonymous": false,
					"inputs": [
						{
							"indexed": false,
							"internalType": "uint256",
							"name": "proposalId",
							"type": "uint256"
						}
					],
					"name": "CanWithdrawnFromProposal",
					"type": "event"
				},
				{
					"anonymous": false,
					"inputs": [],
					"name": "OpenVote",
					"type": "event"
				},
				{
					"anonymous": false,
					"inputs": [],
					"name": "WaitingVote",
					"type": "event"
				},
				{
					"constant": false,
					"inputs": [],
					"name": "addParticipant",
					"outputs": [],
					"payable": true,
					"stateMutability": "payable",
					"type": "function"
				},
				{
					"constant": false,
					"inputs": [
						{
							"internalType": "string",
							"name": "title",
							"type": "string"
						},
						{
							"internalType": "string",
							"name": "description",
							"type": "string"
						},
						{
							"internalType": "uint256",
							"name": "budget",
							"type": "uint256"
						},
						{
							"internalType": "address",
							"name": "executableProposal",
							"type": "address"
						}
					],
					"name": "addProposal",
					"outputs": [
						{
							"internalType": "uint256",
							"name": "",
							"type": "uint256"
						}
					],
					"payable": false,
					"stateMutability": "nonpayable",
					"type": "function"
				},
				{
					"constant": false,
					"inputs": [],
					"name": "buyTokens",
					"outputs": [],
					"payable": true,
					"stateMutability": "payable",
					"type": "function"
				},
				{
					"constant": false,
					"inputs": [
						{
							"internalType": "uint256",
							"name": "id",
							"type": "uint256"
						}
					],
					"name": "cancelProposal",
					"outputs": [],
					"payable": false,
					"stateMutability": "nonpayable",
					"type": "function"
				},
				{
					"constant": false,
					"inputs": [],
					"name": "closeVoting",
					"outputs": [],
					"payable": false,
					"stateMutability": "nonpayable",
					"type": "function"
				},
				{
					"constant": false,
					"inputs": [
						{
							"internalType": "uint256",
							"name": "id",
							"type": "uint256"
						}
					],
					"name": "executeSignaling",
					"outputs": [],
					"payable": false,
					"stateMutability": "nonpayable",
					"type": "function"
				},
				{
					"constant": false,
					"inputs": [],
					"name": "getApprovedProposals",
					"outputs": [
						{
							"internalType": "uint256[]",
							"name": "",
							"type": "uint256[]"
						}
					],
					"payable": false,
					"stateMutability": "nonpayable",
					"type": "function"
				},
				{
					"constant": true,
					"inputs": [],
					"name": "getERC20",
					"outputs": [
						{
							"internalType": "contract UCMToken",
							"name": "",
							"type": "address"
						}
					],
					"payable": false,
					"stateMutability": "view",
					"type": "function"
				},
				{
					"constant": false,
					"inputs": [],
					"name": "getPendingProposals",
					"outputs": [
						{
							"internalType": "uint256[]",
							"name": "",
							"type": "uint256[]"
						}
					],
					"payable": false,
					"stateMutability": "nonpayable",
					"type": "function"
				},
				{
					"constant": true,
					"inputs": [
						{
							"internalType": "uint256",
							"name": "id",
							"type": "uint256"
						}
					],
					"name": "getProposalInfo",
					"outputs": [
						{
							"internalType": "string",
							"name": "title",
							"type": "string"
						},
						{
							"internalType": "string",
							"name": "description",
							"type": "string"
						},
						{
							"internalType": "contract IExecutableProposal",
							"name": "executableProposal",
							"type": "address"
						}
					],
					"payable": false,
					"stateMutability": "view",
					"type": "function"
				},
				{
					"constant": false,
					"inputs": [],
					"name": "getSignalingProposals",
					"outputs": [
						{
							"internalType": "uint256[]",
							"name": "",
							"type": "uint256[]"
						}
					],
					"payable": false,
					"stateMutability": "nonpayable",
					"type": "function"
				},
				{
					"constant": false,
					"inputs": [],
					"name": "openVoting",
					"outputs": [],
					"payable": true,
					"stateMutability": "payable",
					"type": "function"
				},
				{
					"constant": false,
					"inputs": [
						{
							"internalType": "uint256",
							"name": "amount",
							"type": "uint256"
						}
					],
					"name": "sellTokens",
					"outputs": [],
					"payable": false,
					"stateMutability": "nonpayable",
					"type": "function"
				},
				{
					"constant": false,
					"inputs": [
						{
							"internalType": "uint256",
							"name": "id",
							"type": "uint256"
						},
						{
							"internalType": "uint256",
							"name": "votes",
							"type": "uint256"
						}
					],
					"name": "stake",
					"outputs": [],
					"payable": false,
					"stateMutability": "nonpayable",
					"type": "function"
				},
				{
					"constant": false,
					"inputs": [
						{
							"internalType": "uint256",
							"name": "amount",
							"type": "uint256"
						},
						{
							"internalType": "uint256",
							"name": "id",
							"type": "uint256"
						}
					],
					"name": "withdrawFromProposal",
					"outputs": [],
					"payable": false,
					"stateMutability": "nonpayable",
					"type": "function"
				}
			],
			"devdoc": {
				"methods": {}
			},
			"evm": {
				"assembly": "    /* \"QuadraticVoting.sol\":59:11277  contract QuadraticVoting is IQuadraticVoting {... */\n  mstore(0x40, 0x80)\n    /* \"QuadraticVoting.sol\":638:995  constructor(uint _tokenPrice, uint _maxTokens) public {... */\n  callvalue\n    /* \"--CODEGEN--\":8:17   */\n  dup1\n    /* \"--CODEGEN--\":5:7   */\n  iszero\n  tag_1\n  jumpi\n    /* \"--CODEGEN--\":30:31   */\n  0x00\n    /* \"--CODEGEN--\":27:28   */\n  dup1\n    /* \"--CODEGEN--\":20:32   */\n  revert\n    /* \"--CODEGEN--\":5:7   */\ntag_1:\n    /* \"QuadraticVoting.sol\":638:995  constructor(uint _tokenPrice, uint _maxTokens) public {... */\n  pop\n  mload(0x40)\n  sub(codesize, bytecodeSize)\n  dup1\n  bytecodeSize\n  dup4\n  codecopy\n  dup2\n  dup2\n  add\n  0x40\n  mstore\n    /* \"--CODEGEN--\":13:15   */\n  0x40\n    /* \"--CODEGEN--\":8:11   */\n  dup2\n    /* \"--CODEGEN--\":5:16   */\n  lt\n    /* \"--CODEGEN--\":2:4   */\n  iszero\n  tag_2\n  jumpi\n    /* \"--CODEGEN--\":29:30   */\n  0x00\n    /* \"--CODEGEN--\":26:27   */\n  dup1\n    /* \"--CODEGEN--\":19:31   */\n  revert\n    /* \"--CODEGEN--\":2:4   */\ntag_2:\n    /* \"QuadraticVoting.sol\":638:995  constructor(uint _tokenPrice, uint _maxTokens) public {... */\n  dup2\n  add\n  swap1\n  dup1\n  dup1\n  mload\n  swap1\n  0x20\n  add\n  swap1\n  swap3\n  swap2\n  swap1\n  dup1\n  mload\n  swap1\n  0x20\n  add\n  swap1\n  swap3\n  swap2\n  swap1\n  pop\n  pop\n  pop\n    /* \"QuadraticVoting.sol\":710:720  msg.sender */\n  caller\n    /* \"QuadraticVoting.sol\":702:707  owner */\n  0x00\n  dup1\n    /* \"QuadraticVoting.sol\":702:720  owner = msg.sender */\n  0x0100\n  exp\n  dup2\n  sload\n  dup2\n  0xffffffffffffffffffffffffffffffffffffffff\n  mul\n  not\n  and\n  swap1\n  dup4\n  0xffffffffffffffffffffffffffffffffffffffff\n  and\n  mul\n  or\n  swap1\n  sstore\n  pop\n    /* \"QuadraticVoting.sol\":746:760  new UCMToken() */\n  mload(0x40)\n  tag_5\n  swap1\n  tag_6\n  jump\t// in\ntag_5:\n  mload(0x40)\n  dup1\n  swap2\n  sub\n  swap1\n  0x00\n  create\n  dup1\n  iszero\n    /* \"--CODEGEN--\":8:17   */\n  dup1\n    /* \"--CODEGEN--\":5:7   */\n  iszero\n  tag_7\n  jumpi\n    /* \"--CODEGEN--\":45:61   */\n  returndatasize\n    /* \"--CODEGEN--\":42:43   */\n  0x00\n    /* \"--CODEGEN--\":39:40   */\n  dup1\n    /* \"--CODEGEN--\":24:62   */\n  returndatacopy\n    /* \"--CODEGEN--\":77:93   */\n  returndatasize\n    /* \"--CODEGEN--\":74:75   */\n  0x00\n    /* \"--CODEGEN--\":67:94   */\n  revert\n    /* \"--CODEGEN--\":5:7   */\ntag_7:\n    /* \"QuadraticVoting.sol\":746:760  new UCMToken() */\n  pop\n    /* \"QuadraticVoting.sol\":730:743  tokenContract */\n  0x01\n  0x00\n    /* \"QuadraticVoting.sol\":730:760  tokenContract = new UCMToken() */\n  0x0100\n  exp\n  dup2\n  sload\n  dup2\n  0xffffffffffffffffffffffffffffffffffffffff\n  mul\n  not\n  and\n  swap1\n  dup4\n  0xffffffffffffffffffffffffffffffffffffffff\n  and\n  mul\n  or\n  swap1\n  sstore\n  pop\n    /* \"QuadraticVoting.sol\":784:811  QuadraticVotingState.CLOSED */\n  0x00\n    /* \"QuadraticVoting.sol\":770:781  votingState */\n  0x01\n  0x14\n    /* \"QuadraticVoting.sol\":770:811  votingState = QuadraticVotingState.CLOSED */\n  0x0100\n  exp\n  dup2\n  sload\n  dup2\n  0xff\n  mul\n  not\n  and\n  swap1\n  dup4\n  0x02\n  dup2\n  gt\n  iszero\n  tag_8\n  jumpi\n  invalid\ntag_8:\n  mul\n  or\n  swap1\n  sstore\n  pop\n    /* \"QuadraticVoting.sol\":834:845  _tokenPrice */\n  dup2\n    /* \"QuadraticVoting.sol\":821:831  tokenPrice */\n  0x02\n    /* \"QuadraticVoting.sol\":821:845  tokenPrice = _tokenPrice */\n  dup2\n  swap1\n  sstore\n  pop\n    /* \"QuadraticVoting.sol\":867:877  _maxTokens */\n  dup1\n    /* \"QuadraticVoting.sol\":855:864  maxTokens */\n  0x03\n    /* \"QuadraticVoting.sol\":855:877  maxTokens = _maxTokens */\n  dup2\n  swap1\n  sstore\n  pop\n    /* \"QuadraticVoting.sol\":904:905  0 */\n  0x00\n    /* \"QuadraticVoting.sol\":888:901  nParticipants */\n  0x04\n    /* \"QuadraticVoting.sol\":888:905  nParticipants = 0 */\n  dup2\n  swap1\n  sstore\n  pop\n    /* \"QuadraticVoting.sol\":928:929  0 */\n  0x00\n    /* \"QuadraticVoting.sol\":915:925  nProposals */\n  0x06\n    /* \"QuadraticVoting.sol\":915:929  nProposals = 0 */\n  dup2\n  swap1\n  sstore\n  pop\n    /* \"QuadraticVoting.sol\":959:960  1 */\n  0x01\n    /* \"QuadraticVoting.sol\":939:956  initialProposalId */\n  0x08\n    /* \"QuadraticVoting.sol\":939:960  initialProposalId = 1 */\n  dup2\n  swap1\n  sstore\n  pop\n    /* \"QuadraticVoting.sol\":987:988  0 */\n  0x00\n    /* \"QuadraticVoting.sol\":970:984  lastProposalId */\n  0x09\n    /* \"QuadraticVoting.sol\":970:988  lastProposalId = 0 */\n  dup2\n  swap1\n  sstore\n  pop\n    /* \"QuadraticVoting.sol\":638:995  constructor(uint _tokenPrice, uint _maxTokens) public {... */\n  pop\n  pop\n    /* \"QuadraticVoting.sol\":59:11277  contract QuadraticVoting is IQuadraticVoting {... */\n  jump(tag_9)\ntag_6:\n  dataSize(sub_1)\n  dup1\n  dataOffset(sub_1)\n  dup4\n  codecopy\n  add\n  swap1\n  jump\t// out\ntag_9:\n  dataSize(sub_0)\n  dup1\n  dataOffset(sub_0)\n  0x00\n  codecopy\n  0x00\n  return\nstop\n\nsub_0: assembly {\n        /* \"QuadraticVoting.sol\":59:11277  contract QuadraticVoting is IQuadraticVoting {... */\n      mstore(0x40, 0x80)\n      jumpi(tag_1, lt(calldatasize, 0x04))\n      shr(0xe0, calldataload(0x00))\n      dup1\n      0xa80db6fc\n      gt\n      tag_17\n      jumpi\n      dup1\n      0xd0febe4c\n      gt\n      tag_18\n      jumpi\n      dup1\n      0xd0febe4c\n      eq\n      tag_13\n      jumpi\n      dup1\n      0xda6001d1\n      eq\n      tag_14\n      jumpi\n      dup1\n      0xe0a8f6f5\n      eq\n      tag_15\n      jumpi\n      dup1\n      0xfffefd91\n      eq\n      tag_16\n      jumpi\n      jump(tag_1)\n    tag_18:\n      dup1\n      0xa80db6fc\n      eq\n      tag_9\n      jumpi\n      dup1\n      0xaffc0670\n      eq\n      tag_10\n      jumpi\n      dup1\n      0xbc903cb8\n      eq\n      tag_11\n      jumpi\n      dup1\n      0xc631b292\n      eq\n      tag_12\n      jumpi\n      jump(tag_1)\n    tag_17:\n      dup1\n      0x6c11bcd3\n      gt\n      tag_19\n      jumpi\n      dup1\n      0x6c11bcd3\n      eq\n      tag_5\n      jumpi\n      dup1\n      0x7b0472f0\n      eq\n      tag_6\n      jumpi\n      dup1\n      0x8e08a50b\n      eq\n      tag_7\n      jumpi\n      dup1\n      0x9ab3f7a6\n      eq\n      tag_8\n      jumpi\n      jump(tag_1)\n    tag_19:\n      dup1\n      0x3ac0feac\n      eq\n      tag_2\n      jumpi\n      dup1\n      0x4ece90a8\n      eq\n      tag_3\n      jumpi\n      dup1\n      0x649c649c\n      eq\n      tag_4\n      jumpi\n    tag_1:\n      0x00\n      dup1\n      revert\n        /* \"QuadraticVoting.sol\":4588:5088  function getApprovedProposals() checkOpenVoting external returns(uint[] memory) {... */\n    tag_2:\n      callvalue\n        /* \"--CODEGEN--\":8:17   */\n      dup1\n        /* \"--CODEGEN--\":5:7   */\n      iszero\n      tag_20\n      jumpi\n        /* \"--CODEGEN--\":30:31   */\n      0x00\n        /* \"--CODEGEN--\":27:28   */\n      dup1\n        /* \"--CODEGEN--\":20:32   */\n      revert\n        /* \"--CODEGEN--\":5:7   */\n    tag_20:\n        /* \"QuadraticVoting.sol\":4588:5088  function getApprovedProposals() checkOpenVoting external returns(uint[] memory) {... */\n      pop\n      tag_21\n      tag_22\n      jump\t// in\n    tag_21:\n      mload(0x40)\n      dup1\n      dup1\n      0x20\n      add\n      dup3\n      dup2\n      sub\n      dup3\n      mstore\n      dup4\n      dup2\n      dup2\n      mload\n      dup2\n      mstore\n      0x20\n      add\n      swap2\n      pop\n      dup1\n      mload\n      swap1\n      0x20\n      add\n      swap1\n      0x20\n      mul\n      dup1\n      dup4\n      dup4\n        /* \"--CODEGEN--\":23:24   */\n      0x00\n        /* \"--CODEGEN--\":8:108   */\n    tag_23:\n        /* \"--CODEGEN--\":33:36   */\n      dup4\n        /* \"--CODEGEN--\":30:31   */\n      dup2\n        /* \"--CODEGEN--\":27:37   */\n      lt\n        /* \"--CODEGEN--\":8:108   */\n      iszero\n      tag_25\n      jumpi\n        /* \"--CODEGEN--\":99:100   */\n      dup1\n        /* \"--CODEGEN--\":94:97   */\n      dup3\n        /* \"--CODEGEN--\":90:101   */\n      add\n        /* \"--CODEGEN--\":84:102   */\n      mload\n        /* \"--CODEGEN--\":80:81   */\n      dup2\n        /* \"--CODEGEN--\":75:78   */\n      dup5\n        /* \"--CODEGEN--\":71:82   */\n      add\n        /* \"--CODEGEN--\":64:103   */\n      mstore\n        /* \"--CODEGEN--\":52:54   */\n      0x20\n        /* \"--CODEGEN--\":49:50   */\n      dup2\n        /* \"--CODEGEN--\":45:55   */\n      add\n        /* \"--CODEGEN--\":40:55   */\n      swap1\n      pop\n        /* \"--CODEGEN--\":8:108   */\n      jump(tag_23)\n    tag_25:\n        /* \"--CODEGEN--\":12:26   */\n      pop\n        /* \"QuadraticVoting.sol\":4588:5088  function getApprovedProposals() checkOpenVoting external returns(uint[] memory) {... */\n      pop\n      pop\n      pop\n      swap1\n      pop\n      add\n      swap3\n      pop\n      pop\n      pop\n      mload(0x40)\n      dup1\n      swap2\n      sub\n      swap1\n      return\n        /* \"QuadraticVoting.sol\":3992:4081  function getERC20() view external returns(UCMToken) {... */\n    tag_3:\n      callvalue\n        /* \"--CODEGEN--\":8:17   */\n      dup1\n        /* \"--CODEGEN--\":5:7   */\n      iszero\n      tag_26\n      jumpi\n        /* \"--CODEGEN--\":30:31   */\n      0x00\n        /* \"--CODEGEN--\":27:28   */\n      dup1\n        /* \"--CODEGEN--\":20:32   */\n      revert\n        /* \"--CODEGEN--\":5:7   */\n    tag_26:\n        /* \"QuadraticVoting.sol\":3992:4081  function getERC20() view external returns(UCMToken) {... */\n      pop\n      tag_27\n      tag_28\n      jump\t// in\n    tag_27:\n      mload(0x40)\n      dup1\n      dup3\n      0xffffffffffffffffffffffffffffffffffffffff\n      and\n      0xffffffffffffffffffffffffffffffffffffffff\n      and\n      dup2\n      mstore\n      0x20\n      add\n      swap2\n      pop\n      pop\n      mload(0x40)\n      dup1\n      swap2\n      sub\n      swap1\n      return\n        /* \"QuadraticVoting.sol\":7433:7701  function withdrawFromProposal(uint amount, uint id) checkParticipant checkValidProposal(id) checkVotes(id, amount) external {... */\n    tag_4:\n      callvalue\n        /* \"--CODEGEN--\":8:17   */\n      dup1\n        /* \"--CODEGEN--\":5:7   */\n      iszero\n      tag_29\n      jumpi\n        /* \"--CODEGEN--\":30:31   */\n      0x00\n        /* \"--CODEGEN--\":27:28   */\n      dup1\n        /* \"--CODEGEN--\":20:32   */\n      revert\n        /* \"--CODEGEN--\":5:7   */\n    tag_29:\n        /* \"QuadraticVoting.sol\":7433:7701  function withdrawFromProposal(uint amount, uint id) checkParticipant checkValidProposal(id) checkVotes(id, amount) external {... */\n      pop\n      tag_30\n      0x04\n      dup1\n      calldatasize\n      sub\n        /* \"--CODEGEN--\":13:15   */\n      0x40\n        /* \"--CODEGEN--\":8:11   */\n      dup2\n        /* \"--CODEGEN--\":5:16   */\n      lt\n        /* \"--CODEGEN--\":2:4   */\n      iszero\n      tag_31\n      jumpi\n        /* \"--CODEGEN--\":29:30   */\n      0x00\n        /* \"--CODEGEN--\":26:27   */\n      dup1\n        /* \"--CODEGEN--\":19:31   */\n      revert\n        /* \"--CODEGEN--\":2:4   */\n    tag_31:\n        /* \"QuadraticVoting.sol\":7433:7701  function withdrawFromProposal(uint amount, uint id) checkParticipant checkValidProposal(id) checkVotes(id, amount) external {... */\n      dup2\n      add\n      swap1\n      dup1\n      dup1\n      calldataload\n      swap1\n      0x20\n      add\n      swap1\n      swap3\n      swap2\n      swap1\n      dup1\n      calldataload\n      swap1\n      0x20\n      add\n      swap1\n      swap3\n      swap2\n      swap1\n      pop\n      pop\n      pop\n      tag_32\n      jump\t// in\n    tag_30:\n      stop\n        /* \"QuadraticVoting.sol\":3797:3986  function sellTokens(uint amount) checkParticipant checkTokenAmount(amount) external {... */\n    tag_5:\n      callvalue\n        /* \"--CODEGEN--\":8:17   */\n      dup1\n        /* \"--CODEGEN--\":5:7   */\n      iszero\n      tag_33\n      jumpi\n        /* \"--CODEGEN--\":30:31   */\n      0x00\n        /* \"--CODEGEN--\":27:28   */\n      dup1\n        /* \"--CODEGEN--\":20:32   */\n      revert\n        /* \"--CODEGEN--\":5:7   */\n    tag_33:\n        /* \"QuadraticVoting.sol\":3797:3986  function sellTokens(uint amount) checkParticipant checkTokenAmount(amount) external {... */\n      pop\n      tag_34\n      0x04\n      dup1\n      calldatasize\n      sub\n        /* \"--CODEGEN--\":13:15   */\n      0x20\n        /* \"--CODEGEN--\":8:11   */\n      dup2\n        /* \"--CODEGEN--\":5:16   */\n      lt\n        /* \"--CODEGEN--\":2:4   */\n      iszero\n      tag_35\n      jumpi\n        /* \"--CODEGEN--\":29:30   */\n      0x00\n        /* \"--CODEGEN--\":26:27   */\n      dup1\n        /* \"--CODEGEN--\":19:31   */\n      revert\n        /* \"--CODEGEN--\":2:4   */\n    tag_35:\n        /* \"QuadraticVoting.sol\":3797:3986  function sellTokens(uint amount) checkParticipant checkTokenAmount(amount) external {... */\n      dup2\n      add\n      swap1\n      dup1\n      dup1\n      calldataload\n      swap1\n      0x20\n      add\n      swap1\n      swap3\n      swap2\n      swap1\n      pop\n      pop\n      pop\n      tag_36\n      jump\t// in\n    tag_34:\n      stop\n        /* \"QuadraticVoting.sol\":5877:6341  function stake(uint id, uint votes) checkParticipant checkValidProposal(id) checkEnabledProposal(id) checkTokenAmount(_calculateVoteCost(id, votes)) external {... */\n    tag_6:\n      callvalue\n        /* \"--CODEGEN--\":8:17   */\n      dup1\n        /* \"--CODEGEN--\":5:7   */\n      iszero\n      tag_37\n      jumpi\n        /* \"--CODEGEN--\":30:31   */\n      0x00\n        /* \"--CODEGEN--\":27:28   */\n      dup1\n        /* \"--CODEGEN--\":20:32   */\n      revert\n        /* \"--CODEGEN--\":5:7   */\n    tag_37:\n        /* \"QuadraticVoting.sol\":5877:6341  function stake(uint id, uint votes) checkParticipant checkValidProposal(id) checkEnabledProposal(id) checkTokenAmount(_calculateVoteCost(id, votes)) external {... */\n      pop\n      tag_38\n      0x04\n      dup1\n      calldatasize\n      sub\n        /* \"--CODEGEN--\":13:15   */\n      0x40\n        /* \"--CODEGEN--\":8:11   */\n      dup2\n        /* \"--CODEGEN--\":5:16   */\n      lt\n        /* \"--CODEGEN--\":2:4   */\n      iszero\n      tag_39\n      jumpi\n        /* \"--CODEGEN--\":29:30   */\n      0x00\n        /* \"--CODEGEN--\":26:27   */\n      dup1\n        /* \"--CODEGEN--\":19:31   */\n      revert\n        /* \"--CODEGEN--\":2:4   */\n    tag_39:\n        /* \"QuadraticVoting.sol\":5877:6341  function stake(uint id, uint votes) checkParticipant checkValidProposal(id) checkEnabledProposal(id) checkTokenAmount(_calculateVoteCost(id, votes)) external {... */\n      dup2\n      add\n      swap1\n      dup1\n      dup1\n      calldataload\n      swap1\n      0x20\n      add\n      swap1\n      swap3\n      swap2\n      swap1\n      dup1\n      calldataload\n      swap1\n      0x20\n      add\n      swap1\n      swap3\n      swap2\n      swap1\n      pop\n      pop\n      pop\n      tag_40\n      jump\t// in\n    tag_38:\n      stop\n        /* \"QuadraticVoting.sol\":5094:5599  function getSignalingProposals() checkOpenVoting external returns(uint[] memory) {... */\n    tag_7:\n      callvalue\n        /* \"--CODEGEN--\":8:17   */\n      dup1\n        /* \"--CODEGEN--\":5:7   */\n      iszero\n      tag_41\n      jumpi\n        /* \"--CODEGEN--\":30:31   */\n      0x00\n        /* \"--CODEGEN--\":27:28   */\n      dup1\n        /* \"--CODEGEN--\":20:32   */\n      revert\n        /* \"--CODEGEN--\":5:7   */\n    tag_41:\n        /* \"QuadraticVoting.sol\":5094:5599  function getSignalingProposals() checkOpenVoting external returns(uint[] memory) {... */\n      pop\n      tag_42\n      tag_43\n      jump\t// in\n    tag_42:\n      mload(0x40)\n      dup1\n      dup1\n      0x20\n      add\n      dup3\n      dup2\n      sub\n      dup3\n      mstore\n      dup4\n      dup2\n      dup2\n      mload\n      dup2\n      mstore\n      0x20\n      add\n      swap2\n      pop\n      dup1\n      mload\n      swap1\n      0x20\n      add\n      swap1\n      0x20\n      mul\n      dup1\n      dup4\n      dup4\n        /* \"--CODEGEN--\":23:24   */\n      0x00\n        /* \"--CODEGEN--\":8:108   */\n    tag_44:\n        /* \"--CODEGEN--\":33:36   */\n      dup4\n        /* \"--CODEGEN--\":30:31   */\n      dup2\n        /* \"--CODEGEN--\":27:37   */\n      lt\n        /* \"--CODEGEN--\":8:108   */\n      iszero\n      tag_46\n      jumpi\n        /* \"--CODEGEN--\":99:100   */\n      dup1\n        /* \"--CODEGEN--\":94:97   */\n      dup3\n        /* \"--CODEGEN--\":90:101   */\n      add\n        /* \"--CODEGEN--\":84:102   */\n      mload\n        /* \"--CODEGEN--\":80:81   */\n      dup2\n        /* \"--CODEGEN--\":75:78   */\n      dup5\n        /* \"--CODEGEN--\":71:82   */\n      add\n        /* \"--CODEGEN--\":64:103   */\n      mstore\n        /* \"--CODEGEN--\":52:54   */\n      0x20\n        /* \"--CODEGEN--\":49:50   */\n      dup2\n        /* \"--CODEGEN--\":45:55   */\n      add\n        /* \"--CODEGEN--\":40:55   */\n      swap1\n      pop\n        /* \"--CODEGEN--\":8:108   */\n      jump(tag_44)\n    tag_46:\n        /* \"--CODEGEN--\":12:26   */\n      pop\n        /* \"QuadraticVoting.sol\":5094:5599  function getSignalingProposals() checkOpenVoting external returns(uint[] memory) {... */\n      pop\n      pop\n      pop\n      swap1\n      pop\n      add\n      swap3\n      pop\n      pop\n      pop\n      mload(0x40)\n      dup1\n      swap2\n      sub\n      swap1\n      return\n        /* \"QuadraticVoting.sol\":2581:3349  function addProposal(string calldata title, string calldata description, uint budget, address executableProposal) checkParticipant checkOpenVoting external returns(uint) {... */\n    tag_8:\n      callvalue\n        /* \"--CODEGEN--\":8:17   */\n      dup1\n        /* \"--CODEGEN--\":5:7   */\n      iszero\n      tag_47\n      jumpi\n        /* \"--CODEGEN--\":30:31   */\n      0x00\n        /* \"--CODEGEN--\":27:28   */\n      dup1\n        /* \"--CODEGEN--\":20:32   */\n      revert\n        /* \"--CODEGEN--\":5:7   */\n    tag_47:\n        /* \"QuadraticVoting.sol\":2581:3349  function addProposal(string calldata title, string calldata description, uint budget, address executableProposal) checkParticipant checkOpenVoting external returns(uint) {... */\n      pop\n      tag_48\n      0x04\n      dup1\n      calldatasize\n      sub\n        /* \"--CODEGEN--\":13:16   */\n      0x80\n        /* \"--CODEGEN--\":8:11   */\n      dup2\n        /* \"--CODEGEN--\":5:17   */\n      lt\n        /* \"--CODEGEN--\":2:4   */\n      iszero\n      tag_49\n      jumpi\n        /* \"--CODEGEN--\":30:31   */\n      0x00\n        /* \"--CODEGEN--\":27:28   */\n      dup1\n        /* \"--CODEGEN--\":20:32   */\n      revert\n        /* \"--CODEGEN--\":2:4   */\n    tag_49:\n        /* \"QuadraticVoting.sol\":2581:3349  function addProposal(string calldata title, string calldata description, uint budget, address executableProposal) checkParticipant checkOpenVoting external returns(uint) {... */\n      dup2\n      add\n      swap1\n      dup1\n      dup1\n      calldataload\n      swap1\n      0x20\n      add\n      swap1\n        /* \"--CODEGEN--\":21:32   */\n      0x0100000000\n        /* \"--CODEGEN--\":8:19   */\n      dup2\n        /* \"--CODEGEN--\":5:33   */\n      gt\n        /* \"--CODEGEN--\":2:4   */\n      iszero\n      tag_50\n      jumpi\n        /* \"--CODEGEN--\":46:47   */\n      0x00\n        /* \"--CODEGEN--\":43:44   */\n      dup1\n        /* \"--CODEGEN--\":36:48   */\n      revert\n        /* \"--CODEGEN--\":2:4   */\n    tag_50:\n        /* \"QuadraticVoting.sol\":2581:3349  function addProposal(string calldata title, string calldata description, uint budget, address executableProposal) checkParticipant checkOpenVoting external returns(uint) {... */\n      dup3\n      add\n        /* \"--CODEGEN--\":35:44   */\n      dup4\n        /* \"--CODEGEN--\":28:32   */\n      0x20\n        /* \"--CODEGEN--\":12:26   */\n      dup3\n        /* \"--CODEGEN--\":8:33   */\n      add\n        /* \"--CODEGEN--\":5:45   */\n      gt\n        /* \"--CODEGEN--\":2:4   */\n      iszero\n      tag_51\n      jumpi\n        /* \"--CODEGEN--\":58:59   */\n      0x00\n        /* \"--CODEGEN--\":55:56   */\n      dup1\n        /* \"--CODEGEN--\":48:60   */\n      revert\n        /* \"--CODEGEN--\":2:4   */\n    tag_51:\n        /* \"QuadraticVoting.sol\":2581:3349  function addProposal(string calldata title, string calldata description, uint budget, address executableProposal) checkParticipant checkOpenVoting external returns(uint) {... */\n      dup1\n      calldataload\n      swap1\n      0x20\n      add\n      swap2\n        /* \"--CODEGEN--\":100:109   */\n      dup5\n        /* \"--CODEGEN--\":95:96   */\n      0x01\n        /* \"--CODEGEN--\":81:93   */\n      dup4\n        /* \"--CODEGEN--\":77:97   */\n      mul\n        /* \"--CODEGEN--\":67:75   */\n      dup5\n        /* \"--CODEGEN--\":63:98   */\n      add\n        /* \"--CODEGEN--\":60:110   */\n      gt\n        /* \"--CODEGEN--\":39:50   */\n      0x0100000000\n        /* \"--CODEGEN--\":25:37   */\n      dup4\n        /* \"--CODEGEN--\":22:51   */\n      gt\n        /* \"--CODEGEN--\":11:118   */\n      or\n        /* \"--CODEGEN--\":8:10   */\n      iszero\n      tag_52\n      jumpi\n        /* \"--CODEGEN--\":131:132   */\n      0x00\n        /* \"--CODEGEN--\":128:129   */\n      dup1\n        /* \"--CODEGEN--\":121:133   */\n      revert\n        /* \"--CODEGEN--\":8:10   */\n    tag_52:\n        /* \"QuadraticVoting.sol\":2581:3349  function addProposal(string calldata title, string calldata description, uint budget, address executableProposal) checkParticipant checkOpenVoting external returns(uint) {... */\n      swap1\n      swap2\n      swap3\n      swap4\n      swap2\n      swap3\n      swap4\n      swap1\n      dup1\n      calldataload\n      swap1\n      0x20\n      add\n      swap1\n        /* \"--CODEGEN--\":21:32   */\n      0x0100000000\n        /* \"--CODEGEN--\":8:19   */\n      dup2\n        /* \"--CODEGEN--\":5:33   */\n      gt\n        /* \"--CODEGEN--\":2:4   */\n      iszero\n      tag_53\n      jumpi\n        /* \"--CODEGEN--\":46:47   */\n      0x00\n        /* \"--CODEGEN--\":43:44   */\n      dup1\n        /* \"--CODEGEN--\":36:48   */\n      revert\n        /* \"--CODEGEN--\":2:4   */\n    tag_53:\n        /* \"QuadraticVoting.sol\":2581:3349  function addProposal(string calldata title, string calldata description, uint budget, address executableProposal) checkParticipant checkOpenVoting external returns(uint) {... */\n      dup3\n      add\n        /* \"--CODEGEN--\":35:44   */\n      dup4\n        /* \"--CODEGEN--\":28:32   */\n      0x20\n        /* \"--CODEGEN--\":12:26   */\n      dup3\n        /* \"--CODEGEN--\":8:33   */\n      add\n        /* \"--CODEGEN--\":5:45   */\n      gt\n        /* \"--CODEGEN--\":2:4   */\n      iszero\n      tag_54\n      jumpi\n        /* \"--CODEGEN--\":58:59   */\n      0x00\n        /* \"--CODEGEN--\":55:56   */\n      dup1\n        /* \"--CODEGEN--\":48:60   */\n      revert\n        /* \"--CODEGEN--\":2:4   */\n    tag_54:\n        /* \"QuadraticVoting.sol\":2581:3349  function addProposal(string calldata title, string calldata description, uint budget, address executableProposal) checkParticipant checkOpenVoting external returns(uint) {... */\n      dup1\n      calldataload\n      swap1\n      0x20\n      add\n      swap2\n        /* \"--CODEGEN--\":100:109   */\n      dup5\n        /* \"--CODEGEN--\":95:96   */\n      0x01\n        /* \"--CODEGEN--\":81:93   */\n      dup4\n        /* \"--CODEGEN--\":77:97   */\n      mul\n        /* \"--CODEGEN--\":67:75   */\n      dup5\n        /* \"--CODEGEN--\":63:98   */\n      add\n        /* \"--CODEGEN--\":60:110   */\n      gt\n        /* \"--CODEGEN--\":39:50   */\n      0x0100000000\n        /* \"--CODEGEN--\":25:37   */\n      dup4\n        /* \"--CODEGEN--\":22:51   */\n      gt\n        /* \"--CODEGEN--\":11:118   */\n      or\n        /* \"--CODEGEN--\":8:10   */\n      iszero\n      tag_55\n      jumpi\n        /* \"--CODEGEN--\":131:132   */\n      0x00\n        /* \"--CODEGEN--\":128:129   */\n      dup1\n        /* \"--CODEGEN--\":121:133   */\n      revert\n        /* \"--CODEGEN--\":8:10   */\n    tag_55:\n        /* \"QuadraticVoting.sol\":2581:3349  function addProposal(string calldata title, string calldata description, uint budget, address executableProposal) checkParticipant checkOpenVoting external returns(uint) {... */\n      swap1\n      swap2\n      swap3\n      swap4\n      swap2\n      swap3\n      swap4\n      swap1\n      dup1\n      calldataload\n      swap1\n      0x20\n      add\n      swap1\n      swap3\n      swap2\n      swap1\n      dup1\n      calldataload\n      0xffffffffffffffffffffffffffffffffffffffff\n      and\n      swap1\n      0x20\n      add\n      swap1\n      swap3\n      swap2\n      swap1\n      pop\n      pop\n      pop\n      tag_56\n      jump\t// in\n    tag_48:\n      mload(0x40)\n      dup1\n      dup3\n      dup2\n      mstore\n      0x20\n      add\n      swap2\n      pop\n      pop\n      mload(0x40)\n      dup1\n      swap2\n      sub\n      swap1\n      return\n        /* \"QuadraticVoting.sol\":4087:4582  function getPendingProposals() checkOpenVoting external returns(uint[] memory) {... */\n    tag_9:\n      callvalue\n        /* \"--CODEGEN--\":8:17   */\n      dup1\n        /* \"--CODEGEN--\":5:7   */\n      iszero\n      tag_57\n      jumpi\n        /* \"--CODEGEN--\":30:31   */\n      0x00\n        /* \"--CODEGEN--\":27:28   */\n      dup1\n        /* \"--CODEGEN--\":20:32   */\n      revert\n        /* \"--CODEGEN--\":5:7   */\n    tag_57:\n        /* \"QuadraticVoting.sol\":4087:4582  function getPendingProposals() checkOpenVoting external returns(uint[] memory) {... */\n      pop\n      tag_58\n      tag_59\n      jump\t// in\n    tag_58:\n      mload(0x40)\n      dup1\n      dup1\n      0x20\n      add\n      dup3\n      dup2\n      sub\n      dup3\n      mstore\n      dup4\n      dup2\n      dup2\n      mload\n      dup2\n      mstore\n      0x20\n      add\n      swap2\n      pop\n      dup1\n      mload\n      swap1\n      0x20\n      add\n      swap1\n      0x20\n      mul\n      dup1\n      dup4\n      dup4\n        /* \"--CODEGEN--\":23:24   */\n      0x00\n        /* \"--CODEGEN--\":8:108   */\n    tag_60:\n        /* \"--CODEGEN--\":33:36   */\n      dup4\n        /* \"--CODEGEN--\":30:31   */\n      dup2\n        /* \"--CODEGEN--\":27:37   */\n      lt\n        /* \"--CODEGEN--\":8:108   */\n      iszero\n      tag_62\n      jumpi\n        /* \"--CODEGEN--\":99:100   */\n      dup1\n        /* \"--CODEGEN--\":94:97   */\n      dup3\n        /* \"--CODEGEN--\":90:101   */\n      add\n        /* \"--CODEGEN--\":84:102   */\n      mload\n        /* \"--CODEGEN--\":80:81   */\n      dup2\n        /* \"--CODEGEN--\":75:78   */\n      dup5\n        /* \"--CODEGEN--\":71:82   */\n      add\n        /* \"--CODEGEN--\":64:103   */\n      mstore\n        /* \"--CODEGEN--\":52:54   */\n      0x20\n        /* \"--CODEGEN--\":49:50   */\n      dup2\n        /* \"--CODEGEN--\":45:55   */\n      add\n        /* \"--CODEGEN--\":40:55   */\n      swap1\n      pop\n        /* \"--CODEGEN--\":8:108   */\n      jump(tag_60)\n    tag_62:\n        /* \"--CODEGEN--\":12:26   */\n      pop\n        /* \"QuadraticVoting.sol\":4087:4582  function getPendingProposals() checkOpenVoting external returns(uint[] memory) {... */\n      pop\n      pop\n      pop\n      swap1\n      pop\n      add\n      swap3\n      pop\n      pop\n      pop\n      mload(0x40)\n      dup1\n      swap2\n      sub\n      swap1\n      return\n        /* \"QuadraticVoting.sol\":2163:2331  function openVoting() checkOwner checkCanOpenVoting external payable {... */\n    tag_10:\n      tag_63\n      tag_64\n      jump\t// in\n    tag_63:\n      stop\n        /* \"QuadraticVoting.sol\":5605:5871  function getProposalInfo(uint id) checkOpenVoting view external returns(string memory title, string memory description, IExecutableProposal executableProposal) {... */\n    tag_11:\n      callvalue\n        /* \"--CODEGEN--\":8:17   */\n      dup1\n        /* \"--CODEGEN--\":5:7   */\n      iszero\n      tag_65\n      jumpi\n        /* \"--CODEGEN--\":30:31   */\n      0x00\n        /* \"--CODEGEN--\":27:28   */\n      dup1\n        /* \"--CODEGEN--\":20:32   */\n      revert\n        /* \"--CODEGEN--\":5:7   */\n    tag_65:\n        /* \"QuadraticVoting.sol\":5605:5871  function getProposalInfo(uint id) checkOpenVoting view external returns(string memory title, string memory description, IExecutableProposal executableProposal) {... */\n      pop\n      tag_66\n      0x04\n      dup1\n      calldatasize\n      sub\n        /* \"--CODEGEN--\":13:15   */\n      0x20\n        /* \"--CODEGEN--\":8:11   */\n      dup2\n        /* \"--CODEGEN--\":5:16   */\n      lt\n        /* \"--CODEGEN--\":2:4   */\n      iszero\n      tag_67\n      jumpi\n        /* \"--CODEGEN--\":29:30   */\n      0x00\n        /* \"--CODEGEN--\":26:27   */\n      dup1\n        /* \"--CODEGEN--\":19:31   */\n      revert\n        /* \"--CODEGEN--\":2:4   */\n    tag_67:\n        /* \"QuadraticVoting.sol\":5605:5871  function getProposalInfo(uint id) checkOpenVoting view external returns(string memory title, string memory description, IExecutableProposal executableProposal) {... */\n      dup2\n      add\n      swap1\n      dup1\n      dup1\n      calldataload\n      swap1\n      0x20\n      add\n      swap1\n      swap3\n      swap2\n      swap1\n      pop\n      pop\n      pop\n      tag_68\n      jump\t// in\n    tag_66:\n      mload(0x40)\n      dup1\n      dup1\n      0x20\n      add\n      dup1\n      0x20\n      add\n      dup5\n      0xffffffffffffffffffffffffffffffffffffffff\n      and\n      0xffffffffffffffffffffffffffffffffffffffff\n      and\n      dup2\n      mstore\n      0x20\n      add\n      dup4\n      dup2\n      sub\n      dup4\n      mstore\n      dup7\n      dup2\n      dup2\n      mload\n      dup2\n      mstore\n      0x20\n      add\n      swap2\n      pop\n      dup1\n      mload\n      swap1\n      0x20\n      add\n      swap1\n      dup1\n      dup4\n      dup4\n        /* \"--CODEGEN--\":23:24   */\n      0x00\n        /* \"--CODEGEN--\":8:108   */\n    tag_69:\n        /* \"--CODEGEN--\":33:36   */\n      dup4\n        /* \"--CODEGEN--\":30:31   */\n      dup2\n        /* \"--CODEGEN--\":27:37   */\n      lt\n        /* \"--CODEGEN--\":8:108   */\n      iszero\n      tag_71\n      jumpi\n        /* \"--CODEGEN--\":99:100   */\n      dup1\n        /* \"--CODEGEN--\":94:97   */\n      dup3\n        /* \"--CODEGEN--\":90:101   */\n      add\n        /* \"--CODEGEN--\":84:102   */\n      mload\n        /* \"--CODEGEN--\":80:81   */\n      dup2\n        /* \"--CODEGEN--\":75:78   */\n      dup5\n        /* \"--CODEGEN--\":71:82   */\n      add\n        /* \"--CODEGEN--\":64:103   */\n      mstore\n        /* \"--CODEGEN--\":52:54   */\n      0x20\n        /* \"--CODEGEN--\":49:50   */\n      dup2\n        /* \"--CODEGEN--\":45:55   */\n      add\n        /* \"--CODEGEN--\":40:55   */\n      swap1\n      pop\n        /* \"--CODEGEN--\":8:108   */\n      jump(tag_69)\n    tag_71:\n        /* \"--CODEGEN--\":12:26   */\n      pop\n        /* \"QuadraticVoting.sol\":5605:5871  function getProposalInfo(uint id) checkOpenVoting view external returns(string memory title, string memory description, IExecutableProposal executableProposal) {... */\n      pop\n      pop\n      pop\n      swap1\n      pop\n      swap1\n      dup2\n      add\n      swap1\n      0x1f\n      and\n      dup1\n      iszero\n      tag_72\n      jumpi\n      dup1\n      dup3\n      sub\n      dup1\n      mload\n      0x01\n      dup4\n      0x20\n      sub\n      0x0100\n      exp\n      sub\n      not\n      and\n      dup2\n      mstore\n      0x20\n      add\n      swap2\n      pop\n    tag_72:\n      pop\n      dup4\n      dup2\n      sub\n      dup3\n      mstore\n      dup6\n      dup2\n      dup2\n      mload\n      dup2\n      mstore\n      0x20\n      add\n      swap2\n      pop\n      dup1\n      mload\n      swap1\n      0x20\n      add\n      swap1\n      dup1\n      dup4\n      dup4\n        /* \"--CODEGEN--\":23:24   */\n      0x00\n        /* \"--CODEGEN--\":8:108   */\n    tag_73:\n        /* \"--CODEGEN--\":33:36   */\n      dup4\n        /* \"--CODEGEN--\":30:31   */\n      dup2\n        /* \"--CODEGEN--\":27:37   */\n      lt\n        /* \"--CODEGEN--\":8:108   */\n      iszero\n      tag_75\n      jumpi\n        /* \"--CODEGEN--\":99:100   */\n      dup1\n        /* \"--CODEGEN--\":94:97   */\n      dup3\n        /* \"--CODEGEN--\":90:101   */\n      add\n        /* \"--CODEGEN--\":84:102   */\n      mload\n        /* \"--CODEGEN--\":80:81   */\n      dup2\n        /* \"--CODEGEN--\":75:78   */\n      dup5\n        /* \"--CODEGEN--\":71:82   */\n      add\n        /* \"--CODEGEN--\":64:103   */\n      mstore\n        /* \"--CODEGEN--\":52:54   */\n      0x20\n        /* \"--CODEGEN--\":49:50   */\n      dup2\n        /* \"--CODEGEN--\":45:55   */\n      add\n        /* \"--CODEGEN--\":40:55   */\n      swap1\n      pop\n        /* \"--CODEGEN--\":8:108   */\n      jump(tag_73)\n    tag_75:\n        /* \"--CODEGEN--\":12:26   */\n      pop\n        /* \"QuadraticVoting.sol\":5605:5871  function getProposalInfo(uint id) checkOpenVoting view external returns(string memory title, string memory description, IExecutableProposal executableProposal) {... */\n      pop\n      pop\n      pop\n      swap1\n      pop\n      swap1\n      dup2\n      add\n      swap1\n      0x1f\n      and\n      dup1\n      iszero\n      tag_76\n      jumpi\n      dup1\n      dup3\n      sub\n      dup1\n      mload\n      0x01\n      dup4\n      0x20\n      sub\n      0x0100\n      exp\n      sub\n      not\n      and\n      dup2\n      mstore\n      0x20\n      add\n      swap2\n      pop\n    tag_76:\n      pop\n      swap6\n      pop\n      pop\n      pop\n      pop\n      pop\n      pop\n      mload(0x40)\n      dup1\n      swap2\n      sub\n      swap1\n      return\n        /* \"QuadraticVoting.sol\":8582:8712  function closeVoting() checkOwner external {... */\n    tag_12:\n      callvalue\n        /* \"--CODEGEN--\":8:17   */\n      dup1\n        /* \"--CODEGEN--\":5:7   */\n      iszero\n      tag_77\n      jumpi\n        /* \"--CODEGEN--\":30:31   */\n      0x00\n        /* \"--CODEGEN--\":27:28   */\n      dup1\n        /* \"--CODEGEN--\":20:32   */\n      revert\n        /* \"--CODEGEN--\":5:7   */\n    tag_77:\n        /* \"QuadraticVoting.sol\":8582:8712  function closeVoting() checkOwner external {... */\n      pop\n      tag_78\n      tag_79\n      jump\t// in\n    tag_78:\n      stop\n        /* \"QuadraticVoting.sol\":3588:3791  function buyTokens() checkParticipant checkMinimumPurchaseAmount(msg.value) checkMaxTokens(msg.value / tokenPrice) external payable {... */\n    tag_13:\n      tag_80\n      tag_81\n      jump\t// in\n    tag_80:\n      stop\n        /* \"QuadraticVoting.sol\":8718:8858  function executeSignaling(uint id) checkParticipant checkProposalOwner(id) checkWaitingVoting external {... */\n    tag_14:\n      callvalue\n        /* \"--CODEGEN--\":8:17   */\n      dup1\n        /* \"--CODEGEN--\":5:7   */\n      iszero\n      tag_82\n      jumpi\n        /* \"--CODEGEN--\":30:31   */\n      0x00\n        /* \"--CODEGEN--\":27:28   */\n      dup1\n        /* \"--CODEGEN--\":20:32   */\n      revert\n        /* \"--CODEGEN--\":5:7   */\n    tag_82:\n        /* \"QuadraticVoting.sol\":8718:8858  function executeSignaling(uint id) checkParticipant checkProposalOwner(id) checkWaitingVoting external {... */\n      pop\n      tag_83\n      0x04\n      dup1\n      calldatasize\n      sub\n        /* \"--CODEGEN--\":13:15   */\n      0x20\n        /* \"--CODEGEN--\":8:11   */\n      dup2\n        /* \"--CODEGEN--\":5:16   */\n      lt\n        /* \"--CODEGEN--\":2:4   */\n      iszero\n      tag_84\n      jumpi\n        /* \"--CODEGEN--\":29:30   */\n      0x00\n        /* \"--CODEGEN--\":26:27   */\n      dup1\n        /* \"--CODEGEN--\":19:31   */\n      revert\n        /* \"--CODEGEN--\":2:4   */\n    tag_84:\n        /* \"QuadraticVoting.sol\":8718:8858  function executeSignaling(uint id) checkParticipant checkProposalOwner(id) checkWaitingVoting external {... */\n      dup2\n      add\n      swap1\n      dup1\n      dup1\n      calldataload\n      swap1\n      0x20\n      add\n      swap1\n      swap3\n      swap2\n      swap1\n      pop\n      pop\n      pop\n      tag_85\n      jump\t// in\n    tag_83:\n      stop\n        /* \"QuadraticVoting.sol\":3355:3582  function cancelProposal(uint id) checkParticipant checkOpenVoting checkProposalOwner(id) checkEnabledProposal(id) external {... */\n    tag_15:\n      callvalue\n        /* \"--CODEGEN--\":8:17   */\n      dup1\n        /* \"--CODEGEN--\":5:7   */\n      iszero\n      tag_86\n      jumpi\n        /* \"--CODEGEN--\":30:31   */\n      0x00\n        /* \"--CODEGEN--\":27:28   */\n      dup1\n        /* \"--CODEGEN--\":20:32   */\n      revert\n        /* \"--CODEGEN--\":5:7   */\n    tag_86:\n        /* \"QuadraticVoting.sol\":3355:3582  function cancelProposal(uint id) checkParticipant checkOpenVoting checkProposalOwner(id) checkEnabledProposal(id) external {... */\n      pop\n      tag_87\n      0x04\n      dup1\n      calldatasize\n      sub\n        /* \"--CODEGEN--\":13:15   */\n      0x20\n        /* \"--CODEGEN--\":8:11   */\n      dup2\n        /* \"--CODEGEN--\":5:16   */\n      lt\n        /* \"--CODEGEN--\":2:4   */\n      iszero\n      tag_88\n      jumpi\n        /* \"--CODEGEN--\":29:30   */\n      0x00\n        /* \"--CODEGEN--\":26:27   */\n      dup1\n        /* \"--CODEGEN--\":19:31   */\n      revert\n        /* \"--CODEGEN--\":2:4   */\n    tag_88:\n        /* \"QuadraticVoting.sol\":3355:3582  function cancelProposal(uint id) checkParticipant checkOpenVoting checkProposalOwner(id) checkEnabledProposal(id) external {... */\n      dup2\n      add\n      swap1\n      dup1\n      dup1\n      calldataload\n      swap1\n      0x20\n      add\n      swap1\n      swap3\n      swap2\n      swap1\n      pop\n      pop\n      pop\n      tag_89\n      jump\t// in\n    tag_87:\n      stop\n        /* \"QuadraticVoting.sol\":2337:2575  function addParticipant() checkMinimumPurchaseAmount(msg.value) checkNonParticipant external payable {... */\n    tag_16:\n      tag_90\n      tag_91\n      jump\t// in\n    tag_90:\n      stop\n        /* \"QuadraticVoting.sol\":4588:5088  function getApprovedProposals() checkOpenVoting external returns(uint[] memory) {... */\n    tag_22:\n        /* \"QuadraticVoting.sol\":4653:4666  uint[] memory */\n      0x60\n        /* \"QuadraticVoting.sol\":9397:9422  QuadraticVotingState.OPEN */\n      0x01\n        /* \"QuadraticVoting.sol\":9382:9422  votingState == QuadraticVotingState.OPEN */\n      0x02\n      dup2\n      gt\n      iszero\n      tag_93\n      jumpi\n      invalid\n    tag_93:\n        /* \"QuadraticVoting.sol\":9382:9393  votingState */\n      0x01\n      0x14\n      swap1\n      sload\n      swap1\n      0x0100\n      exp\n      swap1\n      div\n      0xff\n      and\n        /* \"QuadraticVoting.sol\":9382:9422  votingState == QuadraticVotingState.OPEN */\n      0x02\n      dup2\n      gt\n      iszero\n      tag_94\n      jumpi\n      invalid\n    tag_94:\n      eq\n        /* \"QuadraticVoting.sol\":9374:9442  require(votingState == QuadraticVotingState.OPEN, \"Voting not open\") */\n      tag_95\n      jumpi\n      mload(0x40)\n      0x08c379a000000000000000000000000000000000000000000000000000000000\n      dup2\n      mstore\n      0x04\n      add\n      dup1\n      dup1\n      0x20\n      add\n      dup3\n      dup2\n      sub\n      dup3\n      mstore\n      0x0f\n      dup2\n      mstore\n      0x20\n      add\n      dup1\n      0x566f74696e67206e6f74206f70656e0000000000000000000000000000000000\n      dup2\n      mstore\n      pop\n      0x20\n      add\n      swap2\n      pop\n      pop\n      mload(0x40)\n      dup1\n      swap2\n      sub\n      swap1\n      revert\n    tag_95:\n        /* \"QuadraticVoting.sol\":4685:4705  approvedProposalsIds */\n      0x0b\n      0x00\n        /* \"QuadraticVoting.sol\":4678:4705  delete approvedProposalsIds */\n      tag_97\n      swap2\n      swap1\n      tag_98\n      jump\t// in\n    tag_97:\n        /* \"QuadraticVoting.sol\":4822:4829  uint id */\n      0x00\n        /* \"QuadraticVoting.sol\":4832:4849  initialProposalId */\n      sload(0x08)\n        /* \"QuadraticVoting.sol\":4822:4849  uint id = initialProposalId */\n      swap1\n      pop\n        /* \"QuadraticVoting.sol\":4817:5044  for (uint id = initialProposalId; id <= lastProposalId; id++) {... */\n    tag_99:\n        /* \"QuadraticVoting.sol\":4857:4871  lastProposalId */\n      sload(0x09)\n        /* \"QuadraticVoting.sol\":4851:4853  id */\n      dup2\n        /* \"QuadraticVoting.sol\":4851:4871  id <= lastProposalId */\n      gt\n        /* \"QuadraticVoting.sol\":4817:5044  for (uint id = initialProposalId; id <= lastProposalId; id++) {... */\n      tag_100\n      jumpi\n        /* \"QuadraticVoting.sol\":4920:4942  ProposalState.APPROVED */\n      0x02\n        /* \"QuadraticVoting.sol\":4897:4942  proposals[id].state == ProposalState.APPROVED */\n      dup1\n      dup2\n      gt\n      iszero\n      tag_102\n      jumpi\n      invalid\n    tag_102:\n        /* \"QuadraticVoting.sol\":4897:4906  proposals */\n      0x07\n        /* \"QuadraticVoting.sol\":4897:4910  proposals[id] */\n      0x00\n        /* \"QuadraticVoting.sol\":4907:4909  id */\n      dup4\n        /* \"QuadraticVoting.sol\":4897:4910  proposals[id] */\n      dup2\n      mstore\n      0x20\n      add\n      swap1\n      dup2\n      mstore\n      0x20\n      add\n      0x00\n      keccak256\n        /* \"QuadraticVoting.sol\":4897:4916  proposals[id].state */\n      0x08\n      add\n      0x00\n      swap1\n      sload\n      swap1\n      0x0100\n      exp\n      swap1\n      div\n      0xff\n      and\n        /* \"QuadraticVoting.sol\":4897:4942  proposals[id].state == ProposalState.APPROVED */\n      0x02\n      dup2\n      gt\n      iszero\n      tag_103\n      jumpi\n      invalid\n    tag_103:\n      eq\n        /* \"QuadraticVoting.sol\":4897:4970  proposals[id].state == ProposalState.APPROVED && proposals[id].budget > 0 */\n      dup1\n      iszero\n      tag_104\n      jumpi\n      pop\n        /* \"QuadraticVoting.sol\":4969:4970  0 */\n      0x00\n        /* \"QuadraticVoting.sol\":4946:4955  proposals */\n      0x07\n        /* \"QuadraticVoting.sol\":4946:4959  proposals[id] */\n      0x00\n        /* \"QuadraticVoting.sol\":4956:4958  id */\n      dup4\n        /* \"QuadraticVoting.sol\":4946:4959  proposals[id] */\n      dup2\n      mstore\n      0x20\n      add\n      swap1\n      dup2\n      mstore\n      0x20\n      add\n      0x00\n      keccak256\n        /* \"QuadraticVoting.sol\":4946:4966  proposals[id].budget */\n      0x04\n      add\n      sload\n        /* \"QuadraticVoting.sol\":4946:4970  proposals[id].budget > 0 */\n      gt\n        /* \"QuadraticVoting.sol\":4897:4970  proposals[id].state == ProposalState.APPROVED && proposals[id].budget > 0 */\n    tag_104:\n        /* \"QuadraticVoting.sol\":4893:5034  if (proposals[id].state == ProposalState.APPROVED && proposals[id].budget > 0) {... */\n      iszero\n      tag_105\n      jumpi\n        /* \"QuadraticVoting.sol\":4990:5010  approvedProposalsIds */\n      0x0b\n        /* \"QuadraticVoting.sol\":5016:5018  id */\n      dup2\n        /* \"QuadraticVoting.sol\":4990:5019  approvedProposalsIds.push(id) */\n      swap1\n      dup1\n        /* \"--CODEGEN--\":39:40   */\n      0x01\n        /* \"--CODEGEN--\":33:36   */\n      dup2\n        /* \"--CODEGEN--\":27:37   */\n      sload\n        /* \"--CODEGEN--\":23:41   */\n      add\n        /* \"--CODEGEN--\":57:67   */\n      dup1\n        /* \"--CODEGEN--\":52:55   */\n      dup3\n        /* \"--CODEGEN--\":45:68   */\n      sstore\n        /* \"--CODEGEN--\":79:89   */\n      dup1\n        /* \"--CODEGEN--\":72:89   */\n      swap2\n      pop\n        /* \"--CODEGEN--\":0:93   */\n      pop\n        /* \"QuadraticVoting.sol\":4990:5019  approvedProposalsIds.push(id) */\n      swap1\n      0x01\n      dup3\n      sub\n      swap1\n      0x00\n      mstore\n      keccak256(0x00, 0x20)\n      add\n      0x00\n      swap1\n      swap2\n      swap3\n      swap1\n      swap2\n      swap1\n      swap2\n      pop\n      sstore\n      pop\n        /* \"QuadraticVoting.sol\":4893:5034  if (proposals[id].state == ProposalState.APPROVED && proposals[id].budget > 0) {... */\n    tag_105:\n        /* \"QuadraticVoting.sol\":4873:4877  id++ */\n      dup1\n      dup1\n      0x01\n      add\n      swap2\n      pop\n      pop\n        /* \"QuadraticVoting.sol\":4817:5044  for (uint id = initialProposalId; id <= lastProposalId; id++) {... */\n      jump(tag_99)\n    tag_100:\n      pop\n        /* \"QuadraticVoting.sol\":5061:5081  approvedProposalsIds */\n      0x0b\n        /* \"QuadraticVoting.sol\":5054:5081  return approvedProposalsIds */\n      dup1\n      sload\n      dup1\n      0x20\n      mul\n      0x20\n      add\n      mload(0x40)\n      swap1\n      dup2\n      add\n      0x40\n      mstore\n      dup1\n      swap3\n      swap2\n      swap1\n      dup2\n      dup2\n      mstore\n      0x20\n      add\n      dup3\n      dup1\n      sload\n      dup1\n      iszero\n      tag_107\n      jumpi\n      0x20\n      mul\n      dup3\n      add\n      swap2\n      swap1\n      0x00\n      mstore\n      keccak256(0x00, 0x20)\n      swap1\n    tag_108:\n      dup2\n      sload\n      dup2\n      mstore\n      0x20\n      add\n      swap1\n      0x01\n      add\n      swap1\n      dup1\n      dup4\n      gt\n      tag_108\n      jumpi\n    tag_107:\n      pop\n      pop\n      pop\n      pop\n      pop\n      swap1\n      pop\n        /* \"QuadraticVoting.sol\":4588:5088  function getApprovedProposals() checkOpenVoting external returns(uint[] memory) {... */\n      swap1\n      jump\t// out\n        /* \"QuadraticVoting.sol\":3992:4081  function getERC20() view external returns(UCMToken) {... */\n    tag_28:\n        /* \"QuadraticVoting.sol\":4034:4042  UCMToken */\n      0x00\n        /* \"QuadraticVoting.sol\":4061:4074  tokenContract */\n      0x01\n      0x00\n      swap1\n      sload\n      swap1\n      0x0100\n      exp\n      swap1\n      div\n      0xffffffffffffffffffffffffffffffffffffffff\n      and\n        /* \"QuadraticVoting.sol\":4054:4074  return tokenContract */\n      swap1\n      pop\n        /* \"QuadraticVoting.sol\":3992:4081  function getERC20() view external returns(UCMToken) {... */\n      swap1\n      jump\t// out\n        /* \"QuadraticVoting.sol\":7433:7701  function withdrawFromProposal(uint amount, uint id) checkParticipant checkValidProposal(id) checkVotes(id, amount) external {... */\n    tag_32:\n        /* \"QuadraticVoting.sol\":9010:9022  participants */\n      0x05\n        /* \"QuadraticVoting.sol\":9010:9034  participants[msg.sender] */\n      0x00\n        /* \"QuadraticVoting.sol\":9023:9033  msg.sender */\n      caller\n        /* \"QuadraticVoting.sol\":9010:9034  participants[msg.sender] */\n      0xffffffffffffffffffffffffffffffffffffffff\n      and\n      0xffffffffffffffffffffffffffffffffffffffff\n      and\n      dup2\n      mstore\n      0x20\n      add\n      swap1\n      dup2\n      mstore\n      0x20\n      add\n      0x00\n      keccak256\n      0x00\n      swap1\n      sload\n      swap1\n      0x0100\n      exp\n      swap1\n      div\n      0xff\n      and\n        /* \"QuadraticVoting.sol\":9002:9056  require(participants[msg.sender], \"Not a participant\") */\n      tag_111\n      jumpi\n      mload(0x40)\n      0x08c379a000000000000000000000000000000000000000000000000000000000\n      dup2\n      mstore\n      0x04\n      add\n      dup1\n      dup1\n      0x20\n      add\n      dup3\n      dup2\n      sub\n      dup3\n      mstore\n      0x11\n      dup2\n      mstore\n      0x20\n      add\n      dup1\n      0x4e6f742061207061727469636970616e74000000000000000000000000000000\n      dup2\n      mstore\n      pop\n      0x20\n      add\n      swap2\n      pop\n      pop\n      mload(0x40)\n      dup1\n      swap2\n      sub\n      swap1\n      revert\n    tag_111:\n        /* \"QuadraticVoting.sol\":7521:7523  id */\n      dup1\n        /* \"QuadraticVoting.sol\":10597:10599  id */\n      dup1\n        /* \"QuadraticVoting.sol\":10576:10593  initialProposalId */\n      sload(0x08)\n        /* \"QuadraticVoting.sol\":10576:10599  initialProposalId <= id */\n      gt\n      iszero\n        /* \"QuadraticVoting.sol\":10576:10623  initialProposalId <= id && id <= lastProposalId */\n      dup1\n      iszero\n      tag_113\n      jumpi\n      pop\n        /* \"QuadraticVoting.sol\":10609:10623  lastProposalId */\n      sload(0x09)\n        /* \"QuadraticVoting.sol\":10603:10605  id */\n      dup2\n        /* \"QuadraticVoting.sol\":10603:10623  id <= lastProposalId */\n      gt\n      iszero\n        /* \"QuadraticVoting.sol\":10576:10623  initialProposalId <= id && id <= lastProposalId */\n    tag_113:\n        /* \"QuadraticVoting.sol\":10568:10649  require(initialProposalId <= id && id <= lastProposalId, \"Proposal id not valid\") */\n      tag_114\n      jumpi\n      mload(0x40)\n      0x08c379a000000000000000000000000000000000000000000000000000000000\n      dup2\n      mstore\n      0x04\n      add\n      dup1\n      dup1\n      0x20\n      add\n      dup3\n      dup2\n      sub\n      dup3\n      mstore\n      0x15\n      dup2\n      mstore\n      0x20\n      add\n      dup1\n      0x50726f706f73616c206964206e6f742076616c69640000000000000000000000\n      dup2\n      mstore\n      pop\n      0x20\n      add\n      swap2\n      pop\n      pop\n      mload(0x40)\n      dup1\n      swap2\n      sub\n      swap1\n      revert\n    tag_114:\n        /* \"QuadraticVoting.sol\":7536:7538  id */\n      dup2\n        /* \"QuadraticVoting.sol\":7540:7546  amount */\n      dup4\n        /* \"QuadraticVoting.sol\":10011:10016  votes */\n      dup1\n        /* \"QuadraticVoting.sol\":9976:9985  proposals */\n      0x07\n        /* \"QuadraticVoting.sol\":9976:9989  proposals[id] */\n      0x00\n        /* \"QuadraticVoting.sol\":9986:9988  id */\n      dup5\n        /* \"QuadraticVoting.sol\":9976:9989  proposals[id] */\n      dup2\n      mstore\n      0x20\n      add\n      swap1\n      dup2\n      mstore\n      0x20\n      add\n      0x00\n      keccak256\n        /* \"QuadraticVoting.sol\":9976:9995  proposals[id].votes */\n      0x07\n      add\n        /* \"QuadraticVoting.sol\":9976:10007  proposals[id].votes[msg.sender] */\n      0x00\n        /* \"QuadraticVoting.sol\":9996:10006  msg.sender */\n      caller\n        /* \"QuadraticVoting.sol\":9976:10007  proposals[id].votes[msg.sender] */\n      0xffffffffffffffffffffffffffffffffffffffff\n      and\n      0xffffffffffffffffffffffffffffffffffffffff\n      and\n      dup2\n      mstore\n      0x20\n      add\n      swap1\n      dup2\n      mstore\n      0x20\n      add\n      0x00\n      keccak256\n      sload\n        /* \"QuadraticVoting.sol\":9976:10016  proposals[id].votes[msg.sender] >= votes */\n      lt\n      iszero\n        /* \"QuadraticVoting.sol\":9968:10033  require(proposals[id].votes[msg.sender] >= votes, \"Unauthorized\") */\n      tag_116\n      jumpi\n      mload(0x40)\n      0x08c379a000000000000000000000000000000000000000000000000000000000\n      dup2\n      mstore\n      0x04\n      add\n      dup1\n      dup1\n      0x20\n      add\n      dup3\n      dup2\n      sub\n      dup3\n      mstore\n      0x0c\n      dup2\n      mstore\n      0x20\n      add\n      dup1\n      0x556e617574686f72697a65640000000000000000000000000000000000000000\n      dup2\n      mstore\n      pop\n      0x20\n      add\n      swap2\n      pop\n      pop\n      mload(0x40)\n      dup1\n      swap2\n      sub\n      swap1\n      revert\n    tag_116:\n        /* \"QuadraticVoting.sol\":7594:7595  0 */\n      0x00\n        /* \"QuadraticVoting.sol\":7571:7580  proposals */\n      0x07\n        /* \"QuadraticVoting.sol\":7571:7584  proposals[id] */\n      0x00\n        /* \"QuadraticVoting.sol\":7581:7583  id */\n      dup7\n        /* \"QuadraticVoting.sol\":7571:7584  proposals[id] */\n      dup2\n      mstore\n      0x20\n      add\n      swap1\n      dup2\n      mstore\n      0x20\n      add\n      0x00\n      keccak256\n        /* \"QuadraticVoting.sol\":7571:7591  proposals[id].budget */\n      0x04\n      add\n      sload\n        /* \"QuadraticVoting.sol\":7571:7595  proposals[id].budget > 0 */\n      gt\n        /* \"QuadraticVoting.sol\":7567:7694  if (proposals[id].budget > 0) _withdrawFromFinanceProposal(amount, id);... */\n      iszero\n      tag_118\n      jumpi\n        /* \"QuadraticVoting.sol\":7597:7637  _withdrawFromFinanceProposal(amount, id) */\n      tag_119\n        /* \"QuadraticVoting.sol\":7626:7632  amount */\n      dup6\n        /* \"QuadraticVoting.sol\":7634:7636  id */\n      dup6\n        /* \"QuadraticVoting.sol\":7597:7625  _withdrawFromFinanceProposal */\n      tag_120\n        /* \"QuadraticVoting.sol\":7597:7637  _withdrawFromFinanceProposal(amount, id) */\n      jump\t// in\n    tag_119:\n        /* \"QuadraticVoting.sol\":7567:7694  if (proposals[id].budget > 0) _withdrawFromFinanceProposal(amount, id);... */\n      jump(tag_121)\n    tag_118:\n        /* \"QuadraticVoting.sol\":7652:7694  _withdrawFromSignalingProposal(amount, id) */\n      tag_122\n        /* \"QuadraticVoting.sol\":7683:7689  amount */\n      dup6\n        /* \"QuadraticVoting.sol\":7691:7693  id */\n      dup6\n        /* \"QuadraticVoting.sol\":7652:7682  _withdrawFromSignalingProposal */\n      tag_123\n        /* \"QuadraticVoting.sol\":7652:7694  _withdrawFromSignalingProposal(amount, id) */\n      jump\t// in\n    tag_122:\n        /* \"QuadraticVoting.sol\":7567:7694  if (proposals[id].budget > 0) _withdrawFromFinanceProposal(amount, id);... */\n    tag_121:\n        /* \"QuadraticVoting.sol\":10659:10660  _ */\n      pop\n      pop\n        /* \"QuadraticVoting.sol\":9066:9067  _ */\n      pop\n        /* \"QuadraticVoting.sol\":7433:7701  function withdrawFromProposal(uint amount, uint id) checkParticipant checkValidProposal(id) checkVotes(id, amount) external {... */\n      pop\n      pop\n      jump\t// out\n        /* \"QuadraticVoting.sol\":3797:3986  function sellTokens(uint amount) checkParticipant checkTokenAmount(amount) external {... */\n    tag_36:\n        /* \"QuadraticVoting.sol\":9010:9022  participants */\n      0x05\n        /* \"QuadraticVoting.sol\":9010:9034  participants[msg.sender] */\n      0x00\n        /* \"QuadraticVoting.sol\":9023:9033  msg.sender */\n      caller\n        /* \"QuadraticVoting.sol\":9010:9034  participants[msg.sender] */\n      0xffffffffffffffffffffffffffffffffffffffff\n      and\n      0xffffffffffffffffffffffffffffffffffffffff\n      and\n      dup2\n      mstore\n      0x20\n      add\n      swap1\n      dup2\n      mstore\n      0x20\n      add\n      0x00\n      keccak256\n      0x00\n      swap1\n      sload\n      swap1\n      0x0100\n      exp\n      swap1\n      div\n      0xff\n      and\n        /* \"QuadraticVoting.sol\":9002:9056  require(participants[msg.sender], \"Not a participant\") */\n      tag_125\n      jumpi\n      mload(0x40)\n      0x08c379a000000000000000000000000000000000000000000000000000000000\n      dup2\n      mstore\n      0x04\n      add\n      dup1\n      dup1\n      0x20\n      add\n      dup3\n      dup2\n      sub\n      dup3\n      mstore\n      0x11\n      dup2\n      mstore\n      0x20\n      add\n      dup1\n      0x4e6f742061207061727469636970616e74000000000000000000000000000000\n      dup2\n      mstore\n      pop\n      0x20\n      add\n      swap2\n      pop\n      pop\n      mload(0x40)\n      dup1\n      swap2\n      sub\n      swap1\n      revert\n    tag_125:\n        /* \"QuadraticVoting.sol\":3864:3870  amount */\n      dup1\n        /* \"QuadraticVoting.sol\":10263:10276  tokenContract */\n      0x01\n      0x00\n      swap1\n      sload\n      swap1\n      0x0100\n      exp\n      swap1\n      div\n      0xffffffffffffffffffffffffffffffffffffffff\n      and\n        /* \"QuadraticVoting.sol\":10263:10286  tokenContract.balanceOf */\n      0xffffffffffffffffffffffffffffffffffffffff\n      and\n      0x70a08231\n        /* \"QuadraticVoting.sol\":10287:10297  msg.sender */\n      caller\n        /* \"QuadraticVoting.sol\":10263:10298  tokenContract.balanceOf(msg.sender) */\n      mload(0x40)\n      dup3\n      0xffffffff\n      and\n      0xe0\n      shl\n      dup2\n      mstore\n      0x04\n      add\n      dup1\n      dup3\n      0xffffffffffffffffffffffffffffffffffffffff\n      and\n      0xffffffffffffffffffffffffffffffffffffffff\n      and\n      dup2\n      mstore\n      0x20\n      add\n      swap2\n      pop\n      pop\n      0x20\n      mload(0x40)\n      dup1\n      dup4\n      sub\n      dup2\n      dup7\n      dup1\n      extcodesize\n      iszero\n        /* \"--CODEGEN--\":8:17   */\n      dup1\n        /* \"--CODEGEN--\":5:7   */\n      iszero\n      tag_127\n      jumpi\n        /* \"--CODEGEN--\":30:31   */\n      0x00\n        /* \"--CODEGEN--\":27:28   */\n      dup1\n        /* \"--CODEGEN--\":20:32   */\n      revert\n        /* \"--CODEGEN--\":5:7   */\n    tag_127:\n        /* \"QuadraticVoting.sol\":10263:10298  tokenContract.balanceOf(msg.sender) */\n      pop\n      gas\n      staticcall\n      iszero\n        /* \"--CODEGEN--\":8:17   */\n      dup1\n        /* \"--CODEGEN--\":5:7   */\n      iszero\n      tag_128\n      jumpi\n        /* \"--CODEGEN--\":45:61   */\n      returndatasize\n        /* \"--CODEGEN--\":42:43   */\n      0x00\n        /* \"--CODEGEN--\":39:40   */\n      dup1\n        /* \"--CODEGEN--\":24:62   */\n      returndatacopy\n        /* \"--CODEGEN--\":77:93   */\n      returndatasize\n        /* \"--CODEGEN--\":74:75   */\n      0x00\n        /* \"--CODEGEN--\":67:94   */\n      revert\n        /* \"--CODEGEN--\":5:7   */\n    tag_128:\n        /* \"QuadraticVoting.sol\":10263:10298  tokenContract.balanceOf(msg.sender) */\n      pop\n      pop\n      pop\n      pop\n      mload(0x40)\n      returndatasize\n        /* \"--CODEGEN--\":13:15   */\n      0x20\n        /* \"--CODEGEN--\":8:11   */\n      dup2\n        /* \"--CODEGEN--\":5:16   */\n      lt\n        /* \"--CODEGEN--\":2:4   */\n      iszero\n      tag_129\n      jumpi\n        /* \"--CODEGEN--\":29:30   */\n      0x00\n        /* \"--CODEGEN--\":26:27   */\n      dup1\n        /* \"--CODEGEN--\":19:31   */\n      revert\n        /* \"--CODEGEN--\":2:4   */\n    tag_129:\n        /* \"QuadraticVoting.sol\":10263:10298  tokenContract.balanceOf(msg.sender) */\n      dup2\n      add\n      swap1\n      dup1\n      dup1\n      mload\n      swap1\n      0x20\n      add\n      swap1\n      swap3\n      swap2\n      swap1\n      pop\n      pop\n      pop\n        /* \"QuadraticVoting.sol\":10253:10259  amount */\n      dup2\n        /* \"QuadraticVoting.sol\":10253:10298  amount >= tokenContract.balanceOf(msg.sender) */\n      lt\n      iszero\n        /* \"QuadraticVoting.sol\":10245:10317  require(amount >= tokenContract.balanceOf(msg.sender), \"Invalid amount\") */\n      tag_130\n      jumpi\n      mload(0x40)\n      0x08c379a000000000000000000000000000000000000000000000000000000000\n      dup2\n      mstore\n      0x04\n      add\n      dup1\n      dup1\n      0x20\n      add\n      dup3\n      dup2\n      sub\n      dup3\n      mstore\n      0x0e\n      dup2\n      mstore\n      0x20\n      add\n      dup1\n      0x496e76616c696420616d6f756e74000000000000000000000000000000000000\n      dup2\n      mstore\n      pop\n      0x20\n      add\n      swap2\n      pop\n      pop\n      mload(0x40)\n      dup1\n      swap2\n      sub\n      swap1\n      revert\n    tag_130:\n        /* \"QuadraticVoting.sol\":3891:3904  tokenContract */\n      0x01\n      0x00\n      swap1\n      sload\n      swap1\n      0x0100\n      exp\n      swap1\n      div\n      0xffffffffffffffffffffffffffffffffffffffff\n      and\n        /* \"QuadraticVoting.sol\":3891:3909  tokenContract.burn */\n      0xffffffffffffffffffffffffffffffffffffffff\n      and\n      0x9dc29fac\n        /* \"QuadraticVoting.sol\":3910:3920  msg.sender */\n      caller\n        /* \"QuadraticVoting.sol\":3922:3928  amount */\n      dup5\n        /* \"QuadraticVoting.sol\":3891:3929  tokenContract.burn(msg.sender, amount) */\n      mload(0x40)\n      dup4\n      0xffffffff\n      and\n      0xe0\n      shl\n      dup2\n      mstore\n      0x04\n      add\n      dup1\n      dup4\n      0xffffffffffffffffffffffffffffffffffffffff\n      and\n      0xffffffffffffffffffffffffffffffffffffffff\n      and\n      dup2\n      mstore\n      0x20\n      add\n      dup3\n      dup2\n      mstore\n      0x20\n      add\n      swap3\n      pop\n      pop\n      pop\n      0x00\n      mload(0x40)\n      dup1\n      dup4\n      sub\n      dup2\n      0x00\n      dup8\n      dup1\n      extcodesize\n      iszero\n        /* \"--CODEGEN--\":8:17   */\n      dup1\n        /* \"--CODEGEN--\":5:7   */\n      iszero\n      tag_132\n      jumpi\n        /* \"--CODEGEN--\":30:31   */\n      0x00\n        /* \"--CODEGEN--\":27:28   */\n      dup1\n        /* \"--CODEGEN--\":20:32   */\n      revert\n        /* \"--CODEGEN--\":5:7   */\n    tag_132:\n        /* \"QuadraticVoting.sol\":3891:3929  tokenContract.burn(msg.sender, amount) */\n      pop\n      gas\n      call\n      iszero\n        /* \"--CODEGEN--\":8:17   */\n      dup1\n        /* \"--CODEGEN--\":5:7   */\n      iszero\n      tag_133\n      jumpi\n        /* \"--CODEGEN--\":45:61   */\n      returndatasize\n        /* \"--CODEGEN--\":42:43   */\n      0x00\n        /* \"--CODEGEN--\":39:40   */\n      dup1\n        /* \"--CODEGEN--\":24:62   */\n      returndatacopy\n        /* \"--CODEGEN--\":77:93   */\n      returndatasize\n        /* \"--CODEGEN--\":74:75   */\n      0x00\n        /* \"--CODEGEN--\":67:94   */\n      revert\n        /* \"--CODEGEN--\":5:7   */\n    tag_133:\n        /* \"QuadraticVoting.sol\":3891:3929  tokenContract.burn(msg.sender, amount) */\n      pop\n      pop\n      pop\n      pop\n        /* \"QuadraticVoting.sol\":3939:3949  msg.sender */\n      caller\n        /* \"QuadraticVoting.sol\":3939:3958  msg.sender.transfer */\n      0xffffffffffffffffffffffffffffffffffffffff\n      and\n        /* \"QuadraticVoting.sol\":3939:3979  msg.sender.transfer(amount * tokenPrice) */\n      0x08fc\n        /* \"QuadraticVoting.sol\":3968:3978  tokenPrice */\n      sload(0x02)\n        /* \"QuadraticVoting.sol\":3959:3965  amount */\n      dup5\n        /* \"QuadraticVoting.sol\":3959:3978  amount * tokenPrice */\n      mul\n        /* \"QuadraticVoting.sol\":3939:3979  msg.sender.transfer(amount * tokenPrice) */\n      swap1\n      dup2\n      iszero\n      mul\n      swap1\n      mload(0x40)\n      0x00\n      mload(0x40)\n      dup1\n      dup4\n      sub\n      dup2\n      dup6\n      dup9\n      dup9\n      call\n      swap4\n      pop\n      pop\n      pop\n      pop\n      iszero\n        /* \"--CODEGEN--\":8:17   */\n      dup1\n        /* \"--CODEGEN--\":5:7   */\n      iszero\n      tag_134\n      jumpi\n        /* \"--CODEGEN--\":45:61   */\n      returndatasize\n        /* \"--CODEGEN--\":42:43   */\n      0x00\n        /* \"--CODEGEN--\":39:40   */\n      dup1\n        /* \"--CODEGEN--\":24:62   */\n      returndatacopy\n        /* \"--CODEGEN--\":77:93   */\n      returndatasize\n        /* \"--CODEGEN--\":74:75   */\n      0x00\n        /* \"--CODEGEN--\":67:94   */\n      revert\n        /* \"--CODEGEN--\":5:7   */\n    tag_134:\n        /* \"QuadraticVoting.sol\":3939:3979  msg.sender.transfer(amount * tokenPrice) */\n      pop\n        /* \"QuadraticVoting.sol\":9066:9067  _ */\n      pop\n        /* \"QuadraticVoting.sol\":3797:3986  function sellTokens(uint amount) checkParticipant checkTokenAmount(amount) external {... */\n      pop\n      jump\t// out\n        /* \"QuadraticVoting.sol\":5877:6341  function stake(uint id, uint votes) checkParticipant checkValidProposal(id) checkEnabledProposal(id) checkTokenAmount(_calculateVoteCost(id, votes)) external {... */\n    tag_40:\n        /* \"QuadraticVoting.sol\":9010:9022  participants */\n      0x05\n        /* \"QuadraticVoting.sol\":9010:9034  participants[msg.sender] */\n      0x00\n        /* \"QuadraticVoting.sol\":9023:9033  msg.sender */\n      caller\n        /* \"QuadraticVoting.sol\":9010:9034  participants[msg.sender] */\n      0xffffffffffffffffffffffffffffffffffffffff\n      and\n      0xffffffffffffffffffffffffffffffffffffffff\n      and\n      dup2\n      mstore\n      0x20\n      add\n      swap1\n      dup2\n      mstore\n      0x20\n      add\n      0x00\n      keccak256\n      0x00\n      swap1\n      sload\n      swap1\n      0x0100\n      exp\n      swap1\n      div\n      0xff\n      and\n        /* \"QuadraticVoting.sol\":9002:9056  require(participants[msg.sender], \"Not a participant\") */\n      tag_136\n      jumpi\n      mload(0x40)\n      0x08c379a000000000000000000000000000000000000000000000000000000000\n      dup2\n      mstore\n      0x04\n      add\n      dup1\n      dup1\n      0x20\n      add\n      dup3\n      dup2\n      sub\n      dup3\n      mstore\n      0x11\n      dup2\n      mstore\n      0x20\n      add\n      dup1\n      0x4e6f742061207061727469636970616e74000000000000000000000000000000\n      dup2\n      mstore\n      pop\n      0x20\n      add\n      swap2\n      pop\n      pop\n      mload(0x40)\n      dup1\n      swap2\n      sub\n      swap1\n      revert\n    tag_136:\n        /* \"QuadraticVoting.sol\":5949:5951  id */\n      dup2\n        /* \"QuadraticVoting.sol\":10597:10599  id */\n      dup1\n        /* \"QuadraticVoting.sol\":10576:10593  initialProposalId */\n      sload(0x08)\n        /* \"QuadraticVoting.sol\":10576:10599  initialProposalId <= id */\n      gt\n      iszero\n        /* \"QuadraticVoting.sol\":10576:10623  initialProposalId <= id && id <= lastProposalId */\n      dup1\n      iszero\n      tag_138\n      jumpi\n      pop\n        /* \"QuadraticVoting.sol\":10609:10623  lastProposalId */\n      sload(0x09)\n        /* \"QuadraticVoting.sol\":10603:10605  id */\n      dup2\n        /* \"QuadraticVoting.sol\":10603:10623  id <= lastProposalId */\n      gt\n      iszero\n        /* \"QuadraticVoting.sol\":10576:10623  initialProposalId <= id && id <= lastProposalId */\n    tag_138:\n        /* \"QuadraticVoting.sol\":10568:10649  require(initialProposalId <= id && id <= lastProposalId, \"Proposal id not valid\") */\n      tag_139\n      jumpi\n      mload(0x40)\n      0x08c379a000000000000000000000000000000000000000000000000000000000\n      dup2\n      mstore\n      0x04\n      add\n      dup1\n      dup1\n      0x20\n      add\n      dup3\n      dup2\n      sub\n      dup3\n      mstore\n      0x15\n      dup2\n      mstore\n      0x20\n      add\n      dup1\n      0x50726f706f73616c206964206e6f742076616c69640000000000000000000000\n      dup2\n      mstore\n      pop\n      0x20\n      add\n      swap2\n      pop\n      pop\n      mload(0x40)\n      dup1\n      swap2\n      sub\n      swap1\n      revert\n    tag_139:\n        /* \"QuadraticVoting.sol\":5974:5976  id */\n      dup3\n        /* \"QuadraticVoting.sol\":10753:10774  ProposalState.ENABLED */\n      0x00\n        /* \"QuadraticVoting.sol\":10730:10774  proposals[id].state == ProposalState.ENABLED */\n      0x02\n      dup2\n      gt\n      iszero\n      tag_141\n      jumpi\n      invalid\n    tag_141:\n        /* \"QuadraticVoting.sol\":10730:10739  proposals */\n      0x07\n        /* \"QuadraticVoting.sol\":10730:10743  proposals[id] */\n      0x00\n        /* \"QuadraticVoting.sol\":10740:10742  id */\n      dup4\n        /* \"QuadraticVoting.sol\":10730:10743  proposals[id] */\n      dup2\n      mstore\n      0x20\n      add\n      swap1\n      dup2\n      mstore\n      0x20\n      add\n      0x00\n      keccak256\n        /* \"QuadraticVoting.sol\":10730:10749  proposals[id].state */\n      0x08\n      add\n      0x00\n      swap1\n      sload\n      swap1\n      0x0100\n      exp\n      swap1\n      div\n      0xff\n      and\n        /* \"QuadraticVoting.sol\":10730:10774  proposals[id].state == ProposalState.ENABLED */\n      0x02\n      dup2\n      gt\n      iszero\n      tag_142\n      jumpi\n      invalid\n    tag_142:\n      eq\n        /* \"QuadraticVoting.sol\":10722:10799  require(proposals[id].state == ProposalState.ENABLED, \"Proposal not enabled\") */\n      tag_143\n      jumpi\n      mload(0x40)\n      0x08c379a000000000000000000000000000000000000000000000000000000000\n      dup2\n      mstore\n      0x04\n      add\n      dup1\n      dup1\n      0x20\n      add\n      dup3\n      dup2\n      sub\n      dup3\n      mstore\n      0x14\n      dup2\n      mstore\n      0x20\n      add\n      dup1\n      0x50726f706f73616c206e6f7420656e61626c6564000000000000000000000000\n      dup2\n      mstore\n      pop\n      0x20\n      add\n      swap2\n      pop\n      pop\n      mload(0x40)\n      dup1\n      swap2\n      sub\n      swap1\n      revert\n    tag_143:\n        /* \"QuadraticVoting.sol\":5995:6024  _calculateVoteCost(id, votes) */\n      tag_144\n        /* \"QuadraticVoting.sol\":6014:6016  id */\n      dup5\n        /* \"QuadraticVoting.sol\":6018:6023  votes */\n      dup5\n        /* \"QuadraticVoting.sol\":5995:6013  _calculateVoteCost */\n      tag_145\n        /* \"QuadraticVoting.sol\":5995:6024  _calculateVoteCost(id, votes) */\n      jump\t// in\n    tag_144:\n        /* \"QuadraticVoting.sol\":10263:10276  tokenContract */\n      0x01\n      0x00\n      swap1\n      sload\n      swap1\n      0x0100\n      exp\n      swap1\n      div\n      0xffffffffffffffffffffffffffffffffffffffff\n      and\n        /* \"QuadraticVoting.sol\":10263:10286  tokenContract.balanceOf */\n      0xffffffffffffffffffffffffffffffffffffffff\n      and\n      0x70a08231\n        /* \"QuadraticVoting.sol\":10287:10297  msg.sender */\n      caller\n        /* \"QuadraticVoting.sol\":10263:10298  tokenContract.balanceOf(msg.sender) */\n      mload(0x40)\n      dup3\n      0xffffffff\n      and\n      0xe0\n      shl\n      dup2\n      mstore\n      0x04\n      add\n      dup1\n      dup3\n      0xffffffffffffffffffffffffffffffffffffffff\n      and\n      0xffffffffffffffffffffffffffffffffffffffff\n      and\n      dup2\n      mstore\n      0x20\n      add\n      swap2\n      pop\n      pop\n      0x20\n      mload(0x40)\n      dup1\n      dup4\n      sub\n      dup2\n      dup7\n      dup1\n      extcodesize\n      iszero\n        /* \"--CODEGEN--\":8:17   */\n      dup1\n        /* \"--CODEGEN--\":5:7   */\n      iszero\n      tag_147\n      jumpi\n        /* \"--CODEGEN--\":30:31   */\n      0x00\n        /* \"--CODEGEN--\":27:28   */\n      dup1\n        /* \"--CODEGEN--\":20:32   */\n      revert\n        /* \"--CODEGEN--\":5:7   */\n    tag_147:\n        /* \"QuadraticVoting.sol\":10263:10298  tokenContract.balanceOf(msg.sender) */\n      pop\n      gas\n      staticcall\n      iszero\n        /* \"--CODEGEN--\":8:17   */\n      dup1\n        /* \"--CODEGEN--\":5:7   */\n      iszero\n      tag_148\n      jumpi\n        /* \"--CODEGEN--\":45:61   */\n      returndatasize\n        /* \"--CODEGEN--\":42:43   */\n      0x00\n        /* \"--CODEGEN--\":39:40   */\n      dup1\n        /* \"--CODEGEN--\":24:62   */\n      returndatacopy\n        /* \"--CODEGEN--\":77:93   */\n      returndatasize\n        /* \"--CODEGEN--\":74:75   */\n      0x00\n        /* \"--CODEGEN--\":67:94   */\n      revert\n        /* \"--CODEGEN--\":5:7   */\n    tag_148:\n        /* \"QuadraticVoting.sol\":10263:10298  tokenContract.balanceOf(msg.sender) */\n      pop\n      pop\n      pop\n      pop\n      mload(0x40)\n      returndatasize\n        /* \"--CODEGEN--\":13:15   */\n      0x20\n        /* \"--CODEGEN--\":8:11   */\n      dup2\n        /* \"--CODEGEN--\":5:16   */\n      lt\n        /* \"--CODEGEN--\":2:4   */\n      iszero\n      tag_149\n      jumpi\n        /* \"--CODEGEN--\":29:30   */\n      0x00\n        /* \"--CODEGEN--\":26:27   */\n      dup1\n        /* \"--CODEGEN--\":19:31   */\n      revert\n        /* \"--CODEGEN--\":2:4   */\n    tag_149:\n        /* \"QuadraticVoting.sol\":10263:10298  tokenContract.balanceOf(msg.sender) */\n      dup2\n      add\n      swap1\n      dup1\n      dup1\n      mload\n      swap1\n      0x20\n      add\n      swap1\n      swap3\n      swap2\n      swap1\n      pop\n      pop\n      pop\n        /* \"QuadraticVoting.sol\":10253:10259  amount */\n      dup2\n        /* \"QuadraticVoting.sol\":10253:10298  amount >= tokenContract.balanceOf(msg.sender) */\n      lt\n      iszero\n        /* \"QuadraticVoting.sol\":10245:10317  require(amount >= tokenContract.balanceOf(msg.sender), \"Invalid amount\") */\n      tag_150\n      jumpi\n      mload(0x40)\n      0x08c379a000000000000000000000000000000000000000000000000000000000\n      dup2\n      mstore\n      0x04\n      add\n      dup1\n      dup1\n      0x20\n      add\n      dup3\n      dup2\n      sub\n      dup3\n      mstore\n      0x0e\n      dup2\n      mstore\n      0x20\n      add\n      dup1\n      0x496e76616c696420616d6f756e74000000000000000000000000000000000000\n      dup2\n      mstore\n      pop\n      0x20\n      add\n      swap2\n      pop\n      pop\n      mload(0x40)\n      dup1\n      swap2\n      sub\n      swap1\n      revert\n    tag_150:\n        /* \"QuadraticVoting.sol\":6045:6059  uint tokenCost */\n      0x00\n        /* \"QuadraticVoting.sol\":6062:6091  _calculateVoteCost(id, votes) */\n      tag_152\n        /* \"QuadraticVoting.sol\":6081:6083  id */\n      dup7\n        /* \"QuadraticVoting.sol\":6085:6090  votes */\n      dup7\n        /* \"QuadraticVoting.sol\":6062:6080  _calculateVoteCost */\n      tag_145\n        /* \"QuadraticVoting.sol\":6062:6091  _calculateVoteCost(id, votes) */\n      jump\t// in\n    tag_152:\n        /* \"QuadraticVoting.sol\":6045:6091  uint tokenCost = _calculateVoteCost(id, votes) */\n      swap1\n      pop\n        /* \"QuadraticVoting.sol\":6101:6114  tokenContract */\n      0x01\n      0x00\n      swap1\n      sload\n      swap1\n      0x0100\n      exp\n      swap1\n      div\n      0xffffffffffffffffffffffffffffffffffffffff\n      and\n        /* \"QuadraticVoting.sol\":6101:6123  tokenContract.transfer */\n      0xffffffffffffffffffffffffffffffffffffffff\n      and\n      0xa9059cbb\n        /* \"QuadraticVoting.sol\":6132:6136  this */\n      address\n        /* \"QuadraticVoting.sol\":6139:6148  tokenCost */\n      dup4\n        /* \"QuadraticVoting.sol\":6101:6149  tokenContract.transfer(address(this), tokenCost) */\n      mload(0x40)\n      dup4\n      0xffffffff\n      and\n      0xe0\n      shl\n      dup2\n      mstore\n      0x04\n      add\n      dup1\n      dup4\n      0xffffffffffffffffffffffffffffffffffffffff\n      and\n      0xffffffffffffffffffffffffffffffffffffffff\n      and\n      dup2\n      mstore\n      0x20\n      add\n      dup3\n      dup2\n      mstore\n      0x20\n      add\n      swap3\n      pop\n      pop\n      pop\n      0x20\n      mload(0x40)\n      dup1\n      dup4\n      sub\n      dup2\n      0x00\n      dup8\n      dup1\n      extcodesize\n      iszero\n        /* \"--CODEGEN--\":8:17   */\n      dup1\n        /* \"--CODEGEN--\":5:7   */\n      iszero\n      tag_153\n      jumpi\n        /* \"--CODEGEN--\":30:31   */\n      0x00\n        /* \"--CODEGEN--\":27:28   */\n      dup1\n        /* \"--CODEGEN--\":20:32   */\n      revert\n        /* \"--CODEGEN--\":5:7   */\n    tag_153:\n        /* \"QuadraticVoting.sol\":6101:6149  tokenContract.transfer(address(this), tokenCost) */\n      pop\n      gas\n      call\n      iszero\n        /* \"--CODEGEN--\":8:17   */\n      dup1\n        /* \"--CODEGEN--\":5:7   */\n      iszero\n      tag_154\n      jumpi\n        /* \"--CODEGEN--\":45:61   */\n      returndatasize\n        /* \"--CODEGEN--\":42:43   */\n      0x00\n        /* \"--CODEGEN--\":39:40   */\n      dup1\n        /* \"--CODEGEN--\":24:62   */\n      returndatacopy\n        /* \"--CODEGEN--\":77:93   */\n      returndatasize\n        /* \"--CODEGEN--\":74:75   */\n      0x00\n        /* \"--CODEGEN--\":67:94   */\n      revert\n        /* \"--CODEGEN--\":5:7   */\n    tag_154:\n        /* \"QuadraticVoting.sol\":6101:6149  tokenContract.transfer(address(this), tokenCost) */\n      pop\n      pop\n      pop\n      pop\n      mload(0x40)\n      returndatasize\n        /* \"--CODEGEN--\":13:15   */\n      0x20\n        /* \"--CODEGEN--\":8:11   */\n      dup2\n        /* \"--CODEGEN--\":5:16   */\n      lt\n        /* \"--CODEGEN--\":2:4   */\n      iszero\n      tag_155\n      jumpi\n        /* \"--CODEGEN--\":29:30   */\n      0x00\n        /* \"--CODEGEN--\":26:27   */\n      dup1\n        /* \"--CODEGEN--\":19:31   */\n      revert\n        /* \"--CODEGEN--\":2:4   */\n    tag_155:\n        /* \"QuadraticVoting.sol\":6101:6149  tokenContract.transfer(address(this), tokenCost) */\n      dup2\n      add\n      swap1\n      dup1\n      dup1\n      mload\n      swap1\n      0x20\n      add\n      swap1\n      swap3\n      swap2\n      swap1\n      pop\n      pop\n      pop\n      pop\n        /* \"QuadraticVoting.sol\":6188:6193  votes */\n      dup5\n        /* \"QuadraticVoting.sol\":6159:6168  proposals */\n      0x07\n        /* \"QuadraticVoting.sol\":6159:6172  proposals[id] */\n      0x00\n        /* \"QuadraticVoting.sol\":6169:6171  id */\n      dup9\n        /* \"QuadraticVoting.sol\":6159:6172  proposals[id] */\n      dup2\n      mstore\n      0x20\n      add\n      swap1\n      dup2\n      mstore\n      0x20\n      add\n      0x00\n      keccak256\n        /* \"QuadraticVoting.sol\":6159:6184  proposals[id].votesAmount */\n      0x05\n      add\n      0x00\n        /* \"QuadraticVoting.sol\":6159:6193  proposals[id].votesAmount += votes */\n      dup3\n      dup3\n      sload\n      add\n      swap3\n      pop\n      pop\n      dup2\n      swap1\n      sstore\n      pop\n        /* \"QuadraticVoting.sol\":6233:6242  tokenCost */\n      dup1\n        /* \"QuadraticVoting.sol\":6203:6212  proposals */\n      0x07\n        /* \"QuadraticVoting.sol\":6203:6216  proposals[id] */\n      0x00\n        /* \"QuadraticVoting.sol\":6213:6215  id */\n      dup9\n        /* \"QuadraticVoting.sol\":6203:6216  proposals[id] */\n      dup2\n      mstore\n      0x20\n      add\n      swap1\n      dup2\n      mstore\n      0x20\n      add\n      0x00\n      keccak256\n        /* \"QuadraticVoting.sol\":6203:6229  proposals[id].tokensAmount */\n      0x06\n      add\n      0x00\n        /* \"QuadraticVoting.sol\":6203:6242  proposals[id].tokensAmount += tokenCost */\n      dup3\n      dup3\n      sload\n      add\n      swap3\n      pop\n      pop\n      dup2\n      swap1\n      sstore\n      pop\n        /* \"QuadraticVoting.sol\":6279:6280  0 */\n      0x00\n        /* \"QuadraticVoting.sol\":6256:6265  proposals */\n      0x07\n        /* \"QuadraticVoting.sol\":6256:6269  proposals[id] */\n      0x00\n        /* \"QuadraticVoting.sol\":6266:6268  id */\n      dup9\n        /* \"QuadraticVoting.sol\":6256:6269  proposals[id] */\n      dup2\n      mstore\n      0x20\n      add\n      swap1\n      dup2\n      mstore\n      0x20\n      add\n      0x00\n      keccak256\n        /* \"QuadraticVoting.sol\":6256:6276  proposals[id].budget */\n      0x04\n      add\n      sload\n        /* \"QuadraticVoting.sol\":6256:6280  proposals[id].budget > 0 */\n      gt\n        /* \"QuadraticVoting.sol\":6252:6335  if (proposals[id].budget > 0) {... */\n      iszero\n      tag_156\n      jumpi\n        /* \"QuadraticVoting.sol\":6296:6324  _checkAndExecuteProposal(id) */\n      tag_157\n        /* \"QuadraticVoting.sol\":6321:6323  id */\n      dup7\n        /* \"QuadraticVoting.sol\":6296:6320  _checkAndExecuteProposal */\n      tag_158\n        /* \"QuadraticVoting.sol\":6296:6324  _checkAndExecuteProposal(id) */\n      jump\t// in\n    tag_157:\n        /* \"QuadraticVoting.sol\":6252:6335  if (proposals[id].budget > 0) {... */\n    tag_156:\n        /* \"QuadraticVoting.sol\":10327:10328  _ */\n      pop\n        /* \"QuadraticVoting.sol\":10809:10810  _ */\n      pop\n        /* \"QuadraticVoting.sol\":10659:10660  _ */\n      pop\n        /* \"QuadraticVoting.sol\":9066:9067  _ */\n      pop\n        /* \"QuadraticVoting.sol\":5877:6341  function stake(uint id, uint votes) checkParticipant checkValidProposal(id) checkEnabledProposal(id) checkTokenAmount(_calculateVoteCost(id, votes)) external {... */\n      pop\n      pop\n      jump\t// out\n        /* \"QuadraticVoting.sol\":5094:5599  function getSignalingProposals() checkOpenVoting external returns(uint[] memory) {... */\n    tag_43:\n        /* \"QuadraticVoting.sol\":5160:5173  uint[] memory */\n      0x60\n        /* \"QuadraticVoting.sol\":9397:9422  QuadraticVotingState.OPEN */\n      0x01\n        /* \"QuadraticVoting.sol\":9382:9422  votingState == QuadraticVotingState.OPEN */\n      0x02\n      dup2\n      gt\n      iszero\n      tag_160\n      jumpi\n      invalid\n    tag_160:\n        /* \"QuadraticVoting.sol\":9382:9393  votingState */\n      0x01\n      0x14\n      swap1\n      sload\n      swap1\n      0x0100\n      exp\n      swap1\n      div\n      0xff\n      and\n        /* \"QuadraticVoting.sol\":9382:9422  votingState == QuadraticVotingState.OPEN */\n      0x02\n      dup2\n      gt\n      iszero\n      tag_161\n      jumpi\n      invalid\n    tag_161:\n      eq\n        /* \"QuadraticVoting.sol\":9374:9442  require(votingState == QuadraticVotingState.OPEN, \"Voting not open\") */\n      tag_162\n      jumpi\n      mload(0x40)\n      0x08c379a000000000000000000000000000000000000000000000000000000000\n      dup2\n      mstore\n      0x04\n      add\n      dup1\n      dup1\n      0x20\n      add\n      dup3\n      dup2\n      sub\n      dup3\n      mstore\n      0x0f\n      dup2\n      mstore\n      0x20\n      add\n      dup1\n      0x566f74696e67206e6f74206f70656e0000000000000000000000000000000000\n      dup2\n      mstore\n      pop\n      0x20\n      add\n      swap2\n      pop\n      pop\n      mload(0x40)\n      dup1\n      swap2\n      sub\n      swap1\n      revert\n    tag_162:\n        /* \"QuadraticVoting.sol\":5192:5213  signalingProposalsIds */\n      0x0c\n      0x00\n        /* \"QuadraticVoting.sol\":5185:5213  delete signalingProposalsIds */\n      tag_164\n      swap2\n      swap1\n      tag_98\n      jump\t// in\n    tag_164:\n        /* \"QuadraticVoting.sol\":5330:5337  uint id */\n      0x00\n        /* \"QuadraticVoting.sol\":5340:5357  initialProposalId */\n      sload(0x08)\n        /* \"QuadraticVoting.sol\":5330:5357  uint id = initialProposalId */\n      swap1\n      pop\n        /* \"QuadraticVoting.sol\":5325:5554  for (uint id = initialProposalId; id <= lastProposalId; id++) {... */\n    tag_165:\n        /* \"QuadraticVoting.sol\":5365:5379  lastProposalId */\n      sload(0x09)\n        /* \"QuadraticVoting.sol\":5359:5361  id */\n      dup2\n        /* \"QuadraticVoting.sol\":5359:5379  id <= lastProposalId */\n      gt\n        /* \"QuadraticVoting.sol\":5325:5554  for (uint id = initialProposalId; id <= lastProposalId; id++) {... */\n      tag_166\n      jumpi\n        /* \"QuadraticVoting.sol\":5428:5450  ProposalState.DISABLED */\n      0x01\n        /* \"QuadraticVoting.sol\":5405:5450  proposals[id].state != ProposalState.DISABLED */\n      0x02\n      dup2\n      gt\n      iszero\n      tag_168\n      jumpi\n      invalid\n    tag_168:\n        /* \"QuadraticVoting.sol\":5405:5414  proposals */\n      0x07\n        /* \"QuadraticVoting.sol\":5405:5418  proposals[id] */\n      0x00\n        /* \"QuadraticVoting.sol\":5415:5417  id */\n      dup4\n        /* \"QuadraticVoting.sol\":5405:5418  proposals[id] */\n      dup2\n      mstore\n      0x20\n      add\n      swap1\n      dup2\n      mstore\n      0x20\n      add\n      0x00\n      keccak256\n        /* \"QuadraticVoting.sol\":5405:5424  proposals[id].state */\n      0x08\n      add\n      0x00\n      swap1\n      sload\n      swap1\n      0x0100\n      exp\n      swap1\n      div\n      0xff\n      and\n        /* \"QuadraticVoting.sol\":5405:5450  proposals[id].state != ProposalState.DISABLED */\n      0x02\n      dup2\n      gt\n      iszero\n      tag_169\n      jumpi\n      invalid\n    tag_169:\n      eq\n      iszero\n        /* \"QuadraticVoting.sol\":5405:5479  proposals[id].state != ProposalState.DISABLED && proposals[id].budget == 0 */\n      dup1\n      iszero\n      tag_170\n      jumpi\n      pop\n        /* \"QuadraticVoting.sol\":5478:5479  0 */\n      0x00\n        /* \"QuadraticVoting.sol\":5454:5463  proposals */\n      0x07\n        /* \"QuadraticVoting.sol\":5454:5467  proposals[id] */\n      0x00\n        /* \"QuadraticVoting.sol\":5464:5466  id */\n      dup4\n        /* \"QuadraticVoting.sol\":5454:5467  proposals[id] */\n      dup2\n      mstore\n      0x20\n      add\n      swap1\n      dup2\n      mstore\n      0x20\n      add\n      0x00\n      keccak256\n        /* \"QuadraticVoting.sol\":5454:5474  proposals[id].budget */\n      0x04\n      add\n      sload\n        /* \"QuadraticVoting.sol\":5454:5479  proposals[id].budget == 0 */\n      eq\n        /* \"QuadraticVoting.sol\":5405:5479  proposals[id].state != ProposalState.DISABLED && proposals[id].budget == 0 */\n    tag_170:\n        /* \"QuadraticVoting.sol\":5401:5544  if (proposals[id].state != ProposalState.DISABLED && proposals[id].budget == 0) {... */\n      iszero\n      tag_171\n      jumpi\n        /* \"QuadraticVoting.sol\":5499:5520  signalingProposalsIds */\n      0x0c\n        /* \"QuadraticVoting.sol\":5526:5528  id */\n      dup2\n        /* \"QuadraticVoting.sol\":5499:5529  signalingProposalsIds.push(id) */\n      swap1\n      dup1\n        /* \"--CODEGEN--\":39:40   */\n      0x01\n        /* \"--CODEGEN--\":33:36   */\n      dup2\n        /* \"--CODEGEN--\":27:37   */\n      sload\n        /* \"--CODEGEN--\":23:41   */\n      add\n        /* \"--CODEGEN--\":57:67   */\n      dup1\n        /* \"--CODEGEN--\":52:55   */\n      dup3\n        /* \"--CODEGEN--\":45:68   */\n      sstore\n        /* \"--CODEGEN--\":79:89   */\n      dup1\n        /* \"--CODEGEN--\":72:89   */\n      swap2\n      pop\n        /* \"--CODEGEN--\":0:93   */\n      pop\n        /* \"QuadraticVoting.sol\":5499:5529  signalingProposalsIds.push(id) */\n      swap1\n      0x01\n      dup3\n      sub\n      swap1\n      0x00\n      mstore\n      keccak256(0x00, 0x20)\n      add\n      0x00\n      swap1\n      swap2\n      swap3\n      swap1\n      swap2\n      swap1\n      swap2\n      pop\n      sstore\n      pop\n        /* \"QuadraticVoting.sol\":5401:5544  if (proposals[id].state != ProposalState.DISABLED && proposals[id].budget == 0) {... */\n    tag_171:\n        /* \"QuadraticVoting.sol\":5381:5385  id++ */\n      dup1\n      dup1\n      0x01\n      add\n      swap2\n      pop\n      pop\n        /* \"QuadraticVoting.sol\":5325:5554  for (uint id = initialProposalId; id <= lastProposalId; id++) {... */\n      jump(tag_165)\n    tag_166:\n      pop\n        /* \"QuadraticVoting.sol\":5571:5592  signalingProposalsIds */\n      0x0c\n        /* \"QuadraticVoting.sol\":5564:5592  return signalingProposalsIds */\n      dup1\n      sload\n      dup1\n      0x20\n      mul\n      0x20\n      add\n      mload(0x40)\n      swap1\n      dup2\n      add\n      0x40\n      mstore\n      dup1\n      swap3\n      swap2\n      swap1\n      dup2\n      dup2\n      mstore\n      0x20\n      add\n      dup3\n      dup1\n      sload\n      dup1\n      iszero\n      tag_173\n      jumpi\n      0x20\n      mul\n      dup3\n      add\n      swap2\n      swap1\n      0x00\n      mstore\n      keccak256(0x00, 0x20)\n      swap1\n    tag_174:\n      dup2\n      sload\n      dup2\n      mstore\n      0x20\n      add\n      swap1\n      0x01\n      add\n      swap1\n      dup1\n      dup4\n      gt\n      tag_174\n      jumpi\n    tag_173:\n      pop\n      pop\n      pop\n      pop\n      pop\n      swap1\n      pop\n        /* \"QuadraticVoting.sol\":5094:5599  function getSignalingProposals() checkOpenVoting external returns(uint[] memory) {... */\n      swap1\n      jump\t// out\n        /* \"QuadraticVoting.sol\":2581:3349  function addProposal(string calldata title, string calldata description, uint budget, address executableProposal) checkParticipant checkOpenVoting external returns(uint) {... */\n    tag_56:\n        /* \"QuadraticVoting.sol\":2745:2749  uint */\n      0x00\n        /* \"QuadraticVoting.sol\":9010:9022  participants */\n      0x05\n        /* \"QuadraticVoting.sol\":9010:9034  participants[msg.sender] */\n      0x00\n        /* \"QuadraticVoting.sol\":9023:9033  msg.sender */\n      caller\n        /* \"QuadraticVoting.sol\":9010:9034  participants[msg.sender] */\n      0xffffffffffffffffffffffffffffffffffffffff\n      and\n      0xffffffffffffffffffffffffffffffffffffffff\n      and\n      dup2\n      mstore\n      0x20\n      add\n      swap1\n      dup2\n      mstore\n      0x20\n      add\n      0x00\n      keccak256\n      0x00\n      swap1\n      sload\n      swap1\n      0x0100\n      exp\n      swap1\n      div\n      0xff\n      and\n        /* \"QuadraticVoting.sol\":9002:9056  require(participants[msg.sender], \"Not a participant\") */\n      tag_176\n      jumpi\n      mload(0x40)\n      0x08c379a000000000000000000000000000000000000000000000000000000000\n      dup2\n      mstore\n      0x04\n      add\n      dup1\n      dup1\n      0x20\n      add\n      dup3\n      dup2\n      sub\n      dup3\n      mstore\n      0x11\n      dup2\n      mstore\n      0x20\n      add\n      dup1\n      0x4e6f742061207061727469636970616e74000000000000000000000000000000\n      dup2\n      mstore\n      pop\n      0x20\n      add\n      swap2\n      pop\n      pop\n      mload(0x40)\n      dup1\n      swap2\n      sub\n      swap1\n      revert\n    tag_176:\n        /* \"QuadraticVoting.sol\":9397:9422  QuadraticVotingState.OPEN */\n      0x01\n        /* \"QuadraticVoting.sol\":9382:9422  votingState == QuadraticVotingState.OPEN */\n      0x02\n      dup2\n      gt\n      iszero\n      tag_178\n      jumpi\n      invalid\n    tag_178:\n        /* \"QuadraticVoting.sol\":9382:9393  votingState */\n      0x01\n      0x14\n      swap1\n      sload\n      swap1\n      0x0100\n      exp\n      swap1\n      div\n      0xff\n      and\n        /* \"QuadraticVoting.sol\":9382:9422  votingState == QuadraticVotingState.OPEN */\n      0x02\n      dup2\n      gt\n      iszero\n      tag_179\n      jumpi\n      invalid\n    tag_179:\n      eq\n        /* \"QuadraticVoting.sol\":9374:9442  require(votingState == QuadraticVotingState.OPEN, \"Voting not open\") */\n      tag_180\n      jumpi\n      mload(0x40)\n      0x08c379a000000000000000000000000000000000000000000000000000000000\n      dup2\n      mstore\n      0x04\n      add\n      dup1\n      dup1\n      0x20\n      add\n      dup3\n      dup2\n      sub\n      dup3\n      mstore\n      0x0f\n      dup2\n      mstore\n      0x20\n      add\n      dup1\n      0x566f74696e67206e6f74206f70656e0000000000000000000000000000000000\n      dup2\n      mstore\n      pop\n      0x20\n      add\n      swap2\n      pop\n      pop\n      mload(0x40)\n      dup1\n      swap2\n      sub\n      swap1\n      revert\n    tag_180:\n        /* \"QuadraticVoting.sol\":2761:2785  Proposal memory proposal */\n      tag_182\n      tag_183\n      jump\t// in\n    tag_182:\n        /* \"QuadraticVoting.sol\":2812:2822  msg.sender */\n      caller\n        /* \"QuadraticVoting.sol\":2795:2803  proposal */\n      dup2\n        /* \"QuadraticVoting.sol\":2795:2809  proposal.owner */\n      0x00\n      add\n        /* \"QuadraticVoting.sol\":2795:2822  proposal.owner = msg.sender */\n      swap1\n      0xffffffffffffffffffffffffffffffffffffffff\n      and\n      swap1\n      dup2\n      0xffffffffffffffffffffffffffffffffffffffff\n      and\n      dup2\n      mstore\n      pop\n      pop\n        /* \"QuadraticVoting.sol\":2882:2900  executableProposal */\n      dup3\n        /* \"QuadraticVoting.sol\":2832:2840  proposal */\n      dup2\n        /* \"QuadraticVoting.sol\":2832:2859  proposal.executableProposal */\n      0x20\n      add\n        /* \"QuadraticVoting.sol\":2832:2901  proposal.executableProposal = IExecutableProposal(executableProposal) */\n      swap1\n      0xffffffffffffffffffffffffffffffffffffffff\n      and\n      swap1\n      dup2\n      0xffffffffffffffffffffffffffffffffffffffff\n      and\n      dup2\n      mstore\n      pop\n      pop\n        /* \"QuadraticVoting.sol\":2994:2999  title */\n      dup8\n      dup8\n        /* \"QuadraticVoting.sol\":2977:2999  proposal.title = title */\n      dup1\n      dup1\n      0x1f\n      add\n      0x20\n      dup1\n      swap2\n      div\n      mul\n      0x20\n      add\n      mload(0x40)\n      swap1\n      dup2\n      add\n      0x40\n      mstore\n      dup1\n      swap4\n      swap3\n      swap2\n      swap1\n      dup2\n      dup2\n      mstore\n      0x20\n      add\n      dup4\n      dup4\n        /* \"--CODEGEN--\":30:33   */\n      dup1\n        /* \"--CODEGEN--\":22:28   */\n      dup3\n        /* \"--CODEGEN--\":14:20   */\n      dup5\n        /* \"--CODEGEN--\":1:34   */\n      calldatacopy\n        /* \"--CODEGEN--\":99:100   */\n      0x00\n        /* \"--CODEGEN--\":93:96   */\n      dup2\n        /* \"--CODEGEN--\":85:91   */\n      dup5\n        /* \"--CODEGEN--\":81:97   */\n      add\n        /* \"--CODEGEN--\":74:101   */\n      mstore\n        /* \"--CODEGEN--\":137:141   */\n      0x1f\n        /* \"--CODEGEN--\":133:142   */\n      not\n        /* \"--CODEGEN--\":126:130   */\n      0x1f\n        /* \"--CODEGEN--\":121:124   */\n      dup3\n        /* \"--CODEGEN--\":117:131   */\n      add\n        /* \"--CODEGEN--\":113:143   */\n      and\n        /* \"--CODEGEN--\":106:143   */\n      swap1\n      pop\n        /* \"--CODEGEN--\":169:172   */\n      dup1\n        /* \"--CODEGEN--\":161:167   */\n      dup4\n        /* \"--CODEGEN--\":157:173   */\n      add\n        /* \"--CODEGEN--\":147:173   */\n      swap3\n      pop\n        /* \"QuadraticVoting.sol\":2977:2999  proposal.title = title */\n      pop\n      pop\n      pop\n      pop\n      pop\n      pop\n        /* \"QuadraticVoting.sol\":2977:2985  proposal */\n      dup2\n        /* \"QuadraticVoting.sol\":2977:2991  proposal.title */\n      0x40\n      add\n        /* \"QuadraticVoting.sol\":2977:2999  proposal.title = title */\n      dup2\n      swap1\n      mstore\n      pop\n        /* \"QuadraticVoting.sol\":3032:3043  description */\n      dup6\n      dup6\n        /* \"QuadraticVoting.sol\":3009:3043  proposal.description = description */\n      dup1\n      dup1\n      0x1f\n      add\n      0x20\n      dup1\n      swap2\n      div\n      mul\n      0x20\n      add\n      mload(0x40)\n      swap1\n      dup2\n      add\n      0x40\n      mstore\n      dup1\n      swap4\n      swap3\n      swap2\n      swap1\n      dup2\n      dup2\n      mstore\n      0x20\n      add\n      dup4\n      dup4\n        /* \"--CODEGEN--\":30:33   */\n      dup1\n        /* \"--CODEGEN--\":22:28   */\n      dup3\n        /* \"--CODEGEN--\":14:20   */\n      dup5\n        /* \"--CODEGEN--\":1:34   */\n      calldatacopy\n        /* \"--CODEGEN--\":99:100   */\n      0x00\n        /* \"--CODEGEN--\":93:96   */\n      dup2\n        /* \"--CODEGEN--\":85:91   */\n      dup5\n        /* \"--CODEGEN--\":81:97   */\n      add\n        /* \"--CODEGEN--\":74:101   */\n      mstore\n        /* \"--CODEGEN--\":137:141   */\n      0x1f\n        /* \"--CODEGEN--\":133:142   */\n      not\n        /* \"--CODEGEN--\":126:130   */\n      0x1f\n        /* \"--CODEGEN--\":121:124   */\n      dup3\n        /* \"--CODEGEN--\":117:131   */\n      add\n        /* \"--CODEGEN--\":113:143   */\n      and\n        /* \"--CODEGEN--\":106:143   */\n      swap1\n      pop\n        /* \"--CODEGEN--\":169:172   */\n      dup1\n        /* \"--CODEGEN--\":161:167   */\n      dup4\n        /* \"--CODEGEN--\":157:173   */\n      add\n        /* \"--CODEGEN--\":147:173   */\n      swap3\n      pop\n        /* \"QuadraticVoting.sol\":3009:3043  proposal.description = description */\n      pop\n      pop\n      pop\n      pop\n      pop\n      pop\n        /* \"QuadraticVoting.sol\":3009:3017  proposal */\n      dup2\n        /* \"QuadraticVoting.sol\":3009:3029  proposal.description */\n      0x60\n      add\n        /* \"QuadraticVoting.sol\":3009:3043  proposal.description = description */\n      dup2\n      swap1\n      mstore\n      pop\n        /* \"QuadraticVoting.sol\":3071:3077  budget */\n      dup4\n        /* \"QuadraticVoting.sol\":3053:3061  proposal */\n      dup2\n        /* \"QuadraticVoting.sol\":3053:3068  proposal.budget */\n      0x80\n      add\n        /* \"QuadraticVoting.sol\":3053:3077  proposal.budget = budget */\n      dup2\n      dup2\n      mstore\n      pop\n      pop\n        /* \"QuadraticVoting.sol\":3110:3111  0 */\n      0x00\n        /* \"QuadraticVoting.sol\":3087:3095  proposal */\n      dup2\n        /* \"QuadraticVoting.sol\":3087:3107  proposal.votesAmount */\n      0xa0\n      add\n        /* \"QuadraticVoting.sol\":3087:3111  proposal.votesAmount = 0 */\n      dup2\n      dup2\n      mstore\n      pop\n      pop\n        /* \"QuadraticVoting.sol\":3145:3146  0 */\n      0x00\n        /* \"QuadraticVoting.sol\":3121:3129  proposal */\n      dup2\n        /* \"QuadraticVoting.sol\":3121:3142  proposal.tokensAmount */\n      0xc0\n      add\n        /* \"QuadraticVoting.sol\":3121:3146  proposal.tokensAmount = 0 */\n      dup2\n      dup2\n      mstore\n      pop\n      pop\n        /* \"QuadraticVoting.sol\":3173:3194  ProposalState.ENABLED */\n      0x00\n        /* \"QuadraticVoting.sol\":3156:3164  proposal */\n      dup2\n        /* \"QuadraticVoting.sol\":3156:3170  proposal.state */\n      0xe0\n      add\n        /* \"QuadraticVoting.sol\":3156:3194  proposal.state = ProposalState.ENABLED */\n      swap1\n      0x02\n      dup2\n      gt\n      iszero\n      tag_184\n      jumpi\n      invalid\n    tag_184:\n      swap1\n      dup2\n      0x02\n      dup2\n      gt\n      iszero\n      tag_185\n      jumpi\n      invalid\n    tag_185:\n      dup2\n      mstore\n      pop\n      pop\n        /* \"QuadraticVoting.sol\":3204:3218  lastProposalId */\n      0x09\n      0x00\n        /* \"QuadraticVoting.sol\":3204:3220  lastProposalId++ */\n      dup2\n      sload\n      dup1\n      swap3\n      swap2\n      swap1\n      0x01\n      add\n      swap2\n      swap1\n      pop\n      sstore\n      pop\n        /* \"QuadraticVoting.sol\":3258:3266  proposal */\n      dup1\n        /* \"QuadraticVoting.sol\":3230:3239  proposals */\n      0x07\n        /* \"QuadraticVoting.sol\":3230:3255  proposals[lastProposalId] */\n      0x00\n        /* \"QuadraticVoting.sol\":3240:3254  lastProposalId */\n      sload(0x09)\n        /* \"QuadraticVoting.sol\":3230:3255  proposals[lastProposalId] */\n      dup2\n      mstore\n      0x20\n      add\n      swap1\n      dup2\n      mstore\n      0x20\n      add\n      0x00\n      keccak256\n        /* \"QuadraticVoting.sol\":3230:3266  proposals[lastProposalId] = proposal */\n      0x00\n      dup3\n      add\n      mload\n      dup2\n      0x00\n      add\n      exp(0x0100, 0x00)\n      dup2\n      sload\n      dup2\n      0xffffffffffffffffffffffffffffffffffffffff\n      mul\n      not\n      and\n      swap1\n      dup4\n      0xffffffffffffffffffffffffffffffffffffffff\n      and\n      mul\n      or\n      swap1\n      sstore\n      pop\n      0x20\n      dup3\n      add\n      mload\n      dup2\n      0x01\n      add\n      exp(0x0100, 0x00)\n      dup2\n      sload\n      dup2\n      0xffffffffffffffffffffffffffffffffffffffff\n      mul\n      not\n      and\n      swap1\n      dup4\n      0xffffffffffffffffffffffffffffffffffffffff\n      and\n      mul\n      or\n      swap1\n      sstore\n      pop\n      0x40\n      dup3\n      add\n      mload\n      dup2\n      0x02\n      add\n      swap1\n      dup1\n      mload\n      swap1\n      0x20\n      add\n      swap1\n      tag_186\n      swap3\n      swap2\n      swap1\n      tag_187\n      jump\t// in\n    tag_186:\n      pop\n      0x60\n      dup3\n      add\n      mload\n      dup2\n      0x03\n      add\n      swap1\n      dup1\n      mload\n      swap1\n      0x20\n      add\n      swap1\n      tag_188\n      swap3\n      swap2\n      swap1\n      tag_187\n      jump\t// in\n    tag_188:\n      pop\n      0x80\n      dup3\n      add\n      mload\n      dup2\n      0x04\n      add\n      sstore\n      0xa0\n      dup3\n      add\n      mload\n      dup2\n      0x05\n      add\n      sstore\n      0xc0\n      dup3\n      add\n      mload\n      dup2\n      0x06\n      add\n      sstore\n      0xe0\n      dup3\n      add\n      mload\n      dup2\n      0x08\n      add\n      exp(0x0100, 0x00)\n      dup2\n      sload\n      dup2\n      0xff\n      mul\n      not\n      and\n      swap1\n      dup4\n      0x02\n      dup2\n      gt\n      iszero\n      tag_189\n      jumpi\n      invalid\n    tag_189:\n      mul\n      or\n      swap1\n      sstore\n      pop\n      0x0100\n      dup3\n      add\n      mload\n      dup2\n      0x09\n      add\n      sstore\n      swap1\n      pop\n      pop\n        /* \"QuadraticVoting.sol\":3276:3286  nProposals */\n      0x06\n      0x00\n        /* \"QuadraticVoting.sol\":3276:3288  nProposals++ */\n      dup2\n      sload\n      dup1\n      swap3\n      swap2\n      swap1\n      0x01\n      add\n      swap2\n      swap1\n      pop\n      sstore\n      pop\n        /* \"QuadraticVoting.sol\":3309:3310  0 */\n      0x00\n        /* \"QuadraticVoting.sol\":3301:3307  budget */\n      dup5\n        /* \"QuadraticVoting.sol\":3301:3310  budget!=0 */\n      eq\n        /* \"QuadraticVoting.sol\":3298:3342  if(budget!=0)... */\n      tag_190\n      jumpi\n        /* \"QuadraticVoting.sol\":3328:3342  lastProposalId */\n      sload(0x09)\n        /* \"QuadraticVoting.sol\":3321:3342  return lastProposalId */\n      swap2\n      pop\n      pop\n      jump(tag_181)\n        /* \"QuadraticVoting.sol\":3298:3342  if(budget!=0)... */\n    tag_190:\n        /* \"QuadraticVoting.sol\":9452:9453  _ */\n      pop\n    tag_181:\n        /* \"QuadraticVoting.sol\":2581:3349  function addProposal(string calldata title, string calldata description, uint budget, address executableProposal) checkParticipant checkOpenVoting external returns(uint) {... */\n      swap7\n      swap6\n      pop\n      pop\n      pop\n      pop\n      pop\n      pop\n      jump\t// out\n        /* \"QuadraticVoting.sol\":4087:4582  function getPendingProposals() checkOpenVoting external returns(uint[] memory) {... */\n    tag_59:\n        /* \"QuadraticVoting.sol\":4151:4164  uint[] memory */\n      0x60\n        /* \"QuadraticVoting.sol\":9397:9422  QuadraticVotingState.OPEN */\n      0x01\n        /* \"QuadraticVoting.sol\":9382:9422  votingState == QuadraticVotingState.OPEN */\n      0x02\n      dup2\n      gt\n      iszero\n      tag_192\n      jumpi\n      invalid\n    tag_192:\n        /* \"QuadraticVoting.sol\":9382:9393  votingState */\n      0x01\n      0x14\n      swap1\n      sload\n      swap1\n      0x0100\n      exp\n      swap1\n      div\n      0xff\n      and\n        /* \"QuadraticVoting.sol\":9382:9422  votingState == QuadraticVotingState.OPEN */\n      0x02\n      dup2\n      gt\n      iszero\n      tag_193\n      jumpi\n      invalid\n    tag_193:\n      eq\n        /* \"QuadraticVoting.sol\":9374:9442  require(votingState == QuadraticVotingState.OPEN, \"Voting not open\") */\n      tag_194\n      jumpi\n      mload(0x40)\n      0x08c379a000000000000000000000000000000000000000000000000000000000\n      dup2\n      mstore\n      0x04\n      add\n      dup1\n      dup1\n      0x20\n      add\n      dup3\n      dup2\n      sub\n      dup3\n      mstore\n      0x0f\n      dup2\n      mstore\n      0x20\n      add\n      dup1\n      0x566f74696e67206e6f74206f70656e0000000000000000000000000000000000\n      dup2\n      mstore\n      pop\n      0x20\n      add\n      swap2\n      pop\n      pop\n      mload(0x40)\n      dup1\n      swap2\n      sub\n      swap1\n      revert\n    tag_194:\n        /* \"QuadraticVoting.sol\":4183:4202  pendingProposalsIds */\n      0x0a\n      0x00\n        /* \"QuadraticVoting.sol\":4176:4202  delete pendingProposalsIds */\n      tag_196\n      swap2\n      swap1\n      tag_98\n      jump\t// in\n    tag_196:\n        /* \"QuadraticVoting.sol\":4319:4326  uint id */\n      0x00\n        /* \"QuadraticVoting.sol\":4329:4346  initialProposalId */\n      sload(0x08)\n        /* \"QuadraticVoting.sol\":4319:4346  uint id = initialProposalId */\n      swap1\n      pop\n        /* \"QuadraticVoting.sol\":4314:4539  for (uint id = initialProposalId; id <= lastProposalId; id++) {... */\n    tag_197:\n        /* \"QuadraticVoting.sol\":4354:4368  lastProposalId */\n      sload(0x09)\n        /* \"QuadraticVoting.sol\":4348:4350  id */\n      dup2\n        /* \"QuadraticVoting.sol\":4348:4368  id <= lastProposalId */\n      gt\n        /* \"QuadraticVoting.sol\":4314:4539  for (uint id = initialProposalId; id <= lastProposalId; id++) {... */\n      tag_198\n      jumpi\n        /* \"QuadraticVoting.sol\":4417:4438  ProposalState.ENABLED */\n      0x00\n        /* \"QuadraticVoting.sol\":4394:4438  proposals[id].state == ProposalState.ENABLED */\n      0x02\n      dup2\n      gt\n      iszero\n      tag_200\n      jumpi\n      invalid\n    tag_200:\n        /* \"QuadraticVoting.sol\":4394:4403  proposals */\n      0x07\n        /* \"QuadraticVoting.sol\":4394:4407  proposals[id] */\n      0x00\n        /* \"QuadraticVoting.sol\":4404:4406  id */\n      dup4\n        /* \"QuadraticVoting.sol\":4394:4407  proposals[id] */\n      dup2\n      mstore\n      0x20\n      add\n      swap1\n      dup2\n      mstore\n      0x20\n      add\n      0x00\n      keccak256\n        /* \"QuadraticVoting.sol\":4394:4413  proposals[id].state */\n      0x08\n      add\n      0x00\n      swap1\n      sload\n      swap1\n      0x0100\n      exp\n      swap1\n      div\n      0xff\n      and\n        /* \"QuadraticVoting.sol\":4394:4438  proposals[id].state == ProposalState.ENABLED */\n      0x02\n      dup2\n      gt\n      iszero\n      tag_201\n      jumpi\n      invalid\n    tag_201:\n      eq\n        /* \"QuadraticVoting.sol\":4394:4466  proposals[id].state == ProposalState.ENABLED && proposals[id].budget > 0 */\n      dup1\n      iszero\n      tag_202\n      jumpi\n      pop\n        /* \"QuadraticVoting.sol\":4465:4466  0 */\n      0x00\n        /* \"QuadraticVoting.sol\":4442:4451  proposals */\n      0x07\n        /* \"QuadraticVoting.sol\":4442:4455  proposals[id] */\n      0x00\n        /* \"QuadraticVoting.sol\":4452:4454  id */\n      dup4\n        /* \"QuadraticVoting.sol\":4442:4455  proposals[id] */\n      dup2\n      mstore\n      0x20\n      add\n      swap1\n      dup2\n      mstore\n      0x20\n      add\n      0x00\n      keccak256\n        /* \"QuadraticVoting.sol\":4442:4462  proposals[id].budget */\n      0x04\n      add\n      sload\n        /* \"QuadraticVoting.sol\":4442:4466  proposals[id].budget > 0 */\n      gt\n        /* \"QuadraticVoting.sol\":4394:4466  proposals[id].state == ProposalState.ENABLED && proposals[id].budget > 0 */\n    tag_202:\n        /* \"QuadraticVoting.sol\":4390:4529  if (proposals[id].state == ProposalState.ENABLED && proposals[id].budget > 0) {... */\n      iszero\n      tag_203\n      jumpi\n        /* \"QuadraticVoting.sol\":4486:4505  pendingProposalsIds */\n      0x0a\n        /* \"QuadraticVoting.sol\":4511:4513  id */\n      dup2\n        /* \"QuadraticVoting.sol\":4486:4514  pendingProposalsIds.push(id) */\n      swap1\n      dup1\n        /* \"--CODEGEN--\":39:40   */\n      0x01\n        /* \"--CODEGEN--\":33:36   */\n      dup2\n        /* \"--CODEGEN--\":27:37   */\n      sload\n        /* \"--CODEGEN--\":23:41   */\n      add\n        /* \"--CODEGEN--\":57:67   */\n      dup1\n        /* \"--CODEGEN--\":52:55   */\n      dup3\n        /* \"--CODEGEN--\":45:68   */\n      sstore\n        /* \"--CODEGEN--\":79:89   */\n      dup1\n        /* \"--CODEGEN--\":72:89   */\n      swap2\n      pop\n        /* \"--CODEGEN--\":0:93   */\n      pop\n        /* \"QuadraticVoting.sol\":4486:4514  pendingProposalsIds.push(id) */\n      swap1\n      0x01\n      dup3\n      sub\n      swap1\n      0x00\n      mstore\n      keccak256(0x00, 0x20)\n      add\n      0x00\n      swap1\n      swap2\n      swap3\n      swap1\n      swap2\n      swap1\n      swap2\n      pop\n      sstore\n      pop\n        /* \"QuadraticVoting.sol\":4390:4529  if (proposals[id].state == ProposalState.ENABLED && proposals[id].budget > 0) {... */\n    tag_203:\n        /* \"QuadraticVoting.sol\":4370:4374  id++ */\n      dup1\n      dup1\n      0x01\n      add\n      swap2\n      pop\n      pop\n        /* \"QuadraticVoting.sol\":4314:4539  for (uint id = initialProposalId; id <= lastProposalId; id++) {... */\n      jump(tag_197)\n    tag_198:\n      pop\n        /* \"QuadraticVoting.sol\":4556:4575  pendingProposalsIds */\n      0x0a\n        /* \"QuadraticVoting.sol\":4549:4575  return pendingProposalsIds */\n      dup1\n      sload\n      dup1\n      0x20\n      mul\n      0x20\n      add\n      mload(0x40)\n      swap1\n      dup2\n      add\n      0x40\n      mstore\n      dup1\n      swap3\n      swap2\n      swap1\n      dup2\n      dup2\n      mstore\n      0x20\n      add\n      dup3\n      dup1\n      sload\n      dup1\n      iszero\n      tag_205\n      jumpi\n      0x20\n      mul\n      dup3\n      add\n      swap2\n      swap1\n      0x00\n      mstore\n      keccak256(0x00, 0x20)\n      swap1\n    tag_206:\n      dup2\n      sload\n      dup2\n      mstore\n      0x20\n      add\n      swap1\n      0x01\n      add\n      swap1\n      dup1\n      dup4\n      gt\n      tag_206\n      jumpi\n    tag_205:\n      pop\n      pop\n      pop\n      pop\n      pop\n      swap1\n      pop\n        /* \"QuadraticVoting.sol\":4087:4582  function getPendingProposals() checkOpenVoting external returns(uint[] memory) {... */\n      swap1\n      jump\t// out\n        /* \"QuadraticVoting.sol\":2163:2331  function openVoting() checkOwner checkCanOpenVoting external payable {... */\n    tag_64:\n        /* \"QuadraticVoting.sol\":8918:8923  owner */\n      0x00\n      dup1\n      swap1\n      sload\n      swap1\n      0x0100\n      exp\n      swap1\n      div\n      0xffffffffffffffffffffffffffffffffffffffff\n      and\n        /* \"QuadraticVoting.sol\":8904:8923  msg.sender == owner */\n      0xffffffffffffffffffffffffffffffffffffffff\n      and\n        /* \"QuadraticVoting.sol\":8904:8914  msg.sender */\n      caller\n        /* \"QuadraticVoting.sol\":8904:8923  msg.sender == owner */\n      0xffffffffffffffffffffffffffffffffffffffff\n      and\n      eq\n        /* \"QuadraticVoting.sol\":8896:8940  require(msg.sender == owner, \"Unauthorized\") */\n      tag_208\n      jumpi\n      mload(0x40)\n      0x08c379a000000000000000000000000000000000000000000000000000000000\n      dup2\n      mstore\n      0x04\n      add\n      dup1\n      dup1\n      0x20\n      add\n      dup3\n      dup2\n      sub\n      dup3\n      mstore\n      0x0c\n      dup2\n      mstore\n      0x20\n      add\n      dup1\n      0x556e617574686f72697a65640000000000000000000000000000000000000000\n      dup2\n      mstore\n      pop\n      0x20\n      add\n      swap2\n      pop\n      pop\n      mload(0x40)\n      dup1\n      swap2\n      sub\n      swap1\n      revert\n    tag_208:\n        /* \"QuadraticVoting.sol\":9667:9695  QuadraticVotingState.WAITING */\n      0x02\n        /* \"QuadraticVoting.sol\":9652:9695  votingState == QuadraticVotingState.WAITING */\n      dup1\n      dup2\n      gt\n      iszero\n      tag_210\n      jumpi\n      invalid\n    tag_210:\n        /* \"QuadraticVoting.sol\":9652:9663  votingState */\n      0x01\n      0x14\n      swap1\n      sload\n      swap1\n      0x0100\n      exp\n      swap1\n      div\n      0xff\n      and\n        /* \"QuadraticVoting.sol\":9652:9695  votingState == QuadraticVotingState.WAITING */\n      0x02\n      dup2\n      gt\n      iszero\n      tag_211\n      jumpi\n      invalid\n    tag_211:\n      eq\n        /* \"QuadraticVoting.sol\":9652:9741  votingState == QuadraticVotingState.WAITING || votingState == QuadraticVotingState.CLOSED */\n      dup1\n      tag_212\n      jumpi\n      pop\n        /* \"QuadraticVoting.sol\":9714:9741  QuadraticVotingState.CLOSED */\n      0x00\n        /* \"QuadraticVoting.sol\":9699:9741  votingState == QuadraticVotingState.CLOSED */\n      0x02\n      dup2\n      gt\n      iszero\n      tag_213\n      jumpi\n      invalid\n    tag_213:\n        /* \"QuadraticVoting.sol\":9699:9710  votingState */\n      0x01\n      0x14\n      swap1\n      sload\n      swap1\n      0x0100\n      exp\n      swap1\n      div\n      0xff\n      and\n        /* \"QuadraticVoting.sol\":9699:9741  votingState == QuadraticVotingState.CLOSED */\n      0x02\n      dup2\n      gt\n      iszero\n      tag_214\n      jumpi\n      invalid\n    tag_214:\n      eq\n        /* \"QuadraticVoting.sol\":9652:9741  votingState == QuadraticVotingState.WAITING || votingState == QuadraticVotingState.CLOSED */\n    tag_212:\n        /* \"QuadraticVoting.sol\":9644:9764  require(votingState == QuadraticVotingState.WAITING || votingState == QuadraticVotingState.CLOSED, \"Voting cannot open\") */\n      tag_215\n      jumpi\n      mload(0x40)\n      0x08c379a000000000000000000000000000000000000000000000000000000000\n      dup2\n      mstore\n      0x04\n      add\n      dup1\n      dup1\n      0x20\n      add\n      dup3\n      dup2\n      sub\n      dup3\n      mstore\n      0x12\n      dup2\n      mstore\n      0x20\n      add\n      dup1\n      0x566f74696e672063616e6e6f74206f70656e0000000000000000000000000000\n      dup2\n      mstore\n      pop\n      0x20\n      add\n      swap2\n      pop\n      pop\n      mload(0x40)\n      dup1\n      swap2\n      sub\n      swap1\n      revert\n    tag_215:\n        /* \"QuadraticVoting.sol\":2256:2281  QuadraticVotingState.OPEN */\n      0x01\n        /* \"QuadraticVoting.sol\":2242:2253  votingState */\n      dup1\n      0x14\n        /* \"QuadraticVoting.sol\":2242:2281  votingState = QuadraticVotingState.OPEN */\n      0x0100\n      exp\n      dup2\n      sload\n      dup2\n      0xff\n      mul\n      not\n      and\n      swap1\n      dup4\n      0x02\n      dup2\n      gt\n      iszero\n      tag_217\n      jumpi\n      invalid\n    tag_217:\n      mul\n      or\n      swap1\n      sstore\n      pop\n        /* \"QuadraticVoting.sol\":2291:2299  _clear() */\n      tag_218\n        /* \"QuadraticVoting.sol\":2291:2297  _clear */\n      tag_219\n        /* \"QuadraticVoting.sol\":2291:2299  _clear() */\n      jump\t// in\n    tag_218:\n        /* \"QuadraticVoting.sol\":2314:2324  OpenVote() */\n      0x1c9b9ae417b15d6782146a380a280b52403258caac00795087e065bbc9fb9e80\n      mload(0x40)\n      mload(0x40)\n      dup1\n      swap2\n      sub\n      swap1\n      log1\n        /* \"QuadraticVoting.sol\":2163:2331  function openVoting() checkOwner checkCanOpenVoting external payable {... */\n      jump\t// out\n        /* \"QuadraticVoting.sol\":5605:5871  function getProposalInfo(uint id) checkOpenVoting view external returns(string memory title, string memory description, IExecutableProposal executableProposal) {... */\n    tag_68:\n        /* \"QuadraticVoting.sol\":5677:5696  string memory title */\n      0x60\n        /* \"QuadraticVoting.sol\":5698:5723  string memory description */\n      dup1\n        /* \"QuadraticVoting.sol\":5725:5763  IExecutableProposal executableProposal */\n      0x00\n        /* \"QuadraticVoting.sol\":9397:9422  QuadraticVotingState.OPEN */\n      0x01\n        /* \"QuadraticVoting.sol\":9382:9422  votingState == QuadraticVotingState.OPEN */\n      0x02\n      dup2\n      gt\n      iszero\n      tag_221\n      jumpi\n      invalid\n    tag_221:\n        /* \"QuadraticVoting.sol\":9382:9393  votingState */\n      0x01\n      0x14\n      swap1\n      sload\n      swap1\n      0x0100\n      exp\n      swap1\n      div\n      0xff\n      and\n        /* \"QuadraticVoting.sol\":9382:9422  votingState == QuadraticVotingState.OPEN */\n      0x02\n      dup2\n      gt\n      iszero\n      tag_222\n      jumpi\n      invalid\n    tag_222:\n      eq\n        /* \"QuadraticVoting.sol\":9374:9442  require(votingState == QuadraticVotingState.OPEN, \"Voting not open\") */\n      tag_223\n      jumpi\n      mload(0x40)\n      0x08c379a000000000000000000000000000000000000000000000000000000000\n      dup2\n      mstore\n      0x04\n      add\n      dup1\n      dup1\n      0x20\n      add\n      dup3\n      dup2\n      sub\n      dup3\n      mstore\n      0x0f\n      dup2\n      mstore\n      0x20\n      add\n      dup1\n      0x566f74696e67206e6f74206f70656e0000000000000000000000000000000000\n      dup2\n      mstore\n      pop\n      0x20\n      add\n      swap2\n      pop\n      pop\n      mload(0x40)\n      dup1\n      swap2\n      sub\n      swap1\n      revert\n    tag_223:\n        /* \"QuadraticVoting.sol\":5783:5792  proposals */\n      0x07\n        /* \"QuadraticVoting.sol\":5783:5796  proposals[id] */\n      0x00\n        /* \"QuadraticVoting.sol\":5793:5795  id */\n      dup6\n        /* \"QuadraticVoting.sol\":5783:5796  proposals[id] */\n      dup2\n      mstore\n      0x20\n      add\n      swap1\n      dup2\n      mstore\n      0x20\n      add\n      0x00\n      keccak256\n        /* \"QuadraticVoting.sol\":5783:5802  proposals[id].title */\n      0x02\n      add\n        /* \"QuadraticVoting.sol\":5804:5813  proposals */\n      0x07\n        /* \"QuadraticVoting.sol\":5804:5817  proposals[id] */\n      0x00\n        /* \"QuadraticVoting.sol\":5814:5816  id */\n      dup7\n        /* \"QuadraticVoting.sol\":5804:5817  proposals[id] */\n      dup2\n      mstore\n      0x20\n      add\n      swap1\n      dup2\n      mstore\n      0x20\n      add\n      0x00\n      keccak256\n        /* \"QuadraticVoting.sol\":5804:5829  proposals[id].description */\n      0x03\n      add\n        /* \"QuadraticVoting.sol\":5831:5840  proposals */\n      0x07\n        /* \"QuadraticVoting.sol\":5831:5844  proposals[id] */\n      0x00\n        /* \"QuadraticVoting.sol\":5841:5843  id */\n      dup8\n        /* \"QuadraticVoting.sol\":5831:5844  proposals[id] */\n      dup2\n      mstore\n      0x20\n      add\n      swap1\n      dup2\n      mstore\n      0x20\n      add\n      0x00\n      keccak256\n        /* \"QuadraticVoting.sol\":5831:5863  proposals[id].executableProposal */\n      0x01\n      add\n      0x00\n      swap1\n      sload\n      swap1\n      0x0100\n      exp\n      swap1\n      div\n      0xffffffffffffffffffffffffffffffffffffffff\n      and\n        /* \"QuadraticVoting.sol\":5775:5864  return (proposals[id].title, proposals[id].description, proposals[id].executableProposal) */\n      dup3\n      dup1\n      sload\n      0x01\n      dup2\n      0x01\n      and\n      iszero\n      0x0100\n      mul\n      sub\n      and\n      0x02\n      swap1\n      div\n      dup1\n      0x1f\n      add\n      0x20\n      dup1\n      swap2\n      div\n      mul\n      0x20\n      add\n      mload(0x40)\n      swap1\n      dup2\n      add\n      0x40\n      mstore\n      dup1\n      swap3\n      swap2\n      swap1\n      dup2\n      dup2\n      mstore\n      0x20\n      add\n      dup3\n      dup1\n      sload\n      0x01\n      dup2\n      0x01\n      and\n      iszero\n      0x0100\n      mul\n      sub\n      and\n      0x02\n      swap1\n      div\n      dup1\n      iszero\n      tag_225\n      jumpi\n      dup1\n      0x1f\n      lt\n      tag_226\n      jumpi\n      0x0100\n      dup1\n      dup4\n      sload\n      div\n      mul\n      dup4\n      mstore\n      swap2\n      0x20\n      add\n      swap2\n      jump(tag_225)\n    tag_226:\n      dup3\n      add\n      swap2\n      swap1\n      0x00\n      mstore\n      keccak256(0x00, 0x20)\n      swap1\n    tag_227:\n      dup2\n      sload\n      dup2\n      mstore\n      swap1\n      0x01\n      add\n      swap1\n      0x20\n      add\n      dup1\n      dup4\n      gt\n      tag_227\n      jumpi\n      dup3\n      swap1\n      sub\n      0x1f\n      and\n      dup3\n      add\n      swap2\n    tag_225:\n      pop\n      pop\n      pop\n      pop\n      pop\n      swap3\n      pop\n      dup2\n      dup1\n      sload\n      0x01\n      dup2\n      0x01\n      and\n      iszero\n      0x0100\n      mul\n      sub\n      and\n      0x02\n      swap1\n      div\n      dup1\n      0x1f\n      add\n      0x20\n      dup1\n      swap2\n      div\n      mul\n      0x20\n      add\n      mload(0x40)\n      swap1\n      dup2\n      add\n      0x40\n      mstore\n      dup1\n      swap3\n      swap2\n      swap1\n      dup2\n      dup2\n      mstore\n      0x20\n      add\n      dup3\n      dup1\n      sload\n      0x01\n      dup2\n      0x01\n      and\n      iszero\n      0x0100\n      mul\n      sub\n      and\n      0x02\n      swap1\n      div\n      dup1\n      iszero\n      tag_228\n      jumpi\n      dup1\n      0x1f\n      lt\n      tag_229\n      jumpi\n      0x0100\n      dup1\n      dup4\n      sload\n      div\n      mul\n      dup4\n      mstore\n      swap2\n      0x20\n      add\n      swap2\n      jump(tag_228)\n    tag_229:\n      dup3\n      add\n      swap2\n      swap1\n      0x00\n      mstore\n      keccak256(0x00, 0x20)\n      swap1\n    tag_230:\n      dup2\n      sload\n      dup2\n      mstore\n      swap1\n      0x01\n      add\n      swap1\n      0x20\n      add\n      dup1\n      dup4\n      gt\n      tag_230\n      jumpi\n      dup3\n      swap1\n      sub\n      0x1f\n      and\n      dup3\n      add\n      swap2\n    tag_228:\n      pop\n      pop\n      pop\n      pop\n      pop\n      swap2\n      pop\n      swap3\n      pop\n      swap3\n      pop\n      swap3\n      pop\n        /* \"QuadraticVoting.sol\":5605:5871  function getProposalInfo(uint id) checkOpenVoting view external returns(string memory title, string memory description, IExecutableProposal executableProposal) {... */\n      swap2\n      swap4\n      swap1\n      swap3\n      pop\n      jump\t// out\n        /* \"QuadraticVoting.sol\":8582:8712  function closeVoting() checkOwner external {... */\n    tag_79:\n        /* \"QuadraticVoting.sol\":8918:8923  owner */\n      0x00\n      dup1\n      swap1\n      sload\n      swap1\n      0x0100\n      exp\n      swap1\n      div\n      0xffffffffffffffffffffffffffffffffffffffff\n      and\n        /* \"QuadraticVoting.sol\":8904:8923  msg.sender == owner */\n      0xffffffffffffffffffffffffffffffffffffffff\n      and\n        /* \"QuadraticVoting.sol\":8904:8914  msg.sender */\n      caller\n        /* \"QuadraticVoting.sol\":8904:8923  msg.sender == owner */\n      0xffffffffffffffffffffffffffffffffffffffff\n      and\n      eq\n        /* \"QuadraticVoting.sol\":8896:8940  require(msg.sender == owner, \"Unauthorized\") */\n      tag_232\n      jumpi\n      mload(0x40)\n      0x08c379a000000000000000000000000000000000000000000000000000000000\n      dup2\n      mstore\n      0x04\n      add\n      dup1\n      dup1\n      0x20\n      add\n      dup3\n      dup2\n      sub\n      dup3\n      mstore\n      0x0c\n      dup2\n      mstore\n      0x20\n      add\n      dup1\n      0x556e617574686f72697a65640000000000000000000000000000000000000000\n      dup2\n      mstore\n      pop\n      0x20\n      add\n      swap2\n      pop\n      pop\n      mload(0x40)\n      dup1\n      swap2\n      sub\n      swap1\n      revert\n    tag_232:\n        /* \"QuadraticVoting.sol\":8649:8677  QuadraticVotingState.WAITING */\n      0x02\n        /* \"QuadraticVoting.sol\":8635:8646  votingState */\n      0x01\n      0x14\n        /* \"QuadraticVoting.sol\":8635:8677  votingState = QuadraticVotingState.WAITING */\n      0x0100\n      exp\n      dup2\n      sload\n      dup2\n      0xff\n      mul\n      not\n      and\n      swap1\n      dup4\n      0x02\n      dup2\n      gt\n      iszero\n      tag_234\n      jumpi\n      invalid\n    tag_234:\n      mul\n      or\n      swap1\n      sstore\n      pop\n        /* \"QuadraticVoting.sol\":8692:8705  WaitingVote() */\n      0xf4e0c2a3ccfdad421c3e3559795347dd6fe723001df3ae4558bfd557ce59d6be\n      mload(0x40)\n      mload(0x40)\n      dup1\n      swap2\n      sub\n      swap1\n      log1\n        /* \"QuadraticVoting.sol\":8582:8712  function closeVoting() checkOwner external {... */\n      jump\t// out\n        /* \"QuadraticVoting.sol\":3588:3791  function buyTokens() checkParticipant checkMinimumPurchaseAmount(msg.value) checkMaxTokens(msg.value / tokenPrice) external payable {... */\n    tag_81:\n        /* \"QuadraticVoting.sol\":9010:9022  participants */\n      0x05\n        /* \"QuadraticVoting.sol\":9010:9034  participants[msg.sender] */\n      0x00\n        /* \"QuadraticVoting.sol\":9023:9033  msg.sender */\n      caller\n        /* \"QuadraticVoting.sol\":9010:9034  participants[msg.sender] */\n      0xffffffffffffffffffffffffffffffffffffffff\n      and\n      0xffffffffffffffffffffffffffffffffffffffff\n      and\n      dup2\n      mstore\n      0x20\n      add\n      swap1\n      dup2\n      mstore\n      0x20\n      add\n      0x00\n      keccak256\n      0x00\n      swap1\n      sload\n      swap1\n      0x0100\n      exp\n      swap1\n      div\n      0xff\n      and\n        /* \"QuadraticVoting.sol\":9002:9056  require(participants[msg.sender], \"Not a participant\") */\n      tag_236\n      jumpi\n      mload(0x40)\n      0x08c379a000000000000000000000000000000000000000000000000000000000\n      dup2\n      mstore\n      0x04\n      add\n      dup1\n      dup1\n      0x20\n      add\n      dup3\n      dup2\n      sub\n      dup3\n      mstore\n      0x11\n      dup2\n      mstore\n      0x20\n      add\n      dup1\n      0x4e6f742061207061727469636970616e74000000000000000000000000000000\n      dup2\n      mstore\n      pop\n      0x20\n      add\n      swap2\n      pop\n      pop\n      mload(0x40)\n      dup1\n      swap2\n      sub\n      swap1\n      revert\n    tag_236:\n        /* \"QuadraticVoting.sol\":3653:3662  msg.value */\n      callvalue\n        /* \"QuadraticVoting.sol\":10134:10144  tokenPrice */\n      sload(0x02)\n        /* \"QuadraticVoting.sol\":10124:10130  amount */\n      dup2\n        /* \"QuadraticVoting.sol\":10124:10144  amount >= tokenPrice */\n      lt\n      iszero\n        /* \"QuadraticVoting.sol\":10116:10172  require(amount >= tokenPrice, \"Invalid purchase amount\") */\n      tag_238\n      jumpi\n      mload(0x40)\n      0x08c379a000000000000000000000000000000000000000000000000000000000\n      dup2\n      mstore\n      0x04\n      add\n      dup1\n      dup1\n      0x20\n      add\n      dup3\n      dup2\n      sub\n      dup3\n      mstore\n      0x17\n      dup2\n      mstore\n      0x20\n      add\n      dup1\n      0x496e76616c696420707572636861736520616d6f756e74000000000000000000\n      dup2\n      mstore\n      pop\n      0x20\n      add\n      swap2\n      pop\n      pop\n      mload(0x40)\n      dup1\n      swap2\n      sub\n      swap1\n      revert\n    tag_238:\n        /* \"QuadraticVoting.sol\":3691:3701  tokenPrice */\n      sload(0x02)\n        /* \"QuadraticVoting.sol\":3679:3688  msg.value */\n      callvalue\n        /* \"QuadraticVoting.sol\":3679:3701  msg.value / tokenPrice */\n      dup2\n      tag_239\n      jumpi\n      invalid\n    tag_239:\n      div\n        /* \"QuadraticVoting.sol\":10435:10444  maxTokens */\n      sload(0x03)\n        /* \"QuadraticVoting.sol\":10426:10432  amount */\n      dup2\n        /* \"QuadraticVoting.sol\":10396:10409  tokenContract */\n      0x01\n      0x00\n      swap1\n      sload\n      swap1\n      0x0100\n      exp\n      swap1\n      div\n      0xffffffffffffffffffffffffffffffffffffffff\n      and\n        /* \"QuadraticVoting.sol\":10396:10421  tokenContract.totalSupply */\n      0xffffffffffffffffffffffffffffffffffffffff\n      and\n      0x18160ddd\n        /* \"QuadraticVoting.sol\":10396:10423  tokenContract.totalSupply() */\n      mload(0x40)\n      dup2\n      0xffffffff\n      and\n      0xe0\n      shl\n      dup2\n      mstore\n      0x04\n      add\n      0x20\n      mload(0x40)\n      dup1\n      dup4\n      sub\n      dup2\n      dup7\n      dup1\n      extcodesize\n      iszero\n        /* \"--CODEGEN--\":8:17   */\n      dup1\n        /* \"--CODEGEN--\":5:7   */\n      iszero\n      tag_241\n      jumpi\n        /* \"--CODEGEN--\":30:31   */\n      0x00\n        /* \"--CODEGEN--\":27:28   */\n      dup1\n        /* \"--CODEGEN--\":20:32   */\n      revert\n        /* \"--CODEGEN--\":5:7   */\n    tag_241:\n        /* \"QuadraticVoting.sol\":10396:10423  tokenContract.totalSupply() */\n      pop\n      gas\n      staticcall\n      iszero\n        /* \"--CODEGEN--\":8:17   */\n      dup1\n        /* \"--CODEGEN--\":5:7   */\n      iszero\n      tag_242\n      jumpi\n        /* \"--CODEGEN--\":45:61   */\n      returndatasize\n        /* \"--CODEGEN--\":42:43   */\n      0x00\n        /* \"--CODEGEN--\":39:40   */\n      dup1\n        /* \"--CODEGEN--\":24:62   */\n      returndatacopy\n        /* \"--CODEGEN--\":77:93   */\n      returndatasize\n        /* \"--CODEGEN--\":74:75   */\n      0x00\n        /* \"--CODEGEN--\":67:94   */\n      revert\n        /* \"--CODEGEN--\":5:7   */\n    tag_242:\n        /* \"QuadraticVoting.sol\":10396:10423  tokenContract.totalSupply() */\n      pop\n      pop\n      pop\n      pop\n      mload(0x40)\n      returndatasize\n        /* \"--CODEGEN--\":13:15   */\n      0x20\n        /* \"--CODEGEN--\":8:11   */\n      dup2\n        /* \"--CODEGEN--\":5:16   */\n      lt\n        /* \"--CODEGEN--\":2:4   */\n      iszero\n      tag_243\n      jumpi\n        /* \"--CODEGEN--\":29:30   */\n      0x00\n        /* \"--CODEGEN--\":26:27   */\n      dup1\n        /* \"--CODEGEN--\":19:31   */\n      revert\n        /* \"--CODEGEN--\":2:4   */\n    tag_243:\n        /* \"QuadraticVoting.sol\":10396:10423  tokenContract.totalSupply() */\n      dup2\n      add\n      swap1\n      dup1\n      dup1\n      mload\n      swap1\n      0x20\n      add\n      swap1\n      swap3\n      swap2\n      swap1\n      pop\n      pop\n      pop\n        /* \"QuadraticVoting.sol\":10396:10432  tokenContract.totalSupply() + amount */\n      add\n        /* \"QuadraticVoting.sol\":10396:10444  tokenContract.totalSupply() + amount < maxTokens */\n      lt\n        /* \"QuadraticVoting.sol\":10388:10497  require(tokenContract.totalSupply() + amount < maxTokens , \"The maximum number of tokens has been generated\") */\n      tag_244\n      jumpi\n      mload(0x40)\n      0x08c379a000000000000000000000000000000000000000000000000000000000\n      dup2\n      mstore\n      0x04\n      add\n      dup1\n      dup1\n      0x20\n      add\n      dup3\n      dup2\n      sub\n      dup3\n      mstore\n      0x2f\n      dup2\n      mstore\n      0x20\n      add\n      dup1\n      data_14b304433698afa5c4d30ca6f8a9048a66753dc8a6bc1b8a9d4c979ccf1a0388\n      0x2f\n      swap2\n      codecopy\n      0x40\n      add\n      swap2\n      pop\n      pop\n      mload(0x40)\n      dup1\n      swap2\n      sub\n      swap1\n      revert\n    tag_244:\n        /* \"QuadraticVoting.sol\":3730:3743  tokenContract */\n      0x01\n      0x00\n      swap1\n      sload\n      swap1\n      0x0100\n      exp\n      swap1\n      div\n      0xffffffffffffffffffffffffffffffffffffffff\n      and\n        /* \"QuadraticVoting.sol\":3730:3748  tokenContract.mint */\n      0xffffffffffffffffffffffffffffffffffffffff\n      and\n      0x40c10f19\n        /* \"QuadraticVoting.sol\":3749:3759  msg.sender */\n      caller\n        /* \"QuadraticVoting.sol\":3773:3783  tokenPrice */\n      sload(0x02)\n        /* \"QuadraticVoting.sol\":3761:3770  msg.value */\n      callvalue\n        /* \"QuadraticVoting.sol\":3761:3783  msg.value / tokenPrice */\n      dup2\n      tag_246\n      jumpi\n      invalid\n    tag_246:\n      div\n        /* \"QuadraticVoting.sol\":3730:3784  tokenContract.mint(msg.sender, msg.value / tokenPrice) */\n      mload(0x40)\n      dup4\n      0xffffffff\n      and\n      0xe0\n      shl\n      dup2\n      mstore\n      0x04\n      add\n      dup1\n      dup4\n      0xffffffffffffffffffffffffffffffffffffffff\n      and\n      0xffffffffffffffffffffffffffffffffffffffff\n      and\n      dup2\n      mstore\n      0x20\n      add\n      dup3\n      dup2\n      mstore\n      0x20\n      add\n      swap3\n      pop\n      pop\n      pop\n      0x00\n      mload(0x40)\n      dup1\n      dup4\n      sub\n      dup2\n      0x00\n      dup8\n      dup1\n      extcodesize\n      iszero\n        /* \"--CODEGEN--\":8:17   */\n      dup1\n        /* \"--CODEGEN--\":5:7   */\n      iszero\n      tag_247\n      jumpi\n        /* \"--CODEGEN--\":30:31   */\n      0x00\n        /* \"--CODEGEN--\":27:28   */\n      dup1\n        /* \"--CODEGEN--\":20:32   */\n      revert\n        /* \"--CODEGEN--\":5:7   */\n    tag_247:\n        /* \"QuadraticVoting.sol\":3730:3784  tokenContract.mint(msg.sender, msg.value / tokenPrice) */\n      pop\n      gas\n      call\n      iszero\n        /* \"--CODEGEN--\":8:17   */\n      dup1\n        /* \"--CODEGEN--\":5:7   */\n      iszero\n      tag_248\n      jumpi\n        /* \"--CODEGEN--\":45:61   */\n      returndatasize\n        /* \"--CODEGEN--\":42:43   */\n      0x00\n        /* \"--CODEGEN--\":39:40   */\n      dup1\n        /* \"--CODEGEN--\":24:62   */\n      returndatacopy\n        /* \"--CODEGEN--\":77:93   */\n      returndatasize\n        /* \"--CODEGEN--\":74:75   */\n      0x00\n        /* \"--CODEGEN--\":67:94   */\n      revert\n        /* \"--CODEGEN--\":5:7   */\n    tag_248:\n        /* \"QuadraticVoting.sol\":3730:3784  tokenContract.mint(msg.sender, msg.value / tokenPrice) */\n      pop\n      pop\n      pop\n      pop\n        /* \"QuadraticVoting.sol\":10182:10183  _ */\n      pop\n        /* \"QuadraticVoting.sol\":9066:9067  _ */\n      pop\n        /* \"QuadraticVoting.sol\":3588:3791  function buyTokens() checkParticipant checkMinimumPurchaseAmount(msg.value) checkMaxTokens(msg.value / tokenPrice) external payable {... */\n      jump\t// out\n        /* \"QuadraticVoting.sol\":8718:8858  function executeSignaling(uint id) checkParticipant checkProposalOwner(id) checkWaitingVoting external {... */\n    tag_85:\n        /* \"QuadraticVoting.sol\":9010:9022  participants */\n      0x05\n        /* \"QuadraticVoting.sol\":9010:9034  participants[msg.sender] */\n      0x00\n        /* \"QuadraticVoting.sol\":9023:9033  msg.sender */\n      caller\n        /* \"QuadraticVoting.sol\":9010:9034  participants[msg.sender] */\n      0xffffffffffffffffffffffffffffffffffffffff\n      and\n      0xffffffffffffffffffffffffffffffffffffffff\n      and\n      dup2\n      mstore\n      0x20\n      add\n      swap1\n      dup2\n      mstore\n      0x20\n      add\n      0x00\n      keccak256\n      0x00\n      swap1\n      sload\n      swap1\n      0x0100\n      exp\n      swap1\n      div\n      0xff\n      and\n        /* \"QuadraticVoting.sol\":9002:9056  require(participants[msg.sender], \"Not a participant\") */\n      tag_250\n      jumpi\n      mload(0x40)\n      0x08c379a000000000000000000000000000000000000000000000000000000000\n      dup2\n      mstore\n      0x04\n      add\n      dup1\n      dup1\n      0x20\n      add\n      dup3\n      dup2\n      sub\n      dup3\n      mstore\n      0x11\n      dup2\n      mstore\n      0x20\n      add\n      dup1\n      0x4e6f742061207061727469636970616e74000000000000000000000000000000\n      dup2\n      mstore\n      pop\n      0x20\n      add\n      swap2\n      pop\n      pop\n      mload(0x40)\n      dup1\n      swap2\n      sub\n      swap1\n      revert\n    tag_250:\n        /* \"QuadraticVoting.sol\":8789:8791  id */\n      dup1\n        /* \"QuadraticVoting.sol\":9866:9876  msg.sender */\n      caller\n        /* \"QuadraticVoting.sol\":9843:9876  proposals[id].owner == msg.sender */\n      0xffffffffffffffffffffffffffffffffffffffff\n      and\n        /* \"QuadraticVoting.sol\":9843:9852  proposals */\n      0x07\n        /* \"QuadraticVoting.sol\":9843:9856  proposals[id] */\n      0x00\n        /* \"QuadraticVoting.sol\":9853:9855  id */\n      dup4\n        /* \"QuadraticVoting.sol\":9843:9856  proposals[id] */\n      dup2\n      mstore\n      0x20\n      add\n      swap1\n      dup2\n      mstore\n      0x20\n      add\n      0x00\n      keccak256\n        /* \"QuadraticVoting.sol\":9843:9862  proposals[id].owner */\n      0x00\n      add\n      0x00\n      swap1\n      sload\n      swap1\n      0x0100\n      exp\n      swap1\n      div\n      0xffffffffffffffffffffffffffffffffffffffff\n      and\n        /* \"QuadraticVoting.sol\":9843:9876  proposals[id].owner == msg.sender */\n      0xffffffffffffffffffffffffffffffffffffffff\n      and\n      eq\n        /* \"QuadraticVoting.sol\":9835:9893  require(proposals[id].owner == msg.sender, \"Unauthorized\") */\n      tag_252\n      jumpi\n      mload(0x40)\n      0x08c379a000000000000000000000000000000000000000000000000000000000\n      dup2\n      mstore\n      0x04\n      add\n      dup1\n      dup1\n      0x20\n      add\n      dup3\n      dup2\n      sub\n      dup3\n      mstore\n      0x0c\n      dup2\n      mstore\n      0x20\n      add\n      dup1\n      0x556e617574686f72697a65640000000000000000000000000000000000000000\n      dup2\n      mstore\n      pop\n      0x20\n      add\n      swap2\n      pop\n      pop\n      mload(0x40)\n      dup1\n      swap2\n      sub\n      swap1\n      revert\n    tag_252:\n        /* \"QuadraticVoting.sol\":9529:9557  QuadraticVotingState.WAITING */\n      0x02\n        /* \"QuadraticVoting.sol\":9514:9557  votingState == QuadraticVotingState.WAITING */\n      dup1\n      dup2\n      gt\n      iszero\n      tag_254\n      jumpi\n      invalid\n    tag_254:\n        /* \"QuadraticVoting.sol\":9514:9525  votingState */\n      0x01\n      0x14\n      swap1\n      sload\n      swap1\n      0x0100\n      exp\n      swap1\n      div\n      0xff\n      and\n        /* \"QuadraticVoting.sol\":9514:9557  votingState == QuadraticVotingState.WAITING */\n      0x02\n      dup2\n      gt\n      iszero\n      tag_255\n      jumpi\n      invalid\n    tag_255:\n      eq\n        /* \"QuadraticVoting.sol\":9506:9580  require(votingState == QuadraticVotingState.WAITING, \"Voting not waiting\") */\n      tag_256\n      jumpi\n      mload(0x40)\n      0x08c379a000000000000000000000000000000000000000000000000000000000\n      dup2\n      mstore\n      0x04\n      add\n      dup1\n      dup1\n      0x20\n      add\n      dup3\n      dup2\n      sub\n      dup3\n      mstore\n      0x12\n      dup2\n      mstore\n      0x20\n      add\n      dup1\n      0x566f74696e67206e6f742077616974696e670000000000000000000000000000\n      dup2\n      mstore\n      pop\n      0x20\n      add\n      swap2\n      pop\n      pop\n      mload(0x40)\n      dup1\n      swap2\n      sub\n      swap1\n      revert\n    tag_256:\n        /* \"QuadraticVoting.sol\":8831:8851  _approveProposal(id) */\n      tag_258\n        /* \"QuadraticVoting.sol\":8848:8850  id */\n      dup3\n        /* \"QuadraticVoting.sol\":8831:8847  _approveProposal */\n      tag_259\n        /* \"QuadraticVoting.sol\":8831:8851  _approveProposal(id) */\n      jump\t// in\n    tag_258:\n        /* \"QuadraticVoting.sol\":9066:9067  _ */\n      pop\n        /* \"QuadraticVoting.sol\":8718:8858  function executeSignaling(uint id) checkParticipant checkProposalOwner(id) checkWaitingVoting external {... */\n      pop\n      jump\t// out\n        /* \"QuadraticVoting.sol\":3355:3582  function cancelProposal(uint id) checkParticipant checkOpenVoting checkProposalOwner(id) checkEnabledProposal(id) external {... */\n    tag_89:\n        /* \"QuadraticVoting.sol\":9010:9022  participants */\n      0x05\n        /* \"QuadraticVoting.sol\":9010:9034  participants[msg.sender] */\n      0x00\n        /* \"QuadraticVoting.sol\":9023:9033  msg.sender */\n      caller\n        /* \"QuadraticVoting.sol\":9010:9034  participants[msg.sender] */\n      0xffffffffffffffffffffffffffffffffffffffff\n      and\n      0xffffffffffffffffffffffffffffffffffffffff\n      and\n      dup2\n      mstore\n      0x20\n      add\n      swap1\n      dup2\n      mstore\n      0x20\n      add\n      0x00\n      keccak256\n      0x00\n      swap1\n      sload\n      swap1\n      0x0100\n      exp\n      swap1\n      div\n      0xff\n      and\n        /* \"QuadraticVoting.sol\":9002:9056  require(participants[msg.sender], \"Not a participant\") */\n      tag_261\n      jumpi\n      mload(0x40)\n      0x08c379a000000000000000000000000000000000000000000000000000000000\n      dup2\n      mstore\n      0x04\n      add\n      dup1\n      dup1\n      0x20\n      add\n      dup3\n      dup2\n      sub\n      dup3\n      mstore\n      0x11\n      dup2\n      mstore\n      0x20\n      add\n      dup1\n      0x4e6f742061207061727469636970616e74000000000000000000000000000000\n      dup2\n      mstore\n      pop\n      0x20\n      add\n      swap2\n      pop\n      pop\n      mload(0x40)\n      dup1\n      swap2\n      sub\n      swap1\n      revert\n    tag_261:\n        /* \"QuadraticVoting.sol\":9397:9422  QuadraticVotingState.OPEN */\n      0x01\n        /* \"QuadraticVoting.sol\":9382:9422  votingState == QuadraticVotingState.OPEN */\n      0x02\n      dup2\n      gt\n      iszero\n      tag_263\n      jumpi\n      invalid\n    tag_263:\n        /* \"QuadraticVoting.sol\":9382:9393  votingState */\n      0x01\n      0x14\n      swap1\n      sload\n      swap1\n      0x0100\n      exp\n      swap1\n      div\n      0xff\n      and\n        /* \"QuadraticVoting.sol\":9382:9422  votingState == QuadraticVotingState.OPEN */\n      0x02\n      dup2\n      gt\n      iszero\n      tag_264\n      jumpi\n      invalid\n    tag_264:\n      eq\n        /* \"QuadraticVoting.sol\":9374:9442  require(votingState == QuadraticVotingState.OPEN, \"Voting not open\") */\n      tag_265\n      jumpi\n      mload(0x40)\n      0x08c379a000000000000000000000000000000000000000000000000000000000\n      dup2\n      mstore\n      0x04\n      add\n      dup1\n      dup1\n      0x20\n      add\n      dup3\n      dup2\n      sub\n      dup3\n      mstore\n      0x0f\n      dup2\n      mstore\n      0x20\n      add\n      dup1\n      0x566f74696e67206e6f74206f70656e0000000000000000000000000000000000\n      dup2\n      mstore\n      pop\n      0x20\n      add\n      swap2\n      pop\n      pop\n      mload(0x40)\n      dup1\n      swap2\n      sub\n      swap1\n      revert\n    tag_265:\n        /* \"QuadraticVoting.sol\":3440:3442  id */\n      dup1\n        /* \"QuadraticVoting.sol\":9866:9876  msg.sender */\n      caller\n        /* \"QuadraticVoting.sol\":9843:9876  proposals[id].owner == msg.sender */\n      0xffffffffffffffffffffffffffffffffffffffff\n      and\n        /* \"QuadraticVoting.sol\":9843:9852  proposals */\n      0x07\n        /* \"QuadraticVoting.sol\":9843:9856  proposals[id] */\n      0x00\n        /* \"QuadraticVoting.sol\":9853:9855  id */\n      dup4\n        /* \"QuadraticVoting.sol\":9843:9856  proposals[id] */\n      dup2\n      mstore\n      0x20\n      add\n      swap1\n      dup2\n      mstore\n      0x20\n      add\n      0x00\n      keccak256\n        /* \"QuadraticVoting.sol\":9843:9862  proposals[id].owner */\n      0x00\n      add\n      0x00\n      swap1\n      sload\n      swap1\n      0x0100\n      exp\n      swap1\n      div\n      0xffffffffffffffffffffffffffffffffffffffff\n      and\n        /* \"QuadraticVoting.sol\":9843:9876  proposals[id].owner == msg.sender */\n      0xffffffffffffffffffffffffffffffffffffffff\n      and\n      eq\n        /* \"QuadraticVoting.sol\":9835:9893  require(proposals[id].owner == msg.sender, \"Unauthorized\") */\n      tag_267\n      jumpi\n      mload(0x40)\n      0x08c379a000000000000000000000000000000000000000000000000000000000\n      dup2\n      mstore\n      0x04\n      add\n      dup1\n      dup1\n      0x20\n      add\n      dup3\n      dup2\n      sub\n      dup3\n      mstore\n      0x0c\n      dup2\n      mstore\n      0x20\n      add\n      dup1\n      0x556e617574686f72697a65640000000000000000000000000000000000000000\n      dup2\n      mstore\n      pop\n      0x20\n      add\n      swap2\n      pop\n      pop\n      mload(0x40)\n      dup1\n      swap2\n      sub\n      swap1\n      revert\n    tag_267:\n        /* \"QuadraticVoting.sol\":3465:3467  id */\n      dup2\n        /* \"QuadraticVoting.sol\":10753:10774  ProposalState.ENABLED */\n      0x00\n        /* \"QuadraticVoting.sol\":10730:10774  proposals[id].state == ProposalState.ENABLED */\n      0x02\n      dup2\n      gt\n      iszero\n      tag_269\n      jumpi\n      invalid\n    tag_269:\n        /* \"QuadraticVoting.sol\":10730:10739  proposals */\n      0x07\n        /* \"QuadraticVoting.sol\":10730:10743  proposals[id] */\n      0x00\n        /* \"QuadraticVoting.sol\":10740:10742  id */\n      dup4\n        /* \"QuadraticVoting.sol\":10730:10743  proposals[id] */\n      dup2\n      mstore\n      0x20\n      add\n      swap1\n      dup2\n      mstore\n      0x20\n      add\n      0x00\n      keccak256\n        /* \"QuadraticVoting.sol\":10730:10749  proposals[id].state */\n      0x08\n      add\n      0x00\n      swap1\n      sload\n      swap1\n      0x0100\n      exp\n      swap1\n      div\n      0xff\n      and\n        /* \"QuadraticVoting.sol\":10730:10774  proposals[id].state == ProposalState.ENABLED */\n      0x02\n      dup2\n      gt\n      iszero\n      tag_270\n      jumpi\n      invalid\n    tag_270:\n      eq\n        /* \"QuadraticVoting.sol\":10722:10799  require(proposals[id].state == ProposalState.ENABLED, \"Proposal not enabled\") */\n      tag_271\n      jumpi\n      mload(0x40)\n      0x08c379a000000000000000000000000000000000000000000000000000000000\n      dup2\n      mstore\n      0x04\n      add\n      dup1\n      dup1\n      0x20\n      add\n      dup3\n      dup2\n      sub\n      dup3\n      mstore\n      0x14\n      dup2\n      mstore\n      0x20\n      add\n      dup1\n      0x50726f706f73616c206e6f7420656e61626c6564000000000000000000000000\n      dup2\n      mstore\n      pop\n      0x20\n      add\n      swap2\n      pop\n      pop\n      mload(0x40)\n      dup1\n      swap2\n      sub\n      swap1\n      revert\n    tag_271:\n        /* \"QuadraticVoting.sol\":3510:3532  ProposalState.DISABLED */\n      0x01\n        /* \"QuadraticVoting.sol\":3488:3497  proposals */\n      0x07\n        /* \"QuadraticVoting.sol\":3488:3501  proposals[id] */\n      0x00\n        /* \"QuadraticVoting.sol\":3498:3500  id */\n      dup6\n        /* \"QuadraticVoting.sol\":3488:3501  proposals[id] */\n      dup2\n      mstore\n      0x20\n      add\n      swap1\n      dup2\n      mstore\n      0x20\n      add\n      0x00\n      keccak256\n        /* \"QuadraticVoting.sol\":3488:3507  proposals[id].state */\n      0x08\n      add\n      0x00\n        /* \"QuadraticVoting.sol\":3488:3532  proposals[id].state = ProposalState.DISABLED */\n      0x0100\n      exp\n      dup2\n      sload\n      dup2\n      0xff\n      mul\n      not\n      and\n      swap1\n      dup4\n      0x02\n      dup2\n      gt\n      iszero\n      tag_273\n      jumpi\n      invalid\n    tag_273:\n      mul\n      or\n      swap1\n      sstore\n      pop\n        /* \"QuadraticVoting.sol\":3547:3575  CanWithdrawnFromProposal(id) */\n      0x91222b74076a9254a8ea367a3678ea96fbde84afe416fd6530a5777ea85a9bbe\n        /* \"QuadraticVoting.sol\":3572:3574  id */\n      dup4\n        /* \"QuadraticVoting.sol\":3547:3575  CanWithdrawnFromProposal(id) */\n      mload(0x40)\n      dup1\n      dup3\n      dup2\n      mstore\n      0x20\n      add\n      swap2\n      pop\n      pop\n      mload(0x40)\n      dup1\n      swap2\n      sub\n      swap1\n      log1\n        /* \"QuadraticVoting.sol\":9903:9904  _ */\n      pop\n        /* \"QuadraticVoting.sol\":9452:9453  _ */\n      pop\n        /* \"QuadraticVoting.sol\":3355:3582  function cancelProposal(uint id) checkParticipant checkOpenVoting checkProposalOwner(id) checkEnabledProposal(id) external {... */\n      pop\n      jump\t// out\n        /* \"QuadraticVoting.sol\":2337:2575  function addParticipant() checkMinimumPurchaseAmount(msg.value) checkNonParticipant external payable {... */\n    tag_91:\n        /* \"QuadraticVoting.sol\":2390:2399  msg.value */\n      callvalue\n        /* \"QuadraticVoting.sol\":10134:10144  tokenPrice */\n      sload(0x02)\n        /* \"QuadraticVoting.sol\":10124:10130  amount */\n      dup2\n        /* \"QuadraticVoting.sol\":10124:10144  amount >= tokenPrice */\n      lt\n      iszero\n        /* \"QuadraticVoting.sol\":10116:10172  require(amount >= tokenPrice, \"Invalid purchase amount\") */\n      tag_275\n      jumpi\n      mload(0x40)\n      0x08c379a000000000000000000000000000000000000000000000000000000000\n      dup2\n      mstore\n      0x04\n      add\n      dup1\n      dup1\n      0x20\n      add\n      dup3\n      dup2\n      sub\n      dup3\n      mstore\n      0x17\n      dup2\n      mstore\n      0x20\n      add\n      dup1\n      0x496e76616c696420707572636861736520616d6f756e74000000000000000000\n      dup2\n      mstore\n      pop\n      0x20\n      add\n      swap2\n      pop\n      pop\n      mload(0x40)\n      dup1\n      swap2\n      sub\n      swap1\n      revert\n    tag_275:\n        /* \"QuadraticVoting.sol\":9130:9142  participants */\n      0x05\n        /* \"QuadraticVoting.sol\":9130:9154  participants[msg.sender] */\n      0x00\n        /* \"QuadraticVoting.sol\":9143:9153  msg.sender */\n      caller\n        /* \"QuadraticVoting.sol\":9130:9154  participants[msg.sender] */\n      0xffffffffffffffffffffffffffffffffffffffff\n      and\n      0xffffffffffffffffffffffffffffffffffffffff\n      and\n      dup2\n      mstore\n      0x20\n      add\n      swap1\n      dup2\n      mstore\n      0x20\n      add\n      0x00\n      keccak256\n      0x00\n      swap1\n      sload\n      swap1\n      0x0100\n      exp\n      swap1\n      div\n      0xff\n      and\n        /* \"QuadraticVoting.sol\":9129:9154  !participants[msg.sender] */\n      iszero\n        /* \"QuadraticVoting.sol\":9121:9178  require(!participants[msg.sender], \"Already participant\") */\n      tag_277\n      jumpi\n      mload(0x40)\n      0x08c379a000000000000000000000000000000000000000000000000000000000\n      dup2\n      mstore\n      0x04\n      add\n      dup1\n      dup1\n      0x20\n      add\n      dup3\n      dup2\n      sub\n      dup3\n      mstore\n      0x13\n      dup2\n      mstore\n      0x20\n      add\n      dup1\n      0x416c7265616479207061727469636970616e7400000000000000000000000000\n      dup2\n      mstore\n      pop\n      0x20\n      add\n      swap2\n      pop\n      pop\n      mload(0x40)\n      dup1\n      swap2\n      sub\n      swap1\n      revert\n    tag_277:\n        /* \"QuadraticVoting.sol\":2475:2479  true */\n      0x01\n        /* \"QuadraticVoting.sol\":2448:2460  participants */\n      0x05\n        /* \"QuadraticVoting.sol\":2448:2472  participants[msg.sender] */\n      0x00\n        /* \"QuadraticVoting.sol\":2461:2471  msg.sender */\n      caller\n        /* \"QuadraticVoting.sol\":2448:2472  participants[msg.sender] */\n      0xffffffffffffffffffffffffffffffffffffffff\n      and\n      0xffffffffffffffffffffffffffffffffffffffff\n      and\n      dup2\n      mstore\n      0x20\n      add\n      swap1\n      dup2\n      mstore\n      0x20\n      add\n      0x00\n      keccak256\n      0x00\n        /* \"QuadraticVoting.sol\":2448:2479  participants[msg.sender] = true */\n      0x0100\n      exp\n      dup2\n      sload\n      dup2\n      0xff\n      mul\n      not\n      and\n      swap1\n      dup4\n      iszero\n      iszero\n      mul\n      or\n      swap1\n      sstore\n      pop\n        /* \"QuadraticVoting.sol\":2489:2502  tokenContract */\n      0x01\n      0x00\n      swap1\n      sload\n      swap1\n      0x0100\n      exp\n      swap1\n      div\n      0xffffffffffffffffffffffffffffffffffffffff\n      and\n        /* \"QuadraticVoting.sol\":2489:2507  tokenContract.mint */\n      0xffffffffffffffffffffffffffffffffffffffff\n      and\n      0x40c10f19\n        /* \"QuadraticVoting.sol\":2508:2518  msg.sender */\n      caller\n        /* \"QuadraticVoting.sol\":2532:2542  tokenPrice */\n      sload(0x02)\n        /* \"QuadraticVoting.sol\":2520:2529  msg.value */\n      callvalue\n        /* \"QuadraticVoting.sol\":2520:2542  msg.value / tokenPrice */\n      dup2\n      tag_279\n      jumpi\n      invalid\n    tag_279:\n      div\n        /* \"QuadraticVoting.sol\":2489:2543  tokenContract.mint(msg.sender, msg.value / tokenPrice) */\n      mload(0x40)\n      dup4\n      0xffffffff\n      and\n      0xe0\n      shl\n      dup2\n      mstore\n      0x04\n      add\n      dup1\n      dup4\n      0xffffffffffffffffffffffffffffffffffffffff\n      and\n      0xffffffffffffffffffffffffffffffffffffffff\n      and\n      dup2\n      mstore\n      0x20\n      add\n      dup3\n      dup2\n      mstore\n      0x20\n      add\n      swap3\n      pop\n      pop\n      pop\n      0x00\n      mload(0x40)\n      dup1\n      dup4\n      sub\n      dup2\n      0x00\n      dup8\n      dup1\n      extcodesize\n      iszero\n        /* \"--CODEGEN--\":8:17   */\n      dup1\n        /* \"--CODEGEN--\":5:7   */\n      iszero\n      tag_280\n      jumpi\n        /* \"--CODEGEN--\":30:31   */\n      0x00\n        /* \"--CODEGEN--\":27:28   */\n      dup1\n        /* \"--CODEGEN--\":20:32   */\n      revert\n        /* \"--CODEGEN--\":5:7   */\n    tag_280:\n        /* \"QuadraticVoting.sol\":2489:2543  tokenContract.mint(msg.sender, msg.value / tokenPrice) */\n      pop\n      gas\n      call\n      iszero\n        /* \"--CODEGEN--\":8:17   */\n      dup1\n        /* \"--CODEGEN--\":5:7   */\n      iszero\n      tag_281\n      jumpi\n        /* \"--CODEGEN--\":45:61   */\n      returndatasize\n        /* \"--CODEGEN--\":42:43   */\n      0x00\n        /* \"--CODEGEN--\":39:40   */\n      dup1\n        /* \"--CODEGEN--\":24:62   */\n      returndatacopy\n        /* \"--CODEGEN--\":77:93   */\n      returndatasize\n        /* \"--CODEGEN--\":74:75   */\n      0x00\n        /* \"--CODEGEN--\":67:94   */\n      revert\n        /* \"--CODEGEN--\":5:7   */\n    tag_281:\n        /* \"QuadraticVoting.sol\":2489:2543  tokenContract.mint(msg.sender, msg.value / tokenPrice) */\n      pop\n      pop\n      pop\n      pop\n        /* \"QuadraticVoting.sol\":2553:2566  nParticipants */\n      0x04\n      0x00\n        /* \"QuadraticVoting.sol\":2553:2568  nParticipants++ */\n      dup2\n      sload\n      dup1\n      swap3\n      swap2\n      swap1\n      0x01\n      add\n      swap2\n      swap1\n      pop\n      sstore\n      pop\n        /* \"QuadraticVoting.sol\":2337:2575  function addParticipant() checkMinimumPurchaseAmount(msg.value) checkNonParticipant external payable {... */\n      pop\n      jump\t// out\n        /* \"QuadraticVoting.sol\":6347:6741  function _withdrawFromFinanceProposal(uint amount, uint id) checkValidProposal(id) checkNonDisabledProposal(id) private {... */\n    tag_120:\n        /* \"QuadraticVoting.sol\":6426:6428  id */\n      dup1\n        /* \"QuadraticVoting.sol\":10597:10599  id */\n      dup1\n        /* \"QuadraticVoting.sol\":10576:10593  initialProposalId */\n      sload(0x08)\n        /* \"QuadraticVoting.sol\":10576:10599  initialProposalId <= id */\n      gt\n      iszero\n        /* \"QuadraticVoting.sol\":10576:10623  initialProposalId <= id && id <= lastProposalId */\n      dup1\n      iszero\n      tag_283\n      jumpi\n      pop\n        /* \"QuadraticVoting.sol\":10609:10623  lastProposalId */\n      sload(0x09)\n        /* \"QuadraticVoting.sol\":10603:10605  id */\n      dup2\n        /* \"QuadraticVoting.sol\":10603:10623  id <= lastProposalId */\n      gt\n      iszero\n        /* \"QuadraticVoting.sol\":10576:10623  initialProposalId <= id && id <= lastProposalId */\n    tag_283:\n        /* \"QuadraticVoting.sol\":10568:10649  require(initialProposalId <= id && id <= lastProposalId, \"Proposal id not valid\") */\n      tag_284\n      jumpi\n      mload(0x40)\n      0x08c379a000000000000000000000000000000000000000000000000000000000\n      dup2\n      mstore\n      0x04\n      add\n      dup1\n      dup1\n      0x20\n      add\n      dup3\n      dup2\n      sub\n      dup3\n      mstore\n      0x15\n      dup2\n      mstore\n      0x20\n      add\n      dup1\n      0x50726f706f73616c206964206e6f742076616c69640000000000000000000000\n      dup2\n      mstore\n      pop\n      0x20\n      add\n      swap2\n      pop\n      pop\n      mload(0x40)\n      dup1\n      swap2\n      sub\n      swap1\n      revert\n    tag_284:\n        /* \"QuadraticVoting.sol\":6455:6457  id */\n      dup2\n        /* \"QuadraticVoting.sol\":11213:11235  ProposalState.DISABLED */\n      0x01\n        /* \"QuadraticVoting.sol\":11190:11235  proposals[id].state != ProposalState.DISABLED */\n      0x02\n      dup2\n      gt\n      iszero\n      tag_286\n      jumpi\n      invalid\n    tag_286:\n        /* \"QuadraticVoting.sol\":11190:11199  proposals */\n      0x07\n        /* \"QuadraticVoting.sol\":11190:11203  proposals[id] */\n      0x00\n        /* \"QuadraticVoting.sol\":11200:11202  id */\n      dup4\n        /* \"QuadraticVoting.sol\":11190:11203  proposals[id] */\n      dup2\n      mstore\n      0x20\n      add\n      swap1\n      dup2\n      mstore\n      0x20\n      add\n      0x00\n      keccak256\n        /* \"QuadraticVoting.sol\":11190:11209  proposals[id].state */\n      0x08\n      add\n      0x00\n      swap1\n      sload\n      swap1\n      0x0100\n      exp\n      swap1\n      div\n      0xff\n      and\n        /* \"QuadraticVoting.sol\":11190:11235  proposals[id].state != ProposalState.DISABLED */\n      0x02\n      dup2\n      gt\n      iszero\n      tag_287\n      jumpi\n      invalid\n    tag_287:\n      eq\n      iszero\n        /* \"QuadraticVoting.sol\":11182:11257  require(proposals[id].state != ProposalState.DISABLED, \"Proposal disabled\") */\n      tag_288\n      jumpi\n      mload(0x40)\n      0x08c379a000000000000000000000000000000000000000000000000000000000\n      dup2\n      mstore\n      0x04\n      add\n      dup1\n      dup1\n      0x20\n      add\n      dup3\n      dup2\n      sub\n      dup3\n      mstore\n      0x11\n      dup2\n      mstore\n      0x20\n      add\n      dup1\n      0x50726f706f73616c2064697361626c6564000000000000000000000000000000\n      dup2\n      mstore\n      pop\n      0x20\n      add\n      swap2\n      pop\n      pop\n      mload(0x40)\n      dup1\n      swap2\n      sub\n      swap1\n      revert\n    tag_288:\n        /* \"QuadraticVoting.sol\":6477:6493  uint tokenAmount */\n      0x00\n        /* \"QuadraticVoting.sol\":6496:6530  _calculateWithdrawVote(id, amount) */\n      tag_290\n        /* \"QuadraticVoting.sol\":6519:6521  id */\n      dup5\n        /* \"QuadraticVoting.sol\":6523:6529  amount */\n      dup7\n        /* \"QuadraticVoting.sol\":6496:6518  _calculateWithdrawVote */\n      tag_291\n        /* \"QuadraticVoting.sol\":6496:6530  _calculateWithdrawVote(id, amount) */\n      jump\t// in\n    tag_290:\n        /* \"QuadraticVoting.sol\":6477:6530  uint tokenAmount = _calculateWithdrawVote(id, amount) */\n      swap1\n      pop\n        /* \"QuadraticVoting.sol\":6569:6575  amount */\n      dup5\n        /* \"QuadraticVoting.sol\":6540:6549  proposals */\n      0x07\n        /* \"QuadraticVoting.sol\":6540:6553  proposals[id] */\n      0x00\n        /* \"QuadraticVoting.sol\":6550:6552  id */\n      dup7\n        /* \"QuadraticVoting.sol\":6540:6553  proposals[id] */\n      dup2\n      mstore\n      0x20\n      add\n      swap1\n      dup2\n      mstore\n      0x20\n      add\n      0x00\n      keccak256\n        /* \"QuadraticVoting.sol\":6540:6565  proposals[id].votesAmount */\n      0x05\n      add\n      0x00\n        /* \"QuadraticVoting.sol\":6540:6575  proposals[id].votesAmount -= amount */\n      dup3\n      dup3\n      sload\n      sub\n      swap3\n      pop\n      pop\n      dup2\n      swap1\n      sstore\n      pop\n        /* \"QuadraticVoting.sol\":6620:6626  amount */\n      dup5\n        /* \"QuadraticVoting.sol\":6585:6594  proposals */\n      0x07\n        /* \"QuadraticVoting.sol\":6585:6598  proposals[id] */\n      0x00\n        /* \"QuadraticVoting.sol\":6595:6597  id */\n      dup7\n        /* \"QuadraticVoting.sol\":6585:6598  proposals[id] */\n      dup2\n      mstore\n      0x20\n      add\n      swap1\n      dup2\n      mstore\n      0x20\n      add\n      0x00\n      keccak256\n        /* \"QuadraticVoting.sol\":6585:6604  proposals[id].votes */\n      0x07\n      add\n        /* \"QuadraticVoting.sol\":6585:6616  proposals[id].votes[msg.sender] */\n      0x00\n        /* \"QuadraticVoting.sol\":6605:6615  msg.sender */\n      caller\n        /* \"QuadraticVoting.sol\":6585:6616  proposals[id].votes[msg.sender] */\n      0xffffffffffffffffffffffffffffffffffffffff\n      and\n      0xffffffffffffffffffffffffffffffffffffffff\n      and\n      dup2\n      mstore\n      0x20\n      add\n      swap1\n      dup2\n      mstore\n      0x20\n      add\n      0x00\n      keccak256\n      0x00\n        /* \"QuadraticVoting.sol\":6585:6626  proposals[id].votes[msg.sender] -= amount */\n      dup3\n      dup3\n      sload\n      sub\n      swap3\n      pop\n      pop\n      dup2\n      swap1\n      sstore\n      pop\n        /* \"QuadraticVoting.sol\":6666:6677  tokenAmount */\n      dup1\n        /* \"QuadraticVoting.sol\":6636:6645  proposals */\n      0x07\n        /* \"QuadraticVoting.sol\":6636:6649  proposals[id] */\n      0x00\n        /* \"QuadraticVoting.sol\":6646:6648  id */\n      dup7\n        /* \"QuadraticVoting.sol\":6636:6649  proposals[id] */\n      dup2\n      mstore\n      0x20\n      add\n      swap1\n      dup2\n      mstore\n      0x20\n      add\n      0x00\n      keccak256\n        /* \"QuadraticVoting.sol\":6636:6662  proposals[id].tokensAmount */\n      0x06\n      add\n      0x00\n        /* \"QuadraticVoting.sol\":6636:6677  proposals[id].tokensAmount -= tokenAmount */\n      dup3\n      dup3\n      sload\n      sub\n      swap3\n      pop\n      pop\n      dup2\n      swap1\n      sstore\n      pop\n        /* \"QuadraticVoting.sol\":6687:6700  tokenContract */\n      0x01\n      0x00\n      swap1\n      sload\n      swap1\n      0x0100\n      exp\n      swap1\n      div\n      0xffffffffffffffffffffffffffffffffffffffff\n      and\n        /* \"QuadraticVoting.sol\":6687:6709  tokenContract.transfer */\n      0xffffffffffffffffffffffffffffffffffffffff\n      and\n      0xa9059cbb\n        /* \"QuadraticVoting.sol\":6710:6720  msg.sender */\n      caller\n        /* \"QuadraticVoting.sol\":6722:6733  tokenAmount */\n      dup4\n        /* \"QuadraticVoting.sol\":6687:6734  tokenContract.transfer(msg.sender, tokenAmount) */\n      mload(0x40)\n      dup4\n      0xffffffff\n      and\n      0xe0\n      shl\n      dup2\n      mstore\n      0x04\n      add\n      dup1\n      dup4\n      0xffffffffffffffffffffffffffffffffffffffff\n      and\n      0xffffffffffffffffffffffffffffffffffffffff\n      and\n      dup2\n      mstore\n      0x20\n      add\n      dup3\n      dup2\n      mstore\n      0x20\n      add\n      swap3\n      pop\n      pop\n      pop\n      0x20\n      mload(0x40)\n      dup1\n      dup4\n      sub\n      dup2\n      0x00\n      dup8\n      dup1\n      extcodesize\n      iszero\n        /* \"--CODEGEN--\":8:17   */\n      dup1\n        /* \"--CODEGEN--\":5:7   */\n      iszero\n      tag_292\n      jumpi\n        /* \"--CODEGEN--\":30:31   */\n      0x00\n        /* \"--CODEGEN--\":27:28   */\n      dup1\n        /* \"--CODEGEN--\":20:32   */\n      revert\n        /* \"--CODEGEN--\":5:7   */\n    tag_292:\n        /* \"QuadraticVoting.sol\":6687:6734  tokenContract.transfer(msg.sender, tokenAmount) */\n      pop\n      gas\n      call\n      iszero\n        /* \"--CODEGEN--\":8:17   */\n      dup1\n        /* \"--CODEGEN--\":5:7   */\n      iszero\n      tag_293\n      jumpi\n        /* \"--CODEGEN--\":45:61   */\n      returndatasize\n        /* \"--CODEGEN--\":42:43   */\n      0x00\n        /* \"--CODEGEN--\":39:40   */\n      dup1\n        /* \"--CODEGEN--\":24:62   */\n      returndatacopy\n        /* \"--CODEGEN--\":77:93   */\n      returndatasize\n        /* \"--CODEGEN--\":74:75   */\n      0x00\n        /* \"--CODEGEN--\":67:94   */\n      revert\n        /* \"--CODEGEN--\":5:7   */\n    tag_293:\n        /* \"QuadraticVoting.sol\":6687:6734  tokenContract.transfer(msg.sender, tokenAmount) */\n      pop\n      pop\n      pop\n      pop\n      mload(0x40)\n      returndatasize\n        /* \"--CODEGEN--\":13:15   */\n      0x20\n        /* \"--CODEGEN--\":8:11   */\n      dup2\n        /* \"--CODEGEN--\":5:16   */\n      lt\n        /* \"--CODEGEN--\":2:4   */\n      iszero\n      tag_294\n      jumpi\n        /* \"--CODEGEN--\":29:30   */\n      0x00\n        /* \"--CODEGEN--\":26:27   */\n      dup1\n        /* \"--CODEGEN--\":19:31   */\n      revert\n        /* \"--CODEGEN--\":2:4   */\n    tag_294:\n        /* \"QuadraticVoting.sol\":6687:6734  tokenContract.transfer(msg.sender, tokenAmount) */\n      dup2\n      add\n      swap1\n      dup1\n      dup1\n      mload\n      swap1\n      0x20\n      add\n      swap1\n      swap3\n      swap2\n      swap1\n      pop\n      pop\n      pop\n      pop\n        /* \"QuadraticVoting.sol\":11267:11268  _ */\n      pop\n        /* \"QuadraticVoting.sol\":10659:10660  _ */\n      pop\n        /* \"QuadraticVoting.sol\":6347:6741  function _withdrawFromFinanceProposal(uint amount, uint id) checkValidProposal(id) checkNonDisabledProposal(id) private {... */\n      pop\n      pop\n      pop\n      jump\t// out\n        /* \"QuadraticVoting.sol\":6747:7427  function _withdrawFromSignalingProposal(uint amount, uint id)  private {... */\n    tag_123:\n        /* \"QuadraticVoting.sol\":6847:6872  QuadraticVotingState.OPEN */\n      0x01\n        /* \"QuadraticVoting.sol\":6832:6872  votingState == QuadraticVotingState.OPEN */\n      0x02\n      dup2\n      gt\n      iszero\n      tag_296\n      jumpi\n      invalid\n    tag_296:\n        /* \"QuadraticVoting.sol\":6832:6843  votingState */\n      0x01\n      0x14\n      swap1\n      sload\n      swap1\n      0x0100\n      exp\n      swap1\n      div\n      0xff\n      and\n        /* \"QuadraticVoting.sol\":6832:6872  votingState == QuadraticVotingState.OPEN */\n      0x02\n      dup2\n      gt\n      iszero\n      tag_297\n      jumpi\n      invalid\n    tag_297:\n      eq\n        /* \"QuadraticVoting.sol\":6828:7421  if (votingState == QuadraticVotingState.OPEN) {... */\n      iszero\n      tag_298\n      jumpi\n        /* \"QuadraticVoting.sol\":6888:6904  uint tokenAmount */\n      0x00\n        /* \"QuadraticVoting.sol\":6907:6941  _calculateWithdrawVote(id, amount) */\n      tag_299\n        /* \"QuadraticVoting.sol\":6930:6932  id */\n      dup3\n        /* \"QuadraticVoting.sol\":6934:6940  amount */\n      dup5\n        /* \"QuadraticVoting.sol\":6907:6929  _calculateWithdrawVote */\n      tag_291\n        /* \"QuadraticVoting.sol\":6907:6941  _calculateWithdrawVote(id, amount) */\n      jump\t// in\n    tag_299:\n        /* \"QuadraticVoting.sol\":6888:6941  uint tokenAmount = _calculateWithdrawVote(id, amount) */\n      swap1\n      pop\n        /* \"QuadraticVoting.sol\":6984:6990  amount */\n      dup3\n        /* \"QuadraticVoting.sol\":6955:6964  proposals */\n      0x07\n        /* \"QuadraticVoting.sol\":6955:6968  proposals[id] */\n      0x00\n        /* \"QuadraticVoting.sol\":6965:6967  id */\n      dup5\n        /* \"QuadraticVoting.sol\":6955:6968  proposals[id] */\n      dup2\n      mstore\n      0x20\n      add\n      swap1\n      dup2\n      mstore\n      0x20\n      add\n      0x00\n      keccak256\n        /* \"QuadraticVoting.sol\":6955:6980  proposals[id].votesAmount */\n      0x05\n      add\n      0x00\n        /* \"QuadraticVoting.sol\":6955:6990  proposals[id].votesAmount -= amount */\n      dup3\n      dup3\n      sload\n      sub\n      swap3\n      pop\n      pop\n      dup2\n      swap1\n      sstore\n      pop\n        /* \"QuadraticVoting.sol\":7039:7045  amount */\n      dup3\n        /* \"QuadraticVoting.sol\":7004:7013  proposals */\n      0x07\n        /* \"QuadraticVoting.sol\":7004:7017  proposals[id] */\n      0x00\n        /* \"QuadraticVoting.sol\":7014:7016  id */\n      dup5\n        /* \"QuadraticVoting.sol\":7004:7017  proposals[id] */\n      dup2\n      mstore\n      0x20\n      add\n      swap1\n      dup2\n      mstore\n      0x20\n      add\n      0x00\n      keccak256\n        /* \"QuadraticVoting.sol\":7004:7023  proposals[id].votes */\n      0x07\n      add\n        /* \"QuadraticVoting.sol\":7004:7035  proposals[id].votes[msg.sender] */\n      0x00\n        /* \"QuadraticVoting.sol\":7024:7034  msg.sender */\n      caller\n        /* \"QuadraticVoting.sol\":7004:7035  proposals[id].votes[msg.sender] */\n      0xffffffffffffffffffffffffffffffffffffffff\n      and\n      0xffffffffffffffffffffffffffffffffffffffff\n      and\n      dup2\n      mstore\n      0x20\n      add\n      swap1\n      dup2\n      mstore\n      0x20\n      add\n      0x00\n      keccak256\n      0x00\n        /* \"QuadraticVoting.sol\":7004:7045  proposals[id].votes[msg.sender] -= amount */\n      dup3\n      dup3\n      sload\n      sub\n      swap3\n      pop\n      pop\n      dup2\n      swap1\n      sstore\n      pop\n        /* \"QuadraticVoting.sol\":7089:7100  tokenAmount */\n      dup1\n        /* \"QuadraticVoting.sol\":7059:7068  proposals */\n      0x07\n        /* \"QuadraticVoting.sol\":7059:7072  proposals[id] */\n      0x00\n        /* \"QuadraticVoting.sol\":7069:7071  id */\n      dup5\n        /* \"QuadraticVoting.sol\":7059:7072  proposals[id] */\n      dup2\n      mstore\n      0x20\n      add\n      swap1\n      dup2\n      mstore\n      0x20\n      add\n      0x00\n      keccak256\n        /* \"QuadraticVoting.sol\":7059:7085  proposals[id].tokensAmount */\n      0x06\n      add\n      0x00\n        /* \"QuadraticVoting.sol\":7059:7100  proposals[id].tokensAmount -= tokenAmount */\n      dup3\n      dup3\n      sload\n      sub\n      swap3\n      pop\n      pop\n      dup2\n      swap1\n      sstore\n      pop\n        /* \"QuadraticVoting.sol\":7114:7127  tokenContract */\n      0x01\n      0x00\n      swap1\n      sload\n      swap1\n      0x0100\n      exp\n      swap1\n      div\n      0xffffffffffffffffffffffffffffffffffffffff\n      and\n        /* \"QuadraticVoting.sol\":7114:7136  tokenContract.transfer */\n      0xffffffffffffffffffffffffffffffffffffffff\n      and\n      0xa9059cbb\n        /* \"QuadraticVoting.sol\":7137:7147  msg.sender */\n      caller\n        /* \"QuadraticVoting.sol\":7149:7160  tokenAmount */\n      dup4\n        /* \"QuadraticVoting.sol\":7114:7161  tokenContract.transfer(msg.sender, tokenAmount) */\n      mload(0x40)\n      dup4\n      0xffffffff\n      and\n      0xe0\n      shl\n      dup2\n      mstore\n      0x04\n      add\n      dup1\n      dup4\n      0xffffffffffffffffffffffffffffffffffffffff\n      and\n      0xffffffffffffffffffffffffffffffffffffffff\n      and\n      dup2\n      mstore\n      0x20\n      add\n      dup3\n      dup2\n      mstore\n      0x20\n      add\n      swap3\n      pop\n      pop\n      pop\n      0x20\n      mload(0x40)\n      dup1\n      dup4\n      sub\n      dup2\n      0x00\n      dup8\n      dup1\n      extcodesize\n      iszero\n        /* \"--CODEGEN--\":8:17   */\n      dup1\n        /* \"--CODEGEN--\":5:7   */\n      iszero\n      tag_300\n      jumpi\n        /* \"--CODEGEN--\":30:31   */\n      0x00\n        /* \"--CODEGEN--\":27:28   */\n      dup1\n        /* \"--CODEGEN--\":20:32   */\n      revert\n        /* \"--CODEGEN--\":5:7   */\n    tag_300:\n        /* \"QuadraticVoting.sol\":7114:7161  tokenContract.transfer(msg.sender, tokenAmount) */\n      pop\n      gas\n      call\n      iszero\n        /* \"--CODEGEN--\":8:17   */\n      dup1\n        /* \"--CODEGEN--\":5:7   */\n      iszero\n      tag_301\n      jumpi\n        /* \"--CODEGEN--\":45:61   */\n      returndatasize\n        /* \"--CODEGEN--\":42:43   */\n      0x00\n        /* \"--CODEGEN--\":39:40   */\n      dup1\n        /* \"--CODEGEN--\":24:62   */\n      returndatacopy\n        /* \"--CODEGEN--\":77:93   */\n      returndatasize\n        /* \"--CODEGEN--\":74:75   */\n      0x00\n        /* \"--CODEGEN--\":67:94   */\n      revert\n        /* \"--CODEGEN--\":5:7   */\n    tag_301:\n        /* \"QuadraticVoting.sol\":7114:7161  tokenContract.transfer(msg.sender, tokenAmount) */\n      pop\n      pop\n      pop\n      pop\n      mload(0x40)\n      returndatasize\n        /* \"--CODEGEN--\":13:15   */\n      0x20\n        /* \"--CODEGEN--\":8:11   */\n      dup2\n        /* \"--CODEGEN--\":5:16   */\n      lt\n        /* \"--CODEGEN--\":2:4   */\n      iszero\n      tag_302\n      jumpi\n        /* \"--CODEGEN--\":29:30   */\n      0x00\n        /* \"--CODEGEN--\":26:27   */\n      dup1\n        /* \"--CODEGEN--\":19:31   */\n      revert\n        /* \"--CODEGEN--\":2:4   */\n    tag_302:\n        /* \"QuadraticVoting.sol\":7114:7161  tokenContract.transfer(msg.sender, tokenAmount) */\n      dup2\n      add\n      swap1\n      dup1\n      dup1\n      mload\n      swap1\n      0x20\n      add\n      swap1\n      swap3\n      swap2\n      swap1\n      pop\n      pop\n      pop\n      pop\n        /* \"QuadraticVoting.sol\":6828:7421  if (votingState == QuadraticVotingState.OPEN) {... */\n      pop\n      jump(tag_303)\n    tag_298:\n        /* \"QuadraticVoting.sol\":7197:7225  QuadraticVotingState.WAITING */\n      0x02\n        /* \"QuadraticVoting.sol\":7182:7225  votingState == QuadraticVotingState.WAITING */\n      dup1\n      dup2\n      gt\n      iszero\n      tag_304\n      jumpi\n      invalid\n    tag_304:\n        /* \"QuadraticVoting.sol\":7182:7193  votingState */\n      0x01\n      0x14\n      swap1\n      sload\n      swap1\n      0x0100\n      exp\n      swap1\n      div\n      0xff\n      and\n        /* \"QuadraticVoting.sol\":7182:7225  votingState == QuadraticVotingState.WAITING */\n      0x02\n      dup2\n      gt\n      iszero\n      tag_305\n      jumpi\n      invalid\n    tag_305:\n      eq\n        /* \"QuadraticVoting.sol\":7178:7421  if (votingState == QuadraticVotingState.WAITING) {... */\n      iszero\n      tag_306\n      jumpi\n        /* \"QuadraticVoting.sol\":7241:7257  uint tokenAmount */\n      0x00\n        /* \"QuadraticVoting.sol\":7260:7294  _calculateWithdrawVote(id, amount) */\n      tag_307\n        /* \"QuadraticVoting.sol\":7283:7285  id */\n      dup3\n        /* \"QuadraticVoting.sol\":7287:7293  amount */\n      dup5\n        /* \"QuadraticVoting.sol\":7260:7282  _calculateWithdrawVote */\n      tag_291\n        /* \"QuadraticVoting.sol\":7260:7294  _calculateWithdrawVote(id, amount) */\n      jump\t// in\n    tag_307:\n        /* \"QuadraticVoting.sol\":7241:7294  uint tokenAmount = _calculateWithdrawVote(id, amount) */\n      swap1\n      pop\n        /* \"QuadraticVoting.sol\":7343:7349  amount */\n      dup3\n        /* \"QuadraticVoting.sol\":7308:7317  proposals */\n      0x07\n        /* \"QuadraticVoting.sol\":7308:7321  proposals[id] */\n      0x00\n        /* \"QuadraticVoting.sol\":7318:7320  id */\n      dup5\n        /* \"QuadraticVoting.sol\":7308:7321  proposals[id] */\n      dup2\n      mstore\n      0x20\n      add\n      swap1\n      dup2\n      mstore\n      0x20\n      add\n      0x00\n      keccak256\n        /* \"QuadraticVoting.sol\":7308:7327  proposals[id].votes */\n      0x07\n      add\n        /* \"QuadraticVoting.sol\":7308:7339  proposals[id].votes[msg.sender] */\n      0x00\n        /* \"QuadraticVoting.sol\":7328:7338  msg.sender */\n      caller\n        /* \"QuadraticVoting.sol\":7308:7339  proposals[id].votes[msg.sender] */\n      0xffffffffffffffffffffffffffffffffffffffff\n      and\n      0xffffffffffffffffffffffffffffffffffffffff\n      and\n      dup2\n      mstore\n      0x20\n      add\n      swap1\n      dup2\n      mstore\n      0x20\n      add\n      0x00\n      keccak256\n      0x00\n        /* \"QuadraticVoting.sol\":7308:7349  proposals[id].votes[msg.sender] -= amount */\n      dup3\n      dup3\n      sload\n      sub\n      swap3\n      pop\n      pop\n      dup2\n      swap1\n      sstore\n      pop\n        /* \"QuadraticVoting.sol\":7363:7376  tokenContract */\n      0x01\n      0x00\n      swap1\n      sload\n      swap1\n      0x0100\n      exp\n      swap1\n      div\n      0xffffffffffffffffffffffffffffffffffffffff\n      and\n        /* \"QuadraticVoting.sol\":7363:7385  tokenContract.transfer */\n      0xffffffffffffffffffffffffffffffffffffffff\n      and\n      0xa9059cbb\n        /* \"QuadraticVoting.sol\":7386:7396  msg.sender */\n      caller\n        /* \"QuadraticVoting.sol\":7398:7409  tokenAmount */\n      dup4\n        /* \"QuadraticVoting.sol\":7363:7410  tokenContract.transfer(msg.sender, tokenAmount) */\n      mload(0x40)\n      dup4\n      0xffffffff\n      and\n      0xe0\n      shl\n      dup2\n      mstore\n      0x04\n      add\n      dup1\n      dup4\n      0xffffffffffffffffffffffffffffffffffffffff\n      and\n      0xffffffffffffffffffffffffffffffffffffffff\n      and\n      dup2\n      mstore\n      0x20\n      add\n      dup3\n      dup2\n      mstore\n      0x20\n      add\n      swap3\n      pop\n      pop\n      pop\n      0x20\n      mload(0x40)\n      dup1\n      dup4\n      sub\n      dup2\n      0x00\n      dup8\n      dup1\n      extcodesize\n      iszero\n        /* \"--CODEGEN--\":8:17   */\n      dup1\n        /* \"--CODEGEN--\":5:7   */\n      iszero\n      tag_308\n      jumpi\n        /* \"--CODEGEN--\":30:31   */\n      0x00\n        /* \"--CODEGEN--\":27:28   */\n      dup1\n        /* \"--CODEGEN--\":20:32   */\n      revert\n        /* \"--CODEGEN--\":5:7   */\n    tag_308:\n        /* \"QuadraticVoting.sol\":7363:7410  tokenContract.transfer(msg.sender, tokenAmount) */\n      pop\n      gas\n      call\n      iszero\n        /* \"--CODEGEN--\":8:17   */\n      dup1\n        /* \"--CODEGEN--\":5:7   */\n      iszero\n      tag_309\n      jumpi\n        /* \"--CODEGEN--\":45:61   */\n      returndatasize\n        /* \"--CODEGEN--\":42:43   */\n      0x00\n        /* \"--CODEGEN--\":39:40   */\n      dup1\n        /* \"--CODEGEN--\":24:62   */\n      returndatacopy\n        /* \"--CODEGEN--\":77:93   */\n      returndatasize\n        /* \"--CODEGEN--\":74:75   */\n      0x00\n        /* \"--CODEGEN--\":67:94   */\n      revert\n        /* \"--CODEGEN--\":5:7   */\n    tag_309:\n        /* \"QuadraticVoting.sol\":7363:7410  tokenContract.transfer(msg.sender, tokenAmount) */\n      pop\n      pop\n      pop\n      pop\n      mload(0x40)\n      returndatasize\n        /* \"--CODEGEN--\":13:15   */\n      0x20\n        /* \"--CODEGEN--\":8:11   */\n      dup2\n        /* \"--CODEGEN--\":5:16   */\n      lt\n        /* \"--CODEGEN--\":2:4   */\n      iszero\n      tag_310\n      jumpi\n        /* \"--CODEGEN--\":29:30   */\n      0x00\n        /* \"--CODEGEN--\":26:27   */\n      dup1\n        /* \"--CODEGEN--\":19:31   */\n      revert\n        /* \"--CODEGEN--\":2:4   */\n    tag_310:\n        /* \"QuadraticVoting.sol\":7363:7410  tokenContract.transfer(msg.sender, tokenAmount) */\n      dup2\n      add\n      swap1\n      dup1\n      dup1\n      mload\n      swap1\n      0x20\n      add\n      swap1\n      swap3\n      swap2\n      swap1\n      pop\n      pop\n      pop\n      pop\n        /* \"QuadraticVoting.sol\":7178:7421  if (votingState == QuadraticVotingState.WAITING) {... */\n      pop\n    tag_306:\n        /* \"QuadraticVoting.sol\":6828:7421  if (votingState == QuadraticVotingState.OPEN) {... */\n    tag_303:\n        /* \"QuadraticVoting.sol\":6747:7427  function _withdrawFromSignalingProposal(uint amount, uint id)  private {... */\n      pop\n      pop\n      jump\t// out\n        /* \"QuadraticVoting.sol\":1076:1396  function _calculateVoteCost(uint proposalId, uint votes) view private returns(uint) {... */\n    tag_145:\n        /* \"QuadraticVoting.sol\":1154:1158  uint */\n      0x00\n        /* \"QuadraticVoting.sol\":1170:1183  uint oldVotes */\n      dup1\n        /* \"QuadraticVoting.sol\":1186:1195  proposals */\n      0x07\n        /* \"QuadraticVoting.sol\":1186:1207  proposals[proposalId] */\n      0x00\n        /* \"QuadraticVoting.sol\":1196:1206  proposalId */\n      dup6\n        /* \"QuadraticVoting.sol\":1186:1207  proposals[proposalId] */\n      dup2\n      mstore\n      0x20\n      add\n      swap1\n      dup2\n      mstore\n      0x20\n      add\n      0x00\n      keccak256\n        /* \"QuadraticVoting.sol\":1186:1213  proposals[proposalId].votes */\n      0x07\n      add\n        /* \"QuadraticVoting.sol\":1186:1225  proposals[proposalId].votes[msg.sender] */\n      0x00\n        /* \"QuadraticVoting.sol\":1214:1224  msg.sender */\n      caller\n        /* \"QuadraticVoting.sol\":1186:1225  proposals[proposalId].votes[msg.sender] */\n      0xffffffffffffffffffffffffffffffffffffffff\n      and\n      0xffffffffffffffffffffffffffffffffffffffff\n      and\n      dup2\n      mstore\n      0x20\n      add\n      swap1\n      dup2\n      mstore\n      0x20\n      add\n      0x00\n      keccak256\n      sload\n        /* \"QuadraticVoting.sol\":1170:1225  uint oldVotes = proposals[proposalId].votes[msg.sender] */\n      swap1\n      pop\n        /* \"QuadraticVoting.sol\":1235:1248  uint oldPrice */\n      0x00\n        /* \"QuadraticVoting.sol\":1263:1264  2 */\n      0x02\n        /* \"QuadraticVoting.sol\":1251:1259  oldVotes */\n      dup3\n        /* \"QuadraticVoting.sol\":1251:1264  oldVotes ** 2 */\n      exp\n        /* \"QuadraticVoting.sol\":1235:1264  uint oldPrice = oldVotes ** 2 */\n      swap1\n      pop\n        /* \"QuadraticVoting.sol\":1274:1289  uint totalVotes */\n      0x00\n        /* \"QuadraticVoting.sol\":1303:1308  votes */\n      dup5\n        /* \"QuadraticVoting.sol\":1292:1300  oldVotes */\n      dup4\n        /* \"QuadraticVoting.sol\":1292:1308  oldVotes + votes */\n      add\n        /* \"QuadraticVoting.sol\":1274:1308  uint totalVotes = oldVotes + votes */\n      swap1\n      pop\n        /* \"QuadraticVoting.sol\":1318:1333  uint totalPrice */\n      0x00\n        /* \"QuadraticVoting.sol\":1350:1351  2 */\n      0x02\n        /* \"QuadraticVoting.sol\":1336:1346  totalVotes */\n      dup3\n        /* \"QuadraticVoting.sol\":1336:1351  totalVotes ** 2 */\n      exp\n        /* \"QuadraticVoting.sol\":1318:1351  uint totalPrice = totalVotes ** 2 */\n      swap1\n      pop\n        /* \"QuadraticVoting.sol\":1381:1389  oldPrice */\n      dup3\n        /* \"QuadraticVoting.sol\":1368:1378  totalPrice */\n      dup2\n        /* \"QuadraticVoting.sol\":1368:1389  totalPrice - oldPrice */\n      sub\n        /* \"QuadraticVoting.sol\":1361:1389  return totalPrice - oldPrice */\n      swap5\n      pop\n      pop\n      pop\n      pop\n      pop\n        /* \"QuadraticVoting.sol\":1076:1396  function _calculateVoteCost(uint proposalId, uint votes) view private returns(uint) {... */\n      swap3\n      swap2\n      pop\n      pop\n      jump\t// out\n        /* \"QuadraticVoting.sol\":8434:8576  function _checkAndExecuteProposal(uint id) internal {... */\n    tag_158:\n        /* \"QuadraticVoting.sol\":8500:8523  _isProposalApproved(id) */\n      tag_313\n        /* \"QuadraticVoting.sol\":8520:8522  id */\n      dup2\n        /* \"QuadraticVoting.sol\":8500:8519  _isProposalApproved */\n      tag_314\n        /* \"QuadraticVoting.sol\":8500:8523  _isProposalApproved(id) */\n      jump\t// in\n    tag_313:\n        /* \"QuadraticVoting.sol\":8496:8570  if (_isProposalApproved(id)) {... */\n      iszero\n      tag_315\n      jumpi\n        /* \"QuadraticVoting.sol\":8539:8559  _approveProposal(id) */\n      tag_316\n        /* \"QuadraticVoting.sol\":8556:8558  id */\n      dup2\n        /* \"QuadraticVoting.sol\":8539:8555  _approveProposal */\n      tag_259\n        /* \"QuadraticVoting.sol\":8539:8559  _approveProposal(id) */\n      jump\t// in\n    tag_316:\n        /* \"QuadraticVoting.sol\":8496:8570  if (_isProposalApproved(id)) {... */\n    tag_315:\n        /* \"QuadraticVoting.sol\":8434:8576  function _checkAndExecuteProposal(uint id) internal {... */\n      pop\n      jump\t// out\n        /* \"QuadraticVoting.sol\":2052:2157  function _clear() private {... */\n    tag_219:\n        /* \"QuadraticVoting.sol\":2101:2102  0 */\n      0x00\n        /* \"QuadraticVoting.sol\":2088:2098  nProposals */\n      0x06\n        /* \"QuadraticVoting.sol\":2088:2102  nProposals = 0 */\n      dup2\n      swap1\n      sstore\n      pop\n        /* \"QuadraticVoting.sol\":2149:2150  1 */\n      0x01\n        /* \"QuadraticVoting.sol\":2132:2146  lastProposalId */\n      sload(0x09)\n        /* \"QuadraticVoting.sol\":2132:2150  lastProposalId + 1 */\n      add\n        /* \"QuadraticVoting.sol\":2112:2129  initialProposalId */\n      0x08\n        /* \"QuadraticVoting.sol\":2112:2150  initialProposalId = lastProposalId + 1 */\n      dup2\n      swap1\n      sstore\n      pop\n        /* \"QuadraticVoting.sol\":2052:2157  function _clear() private {... */\n      jump\t// out\n        /* \"QuadraticVoting.sol\":7970:8428  function _approveProposal(uint proposalId) private {... */\n    tag_259:\n        /* \"QuadraticVoting.sol\":8031:8041  nProposals */\n      0x06\n      0x00\n        /* \"QuadraticVoting.sol\":8031:8043  nProposals-- */\n      dup2\n      sload\n      dup1\n      swap3\n      swap2\n      swap1\n      0x01\n      swap1\n      sub\n      swap2\n      swap1\n      pop\n      sstore\n      pop\n        /* \"QuadraticVoting.sol\":8083:8105  ProposalState.APPROVED */\n      0x02\n        /* \"QuadraticVoting.sol\":8053:8062  proposals */\n      0x07\n        /* \"QuadraticVoting.sol\":8053:8074  proposals[proposalId] */\n      0x00\n        /* \"QuadraticVoting.sol\":8063:8073  proposalId */\n      dup4\n        /* \"QuadraticVoting.sol\":8053:8074  proposals[proposalId] */\n      dup2\n      mstore\n      0x20\n      add\n      swap1\n      dup2\n      mstore\n      0x20\n      add\n      0x00\n      keccak256\n        /* \"QuadraticVoting.sol\":8053:8080  proposals[proposalId].state */\n      0x08\n      add\n      0x00\n        /* \"QuadraticVoting.sol\":8053:8105  proposals[proposalId].state = ProposalState.APPROVED */\n      0x0100\n      exp\n      dup2\n      sload\n      dup2\n      0xff\n      mul\n      not\n      and\n      swap1\n      dup4\n      0x02\n      dup2\n      gt\n      iszero\n      tag_319\n      jumpi\n      invalid\n    tag_319:\n      mul\n      or\n      swap1\n      sstore\n      pop\n        /* \"QuadraticVoting.sol\":8115:8139  Proposal memory proposal */\n      tag_320\n      tag_183\n      jump\t// in\n    tag_320:\n        /* \"QuadraticVoting.sol\":8142:8151  proposals */\n      0x07\n        /* \"QuadraticVoting.sol\":8142:8163  proposals[proposalId] */\n      0x00\n        /* \"QuadraticVoting.sol\":8152:8162  proposalId */\n      dup4\n        /* \"QuadraticVoting.sol\":8142:8163  proposals[proposalId] */\n      dup2\n      mstore\n      0x20\n      add\n      swap1\n      dup2\n      mstore\n      0x20\n      add\n      0x00\n      keccak256\n        /* \"QuadraticVoting.sol\":8115:8163  Proposal memory proposal = proposals[proposalId] */\n      mload(0x40)\n      dup1\n      0x0120\n      add\n      0x40\n      mstore\n      swap1\n      dup2\n      0x00\n      dup3\n      add\n      0x00\n      swap1\n      sload\n      swap1\n      0x0100\n      exp\n      swap1\n      div\n      0xffffffffffffffffffffffffffffffffffffffff\n      and\n      0xffffffffffffffffffffffffffffffffffffffff\n      and\n      0xffffffffffffffffffffffffffffffffffffffff\n      and\n      dup2\n      mstore\n      0x20\n      add\n      0x01\n      dup3\n      add\n      0x00\n      swap1\n      sload\n      swap1\n      0x0100\n      exp\n      swap1\n      div\n      0xffffffffffffffffffffffffffffffffffffffff\n      and\n      0xffffffffffffffffffffffffffffffffffffffff\n      and\n      0xffffffffffffffffffffffffffffffffffffffff\n      and\n      dup2\n      mstore\n      0x20\n      add\n      0x02\n      dup3\n      add\n      dup1\n      sload\n      0x01\n      dup2\n      0x01\n      and\n      iszero\n      0x0100\n      mul\n      sub\n      and\n      0x02\n      swap1\n      div\n      dup1\n      0x1f\n      add\n      0x20\n      dup1\n      swap2\n      div\n      mul\n      0x20\n      add\n      mload(0x40)\n      swap1\n      dup2\n      add\n      0x40\n      mstore\n      dup1\n      swap3\n      swap2\n      swap1\n      dup2\n      dup2\n      mstore\n      0x20\n      add\n      dup3\n      dup1\n      sload\n      0x01\n      dup2\n      0x01\n      and\n      iszero\n      0x0100\n      mul\n      sub\n      and\n      0x02\n      swap1\n      div\n      dup1\n      iszero\n      tag_321\n      jumpi\n      dup1\n      0x1f\n      lt\n      tag_322\n      jumpi\n      0x0100\n      dup1\n      dup4\n      sload\n      div\n      mul\n      dup4\n      mstore\n      swap2\n      0x20\n      add\n      swap2\n      jump(tag_321)\n    tag_322:\n      dup3\n      add\n      swap2\n      swap1\n      0x00\n      mstore\n      keccak256(0x00, 0x20)\n      swap1\n    tag_323:\n      dup2\n      sload\n      dup2\n      mstore\n      swap1\n      0x01\n      add\n      swap1\n      0x20\n      add\n      dup1\n      dup4\n      gt\n      tag_323\n      jumpi\n      dup3\n      swap1\n      sub\n      0x1f\n      and\n      dup3\n      add\n      swap2\n    tag_321:\n      pop\n      pop\n      pop\n      pop\n      pop\n      dup2\n      mstore\n      0x20\n      add\n      0x03\n      dup3\n      add\n      dup1\n      sload\n      0x01\n      dup2\n      0x01\n      and\n      iszero\n      0x0100\n      mul\n      sub\n      and\n      0x02\n      swap1\n      div\n      dup1\n      0x1f\n      add\n      0x20\n      dup1\n      swap2\n      div\n      mul\n      0x20\n      add\n      mload(0x40)\n      swap1\n      dup2\n      add\n      0x40\n      mstore\n      dup1\n      swap3\n      swap2\n      swap1\n      dup2\n      dup2\n      mstore\n      0x20\n      add\n      dup3\n      dup1\n      sload\n      0x01\n      dup2\n      0x01\n      and\n      iszero\n      0x0100\n      mul\n      sub\n      and\n      0x02\n      swap1\n      div\n      dup1\n      iszero\n      tag_324\n      jumpi\n      dup1\n      0x1f\n      lt\n      tag_325\n      jumpi\n      0x0100\n      dup1\n      dup4\n      sload\n      div\n      mul\n      dup4\n      mstore\n      swap2\n      0x20\n      add\n      swap2\n      jump(tag_324)\n    tag_325:\n      dup3\n      add\n      swap2\n      swap1\n      0x00\n      mstore\n      keccak256(0x00, 0x20)\n      swap1\n    tag_326:\n      dup2\n      sload\n      dup2\n      mstore\n      swap1\n      0x01\n      add\n      swap1\n      0x20\n      add\n      dup1\n      dup4\n      gt\n      tag_326\n      jumpi\n      dup3\n      swap1\n      sub\n      0x1f\n      and\n      dup3\n      add\n      swap2\n    tag_324:\n      pop\n      pop\n      pop\n      pop\n      pop\n      dup2\n      mstore\n      0x20\n      add\n      0x04\n      dup3\n      add\n      sload\n      dup2\n      mstore\n      0x20\n      add\n      0x05\n      dup3\n      add\n      sload\n      dup2\n      mstore\n      0x20\n      add\n      0x06\n      dup3\n      add\n      sload\n      dup2\n      mstore\n      0x20\n      add\n      0x08\n      dup3\n      add\n      0x00\n      swap1\n      sload\n      swap1\n      0x0100\n      exp\n      swap1\n      div\n      0xff\n      and\n      0x02\n      dup2\n      gt\n      iszero\n      tag_327\n      jumpi\n      invalid\n    tag_327:\n      0x02\n      dup2\n      gt\n      iszero\n      tag_328\n      jumpi\n      invalid\n    tag_328:\n      dup2\n      mstore\n      0x20\n      add\n      0x09\n      dup3\n      add\n      sload\n      dup2\n      mstore\n      pop\n      pop\n      swap1\n      pop\n        /* \"QuadraticVoting.sol\":8196:8197  0 */\n      0x00\n        /* \"QuadraticVoting.sol\":8178:8186  proposal */\n      dup2\n        /* \"QuadraticVoting.sol\":8178:8193  proposal.budget */\n      0x80\n      add\n      mload\n        /* \"QuadraticVoting.sol\":8178:8197  proposal.budget > 0 */\n      gt\n        /* \"QuadraticVoting.sol\":8174:8280  if (proposal.budget > 0) {... */\n      iszero\n      tag_329\n      jumpi\n        /* \"QuadraticVoting.sol\":8213:8226  tokenContract */\n      0x01\n      0x00\n      swap1\n      sload\n      swap1\n      0x0100\n      exp\n      swap1\n      div\n      0xffffffffffffffffffffffffffffffffffffffff\n      and\n        /* \"QuadraticVoting.sol\":8213:8231  tokenContract.burn */\n      0xffffffffffffffffffffffffffffffffffffffff\n      and\n      0x9dc29fac\n        /* \"QuadraticVoting.sol\":8240:8244  this */\n      address\n        /* \"QuadraticVoting.sol\":8247:8255  proposal */\n      dup4\n        /* \"QuadraticVoting.sol\":8247:8268  proposal.tokensAmount */\n      0xc0\n      add\n      mload\n        /* \"QuadraticVoting.sol\":8213:8269  tokenContract.burn(address(this), proposal.tokensAmount) */\n      mload(0x40)\n      dup4\n      0xffffffff\n      and\n      0xe0\n      shl\n      dup2\n      mstore\n      0x04\n      add\n      dup1\n      dup4\n      0xffffffffffffffffffffffffffffffffffffffff\n      and\n      0xffffffffffffffffffffffffffffffffffffffff\n      and\n      dup2\n      mstore\n      0x20\n      add\n      dup3\n      dup2\n      mstore\n      0x20\n      add\n      swap3\n      pop\n      pop\n      pop\n      0x00\n      mload(0x40)\n      dup1\n      dup4\n      sub\n      dup2\n      0x00\n      dup8\n      dup1\n      extcodesize\n      iszero\n        /* \"--CODEGEN--\":8:17   */\n      dup1\n        /* \"--CODEGEN--\":5:7   */\n      iszero\n      tag_330\n      jumpi\n        /* \"--CODEGEN--\":30:31   */\n      0x00\n        /* \"--CODEGEN--\":27:28   */\n      dup1\n        /* \"--CODEGEN--\":20:32   */\n      revert\n        /* \"--CODEGEN--\":5:7   */\n    tag_330:\n        /* \"QuadraticVoting.sol\":8213:8269  tokenContract.burn(address(this), proposal.tokensAmount) */\n      pop\n      gas\n      call\n      iszero\n        /* \"--CODEGEN--\":8:17   */\n      dup1\n        /* \"--CODEGEN--\":5:7   */\n      iszero\n      tag_331\n      jumpi\n        /* \"--CODEGEN--\":45:61   */\n      returndatasize\n        /* \"--CODEGEN--\":42:43   */\n      0x00\n        /* \"--CODEGEN--\":39:40   */\n      dup1\n        /* \"--CODEGEN--\":24:62   */\n      returndatacopy\n        /* \"--CODEGEN--\":77:93   */\n      returndatasize\n        /* \"--CODEGEN--\":74:75   */\n      0x00\n        /* \"--CODEGEN--\":67:94   */\n      revert\n        /* \"--CODEGEN--\":5:7   */\n    tag_331:\n        /* \"QuadraticVoting.sol\":8213:8269  tokenContract.burn(address(this), proposal.tokensAmount) */\n      pop\n      pop\n      pop\n      pop\n        /* \"QuadraticVoting.sol\":8174:8280  if (proposal.budget > 0) {... */\n    tag_329:\n        /* \"QuadraticVoting.sol\":8298:8306  proposal */\n      dup1\n        /* \"QuadraticVoting.sol\":8298:8325  proposal.executableProposal */\n      0x20\n      add\n      mload\n        /* \"QuadraticVoting.sol\":8298:8341  proposal.executableProposal.executeProposal */\n      0xffffffffffffffffffffffffffffffffffffffff\n      and\n      0x986cc311\n        /* \"QuadraticVoting.sol\":8348:8356  proposal */\n      dup3\n        /* \"QuadraticVoting.sol\":8348:8363  proposal.budget */\n      0x80\n      add\n      mload\n        /* \"QuadraticVoting.sol\":8365:8375  proposalId */\n      dup5\n        /* \"QuadraticVoting.sol\":8377:8385  proposal */\n      dup5\n        /* \"QuadraticVoting.sol\":8377:8397  proposal.votesAmount */\n      0xa0\n      add\n      mload\n        /* \"QuadraticVoting.sol\":8399:8407  proposal */\n      dup6\n        /* \"QuadraticVoting.sol\":8399:8420  proposal.tokensAmount */\n      0xc0\n      add\n      mload\n        /* \"QuadraticVoting.sol\":8298:8421  proposal.executableProposal.executeProposal.value(proposal.budget)(proposalId, proposal.votesAmount, proposal.tokensAmount) */\n      mload(0x40)\n      dup6\n      0xffffffff\n      and\n      0xe0\n      shl\n      dup2\n      mstore\n      0x04\n      add\n      dup1\n      dup5\n      dup2\n      mstore\n      0x20\n      add\n      dup4\n      dup2\n      mstore\n      0x20\n      add\n      dup3\n      dup2\n      mstore\n      0x20\n      add\n      swap4\n      pop\n      pop\n      pop\n      pop\n      0x00\n      mload(0x40)\n      dup1\n      dup4\n      sub\n      dup2\n      dup6\n      dup9\n      dup1\n      extcodesize\n      iszero\n        /* \"--CODEGEN--\":8:17   */\n      dup1\n        /* \"--CODEGEN--\":5:7   */\n      iszero\n      tag_332\n      jumpi\n        /* \"--CODEGEN--\":30:31   */\n      0x00\n        /* \"--CODEGEN--\":27:28   */\n      dup1\n        /* \"--CODEGEN--\":20:32   */\n      revert\n        /* \"--CODEGEN--\":5:7   */\n    tag_332:\n        /* \"QuadraticVoting.sol\":8298:8421  proposal.executableProposal.executeProposal.value(proposal.budget)(proposalId, proposal.votesAmount, proposal.tokensAmount) */\n      pop\n      gas\n      call\n      iszero\n        /* \"--CODEGEN--\":8:17   */\n      dup1\n        /* \"--CODEGEN--\":5:7   */\n      iszero\n      tag_333\n      jumpi\n        /* \"--CODEGEN--\":45:61   */\n      returndatasize\n        /* \"--CODEGEN--\":42:43   */\n      0x00\n        /* \"--CODEGEN--\":39:40   */\n      dup1\n        /* \"--CODEGEN--\":24:62   */\n      returndatacopy\n        /* \"--CODEGEN--\":77:93   */\n      returndatasize\n        /* \"--CODEGEN--\":74:75   */\n      0x00\n        /* \"--CODEGEN--\":67:94   */\n      revert\n        /* \"--CODEGEN--\":5:7   */\n    tag_333:\n        /* \"QuadraticVoting.sol\":8298:8421  proposal.executableProposal.executeProposal.value(proposal.budget)(proposalId, proposal.votesAmount, proposal.tokensAmount) */\n      pop\n      pop\n      pop\n      pop\n      pop\n        /* \"QuadraticVoting.sol\":7970:8428  function _approveProposal(uint proposalId) private {... */\n      pop\n      pop\n      jump\t// out\n        /* \"QuadraticVoting.sol\":1477:1801  function _calculateWithdrawVote(uint proposalId, uint votes) view private returns(uint) {... */\n    tag_291:\n        /* \"QuadraticVoting.sol\":1559:1563  uint */\n      0x00\n        /* \"QuadraticVoting.sol\":1575:1588  uint oldVotes */\n      dup1\n        /* \"QuadraticVoting.sol\":1591:1600  proposals */\n      0x07\n        /* \"QuadraticVoting.sol\":1591:1612  proposals[proposalId] */\n      0x00\n        /* \"QuadraticVoting.sol\":1601:1611  proposalId */\n      dup6\n        /* \"QuadraticVoting.sol\":1591:1612  proposals[proposalId] */\n      dup2\n      mstore\n      0x20\n      add\n      swap1\n      dup2\n      mstore\n      0x20\n      add\n      0x00\n      keccak256\n        /* \"QuadraticVoting.sol\":1591:1618  proposals[proposalId].votes */\n      0x07\n      add\n        /* \"QuadraticVoting.sol\":1591:1630  proposals[proposalId].votes[msg.sender] */\n      0x00\n        /* \"QuadraticVoting.sol\":1619:1629  msg.sender */\n      caller\n        /* \"QuadraticVoting.sol\":1591:1630  proposals[proposalId].votes[msg.sender] */\n      0xffffffffffffffffffffffffffffffffffffffff\n      and\n      0xffffffffffffffffffffffffffffffffffffffff\n      and\n      dup2\n      mstore\n      0x20\n      add\n      swap1\n      dup2\n      mstore\n      0x20\n      add\n      0x00\n      keccak256\n      sload\n        /* \"QuadraticVoting.sol\":1575:1630  uint oldVotes = proposals[proposalId].votes[msg.sender] */\n      swap1\n      pop\n        /* \"QuadraticVoting.sol\":1640:1653  uint oldPrice */\n      0x00\n        /* \"QuadraticVoting.sol\":1668:1669  2 */\n      0x02\n        /* \"QuadraticVoting.sol\":1656:1664  oldVotes */\n      dup3\n        /* \"QuadraticVoting.sol\":1656:1669  oldVotes ** 2 */\n      exp\n        /* \"QuadraticVoting.sol\":1640:1669  uint oldPrice = oldVotes ** 2 */\n      swap1\n      pop\n        /* \"QuadraticVoting.sol\":1679:1694  uint totalVotes */\n      0x00\n        /* \"QuadraticVoting.sol\":1708:1713  votes */\n      dup5\n        /* \"QuadraticVoting.sol\":1697:1705  oldVotes */\n      dup4\n        /* \"QuadraticVoting.sol\":1697:1713  oldVotes - votes */\n      sub\n        /* \"QuadraticVoting.sol\":1679:1713  uint totalVotes = oldVotes - votes */\n      swap1\n      pop\n        /* \"QuadraticVoting.sol\":1723:1738  uint totalPrice */\n      0x00\n        /* \"QuadraticVoting.sol\":1755:1756  2 */\n      0x02\n        /* \"QuadraticVoting.sol\":1741:1751  totalVotes */\n      dup3\n        /* \"QuadraticVoting.sol\":1741:1756  totalVotes ** 2 */\n      exp\n        /* \"QuadraticVoting.sol\":1723:1756  uint totalPrice = totalVotes ** 2 */\n      swap1\n      pop\n        /* \"QuadraticVoting.sol\":1784:1794  totalPrice */\n      dup1\n        /* \"QuadraticVoting.sol\":1773:1781  oldPrice */\n      dup4\n        /* \"QuadraticVoting.sol\":1773:1794  oldPrice - totalPrice */\n      sub\n        /* \"QuadraticVoting.sol\":1766:1794  return oldPrice - totalPrice */\n      swap5\n      pop\n      pop\n      pop\n      pop\n      pop\n        /* \"QuadraticVoting.sol\":1477:1801  function _calculateWithdrawVote(uint proposalId, uint votes) view private returns(uint) {... */\n      swap3\n      swap2\n      pop\n      pop\n      jump\t// out\n        /* \"QuadraticVoting.sol\":7707:7960  function _isProposalApproved(uint proposalId) view internal returns(bool) {... */\n    tag_314:\n        /* \"QuadraticVoting.sol\":7775:7779  bool */\n      0x00\n        /* \"QuadraticVoting.sol\":7791:7815  Proposal memory proposal */\n      tag_336\n      tag_183\n      jump\t// in\n    tag_336:\n        /* \"QuadraticVoting.sol\":7818:7827  proposals */\n      0x07\n        /* \"QuadraticVoting.sol\":7818:7839  proposals[proposalId] */\n      0x00\n        /* \"QuadraticVoting.sol\":7828:7838  proposalId */\n      dup5\n        /* \"QuadraticVoting.sol\":7818:7839  proposals[proposalId] */\n      dup2\n      mstore\n      0x20\n      add\n      swap1\n      dup2\n      mstore\n      0x20\n      add\n      0x00\n      keccak256\n        /* \"QuadraticVoting.sol\":7791:7839  Proposal memory proposal = proposals[proposalId] */\n      mload(0x40)\n      dup1\n      0x0120\n      add\n      0x40\n      mstore\n      swap1\n      dup2\n      0x00\n      dup3\n      add\n      0x00\n      swap1\n      sload\n      swap1\n      0x0100\n      exp\n      swap1\n      div\n      0xffffffffffffffffffffffffffffffffffffffff\n      and\n      0xffffffffffffffffffffffffffffffffffffffff\n      and\n      0xffffffffffffffffffffffffffffffffffffffff\n      and\n      dup2\n      mstore\n      0x20\n      add\n      0x01\n      dup3\n      add\n      0x00\n      swap1\n      sload\n      swap1\n      0x0100\n      exp\n      swap1\n      div\n      0xffffffffffffffffffffffffffffffffffffffff\n      and\n      0xffffffffffffffffffffffffffffffffffffffff\n      and\n      0xffffffffffffffffffffffffffffffffffffffff\n      and\n      dup2\n      mstore\n      0x20\n      add\n      0x02\n      dup3\n      add\n      dup1\n      sload\n      0x01\n      dup2\n      0x01\n      and\n      iszero\n      0x0100\n      mul\n      sub\n      and\n      0x02\n      swap1\n      div\n      dup1\n      0x1f\n      add\n      0x20\n      dup1\n      swap2\n      div\n      mul\n      0x20\n      add\n      mload(0x40)\n      swap1\n      dup2\n      add\n      0x40\n      mstore\n      dup1\n      swap3\n      swap2\n      swap1\n      dup2\n      dup2\n      mstore\n      0x20\n      add\n      dup3\n      dup1\n      sload\n      0x01\n      dup2\n      0x01\n      and\n      iszero\n      0x0100\n      mul\n      sub\n      and\n      0x02\n      swap1\n      div\n      dup1\n      iszero\n      tag_337\n      jumpi\n      dup1\n      0x1f\n      lt\n      tag_338\n      jumpi\n      0x0100\n      dup1\n      dup4\n      sload\n      div\n      mul\n      dup4\n      mstore\n      swap2\n      0x20\n      add\n      swap2\n      jump(tag_337)\n    tag_338:\n      dup3\n      add\n      swap2\n      swap1\n      0x00\n      mstore\n      keccak256(0x00, 0x20)\n      swap1\n    tag_339:\n      dup2\n      sload\n      dup2\n      mstore\n      swap1\n      0x01\n      add\n      swap1\n      0x20\n      add\n      dup1\n      dup4\n      gt\n      tag_339\n      jumpi\n      dup3\n      swap1\n      sub\n      0x1f\n      and\n      dup3\n      add\n      swap2\n    tag_337:\n      pop\n      pop\n      pop\n      pop\n      pop\n      dup2\n      mstore\n      0x20\n      add\n      0x03\n      dup3\n      add\n      dup1\n      sload\n      0x01\n      dup2\n      0x01\n      and\n      iszero\n      0x0100\n      mul\n      sub\n      and\n      0x02\n      swap1\n      div\n      dup1\n      0x1f\n      add\n      0x20\n      dup1\n      swap2\n      div\n      mul\n      0x20\n      add\n      mload(0x40)\n      swap1\n      dup2\n      add\n      0x40\n      mstore\n      dup1\n      swap3\n      swap2\n      swap1\n      dup2\n      dup2\n      mstore\n      0x20\n      add\n      dup3\n      dup1\n      sload\n      0x01\n      dup2\n      0x01\n      and\n      iszero\n      0x0100\n      mul\n      sub\n      and\n      0x02\n      swap1\n      div\n      dup1\n      iszero\n      tag_340\n      jumpi\n      dup1\n      0x1f\n      lt\n      tag_341\n      jumpi\n      0x0100\n      dup1\n      dup4\n      sload\n      div\n      mul\n      dup4\n      mstore\n      swap2\n      0x20\n      add\n      swap2\n      jump(tag_340)\n    tag_341:\n      dup3\n      add\n      swap2\n      swap1\n      0x00\n      mstore\n      keccak256(0x00, 0x20)\n      swap1\n    tag_342:\n      dup2\n      sload\n      dup2\n      mstore\n      swap1\n      0x01\n      add\n      swap1\n      0x20\n      add\n      dup1\n      dup4\n      gt\n      tag_342\n      jumpi\n      dup3\n      swap1\n      sub\n      0x1f\n      and\n      dup3\n      add\n      swap2\n    tag_340:\n      pop\n      pop\n      pop\n      pop\n      pop\n      dup2\n      mstore\n      0x20\n      add\n      0x04\n      dup3\n      add\n      sload\n      dup2\n      mstore\n      0x20\n      add\n      0x05\n      dup3\n      add\n      sload\n      dup2\n      mstore\n      0x20\n      add\n      0x06\n      dup3\n      add\n      sload\n      dup2\n      mstore\n      0x20\n      add\n      0x08\n      dup3\n      add\n      0x00\n      swap1\n      sload\n      swap1\n      0x0100\n      exp\n      swap1\n      div\n      0xff\n      and\n      0x02\n      dup2\n      gt\n      iszero\n      tag_343\n      jumpi\n      invalid\n    tag_343:\n      0x02\n      dup2\n      gt\n      iszero\n      tag_344\n      jumpi\n      invalid\n    tag_344:\n      dup2\n      mstore\n      0x20\n      add\n      0x09\n      dup3\n      add\n      sload\n      dup2\n      mstore\n      pop\n      pop\n      swap1\n      pop\n        /* \"QuadraticVoting.sol\":7874:7895  address(this).balance */\n      selfbalance\n        /* \"QuadraticVoting.sol\":7856:7864  proposal */\n      dup2\n        /* \"QuadraticVoting.sol\":7856:7871  proposal.budget */\n      0x80\n      add\n      mload\n        /* \"QuadraticVoting.sol\":7856:7895  proposal.budget < address(this).balance */\n      lt\n        /* \"QuadraticVoting.sol\":7856:7953  proposal.budget < address(this).balance && proposal.votesAmount > _calculateThreshold(proposalId) */\n      dup1\n      iszero\n      tag_345\n      jumpi\n      pop\n        /* \"QuadraticVoting.sol\":7922:7953  _calculateThreshold(proposalId) */\n      tag_346\n        /* \"QuadraticVoting.sol\":7942:7952  proposalId */\n      dup4\n        /* \"QuadraticVoting.sol\":7922:7941  _calculateThreshold */\n      tag_347\n        /* \"QuadraticVoting.sol\":7922:7953  _calculateThreshold(proposalId) */\n      jump\t// in\n    tag_346:\n        /* \"QuadraticVoting.sol\":7899:7907  proposal */\n      dup2\n        /* \"QuadraticVoting.sol\":7899:7919  proposal.votesAmount */\n      0xa0\n      add\n      mload\n        /* \"QuadraticVoting.sol\":7899:7953  proposal.votesAmount > _calculateThreshold(proposalId) */\n      gt\n        /* \"QuadraticVoting.sol\":7856:7953  proposal.budget < address(this).balance && proposal.votesAmount > _calculateThreshold(proposalId) */\n    tag_345:\n        /* \"QuadraticVoting.sol\":7849:7953  return proposal.budget < address(this).balance && proposal.votesAmount > _calculateThreshold(proposalId) */\n      swap2\n      pop\n      pop\n        /* \"QuadraticVoting.sol\":7707:7960  function _isProposalApproved(uint proposalId) view internal returns(bool) {... */\n      swap2\n      swap1\n      pop\n      jump\t// out\n        /* \"QuadraticVoting.sol\":1849:2046  function _calculateThreshold(uint proposalId) view private returns(uint) {... */\n    tag_347:\n        /* \"QuadraticVoting.sol\":1916:1920  uint */\n      0x00\n        /* \"QuadraticVoting.sol\":2029:2039  nProposals */\n      sload(0x06)\n        /* \"QuadraticVoting.sol\":2013:2026  nParticipants */\n      sload(0x04)\n        /* \"QuadraticVoting.sol\":2008:2010  10 */\n      0x0a\n        /* \"QuadraticVoting.sol\":2003:2005  10 */\n      dup1\n        /* \"QuadraticVoting.sol\":1981:2002  address(this).balance */\n      selfbalance\n        /* \"QuadraticVoting.sol\":1981:2005  address(this).balance*10 */\n      mul\n        /* \"QuadraticVoting.sol\":1974:1976  10 */\n      0x0a\n        /* \"QuadraticVoting.sol\":1945:1954  proposals */\n      0x07\n        /* \"QuadraticVoting.sol\":1945:1966  proposals[proposalId] */\n      0x00\n        /* \"QuadraticVoting.sol\":1955:1965  proposalId */\n      dup9\n        /* \"QuadraticVoting.sol\":1945:1966  proposals[proposalId] */\n      dup2\n      mstore\n      0x20\n      add\n      swap1\n      dup2\n      mstore\n      0x20\n      add\n      0x00\n      keccak256\n        /* \"QuadraticVoting.sol\":1945:1973  proposals[proposalId].budget */\n      0x04\n      add\n      sload\n        /* \"QuadraticVoting.sol\":1945:1976  proposals[proposalId].budget*10 */\n      mul\n        /* \"QuadraticVoting.sol\":1944:2006  (proposals[proposalId].budget*10) / (address(this).balance*10) */\n      dup2\n      tag_349\n      jumpi\n      invalid\n    tag_349:\n      div\n        /* \"QuadraticVoting.sol\":1940:1941  2 */\n      0x02\n        /* \"QuadraticVoting.sol\":1940:2006  2 + (proposals[proposalId].budget*10) / (address(this).balance*10) */\n      add\n        /* \"QuadraticVoting.sol\":1939:2010  (2 + (proposals[proposalId].budget*10) / (address(this).balance*10))/10 */\n      dup2\n      tag_350\n      jumpi\n      invalid\n    tag_350:\n      div\n        /* \"QuadraticVoting.sol\":1939:2026  (2 + (proposals[proposalId].budget*10) / (address(this).balance*10))/10 * nParticipants */\n      mul\n        /* \"QuadraticVoting.sol\":1939:2039  (2 + (proposals[proposalId].budget*10) / (address(this).balance*10))/10 * nParticipants + nProposals */\n      add\n        /* \"QuadraticVoting.sol\":1932:2039  return (2 + (proposals[proposalId].budget*10) / (address(this).balance*10))/10 * nParticipants + nProposals */\n      swap1\n      pop\n        /* \"QuadraticVoting.sol\":1849:2046  function _calculateThreshold(uint proposalId) view private returns(uint) {... */\n      swap2\n      swap1\n      pop\n      jump\t// out\n        /* \"QuadraticVoting.sol\":59:11277  contract QuadraticVoting is IQuadraticVoting {... */\n    tag_98:\n      pop\n      dup1\n      sload\n      0x00\n      dup3\n      sstore\n      swap1\n      0x00\n      mstore\n      keccak256(0x00, 0x20)\n      swap1\n      dup2\n      add\n      swap1\n      tag_352\n      swap2\n      swap1\n      tag_353\n      jump\t// in\n    tag_352:\n      pop\n      jump\t// out\n    tag_183:\n      mload(0x40)\n      dup1\n      0x0120\n      add\n      0x40\n      mstore\n      dup1\n      and(0xffffffffffffffffffffffffffffffffffffffff, 0x00)\n      dup2\n      mstore\n      0x20\n      add\n      and(0xffffffffffffffffffffffffffffffffffffffff, 0x00)\n      dup2\n      mstore\n      0x20\n      add\n      0x60\n      dup2\n      mstore\n      0x20\n      add\n      0x60\n      dup2\n      mstore\n      0x20\n      add\n      0x00\n      dup2\n      mstore\n      0x20\n      add\n      0x00\n      dup2\n      mstore\n      0x20\n      add\n      0x00\n      dup2\n      mstore\n      0x20\n      add\n      0x00\n      0x02\n      dup2\n      gt\n      iszero\n      tag_354\n      jumpi\n      invalid\n    tag_354:\n      dup2\n      mstore\n      0x20\n      add\n      0x00\n      dup2\n      mstore\n      pop\n      swap1\n      jump\t// out\n    tag_187:\n      dup3\n      dup1\n      sload\n      0x01\n      dup2\n      0x01\n      and\n      iszero\n      0x0100\n      mul\n      sub\n      and\n      0x02\n      swap1\n      div\n      swap1\n      0x00\n      mstore\n      keccak256(0x00, 0x20)\n      swap1\n      0x1f\n      add\n      0x20\n      swap1\n      div\n      dup2\n      add\n      swap3\n      dup3\n      0x1f\n      lt\n      tag_356\n      jumpi\n      dup1\n      mload\n      not(0xff)\n      and\n      dup4\n      dup1\n      add\n      or\n      dup6\n      sstore\n      jump(tag_355)\n    tag_356:\n      dup3\n      dup1\n      add\n      0x01\n      add\n      dup6\n      sstore\n      dup3\n      iszero\n      tag_355\n      jumpi\n      swap2\n      dup3\n      add\n    tag_357:\n      dup3\n      dup2\n      gt\n      iszero\n      tag_358\n      jumpi\n      dup3\n      mload\n      dup3\n      sstore\n      swap2\n      0x20\n      add\n      swap2\n      swap1\n      0x01\n      add\n      swap1\n      jump(tag_357)\n    tag_358:\n    tag_355:\n      pop\n      swap1\n      pop\n      tag_359\n      swap2\n      swap1\n      tag_353\n      jump\t// in\n    tag_359:\n      pop\n      swap1\n      jump\t// out\n    tag_353:\n      tag_360\n      swap2\n      swap1\n    tag_361:\n      dup1\n      dup3\n      gt\n      iszero\n      tag_362\n      jumpi\n      0x00\n      dup2\n      0x00\n      swap1\n      sstore\n      pop\n      0x01\n      add\n      jump(tag_361)\n    tag_362:\n      pop\n      swap1\n      jump\n    tag_360:\n      swap1\n      jump\t// out\n    stop\n    data_14b304433698afa5c4d30ca6f8a9048a66753dc8a6bc1b8a9d4c979ccf1a0388 546865206d6178696d756d206e756d626572206f6620746f6b656e7320686173206265656e2067656e657261746564\n\n    auxdata: 0xa265627a7a7231582099ad36012f3da02360910de6a0bbae04183bc3492fd1c7bd900b46883410a34764736f6c63430005110032\n}\n\nsub_1: assembly {\n        /* \"UCMToken.sol\":150:646  contract UCMToken is ERC20, ERC20Detailed, MinterRole {... */\n      mstore(0x40, 0x80)\n        /* \"UCMToken.sol\":239:326  constructor() ERC20Detailed(\"UCM\", \"UCM\", 0) public {... */\n      callvalue\n        /* \"--CODEGEN--\":8:17   */\n      dup1\n        /* \"--CODEGEN--\":5:7   */\n      iszero\n      tag_1\n      jumpi\n        /* \"--CODEGEN--\":30:31   */\n      0x00\n        /* \"--CODEGEN--\":27:28   */\n      dup1\n        /* \"--CODEGEN--\":20:32   */\n      revert\n        /* \"--CODEGEN--\":5:7   */\n    tag_1:\n        /* \"UCMToken.sol\":239:326  constructor() ERC20Detailed(\"UCM\", \"UCM\", 0) public {... */\n      pop\n        /* \"openzeppelin/ERC20Detailed.sol\":512:675  constructor (string memory name, string memory symbol, uint8 decimals) public {... */\n      mload(0x40)\n      dup1\n      0x40\n      add\n      0x40\n      mstore\n      dup1\n      0x03\n      dup2\n      mstore\n      0x20\n      add\n      0x55434d0000000000000000000000000000000000000000000000000000000000\n      dup2\n      mstore\n      pop\n      mload(0x40)\n      dup1\n      0x40\n      add\n      0x40\n      mstore\n      dup1\n      0x03\n      dup2\n      mstore\n      0x20\n      add\n      0x55434d0000000000000000000000000000000000000000000000000000000000\n      dup2\n      mstore\n      pop\n        /* \"UCMToken.sol\":281:282  0 */\n      0x00\n        /* \"openzeppelin/ERC20Detailed.sol\":608:612  name */\n      dup3\n        /* \"openzeppelin/ERC20Detailed.sol\":600:605  _name */\n      0x03\n        /* \"openzeppelin/ERC20Detailed.sol\":600:612  _name = name */\n      swap1\n      dup1\n      mload\n      swap1\n      0x20\n      add\n      swap1\n      tag_8\n      swap3\n      swap2\n      swap1\n      tag_9\n      jump\t// in\n    tag_8:\n      pop\n        /* \"openzeppelin/ERC20Detailed.sol\":632:638  symbol */\n      dup2\n        /* \"openzeppelin/ERC20Detailed.sol\":622:629  _symbol */\n      0x04\n        /* \"openzeppelin/ERC20Detailed.sol\":622:638  _symbol = symbol */\n      swap1\n      dup1\n      mload\n      swap1\n      0x20\n      add\n      swap1\n      tag_10\n      swap3\n      swap2\n      swap1\n      tag_9\n      jump\t// in\n    tag_10:\n      pop\n        /* \"openzeppelin/ERC20Detailed.sol\":660:668  decimals */\n      dup1\n        /* \"openzeppelin/ERC20Detailed.sol\":648:657  _decimals */\n      0x05\n      0x00\n        /* \"openzeppelin/ERC20Detailed.sol\":648:668  _decimals = decimals */\n      0x0100\n      exp\n      dup2\n      sload\n      dup2\n      0xff\n      mul\n      not\n      and\n      swap1\n      dup4\n      0xff\n      and\n      mul\n      or\n      swap1\n      sstore\n      pop\n        /* \"openzeppelin/ERC20Detailed.sol\":512:675  constructor (string memory name, string memory symbol, uint8 decimals) public {... */\n      pop\n      pop\n      pop\n        /* \"openzeppelin/roles/MinterRole.sol\":408:432  _addMinter(_msgSender()) */\n      tag_12\n        /* \"openzeppelin/roles/MinterRole.sol\":419:431  _msgSender() */\n      tag_13\n        /* \"openzeppelin/roles/MinterRole.sol\":419:429  _msgSender */\n      shl(0x20, tag_14)\n        /* \"openzeppelin/roles/MinterRole.sol\":419:431  _msgSender() */\n      0x20\n      shr\n      jump\t// in\n    tag_13:\n        /* \"openzeppelin/roles/MinterRole.sol\":408:418  _addMinter */\n      shl(0x20, tag_15)\n        /* \"openzeppelin/roles/MinterRole.sol\":408:432  _addMinter(_msgSender()) */\n      0x20\n      shr\n      jump\t// in\n    tag_12:\n        /* \"UCMToken.sol\":309:319  msg.sender */\n      caller\n        /* \"UCMToken.sol\":301:306  owner */\n      0x07\n      0x00\n        /* \"UCMToken.sol\":301:319  owner = msg.sender */\n      0x0100\n      exp\n      dup2\n      sload\n      dup2\n      0xffffffffffffffffffffffffffffffffffffffff\n      mul\n      not\n      and\n      swap1\n      dup4\n      0xffffffffffffffffffffffffffffffffffffffff\n      and\n      mul\n      or\n      swap1\n      sstore\n      pop\n        /* \"UCMToken.sol\":150:646  contract UCMToken is ERC20, ERC20Detailed, MinterRole {... */\n      jump(tag_17)\n        /* \"openzeppelin/GSN/Context.sol\":870:966  function _msgSender() internal view returns (address payable) {... */\n    tag_14:\n        /* \"openzeppelin/GSN/Context.sol\":915:930  address payable */\n      0x00\n        /* \"openzeppelin/GSN/Context.sol\":949:959  msg.sender */\n      caller\n        /* \"openzeppelin/GSN/Context.sol\":942:959  return msg.sender */\n      swap1\n      pop\n        /* \"openzeppelin/GSN/Context.sol\":870:966  function _msgSender() internal view returns (address payable) {... */\n      swap1\n      jump\t// out\n        /* \"openzeppelin/roles/MinterRole.sol\":876:995  function _addMinter(address account) internal {... */\n    tag_15:\n        /* \"openzeppelin/roles/MinterRole.sol\":932:953  _minters.add(account) */\n      tag_20\n        /* \"openzeppelin/roles/MinterRole.sol\":945:952  account */\n      dup2\n        /* \"openzeppelin/roles/MinterRole.sol\":932:940  _minters */\n      0x06\n        /* \"openzeppelin/roles/MinterRole.sol\":932:944  _minters.add */\n      or(tag_0_163, shl(0x20, tag_21))\n      swap1\n        /* \"openzeppelin/roles/MinterRole.sol\":932:953  _minters.add(account) */\n      swap2\n      swap1\n      0x20\n      shr\n      jump\t// in\n    tag_20:\n        /* \"openzeppelin/roles/MinterRole.sol\":980:987  account */\n      dup1\n        /* \"openzeppelin/roles/MinterRole.sol\":968:988  MinterAdded(account) */\n      0xffffffffffffffffffffffffffffffffffffffff\n      and\n      0x6ae172837ea30b801fbfcdd4108aa1d5bf8ff775444fd70256b44e6bf3dfc3f6\n      mload(0x40)\n      mload(0x40)\n      dup1\n      swap2\n      sub\n      swap1\n      log2\n        /* \"openzeppelin/roles/MinterRole.sol\":876:995  function _addMinter(address account) internal {... */\n      pop\n      jump\t// out\n        /* \"openzeppelin/roles/Roles.sol\":343:518  function add(Role storage role, address account) internal {... */\n    tag_21:\n        /* \"openzeppelin/roles/Roles.sol\":420:438  has(role, account) */\n      tag_23\n        /* \"openzeppelin/roles/Roles.sol\":424:428  role */\n      dup3\n        /* \"openzeppelin/roles/Roles.sol\":430:437  account */\n      dup3\n        /* \"openzeppelin/roles/Roles.sol\":420:423  has */\n      shl(0x20, tag_24)\n        /* \"openzeppelin/roles/Roles.sol\":420:438  has(role, account) */\n      0x20\n      shr\n      jump\t// in\n    tag_23:\n        /* \"openzeppelin/roles/Roles.sol\":419:438  !has(role, account) */\n      iszero\n        /* \"openzeppelin/roles/Roles.sol\":411:474  require(!has(role, account), \"Roles: account already has role\") */\n      tag_25\n      jumpi\n      mload(0x40)\n      0x08c379a000000000000000000000000000000000000000000000000000000000\n      dup2\n      mstore\n      0x04\n      add\n      dup1\n      dup1\n      0x20\n      add\n      dup3\n      dup2\n      sub\n      dup3\n      mstore\n      0x1f\n      dup2\n      mstore\n      0x20\n      add\n      dup1\n      0x526f6c65733a206163636f756e7420616c72656164792068617320726f6c6500\n      dup2\n      mstore\n      pop\n      0x20\n      add\n      swap2\n      pop\n      pop\n      mload(0x40)\n      dup1\n      swap2\n      sub\n      swap1\n      revert\n    tag_25:\n        /* \"openzeppelin/roles/Roles.sol\":507:511  true */\n      0x01\n        /* \"openzeppelin/roles/Roles.sol\":484:488  role */\n      dup3\n        /* \"openzeppelin/roles/Roles.sol\":484:495  role.bearer */\n      0x00\n      add\n        /* \"openzeppelin/roles/Roles.sol\":484:504  role.bearer[account] */\n      0x00\n        /* \"openzeppelin/roles/Roles.sol\":496:503  account */\n      dup4\n        /* \"openzeppelin/roles/Roles.sol\":484:504  role.bearer[account] */\n      0xffffffffffffffffffffffffffffffffffffffff\n      and\n      0xffffffffffffffffffffffffffffffffffffffff\n      and\n      dup2\n      mstore\n      0x20\n      add\n      swap1\n      dup2\n      mstore\n      0x20\n      add\n      0x00\n      keccak256\n      0x00\n        /* \"openzeppelin/roles/Roles.sol\":484:511  role.bearer[account] = true */\n      0x0100\n      exp\n      dup2\n      sload\n      dup2\n      0xff\n      mul\n      not\n      and\n      swap1\n      dup4\n      iszero\n      iszero\n      mul\n      or\n      swap1\n      sstore\n      pop\n        /* \"openzeppelin/roles/Roles.sol\":343:518  function add(Role storage role, address account) internal {... */\n      pop\n      pop\n      jump\t// out\n        /* \"openzeppelin/roles/Roles.sol\":862:1062  function has(Role storage role, address account) internal view returns (bool) {... */\n    tag_24:\n        /* \"openzeppelin/roles/Roles.sol\":934:938  bool */\n      0x00\n        /* \"openzeppelin/roles/Roles.sol\":977:978  0 */\n      dup1\n        /* \"openzeppelin/roles/Roles.sol\":958:979  account != address(0) */\n      0xffffffffffffffffffffffffffffffffffffffff\n      and\n        /* \"openzeppelin/roles/Roles.sol\":958:965  account */\n      dup3\n        /* \"openzeppelin/roles/Roles.sol\":958:979  account != address(0) */\n      0xffffffffffffffffffffffffffffffffffffffff\n      and\n      eq\n      iszero\n        /* \"openzeppelin/roles/Roles.sol\":950:1018  require(account != address(0), \"Roles: account is the zero address\") */\n      tag_27\n      jumpi\n      mload(0x40)\n      0x08c379a000000000000000000000000000000000000000000000000000000000\n      dup2\n      mstore\n      0x04\n      add\n      dup1\n      dup1\n      0x20\n      add\n      dup3\n      dup2\n      sub\n      dup3\n      mstore\n      0x22\n      dup2\n      mstore\n      0x20\n      add\n      dup1\n      data_9d214fa89563f4e6456a3929327e54500ea1cde2c0ba9fb2035ec106190d682f\n      0x22\n      swap2\n      codecopy\n      0x40\n      add\n      swap2\n      pop\n      pop\n      mload(0x40)\n      dup1\n      swap2\n      sub\n      swap1\n      revert\n    tag_27:\n        /* \"openzeppelin/roles/Roles.sol\":1035:1039  role */\n      dup3\n        /* \"openzeppelin/roles/Roles.sol\":1035:1046  role.bearer */\n      0x00\n      add\n        /* \"openzeppelin/roles/Roles.sol\":1035:1055  role.bearer[account] */\n      0x00\n        /* \"openzeppelin/roles/Roles.sol\":1047:1054  account */\n      dup4\n        /* \"openzeppelin/roles/Roles.sol\":1035:1055  role.bearer[account] */\n      0xffffffffffffffffffffffffffffffffffffffff\n      and\n      0xffffffffffffffffffffffffffffffffffffffff\n      and\n      dup2\n      mstore\n      0x20\n      add\n      swap1\n      dup2\n      mstore\n      0x20\n      add\n      0x00\n      keccak256\n      0x00\n      swap1\n      sload\n      swap1\n      0x0100\n      exp\n      swap1\n      div\n      0xff\n      and\n        /* \"openzeppelin/roles/Roles.sol\":1028:1055  return role.bearer[account] */\n      swap1\n      pop\n        /* \"openzeppelin/roles/Roles.sol\":862:1062  function has(Role storage role, address account) internal view returns (bool) {... */\n      swap3\n      swap2\n      pop\n      pop\n      jump\t// out\n        /* \"UCMToken.sol\":150:646  contract UCMToken is ERC20, ERC20Detailed, MinterRole {... */\n    tag_9:\n      dup3\n      dup1\n      sload\n      0x01\n      dup2\n      0x01\n      and\n      iszero\n      0x0100\n      mul\n      sub\n      and\n      0x02\n      swap1\n      div\n      swap1\n      0x00\n      mstore\n      keccak256(0x00, 0x20)\n      swap1\n      0x1f\n      add\n      0x20\n      swap1\n      div\n      dup2\n      add\n      swap3\n      dup3\n      0x1f\n      lt\n      tag_29\n      jumpi\n      dup1\n      mload\n      not(0xff)\n      and\n      dup4\n      dup1\n      add\n      or\n      dup6\n      sstore\n      jump(tag_28)\n    tag_29:\n      dup3\n      dup1\n      add\n      0x01\n      add\n      dup6\n      sstore\n      dup3\n      iszero\n      tag_28\n      jumpi\n      swap2\n      dup3\n      add\n    tag_30:\n      dup3\n      dup2\n      gt\n      iszero\n      tag_31\n      jumpi\n      dup3\n      mload\n      dup3\n      sstore\n      swap2\n      0x20\n      add\n      swap2\n      swap1\n      0x01\n      add\n      swap1\n      jump(tag_30)\n    tag_31:\n    tag_28:\n      pop\n      swap1\n      pop\n      tag_32\n      swap2\n      swap1\n      tag_33\n      jump\t// in\n    tag_32:\n      pop\n      swap1\n      jump\t// out\n    tag_33:\n      tag_34\n      swap2\n      swap1\n    tag_35:\n      dup1\n      dup3\n      gt\n      iszero\n      tag_36\n      jumpi\n      0x00\n      dup2\n      0x00\n      swap1\n      sstore\n      pop\n      0x01\n      add\n      jump(tag_35)\n    tag_36:\n      pop\n      swap1\n      jump\n    tag_34:\n      swap1\n      jump\t// out\n    tag_17:\n      dataSize(sub_0)\n      dup1\n      dataOffset(sub_0)\n      0x00\n      codecopy\n      0x00\n      return\n    stop\n    data_9d214fa89563f4e6456a3929327e54500ea1cde2c0ba9fb2035ec106190d682f 526f6c65733a206163636f756e7420697320746865207a65726f2061646472657373\n\n    sub_0: assembly {\n            /* \"UCMToken.sol\":150:646  contract UCMToken is ERC20, ERC20Detailed, MinterRole {... */\n          mstore(0x40, 0x80)\n          callvalue\n            /* \"--CODEGEN--\":8:17   */\n          dup1\n            /* \"--CODEGEN--\":5:7   */\n          iszero\n          tag_1\n          jumpi\n            /* \"--CODEGEN--\":30:31   */\n          0x00\n            /* \"--CODEGEN--\":27:28   */\n          dup1\n            /* \"--CODEGEN--\":20:32   */\n          revert\n            /* \"--CODEGEN--\":5:7   */\n        tag_1:\n            /* \"UCMToken.sol\":150:646  contract UCMToken is ERC20, ERC20Detailed, MinterRole {... */\n          pop\n          jumpi(tag_2, lt(calldatasize, 0x04))\n          shr(0xe0, calldataload(0x00))\n          dup1\n          0x95d89b41\n          gt\n          tag_19\n          jumpi\n          dup1\n          0xa457c2d7\n          gt\n          tag_20\n          jumpi\n          dup1\n          0xa457c2d7\n          eq\n          tag_15\n          jumpi\n          dup1\n          0xa9059cbb\n          eq\n          tag_16\n          jumpi\n          dup1\n          0xaa271e1a\n          eq\n          tag_17\n          jumpi\n          dup1\n          0xdd62ed3e\n          eq\n          tag_18\n          jumpi\n          jump(tag_2)\n        tag_20:\n          dup1\n          0x95d89b41\n          eq\n          tag_11\n          jumpi\n          dup1\n          0x983b2d56\n          eq\n          tag_12\n          jumpi\n          dup1\n          0x98650275\n          eq\n          tag_13\n          jumpi\n          dup1\n          0x9dc29fac\n          eq\n          tag_14\n          jumpi\n          jump(tag_2)\n        tag_19:\n          dup1\n          0x313ce567\n          gt\n          tag_21\n          jumpi\n          dup1\n          0x313ce567\n          eq\n          tag_7\n          jumpi\n          dup1\n          0x39509351\n          eq\n          tag_8\n          jumpi\n          dup1\n          0x40c10f19\n          eq\n          tag_9\n          jumpi\n          dup1\n          0x70a08231\n          eq\n          tag_10\n          jumpi\n          jump(tag_2)\n        tag_21:\n          dup1\n          0x06fdde03\n          eq\n          tag_3\n          jumpi\n          dup1\n          0x095ea7b3\n          eq\n          tag_4\n          jumpi\n          dup1\n          0x18160ddd\n          eq\n          tag_5\n          jumpi\n          dup1\n          0x23b872dd\n          eq\n          tag_6\n          jumpi\n        tag_2:\n          0x00\n          dup1\n          revert\n            /* \"openzeppelin/ERC20Detailed.sol\":740:821  function name() public view returns (string memory) {... */\n        tag_3:\n          tag_22\n          tag_23\n          jump\t// in\n        tag_22:\n          mload(0x40)\n          dup1\n          dup1\n          0x20\n          add\n          dup3\n          dup2\n          sub\n          dup3\n          mstore\n          dup4\n          dup2\n          dup2\n          mload\n          dup2\n          mstore\n          0x20\n          add\n          swap2\n          pop\n          dup1\n          mload\n          swap1\n          0x20\n          add\n          swap1\n          dup1\n          dup4\n          dup4\n            /* \"--CODEGEN--\":23:24   */\n          0x00\n            /* \"--CODEGEN--\":8:108   */\n        tag_24:\n            /* \"--CODEGEN--\":33:36   */\n          dup4\n            /* \"--CODEGEN--\":30:31   */\n          dup2\n            /* \"--CODEGEN--\":27:37   */\n          lt\n            /* \"--CODEGEN--\":8:108   */\n          iszero\n          tag_26\n          jumpi\n            /* \"--CODEGEN--\":99:100   */\n          dup1\n            /* \"--CODEGEN--\":94:97   */\n          dup3\n            /* \"--CODEGEN--\":90:101   */\n          add\n            /* \"--CODEGEN--\":84:102   */\n          mload\n            /* \"--CODEGEN--\":80:81   */\n          dup2\n            /* \"--CODEGEN--\":75:78   */\n          dup5\n            /* \"--CODEGEN--\":71:82   */\n          add\n            /* \"--CODEGEN--\":64:103   */\n          mstore\n            /* \"--CODEGEN--\":52:54   */\n          0x20\n            /* \"--CODEGEN--\":49:50   */\n          dup2\n            /* \"--CODEGEN--\":45:55   */\n          add\n            /* \"--CODEGEN--\":40:55   */\n          swap1\n          pop\n            /* \"--CODEGEN--\":8:108   */\n          jump(tag_24)\n        tag_26:\n            /* \"--CODEGEN--\":12:26   */\n          pop\n            /* \"openzeppelin/ERC20Detailed.sol\":740:821  function name() public view returns (string memory) {... */\n          pop\n          pop\n          pop\n          swap1\n          pop\n          swap1\n          dup2\n          add\n          swap1\n          0x1f\n          and\n          dup1\n          iszero\n          tag_27\n          jumpi\n          dup1\n          dup3\n          sub\n          dup1\n          mload\n          0x01\n          dup4\n          0x20\n          sub\n          0x0100\n          exp\n          sub\n          not\n          and\n          dup2\n          mstore\n          0x20\n          add\n          swap2\n          pop\n        tag_27:\n          pop\n          swap3\n          pop\n          pop\n          pop\n          mload(0x40)\n          dup1\n          swap2\n          sub\n          swap1\n          return\n            /* \"openzeppelin/ERC20.sol\":2580:2729  function approve(address spender, uint256 amount) public returns (bool) {... */\n        tag_4:\n          tag_28\n          0x04\n          dup1\n          calldatasize\n          sub\n            /* \"--CODEGEN--\":13:15   */\n          0x40\n            /* \"--CODEGEN--\":8:11   */\n          dup2\n            /* \"--CODEGEN--\":5:16   */\n          lt\n            /* \"--CODEGEN--\":2:4   */\n          iszero\n          tag_29\n          jumpi\n            /* \"--CODEGEN--\":29:30   */\n          0x00\n            /* \"--CODEGEN--\":26:27   */\n          dup1\n            /* \"--CODEGEN--\":19:31   */\n          revert\n            /* \"--CODEGEN--\":2:4   */\n        tag_29:\n            /* \"openzeppelin/ERC20.sol\":2580:2729  function approve(address spender, uint256 amount) public returns (bool) {... */\n          dup2\n          add\n          swap1\n          dup1\n          dup1\n          calldataload\n          0xffffffffffffffffffffffffffffffffffffffff\n          and\n          swap1\n          0x20\n          add\n          swap1\n          swap3\n          swap2\n          swap1\n          dup1\n          calldataload\n          swap1\n          0x20\n          add\n          swap1\n          swap3\n          swap2\n          swap1\n          pop\n          pop\n          pop\n          tag_30\n          jump\t// in\n        tag_28:\n          mload(0x40)\n          dup1\n          dup3\n          iszero\n          iszero\n          iszero\n          iszero\n          dup2\n          mstore\n          0x20\n          add\n          swap2\n          pop\n          pop\n          mload(0x40)\n          dup1\n          swap2\n          sub\n          swap1\n          return\n            /* \"openzeppelin/ERC20.sol\":1639:1728  function totalSupply() public view returns (uint256) {... */\n        tag_5:\n          tag_31\n          tag_32\n          jump\t// in\n        tag_31:\n          mload(0x40)\n          dup1\n          dup3\n          dup2\n          mstore\n          0x20\n          add\n          swap2\n          pop\n          pop\n          mload(0x40)\n          dup1\n          swap2\n          sub\n          swap1\n          return\n            /* \"openzeppelin/ERC20.sol\":3187:3487  function transferFrom(address sender, address recipient, uint256 amount) public returns (bool) {... */\n        tag_6:\n          tag_33\n          0x04\n          dup1\n          calldatasize\n          sub\n            /* \"--CODEGEN--\":13:15   */\n          0x60\n            /* \"--CODEGEN--\":8:11   */\n          dup2\n            /* \"--CODEGEN--\":5:16   */\n          lt\n            /* \"--CODEGEN--\":2:4   */\n          iszero\n          tag_34\n          jumpi\n            /* \"--CODEGEN--\":29:30   */\n          0x00\n            /* \"--CODEGEN--\":26:27   */\n          dup1\n            /* \"--CODEGEN--\":19:31   */\n          revert\n            /* \"--CODEGEN--\":2:4   */\n        tag_34:\n            /* \"openzeppelin/ERC20.sol\":3187:3487  function transferFrom(address sender, address recipient, uint256 amount) public returns (bool) {... */\n          dup2\n          add\n          swap1\n          dup1\n          dup1\n          calldataload\n          0xffffffffffffffffffffffffffffffffffffffff\n          and\n          swap1\n          0x20\n          add\n          swap1\n          swap3\n          swap2\n          swap1\n          dup1\n          calldataload\n          0xffffffffffffffffffffffffffffffffffffffff\n          and\n          swap1\n          0x20\n          add\n          swap1\n          swap3\n          swap2\n          swap1\n          dup1\n          calldataload\n          swap1\n          0x20\n          add\n          swap1\n          swap3\n          swap2\n          swap1\n          pop\n          pop\n          pop\n          tag_35\n          jump\t// in\n        tag_33:\n          mload(0x40)\n          dup1\n          dup3\n          iszero\n          iszero\n          iszero\n          iszero\n          dup2\n          mstore\n          0x20\n          add\n          swap2\n          pop\n          pop\n          mload(0x40)\n          dup1\n          swap2\n          sub\n          swap1\n          return\n            /* \"openzeppelin/ERC20Detailed.sol\":1568:1649  function decimals() public view returns (uint8) {... */\n        tag_7:\n          tag_36\n          tag_37\n          jump\t// in\n        tag_36:\n          mload(0x40)\n          dup1\n          dup3\n          0xff\n          and\n          0xff\n          and\n          dup2\n          mstore\n          0x20\n          add\n          swap2\n          pop\n          pop\n          mload(0x40)\n          dup1\n          swap2\n          sub\n          swap1\n          return\n            /* \"openzeppelin/ERC20.sol\":3882:4089  function increaseAllowance(address spender, uint256 addedValue) public returns (bool) {... */\n        tag_8:\n          tag_38\n          0x04\n          dup1\n          calldatasize\n          sub\n            /* \"--CODEGEN--\":13:15   */\n          0x40\n            /* \"--CODEGEN--\":8:11   */\n          dup2\n            /* \"--CODEGEN--\":5:16   */\n          lt\n            /* \"--CODEGEN--\":2:4   */\n          iszero\n          tag_39\n          jumpi\n            /* \"--CODEGEN--\":29:30   */\n          0x00\n            /* \"--CODEGEN--\":26:27   */\n          dup1\n            /* \"--CODEGEN--\":19:31   */\n          revert\n            /* \"--CODEGEN--\":2:4   */\n        tag_39:\n            /* \"openzeppelin/ERC20.sol\":3882:4089  function increaseAllowance(address spender, uint256 addedValue) public returns (bool) {... */\n          dup2\n          add\n          swap1\n          dup1\n          dup1\n          calldataload\n          0xffffffffffffffffffffffffffffffffffffffff\n          and\n          swap1\n          0x20\n          add\n          swap1\n          swap3\n          swap2\n          swap1\n          dup1\n          calldataload\n          swap1\n          0x20\n          add\n          swap1\n          swap3\n          swap2\n          swap1\n          pop\n          pop\n          pop\n          tag_40\n          jump\t// in\n        tag_38:\n          mload(0x40)\n          dup1\n          dup3\n          iszero\n          iszero\n          iszero\n          iszero\n          dup2\n          mstore\n          0x20\n          add\n          swap2\n          pop\n          pop\n          mload(0x40)\n          dup1\n          swap2\n          sub\n          swap1\n          return\n            /* \"UCMToken.sol\":332:435  function mint(address account, uint amount) external onlyMinter {... */\n        tag_9:\n          tag_41\n          0x04\n          dup1\n          calldatasize\n          sub\n            /* \"--CODEGEN--\":13:15   */\n          0x40\n            /* \"--CODEGEN--\":8:11   */\n          dup2\n            /* \"--CODEGEN--\":5:16   */\n          lt\n            /* \"--CODEGEN--\":2:4   */\n          iszero\n          tag_42\n          jumpi\n            /* \"--CODEGEN--\":29:30   */\n          0x00\n            /* \"--CODEGEN--\":26:27   */\n          dup1\n            /* \"--CODEGEN--\":19:31   */\n          revert\n            /* \"--CODEGEN--\":2:4   */\n        tag_42:\n            /* \"UCMToken.sol\":332:435  function mint(address account, uint amount) external onlyMinter {... */\n          dup2\n          add\n          swap1\n          dup1\n          dup1\n          calldataload\n          0xffffffffffffffffffffffffffffffffffffffff\n          and\n          swap1\n          0x20\n          add\n          swap1\n          swap3\n          swap2\n          swap1\n          dup1\n          calldataload\n          swap1\n          0x20\n          add\n          swap1\n          swap3\n          swap2\n          swap1\n          pop\n          pop\n          pop\n          tag_43\n          jump\t// in\n        tag_41:\n          stop\n            /* \"openzeppelin/ERC20.sol\":1786:1894  function balanceOf(address account) public view returns (uint256) {... */\n        tag_10:\n          tag_44\n          0x04\n          dup1\n          calldatasize\n          sub\n            /* \"--CODEGEN--\":13:15   */\n          0x20\n            /* \"--CODEGEN--\":8:11   */\n          dup2\n            /* \"--CODEGEN--\":5:16   */\n          lt\n            /* \"--CODEGEN--\":2:4   */\n          iszero\n          tag_45\n          jumpi\n            /* \"--CODEGEN--\":29:30   */\n          0x00\n            /* \"--CODEGEN--\":26:27   */\n          dup1\n            /* \"--CODEGEN--\":19:31   */\n          revert\n            /* \"--CODEGEN--\":2:4   */\n        tag_45:\n            /* \"openzeppelin/ERC20.sol\":1786:1894  function balanceOf(address account) public view returns (uint256) {... */\n          dup2\n          add\n          swap1\n          dup1\n          dup1\n          calldataload\n          0xffffffffffffffffffffffffffffffffffffffff\n          and\n          swap1\n          0x20\n          add\n          swap1\n          swap3\n          swap2\n          swap1\n          pop\n          pop\n          pop\n          tag_46\n          jump\t// in\n        tag_44:\n          mload(0x40)\n          dup1\n          dup3\n          dup2\n          mstore\n          0x20\n          add\n          swap2\n          pop\n          pop\n          mload(0x40)\n          dup1\n          swap2\n          sub\n          swap1\n          return\n            /* \"openzeppelin/ERC20Detailed.sol\":934:1019  function symbol() public view returns (string memory) {... */\n        tag_11:\n          tag_47\n          tag_48\n          jump\t// in\n        tag_47:\n          mload(0x40)\n          dup1\n          dup1\n          0x20\n          add\n          dup3\n          dup2\n          sub\n          dup3\n          mstore\n          dup4\n          dup2\n          dup2\n          mload\n          dup2\n          mstore\n          0x20\n          add\n          swap2\n          pop\n          dup1\n          mload\n          swap1\n          0x20\n          add\n          swap1\n          dup1\n          dup4\n          dup4\n            /* \"--CODEGEN--\":23:24   */\n          0x00\n            /* \"--CODEGEN--\":8:108   */\n        tag_49:\n            /* \"--CODEGEN--\":33:36   */\n          dup4\n            /* \"--CODEGEN--\":30:31   */\n          dup2\n            /* \"--CODEGEN--\":27:37   */\n          lt\n            /* \"--CODEGEN--\":8:108   */\n          iszero\n          tag_51\n          jumpi\n            /* \"--CODEGEN--\":99:100   */\n          dup1\n            /* \"--CODEGEN--\":94:97   */\n          dup3\n            /* \"--CODEGEN--\":90:101   */\n          add\n            /* \"--CODEGEN--\":84:102   */\n          mload\n            /* \"--CODEGEN--\":80:81   */\n          dup2\n            /* \"--CODEGEN--\":75:78   */\n          dup5\n            /* \"--CODEGEN--\":71:82   */\n          add\n            /* \"--CODEGEN--\":64:103   */\n          mstore\n            /* \"--CODEGEN--\":52:54   */\n          0x20\n            /* \"--CODEGEN--\":49:50   */\n          dup2\n            /* \"--CODEGEN--\":45:55   */\n          add\n            /* \"--CODEGEN--\":40:55   */\n          swap1\n          pop\n            /* \"--CODEGEN--\":8:108   */\n          jump(tag_49)\n        tag_51:\n            /* \"--CODEGEN--\":12:26   */\n          pop\n            /* \"openzeppelin/ERC20Detailed.sol\":934:1019  function symbol() public view returns (string memory) {... */\n          pop\n          pop\n          pop\n          swap1\n          pop\n          swap1\n          dup2\n          add\n          swap1\n          0x1f\n          and\n          dup1\n          iszero\n          tag_52\n          jumpi\n          dup1\n          dup3\n          sub\n          dup1\n          mload\n          0x01\n          dup4\n          0x20\n          sub\n          0x0100\n          exp\n          sub\n          not\n          and\n          dup2\n          mstore\n          0x20\n          add\n          swap2\n          pop\n        tag_52:\n          pop\n          swap3\n          pop\n          pop\n          pop\n          mload(0x40)\n          dup1\n          swap2\n          sub\n          swap1\n          return\n            /* \"openzeppelin/roles/MinterRole.sol\":697:787  function addMinter(address account) public onlyMinter {... */\n        tag_12:\n          tag_53\n          0x04\n          dup1\n          calldatasize\n          sub\n            /* \"--CODEGEN--\":13:15   */\n          0x20\n            /* \"--CODEGEN--\":8:11   */\n          dup2\n            /* \"--CODEGEN--\":5:16   */\n          lt\n            /* \"--CODEGEN--\":2:4   */\n          iszero\n          tag_54\n          jumpi\n            /* \"--CODEGEN--\":29:30   */\n          0x00\n            /* \"--CODEGEN--\":26:27   */\n          dup1\n            /* \"--CODEGEN--\":19:31   */\n          revert\n            /* \"--CODEGEN--\":2:4   */\n        tag_54:\n            /* \"openzeppelin/roles/MinterRole.sol\":697:787  function addMinter(address account) public onlyMinter {... */\n          dup2\n          add\n          swap1\n          dup1\n          dup1\n          calldataload\n          0xffffffffffffffffffffffffffffffffffffffff\n          and\n          swap1\n          0x20\n          add\n          swap1\n          swap3\n          swap2\n          swap1\n          pop\n          pop\n          pop\n          tag_55\n          jump\t// in\n        tag_53:\n          stop\n            /* \"openzeppelin/roles/MinterRole.sol\":793:870  function renounceMinter() public {... */\n        tag_13:\n          tag_56\n          tag_57\n          jump\t// in\n        tag_56:\n          stop\n            /* \"UCMToken.sol\":441:544  function burn(address account, uint amount) external onlyMinter {... */\n        tag_14:\n          tag_58\n          0x04\n          dup1\n          calldatasize\n          sub\n            /* \"--CODEGEN--\":13:15   */\n          0x40\n            /* \"--CODEGEN--\":8:11   */\n          dup2\n            /* \"--CODEGEN--\":5:16   */\n          lt\n            /* \"--CODEGEN--\":2:4   */\n          iszero\n          tag_59\n          jumpi\n            /* \"--CODEGEN--\":29:30   */\n          0x00\n            /* \"--CODEGEN--\":26:27   */\n          dup1\n            /* \"--CODEGEN--\":19:31   */\n          revert\n            /* \"--CODEGEN--\":2:4   */\n        tag_59:\n            /* \"UCMToken.sol\":441:544  function burn(address account, uint amount) external onlyMinter {... */\n          dup2\n          add\n          swap1\n          dup1\n          dup1\n          calldataload\n          0xffffffffffffffffffffffffffffffffffffffff\n          and\n          swap1\n          0x20\n          add\n          swap1\n          swap3\n          swap2\n          swap1\n          dup1\n          calldataload\n          swap1\n          0x20\n          add\n          swap1\n          swap3\n          swap2\n          swap1\n          pop\n          pop\n          pop\n          tag_60\n          jump\t// in\n        tag_58:\n          stop\n            /* \"openzeppelin/ERC20.sol\":4576:4834  function decreaseAllowance(address spender, uint256 subtractedValue) public returns (bool) {... */\n        tag_15:\n          tag_61\n          0x04\n          dup1\n          calldatasize\n          sub\n            /* \"--CODEGEN--\":13:15   */\n          0x40\n            /* \"--CODEGEN--\":8:11   */\n          dup2\n            /* \"--CODEGEN--\":5:16   */\n          lt\n            /* \"--CODEGEN--\":2:4   */\n          iszero\n          tag_62\n          jumpi\n            /* \"--CODEGEN--\":29:30   */\n          0x00\n            /* \"--CODEGEN--\":26:27   */\n          dup1\n            /* \"--CODEGEN--\":19:31   */\n          revert\n            /* \"--CODEGEN--\":2:4   */\n        tag_62:\n            /* \"openzeppelin/ERC20.sol\":4576:4834  function decreaseAllowance(address spender, uint256 subtractedValue) public returns (bool) {... */\n          dup2\n          add\n          swap1\n          dup1\n          dup1\n          calldataload\n          0xffffffffffffffffffffffffffffffffffffffff\n          and\n          swap1\n          0x20\n          add\n          swap1\n          swap3\n          swap2\n          swap1\n          dup1\n          calldataload\n          swap1\n          0x20\n          add\n          swap1\n          swap3\n          swap2\n          swap1\n          pop\n          pop\n          pop\n          tag_63\n          jump\t// in\n        tag_61:\n          mload(0x40)\n          dup1\n          dup3\n          iszero\n          iszero\n          iszero\n          iszero\n          dup2\n          mstore\n          0x20\n          add\n          swap2\n          pop\n          pop\n          mload(0x40)\n          dup1\n          swap2\n          sub\n          swap1\n          return\n            /* \"openzeppelin/ERC20.sol\":2097:2252  function transfer(address recipient, uint256 amount) public returns (bool) {... */\n        tag_16:\n          tag_64\n          0x04\n          dup1\n          calldatasize\n          sub\n            /* \"--CODEGEN--\":13:15   */\n          0x40\n            /* \"--CODEGEN--\":8:11   */\n          dup2\n            /* \"--CODEGEN--\":5:16   */\n          lt\n            /* \"--CODEGEN--\":2:4   */\n          iszero\n          tag_65\n          jumpi\n            /* \"--CODEGEN--\":29:30   */\n          0x00\n            /* \"--CODEGEN--\":26:27   */\n          dup1\n            /* \"--CODEGEN--\":19:31   */\n          revert\n            /* \"--CODEGEN--\":2:4   */\n        tag_65:\n            /* \"openzeppelin/ERC20.sol\":2097:2252  function transfer(address recipient, uint256 amount) public returns (bool) {... */\n          dup2\n          add\n          swap1\n          dup1\n          dup1\n          calldataload\n          0xffffffffffffffffffffffffffffffffffffffff\n          and\n          swap1\n          0x20\n          add\n          swap1\n          swap3\n          swap2\n          swap1\n          dup1\n          calldataload\n          swap1\n          0x20\n          add\n          swap1\n          swap3\n          swap2\n          swap1\n          pop\n          pop\n          pop\n          tag_66\n          jump\t// in\n        tag_64:\n          mload(0x40)\n          dup1\n          dup3\n          iszero\n          iszero\n          iszero\n          iszero\n          dup2\n          mstore\n          0x20\n          add\n          swap2\n          pop\n          pop\n          mload(0x40)\n          dup1\n          swap2\n          sub\n          swap1\n          return\n            /* \"openzeppelin/roles/MinterRole.sol\":584:691  function isMinter(address account) public view returns (bool) {... */\n        tag_17:\n          tag_67\n          0x04\n          dup1\n          calldatasize\n          sub\n            /* \"--CODEGEN--\":13:15   */\n          0x20\n            /* \"--CODEGEN--\":8:11   */\n          dup2\n            /* \"--CODEGEN--\":5:16   */\n          lt\n            /* \"--CODEGEN--\":2:4   */\n          iszero\n          tag_68\n          jumpi\n            /* \"--CODEGEN--\":29:30   */\n          0x00\n            /* \"--CODEGEN--\":26:27   */\n          dup1\n            /* \"--CODEGEN--\":19:31   */\n          revert\n            /* \"--CODEGEN--\":2:4   */\n        tag_68:\n            /* \"openzeppelin/roles/MinterRole.sol\":584:691  function isMinter(address account) public view returns (bool) {... */\n          dup2\n          add\n          swap1\n          dup1\n          dup1\n          calldataload\n          0xffffffffffffffffffffffffffffffffffffffff\n          and\n          swap1\n          0x20\n          add\n          swap1\n          swap3\n          swap2\n          swap1\n          pop\n          pop\n          pop\n          tag_69\n          jump\t// in\n        tag_67:\n          mload(0x40)\n          dup1\n          dup3\n          iszero\n          iszero\n          iszero\n          iszero\n          dup2\n          mstore\n          0x20\n          add\n          swap2\n          pop\n          pop\n          mload(0x40)\n          dup1\n          swap2\n          sub\n          swap1\n          return\n            /* \"openzeppelin/ERC20.sol\":2310:2442  function allowance(address owner, address spender) public view returns (uint256) {... */\n        tag_18:\n          tag_70\n          0x04\n          dup1\n          calldatasize\n          sub\n            /* \"--CODEGEN--\":13:15   */\n          0x40\n            /* \"--CODEGEN--\":8:11   */\n          dup2\n            /* \"--CODEGEN--\":5:16   */\n          lt\n            /* \"--CODEGEN--\":2:4   */\n          iszero\n          tag_71\n          jumpi\n            /* \"--CODEGEN--\":29:30   */\n          0x00\n            /* \"--CODEGEN--\":26:27   */\n          dup1\n            /* \"--CODEGEN--\":19:31   */\n          revert\n            /* \"--CODEGEN--\":2:4   */\n        tag_71:\n            /* \"openzeppelin/ERC20.sol\":2310:2442  function allowance(address owner, address spender) public view returns (uint256) {... */\n          dup2\n          add\n          swap1\n          dup1\n          dup1\n          calldataload\n          0xffffffffffffffffffffffffffffffffffffffff\n          and\n          swap1\n          0x20\n          add\n          swap1\n          swap3\n          swap2\n          swap1\n          dup1\n          calldataload\n          0xffffffffffffffffffffffffffffffffffffffff\n          and\n          swap1\n          0x20\n          add\n          swap1\n          swap3\n          swap2\n          swap1\n          pop\n          pop\n          pop\n          tag_72\n          jump\t// in\n        tag_70:\n          mload(0x40)\n          dup1\n          dup3\n          dup2\n          mstore\n          0x20\n          add\n          swap2\n          pop\n          pop\n          mload(0x40)\n          dup1\n          swap2\n          sub\n          swap1\n          return\n            /* \"openzeppelin/ERC20Detailed.sol\":740:821  function name() public view returns (string memory) {... */\n        tag_23:\n            /* \"openzeppelin/ERC20Detailed.sol\":777:790  string memory */\n          0x60\n            /* \"openzeppelin/ERC20Detailed.sol\":809:814  _name */\n          0x03\n            /* \"openzeppelin/ERC20Detailed.sol\":802:814  return _name */\n          dup1\n          sload\n          0x01\n          dup2\n          0x01\n          and\n          iszero\n          0x0100\n          mul\n          sub\n          and\n          0x02\n          swap1\n          div\n          dup1\n          0x1f\n          add\n          0x20\n          dup1\n          swap2\n          div\n          mul\n          0x20\n          add\n          mload(0x40)\n          swap1\n          dup2\n          add\n          0x40\n          mstore\n          dup1\n          swap3\n          swap2\n          swap1\n          dup2\n          dup2\n          mstore\n          0x20\n          add\n          dup3\n          dup1\n          sload\n          0x01\n          dup2\n          0x01\n          and\n          iszero\n          0x0100\n          mul\n          sub\n          and\n          0x02\n          swap1\n          div\n          dup1\n          iszero\n          tag_74\n          jumpi\n          dup1\n          0x1f\n          lt\n          tag_75\n          jumpi\n          0x0100\n          dup1\n          dup4\n          sload\n          div\n          mul\n          dup4\n          mstore\n          swap2\n          0x20\n          add\n          swap2\n          jump(tag_74)\n        tag_75:\n          dup3\n          add\n          swap2\n          swap1\n          0x00\n          mstore\n          keccak256(0x00, 0x20)\n          swap1\n        tag_76:\n          dup2\n          sload\n          dup2\n          mstore\n          swap1\n          0x01\n          add\n          swap1\n          0x20\n          add\n          dup1\n          dup4\n          gt\n          tag_76\n          jumpi\n          dup3\n          swap1\n          sub\n          0x1f\n          and\n          dup3\n          add\n          swap2\n        tag_74:\n          pop\n          pop\n          pop\n          pop\n          pop\n          swap1\n          pop\n            /* \"openzeppelin/ERC20Detailed.sol\":740:821  function name() public view returns (string memory) {... */\n          swap1\n          jump\t// out\n            /* \"openzeppelin/ERC20.sol\":2580:2729  function approve(address spender, uint256 amount) public returns (bool) {... */\n        tag_30:\n            /* \"openzeppelin/ERC20.sol\":2646:2650  bool */\n          0x00\n            /* \"openzeppelin/ERC20.sol\":2662:2701  _approve(_msgSender(), spender, amount) */\n          tag_78\n            /* \"openzeppelin/ERC20.sol\":2671:2683  _msgSender() */\n          tag_79\n            /* \"openzeppelin/ERC20.sol\":2671:2681  _msgSender */\n          tag_80\n            /* \"openzeppelin/ERC20.sol\":2671:2683  _msgSender() */\n          jump\t// in\n        tag_79:\n            /* \"openzeppelin/ERC20.sol\":2685:2692  spender */\n          dup5\n            /* \"openzeppelin/ERC20.sol\":2694:2700  amount */\n          dup5\n            /* \"openzeppelin/ERC20.sol\":2662:2670  _approve */\n          tag_81\n            /* \"openzeppelin/ERC20.sol\":2662:2701  _approve(_msgSender(), spender, amount) */\n          jump\t// in\n        tag_78:\n            /* \"openzeppelin/ERC20.sol\":2718:2722  true */\n          0x01\n            /* \"openzeppelin/ERC20.sol\":2711:2722  return true */\n          swap1\n          pop\n            /* \"openzeppelin/ERC20.sol\":2580:2729  function approve(address spender, uint256 amount) public returns (bool) {... */\n          swap3\n          swap2\n          pop\n          pop\n          jump\t// out\n            /* \"openzeppelin/ERC20.sol\":1639:1728  function totalSupply() public view returns (uint256) {... */\n        tag_32:\n            /* \"openzeppelin/ERC20.sol\":1683:1690  uint256 */\n          0x00\n            /* \"openzeppelin/ERC20.sol\":1709:1721  _totalSupply */\n          sload(0x02)\n            /* \"openzeppelin/ERC20.sol\":1702:1721  return _totalSupply */\n          swap1\n          pop\n            /* \"openzeppelin/ERC20.sol\":1639:1728  function totalSupply() public view returns (uint256) {... */\n          swap1\n          jump\t// out\n            /* \"openzeppelin/ERC20.sol\":3187:3487  function transferFrom(address sender, address recipient, uint256 amount) public returns (bool) {... */\n        tag_35:\n            /* \"openzeppelin/ERC20.sol\":3276:3280  bool */\n          0x00\n            /* \"openzeppelin/ERC20.sol\":3292:3328  _transfer(sender, recipient, amount) */\n          tag_84\n            /* \"openzeppelin/ERC20.sol\":3302:3308  sender */\n          dup5\n            /* \"openzeppelin/ERC20.sol\":3310:3319  recipient */\n          dup5\n            /* \"openzeppelin/ERC20.sol\":3321:3327  amount */\n          dup5\n            /* \"openzeppelin/ERC20.sol\":3292:3301  _transfer */\n          tag_85\n            /* \"openzeppelin/ERC20.sol\":3292:3328  _transfer(sender, recipient, amount) */\n          jump\t// in\n        tag_84:\n            /* \"openzeppelin/ERC20.sol\":3338:3459  _approve(sender, _msgSender(), _allowances[sender][_msgSender()].sub(amount, \"ERC20: transfer amount exceeds allowance\")) */\n          tag_86\n            /* \"openzeppelin/ERC20.sol\":3347:3353  sender */\n          dup5\n            /* \"openzeppelin/ERC20.sol\":3355:3367  _msgSender() */\n          tag_87\n            /* \"openzeppelin/ERC20.sol\":3355:3365  _msgSender */\n          tag_80\n            /* \"openzeppelin/ERC20.sol\":3355:3367  _msgSender() */\n          jump\t// in\n        tag_87:\n            /* \"openzeppelin/ERC20.sol\":3369:3458  _allowances[sender][_msgSender()].sub(amount, \"ERC20: transfer amount exceeds allowance\") */\n          tag_88\n            /* \"openzeppelin/ERC20.sol\":3407:3413  amount */\n          dup6\n            /* \"openzeppelin/ERC20.sol\":3369:3458  _allowances[sender][_msgSender()].sub(amount, \"ERC20: transfer amount exceeds allowance\") */\n          mload(0x40)\n          dup1\n          0x60\n          add\n          0x40\n          mstore\n          dup1\n          0x28\n          dup2\n          mstore\n          0x20\n          add\n          data_974d1b4421da69cc60b481194f0dad36a5bb4e23da810da7a7fb30cdba178330\n          0x28\n          swap2\n          codecopy\n            /* \"openzeppelin/ERC20.sol\":3369:3380  _allowances */\n          0x01\n            /* \"openzeppelin/ERC20.sol\":3369:3388  _allowances[sender] */\n          0x00\n            /* \"openzeppelin/ERC20.sol\":3381:3387  sender */\n          dup12\n            /* \"openzeppelin/ERC20.sol\":3369:3388  _allowances[sender] */\n          0xffffffffffffffffffffffffffffffffffffffff\n          and\n          0xffffffffffffffffffffffffffffffffffffffff\n          and\n          dup2\n          mstore\n          0x20\n          add\n          swap1\n          dup2\n          mstore\n          0x20\n          add\n          0x00\n          keccak256\n            /* \"openzeppelin/ERC20.sol\":3369:3402  _allowances[sender][_msgSender()] */\n          0x00\n            /* \"openzeppelin/ERC20.sol\":3389:3401  _msgSender() */\n          tag_89\n            /* \"openzeppelin/ERC20.sol\":3389:3399  _msgSender */\n          tag_80\n            /* \"openzeppelin/ERC20.sol\":3389:3401  _msgSender() */\n          jump\t// in\n        tag_89:\n            /* \"openzeppelin/ERC20.sol\":3369:3402  _allowances[sender][_msgSender()] */\n          0xffffffffffffffffffffffffffffffffffffffff\n          and\n          0xffffffffffffffffffffffffffffffffffffffff\n          and\n          dup2\n          mstore\n          0x20\n          add\n          swap1\n          dup2\n          mstore\n          0x20\n          add\n          0x00\n          keccak256\n          sload\n            /* \"openzeppelin/ERC20.sol\":3369:3406  _allowances[sender][_msgSender()].sub */\n          tag_90\n          swap1\n            /* \"openzeppelin/ERC20.sol\":3369:3458  _allowances[sender][_msgSender()].sub(amount, \"ERC20: transfer amount exceeds allowance\") */\n          swap3\n          swap2\n          swap1\n          0xffffffff\n          and\n          jump\t// in\n        tag_88:\n            /* \"openzeppelin/ERC20.sol\":3338:3346  _approve */\n          tag_81\n            /* \"openzeppelin/ERC20.sol\":3338:3459  _approve(sender, _msgSender(), _allowances[sender][_msgSender()].sub(amount, \"ERC20: transfer amount exceeds allowance\")) */\n          jump\t// in\n        tag_86:\n            /* \"openzeppelin/ERC20.sol\":3476:3480  true */\n          0x01\n            /* \"openzeppelin/ERC20.sol\":3469:3480  return true */\n          swap1\n          pop\n            /* \"openzeppelin/ERC20.sol\":3187:3487  function transferFrom(address sender, address recipient, uint256 amount) public returns (bool) {... */\n          swap4\n          swap3\n          pop\n          pop\n          pop\n          jump\t// out\n            /* \"openzeppelin/ERC20Detailed.sol\":1568:1649  function decimals() public view returns (uint8) {... */\n        tag_37:\n            /* \"openzeppelin/ERC20Detailed.sol\":1609:1614  uint8 */\n          0x00\n            /* \"openzeppelin/ERC20Detailed.sol\":1633:1642  _decimals */\n          0x05\n          0x00\n          swap1\n          sload\n          swap1\n          0x0100\n          exp\n          swap1\n          div\n          0xff\n          and\n            /* \"openzeppelin/ERC20Detailed.sol\":1626:1642  return _decimals */\n          swap1\n          pop\n            /* \"openzeppelin/ERC20Detailed.sol\":1568:1649  function decimals() public view returns (uint8) {... */\n          swap1\n          jump\t// out\n            /* \"openzeppelin/ERC20.sol\":3882:4089  function increaseAllowance(address spender, uint256 addedValue) public returns (bool) {... */\n        tag_40:\n            /* \"openzeppelin/ERC20.sol\":3962:3966  bool */\n          0x00\n            /* \"openzeppelin/ERC20.sol\":3978:4061  _approve(_msgSender(), spender, _allowances[_msgSender()][spender].add(addedValue)) */\n          tag_93\n            /* \"openzeppelin/ERC20.sol\":3987:3999  _msgSender() */\n          tag_94\n            /* \"openzeppelin/ERC20.sol\":3987:3997  _msgSender */\n          tag_80\n            /* \"openzeppelin/ERC20.sol\":3987:3999  _msgSender() */\n          jump\t// in\n        tag_94:\n            /* \"openzeppelin/ERC20.sol\":4001:4008  spender */\n          dup5\n            /* \"openzeppelin/ERC20.sol\":4010:4060  _allowances[_msgSender()][spender].add(addedValue) */\n          tag_95\n            /* \"openzeppelin/ERC20.sol\":4049:4059  addedValue */\n          dup6\n            /* \"openzeppelin/ERC20.sol\":4010:4021  _allowances */\n          0x01\n            /* \"openzeppelin/ERC20.sol\":4010:4035  _allowances[_msgSender()] */\n          0x00\n            /* \"openzeppelin/ERC20.sol\":4022:4034  _msgSender() */\n          tag_96\n            /* \"openzeppelin/ERC20.sol\":4022:4032  _msgSender */\n          tag_80\n            /* \"openzeppelin/ERC20.sol\":4022:4034  _msgSender() */\n          jump\t// in\n        tag_96:\n            /* \"openzeppelin/ERC20.sol\":4010:4035  _allowances[_msgSender()] */\n          0xffffffffffffffffffffffffffffffffffffffff\n          and\n          0xffffffffffffffffffffffffffffffffffffffff\n          and\n          dup2\n          mstore\n          0x20\n          add\n          swap1\n          dup2\n          mstore\n          0x20\n          add\n          0x00\n          keccak256\n            /* \"openzeppelin/ERC20.sol\":4010:4044  _allowances[_msgSender()][spender] */\n          0x00\n            /* \"openzeppelin/ERC20.sol\":4036:4043  spender */\n          dup10\n            /* \"openzeppelin/ERC20.sol\":4010:4044  _allowances[_msgSender()][spender] */\n          0xffffffffffffffffffffffffffffffffffffffff\n          and\n          0xffffffffffffffffffffffffffffffffffffffff\n          and\n          dup2\n          mstore\n          0x20\n          add\n          swap1\n          dup2\n          mstore\n          0x20\n          add\n          0x00\n          keccak256\n          sload\n            /* \"openzeppelin/ERC20.sol\":4010:4048  _allowances[_msgSender()][spender].add */\n          tag_97\n          swap1\n            /* \"openzeppelin/ERC20.sol\":4010:4060  _allowances[_msgSender()][spender].add(addedValue) */\n          swap2\n          swap1\n          0xffffffff\n          and\n          jump\t// in\n        tag_95:\n            /* \"openzeppelin/ERC20.sol\":3978:3986  _approve */\n          tag_81\n            /* \"openzeppelin/ERC20.sol\":3978:4061  _approve(_msgSender(), spender, _allowances[_msgSender()][spender].add(addedValue)) */\n          jump\t// in\n        tag_93:\n            /* \"openzeppelin/ERC20.sol\":4078:4082  true */\n          0x01\n            /* \"openzeppelin/ERC20.sol\":4071:4082  return true */\n          swap1\n          pop\n            /* \"openzeppelin/ERC20.sol\":3882:4089  function increaseAllowance(address spender, uint256 addedValue) public returns (bool) {... */\n          swap3\n          swap2\n          pop\n          pop\n          jump\t// out\n            /* \"UCMToken.sol\":332:435  function mint(address account, uint amount) external onlyMinter {... */\n        tag_43:\n            /* \"openzeppelin/roles/MinterRole.sol\":485:507  isMinter(_msgSender()) */\n          tag_99\n            /* \"openzeppelin/roles/MinterRole.sol\":494:506  _msgSender() */\n          tag_100\n            /* \"openzeppelin/roles/MinterRole.sol\":494:504  _msgSender */\n          tag_80\n            /* \"openzeppelin/roles/MinterRole.sol\":494:506  _msgSender() */\n          jump\t// in\n        tag_100:\n            /* \"openzeppelin/roles/MinterRole.sol\":485:493  isMinter */\n          tag_69\n            /* \"openzeppelin/roles/MinterRole.sol\":485:507  isMinter(_msgSender()) */\n          jump\t// in\n        tag_99:\n            /* \"openzeppelin/roles/MinterRole.sol\":477:560  require(isMinter(_msgSender()), \"MinterRole: caller does not have the Minter role\") */\n          tag_101\n          jumpi\n          mload(0x40)\n          0x08c379a000000000000000000000000000000000000000000000000000000000\n          dup2\n          mstore\n          0x04\n          add\n          dup1\n          dup1\n          0x20\n          add\n          dup3\n          dup2\n          sub\n          dup3\n          mstore\n          0x30\n          dup2\n          mstore\n          0x20\n          add\n          dup1\n          data_79ecb50133735b20228dea9d08fe36a462bbc1350f591a146908848db91104cd\n          0x30\n          swap2\n          codecopy\n          0x40\n          add\n          swap2\n          pop\n          pop\n          mload(0x40)\n          dup1\n          swap2\n          sub\n          swap1\n          revert\n        tag_101:\n            /* \"UCMToken.sol\":406:428  _mint(account, amount) */\n          tag_103\n            /* \"UCMToken.sol\":412:419  account */\n          dup3\n            /* \"UCMToken.sol\":421:427  amount */\n          dup3\n            /* \"UCMToken.sol\":406:411  _mint */\n          tag_104\n            /* \"UCMToken.sol\":406:428  _mint(account, amount) */\n          jump\t// in\n        tag_103:\n            /* \"UCMToken.sol\":332:435  function mint(address account, uint amount) external onlyMinter {... */\n          pop\n          pop\n          jump\t// out\n            /* \"openzeppelin/ERC20.sol\":1786:1894  function balanceOf(address account) public view returns (uint256) {... */\n        tag_46:\n            /* \"openzeppelin/ERC20.sol\":1843:1850  uint256 */\n          0x00\n            /* \"openzeppelin/ERC20.sol\":1869:1878  _balances */\n          dup1\n            /* \"openzeppelin/ERC20.sol\":1869:1887  _balances[account] */\n          0x00\n            /* \"openzeppelin/ERC20.sol\":1879:1886  account */\n          dup4\n            /* \"openzeppelin/ERC20.sol\":1869:1887  _balances[account] */\n          0xffffffffffffffffffffffffffffffffffffffff\n          and\n          0xffffffffffffffffffffffffffffffffffffffff\n          and\n          dup2\n          mstore\n          0x20\n          add\n          swap1\n          dup2\n          mstore\n          0x20\n          add\n          0x00\n          keccak256\n          sload\n            /* \"openzeppelin/ERC20.sol\":1862:1887  return _balances[account] */\n          swap1\n          pop\n            /* \"openzeppelin/ERC20.sol\":1786:1894  function balanceOf(address account) public view returns (uint256) {... */\n          swap2\n          swap1\n          pop\n          jump\t// out\n            /* \"openzeppelin/ERC20Detailed.sol\":934:1019  function symbol() public view returns (string memory) {... */\n        tag_48:\n            /* \"openzeppelin/ERC20Detailed.sol\":973:986  string memory */\n          0x60\n            /* \"openzeppelin/ERC20Detailed.sol\":1005:1012  _symbol */\n          0x04\n            /* \"openzeppelin/ERC20Detailed.sol\":998:1012  return _symbol */\n          dup1\n          sload\n          0x01\n          dup2\n          0x01\n          and\n          iszero\n          0x0100\n          mul\n          sub\n          and\n          0x02\n          swap1\n          div\n          dup1\n          0x1f\n          add\n          0x20\n          dup1\n          swap2\n          div\n          mul\n          0x20\n          add\n          mload(0x40)\n          swap1\n          dup2\n          add\n          0x40\n          mstore\n          dup1\n          swap3\n          swap2\n          swap1\n          dup2\n          dup2\n          mstore\n          0x20\n          add\n          dup3\n          dup1\n          sload\n          0x01\n          dup2\n          0x01\n          and\n          iszero\n          0x0100\n          mul\n          sub\n          and\n          0x02\n          swap1\n          div\n          dup1\n          iszero\n          tag_107\n          jumpi\n          dup1\n          0x1f\n          lt\n          tag_108\n          jumpi\n          0x0100\n          dup1\n          dup4\n          sload\n          div\n          mul\n          dup4\n          mstore\n          swap2\n          0x20\n          add\n          swap2\n          jump(tag_107)\n        tag_108:\n          dup3\n          add\n          swap2\n          swap1\n          0x00\n          mstore\n          keccak256(0x00, 0x20)\n          swap1\n        tag_109:\n          dup2\n          sload\n          dup2\n          mstore\n          swap1\n          0x01\n          add\n          swap1\n          0x20\n          add\n          dup1\n          dup4\n          gt\n          tag_109\n          jumpi\n          dup3\n          swap1\n          sub\n          0x1f\n          and\n          dup3\n          add\n          swap2\n        tag_107:\n          pop\n          pop\n          pop\n          pop\n          pop\n          swap1\n          pop\n            /* \"openzeppelin/ERC20Detailed.sol\":934:1019  function symbol() public view returns (string memory) {... */\n          swap1\n          jump\t// out\n            /* \"openzeppelin/roles/MinterRole.sol\":697:787  function addMinter(address account) public onlyMinter {... */\n        tag_55:\n            /* \"openzeppelin/roles/MinterRole.sol\":485:507  isMinter(_msgSender()) */\n          tag_111\n            /* \"openzeppelin/roles/MinterRole.sol\":494:506  _msgSender() */\n          tag_112\n            /* \"openzeppelin/roles/MinterRole.sol\":494:504  _msgSender */\n          tag_80\n            /* \"openzeppelin/roles/MinterRole.sol\":494:506  _msgSender() */\n          jump\t// in\n        tag_112:\n            /* \"openzeppelin/roles/MinterRole.sol\":485:493  isMinter */\n          tag_69\n            /* \"openzeppelin/roles/MinterRole.sol\":485:507  isMinter(_msgSender()) */\n          jump\t// in\n        tag_111:\n            /* \"openzeppelin/roles/MinterRole.sol\":477:560  require(isMinter(_msgSender()), \"MinterRole: caller does not have the Minter role\") */\n          tag_113\n          jumpi\n          mload(0x40)\n          0x08c379a000000000000000000000000000000000000000000000000000000000\n          dup2\n          mstore\n          0x04\n          add\n          dup1\n          dup1\n          0x20\n          add\n          dup3\n          dup2\n          sub\n          dup3\n          mstore\n          0x30\n          dup2\n          mstore\n          0x20\n          add\n          dup1\n          data_79ecb50133735b20228dea9d08fe36a462bbc1350f591a146908848db91104cd\n          0x30\n          swap2\n          codecopy\n          0x40\n          add\n          swap2\n          pop\n          pop\n          mload(0x40)\n          dup1\n          swap2\n          sub\n          swap1\n          revert\n        tag_113:\n            /* \"openzeppelin/roles/MinterRole.sol\":761:780  _addMinter(account) */\n          tag_115\n            /* \"openzeppelin/roles/MinterRole.sol\":772:779  account */\n          dup2\n            /* \"openzeppelin/roles/MinterRole.sol\":761:771  _addMinter */\n          tag_116\n            /* \"openzeppelin/roles/MinterRole.sol\":761:780  _addMinter(account) */\n          jump\t// in\n        tag_115:\n            /* \"openzeppelin/roles/MinterRole.sol\":697:787  function addMinter(address account) public onlyMinter {... */\n          pop\n          jump\t// out\n            /* \"openzeppelin/roles/MinterRole.sol\":793:870  function renounceMinter() public {... */\n        tag_57:\n            /* \"openzeppelin/roles/MinterRole.sol\":836:863  _removeMinter(_msgSender()) */\n          tag_118\n            /* \"openzeppelin/roles/MinterRole.sol\":850:862  _msgSender() */\n          tag_119\n            /* \"openzeppelin/roles/MinterRole.sol\":850:860  _msgSender */\n          tag_80\n            /* \"openzeppelin/roles/MinterRole.sol\":850:862  _msgSender() */\n          jump\t// in\n        tag_119:\n            /* \"openzeppelin/roles/MinterRole.sol\":836:849  _removeMinter */\n          tag_120\n            /* \"openzeppelin/roles/MinterRole.sol\":836:863  _removeMinter(_msgSender()) */\n          jump\t// in\n        tag_118:\n            /* \"openzeppelin/roles/MinterRole.sol\":793:870  function renounceMinter() public {... */\n          jump\t// out\n            /* \"UCMToken.sol\":441:544  function burn(address account, uint amount) external onlyMinter {... */\n        tag_60:\n            /* \"openzeppelin/roles/MinterRole.sol\":485:507  isMinter(_msgSender()) */\n          tag_122\n            /* \"openzeppelin/roles/MinterRole.sol\":494:506  _msgSender() */\n          tag_123\n            /* \"openzeppelin/roles/MinterRole.sol\":494:504  _msgSender */\n          tag_80\n            /* \"openzeppelin/roles/MinterRole.sol\":494:506  _msgSender() */\n          jump\t// in\n        tag_123:\n            /* \"openzeppelin/roles/MinterRole.sol\":485:493  isMinter */\n          tag_69\n            /* \"openzeppelin/roles/MinterRole.sol\":485:507  isMinter(_msgSender()) */\n          jump\t// in\n        tag_122:\n            /* \"openzeppelin/roles/MinterRole.sol\":477:560  require(isMinter(_msgSender()), \"MinterRole: caller does not have the Minter role\") */\n          tag_124\n          jumpi\n          mload(0x40)\n          0x08c379a000000000000000000000000000000000000000000000000000000000\n          dup2\n          mstore\n          0x04\n          add\n          dup1\n          dup1\n          0x20\n          add\n          dup3\n          dup2\n          sub\n          dup3\n          mstore\n          0x30\n          dup2\n          mstore\n          0x20\n          add\n          dup1\n          data_79ecb50133735b20228dea9d08fe36a462bbc1350f591a146908848db91104cd\n          0x30\n          swap2\n          codecopy\n          0x40\n          add\n          swap2\n          pop\n          pop\n          mload(0x40)\n          dup1\n          swap2\n          sub\n          swap1\n          revert\n        tag_124:\n            /* \"UCMToken.sol\":515:537  _burn(account, amount) */\n          tag_126\n            /* \"UCMToken.sol\":521:528  account */\n          dup3\n            /* \"UCMToken.sol\":530:536  amount */\n          dup3\n            /* \"UCMToken.sol\":515:520  _burn */\n          tag_127\n            /* \"UCMToken.sol\":515:537  _burn(account, amount) */\n          jump\t// in\n        tag_126:\n            /* \"UCMToken.sol\":441:544  function burn(address account, uint amount) external onlyMinter {... */\n          pop\n          pop\n          jump\t// out\n            /* \"openzeppelin/ERC20.sol\":4576:4834  function decreaseAllowance(address spender, uint256 subtractedValue) public returns (bool) {... */\n        tag_63:\n            /* \"openzeppelin/ERC20.sol\":4661:4665  bool */\n          0x00\n            /* \"openzeppelin/ERC20.sol\":4677:4806  _approve(_msgSender(), spender, _allowances[_msgSender()][spender].sub(subtractedValue, \"ERC20: decreased allowance below zero\")) */\n          tag_129\n            /* \"openzeppelin/ERC20.sol\":4686:4698  _msgSender() */\n          tag_130\n            /* \"openzeppelin/ERC20.sol\":4686:4696  _msgSender */\n          tag_80\n            /* \"openzeppelin/ERC20.sol\":4686:4698  _msgSender() */\n          jump\t// in\n        tag_130:\n            /* \"openzeppelin/ERC20.sol\":4700:4707  spender */\n          dup5\n            /* \"openzeppelin/ERC20.sol\":4709:4805  _allowances[_msgSender()][spender].sub(subtractedValue, \"ERC20: decreased allowance below zero\") */\n          tag_131\n            /* \"openzeppelin/ERC20.sol\":4748:4763  subtractedValue */\n          dup6\n            /* \"openzeppelin/ERC20.sol\":4709:4805  _allowances[_msgSender()][spender].sub(subtractedValue, \"ERC20: decreased allowance below zero\") */\n          mload(0x40)\n          dup1\n          0x60\n          add\n          0x40\n          mstore\n          dup1\n          0x25\n          dup2\n          mstore\n          0x20\n          add\n          data_f8b476f7d28209d77d4a4ac1fe36b9f8259aa1bb6bddfa6e89de7e51615cf8a8\n          0x25\n          swap2\n          codecopy\n            /* \"openzeppelin/ERC20.sol\":4709:4720  _allowances */\n          0x01\n            /* \"openzeppelin/ERC20.sol\":4709:4734  _allowances[_msgSender()] */\n          0x00\n            /* \"openzeppelin/ERC20.sol\":4721:4733  _msgSender() */\n          tag_132\n            /* \"openzeppelin/ERC20.sol\":4721:4731  _msgSender */\n          tag_80\n            /* \"openzeppelin/ERC20.sol\":4721:4733  _msgSender() */\n          jump\t// in\n        tag_132:\n            /* \"openzeppelin/ERC20.sol\":4709:4734  _allowances[_msgSender()] */\n          0xffffffffffffffffffffffffffffffffffffffff\n          and\n          0xffffffffffffffffffffffffffffffffffffffff\n          and\n          dup2\n          mstore\n          0x20\n          add\n          swap1\n          dup2\n          mstore\n          0x20\n          add\n          0x00\n          keccak256\n            /* \"openzeppelin/ERC20.sol\":4709:4743  _allowances[_msgSender()][spender] */\n          0x00\n            /* \"openzeppelin/ERC20.sol\":4735:4742  spender */\n          dup11\n            /* \"openzeppelin/ERC20.sol\":4709:4743  _allowances[_msgSender()][spender] */\n          0xffffffffffffffffffffffffffffffffffffffff\n          and\n          0xffffffffffffffffffffffffffffffffffffffff\n          and\n          dup2\n          mstore\n          0x20\n          add\n          swap1\n          dup2\n          mstore\n          0x20\n          add\n          0x00\n          keccak256\n          sload\n            /* \"openzeppelin/ERC20.sol\":4709:4747  _allowances[_msgSender()][spender].sub */\n          tag_90\n          swap1\n            /* \"openzeppelin/ERC20.sol\":4709:4805  _allowances[_msgSender()][spender].sub(subtractedValue, \"ERC20: decreased allowance below zero\") */\n          swap3\n          swap2\n          swap1\n          0xffffffff\n          and\n          jump\t// in\n        tag_131:\n            /* \"openzeppelin/ERC20.sol\":4677:4685  _approve */\n          tag_81\n            /* \"openzeppelin/ERC20.sol\":4677:4806  _approve(_msgSender(), spender, _allowances[_msgSender()][spender].sub(subtractedValue, \"ERC20: decreased allowance below zero\")) */\n          jump\t// in\n        tag_129:\n            /* \"openzeppelin/ERC20.sol\":4823:4827  true */\n          0x01\n            /* \"openzeppelin/ERC20.sol\":4816:4827  return true */\n          swap1\n          pop\n            /* \"openzeppelin/ERC20.sol\":4576:4834  function decreaseAllowance(address spender, uint256 subtractedValue) public returns (bool) {... */\n          swap3\n          swap2\n          pop\n          pop\n          jump\t// out\n            /* \"openzeppelin/ERC20.sol\":2097:2252  function transfer(address recipient, uint256 amount) public returns (bool) {... */\n        tag_66:\n            /* \"openzeppelin/ERC20.sol\":2166:2170  bool */\n          0x00\n            /* \"openzeppelin/ERC20.sol\":2182:2224  _transfer(_msgSender(), recipient, amount) */\n          tag_134\n            /* \"openzeppelin/ERC20.sol\":2192:2204  _msgSender() */\n          tag_135\n            /* \"openzeppelin/ERC20.sol\":2192:2202  _msgSender */\n          tag_80\n            /* \"openzeppelin/ERC20.sol\":2192:2204  _msgSender() */\n          jump\t// in\n        tag_135:\n            /* \"openzeppelin/ERC20.sol\":2206:2215  recipient */\n          dup5\n            /* \"openzeppelin/ERC20.sol\":2217:2223  amount */\n          dup5\n            /* \"openzeppelin/ERC20.sol\":2182:2191  _transfer */\n          tag_85\n            /* \"openzeppelin/ERC20.sol\":2182:2224  _transfer(_msgSender(), recipient, amount) */\n          jump\t// in\n        tag_134:\n            /* \"openzeppelin/ERC20.sol\":2241:2245  true */\n          0x01\n            /* \"openzeppelin/ERC20.sol\":2234:2245  return true */\n          swap1\n          pop\n            /* \"openzeppelin/ERC20.sol\":2097:2252  function transfer(address recipient, uint256 amount) public returns (bool) {... */\n          swap3\n          swap2\n          pop\n          pop\n          jump\t// out\n            /* \"openzeppelin/roles/MinterRole.sol\":584:691  function isMinter(address account) public view returns (bool) {... */\n        tag_69:\n            /* \"openzeppelin/roles/MinterRole.sol\":640:644  bool */\n          0x00\n            /* \"openzeppelin/roles/MinterRole.sol\":663:684  _minters.has(account) */\n          tag_137\n            /* \"openzeppelin/roles/MinterRole.sol\":676:683  account */\n          dup3\n            /* \"openzeppelin/roles/MinterRole.sol\":663:671  _minters */\n          0x06\n            /* \"openzeppelin/roles/MinterRole.sol\":663:675  _minters.has */\n          tag_138\n          swap1\n            /* \"openzeppelin/roles/MinterRole.sol\":663:684  _minters.has(account) */\n          swap2\n          swap1\n          0xffffffff\n          and\n          jump\t// in\n        tag_137:\n            /* \"openzeppelin/roles/MinterRole.sol\":656:684  return _minters.has(account) */\n          swap1\n          pop\n            /* \"openzeppelin/roles/MinterRole.sol\":584:691  function isMinter(address account) public view returns (bool) {... */\n          swap2\n          swap1\n          pop\n          jump\t// out\n            /* \"openzeppelin/ERC20.sol\":2310:2442  function allowance(address owner, address spender) public view returns (uint256) {... */\n        tag_72:\n            /* \"openzeppelin/ERC20.sol\":2382:2389  uint256 */\n          0x00\n            /* \"openzeppelin/ERC20.sol\":2408:2419  _allowances */\n          0x01\n            /* \"openzeppelin/ERC20.sol\":2408:2426  _allowances[owner] */\n          0x00\n            /* \"openzeppelin/ERC20.sol\":2420:2425  owner */\n          dup5\n            /* \"openzeppelin/ERC20.sol\":2408:2426  _allowances[owner] */\n          0xffffffffffffffffffffffffffffffffffffffff\n          and\n          0xffffffffffffffffffffffffffffffffffffffff\n          and\n          dup2\n          mstore\n          0x20\n          add\n          swap1\n          dup2\n          mstore\n          0x20\n          add\n          0x00\n          keccak256\n            /* \"openzeppelin/ERC20.sol\":2408:2435  _allowances[owner][spender] */\n          0x00\n            /* \"openzeppelin/ERC20.sol\":2427:2434  spender */\n          dup4\n            /* \"openzeppelin/ERC20.sol\":2408:2435  _allowances[owner][spender] */\n          0xffffffffffffffffffffffffffffffffffffffff\n          and\n          0xffffffffffffffffffffffffffffffffffffffff\n          and\n          dup2\n          mstore\n          0x20\n          add\n          swap1\n          dup2\n          mstore\n          0x20\n          add\n          0x00\n          keccak256\n          sload\n            /* \"openzeppelin/ERC20.sol\":2401:2435  return _allowances[owner][spender] */\n          swap1\n          pop\n            /* \"openzeppelin/ERC20.sol\":2310:2442  function allowance(address owner, address spender) public view returns (uint256) {... */\n          swap3\n          swap2\n          pop\n          pop\n          jump\t// out\n            /* \"openzeppelin/GSN/Context.sol\":870:966  function _msgSender() internal view returns (address payable) {... */\n        tag_80:\n            /* \"openzeppelin/GSN/Context.sol\":915:930  address payable */\n          0x00\n            /* \"openzeppelin/GSN/Context.sol\":949:959  msg.sender */\n          caller\n            /* \"openzeppelin/GSN/Context.sol\":942:959  return msg.sender */\n          swap1\n          pop\n            /* \"openzeppelin/GSN/Context.sol\":870:966  function _msgSender() internal view returns (address payable) {... */\n          swap1\n          jump\t// out\n            /* \"openzeppelin/ERC20.sol\":7430:7762  function _approve(address owner, address spender, uint256 amount) internal {... */\n        tag_81:\n            /* \"openzeppelin/ERC20.sol\":7540:7541  0 */\n          0x00\n            /* \"openzeppelin/ERC20.sol\":7523:7542  owner != address(0) */\n          0xffffffffffffffffffffffffffffffffffffffff\n          and\n            /* \"openzeppelin/ERC20.sol\":7523:7528  owner */\n          dup4\n            /* \"openzeppelin/ERC20.sol\":7523:7542  owner != address(0) */\n          0xffffffffffffffffffffffffffffffffffffffff\n          and\n          eq\n          iszero\n            /* \"openzeppelin/ERC20.sol\":7515:7583  require(owner != address(0), \"ERC20: approve from the zero address\") */\n          tag_142\n          jumpi\n          mload(0x40)\n          0x08c379a000000000000000000000000000000000000000000000000000000000\n          dup2\n          mstore\n          0x04\n          add\n          dup1\n          dup1\n          0x20\n          add\n          dup3\n          dup2\n          sub\n          dup3\n          mstore\n          0x24\n          dup2\n          mstore\n          0x20\n          add\n          dup1\n          data_c953f4879035ed60e766b34720f656aab5c697b141d924c283124ecedb91c208\n          0x24\n          swap2\n          codecopy\n          0x40\n          add\n          swap2\n          pop\n          pop\n          mload(0x40)\n          dup1\n          swap2\n          sub\n          swap1\n          revert\n        tag_142:\n            /* \"openzeppelin/ERC20.sol\":7620:7621  0 */\n          0x00\n            /* \"openzeppelin/ERC20.sol\":7601:7622  spender != address(0) */\n          0xffffffffffffffffffffffffffffffffffffffff\n          and\n            /* \"openzeppelin/ERC20.sol\":7601:7608  spender */\n          dup3\n            /* \"openzeppelin/ERC20.sol\":7601:7622  spender != address(0) */\n          0xffffffffffffffffffffffffffffffffffffffff\n          and\n          eq\n          iszero\n            /* \"openzeppelin/ERC20.sol\":7593:7661  require(spender != address(0), \"ERC20: approve to the zero address\") */\n          tag_143\n          jumpi\n          mload(0x40)\n          0x08c379a000000000000000000000000000000000000000000000000000000000\n          dup2\n          mstore\n          0x04\n          add\n          dup1\n          dup1\n          0x20\n          add\n          dup3\n          dup2\n          sub\n          dup3\n          mstore\n          0x22\n          dup2\n          mstore\n          0x20\n          add\n          dup1\n          data_24883cc5fe64ace9d0df1893501ecb93c77180f0ff69cca79affb3c316dc8029\n          0x22\n          swap2\n          codecopy\n          0x40\n          add\n          swap2\n          pop\n          pop\n          mload(0x40)\n          dup1\n          swap2\n          sub\n          swap1\n          revert\n        tag_143:\n            /* \"openzeppelin/ERC20.sol\":7702:7708  amount */\n          dup1\n            /* \"openzeppelin/ERC20.sol\":7672:7683  _allowances */\n          0x01\n            /* \"openzeppelin/ERC20.sol\":7672:7690  _allowances[owner] */\n          0x00\n            /* \"openzeppelin/ERC20.sol\":7684:7689  owner */\n          dup6\n            /* \"openzeppelin/ERC20.sol\":7672:7690  _allowances[owner] */\n          0xffffffffffffffffffffffffffffffffffffffff\n          and\n          0xffffffffffffffffffffffffffffffffffffffff\n          and\n          dup2\n          mstore\n          0x20\n          add\n          swap1\n          dup2\n          mstore\n          0x20\n          add\n          0x00\n          keccak256\n            /* \"openzeppelin/ERC20.sol\":7672:7699  _allowances[owner][spender] */\n          0x00\n            /* \"openzeppelin/ERC20.sol\":7691:7698  spender */\n          dup5\n            /* \"openzeppelin/ERC20.sol\":7672:7699  _allowances[owner][spender] */\n          0xffffffffffffffffffffffffffffffffffffffff\n          and\n          0xffffffffffffffffffffffffffffffffffffffff\n          and\n          dup2\n          mstore\n          0x20\n          add\n          swap1\n          dup2\n          mstore\n          0x20\n          add\n          0x00\n          keccak256\n            /* \"openzeppelin/ERC20.sol\":7672:7708  _allowances[owner][spender] = amount */\n          dup2\n          swap1\n          sstore\n          pop\n            /* \"openzeppelin/ERC20.sol\":7739:7746  spender */\n          dup2\n            /* \"openzeppelin/ERC20.sol\":7723:7755  Approval(owner, spender, amount) */\n          0xffffffffffffffffffffffffffffffffffffffff\n          and\n            /* \"openzeppelin/ERC20.sol\":7732:7737  owner */\n          dup4\n            /* \"openzeppelin/ERC20.sol\":7723:7755  Approval(owner, spender, amount) */\n          0xffffffffffffffffffffffffffffffffffffffff\n          and\n          0x8c5be1e5ebec7d5bd14f71427d1e84f3dd0314c0f7b2291e5b200ac8c7c3b925\n            /* \"openzeppelin/ERC20.sol\":7748:7754  amount */\n          dup4\n            /* \"openzeppelin/ERC20.sol\":7723:7755  Approval(owner, spender, amount) */\n          mload(0x40)\n          dup1\n          dup3\n          dup2\n          mstore\n          0x20\n          add\n          swap2\n          pop\n          pop\n          mload(0x40)\n          dup1\n          swap2\n          sub\n          swap1\n          log3\n            /* \"openzeppelin/ERC20.sol\":7430:7762  function _approve(address owner, address spender, uint256 amount) internal {... */\n          pop\n          pop\n          pop\n          jump\t// out\n            /* \"openzeppelin/ERC20.sol\":5308:5772  function _transfer(address sender, address recipient, uint256 amount) internal {... */\n        tag_85:\n            /* \"openzeppelin/ERC20.sol\":5423:5424  0 */\n          0x00\n            /* \"openzeppelin/ERC20.sol\":5405:5425  sender != address(0) */\n          0xffffffffffffffffffffffffffffffffffffffff\n          and\n            /* \"openzeppelin/ERC20.sol\":5405:5411  sender */\n          dup4\n            /* \"openzeppelin/ERC20.sol\":5405:5425  sender != address(0) */\n          0xffffffffffffffffffffffffffffffffffffffff\n          and\n          eq\n          iszero\n            /* \"openzeppelin/ERC20.sol\":5397:5467  require(sender != address(0), \"ERC20: transfer from the zero address\") */\n          tag_145\n          jumpi\n          mload(0x40)\n          0x08c379a000000000000000000000000000000000000000000000000000000000\n          dup2\n          mstore\n          0x04\n          add\n          dup1\n          dup1\n          0x20\n          add\n          dup3\n          dup2\n          sub\n          dup3\n          mstore\n          0x25\n          dup2\n          mstore\n          0x20\n          add\n          dup1\n          data_baecc556b46f4ed0f2b4cb599d60785ac8563dd2dc0a5bf12edea1c39e5e1fea\n          0x25\n          swap2\n          codecopy\n          0x40\n          add\n          swap2\n          pop\n          pop\n          mload(0x40)\n          dup1\n          swap2\n          sub\n          swap1\n          revert\n        tag_145:\n            /* \"openzeppelin/ERC20.sol\":5506:5507  0 */\n          0x00\n            /* \"openzeppelin/ERC20.sol\":5485:5508  recipient != address(0) */\n          0xffffffffffffffffffffffffffffffffffffffff\n          and\n            /* \"openzeppelin/ERC20.sol\":5485:5494  recipient */\n          dup3\n            /* \"openzeppelin/ERC20.sol\":5485:5508  recipient != address(0) */\n          0xffffffffffffffffffffffffffffffffffffffff\n          and\n          eq\n          iszero\n            /* \"openzeppelin/ERC20.sol\":5477:5548  require(recipient != address(0), \"ERC20: transfer to the zero address\") */\n          tag_146\n          jumpi\n          mload(0x40)\n          0x08c379a000000000000000000000000000000000000000000000000000000000\n          dup2\n          mstore\n          0x04\n          add\n          dup1\n          dup1\n          0x20\n          add\n          dup3\n          dup2\n          sub\n          dup3\n          mstore\n          0x23\n          dup2\n          mstore\n          0x20\n          add\n          dup1\n          data_0557e210f7a69a685100a7e4e3d0a7024c546085cee28910fd17d0b081d9516f\n          0x23\n          swap2\n          codecopy\n          0x40\n          add\n          swap2\n          pop\n          pop\n          mload(0x40)\n          dup1\n          swap2\n          sub\n          swap1\n          revert\n        tag_146:\n            /* \"openzeppelin/ERC20.sol\":5579:5650  _balances[sender].sub(amount, \"ERC20: transfer amount exceeds balance\") */\n          tag_147\n            /* \"openzeppelin/ERC20.sol\":5601:5607  amount */\n          dup2\n            /* \"openzeppelin/ERC20.sol\":5579:5650  _balances[sender].sub(amount, \"ERC20: transfer amount exceeds balance\") */\n          mload(0x40)\n          dup1\n          0x60\n          add\n          0x40\n          mstore\n          dup1\n          0x26\n          dup2\n          mstore\n          0x20\n          add\n          data_4107e8a8b9e94bf8ff83080ddec1c0bffe897ebc2241b89d44f66b3d274088b6\n          0x26\n          swap2\n          codecopy\n            /* \"openzeppelin/ERC20.sol\":5579:5588  _balances */\n          0x00\n            /* \"openzeppelin/ERC20.sol\":5579:5596  _balances[sender] */\n          dup1\n            /* \"openzeppelin/ERC20.sol\":5589:5595  sender */\n          dup8\n            /* \"openzeppelin/ERC20.sol\":5579:5596  _balances[sender] */\n          0xffffffffffffffffffffffffffffffffffffffff\n          and\n          0xffffffffffffffffffffffffffffffffffffffff\n          and\n          dup2\n          mstore\n          0x20\n          add\n          swap1\n          dup2\n          mstore\n          0x20\n          add\n          0x00\n          keccak256\n          sload\n            /* \"openzeppelin/ERC20.sol\":5579:5600  _balances[sender].sub */\n          tag_90\n          swap1\n            /* \"openzeppelin/ERC20.sol\":5579:5650  _balances[sender].sub(amount, \"ERC20: transfer amount exceeds balance\") */\n          swap3\n          swap2\n          swap1\n          0xffffffff\n          and\n          jump\t// in\n        tag_147:\n            /* \"openzeppelin/ERC20.sol\":5559:5568  _balances */\n          0x00\n            /* \"openzeppelin/ERC20.sol\":5559:5576  _balances[sender] */\n          dup1\n            /* \"openzeppelin/ERC20.sol\":5569:5575  sender */\n          dup6\n            /* \"openzeppelin/ERC20.sol\":5559:5576  _balances[sender] */\n          0xffffffffffffffffffffffffffffffffffffffff\n          and\n          0xffffffffffffffffffffffffffffffffffffffff\n          and\n          dup2\n          mstore\n          0x20\n          add\n          swap1\n          dup2\n          mstore\n          0x20\n          add\n          0x00\n          keccak256\n            /* \"openzeppelin/ERC20.sol\":5559:5650  _balances[sender] = _balances[sender].sub(amount, \"ERC20: transfer amount exceeds balance\") */\n          dup2\n          swap1\n          sstore\n          pop\n            /* \"openzeppelin/ERC20.sol\":5683:5715  _balances[recipient].add(amount) */\n          tag_148\n            /* \"openzeppelin/ERC20.sol\":5708:5714  amount */\n          dup2\n            /* \"openzeppelin/ERC20.sol\":5683:5692  _balances */\n          0x00\n            /* \"openzeppelin/ERC20.sol\":5683:5703  _balances[recipient] */\n          dup1\n            /* \"openzeppelin/ERC20.sol\":5693:5702  recipient */\n          dup6\n            /* \"openzeppelin/ERC20.sol\":5683:5703  _balances[recipient] */\n          0xffffffffffffffffffffffffffffffffffffffff\n          and\n          0xffffffffffffffffffffffffffffffffffffffff\n          and\n          dup2\n          mstore\n          0x20\n          add\n          swap1\n          dup2\n          mstore\n          0x20\n          add\n          0x00\n          keccak256\n          sload\n            /* \"openzeppelin/ERC20.sol\":5683:5707  _balances[recipient].add */\n          tag_97\n          swap1\n            /* \"openzeppelin/ERC20.sol\":5683:5715  _balances[recipient].add(amount) */\n          swap2\n          swap1\n          0xffffffff\n          and\n          jump\t// in\n        tag_148:\n            /* \"openzeppelin/ERC20.sol\":5660:5669  _balances */\n          0x00\n            /* \"openzeppelin/ERC20.sol\":5660:5680  _balances[recipient] */\n          dup1\n            /* \"openzeppelin/ERC20.sol\":5670:5679  recipient */\n          dup5\n            /* \"openzeppelin/ERC20.sol\":5660:5680  _balances[recipient] */\n          0xffffffffffffffffffffffffffffffffffffffff\n          and\n          0xffffffffffffffffffffffffffffffffffffffff\n          and\n          dup2\n          mstore\n          0x20\n          add\n          swap1\n          dup2\n          mstore\n          0x20\n          add\n          0x00\n          keccak256\n            /* \"openzeppelin/ERC20.sol\":5660:5715  _balances[recipient] = _balances[recipient].add(amount) */\n          dup2\n          swap1\n          sstore\n          pop\n            /* \"openzeppelin/ERC20.sol\":5747:5756  recipient */\n          dup2\n            /* \"openzeppelin/ERC20.sol\":5730:5765  Transfer(sender, recipient, amount) */\n          0xffffffffffffffffffffffffffffffffffffffff\n          and\n            /* \"openzeppelin/ERC20.sol\":5739:5745  sender */\n          dup4\n            /* \"openzeppelin/ERC20.sol\":5730:5765  Transfer(sender, recipient, amount) */\n          0xffffffffffffffffffffffffffffffffffffffff\n          and\n          0xddf252ad1be2c89b69c2b068fc378daa952ba7f163c4a11628f55a4df523b3ef\n            /* \"openzeppelin/ERC20.sol\":5758:5764  amount */\n          dup4\n            /* \"openzeppelin/ERC20.sol\":5730:5765  Transfer(sender, recipient, amount) */\n          mload(0x40)\n          dup1\n          dup3\n          dup2\n          mstore\n          0x20\n          add\n          swap2\n          pop\n          pop\n          mload(0x40)\n          dup1\n          swap2\n          sub\n          swap1\n          log3\n            /* \"openzeppelin/ERC20.sol\":5308:5772  function _transfer(address sender, address recipient, uint256 amount) internal {... */\n          pop\n          pop\n          pop\n          jump\t// out\n            /* \"openzeppelin/math/SafeMath.sol\":1816:2003  function sub(uint256 a, uint256 b, string memory errorMessage) internal pure returns (uint256) {... */\n        tag_90:\n            /* \"openzeppelin/math/SafeMath.sol\":1902:1909  uint256 */\n          0x00\n            /* \"openzeppelin/math/SafeMath.sol\":1934:1935  a */\n          dup4\n            /* \"openzeppelin/math/SafeMath.sol\":1929:1930  b */\n          dup4\n            /* \"openzeppelin/math/SafeMath.sol\":1929:1935  b <= a */\n          gt\n          iszero\n            /* \"openzeppelin/math/SafeMath.sol\":1937:1949  errorMessage */\n          dup3\n            /* \"openzeppelin/math/SafeMath.sol\":1921:1950  require(b <= a, errorMessage) */\n          swap1\n          tag_150\n          jumpi\n          mload(0x40)\n          0x08c379a000000000000000000000000000000000000000000000000000000000\n          dup2\n          mstore\n          0x04\n          add\n          dup1\n          dup1\n          0x20\n          add\n          dup3\n          dup2\n          sub\n          dup3\n          mstore\n          dup4\n          dup2\n          dup2\n          mload\n          dup2\n          mstore\n          0x20\n          add\n          swap2\n          pop\n          dup1\n          mload\n          swap1\n          0x20\n          add\n          swap1\n          dup1\n          dup4\n          dup4\n            /* \"--CODEGEN--\":23:24   */\n          0x00\n            /* \"--CODEGEN--\":8:108   */\n        tag_151:\n            /* \"--CODEGEN--\":33:36   */\n          dup4\n            /* \"--CODEGEN--\":30:31   */\n          dup2\n            /* \"--CODEGEN--\":27:37   */\n          lt\n            /* \"--CODEGEN--\":8:108   */\n          iszero\n          tag_153\n          jumpi\n            /* \"--CODEGEN--\":99:100   */\n          dup1\n            /* \"--CODEGEN--\":94:97   */\n          dup3\n            /* \"--CODEGEN--\":90:101   */\n          add\n            /* \"--CODEGEN--\":84:102   */\n          mload\n            /* \"--CODEGEN--\":80:81   */\n          dup2\n            /* \"--CODEGEN--\":75:78   */\n          dup5\n            /* \"--CODEGEN--\":71:82   */\n          add\n            /* \"--CODEGEN--\":64:103   */\n          mstore\n            /* \"--CODEGEN--\":52:54   */\n          0x20\n            /* \"--CODEGEN--\":49:50   */\n          dup2\n            /* \"--CODEGEN--\":45:55   */\n          add\n            /* \"--CODEGEN--\":40:55   */\n          swap1\n          pop\n            /* \"--CODEGEN--\":8:108   */\n          jump(tag_151)\n        tag_153:\n            /* \"--CODEGEN--\":12:26   */\n          pop\n            /* \"openzeppelin/math/SafeMath.sol\":1921:1950  require(b <= a, errorMessage) */\n          pop\n          pop\n          pop\n          swap1\n          pop\n          swap1\n          dup2\n          add\n          swap1\n          0x1f\n          and\n          dup1\n          iszero\n          tag_154\n          jumpi\n          dup1\n          dup3\n          sub\n          dup1\n          mload\n          0x01\n          dup4\n          0x20\n          sub\n          0x0100\n          exp\n          sub\n          not\n          and\n          dup2\n          mstore\n          0x20\n          add\n          swap2\n          pop\n        tag_154:\n          pop\n          swap3\n          pop\n          pop\n          pop\n          mload(0x40)\n          dup1\n          swap2\n          sub\n          swap1\n          revert\n        tag_150:\n          pop\n            /* \"openzeppelin/math/SafeMath.sol\":1960:1969  uint256 c */\n          0x00\n            /* \"openzeppelin/math/SafeMath.sol\":1976:1977  b */\n          dup4\n            /* \"openzeppelin/math/SafeMath.sol\":1972:1973  a */\n          dup6\n            /* \"openzeppelin/math/SafeMath.sol\":1972:1977  a - b */\n          sub\n            /* \"openzeppelin/math/SafeMath.sol\":1960:1977  uint256 c = a - b */\n          swap1\n          pop\n            /* \"openzeppelin/math/SafeMath.sol\":1995:1996  c */\n          dup1\n            /* \"openzeppelin/math/SafeMath.sol\":1988:1996  return c */\n          swap2\n          pop\n          pop\n            /* \"openzeppelin/math/SafeMath.sol\":1816:2003  function sub(uint256 a, uint256 b, string memory errorMessage) internal pure returns (uint256) {... */\n          swap4\n          swap3\n          pop\n          pop\n          pop\n          jump\t// out\n            /* \"openzeppelin/math/SafeMath.sol\":918:1094  function add(uint256 a, uint256 b) internal pure returns (uint256) {... */\n        tag_97:\n            /* \"openzeppelin/math/SafeMath.sol\":976:983  uint256 */\n          0x00\n            /* \"openzeppelin/math/SafeMath.sol\":995:1004  uint256 c */\n          dup1\n            /* \"openzeppelin/math/SafeMath.sol\":1011:1012  b */\n          dup3\n            /* \"openzeppelin/math/SafeMath.sol\":1007:1008  a */\n          dup5\n            /* \"openzeppelin/math/SafeMath.sol\":1007:1012  a + b */\n          add\n            /* \"openzeppelin/math/SafeMath.sol\":995:1012  uint256 c = a + b */\n          swap1\n          pop\n            /* \"openzeppelin/math/SafeMath.sol\":1035:1036  a */\n          dup4\n            /* \"openzeppelin/math/SafeMath.sol\":1030:1031  c */\n          dup2\n            /* \"openzeppelin/math/SafeMath.sol\":1030:1036  c >= a */\n          lt\n          iszero\n            /* \"openzeppelin/math/SafeMath.sol\":1022:1068  require(c >= a, \"SafeMath: addition overflow\") */\n          tag_156\n          jumpi\n          mload(0x40)\n          0x08c379a000000000000000000000000000000000000000000000000000000000\n          dup2\n          mstore\n          0x04\n          add\n          dup1\n          dup1\n          0x20\n          add\n          dup3\n          dup2\n          sub\n          dup3\n          mstore\n          0x1b\n          dup2\n          mstore\n          0x20\n          add\n          dup1\n          0x536166654d6174683a206164646974696f6e206f766572666c6f770000000000\n          dup2\n          mstore\n          pop\n          0x20\n          add\n          swap2\n          pop\n          pop\n          mload(0x40)\n          dup1\n          swap2\n          sub\n          swap1\n          revert\n        tag_156:\n            /* \"openzeppelin/math/SafeMath.sol\":1086:1087  c */\n          dup1\n            /* \"openzeppelin/math/SafeMath.sol\":1079:1087  return c */\n          swap2\n          pop\n          pop\n            /* \"openzeppelin/math/SafeMath.sol\":918:1094  function add(uint256 a, uint256 b) internal pure returns (uint256) {... */\n          swap3\n          swap2\n          pop\n          pop\n          jump\t// out\n            /* \"openzeppelin/ERC20.sol\":6042:6344  function _mint(address account, uint256 amount) internal {... */\n        tag_104:\n            /* \"openzeppelin/ERC20.sol\":6136:6137  0 */\n          0x00\n            /* \"openzeppelin/ERC20.sol\":6117:6138  account != address(0) */\n          0xffffffffffffffffffffffffffffffffffffffff\n          and\n            /* \"openzeppelin/ERC20.sol\":6117:6124  account */\n          dup3\n            /* \"openzeppelin/ERC20.sol\":6117:6138  account != address(0) */\n          0xffffffffffffffffffffffffffffffffffffffff\n          and\n          eq\n          iszero\n            /* \"openzeppelin/ERC20.sol\":6109:6174  require(account != address(0), \"ERC20: mint to the zero address\") */\n          tag_158\n          jumpi\n          mload(0x40)\n          0x08c379a000000000000000000000000000000000000000000000000000000000\n          dup2\n          mstore\n          0x04\n          add\n          dup1\n          dup1\n          0x20\n          add\n          dup3\n          dup2\n          sub\n          dup3\n          mstore\n          0x1f\n          dup2\n          mstore\n          0x20\n          add\n          dup1\n          0x45524332303a206d696e7420746f20746865207a65726f206164647265737300\n          dup2\n          mstore\n          pop\n          0x20\n          add\n          swap2\n          pop\n          pop\n          mload(0x40)\n          dup1\n          swap2\n          sub\n          swap1\n          revert\n        tag_158:\n            /* \"openzeppelin/ERC20.sol\":6200:6224  _totalSupply.add(amount) */\n          tag_159\n            /* \"openzeppelin/ERC20.sol\":6217:6223  amount */\n          dup2\n            /* \"openzeppelin/ERC20.sol\":6200:6212  _totalSupply */\n          sload(0x02)\n            /* \"openzeppelin/ERC20.sol\":6200:6216  _totalSupply.add */\n          tag_97\n          swap1\n            /* \"openzeppelin/ERC20.sol\":6200:6224  _totalSupply.add(amount) */\n          swap2\n          swap1\n          0xffffffff\n          and\n          jump\t// in\n        tag_159:\n            /* \"openzeppelin/ERC20.sol\":6185:6197  _totalSupply */\n          0x02\n            /* \"openzeppelin/ERC20.sol\":6185:6224  _totalSupply = _totalSupply.add(amount) */\n          dup2\n          swap1\n          sstore\n          pop\n            /* \"openzeppelin/ERC20.sol\":6255:6285  _balances[account].add(amount) */\n          tag_160\n            /* \"openzeppelin/ERC20.sol\":6278:6284  amount */\n          dup2\n            /* \"openzeppelin/ERC20.sol\":6255:6264  _balances */\n          0x00\n            /* \"openzeppelin/ERC20.sol\":6255:6273  _balances[account] */\n          dup1\n            /* \"openzeppelin/ERC20.sol\":6265:6272  account */\n          dup6\n            /* \"openzeppelin/ERC20.sol\":6255:6273  _balances[account] */\n          0xffffffffffffffffffffffffffffffffffffffff\n          and\n          0xffffffffffffffffffffffffffffffffffffffff\n          and\n          dup2\n          mstore\n          0x20\n          add\n          swap1\n          dup2\n          mstore\n          0x20\n          add\n          0x00\n          keccak256\n          sload\n            /* \"openzeppelin/ERC20.sol\":6255:6277  _balances[account].add */\n          tag_97\n          swap1\n            /* \"openzeppelin/ERC20.sol\":6255:6285  _balances[account].add(amount) */\n          swap2\n          swap1\n          0xffffffff\n          and\n          jump\t// in\n        tag_160:\n            /* \"openzeppelin/ERC20.sol\":6234:6243  _balances */\n          0x00\n            /* \"openzeppelin/ERC20.sol\":6234:6252  _balances[account] */\n          dup1\n            /* \"openzeppelin/ERC20.sol\":6244:6251  account */\n          dup5\n            /* \"openzeppelin/ERC20.sol\":6234:6252  _balances[account] */\n          0xffffffffffffffffffffffffffffffffffffffff\n          and\n          0xffffffffffffffffffffffffffffffffffffffff\n          and\n          dup2\n          mstore\n          0x20\n          add\n          swap1\n          dup2\n          mstore\n          0x20\n          add\n          0x00\n          keccak256\n            /* \"openzeppelin/ERC20.sol\":6234:6285  _balances[account] = _balances[account].add(amount) */\n          dup2\n          swap1\n          sstore\n          pop\n            /* \"openzeppelin/ERC20.sol\":6321:6328  account */\n          dup2\n            /* \"openzeppelin/ERC20.sol\":6300:6337  Transfer(address(0), account, amount) */\n          0xffffffffffffffffffffffffffffffffffffffff\n          and\n            /* \"openzeppelin/ERC20.sol\":6317:6318  0 */\n          0x00\n            /* \"openzeppelin/ERC20.sol\":6300:6337  Transfer(address(0), account, amount) */\n          0xffffffffffffffffffffffffffffffffffffffff\n          and\n          0xddf252ad1be2c89b69c2b068fc378daa952ba7f163c4a11628f55a4df523b3ef\n            /* \"openzeppelin/ERC20.sol\":6330:6336  amount */\n          dup4\n            /* \"openzeppelin/ERC20.sol\":6300:6337  Transfer(address(0), account, amount) */\n          mload(0x40)\n          dup1\n          dup3\n          dup2\n          mstore\n          0x20\n          add\n          swap2\n          pop\n          pop\n          mload(0x40)\n          dup1\n          swap2\n          sub\n          swap1\n          log3\n            /* \"openzeppelin/ERC20.sol\":6042:6344  function _mint(address account, uint256 amount) internal {... */\n          pop\n          pop\n          jump\t// out\n            /* \"openzeppelin/roles/MinterRole.sol\":876:995  function _addMinter(address account) internal {... */\n        tag_116:\n            /* \"openzeppelin/roles/MinterRole.sol\":932:953  _minters.add(account) */\n          tag_162\n            /* \"openzeppelin/roles/MinterRole.sol\":945:952  account */\n          dup2\n            /* \"openzeppelin/roles/MinterRole.sol\":932:940  _minters */\n          0x06\n            /* \"openzeppelin/roles/MinterRole.sol\":932:944  _minters.add */\n          tag_163\n          swap1\n            /* \"openzeppelin/roles/MinterRole.sol\":932:953  _minters.add(account) */\n          swap2\n          swap1\n          0xffffffff\n          and\n          jump\t// in\n        tag_162:\n            /* \"openzeppelin/roles/MinterRole.sol\":980:987  account */\n          dup1\n            /* \"openzeppelin/roles/MinterRole.sol\":968:988  MinterAdded(account) */\n          0xffffffffffffffffffffffffffffffffffffffff\n          and\n          0x6ae172837ea30b801fbfcdd4108aa1d5bf8ff775444fd70256b44e6bf3dfc3f6\n          mload(0x40)\n          mload(0x40)\n          dup1\n          swap2\n          sub\n          swap1\n          log2\n            /* \"openzeppelin/roles/MinterRole.sol\":876:995  function _addMinter(address account) internal {... */\n          pop\n          jump\t// out\n            /* \"openzeppelin/roles/MinterRole.sol\":1001:1128  function _removeMinter(address account) internal {... */\n        tag_120:\n            /* \"openzeppelin/roles/MinterRole.sol\":1060:1084  _minters.remove(account) */\n          tag_165\n            /* \"openzeppelin/roles/MinterRole.sol\":1076:1083  account */\n          dup2\n            /* \"openzeppelin/roles/MinterRole.sol\":1060:1068  _minters */\n          0x06\n            /* \"openzeppelin/roles/MinterRole.sol\":1060:1075  _minters.remove */\n          tag_166\n          swap1\n            /* \"openzeppelin/roles/MinterRole.sol\":1060:1084  _minters.remove(account) */\n          swap2\n          swap1\n          0xffffffff\n          and\n          jump\t// in\n        tag_165:\n            /* \"openzeppelin/roles/MinterRole.sol\":1113:1120  account */\n          dup1\n            /* \"openzeppelin/roles/MinterRole.sol\":1099:1121  MinterRemoved(account) */\n          0xffffffffffffffffffffffffffffffffffffffff\n          and\n          0xe94479a9f7e1952cc78f2d6baab678adc1b772d936c6583def489e524cb66692\n          mload(0x40)\n          mload(0x40)\n          dup1\n          swap2\n          sub\n          swap1\n          log2\n            /* \"openzeppelin/roles/MinterRole.sol\":1001:1128  function _removeMinter(address account) internal {... */\n          pop\n          jump\t// out\n            /* \"openzeppelin/ERC20.sol\":6663:7005  function _burn(address account, uint256 amount) internal {... */\n        tag_127:\n            /* \"openzeppelin/ERC20.sol\":6757:6758  0 */\n          0x00\n            /* \"openzeppelin/ERC20.sol\":6738:6759  account != address(0) */\n          0xffffffffffffffffffffffffffffffffffffffff\n          and\n            /* \"openzeppelin/ERC20.sol\":6738:6745  account */\n          dup3\n            /* \"openzeppelin/ERC20.sol\":6738:6759  account != address(0) */\n          0xffffffffffffffffffffffffffffffffffffffff\n          and\n          eq\n          iszero\n            /* \"openzeppelin/ERC20.sol\":6730:6797  require(account != address(0), \"ERC20: burn from the zero address\") */\n          tag_168\n          jumpi\n          mload(0x40)\n          0x08c379a000000000000000000000000000000000000000000000000000000000\n          dup2\n          mstore\n          0x04\n          add\n          dup1\n          dup1\n          0x20\n          add\n          dup3\n          dup2\n          sub\n          dup3\n          mstore\n          0x21\n          dup2\n          mstore\n          0x20\n          add\n          dup1\n          data_b16788493b576042bb52c50ed56189e0b250db113c7bfb1c3897d25cf9632d7f\n          0x21\n          swap2\n          codecopy\n          0x40\n          add\n          swap2\n          pop\n          pop\n          mload(0x40)\n          dup1\n          swap2\n          sub\n          swap1\n          revert\n        tag_168:\n            /* \"openzeppelin/ERC20.sol\":6829:6897  _balances[account].sub(amount, \"ERC20: burn amount exceeds balance\") */\n          tag_169\n            /* \"openzeppelin/ERC20.sol\":6852:6858  amount */\n          dup2\n            /* \"openzeppelin/ERC20.sol\":6829:6897  _balances[account].sub(amount, \"ERC20: burn amount exceeds balance\") */\n          mload(0x40)\n          dup1\n          0x60\n          add\n          0x40\n          mstore\n          dup1\n          0x22\n          dup2\n          mstore\n          0x20\n          add\n          data_149b126e7125232b4200af45303d04fba8b74653b1a295a6a561a528c33fefdd\n          0x22\n          swap2\n          codecopy\n            /* \"openzeppelin/ERC20.sol\":6829:6838  _balances */\n          0x00\n            /* \"openzeppelin/ERC20.sol\":6829:6847  _balances[account] */\n          dup1\n            /* \"openzeppelin/ERC20.sol\":6839:6846  account */\n          dup7\n            /* \"openzeppelin/ERC20.sol\":6829:6847  _balances[account] */\n          0xffffffffffffffffffffffffffffffffffffffff\n          and\n          0xffffffffffffffffffffffffffffffffffffffff\n          and\n          dup2\n          mstore\n          0x20\n          add\n          swap1\n          dup2\n          mstore\n          0x20\n          add\n          0x00\n          keccak256\n          sload\n            /* \"openzeppelin/ERC20.sol\":6829:6851  _balances[account].sub */\n          tag_90\n          swap1\n            /* \"openzeppelin/ERC20.sol\":6829:6897  _balances[account].sub(amount, \"ERC20: burn amount exceeds balance\") */\n          swap3\n          swap2\n          swap1\n          0xffffffff\n          and\n          jump\t// in\n        tag_169:\n            /* \"openzeppelin/ERC20.sol\":6808:6817  _balances */\n          0x00\n            /* \"openzeppelin/ERC20.sol\":6808:6826  _balances[account] */\n          dup1\n            /* \"openzeppelin/ERC20.sol\":6818:6825  account */\n          dup5\n            /* \"openzeppelin/ERC20.sol\":6808:6826  _balances[account] */\n          0xffffffffffffffffffffffffffffffffffffffff\n          and\n          0xffffffffffffffffffffffffffffffffffffffff\n          and\n          dup2\n          mstore\n          0x20\n          add\n          swap1\n          dup2\n          mstore\n          0x20\n          add\n          0x00\n          keccak256\n            /* \"openzeppelin/ERC20.sol\":6808:6897  _balances[account] = _balances[account].sub(amount, \"ERC20: burn amount exceeds balance\") */\n          dup2\n          swap1\n          sstore\n          pop\n            /* \"openzeppelin/ERC20.sol\":6922:6946  _totalSupply.sub(amount) */\n          tag_170\n            /* \"openzeppelin/ERC20.sol\":6939:6945  amount */\n          dup2\n            /* \"openzeppelin/ERC20.sol\":6922:6934  _totalSupply */\n          sload(0x02)\n            /* \"openzeppelin/ERC20.sol\":6922:6938  _totalSupply.sub */\n          tag_171\n          swap1\n            /* \"openzeppelin/ERC20.sol\":6922:6946  _totalSupply.sub(amount) */\n          swap2\n          swap1\n          0xffffffff\n          and\n          jump\t// in\n        tag_170:\n            /* \"openzeppelin/ERC20.sol\":6907:6919  _totalSupply */\n          0x02\n            /* \"openzeppelin/ERC20.sol\":6907:6946  _totalSupply = _totalSupply.sub(amount) */\n          dup2\n          swap1\n          sstore\n          pop\n            /* \"openzeppelin/ERC20.sol\":6987:6988  0 */\n          0x00\n            /* \"openzeppelin/ERC20.sol\":6961:6998  Transfer(account, address(0), amount) */\n          0xffffffffffffffffffffffffffffffffffffffff\n          and\n            /* \"openzeppelin/ERC20.sol\":6970:6977  account */\n          dup3\n            /* \"openzeppelin/ERC20.sol\":6961:6998  Transfer(account, address(0), amount) */\n          0xffffffffffffffffffffffffffffffffffffffff\n          and\n          0xddf252ad1be2c89b69c2b068fc378daa952ba7f163c4a11628f55a4df523b3ef\n            /* \"openzeppelin/ERC20.sol\":6991:6997  amount */\n          dup4\n            /* \"openzeppelin/ERC20.sol\":6961:6998  Transfer(account, address(0), amount) */\n          mload(0x40)\n          dup1\n          dup3\n          dup2\n          mstore\n          0x20\n          add\n          swap2\n          pop\n          pop\n          mload(0x40)\n          dup1\n          swap2\n          sub\n          swap1\n          log3\n            /* \"openzeppelin/ERC20.sol\":6663:7005  function _burn(address account, uint256 amount) internal {... */\n          pop\n          pop\n          jump\t// out\n            /* \"openzeppelin/roles/Roles.sol\":862:1062  function has(Role storage role, address account) internal view returns (bool) {... */\n        tag_138:\n            /* \"openzeppelin/roles/Roles.sol\":934:938  bool */\n          0x00\n            /* \"openzeppelin/roles/Roles.sol\":977:978  0 */\n          dup1\n            /* \"openzeppelin/roles/Roles.sol\":958:979  account != address(0) */\n          0xffffffffffffffffffffffffffffffffffffffff\n          and\n            /* \"openzeppelin/roles/Roles.sol\":958:965  account */\n          dup3\n            /* \"openzeppelin/roles/Roles.sol\":958:979  account != address(0) */\n          0xffffffffffffffffffffffffffffffffffffffff\n          and\n          eq\n          iszero\n            /* \"openzeppelin/roles/Roles.sol\":950:1018  require(account != address(0), \"Roles: account is the zero address\") */\n          tag_173\n          jumpi\n          mload(0x40)\n          0x08c379a000000000000000000000000000000000000000000000000000000000\n          dup2\n          mstore\n          0x04\n          add\n          dup1\n          dup1\n          0x20\n          add\n          dup3\n          dup2\n          sub\n          dup3\n          mstore\n          0x22\n          dup2\n          mstore\n          0x20\n          add\n          dup1\n          data_9d214fa89563f4e6456a3929327e54500ea1cde2c0ba9fb2035ec106190d682f\n          0x22\n          swap2\n          codecopy\n          0x40\n          add\n          swap2\n          pop\n          pop\n          mload(0x40)\n          dup1\n          swap2\n          sub\n          swap1\n          revert\n        tag_173:\n            /* \"openzeppelin/roles/Roles.sol\":1035:1039  role */\n          dup3\n            /* \"openzeppelin/roles/Roles.sol\":1035:1046  role.bearer */\n          0x00\n          add\n            /* \"openzeppelin/roles/Roles.sol\":1035:1055  role.bearer[account] */\n          0x00\n            /* \"openzeppelin/roles/Roles.sol\":1047:1054  account */\n          dup4\n            /* \"openzeppelin/roles/Roles.sol\":1035:1055  role.bearer[account] */\n          0xffffffffffffffffffffffffffffffffffffffff\n          and\n          0xffffffffffffffffffffffffffffffffffffffff\n          and\n          dup2\n          mstore\n          0x20\n          add\n          swap1\n          dup2\n          mstore\n          0x20\n          add\n          0x00\n          keccak256\n          0x00\n          swap1\n          sload\n          swap1\n          0x0100\n          exp\n          swap1\n          div\n          0xff\n          and\n            /* \"openzeppelin/roles/Roles.sol\":1028:1055  return role.bearer[account] */\n          swap1\n          pop\n            /* \"openzeppelin/roles/Roles.sol\":862:1062  function has(Role storage role, address account) internal view returns (bool) {... */\n          swap3\n          swap2\n          pop\n          pop\n          jump\t// out\n            /* \"openzeppelin/roles/Roles.sol\":343:518  function add(Role storage role, address account) internal {... */\n        tag_163:\n            /* \"openzeppelin/roles/Roles.sol\":420:438  has(role, account) */\n          tag_175\n            /* \"openzeppelin/roles/Roles.sol\":424:428  role */\n          dup3\n            /* \"openzeppelin/roles/Roles.sol\":430:437  account */\n          dup3\n            /* \"openzeppelin/roles/Roles.sol\":420:423  has */\n          tag_138\n            /* \"openzeppelin/roles/Roles.sol\":420:438  has(role, account) */\n          jump\t// in\n        tag_175:\n            /* \"openzeppelin/roles/Roles.sol\":419:438  !has(role, account) */\n          iszero\n            /* \"openzeppelin/roles/Roles.sol\":411:474  require(!has(role, account), \"Roles: account already has role\") */\n          tag_176\n          jumpi\n          mload(0x40)\n          0x08c379a000000000000000000000000000000000000000000000000000000000\n          dup2\n          mstore\n          0x04\n          add\n          dup1\n          dup1\n          0x20\n          add\n          dup3\n          dup2\n          sub\n          dup3\n          mstore\n          0x1f\n          dup2\n          mstore\n          0x20\n          add\n          dup1\n          0x526f6c65733a206163636f756e7420616c72656164792068617320726f6c6500\n          dup2\n          mstore\n          pop\n          0x20\n          add\n          swap2\n          pop\n          pop\n          mload(0x40)\n          dup1\n          swap2\n          sub\n          swap1\n          revert\n        tag_176:\n            /* \"openzeppelin/roles/Roles.sol\":507:511  true */\n          0x01\n            /* \"openzeppelin/roles/Roles.sol\":484:488  role */\n          dup3\n            /* \"openzeppelin/roles/Roles.sol\":484:495  role.bearer */\n          0x00\n          add\n            /* \"openzeppelin/roles/Roles.sol\":484:504  role.bearer[account] */\n          0x00\n            /* \"openzeppelin/roles/Roles.sol\":496:503  account */\n          dup4\n            /* \"openzeppelin/roles/Roles.sol\":484:504  role.bearer[account] */\n          0xffffffffffffffffffffffffffffffffffffffff\n          and\n          0xffffffffffffffffffffffffffffffffffffffff\n          and\n          dup2\n          mstore\n          0x20\n          add\n          swap1\n          dup2\n          mstore\n          0x20\n          add\n          0x00\n          keccak256\n          0x00\n            /* \"openzeppelin/roles/Roles.sol\":484:511  role.bearer[account] = true */\n          0x0100\n          exp\n          dup2\n          sload\n          dup2\n          0xff\n          mul\n          not\n          and\n          swap1\n          dup4\n          iszero\n          iszero\n          mul\n          or\n          swap1\n          sstore\n          pop\n            /* \"openzeppelin/roles/Roles.sol\":343:518  function add(Role storage role, address account) internal {... */\n          pop\n          pop\n          jump\t// out\n            /* \"openzeppelin/roles/Roles.sol\":593:773  function remove(Role storage role, address account) internal {... */\n        tag_166:\n            /* \"openzeppelin/roles/Roles.sol\":672:690  has(role, account) */\n          tag_178\n            /* \"openzeppelin/roles/Roles.sol\":676:680  role */\n          dup3\n            /* \"openzeppelin/roles/Roles.sol\":682:689  account */\n          dup3\n            /* \"openzeppelin/roles/Roles.sol\":672:675  has */\n          tag_138\n            /* \"openzeppelin/roles/Roles.sol\":672:690  has(role, account) */\n          jump\t// in\n        tag_178:\n            /* \"openzeppelin/roles/Roles.sol\":664:728  require(has(role, account), \"Roles: account does not have role\") */\n          tag_179\n          jumpi\n          mload(0x40)\n          0x08c379a000000000000000000000000000000000000000000000000000000000\n          dup2\n          mstore\n          0x04\n          add\n          dup1\n          dup1\n          0x20\n          add\n          dup3\n          dup2\n          sub\n          dup3\n          mstore\n          0x21\n          dup2\n          mstore\n          0x20\n          add\n          dup1\n          data_7bd893145ac435f339bb7c288622d270324b7033b011f693aca172f5cbc3c257\n          0x21\n          swap2\n          codecopy\n          0x40\n          add\n          swap2\n          pop\n          pop\n          mload(0x40)\n          dup1\n          swap2\n          sub\n          swap1\n          revert\n        tag_179:\n            /* \"openzeppelin/roles/Roles.sol\":761:766  false */\n          0x00\n            /* \"openzeppelin/roles/Roles.sol\":738:742  role */\n          dup3\n            /* \"openzeppelin/roles/Roles.sol\":738:749  role.bearer */\n          0x00\n          add\n            /* \"openzeppelin/roles/Roles.sol\":738:758  role.bearer[account] */\n          0x00\n            /* \"openzeppelin/roles/Roles.sol\":750:757  account */\n          dup4\n            /* \"openzeppelin/roles/Roles.sol\":738:758  role.bearer[account] */\n          0xffffffffffffffffffffffffffffffffffffffff\n          and\n          0xffffffffffffffffffffffffffffffffffffffff\n          and\n          dup2\n          mstore\n          0x20\n          add\n          swap1\n          dup2\n          mstore\n          0x20\n          add\n          0x00\n          keccak256\n          0x00\n            /* \"openzeppelin/roles/Roles.sol\":738:766  role.bearer[account] = false */\n          0x0100\n          exp\n          dup2\n          sload\n          dup2\n          0xff\n          mul\n          not\n          and\n          swap1\n          dup4\n          iszero\n          iszero\n          mul\n          or\n          swap1\n          sstore\n          pop\n            /* \"openzeppelin/roles/Roles.sol\":593:773  function remove(Role storage role, address account) internal {... */\n          pop\n          pop\n          jump\t// out\n            /* \"openzeppelin/math/SafeMath.sol\":1358:1492  function sub(uint256 a, uint256 b) internal pure returns (uint256) {... */\n        tag_171:\n            /* \"openzeppelin/math/SafeMath.sol\":1416:1423  uint256 */\n          0x00\n            /* \"openzeppelin/math/SafeMath.sol\":1442:1485  sub(a, b, \"SafeMath: subtraction overflow\") */\n          tag_181\n            /* \"openzeppelin/math/SafeMath.sol\":1446:1447  a */\n          dup4\n            /* \"openzeppelin/math/SafeMath.sol\":1449:1450  b */\n          dup4\n            /* \"openzeppelin/math/SafeMath.sol\":1442:1485  sub(a, b, \"SafeMath: subtraction overflow\") */\n          mload(0x40)\n          dup1\n          0x40\n          add\n          0x40\n          mstore\n          dup1\n          0x1e\n          dup2\n          mstore\n          0x20\n          add\n          0x536166654d6174683a207375627472616374696f6e206f766572666c6f770000\n          dup2\n          mstore\n          pop\n            /* \"openzeppelin/math/SafeMath.sol\":1442:1445  sub */\n          tag_90\n            /* \"openzeppelin/math/SafeMath.sol\":1442:1485  sub(a, b, \"SafeMath: subtraction overflow\") */\n          jump\t// in\n        tag_181:\n            /* \"openzeppelin/math/SafeMath.sol\":1435:1485  return sub(a, b, \"SafeMath: subtraction overflow\") */\n          swap1\n          pop\n            /* \"openzeppelin/math/SafeMath.sol\":1358:1492  function sub(uint256 a, uint256 b) internal pure returns (uint256) {... */\n          swap3\n          swap2\n          pop\n          pop\n          jump\t// out\n        stop\n        data_0557e210f7a69a685100a7e4e3d0a7024c546085cee28910fd17d0b081d9516f 45524332303a207472616e7366657220746f20746865207a65726f2061646472657373\n        data_149b126e7125232b4200af45303d04fba8b74653b1a295a6a561a528c33fefdd 45524332303a206275726e20616d6f756e7420657863656564732062616c616e6365\n        data_24883cc5fe64ace9d0df1893501ecb93c77180f0ff69cca79affb3c316dc8029 45524332303a20617070726f766520746f20746865207a65726f2061646472657373\n        data_4107e8a8b9e94bf8ff83080ddec1c0bffe897ebc2241b89d44f66b3d274088b6 45524332303a207472616e7366657220616d6f756e7420657863656564732062616c616e6365\n        data_79ecb50133735b20228dea9d08fe36a462bbc1350f591a146908848db91104cd 4d696e746572526f6c653a2063616c6c657220646f6573206e6f74206861766520746865204d696e74657220726f6c65\n        data_7bd893145ac435f339bb7c288622d270324b7033b011f693aca172f5cbc3c257 526f6c65733a206163636f756e7420646f6573206e6f74206861766520726f6c65\n        data_974d1b4421da69cc60b481194f0dad36a5bb4e23da810da7a7fb30cdba178330 45524332303a207472616e7366657220616d6f756e74206578636565647320616c6c6f77616e6365\n        data_9d214fa89563f4e6456a3929327e54500ea1cde2c0ba9fb2035ec106190d682f 526f6c65733a206163636f756e7420697320746865207a65726f2061646472657373\n        data_b16788493b576042bb52c50ed56189e0b250db113c7bfb1c3897d25cf9632d7f 45524332303a206275726e2066726f6d20746865207a65726f2061646472657373\n        data_baecc556b46f4ed0f2b4cb599d60785ac8563dd2dc0a5bf12edea1c39e5e1fea 45524332303a207472616e736665722066726f6d20746865207a65726f2061646472657373\n        data_c953f4879035ed60e766b34720f656aab5c697b141d924c283124ecedb91c208 45524332303a20617070726f76652066726f6d20746865207a65726f2061646472657373\n        data_f8b476f7d28209d77d4a4ac1fe36b9f8259aa1bb6bddfa6e89de7e51615cf8a8 45524332303a2064656372656173656420616c6c6f77616e63652062656c6f77207a65726f\n\n        auxdata: 0xa265627a7a72315820c90b75124c28cc44f92e9328ab3351ee5f444fcba55979158b6a0d59a627d6ba64736f6c63430005110032\n    }\n}\n",
				"bytecode": {
					"linkReferences": {},
					"object": "60806040523480156200001157600080fd5b5060405162005bac38038062005bac833981810160405260408110156200003757600080fd5b810190808051906020019092919080519060200190929190505050336000806101000a81548173ffffffffffffffffffffffffffffffffffffffff021916908373ffffffffffffffffffffffffffffffffffffffff160217905550604051620000a09062000159565b604051809103906000f080158015620000bd573d6000803e3d6000fd5b50600160006101000a81548173ffffffffffffffffffffffffffffffffffffffff021916908373ffffffffffffffffffffffffffffffffffffffff1602179055506000600160146101000a81548160ff021916908360028111156200011e57fe5b021790555081600281905550806003819055506000600481905550600060068190555060016008819055506000600981905550505062000167565b611fe58062003bc783390190565b613a5080620001776000396000f3fe6080604052600436106100e85760003560e01c8063a80db6fc1161008a578063d0febe4c11610059578063d0febe4c146105da578063da6001d1146105e4578063e0a8f6f51461061f578063fffefd911461065a576100e8565b8063a80db6fc146103fa578063affc067014610466578063bc903cb814610470578063c631b292146105c3576100e8565b80636c11bcd3116100c65780636c11bcd3146101f55780637b0472f0146102305780638e08a50b146102755780639ab3f7a6146102e1576100e8565b80633ac0feac146100ed5780634ece90a814610159578063649c649c146101b0575b600080fd5b3480156100f957600080fd5b50610102610664565b6040518080602001828103825283818151815260200191508051906020019060200280838360005b8381101561014557808201518184015260208101905061012a565b505050509050019250505060405180910390f35b34801561016557600080fd5b5061016e610814565b604051808273ffffffffffffffffffffffffffffffffffffffff1673ffffffffffffffffffffffffffffffffffffffff16815260200191505060405180910390f35b3480156101bc57600080fd5b506101f3600480360360408110156101d357600080fd5b81019080803590602001909291908035906020019092919050505061083e565b005b34801561020157600080fd5b5061022e6004803603602081101561021857600080fd5b8101908080359060200190929190505050610a8f565b005b34801561023c57600080fd5b506102736004803603604081101561025357600080fd5b810190808035906020019092919080359060200190929190505050610dae565b005b34801561028157600080fd5b5061028a611269565b6040518080602001828103825283818151815260200191508051906020019060200280838360005b838110156102cd5780820151818401526020810190506102b2565b505050509050019250505060405180910390f35b3480156102ed57600080fd5b506103e46004803603608081101561030457600080fd5b810190808035906020019064010000000081111561032157600080fd5b82018360208201111561033357600080fd5b8035906020019184600183028401116401000000008311171561035557600080fd5b90919293919293908035906020019064010000000081111561037657600080fd5b82018360208201111561038857600080fd5b803590602001918460018302840111640100000000831117156103aa57600080fd5b909192939192939080359060200190929190803573ffffffffffffffffffffffffffffffffffffffff16906020019092919050505061141b565b6040518082815260200191505060405180910390f35b34801561040657600080fd5b5061040f611842565b6040518080602001828103825283818151815260200191508051906020019060200280838360005b83811015610452578082015181840152602081019050610437565b505050509050019250505060405180910390f35b61046e6119f3565b005b34801561047c57600080fd5b506104a96004803603602081101561049357600080fd5b8101908080359060200190929190505050611bd8565b6040518080602001806020018473ffffffffffffffffffffffffffffffffffffffff1673ffffffffffffffffffffffffffffffffffffffff168152602001838103835286818151815260200191508051906020019080838360005b8381101561051f578082015181840152602081019050610504565b50505050905090810190601f16801561054c5780820380516001836020036101000a031916815260200191505b50838103825285818151815260200191508051906020019080838360005b8381101561058557808201518184015260208101905061056a565b50505050905090810190601f1680156105b25780820380516001836020036101000a031916815260200191505b509550505050505060405180910390f35b3480156105cf57600080fd5b506105d8611e20565b005b6105e2611f34565b005b3480156105f057600080fd5b5061061d6004803603602081101561060757600080fd5b8101908080359060200190929190505050612246565b005b34801561062b57600080fd5b506106586004803603602081101561064257600080fd5b8101908080359060200190929190505050612484565b005b6106626127da565b005b60606001600281111561067357fe5b600160149054906101000a900460ff16600281111561068e57fe5b14610701576040517f08c379a000000000000000000000000000000000000000000000000000000000815260040180806020018281038252600f8152602001807f566f74696e67206e6f74206f70656e000000000000000000000000000000000081525060200191505060405180910390fd5b600b600061070f91906138a3565b600060085490505b60095481116107bd5760028081111561072c57fe5b6007600083815260200190815260200160002060080160009054906101000a900460ff16600281111561075b57fe5b14801561077e575060006007600083815260200190815260200160002060040154115b156107b057600b8190806001815401808255809150509060018203906000526020600020016000909192909190915055505b8080600101915050610717565b50600b80548060200260200160405190810160405280929190818152602001828054801561080a57602002820191906000526020600020905b8154815260200190600101908083116107f6575b5050505050905090565b6000600160009054906101000a900473ffffffffffffffffffffffffffffffffffffffff16905090565b600560003373ffffffffffffffffffffffffffffffffffffffff1673ffffffffffffffffffffffffffffffffffffffff16815260200190815260200160002060009054906101000a900460ff166108fd576040517f08c379a00000000000000000000000000000000000000000000000000000000081526004018080602001828103825260118152602001807f4e6f742061207061727469636970616e7400000000000000000000000000000081525060200191505060405180910390fd5b80806008541115801561091257506009548111155b610984576040517f08c379a00000000000000000000000000000000000000000000000000000000081526004018080602001828103825260158152602001807f50726f706f73616c206964206e6f742076616c6964000000000000000000000081525060200191505060405180910390fd5b8183806007600084815260200190815260200160002060070160003373ffffffffffffffffffffffffffffffffffffffff1673ffffffffffffffffffffffffffffffffffffffff168152602001908152602001600020541015610a4f576040517f08c379a000000000000000000000000000000000000000000000000000000000815260040180806020018281038252600c8152602001807f556e617574686f72697a6564000000000000000000000000000000000000000081525060200191505060405180910390fd5b600060076000868152602001908152602001600020600401541115610a7d57610a788585612a4c565b610a88565b610a878585612d27565b5b5050505050565b600560003373ffffffffffffffffffffffffffffffffffffffff1673ffffffffffffffffffffffffffffffffffffffff16815260200190815260200160002060009054906101000a900460ff16610b4e576040517f08c379a00000000000000000000000000000000000000000000000000000000081526004018080602001828103825260118152602001807f4e6f742061207061727469636970616e7400000000000000000000000000000081525060200191505060405180910390fd5b80600160009054906101000a900473ffffffffffffffffffffffffffffffffffffffff1673ffffffffffffffffffffffffffffffffffffffff166370a08231336040518263ffffffff1660e01b8152600401808273ffffffffffffffffffffffffffffffffffffffff1673ffffffffffffffffffffffffffffffffffffffff16815260200191505060206040518083038186803b158015610bee57600080fd5b505afa158015610c02573d6000803e3d6000fd5b505050506040513d6020811015610c1857600080fd5b8101908080519060200190929190505050811015610c9e576040517f08c379a000000000000000000000000000000000000000000000000000000000815260040180806020018281038252600e8152602001807f496e76616c696420616d6f756e7400000000000000000000000000000000000081525060200191505060405180910390fd5b600160009054906101000a900473ffffffffffffffffffffffffffffffffffffffff1673ffffffffffffffffffffffffffffffffffffffff16639dc29fac33846040518363ffffffff1660e01b8152600401808373ffffffffffffffffffffffffffffffffffffffff1673ffffffffffffffffffffffffffffffffffffffff16815260200182815260200192505050600060405180830381600087803b158015610d4757600080fd5b505af1158015610d5b573d6000803e3d6000fd5b505050503373ffffffffffffffffffffffffffffffffffffffff166108fc60025484029081150290604051600060405180830381858888f19350505050158015610da9573d6000803e3d6000fd5b505050565b600560003373ffffffffffffffffffffffffffffffffffffffff1673ffffffffffffffffffffffffffffffffffffffff16815260200190815260200160002060009054906101000a900460ff16610e6d576040517f08c379a00000000000000000000000000000000000000000000000000000000081526004018080602001828103825260118152602001807f4e6f742061207061727469636970616e7400000000000000000000000000000081525060200191505060405180910390fd5b818060085411158015610e8257506009548111155b610ef4576040517f08c379a00000000000000000000000000000000000000000000000000000000081526004018080602001828103825260158152602001807f50726f706f73616c206964206e6f742076616c6964000000000000000000000081525060200191505060405180910390fd5b8260006002811115610f0257fe5b6007600083815260200190815260200160002060080160009054906101000a900460ff166002811115610f3157fe5b14610fa4576040517f08c379a00000000000000000000000000000000000000000000000000000000081526004018080602001828103825260148152602001807f50726f706f73616c206e6f7420656e61626c656400000000000000000000000081525060200191505060405180910390fd5b610fae848461307f565b600160009054906101000a900473ffffffffffffffffffffffffffffffffffffffff1673ffffffffffffffffffffffffffffffffffffffff166370a08231336040518263ffffffff1660e01b8152600401808273ffffffffffffffffffffffffffffffffffffffff1673ffffffffffffffffffffffffffffffffffffffff16815260200191505060206040518083038186803b15801561104d57600080fd5b505afa158015611061573d6000803e3d6000fd5b505050506040513d602081101561107757600080fd5b81019080805190602001909291905050508110156110fd576040517f08c379a000000000000000000000000000000000000000000000000000000000815260040180806020018281038252600e8152602001807f496e76616c696420616d6f756e7400000000000000000000000000000000000081525060200191505060405180910390fd5b6000611109868661307f565b9050600160009054906101000a900473ffffffffffffffffffffffffffffffffffffffff1673ffffffffffffffffffffffffffffffffffffffff1663a9059cbb30836040518363ffffffff1660e01b8152600401808373ffffffffffffffffffffffffffffffffffffffff1673ffffffffffffffffffffffffffffffffffffffff16815260200182815260200192505050602060405180830381600087803b1580156111b457600080fd5b505af11580156111c8573d6000803e3d6000fd5b505050506040513d60208110156111de57600080fd5b81019080805190602001909291905050505084600760008881526020019081526020016000206005016000828254019250508190555080600760008881526020019081526020016000206006016000828254019250508190555060006007600088815260200190815260200160002060040154111561126157611260866130fe565b5b505050505050565b60606001600281111561127857fe5b600160149054906101000a900460ff16600281111561129357fe5b14611306576040517f08c379a000000000000000000000000000000000000000000000000000000000815260040180806020018281038252600f8152602001807f566f74696e67206e6f74206f70656e000000000000000000000000000000000081525060200191505060405180910390fd5b600c600061131491906138a3565b600060085490505b60095481116113c4576001600281111561133257fe5b6007600083815260200190815260200160002060080160009054906101000a900460ff16600281111561136157fe5b14158015611385575060006007600083815260200190815260200160002060040154145b156113b757600c8190806001815401808255809150509060018203906000526020600020016000909192909190915055505b808060010191505061131c565b50600c80548060200260200160405190810160405280929190818152602001828054801561141157602002820191906000526020600020905b8154815260200190600101908083116113fd575b5050505050905090565b6000600560003373ffffffffffffffffffffffffffffffffffffffff1673ffffffffffffffffffffffffffffffffffffffff16815260200190815260200160002060009054906101000a900460ff166114dc576040517f08c379a00000000000000000000000000000000000000000000000000000000081526004018080602001828103825260118152602001807f4e6f742061207061727469636970616e7400000000000000000000000000000081525060200191505060405180910390fd5b600160028111156114e957fe5b600160149054906101000a900460ff16600281111561150457fe5b14611577576040517f08c379a000000000000000000000000000000000000000000000000000000000815260040180806020018281038252600f8152602001807f566f74696e67206e6f74206f70656e000000000000000000000000000000000081525060200191505060405180910390fd5b61157f6138c4565b33816000019073ffffffffffffffffffffffffffffffffffffffff16908173ffffffffffffffffffffffffffffffffffffffff168152505082816020019073ffffffffffffffffffffffffffffffffffffffff16908173ffffffffffffffffffffffffffffffffffffffff168152505087878080601f016020809104026020016040519081016040528093929190818152602001838380828437600081840152601f19601f82011690508083019250505050505050816040018190525085858080601f016020809104026020016040519081016040528093929190818152602001838380828437600081840152601f19601f8201169050808301925050505050505081606001819052508381608001818152505060008160a001818152505060008160c001818152505060008160e0019060028111156116bb57fe5b908160028111156116c857fe5b815250506009600081548092919060010191905055508060076000600954815260200190815260200160002060008201518160000160006101000a81548173ffffffffffffffffffffffffffffffffffffffff021916908373ffffffffffffffffffffffffffffffffffffffff16021790555060208201518160010160006101000a81548173ffffffffffffffffffffffffffffffffffffffff021916908373ffffffffffffffffffffffffffffffffffffffff160217905550604082015181600201908051906020019061179e929190613947565b5060608201518160030190805190602001906117bb929190613947565b506080820151816004015560a0820151816005015560c0820151816006015560e08201518160080160006101000a81548160ff021916908360028111156117fe57fe5b021790555061010082015181600901559050506006600081548092919060010191905055506000841461183657600954915050611838565b505b9695505050505050565b60606001600281111561185157fe5b600160149054906101000a900460ff16600281111561186c57fe5b146118df576040517f08c379a000000000000000000000000000000000000000000000000000000000815260040180806020018281038252600f8152602001807f566f74696e67206e6f74206f70656e000000000000000000000000000000000081525060200191505060405180910390fd5b600a60006118ed91906138a3565b600060085490505b600954811161199c576000600281111561190b57fe5b6007600083815260200190815260200160002060080160009054906101000a900460ff16600281111561193a57fe5b14801561195d575060006007600083815260200190815260200160002060040154115b1561198f57600a8190806001815401808255809150509060018203906000526020600020016000909192909190915055505b80806001019150506118f5565b50600a8054806020026020016040519081016040528092919081815260200182805480156119e957602002820191906000526020600020905b8154815260200190600101908083116119d5575b5050505050905090565b6000809054906101000a900473ffffffffffffffffffffffffffffffffffffffff1673ffffffffffffffffffffffffffffffffffffffff163373ffffffffffffffffffffffffffffffffffffffff1614611ab5576040517f08c379a000000000000000000000000000000000000000000000000000000000815260040180806020018281038252600c8152602001807f556e617574686f72697a6564000000000000000000000000000000000000000081525060200191505060405180910390fd5b600280811115611ac157fe5b600160149054906101000a900460ff166002811115611adc57fe5b1480611b0d575060006002811115611af057fe5b600160149054906101000a900460ff166002811115611b0b57fe5b145b611b7f576040517f08c379a00000000000000000000000000000000000000000000000000000000081526004018080602001828103825260128152602001807f566f74696e672063616e6e6f74206f70656e000000000000000000000000000081525060200191505060405180910390fd5b60018060146101000a81548160ff02191690836002811115611b9d57fe5b0217905550611baa613119565b7f1c9b9ae417b15d6782146a380a280b52403258caac00795087e065bbc9fb9e8060405160405180910390a1565b606080600060016002811115611bea57fe5b600160149054906101000a900460ff166002811115611c0557fe5b14611c78576040517f08c379a000000000000000000000000000000000000000000000000000000000815260040180806020018281038252600f8152602001807f566f74696e67206e6f74206f70656e000000000000000000000000000000000081525060200191505060405180910390fd5b60076000858152602001908152602001600020600201600760008681526020019081526020016000206003016007600087815260200190815260200160002060010160009054906101000a900473ffffffffffffffffffffffffffffffffffffffff16828054600181600116156101000203166002900480601f016020809104026020016040519081016040528092919081815260200182805460018160011615610100020316600290048015611d705780601f10611d4557610100808354040283529160200191611d70565b820191906000526020600020905b815481529060010190602001808311611d5357829003601f168201915b50505050509250818054600181600116156101000203166002900480601f016020809104026020016040519081016040528092919081815260200182805460018160011615610100020316600290048015611e0c5780601f10611de157610100808354040283529160200191611e0c565b820191906000526020600020905b815481529060010190602001808311611def57829003601f168201915b505050505091509250925092509193909250565b6000809054906101000a900473ffffffffffffffffffffffffffffffffffffffff1673ffffffffffffffffffffffffffffffffffffffff163373ffffffffffffffffffffffffffffffffffffffff1614611ee2576040517f08c379a000000000000000000000000000000000000000000000000000000000815260040180806020018281038252600c8152602001807f556e617574686f72697a6564000000000000000000000000000000000000000081525060200191505060405180910390fd5b6002600160146101000a81548160ff02191690836002811115611f0157fe5b02179055507ff4e0c2a3ccfdad421c3e3559795347dd6fe723001df3ae4558bfd557ce59d6be60405160405180910390a1565b600560003373ffffffffffffffffffffffffffffffffffffffff1673ffffffffffffffffffffffffffffffffffffffff16815260200190815260200160002060009054906101000a900460ff16611ff3576040517f08c379a00000000000000000000000000000000000000000000000000000000081526004018080602001828103825260118152602001807f4e6f742061207061727469636970616e7400000000000000000000000000000081525060200191505060405180910390fd5b3460025481101561206c576040517f08c379a00000000000000000000000000000000000000000000000000000000081526004018080602001828103825260178152602001807f496e76616c696420707572636861736520616d6f756e7400000000000000000081525060200191505060405180910390fd5b600254348161207757fe5b0460035481600160009054906101000a900473ffffffffffffffffffffffffffffffffffffffff1673ffffffffffffffffffffffffffffffffffffffff166318160ddd6040518163ffffffff1660e01b815260040160206040518083038186803b1580156120e457600080fd5b505afa1580156120f8573d6000803e3d6000fd5b505050506040513d602081101561210e57600080fd5b81019080805190602001909291905050500110612176576040517f08c379a000000000000000000000000000000000000000000000000000000000815260040180806020018281038252602f8152602001806139ed602f913960400191505060405180910390fd5b600160009054906101000a900473ffffffffffffffffffffffffffffffffffffffff1673ffffffffffffffffffffffffffffffffffffffff166340c10f193360025434816121c057fe5b046040518363ffffffff1660e01b8152600401808373ffffffffffffffffffffffffffffffffffffffff1673ffffffffffffffffffffffffffffffffffffffff16815260200182815260200192505050600060405180830381600087803b15801561222a57600080fd5b505af115801561223e573d6000803e3d6000fd5b505050505050565b600560003373ffffffffffffffffffffffffffffffffffffffff1673ffffffffffffffffffffffffffffffffffffffff16815260200190815260200160002060009054906101000a900460ff16612305576040517f08c379a00000000000000000000000000000000000000000000000000000000081526004018080602001828103825260118152602001807f4e6f742061207061727469636970616e7400000000000000000000000000000081525060200191505060405180910390fd5b803373ffffffffffffffffffffffffffffffffffffffff166007600083815260200190815260200160002060000160009054906101000a900473ffffffffffffffffffffffffffffffffffffffff1673ffffffffffffffffffffffffffffffffffffffff16146123dd576040517f08c379a000000000000000000000000000000000000000000000000000000000815260040180806020018281038252600c8152602001807f556e617574686f72697a6564000000000000000000000000000000000000000081525060200191505060405180910390fd5b6002808111156123e957fe5b600160149054906101000a900460ff16600281111561240457fe5b14612477576040517f08c379a00000000000000000000000000000000000000000000000000000000081526004018080602001828103825260128152602001807f566f74696e67206e6f742077616974696e67000000000000000000000000000081525060200191505060405180910390fd5b6124808261312f565b5050565b600560003373ffffffffffffffffffffffffffffffffffffffff1673ffffffffffffffffffffffffffffffffffffffff16815260200190815260200160002060009054906101000a900460ff16612543576040517f08c379a00000000000000000000000000000000000000000000000000000000081526004018080602001828103825260118152602001807f4e6f742061207061727469636970616e7400000000000000000000000000000081525060200191505060405180910390fd5b6001600281111561255057fe5b600160149054906101000a900460ff16600281111561256b57fe5b146125de576040517f08c379a000000000000000000000000000000000000000000000000000000000815260040180806020018281038252600f8152602001807f566f74696e67206e6f74206f70656e000000000000000000000000000000000081525060200191505060405180910390fd5b803373ffffffffffffffffffffffffffffffffffffffff166007600083815260200190815260200160002060000160009054906101000a900473ffffffffffffffffffffffffffffffffffffffff1673ffffffffffffffffffffffffffffffffffffffff16146126b6576040517f08c379a000000000000000000000000000000000000000000000000000000000815260040180806020018281038252600c8152602001807f556e617574686f72697a6564000000000000000000000000000000000000000081525060200191505060405180910390fd5b81600060028111156126c457fe5b6007600083815260200190815260200160002060080160009054906101000a900460ff1660028111156126f357fe5b14612766576040517f08c379a00000000000000000000000000000000000000000000000000000000081526004018080602001828103825260148152602001807f50726f706f73616c206e6f7420656e61626c656400000000000000000000000081525060200191505060405180910390fd5b60016007600085815260200190815260200160002060080160006101000a81548160ff0219169083600281111561279957fe5b02179055507f91222b74076a9254a8ea367a3678ea96fbde84afe416fd6530a5777ea85a9bbe836040518082815260200191505060405180910390a1505050565b34600254811015612853576040517f08c379a00000000000000000000000000000000000000000000000000000000081526004018080602001828103825260178152602001807f496e76616c696420707572636861736520616d6f756e7400000000000000000081525060200191505060405180910390fd5b600560003373ffffffffffffffffffffffffffffffffffffffff1673ffffffffffffffffffffffffffffffffffffffff16815260200190815260200160002060009054906101000a900460ff1615612913576040517f08c379a00000000000000000000000000000000000000000000000000000000081526004018080602001828103825260138152602001807f416c7265616479207061727469636970616e740000000000000000000000000081525060200191505060405180910390fd5b6001600560003373ffffffffffffffffffffffffffffffffffffffff1673ffffffffffffffffffffffffffffffffffffffff16815260200190815260200160002060006101000a81548160ff021916908315150217905550600160009054906101000a900473ffffffffffffffffffffffffffffffffffffffff1673ffffffffffffffffffffffffffffffffffffffff166340c10f193360025434816129b557fe5b046040518363ffffffff1660e01b8152600401808373ffffffffffffffffffffffffffffffffffffffff1673ffffffffffffffffffffffffffffffffffffffff16815260200182815260200192505050600060405180830381600087803b158015612a1f57600080fd5b505af1158015612a33573d6000803e3d6000fd5b5050505060046000815480929190600101919050555050565b808060085411158015612a6157506009548111155b612ad3576040517f08c379a00000000000000000000000000000000000000000000000000000000081526004018080602001828103825260158152602001807f50726f706f73616c206964206e6f742076616c6964000000000000000000000081525060200191505060405180910390fd5b8160016002811115612ae157fe5b6007600083815260200190815260200160002060080160009054906101000a900460ff166002811115612b1057fe5b1415612b84576040517f08c379a00000000000000000000000000000000000000000000000000000000081526004018080602001828103825260118152602001807f50726f706f73616c2064697361626c656400000000000000000000000000000081525060200191505060405180910390fd5b6000612b90848661354b565b9050846007600086815260200190815260200160002060050160008282540392505081905550846007600086815260200190815260200160002060070160003373ffffffffffffffffffffffffffffffffffffffff1673ffffffffffffffffffffffffffffffffffffffff16815260200190815260200160002060008282540392505081905550806007600086815260200190815260200160002060060160008282540392505081905550600160009054906101000a900473ffffffffffffffffffffffffffffffffffffffff1673ffffffffffffffffffffffffffffffffffffffff1663a9059cbb33836040518363ffffffff1660e01b8152600401808373ffffffffffffffffffffffffffffffffffffffff1673ffffffffffffffffffffffffffffffffffffffff16815260200182815260200192505050602060405180830381600087803b158015612ce457600080fd5b505af1158015612cf8573d6000803e3d6000fd5b505050506040513d6020811015612d0e57600080fd5b8101908080519060200190929190505050505050505050565b60016002811115612d3457fe5b600160149054906101000a900460ff166002811115612d4f57fe5b1415612ef7576000612d61828461354b565b9050826007600084815260200190815260200160002060050160008282540392505081905550826007600084815260200190815260200160002060070160003373ffffffffffffffffffffffffffffffffffffffff1673ffffffffffffffffffffffffffffffffffffffff16815260200190815260200160002060008282540392505081905550806007600084815260200190815260200160002060060160008282540392505081905550600160009054906101000a900473ffffffffffffffffffffffffffffffffffffffff1673ffffffffffffffffffffffffffffffffffffffff1663a9059cbb33836040518363ffffffff1660e01b8152600401808373ffffffffffffffffffffffffffffffffffffffff1673ffffffffffffffffffffffffffffffffffffffff16815260200182815260200192505050602060405180830381600087803b158015612eb557600080fd5b505af1158015612ec9573d6000803e3d6000fd5b505050506040513d6020811015612edf57600080fd5b8101908080519060200190929190505050505061307b565b600280811115612f0357fe5b600160149054906101000a900460ff166002811115612f1e57fe5b141561307a576000612f30828461354b565b9050826007600084815260200190815260200160002060070160003373ffffffffffffffffffffffffffffffffffffffff1673ffffffffffffffffffffffffffffffffffffffff16815260200190815260200160002060008282540392505081905550600160009054906101000a900473ffffffffffffffffffffffffffffffffffffffff1673ffffffffffffffffffffffffffffffffffffffff1663a9059cbb33836040518363ffffffff1660e01b8152600401808373ffffffffffffffffffffffffffffffffffffffff1673ffffffffffffffffffffffffffffffffffffffff16815260200182815260200192505050602060405180830381600087803b15801561303c57600080fd5b505af1158015613050573d6000803e3d6000fd5b505050506040513d602081101561306657600080fd5b810190808051906020019092919050505050505b5b5050565b6000806007600085815260200190815260200160002060070160003373ffffffffffffffffffffffffffffffffffffffff1673ffffffffffffffffffffffffffffffffffffffff16815260200190815260200160002054905060006002820a90506000848301905060006002820a905082810394505050505092915050565b613107816135ca565b15613116576131158161312f565b5b50565b6000600681905550600160095401600881905550565b6006600081548092919060019003919050555060026007600083815260200190815260200160002060080160006101000a81548160ff0219169083600281111561317557fe5b02179055506131826138c4565b60076000838152602001908152602001600020604051806101200160405290816000820160009054906101000a900473ffffffffffffffffffffffffffffffffffffffff1673ffffffffffffffffffffffffffffffffffffffff1673ffffffffffffffffffffffffffffffffffffffff1681526020016001820160009054906101000a900473ffffffffffffffffffffffffffffffffffffffff1673ffffffffffffffffffffffffffffffffffffffff1673ffffffffffffffffffffffffffffffffffffffff168152602001600282018054600181600116156101000203166002900480601f0160208091040260200160405190810160405280929190818152602001828054600181600116156101000203166002900480156132e65780601f106132bb576101008083540402835291602001916132e6565b820191906000526020600020905b8154815290600101906020018083116132c957829003601f168201915b50505050508152602001600382018054600181600116156101000203166002900480601f0160208091040260200160405190810160405280929190818152602001828054600181600116156101000203166002900480156133885780601f1061335d57610100808354040283529160200191613388565b820191906000526020600020905b81548152906001019060200180831161336b57829003601f168201915b505050505081526020016004820154815260200160058201548152602001600682015481526020016008820160009054906101000a900460ff1660028111156133cd57fe5b60028111156133d857fe5b815260200160098201548152505090506000816080015111156134bb57600160009054906101000a900473ffffffffffffffffffffffffffffffffffffffff1673ffffffffffffffffffffffffffffffffffffffff16639dc29fac308360c001516040518363ffffffff1660e01b8152600401808373ffffffffffffffffffffffffffffffffffffffff1673ffffffffffffffffffffffffffffffffffffffff16815260200182815260200192505050600060405180830381600087803b1580156134a257600080fd5b505af11580156134b6573d6000803e3d6000fd5b505050505b806020015173ffffffffffffffffffffffffffffffffffffffff1663986cc3118260800151848460a001518560c001516040518563ffffffff1660e01b81526004018084815260200183815260200182815260200193505050506000604051808303818588803b15801561352e57600080fd5b505af1158015613542573d6000803e3d6000fd5b50505050505050565b6000806007600085815260200190815260200160002060070160003373ffffffffffffffffffffffffffffffffffffffff1673ffffffffffffffffffffffffffffffffffffffff16815260200190815260200160002054905060006002820a90506000848303905060006002820a905080830394505050505092915050565b60006135d46138c4565b60076000848152602001908152602001600020604051806101200160405290816000820160009054906101000a900473ffffffffffffffffffffffffffffffffffffffff1673ffffffffffffffffffffffffffffffffffffffff1673ffffffffffffffffffffffffffffffffffffffff1681526020016001820160009054906101000a900473ffffffffffffffffffffffffffffffffffffffff1673ffffffffffffffffffffffffffffffffffffffff1673ffffffffffffffffffffffffffffffffffffffff168152602001600282018054600181600116156101000203166002900480601f0160208091040260200160405190810160405280929190818152602001828054600181600116156101000203166002900480156137385780601f1061370d57610100808354040283529160200191613738565b820191906000526020600020905b81548152906001019060200180831161371b57829003601f168201915b50505050508152602001600382018054600181600116156101000203166002900480601f0160208091040260200160405190810160405280929190818152602001828054600181600116156101000203166002900480156137da5780601f106137af576101008083540402835291602001916137da565b820191906000526020600020905b8154815290600101906020018083116137bd57829003601f168201915b505050505081526020016004820154815260200160058201548152602001600682015481526020016008820160009054906101000a900460ff16600281111561381f57fe5b600281111561382a57fe5b81526020016009820154815250509050478160800151108015613858575061385183613860565b8160a00151115b915050919050565b6000600654600454600a804702600a6007600088815260200190815260200160002060040154028161388e57fe5b046002018161389957fe5b0402019050919050565b50805460008255906000526020600020908101906138c191906139c7565b50565b604051806101200160405280600073ffffffffffffffffffffffffffffffffffffffff168152602001600073ffffffffffffffffffffffffffffffffffffffff16815260200160608152602001606081526020016000815260200160008152602001600081526020016000600281111561393a57fe5b8152602001600081525090565b828054600181600116156101000203166002900490600052602060002090601f016020900481019282601f1061398857805160ff19168380011785556139b6565b828001600101855582156139b6579182015b828111156139b557825182559160200191906001019061399a565b5b5090506139c391906139c7565b5090565b6139e991905b808211156139e55760008160009055506001016139cd565b5090565b9056fe546865206d6178696d756d206e756d626572206f6620746f6b656e7320686173206265656e2067656e657261746564a265627a7a7231582099ad36012f3da02360910de6a0bbae04183bc3492fd1c7bd900b46883410a34764736f6c6343000511003260806040523480156200001157600080fd5b506040518060400160405280600381526020017f55434d00000000000000000000000000000000000000000000000000000000008152506040518060400160405280600381526020017f55434d0000000000000000000000000000000000000000000000000000000000815250600082600390805190602001906200009892919062000364565b508160049080519060200190620000b192919062000364565b5080600560006101000a81548160ff021916908360ff160217905550505050620000f0620000e46200013760201b60201c565b6200013f60201b60201c565b33600760006101000a81548173ffffffffffffffffffffffffffffffffffffffff021916908373ffffffffffffffffffffffffffffffffffffffff16021790555062000413565b600033905090565b6200015a816006620001a060201b620017d21790919060201c565b8073ffffffffffffffffffffffffffffffffffffffff167f6ae172837ea30b801fbfcdd4108aa1d5bf8ff775444fd70256b44e6bf3dfc3f660405160405180910390a250565b620001b282826200028460201b60201c565b1562000226576040517f08c379a000000000000000000000000000000000000000000000000000000000815260040180806020018281038252601f8152602001807f526f6c65733a206163636f756e7420616c72656164792068617320726f6c650081525060200191505060405180910390fd5b60018260000160008373ffffffffffffffffffffffffffffffffffffffff1673ffffffffffffffffffffffffffffffffffffffff16815260200190815260200160002060006101000a81548160ff0219169083151502179055505050565b60008073ffffffffffffffffffffffffffffffffffffffff168273ffffffffffffffffffffffffffffffffffffffff1614156200030d576040517f08c379a000000000000000000000000000000000000000000000000000000000815260040180806020018281038252602281526020018062001fc36022913960400191505060405180910390fd5b8260000160008373ffffffffffffffffffffffffffffffffffffffff1673ffffffffffffffffffffffffffffffffffffffff16815260200190815260200160002060009054906101000a900460ff16905092915050565b828054600181600116156101000203166002900490600052602060002090601f016020900481019282601f10620003a757805160ff1916838001178555620003d8565b82800160010185558215620003d8579182015b82811115620003d7578251825591602001919060010190620003ba565b5b509050620003e79190620003eb565b5090565b6200041091905b808211156200040c576000816000905550600101620003f2565b5090565b90565b611ba080620004236000396000f3fe608060405234801561001057600080fd5b50600436106101005760003560e01c806395d89b4111610097578063a457c2d711610066578063a457c2d7146104e1578063a9059cbb14610547578063aa271e1a146105ad578063dd62ed3e1461060957610100565b806395d89b41146103c2578063983b2d561461044557806398650275146104895780639dc29fac1461049357610100565b8063313ce567116100d3578063313ce5671461029257806339509351146102b657806340c10f191461031c57806370a082311461036a57610100565b806306fdde0314610105578063095ea7b31461018857806318160ddd146101ee57806323b872dd1461020c575b600080fd5b61010d610681565b6040518080602001828103825283818151815260200191508051906020019080838360005b8381101561014d578082015181840152602081019050610132565b50505050905090810190601f16801561017a5780820380516001836020036101000a031916815260200191505b509250505060405180910390f35b6101d46004803603604081101561019e57600080fd5b81019080803573ffffffffffffffffffffffffffffffffffffffff16906020019092919080359060200190929190505050610723565b604051808215151515815260200191505060405180910390f35b6101f6610741565b6040518082815260200191505060405180910390f35b6102786004803603606081101561022257600080fd5b81019080803573ffffffffffffffffffffffffffffffffffffffff169060200190929190803573ffffffffffffffffffffffffffffffffffffffff1690602001909291908035906020019092919050505061074b565b604051808215151515815260200191505060405180910390f35b61029a610824565b604051808260ff1660ff16815260200191505060405180910390f35b610302600480360360408110156102cc57600080fd5b81019080803573ffffffffffffffffffffffffffffffffffffffff1690602001909291908035906020019092919050505061083b565b604051808215151515815260200191505060405180910390f35b6103686004803603604081101561033257600080fd5b81019080803573ffffffffffffffffffffffffffffffffffffffff169060200190929190803590602001909291905050506108ee565b005b6103ac6004803603602081101561038057600080fd5b81019080803573ffffffffffffffffffffffffffffffffffffffff169060200190929190505050610961565b6040518082815260200191505060405180910390f35b6103ca6109a9565b6040518080602001828103825283818151815260200191508051906020019080838360005b8381101561040a5780820151818401526020810190506103ef565b50505050905090810190601f1680156104375780820380516001836020036101000a031916815260200191505b509250505060405180910390f35b6104876004803603602081101561045b57600080fd5b81019080803573ffffffffffffffffffffffffffffffffffffffff169060200190929190505050610a4b565b005b610491610abc565b005b6104df600480360360408110156104a957600080fd5b81019080803573ffffffffffffffffffffffffffffffffffffffff16906020019092919080359060200190929190505050610ace565b005b61052d600480360360408110156104f757600080fd5b81019080803573ffffffffffffffffffffffffffffffffffffffff16906020019092919080359060200190929190505050610b41565b604051808215151515815260200191505060405180910390f35b6105936004803603604081101561055d57600080fd5b81019080803573ffffffffffffffffffffffffffffffffffffffff16906020019092919080359060200190929190505050610c0e565b604051808215151515815260200191505060405180910390f35b6105ef600480360360208110156105c357600080fd5b81019080803573ffffffffffffffffffffffffffffffffffffffff169060200190929190505050610c2c565b604051808215151515815260200191505060405180910390f35b61066b6004803603604081101561061f57600080fd5b81019080803573ffffffffffffffffffffffffffffffffffffffff169060200190929190803573ffffffffffffffffffffffffffffffffffffffff169060200190929190505050610c49565b6040518082815260200191505060405180910390f35b606060038054600181600116156101000203166002900480601f0160208091040260200160405190810160405280929190818152602001828054600181600116156101000203166002900480156107195780601f106106ee57610100808354040283529160200191610719565b820191906000526020600020905b8154815290600101906020018083116106fc57829003601f168201915b5050505050905090565b6000610737610730610cd0565b8484610cd8565b6001905092915050565b6000600254905090565b6000610758848484610ecf565b61081984610764610cd0565b61081485604051806060016040528060288152602001611a9360289139600160008b73ffffffffffffffffffffffffffffffffffffffff1673ffffffffffffffffffffffffffffffffffffffff16815260200190815260200160002060006107ca610cd0565b73ffffffffffffffffffffffffffffffffffffffff1673ffffffffffffffffffffffffffffffffffffffff168152602001908152602001600020546111859092919063ffffffff16565b610cd8565b600190509392505050565b6000600560009054906101000a900460ff16905090565b60006108e4610848610cd0565b846108df8560016000610859610cd0565b73ffffffffffffffffffffffffffffffffffffffff1673ffffffffffffffffffffffffffffffffffffffff16815260200190815260200160002060008973ffffffffffffffffffffffffffffffffffffffff1673ffffffffffffffffffffffffffffffffffffffff1681526020019081526020016000205461124590919063ffffffff16565b610cd8565b6001905092915050565b6108fe6108f9610cd0565b610c2c565b610953576040517f08c379a0000000000000000000000000000000000000000000000000000000008152600401808060200182810382526030815260200180611a426030913960400191505060405180910390fd5b61095d82826112cd565b5050565b60008060008373ffffffffffffffffffffffffffffffffffffffff1673ffffffffffffffffffffffffffffffffffffffff168152602001908152602001600020549050919050565b606060048054600181600116156101000203166002900480601f016020809104026020016040519081016040528092919081815260200182805460018160011615610100020316600290048015610a415780601f10610a1657610100808354040283529160200191610a41565b820191906000526020600020905b815481529060010190602001808311610a2457829003601f168201915b5050505050905090565b610a5b610a56610cd0565b610c2c565b610ab0576040517f08c379a0000000000000000000000000000000000000000000000000000000008152600401808060200182810382526030815260200180611a426030913960400191505060405180910390fd5b610ab981611488565b50565b610acc610ac7610cd0565b6114e2565b565b610ade610ad9610cd0565b610c2c565b610b33576040517f08c379a0000000000000000000000000000000000000000000000000000000008152600401808060200182810382526030815260200180611a426030913960400191505060405180910390fd5b610b3d828261153c565b5050565b6000610c04610b4e610cd0565b84610bff85604051806060016040528060258152602001611b476025913960016000610b78610cd0565b73ffffffffffffffffffffffffffffffffffffffff1673ffffffffffffffffffffffffffffffffffffffff16815260200190815260200160002060008a73ffffffffffffffffffffffffffffffffffffffff1673ffffffffffffffffffffffffffffffffffffffff168152602001908152602001600020546111859092919063ffffffff16565b610cd8565b6001905092915050565b6000610c22610c1b610cd0565b8484610ecf565b6001905092915050565b6000610c428260066116f490919063ffffffff16565b9050919050565b6000600160008473ffffffffffffffffffffffffffffffffffffffff1673ffffffffffffffffffffffffffffffffffffffff16815260200190815260200160002060008373ffffffffffffffffffffffffffffffffffffffff1673ffffffffffffffffffffffffffffffffffffffff16815260200190815260200160002054905092915050565b600033905090565b600073ffffffffffffffffffffffffffffffffffffffff168373ffffffffffffffffffffffffffffffffffffffff161415610d5e576040517f08c379a0000000000000000000000000000000000000000000000000000000008152600401808060200182810382526024815260200180611b236024913960400191505060405180910390fd5b600073ffffffffffffffffffffffffffffffffffffffff168273ffffffffffffffffffffffffffffffffffffffff161415610de4576040517f08c379a00000000000000000000000000000000000000000000000000000000081526004018080602001828103825260228152602001806119fa6022913960400191505060405180910390fd5b80600160008573ffffffffffffffffffffffffffffffffffffffff1673ffffffffffffffffffffffffffffffffffffffff16815260200190815260200160002060008473ffffffffffffffffffffffffffffffffffffffff1673ffffffffffffffffffffffffffffffffffffffff168152602001908152602001600020819055508173ffffffffffffffffffffffffffffffffffffffff168373ffffffffffffffffffffffffffffffffffffffff167f8c5be1e5ebec7d5bd14f71427d1e84f3dd0314c0f7b2291e5b200ac8c7c3b925836040518082815260200191505060405180910390a3505050565b600073ffffffffffffffffffffffffffffffffffffffff168373ffffffffffffffffffffffffffffffffffffffff161415610f55576040517f08c379a0000000000000000000000000000000000000000000000000000000008152600401808060200182810382526025815260200180611afe6025913960400191505060405180910390fd5b600073ffffffffffffffffffffffffffffffffffffffff168273ffffffffffffffffffffffffffffffffffffffff161415610fdb576040517f08c379a00000000000000000000000000000000000000000000000000000000081526004018080602001828103825260238152602001806119b56023913960400191505060405180910390fd5b61104681604051806060016040528060268152602001611a1c602691396000808773ffffffffffffffffffffffffffffffffffffffff1673ffffffffffffffffffffffffffffffffffffffff168152602001908152602001600020546111859092919063ffffffff16565b6000808573ffffffffffffffffffffffffffffffffffffffff1673ffffffffffffffffffffffffffffffffffffffff168152602001908152602001600020819055506110d9816000808573ffffffffffffffffffffffffffffffffffffffff1673ffffffffffffffffffffffffffffffffffffffff1681526020019081526020016000205461124590919063ffffffff16565b6000808473ffffffffffffffffffffffffffffffffffffffff1673ffffffffffffffffffffffffffffffffffffffff168152602001908152602001600020819055508173ffffffffffffffffffffffffffffffffffffffff168373ffffffffffffffffffffffffffffffffffffffff167fddf252ad1be2c89b69c2b068fc378daa952ba7f163c4a11628f55a4df523b3ef836040518082815260200191505060405180910390a3505050565b6000838311158290611232576040517f08c379a00000000000000000000000000000000000000000000000000000000081526004018080602001828103825283818151815260200191508051906020019080838360005b838110156111f75780820151818401526020810190506111dc565b50505050905090810190601f1680156112245780820380516001836020036101000a031916815260200191505b509250505060405180910390fd5b5060008385039050809150509392505050565b6000808284019050838110156112c3576040517f08c379a000000000000000000000000000000000000000000000000000000000815260040180806020018281038252601b8152602001807f536166654d6174683a206164646974696f6e206f766572666c6f77000000000081525060200191505060405180910390fd5b8091505092915050565b600073ffffffffffffffffffffffffffffffffffffffff168273ffffffffffffffffffffffffffffffffffffffff161415611370576040517f08c379a000000000000000000000000000000000000000000000000000000000815260040180806020018281038252601f8152602001807f45524332303a206d696e7420746f20746865207a65726f20616464726573730081525060200191505060405180910390fd5b6113858160025461124590919063ffffffff16565b6002819055506113dc816000808573ffffffffffffffffffffffffffffffffffffffff1673ffffffffffffffffffffffffffffffffffffffff1681526020019081526020016000205461124590919063ffffffff16565b6000808473ffffffffffffffffffffffffffffffffffffffff1673ffffffffffffffffffffffffffffffffffffffff168152602001908152602001600020819055508173ffffffffffffffffffffffffffffffffffffffff16600073ffffffffffffffffffffffffffffffffffffffff167fddf252ad1be2c89b69c2b068fc378daa952ba7f163c4a11628f55a4df523b3ef836040518082815260200191505060405180910390a35050565b61149c8160066117d290919063ffffffff16565b8073ffffffffffffffffffffffffffffffffffffffff167f6ae172837ea30b801fbfcdd4108aa1d5bf8ff775444fd70256b44e6bf3dfc3f660405160405180910390a250565b6114f68160066118ad90919063ffffffff16565b8073ffffffffffffffffffffffffffffffffffffffff167fe94479a9f7e1952cc78f2d6baab678adc1b772d936c6583def489e524cb6669260405160405180910390a250565b600073ffffffffffffffffffffffffffffffffffffffff168273ffffffffffffffffffffffffffffffffffffffff1614156115c2576040517f08c379a0000000000000000000000000000000000000000000000000000000008152600401808060200182810382526021815260200180611add6021913960400191505060405180910390fd5b61162d816040518060600160405280602281526020016119d8602291396000808673ffffffffffffffffffffffffffffffffffffffff1673ffffffffffffffffffffffffffffffffffffffff168152602001908152602001600020546111859092919063ffffffff16565b6000808473ffffffffffffffffffffffffffffffffffffffff1673ffffffffffffffffffffffffffffffffffffffff168152602001908152602001600020819055506116848160025461196a90919063ffffffff16565b600281905550600073ffffffffffffffffffffffffffffffffffffffff168273ffffffffffffffffffffffffffffffffffffffff167fddf252ad1be2c89b69c2b068fc378daa952ba7f163c4a11628f55a4df523b3ef836040518082815260200191505060405180910390a35050565b60008073ffffffffffffffffffffffffffffffffffffffff168273ffffffffffffffffffffffffffffffffffffffff16141561177b576040517f08c379a0000000000000000000000000000000000000000000000000000000008152600401808060200182810382526022815260200180611abb6022913960400191505060405180910390fd5b8260000160008373ffffffffffffffffffffffffffffffffffffffff1673ffffffffffffffffffffffffffffffffffffffff16815260200190815260200160002060009054906101000a900460ff16905092915050565b6117dc82826116f4565b1561184f576040517f08c379a000000000000000000000000000000000000000000000000000000000815260040180806020018281038252601f8152602001807f526f6c65733a206163636f756e7420616c72656164792068617320726f6c650081525060200191505060405180910390fd5b60018260000160008373ffffffffffffffffffffffffffffffffffffffff1673ffffffffffffffffffffffffffffffffffffffff16815260200190815260200160002060006101000a81548160ff0219169083151502179055505050565b6118b782826116f4565b61190c576040517f08c379a0000000000000000000000000000000000000000000000000000000008152600401808060200182810382526021815260200180611a726021913960400191505060405180910390fd5b60008260000160008373ffffffffffffffffffffffffffffffffffffffff1673ffffffffffffffffffffffffffffffffffffffff16815260200190815260200160002060006101000a81548160ff0219169083151502179055505050565b60006119ac83836040518060400160405280601e81526020017f536166654d6174683a207375627472616374696f6e206f766572666c6f770000815250611185565b90509291505056fe45524332303a207472616e7366657220746f20746865207a65726f206164647265737345524332303a206275726e20616d6f756e7420657863656564732062616c616e636545524332303a20617070726f766520746f20746865207a65726f206164647265737345524332303a207472616e7366657220616d6f756e7420657863656564732062616c616e63654d696e746572526f6c653a2063616c6c657220646f6573206e6f74206861766520746865204d696e74657220726f6c65526f6c65733a206163636f756e7420646f6573206e6f74206861766520726f6c6545524332303a207472616e7366657220616d6f756e74206578636565647320616c6c6f77616e6365526f6c65733a206163636f756e7420697320746865207a65726f206164647265737345524332303a206275726e2066726f6d20746865207a65726f206164647265737345524332303a207472616e736665722066726f6d20746865207a65726f206164647265737345524332303a20617070726f76652066726f6d20746865207a65726f206164647265737345524332303a2064656372656173656420616c6c6f77616e63652062656c6f77207a65726fa265627a7a72315820c90b75124c28cc44f92e9328ab3351ee5f444fcba55979158b6a0d59a627d6ba64736f6c63430005110032526f6c65733a206163636f756e7420697320746865207a65726f2061646472657373",
					"opcodes": "PUSH1 0x80 PUSH1 0x40 MSTORE CALLVALUE DUP1 ISZERO PUSH3 0x11 JUMPI PUSH1 0x0 DUP1 REVERT JUMPDEST POP PUSH1 0x40 MLOAD PUSH3 0x5BAC CODESIZE SUB DUP1 PUSH3 0x5BAC DUP4 CODECOPY DUP2 DUP2 ADD PUSH1 0x40 MSTORE PUSH1 0x40 DUP2 LT ISZERO PUSH3 0x37 JUMPI PUSH1 0x0 DUP1 REVERT JUMPDEST DUP2 ADD SWAP1 DUP1 DUP1 MLOAD SWAP1 PUSH1 0x20 ADD SWAP1 SWAP3 SWAP2 SWAP1 DUP1 MLOAD SWAP1 PUSH1 0x20 ADD SWAP1 SWAP3 SWAP2 SWAP1 POP POP POP CALLER PUSH1 0x0 DUP1 PUSH2 0x100 EXP DUP2 SLOAD DUP2 PUSH20 0xFFFFFFFFFFFFFFFFFFFFFFFFFFFFFFFFFFFFFFFF MUL NOT AND SWAP1 DUP4 PUSH20 0xFFFFFFFFFFFFFFFFFFFFFFFFFFFFFFFFFFFFFFFF AND MUL OR SWAP1 SSTORE POP PUSH1 0x40 MLOAD PUSH3 0xA0 SWAP1 PUSH3 0x159 JUMP JUMPDEST PUSH1 0x40 MLOAD DUP1 SWAP2 SUB SWAP1 PUSH1 0x0 CREATE DUP1 ISZERO DUP1 ISZERO PUSH3 0xBD JUMPI RETURNDATASIZE PUSH1 0x0 DUP1 RETURNDATACOPY RETURNDATASIZE PUSH1 0x0 REVERT JUMPDEST POP PUSH1 0x1 PUSH1 0x0 PUSH2 0x100 EXP DUP2 SLOAD DUP2 PUSH20 0xFFFFFFFFFFFFFFFFFFFFFFFFFFFFFFFFFFFFFFFF MUL NOT AND SWAP1 DUP4 PUSH20 0xFFFFFFFFFFFFFFFFFFFFFFFFFFFFFFFFFFFFFFFF AND MUL OR SWAP1 SSTORE POP PUSH1 0x0 PUSH1 0x1 PUSH1 0x14 PUSH2 0x100 EXP DUP2 SLOAD DUP2 PUSH1 0xFF MUL NOT AND SWAP1 DUP4 PUSH1 0x2 DUP2 GT ISZERO PUSH3 0x11E JUMPI INVALID JUMPDEST MUL OR SWAP1 SSTORE POP DUP2 PUSH1 0x2 DUP2 SWAP1 SSTORE POP DUP1 PUSH1 0x3 DUP2 SWAP1 SSTORE POP PUSH1 0x0 PUSH1 0x4 DUP2 SWAP1 SSTORE POP PUSH1 0x0 PUSH1 0x6 DUP2 SWAP1 SSTORE POP PUSH1 0x1 PUSH1 0x8 DUP2 SWAP1 SSTORE POP PUSH1 0x0 PUSH1 0x9 DUP2 SWAP1 SSTORE POP POP POP PUSH3 0x167 JUMP JUMPDEST PUSH2 0x1FE5 DUP1 PUSH3 0x3BC7 DUP4 CODECOPY ADD SWAP1 JUMP JUMPDEST PUSH2 0x3A50 DUP1 PUSH3 0x177 PUSH1 0x0 CODECOPY PUSH1 0x0 RETURN INVALID PUSH1 0x80 PUSH1 0x40 MSTORE PUSH1 0x4 CALLDATASIZE LT PUSH2 0xE8 JUMPI PUSH1 0x0 CALLDATALOAD PUSH1 0xE0 SHR DUP1 PUSH4 0xA80DB6FC GT PUSH2 0x8A JUMPI DUP1 PUSH4 0xD0FEBE4C GT PUSH2 0x59 JUMPI DUP1 PUSH4 0xD0FEBE4C EQ PUSH2 0x5DA JUMPI DUP1 PUSH4 0xDA6001D1 EQ PUSH2 0x5E4 JUMPI DUP1 PUSH4 0xE0A8F6F5 EQ PUSH2 0x61F JUMPI DUP1 PUSH4 0xFFFEFD91 EQ PUSH2 0x65A JUMPI PUSH2 0xE8 JUMP JUMPDEST DUP1 PUSH4 0xA80DB6FC EQ PUSH2 0x3FA JUMPI DUP1 PUSH4 0xAFFC0670 EQ PUSH2 0x466 JUMPI DUP1 PUSH4 0xBC903CB8 EQ PUSH2 0x470 JUMPI DUP1 PUSH4 0xC631B292 EQ PUSH2 0x5C3 JUMPI PUSH2 0xE8 JUMP JUMPDEST DUP1 PUSH4 0x6C11BCD3 GT PUSH2 0xC6 JUMPI DUP1 PUSH4 0x6C11BCD3 EQ PUSH2 0x1F5 JUMPI DUP1 PUSH4 0x7B0472F0 EQ PUSH2 0x230 JUMPI DUP1 PUSH4 0x8E08A50B EQ PUSH2 0x275 JUMPI DUP1 PUSH4 0x9AB3F7A6 EQ PUSH2 0x2E1 JUMPI PUSH2 0xE8 JUMP JUMPDEST DUP1 PUSH4 0x3AC0FEAC EQ PUSH2 0xED JUMPI DUP1 PUSH4 0x4ECE90A8 EQ PUSH2 0x159 JUMPI DUP1 PUSH4 0x649C649C EQ PUSH2 0x1B0 JUMPI JUMPDEST PUSH1 0x0 DUP1 REVERT JUMPDEST CALLVALUE DUP1 ISZERO PUSH2 0xF9 JUMPI PUSH1 0x0 DUP1 REVERT JUMPDEST POP PUSH2 0x102 PUSH2 0x664 JUMP JUMPDEST PUSH1 0x40 MLOAD DUP1 DUP1 PUSH1 0x20 ADD DUP3 DUP2 SUB DUP3 MSTORE DUP4 DUP2 DUP2 MLOAD DUP2 MSTORE PUSH1 0x20 ADD SWAP2 POP DUP1 MLOAD SWAP1 PUSH1 0x20 ADD SWAP1 PUSH1 0x20 MUL DUP1 DUP4 DUP4 PUSH1 0x0 JUMPDEST DUP4 DUP2 LT ISZERO PUSH2 0x145 JUMPI DUP1 DUP3 ADD MLOAD DUP2 DUP5 ADD MSTORE PUSH1 0x20 DUP2 ADD SWAP1 POP PUSH2 0x12A JUMP JUMPDEST POP POP POP POP SWAP1 POP ADD SWAP3 POP POP POP PUSH1 0x40 MLOAD DUP1 SWAP2 SUB SWAP1 RETURN JUMPDEST CALLVALUE DUP1 ISZERO PUSH2 0x165 JUMPI PUSH1 0x0 DUP1 REVERT JUMPDEST POP PUSH2 0x16E PUSH2 0x814 JUMP JUMPDEST PUSH1 0x40 MLOAD DUP1 DUP3 PUSH20 0xFFFFFFFFFFFFFFFFFFFFFFFFFFFFFFFFFFFFFFFF AND PUSH20 0xFFFFFFFFFFFFFFFFFFFFFFFFFFFFFFFFFFFFFFFF AND DUP2 MSTORE PUSH1 0x20 ADD SWAP2 POP POP PUSH1 0x40 MLOAD DUP1 SWAP2 SUB SWAP1 RETURN JUMPDEST CALLVALUE DUP1 ISZERO PUSH2 0x1BC JUMPI PUSH1 0x0 DUP1 REVERT JUMPDEST POP PUSH2 0x1F3 PUSH1 0x4 DUP1 CALLDATASIZE SUB PUSH1 0x40 DUP2 LT ISZERO PUSH2 0x1D3 JUMPI PUSH1 0x0 DUP1 REVERT JUMPDEST DUP2 ADD SWAP1 DUP1 DUP1 CALLDATALOAD SWAP1 PUSH1 0x20 ADD SWAP1 SWAP3 SWAP2 SWAP1 DUP1 CALLDATALOAD SWAP1 PUSH1 0x20 ADD SWAP1 SWAP3 SWAP2 SWAP1 POP POP POP PUSH2 0x83E JUMP JUMPDEST STOP JUMPDEST CALLVALUE DUP1 ISZERO PUSH2 0x201 JUMPI PUSH1 0x0 DUP1 REVERT JUMPDEST POP PUSH2 0x22E PUSH1 0x4 DUP1 CALLDATASIZE SUB PUSH1 0x20 DUP2 LT ISZERO PUSH2 0x218 JUMPI PUSH1 0x0 DUP1 REVERT JUMPDEST DUP2 ADD SWAP1 DUP1 DUP1 CALLDATALOAD SWAP1 PUSH1 0x20 ADD SWAP1 SWAP3 SWAP2 SWAP1 POP POP POP PUSH2 0xA8F JUMP JUMPDEST STOP JUMPDEST CALLVALUE DUP1 ISZERO PUSH2 0x23C JUMPI PUSH1 0x0 DUP1 REVERT JUMPDEST POP PUSH2 0x273 PUSH1 0x4 DUP1 CALLDATASIZE SUB PUSH1 0x40 DUP2 LT ISZERO PUSH2 0x253 JUMPI PUSH1 0x0 DUP1 REVERT JUMPDEST DUP2 ADD SWAP1 DUP1 DUP1 CALLDATALOAD SWAP1 PUSH1 0x20 ADD SWAP1 SWAP3 SWAP2 SWAP1 DUP1 CALLDATALOAD SWAP1 PUSH1 0x20 ADD SWAP1 SWAP3 SWAP2 SWAP1 POP POP POP PUSH2 0xDAE JUMP JUMPDEST STOP JUMPDEST CALLVALUE DUP1 ISZERO PUSH2 0x281 JUMPI PUSH1 0x0 DUP1 REVERT JUMPDEST POP PUSH2 0x28A PUSH2 0x1269 JUMP JUMPDEST PUSH1 0x40 MLOAD DUP1 DUP1 PUSH1 0x20 ADD DUP3 DUP2 SUB DUP3 MSTORE DUP4 DUP2 DUP2 MLOAD DUP2 MSTORE PUSH1 0x20 ADD SWAP2 POP DUP1 MLOAD SWAP1 PUSH1 0x20 ADD SWAP1 PUSH1 0x20 MUL DUP1 DUP4 DUP4 PUSH1 0x0 JUMPDEST DUP4 DUP2 LT ISZERO PUSH2 0x2CD JUMPI DUP1 DUP3 ADD MLOAD DUP2 DUP5 ADD MSTORE PUSH1 0x20 DUP2 ADD SWAP1 POP PUSH2 0x2B2 JUMP JUMPDEST POP POP POP POP SWAP1 POP ADD SWAP3 POP POP POP PUSH1 0x40 MLOAD DUP1 SWAP2 SUB SWAP1 RETURN JUMPDEST CALLVALUE DUP1 ISZERO PUSH2 0x2ED JUMPI PUSH1 0x0 DUP1 REVERT JUMPDEST POP PUSH2 0x3E4 PUSH1 0x4 DUP1 CALLDATASIZE SUB PUSH1 0x80 DUP2 LT ISZERO PUSH2 0x304 JUMPI PUSH1 0x0 DUP1 REVERT JUMPDEST DUP2 ADD SWAP1 DUP1 DUP1 CALLDATALOAD SWAP1 PUSH1 0x20 ADD SWAP1 PUSH5 0x100000000 DUP2 GT ISZERO PUSH2 0x321 JUMPI PUSH1 0x0 DUP1 REVERT JUMPDEST DUP3 ADD DUP4 PUSH1 0x20 DUP3 ADD GT ISZERO PUSH2 0x333 JUMPI PUSH1 0x0 DUP1 REVERT JUMPDEST DUP1 CALLDATALOAD SWAP1 PUSH1 0x20 ADD SWAP2 DUP5 PUSH1 0x1 DUP4 MUL DUP5 ADD GT PUSH5 0x100000000 DUP4 GT OR ISZERO PUSH2 0x355 JUMPI PUSH1 0x0 DUP1 REVERT JUMPDEST SWAP1 SWAP2 SWAP3 SWAP4 SWAP2 SWAP3 SWAP4 SWAP1 DUP1 CALLDATALOAD SWAP1 PUSH1 0x20 ADD SWAP1 PUSH5 0x100000000 DUP2 GT ISZERO PUSH2 0x376 JUMPI PUSH1 0x0 DUP1 REVERT JUMPDEST DUP3 ADD DUP4 PUSH1 0x20 DUP3 ADD GT ISZERO PUSH2 0x388 JUMPI PUSH1 0x0 DUP1 REVERT JUMPDEST DUP1 CALLDATALOAD SWAP1 PUSH1 0x20 ADD SWAP2 DUP5 PUSH1 0x1 DUP4 MUL DUP5 ADD GT PUSH5 0x100000000 DUP4 GT OR ISZERO PUSH2 0x3AA JUMPI PUSH1 0x0 DUP1 REVERT JUMPDEST SWAP1 SWAP2 SWAP3 SWAP4 SWAP2 SWAP3 SWAP4 SWAP1 DUP1 CALLDATALOAD SWAP1 PUSH1 0x20 ADD SWAP1 SWAP3 SWAP2 SWAP1 DUP1 CALLDATALOAD PUSH20 0xFFFFFFFFFFFFFFFFFFFFFFFFFFFFFFFFFFFFFFFF AND SWAP1 PUSH1 0x20 ADD SWAP1 SWAP3 SWAP2 SWAP1 POP POP POP PUSH2 0x141B JUMP JUMPDEST PUSH1 0x40 MLOAD DUP1 DUP3 DUP2 MSTORE PUSH1 0x20 ADD SWAP2 POP POP PUSH1 0x40 MLOAD DUP1 SWAP2 SUB SWAP1 RETURN JUMPDEST CALLVALUE DUP1 ISZERO PUSH2 0x406 JUMPI PUSH1 0x0 DUP1 REVERT JUMPDEST POP PUSH2 0x40F PUSH2 0x1842 JUMP JUMPDEST PUSH1 0x40 MLOAD DUP1 DUP1 PUSH1 0x20 ADD DUP3 DUP2 SUB DUP3 MSTORE DUP4 DUP2 DUP2 MLOAD DUP2 MSTORE PUSH1 0x20 ADD SWAP2 POP DUP1 MLOAD SWAP1 PUSH1 0x20 ADD SWAP1 PUSH1 0x20 MUL DUP1 DUP4 DUP4 PUSH1 0x0 JUMPDEST DUP4 DUP2 LT ISZERO PUSH2 0x452 JUMPI DUP1 DUP3 ADD MLOAD DUP2 DUP5 ADD MSTORE PUSH1 0x20 DUP2 ADD SWAP1 POP PUSH2 0x437 JUMP JUMPDEST POP POP POP POP SWAP1 POP ADD SWAP3 POP POP POP PUSH1 0x40 MLOAD DUP1 SWAP2 SUB SWAP1 RETURN JUMPDEST PUSH2 0x46E PUSH2 0x19F3 JUMP JUMPDEST STOP JUMPDEST CALLVALUE DUP1 ISZERO PUSH2 0x47C JUMPI PUSH1 0x0 DUP1 REVERT JUMPDEST POP PUSH2 0x4A9 PUSH1 0x4 DUP1 CALLDATASIZE SUB PUSH1 0x20 DUP2 LT ISZERO PUSH2 0x493 JUMPI PUSH1 0x0 DUP1 REVERT JUMPDEST DUP2 ADD SWAP1 DUP1 DUP1 CALLDATALOAD SWAP1 PUSH1 0x20 ADD SWAP1 SWAP3 SWAP2 SWAP1 POP POP POP PUSH2 0x1BD8 JUMP JUMPDEST PUSH1 0x40 MLOAD DUP1 DUP1 PUSH1 0x20 ADD DUP1 PUSH1 0x20 ADD DUP5 PUSH20 0xFFFFFFFFFFFFFFFFFFFFFFFFFFFFFFFFFFFFFFFF AND PUSH20 0xFFFFFFFFFFFFFFFFFFFFFFFFFFFFFFFFFFFFFFFF AND DUP2 MSTORE PUSH1 0x20 ADD DUP4 DUP2 SUB DUP4 MSTORE DUP7 DUP2 DUP2 MLOAD DUP2 MSTORE PUSH1 0x20 ADD SWAP2 POP DUP1 MLOAD SWAP1 PUSH1 0x20 ADD SWAP1 DUP1 DUP4 DUP4 PUSH1 0x0 JUMPDEST DUP4 DUP2 LT ISZERO PUSH2 0x51F JUMPI DUP1 DUP3 ADD MLOAD DUP2 DUP5 ADD MSTORE PUSH1 0x20 DUP2 ADD SWAP1 POP PUSH2 0x504 JUMP JUMPDEST POP POP POP POP SWAP1 POP SWAP1 DUP2 ADD SWAP1 PUSH1 0x1F AND DUP1 ISZERO PUSH2 0x54C JUMPI DUP1 DUP3 SUB DUP1 MLOAD PUSH1 0x1 DUP4 PUSH1 0x20 SUB PUSH2 0x100 EXP SUB NOT AND DUP2 MSTORE PUSH1 0x20 ADD SWAP2 POP JUMPDEST POP DUP4 DUP2 SUB DUP3 MSTORE DUP6 DUP2 DUP2 MLOAD DUP2 MSTORE PUSH1 0x20 ADD SWAP2 POP DUP1 MLOAD SWAP1 PUSH1 0x20 ADD SWAP1 DUP1 DUP4 DUP4 PUSH1 0x0 JUMPDEST DUP4 DUP2 LT ISZERO PUSH2 0x585 JUMPI DUP1 DUP3 ADD MLOAD DUP2 DUP5 ADD MSTORE PUSH1 0x20 DUP2 ADD SWAP1 POP PUSH2 0x56A JUMP JUMPDEST POP POP POP POP SWAP1 POP SWAP1 DUP2 ADD SWAP1 PUSH1 0x1F AND DUP1 ISZERO PUSH2 0x5B2 JUMPI DUP1 DUP3 SUB DUP1 MLOAD PUSH1 0x1 DUP4 PUSH1 0x20 SUB PUSH2 0x100 EXP SUB NOT AND DUP2 MSTORE PUSH1 0x20 ADD SWAP2 POP JUMPDEST POP SWAP6 POP POP POP POP POP POP PUSH1 0x40 MLOAD DUP1 SWAP2 SUB SWAP1 RETURN JUMPDEST CALLVALUE DUP1 ISZERO PUSH2 0x5CF JUMPI PUSH1 0x0 DUP1 REVERT JUMPDEST POP PUSH2 0x5D8 PUSH2 0x1E20 JUMP JUMPDEST STOP JUMPDEST PUSH2 0x5E2 PUSH2 0x1F34 JUMP JUMPDEST STOP JUMPDEST CALLVALUE DUP1 ISZERO PUSH2 0x5F0 JUMPI PUSH1 0x0 DUP1 REVERT JUMPDEST POP PUSH2 0x61D PUSH1 0x4 DUP1 CALLDATASIZE SUB PUSH1 0x20 DUP2 LT ISZERO PUSH2 0x607 JUMPI PUSH1 0x0 DUP1 REVERT JUMPDEST DUP2 ADD SWAP1 DUP1 DUP1 CALLDATALOAD SWAP1 PUSH1 0x20 ADD SWAP1 SWAP3 SWAP2 SWAP1 POP POP POP PUSH2 0x2246 JUMP JUMPDEST STOP JUMPDEST CALLVALUE DUP1 ISZERO PUSH2 0x62B JUMPI PUSH1 0x0 DUP1 REVERT JUMPDEST POP PUSH2 0x658 PUSH1 0x4 DUP1 CALLDATASIZE SUB PUSH1 0x20 DUP2 LT ISZERO PUSH2 0x642 JUMPI PUSH1 0x0 DUP1 REVERT JUMPDEST DUP2 ADD SWAP1 DUP1 DUP1 CALLDATALOAD SWAP1 PUSH1 0x20 ADD SWAP1 SWAP3 SWAP2 SWAP1 POP POP POP PUSH2 0x2484 JUMP JUMPDEST STOP JUMPDEST PUSH2 0x662 PUSH2 0x27DA JUMP JUMPDEST STOP JUMPDEST PUSH1 0x60 PUSH1 0x1 PUSH1 0x2 DUP2 GT ISZERO PUSH2 0x673 JUMPI INVALID JUMPDEST PUSH1 0x1 PUSH1 0x14 SWAP1 SLOAD SWAP1 PUSH2 0x100 EXP SWAP1 DIV PUSH1 0xFF AND PUSH1 0x2 DUP2 GT ISZERO PUSH2 0x68E JUMPI INVALID JUMPDEST EQ PUSH2 0x701 JUMPI PUSH1 0x40 MLOAD PUSH32 0x8C379A000000000000000000000000000000000000000000000000000000000 DUP2 MSTORE PUSH1 0x4 ADD DUP1 DUP1 PUSH1 0x20 ADD DUP3 DUP2 SUB DUP3 MSTORE PUSH1 0xF DUP2 MSTORE PUSH1 0x20 ADD DUP1 PUSH32 0x566F74696E67206E6F74206F70656E0000000000000000000000000000000000 DUP2 MSTORE POP PUSH1 0x20 ADD SWAP2 POP POP PUSH1 0x40 MLOAD DUP1 SWAP2 SUB SWAP1 REVERT JUMPDEST PUSH1 0xB PUSH1 0x0 PUSH2 0x70F SWAP2 SWAP1 PUSH2 0x38A3 JUMP JUMPDEST PUSH1 0x0 PUSH1 0x8 SLOAD SWAP1 POP JUMPDEST PUSH1 0x9 SLOAD DUP2 GT PUSH2 0x7BD JUMPI PUSH1 0x2 DUP1 DUP2 GT ISZERO PUSH2 0x72C JUMPI INVALID JUMPDEST PUSH1 0x7 PUSH1 0x0 DUP4 DUP2 MSTORE PUSH1 0x20 ADD SWAP1 DUP2 MSTORE PUSH1 0x20 ADD PUSH1 0x0 KECCAK256 PUSH1 0x8 ADD PUSH1 0x0 SWAP1 SLOAD SWAP1 PUSH2 0x100 EXP SWAP1 DIV PUSH1 0xFF AND PUSH1 0x2 DUP2 GT ISZERO PUSH2 0x75B JUMPI INVALID JUMPDEST EQ DUP1 ISZERO PUSH2 0x77E JUMPI POP PUSH1 0x0 PUSH1 0x7 PUSH1 0x0 DUP4 DUP2 MSTORE PUSH1 0x20 ADD SWAP1 DUP2 MSTORE PUSH1 0x20 ADD PUSH1 0x0 KECCAK256 PUSH1 0x4 ADD SLOAD GT JUMPDEST ISZERO PUSH2 0x7B0 JUMPI PUSH1 0xB DUP2 SWAP1 DUP1 PUSH1 0x1 DUP2 SLOAD ADD DUP1 DUP3 SSTORE DUP1 SWAP2 POP POP SWAP1 PUSH1 0x1 DUP3 SUB SWAP1 PUSH1 0x0 MSTORE PUSH1 0x20 PUSH1 0x0 KECCAK256 ADD PUSH1 0x0 SWAP1 SWAP2 SWAP3 SWAP1 SWAP2 SWAP1 SWAP2 POP SSTORE POP JUMPDEST DUP1 DUP1 PUSH1 0x1 ADD SWAP2 POP POP PUSH2 0x717 JUMP JUMPDEST POP PUSH1 0xB DUP1 SLOAD DUP1 PUSH1 0x20 MUL PUSH1 0x20 ADD PUSH1 0x40 MLOAD SWAP1 DUP2 ADD PUSH1 0x40 MSTORE DUP1 SWAP3 SWAP2 SWAP1 DUP2 DUP2 MSTORE PUSH1 0x20 ADD DUP3 DUP1 SLOAD DUP1 ISZERO PUSH2 0x80A JUMPI PUSH1 0x20 MUL DUP3 ADD SWAP2 SWAP1 PUSH1 0x0 MSTORE PUSH1 0x20 PUSH1 0x0 KECCAK256 SWAP1 JUMPDEST DUP2 SLOAD DUP2 MSTORE PUSH1 0x20 ADD SWAP1 PUSH1 0x1 ADD SWAP1 DUP1 DUP4 GT PUSH2 0x7F6 JUMPI JUMPDEST POP POP POP POP POP SWAP1 POP SWAP1 JUMP JUMPDEST PUSH1 0x0 PUSH1 0x1 PUSH1 0x0 SWAP1 SLOAD SWAP1 PUSH2 0x100 EXP SWAP1 DIV PUSH20 0xFFFFFFFFFFFFFFFFFFFFFFFFFFFFFFFFFFFFFFFF AND SWAP1 POP SWAP1 JUMP JUMPDEST PUSH1 0x5 PUSH1 0x0 CALLER PUSH20 0xFFFFFFFFFFFFFFFFFFFFFFFFFFFFFFFFFFFFFFFF AND PUSH20 0xFFFFFFFFFFFFFFFFFFFFFFFFFFFFFFFFFFFFFFFF AND DUP2 MSTORE PUSH1 0x20 ADD SWAP1 DUP2 MSTORE PUSH1 0x20 ADD PUSH1 0x0 KECCAK256 PUSH1 0x0 SWAP1 SLOAD SWAP1 PUSH2 0x100 EXP SWAP1 DIV PUSH1 0xFF AND PUSH2 0x8FD JUMPI PUSH1 0x40 MLOAD PUSH32 0x8C379A000000000000000000000000000000000000000000000000000000000 DUP2 MSTORE PUSH1 0x4 ADD DUP1 DUP1 PUSH1 0x20 ADD DUP3 DUP2 SUB DUP3 MSTORE PUSH1 0x11 DUP2 MSTORE PUSH1 0x20 ADD DUP1 PUSH32 0x4E6F742061207061727469636970616E74000000000000000000000000000000 DUP2 MSTORE POP PUSH1 0x20 ADD SWAP2 POP POP PUSH1 0x40 MLOAD DUP1 SWAP2 SUB SWAP1 REVERT JUMPDEST DUP1 DUP1 PUSH1 0x8 SLOAD GT ISZERO DUP1 ISZERO PUSH2 0x912 JUMPI POP PUSH1 0x9 SLOAD DUP2 GT ISZERO JUMPDEST PUSH2 0x984 JUMPI PUSH1 0x40 MLOAD PUSH32 0x8C379A000000000000000000000000000000000000000000000000000000000 DUP2 MSTORE PUSH1 0x4 ADD DUP1 DUP1 PUSH1 0x20 ADD DUP3 DUP2 SUB DUP3 MSTORE PUSH1 0x15 DUP2 MSTORE PUSH1 0x20 ADD DUP1 PUSH32 0x50726F706F73616C206964206E6F742076616C69640000000000000000000000 DUP2 MSTORE POP PUSH1 0x20 ADD SWAP2 POP POP PUSH1 0x40 MLOAD DUP1 SWAP2 SUB SWAP1 REVERT JUMPDEST DUP2 DUP4 DUP1 PUSH1 0x7 PUSH1 0x0 DUP5 DUP2 MSTORE PUSH1 0x20 ADD SWAP1 DUP2 MSTORE PUSH1 0x20 ADD PUSH1 0x0 KECCAK256 PUSH1 0x7 ADD PUSH1 0x0 CALLER PUSH20 0xFFFFFFFFFFFFFFFFFFFFFFFFFFFFFFFFFFFFFFFF AND PUSH20 0xFFFFFFFFFFFFFFFFFFFFFFFFFFFFFFFFFFFFFFFF AND DUP2 MSTORE PUSH1 0x20 ADD SWAP1 DUP2 MSTORE PUSH1 0x20 ADD PUSH1 0x0 KECCAK256 SLOAD LT ISZERO PUSH2 0xA4F JUMPI PUSH1 0x40 MLOAD PUSH32 0x8C379A000000000000000000000000000000000000000000000000000000000 DUP2 MSTORE PUSH1 0x4 ADD DUP1 DUP1 PUSH1 0x20 ADD DUP3 DUP2 SUB DUP3 MSTORE PUSH1 0xC DUP2 MSTORE PUSH1 0x20 ADD DUP1 PUSH32 0x556E617574686F72697A65640000000000000000000000000000000000000000 DUP2 MSTORE POP PUSH1 0x20 ADD SWAP2 POP POP PUSH1 0x40 MLOAD DUP1 SWAP2 SUB SWAP1 REVERT JUMPDEST PUSH1 0x0 PUSH1 0x7 PUSH1 0x0 DUP7 DUP2 MSTORE PUSH1 0x20 ADD SWAP1 DUP2 MSTORE PUSH1 0x20 ADD PUSH1 0x0 KECCAK256 PUSH1 0x4 ADD SLOAD GT ISZERO PUSH2 0xA7D JUMPI PUSH2 0xA78 DUP6 DUP6 PUSH2 0x2A4C JUMP JUMPDEST PUSH2 0xA88 JUMP JUMPDEST PUSH2 0xA87 DUP6 DUP6 PUSH2 0x2D27 JUMP JUMPDEST JUMPDEST POP POP POP POP POP JUMP JUMPDEST PUSH1 0x5 PUSH1 0x0 CALLER PUSH20 0xFFFFFFFFFFFFFFFFFFFFFFFFFFFFFFFFFFFFFFFF AND PUSH20 0xFFFFFFFFFFFFFFFFFFFFFFFFFFFFFFFFFFFFFFFF AND DUP2 MSTORE PUSH1 0x20 ADD SWAP1 DUP2 MSTORE PUSH1 0x20 ADD PUSH1 0x0 KECCAK256 PUSH1 0x0 SWAP1 SLOAD SWAP1 PUSH2 0x100 EXP SWAP1 DIV PUSH1 0xFF AND PUSH2 0xB4E JUMPI PUSH1 0x40 MLOAD PUSH32 0x8C379A000000000000000000000000000000000000000000000000000000000 DUP2 MSTORE PUSH1 0x4 ADD DUP1 DUP1 PUSH1 0x20 ADD DUP3 DUP2 SUB DUP3 MSTORE PUSH1 0x11 DUP2 MSTORE PUSH1 0x20 ADD DUP1 PUSH32 0x4E6F742061207061727469636970616E74000000000000000000000000000000 DUP2 MSTORE POP PUSH1 0x20 ADD SWAP2 POP POP PUSH1 0x40 MLOAD DUP1 SWAP2 SUB SWAP1 REVERT JUMPDEST DUP1 PUSH1 0x1 PUSH1 0x0 SWAP1 SLOAD SWAP1 PUSH2 0x100 EXP SWAP1 DIV PUSH20 0xFFFFFFFFFFFFFFFFFFFFFFFFFFFFFFFFFFFFFFFF AND PUSH20 0xFFFFFFFFFFFFFFFFFFFFFFFFFFFFFFFFFFFFFFFF AND PUSH4 0x70A08231 CALLER PUSH1 0x40 MLOAD DUP3 PUSH4 0xFFFFFFFF AND PUSH1 0xE0 SHL DUP2 MSTORE PUSH1 0x4 ADD DUP1 DUP3 PUSH20 0xFFFFFFFFFFFFFFFFFFFFFFFFFFFFFFFFFFFFFFFF AND PUSH20 0xFFFFFFFFFFFFFFFFFFFFFFFFFFFFFFFFFFFFFFFF AND DUP2 MSTORE PUSH1 0x20 ADD SWAP2 POP POP PUSH1 0x20 PUSH1 0x40 MLOAD DUP1 DUP4 SUB DUP2 DUP7 DUP1 EXTCODESIZE ISZERO DUP1 ISZERO PUSH2 0xBEE JUMPI PUSH1 0x0 DUP1 REVERT JUMPDEST POP GAS STATICCALL ISZERO DUP1 ISZERO PUSH2 0xC02 JUMPI RETURNDATASIZE PUSH1 0x0 DUP1 RETURNDATACOPY RETURNDATASIZE PUSH1 0x0 REVERT JUMPDEST POP POP POP POP PUSH1 0x40 MLOAD RETURNDATASIZE PUSH1 0x20 DUP2 LT ISZERO PUSH2 0xC18 JUMPI PUSH1 0x0 DUP1 REVERT JUMPDEST DUP2 ADD SWAP1 DUP1 DUP1 MLOAD SWAP1 PUSH1 0x20 ADD SWAP1 SWAP3 SWAP2 SWAP1 POP POP POP DUP2 LT ISZERO PUSH2 0xC9E JUMPI PUSH1 0x40 MLOAD PUSH32 0x8C379A000000000000000000000000000000000000000000000000000000000 DUP2 MSTORE PUSH1 0x4 ADD DUP1 DUP1 PUSH1 0x20 ADD DUP3 DUP2 SUB DUP3 MSTORE PUSH1 0xE DUP2 MSTORE PUSH1 0x20 ADD DUP1 PUSH32 0x496E76616C696420616D6F756E74000000000000000000000000000000000000 DUP2 MSTORE POP PUSH1 0x20 ADD SWAP2 POP POP PUSH1 0x40 MLOAD DUP1 SWAP2 SUB SWAP1 REVERT JUMPDEST PUSH1 0x1 PUSH1 0x0 SWAP1 SLOAD SWAP1 PUSH2 0x100 EXP SWAP1 DIV PUSH20 0xFFFFFFFFFFFFFFFFFFFFFFFFFFFFFFFFFFFFFFFF AND PUSH20 0xFFFFFFFFFFFFFFFFFFFFFFFFFFFFFFFFFFFFFFFF AND PUSH4 0x9DC29FAC CALLER DUP5 PUSH1 0x40 MLOAD DUP4 PUSH4 0xFFFFFFFF AND PUSH1 0xE0 SHL DUP2 MSTORE PUSH1 0x4 ADD DUP1 DUP4 PUSH20 0xFFFFFFFFFFFFFFFFFFFFFFFFFFFFFFFFFFFFFFFF AND PUSH20 0xFFFFFFFFFFFFFFFFFFFFFFFFFFFFFFFFFFFFFFFF AND DUP2 MSTORE PUSH1 0x20 ADD DUP3 DUP2 MSTORE PUSH1 0x20 ADD SWAP3 POP POP POP PUSH1 0x0 PUSH1 0x40 MLOAD DUP1 DUP4 SUB DUP2 PUSH1 0x0 DUP8 DUP1 EXTCODESIZE ISZERO DUP1 ISZERO PUSH2 0xD47 JUMPI PUSH1 0x0 DUP1 REVERT JUMPDEST POP GAS CALL ISZERO DUP1 ISZERO PUSH2 0xD5B JUMPI RETURNDATASIZE PUSH1 0x0 DUP1 RETURNDATACOPY RETURNDATASIZE PUSH1 0x0 REVERT JUMPDEST POP POP POP POP CALLER PUSH20 0xFFFFFFFFFFFFFFFFFFFFFFFFFFFFFFFFFFFFFFFF AND PUSH2 0x8FC PUSH1 0x2 SLOAD DUP5 MUL SWAP1 DUP2 ISZERO MUL SWAP1 PUSH1 0x40 MLOAD PUSH1 0x0 PUSH1 0x40 MLOAD DUP1 DUP4 SUB DUP2 DUP6 DUP9 DUP9 CALL SWAP4 POP POP POP POP ISZERO DUP1 ISZERO PUSH2 0xDA9 JUMPI RETURNDATASIZE PUSH1 0x0 DUP1 RETURNDATACOPY RETURNDATASIZE PUSH1 0x0 REVERT JUMPDEST POP POP POP JUMP JUMPDEST PUSH1 0x5 PUSH1 0x0 CALLER PUSH20 0xFFFFFFFFFFFFFFFFFFFFFFFFFFFFFFFFFFFFFFFF AND PUSH20 0xFFFFFFFFFFFFFFFFFFFFFFFFFFFFFFFFFFFFFFFF AND DUP2 MSTORE PUSH1 0x20 ADD SWAP1 DUP2 MSTORE PUSH1 0x20 ADD PUSH1 0x0 KECCAK256 PUSH1 0x0 SWAP1 SLOAD SWAP1 PUSH2 0x100 EXP SWAP1 DIV PUSH1 0xFF AND PUSH2 0xE6D JUMPI PUSH1 0x40 MLOAD PUSH32 0x8C379A000000000000000000000000000000000000000000000000000000000 DUP2 MSTORE PUSH1 0x4 ADD DUP1 DUP1 PUSH1 0x20 ADD DUP3 DUP2 SUB DUP3 MSTORE PUSH1 0x11 DUP2 MSTORE PUSH1 0x20 ADD DUP1 PUSH32 0x4E6F742061207061727469636970616E74000000000000000000000000000000 DUP2 MSTORE POP PUSH1 0x20 ADD SWAP2 POP POP PUSH1 0x40 MLOAD DUP1 SWAP2 SUB SWAP1 REVERT JUMPDEST DUP2 DUP1 PUSH1 0x8 SLOAD GT ISZERO DUP1 ISZERO PUSH2 0xE82 JUMPI POP PUSH1 0x9 SLOAD DUP2 GT ISZERO JUMPDEST PUSH2 0xEF4 JUMPI PUSH1 0x40 MLOAD PUSH32 0x8C379A000000000000000000000000000000000000000000000000000000000 DUP2 MSTORE PUSH1 0x4 ADD DUP1 DUP1 PUSH1 0x20 ADD DUP3 DUP2 SUB DUP3 MSTORE PUSH1 0x15 DUP2 MSTORE PUSH1 0x20 ADD DUP1 PUSH32 0x50726F706F73616C206964206E6F742076616C69640000000000000000000000 DUP2 MSTORE POP PUSH1 0x20 ADD SWAP2 POP POP PUSH1 0x40 MLOAD DUP1 SWAP2 SUB SWAP1 REVERT JUMPDEST DUP3 PUSH1 0x0 PUSH1 0x2 DUP2 GT ISZERO PUSH2 0xF02 JUMPI INVALID JUMPDEST PUSH1 0x7 PUSH1 0x0 DUP4 DUP2 MSTORE PUSH1 0x20 ADD SWAP1 DUP2 MSTORE PUSH1 0x20 ADD PUSH1 0x0 KECCAK256 PUSH1 0x8 ADD PUSH1 0x0 SWAP1 SLOAD SWAP1 PUSH2 0x100 EXP SWAP1 DIV PUSH1 0xFF AND PUSH1 0x2 DUP2 GT ISZERO PUSH2 0xF31 JUMPI INVALID JUMPDEST EQ PUSH2 0xFA4 JUMPI PUSH1 0x40 MLOAD PUSH32 0x8C379A000000000000000000000000000000000000000000000000000000000 DUP2 MSTORE PUSH1 0x4 ADD DUP1 DUP1 PUSH1 0x20 ADD DUP3 DUP2 SUB DUP3 MSTORE PUSH1 0x14 DUP2 MSTORE PUSH1 0x20 ADD DUP1 PUSH32 0x50726F706F73616C206E6F7420656E61626C6564000000000000000000000000 DUP2 MSTORE POP PUSH1 0x20 ADD SWAP2 POP POP PUSH1 0x40 MLOAD DUP1 SWAP2 SUB SWAP1 REVERT JUMPDEST PUSH2 0xFAE DUP5 DUP5 PUSH2 0x307F JUMP JUMPDEST PUSH1 0x1 PUSH1 0x0 SWAP1 SLOAD SWAP1 PUSH2 0x100 EXP SWAP1 DIV PUSH20 0xFFFFFFFFFFFFFFFFFFFFFFFFFFFFFFFFFFFFFFFF AND PUSH20 0xFFFFFFFFFFFFFFFFFFFFFFFFFFFFFFFFFFFFFFFF AND PUSH4 0x70A08231 CALLER PUSH1 0x40 MLOAD DUP3 PUSH4 0xFFFFFFFF AND PUSH1 0xE0 SHL DUP2 MSTORE PUSH1 0x4 ADD DUP1 DUP3 PUSH20 0xFFFFFFFFFFFFFFFFFFFFFFFFFFFFFFFFFFFFFFFF AND PUSH20 0xFFFFFFFFFFFFFFFFFFFFFFFFFFFFFFFFFFFFFFFF AND DUP2 MSTORE PUSH1 0x20 ADD SWAP2 POP POP PUSH1 0x20 PUSH1 0x40 MLOAD DUP1 DUP4 SUB DUP2 DUP7 DUP1 EXTCODESIZE ISZERO DUP1 ISZERO PUSH2 0x104D JUMPI PUSH1 0x0 DUP1 REVERT JUMPDEST POP GAS STATICCALL ISZERO DUP1 ISZERO PUSH2 0x1061 JUMPI RETURNDATASIZE PUSH1 0x0 DUP1 RETURNDATACOPY RETURNDATASIZE PUSH1 0x0 REVERT JUMPDEST POP POP POP POP PUSH1 0x40 MLOAD RETURNDATASIZE PUSH1 0x20 DUP2 LT ISZERO PUSH2 0x1077 JUMPI PUSH1 0x0 DUP1 REVERT JUMPDEST DUP2 ADD SWAP1 DUP1 DUP1 MLOAD SWAP1 PUSH1 0x20 ADD SWAP1 SWAP3 SWAP2 SWAP1 POP POP POP DUP2 LT ISZERO PUSH2 0x10FD JUMPI PUSH1 0x40 MLOAD PUSH32 0x8C379A000000000000000000000000000000000000000000000000000000000 DUP2 MSTORE PUSH1 0x4 ADD DUP1 DUP1 PUSH1 0x20 ADD DUP3 DUP2 SUB DUP3 MSTORE PUSH1 0xE DUP2 MSTORE PUSH1 0x20 ADD DUP1 PUSH32 0x496E76616C696420616D6F756E74000000000000000000000000000000000000 DUP2 MSTORE POP PUSH1 0x20 ADD SWAP2 POP POP PUSH1 0x40 MLOAD DUP1 SWAP2 SUB SWAP1 REVERT JUMPDEST PUSH1 0x0 PUSH2 0x1109 DUP7 DUP7 PUSH2 0x307F JUMP JUMPDEST SWAP1 POP PUSH1 0x1 PUSH1 0x0 SWAP1 SLOAD SWAP1 PUSH2 0x100 EXP SWAP1 DIV PUSH20 0xFFFFFFFFFFFFFFFFFFFFFFFFFFFFFFFFFFFFFFFF AND PUSH20 0xFFFFFFFFFFFFFFFFFFFFFFFFFFFFFFFFFFFFFFFF AND PUSH4 0xA9059CBB ADDRESS DUP4 PUSH1 0x40 MLOAD DUP4 PUSH4 0xFFFFFFFF AND PUSH1 0xE0 SHL DUP2 MSTORE PUSH1 0x4 ADD DUP1 DUP4 PUSH20 0xFFFFFFFFFFFFFFFFFFFFFFFFFFFFFFFFFFFFFFFF AND PUSH20 0xFFFFFFFFFFFFFFFFFFFFFFFFFFFFFFFFFFFFFFFF AND DUP2 MSTORE PUSH1 0x20 ADD DUP3 DUP2 MSTORE PUSH1 0x20 ADD SWAP3 POP POP POP PUSH1 0x20 PUSH1 0x40 MLOAD DUP1 DUP4 SUB DUP2 PUSH1 0x0 DUP8 DUP1 EXTCODESIZE ISZERO DUP1 ISZERO PUSH2 0x11B4 JUMPI PUSH1 0x0 DUP1 REVERT JUMPDEST POP GAS CALL ISZERO DUP1 ISZERO PUSH2 0x11C8 JUMPI RETURNDATASIZE PUSH1 0x0 DUP1 RETURNDATACOPY RETURNDATASIZE PUSH1 0x0 REVERT JUMPDEST POP POP POP POP PUSH1 0x40 MLOAD RETURNDATASIZE PUSH1 0x20 DUP2 LT ISZERO PUSH2 0x11DE JUMPI PUSH1 0x0 DUP1 REVERT JUMPDEST DUP2 ADD SWAP1 DUP1 DUP1 MLOAD SWAP1 PUSH1 0x20 ADD SWAP1 SWAP3 SWAP2 SWAP1 POP POP POP POP DUP5 PUSH1 0x7 PUSH1 0x0 DUP9 DUP2 MSTORE PUSH1 0x20 ADD SWAP1 DUP2 MSTORE PUSH1 0x20 ADD PUSH1 0x0 KECCAK256 PUSH1 0x5 ADD PUSH1 0x0 DUP3 DUP3 SLOAD ADD SWAP3 POP POP DUP2 SWAP1 SSTORE POP DUP1 PUSH1 0x7 PUSH1 0x0 DUP9 DUP2 MSTORE PUSH1 0x20 ADD SWAP1 DUP2 MSTORE PUSH1 0x20 ADD PUSH1 0x0 KECCAK256 PUSH1 0x6 ADD PUSH1 0x0 DUP3 DUP3 SLOAD ADD SWAP3 POP POP DUP2 SWAP1 SSTORE POP PUSH1 0x0 PUSH1 0x7 PUSH1 0x0 DUP9 DUP2 MSTORE PUSH1 0x20 ADD SWAP1 DUP2 MSTORE PUSH1 0x20 ADD PUSH1 0x0 KECCAK256 PUSH1 0x4 ADD SLOAD GT ISZERO PUSH2 0x1261 JUMPI PUSH2 0x1260 DUP7 PUSH2 0x30FE JUMP JUMPDEST JUMPDEST POP POP POP POP POP POP JUMP JUMPDEST PUSH1 0x60 PUSH1 0x1 PUSH1 0x2 DUP2 GT ISZERO PUSH2 0x1278 JUMPI INVALID JUMPDEST PUSH1 0x1 PUSH1 0x14 SWAP1 SLOAD SWAP1 PUSH2 0x100 EXP SWAP1 DIV PUSH1 0xFF AND PUSH1 0x2 DUP2 GT ISZERO PUSH2 0x1293 JUMPI INVALID JUMPDEST EQ PUSH2 0x1306 JUMPI PUSH1 0x40 MLOAD PUSH32 0x8C379A000000000000000000000000000000000000000000000000000000000 DUP2 MSTORE PUSH1 0x4 ADD DUP1 DUP1 PUSH1 0x20 ADD DUP3 DUP2 SUB DUP3 MSTORE PUSH1 0xF DUP2 MSTORE PUSH1 0x20 ADD DUP1 PUSH32 0x566F74696E67206E6F74206F70656E0000000000000000000000000000000000 DUP2 MSTORE POP PUSH1 0x20 ADD SWAP2 POP POP PUSH1 0x40 MLOAD DUP1 SWAP2 SUB SWAP1 REVERT JUMPDEST PUSH1 0xC PUSH1 0x0 PUSH2 0x1314 SWAP2 SWAP1 PUSH2 0x38A3 JUMP JUMPDEST PUSH1 0x0 PUSH1 0x8 SLOAD SWAP1 POP JUMPDEST PUSH1 0x9 SLOAD DUP2 GT PUSH2 0x13C4 JUMPI PUSH1 0x1 PUSH1 0x2 DUP2 GT ISZERO PUSH2 0x1332 JUMPI INVALID JUMPDEST PUSH1 0x7 PUSH1 0x0 DUP4 DUP2 MSTORE PUSH1 0x20 ADD SWAP1 DUP2 MSTORE PUSH1 0x20 ADD PUSH1 0x0 KECCAK256 PUSH1 0x8 ADD PUSH1 0x0 SWAP1 SLOAD SWAP1 PUSH2 0x100 EXP SWAP1 DIV PUSH1 0xFF AND PUSH1 0x2 DUP2 GT ISZERO PUSH2 0x1361 JUMPI INVALID JUMPDEST EQ ISZERO DUP1 ISZERO PUSH2 0x1385 JUMPI POP PUSH1 0x0 PUSH1 0x7 PUSH1 0x0 DUP4 DUP2 MSTORE PUSH1 0x20 ADD SWAP1 DUP2 MSTORE PUSH1 0x20 ADD PUSH1 0x0 KECCAK256 PUSH1 0x4 ADD SLOAD EQ JUMPDEST ISZERO PUSH2 0x13B7 JUMPI PUSH1 0xC DUP2 SWAP1 DUP1 PUSH1 0x1 DUP2 SLOAD ADD DUP1 DUP3 SSTORE DUP1 SWAP2 POP POP SWAP1 PUSH1 0x1 DUP3 SUB SWAP1 PUSH1 0x0 MSTORE PUSH1 0x20 PUSH1 0x0 KECCAK256 ADD PUSH1 0x0 SWAP1 SWAP2 SWAP3 SWAP1 SWAP2 SWAP1 SWAP2 POP SSTORE POP JUMPDEST DUP1 DUP1 PUSH1 0x1 ADD SWAP2 POP POP PUSH2 0x131C JUMP JUMPDEST POP PUSH1 0xC DUP1 SLOAD DUP1 PUSH1 0x20 MUL PUSH1 0x20 ADD PUSH1 0x40 MLOAD SWAP1 DUP2 ADD PUSH1 0x40 MSTORE DUP1 SWAP3 SWAP2 SWAP1 DUP2 DUP2 MSTORE PUSH1 0x20 ADD DUP3 DUP1 SLOAD DUP1 ISZERO PUSH2 0x1411 JUMPI PUSH1 0x20 MUL DUP3 ADD SWAP2 SWAP1 PUSH1 0x0 MSTORE PUSH1 0x20 PUSH1 0x0 KECCAK256 SWAP1 JUMPDEST DUP2 SLOAD DUP2 MSTORE PUSH1 0x20 ADD SWAP1 PUSH1 0x1 ADD SWAP1 DUP1 DUP4 GT PUSH2 0x13FD JUMPI JUMPDEST POP POP POP POP POP SWAP1 POP SWAP1 JUMP JUMPDEST PUSH1 0x0 PUSH1 0x5 PUSH1 0x0 CALLER PUSH20 0xFFFFFFFFFFFFFFFFFFFFFFFFFFFFFFFFFFFFFFFF AND PUSH20 0xFFFFFFFFFFFFFFFFFFFFFFFFFFFFFFFFFFFFFFFF AND DUP2 MSTORE PUSH1 0x20 ADD SWAP1 DUP2 MSTORE PUSH1 0x20 ADD PUSH1 0x0 KECCAK256 PUSH1 0x0 SWAP1 SLOAD SWAP1 PUSH2 0x100 EXP SWAP1 DIV PUSH1 0xFF AND PUSH2 0x14DC JUMPI PUSH1 0x40 MLOAD PUSH32 0x8C379A000000000000000000000000000000000000000000000000000000000 DUP2 MSTORE PUSH1 0x4 ADD DUP1 DUP1 PUSH1 0x20 ADD DUP3 DUP2 SUB DUP3 MSTORE PUSH1 0x11 DUP2 MSTORE PUSH1 0x20 ADD DUP1 PUSH32 0x4E6F742061207061727469636970616E74000000000000000000000000000000 DUP2 MSTORE POP PUSH1 0x20 ADD SWAP2 POP POP PUSH1 0x40 MLOAD DUP1 SWAP2 SUB SWAP1 REVERT JUMPDEST PUSH1 0x1 PUSH1 0x2 DUP2 GT ISZERO PUSH2 0x14E9 JUMPI INVALID JUMPDEST PUSH1 0x1 PUSH1 0x14 SWAP1 SLOAD SWAP1 PUSH2 0x100 EXP SWAP1 DIV PUSH1 0xFF AND PUSH1 0x2 DUP2 GT ISZERO PUSH2 0x1504 JUMPI INVALID JUMPDEST EQ PUSH2 0x1577 JUMPI PUSH1 0x40 MLOAD PUSH32 0x8C379A000000000000000000000000000000000000000000000000000000000 DUP2 MSTORE PUSH1 0x4 ADD DUP1 DUP1 PUSH1 0x20 ADD DUP3 DUP2 SUB DUP3 MSTORE PUSH1 0xF DUP2 MSTORE PUSH1 0x20 ADD DUP1 PUSH32 0x566F74696E67206E6F74206F70656E0000000000000000000000000000000000 DUP2 MSTORE POP PUSH1 0x20 ADD SWAP2 POP POP PUSH1 0x40 MLOAD DUP1 SWAP2 SUB SWAP1 REVERT JUMPDEST PUSH2 0x157F PUSH2 0x38C4 JUMP JUMPDEST CALLER DUP2 PUSH1 0x0 ADD SWAP1 PUSH20 0xFFFFFFFFFFFFFFFFFFFFFFFFFFFFFFFFFFFFFFFF AND SWAP1 DUP2 PUSH20 0xFFFFFFFFFFFFFFFFFFFFFFFFFFFFFFFFFFFFFFFF AND DUP2 MSTORE POP POP DUP3 DUP2 PUSH1 0x20 ADD SWAP1 PUSH20 0xFFFFFFFFFFFFFFFFFFFFFFFFFFFFFFFFFFFFFFFF AND SWAP1 DUP2 PUSH20 0xFFFFFFFFFFFFFFFFFFFFFFFFFFFFFFFFFFFFFFFF AND DUP2 MSTORE POP POP DUP8 DUP8 DUP1 DUP1 PUSH1 0x1F ADD PUSH1 0x20 DUP1 SWAP2 DIV MUL PUSH1 0x20 ADD PUSH1 0x40 MLOAD SWAP1 DUP2 ADD PUSH1 0x40 MSTORE DUP1 SWAP4 SWAP3 SWAP2 SWAP1 DUP2 DUP2 MSTORE PUSH1 0x20 ADD DUP4 DUP4 DUP1 DUP3 DUP5 CALLDATACOPY PUSH1 0x0 DUP2 DUP5 ADD MSTORE PUSH1 0x1F NOT PUSH1 0x1F DUP3 ADD AND SWAP1 POP DUP1 DUP4 ADD SWAP3 POP POP POP POP POP POP POP DUP2 PUSH1 0x40 ADD DUP2 SWAP1 MSTORE POP DUP6 DUP6 DUP1 DUP1 PUSH1 0x1F ADD PUSH1 0x20 DUP1 SWAP2 DIV MUL PUSH1 0x20 ADD PUSH1 0x40 MLOAD SWAP1 DUP2 ADD PUSH1 0x40 MSTORE DUP1 SWAP4 SWAP3 SWAP2 SWAP1 DUP2 DUP2 MSTORE PUSH1 0x20 ADD DUP4 DUP4 DUP1 DUP3 DUP5 CALLDATACOPY PUSH1 0x0 DUP2 DUP5 ADD MSTORE PUSH1 0x1F NOT PUSH1 0x1F DUP3 ADD AND SWAP1 POP DUP1 DUP4 ADD SWAP3 POP POP POP POP POP POP POP DUP2 PUSH1 0x60 ADD DUP2 SWAP1 MSTORE POP DUP4 DUP2 PUSH1 0x80 ADD DUP2 DUP2 MSTORE POP POP PUSH1 0x0 DUP2 PUSH1 0xA0 ADD DUP2 DUP2 MSTORE POP POP PUSH1 0x0 DUP2 PUSH1 0xC0 ADD DUP2 DUP2 MSTORE POP POP PUSH1 0x0 DUP2 PUSH1 0xE0 ADD SWAP1 PUSH1 0x2 DUP2 GT ISZERO PUSH2 0x16BB JUMPI INVALID JUMPDEST SWAP1 DUP2 PUSH1 0x2 DUP2 GT ISZERO PUSH2 0x16C8 JUMPI INVALID JUMPDEST DUP2 MSTORE POP POP PUSH1 0x9 PUSH1 0x0 DUP2 SLOAD DUP1 SWAP3 SWAP2 SWAP1 PUSH1 0x1 ADD SWAP2 SWAP1 POP SSTORE POP DUP1 PUSH1 0x7 PUSH1 0x0 PUSH1 0x9 SLOAD DUP2 MSTORE PUSH1 0x20 ADD SWAP1 DUP2 MSTORE PUSH1 0x20 ADD PUSH1 0x0 KECCAK256 PUSH1 0x0 DUP3 ADD MLOAD DUP2 PUSH1 0x0 ADD PUSH1 0x0 PUSH2 0x100 EXP DUP2 SLOAD DUP2 PUSH20 0xFFFFFFFFFFFFFFFFFFFFFFFFFFFFFFFFFFFFFFFF MUL NOT AND SWAP1 DUP4 PUSH20 0xFFFFFFFFFFFFFFFFFFFFFFFFFFFFFFFFFFFFFFFF AND MUL OR SWAP1 SSTORE POP PUSH1 0x20 DUP3 ADD MLOAD DUP2 PUSH1 0x1 ADD PUSH1 0x0 PUSH2 0x100 EXP DUP2 SLOAD DUP2 PUSH20 0xFFFFFFFFFFFFFFFFFFFFFFFFFFFFFFFFFFFFFFFF MUL NOT AND SWAP1 DUP4 PUSH20 0xFFFFFFFFFFFFFFFFFFFFFFFFFFFFFFFFFFFFFFFF AND MUL OR SWAP1 SSTORE POP PUSH1 0x40 DUP3 ADD MLOAD DUP2 PUSH1 0x2 ADD SWAP1 DUP1 MLOAD SWAP1 PUSH1 0x20 ADD SWAP1 PUSH2 0x179E SWAP3 SWAP2 SWAP1 PUSH2 0x3947 JUMP JUMPDEST POP PUSH1 0x60 DUP3 ADD MLOAD DUP2 PUSH1 0x3 ADD SWAP1 DUP1 MLOAD SWAP1 PUSH1 0x20 ADD SWAP1 PUSH2 0x17BB SWAP3 SWAP2 SWAP1 PUSH2 0x3947 JUMP JUMPDEST POP PUSH1 0x80 DUP3 ADD MLOAD DUP2 PUSH1 0x4 ADD SSTORE PUSH1 0xA0 DUP3 ADD MLOAD DUP2 PUSH1 0x5 ADD SSTORE PUSH1 0xC0 DUP3 ADD MLOAD DUP2 PUSH1 0x6 ADD SSTORE PUSH1 0xE0 DUP3 ADD MLOAD DUP2 PUSH1 0x8 ADD PUSH1 0x0 PUSH2 0x100 EXP DUP2 SLOAD DUP2 PUSH1 0xFF MUL NOT AND SWAP1 DUP4 PUSH1 0x2 DUP2 GT ISZERO PUSH2 0x17FE JUMPI INVALID JUMPDEST MUL OR SWAP1 SSTORE POP PUSH2 0x100 DUP3 ADD MLOAD DUP2 PUSH1 0x9 ADD SSTORE SWAP1 POP POP PUSH1 0x6 PUSH1 0x0 DUP2 SLOAD DUP1 SWAP3 SWAP2 SWAP1 PUSH1 0x1 ADD SWAP2 SWAP1 POP SSTORE POP PUSH1 0x0 DUP5 EQ PUSH2 0x1836 JUMPI PUSH1 0x9 SLOAD SWAP2 POP POP PUSH2 0x1838 JUMP JUMPDEST POP JUMPDEST SWAP7 SWAP6 POP POP POP POP POP POP JUMP JUMPDEST PUSH1 0x60 PUSH1 0x1 PUSH1 0x2 DUP2 GT ISZERO PUSH2 0x1851 JUMPI INVALID JUMPDEST PUSH1 0x1 PUSH1 0x14 SWAP1 SLOAD SWAP1 PUSH2 0x100 EXP SWAP1 DIV PUSH1 0xFF AND PUSH1 0x2 DUP2 GT ISZERO PUSH2 0x186C JUMPI INVALID JUMPDEST EQ PUSH2 0x18DF JUMPI PUSH1 0x40 MLOAD PUSH32 0x8C379A000000000000000000000000000000000000000000000000000000000 DUP2 MSTORE PUSH1 0x4 ADD DUP1 DUP1 PUSH1 0x20 ADD DUP3 DUP2 SUB DUP3 MSTORE PUSH1 0xF DUP2 MSTORE PUSH1 0x20 ADD DUP1 PUSH32 0x566F74696E67206E6F74206F70656E0000000000000000000000000000000000 DUP2 MSTORE POP PUSH1 0x20 ADD SWAP2 POP POP PUSH1 0x40 MLOAD DUP1 SWAP2 SUB SWAP1 REVERT JUMPDEST PUSH1 0xA PUSH1 0x0 PUSH2 0x18ED SWAP2 SWAP1 PUSH2 0x38A3 JUMP JUMPDEST PUSH1 0x0 PUSH1 0x8 SLOAD SWAP1 POP JUMPDEST PUSH1 0x9 SLOAD DUP2 GT PUSH2 0x199C JUMPI PUSH1 0x0 PUSH1 0x2 DUP2 GT ISZERO PUSH2 0x190B JUMPI INVALID JUMPDEST PUSH1 0x7 PUSH1 0x0 DUP4 DUP2 MSTORE PUSH1 0x20 ADD SWAP1 DUP2 MSTORE PUSH1 0x20 ADD PUSH1 0x0 KECCAK256 PUSH1 0x8 ADD PUSH1 0x0 SWAP1 SLOAD SWAP1 PUSH2 0x100 EXP SWAP1 DIV PUSH1 0xFF AND PUSH1 0x2 DUP2 GT ISZERO PUSH2 0x193A JUMPI INVALID JUMPDEST EQ DUP1 ISZERO PUSH2 0x195D JUMPI POP PUSH1 0x0 PUSH1 0x7 PUSH1 0x0 DUP4 DUP2 MSTORE PUSH1 0x20 ADD SWAP1 DUP2 MSTORE PUSH1 0x20 ADD PUSH1 0x0 KECCAK256 PUSH1 0x4 ADD SLOAD GT JUMPDEST ISZERO PUSH2 0x198F JUMPI PUSH1 0xA DUP2 SWAP1 DUP1 PUSH1 0x1 DUP2 SLOAD ADD DUP1 DUP3 SSTORE DUP1 SWAP2 POP POP SWAP1 PUSH1 0x1 DUP3 SUB SWAP1 PUSH1 0x0 MSTORE PUSH1 0x20 PUSH1 0x0 KECCAK256 ADD PUSH1 0x0 SWAP1 SWAP2 SWAP3 SWAP1 SWAP2 SWAP1 SWAP2 POP SSTORE POP JUMPDEST DUP1 DUP1 PUSH1 0x1 ADD SWAP2 POP POP PUSH2 0x18F5 JUMP JUMPDEST POP PUSH1 0xA DUP1 SLOAD DUP1 PUSH1 0x20 MUL PUSH1 0x20 ADD PUSH1 0x40 MLOAD SWAP1 DUP2 ADD PUSH1 0x40 MSTORE DUP1 SWAP3 SWAP2 SWAP1 DUP2 DUP2 MSTORE PUSH1 0x20 ADD DUP3 DUP1 SLOAD DUP1 ISZERO PUSH2 0x19E9 JUMPI PUSH1 0x20 MUL DUP3 ADD SWAP2 SWAP1 PUSH1 0x0 MSTORE PUSH1 0x20 PUSH1 0x0 KECCAK256 SWAP1 JUMPDEST DUP2 SLOAD DUP2 MSTORE PUSH1 0x20 ADD SWAP1 PUSH1 0x1 ADD SWAP1 DUP1 DUP4 GT PUSH2 0x19D5 JUMPI JUMPDEST POP POP POP POP POP SWAP1 POP SWAP1 JUMP JUMPDEST PUSH1 0x0 DUP1 SWAP1 SLOAD SWAP1 PUSH2 0x100 EXP SWAP1 DIV PUSH20 0xFFFFFFFFFFFFFFFFFFFFFFFFFFFFFFFFFFFFFFFF AND PUSH20 0xFFFFFFFFFFFFFFFFFFFFFFFFFFFFFFFFFFFFFFFF AND CALLER PUSH20 0xFFFFFFFFFFFFFFFFFFFFFFFFFFFFFFFFFFFFFFFF AND EQ PUSH2 0x1AB5 JUMPI PUSH1 0x40 MLOAD PUSH32 0x8C379A000000000000000000000000000000000000000000000000000000000 DUP2 MSTORE PUSH1 0x4 ADD DUP1 DUP1 PUSH1 0x20 ADD DUP3 DUP2 SUB DUP3 MSTORE PUSH1 0xC DUP2 MSTORE PUSH1 0x20 ADD DUP1 PUSH32 0x556E617574686F72697A65640000000000000000000000000000000000000000 DUP2 MSTORE POP PUSH1 0x20 ADD SWAP2 POP POP PUSH1 0x40 MLOAD DUP1 SWAP2 SUB SWAP1 REVERT JUMPDEST PUSH1 0x2 DUP1 DUP2 GT ISZERO PUSH2 0x1AC1 JUMPI INVALID JUMPDEST PUSH1 0x1 PUSH1 0x14 SWAP1 SLOAD SWAP1 PUSH2 0x100 EXP SWAP1 DIV PUSH1 0xFF AND PUSH1 0x2 DUP2 GT ISZERO PUSH2 0x1ADC JUMPI INVALID JUMPDEST EQ DUP1 PUSH2 0x1B0D JUMPI POP PUSH1 0x0 PUSH1 0x2 DUP2 GT ISZERO PUSH2 0x1AF0 JUMPI INVALID JUMPDEST PUSH1 0x1 PUSH1 0x14 SWAP1 SLOAD SWAP1 PUSH2 0x100 EXP SWAP1 DIV PUSH1 0xFF AND PUSH1 0x2 DUP2 GT ISZERO PUSH2 0x1B0B JUMPI INVALID JUMPDEST EQ JUMPDEST PUSH2 0x1B7F JUMPI PUSH1 0x40 MLOAD PUSH32 0x8C379A000000000000000000000000000000000000000000000000000000000 DUP2 MSTORE PUSH1 0x4 ADD DUP1 DUP1 PUSH1 0x20 ADD DUP3 DUP2 SUB DUP3 MSTORE PUSH1 0x12 DUP2 MSTORE PUSH1 0x20 ADD DUP1 PUSH32 0x566F74696E672063616E6E6F74206F70656E0000000000000000000000000000 DUP2 MSTORE POP PUSH1 0x20 ADD SWAP2 POP POP PUSH1 0x40 MLOAD DUP1 SWAP2 SUB SWAP1 REVERT JUMPDEST PUSH1 0x1 DUP1 PUSH1 0x14 PUSH2 0x100 EXP DUP2 SLOAD DUP2 PUSH1 0xFF MUL NOT AND SWAP1 DUP4 PUSH1 0x2 DUP2 GT ISZERO PUSH2 0x1B9D JUMPI INVALID JUMPDEST MUL OR SWAP1 SSTORE POP PUSH2 0x1BAA PUSH2 0x3119 JUMP JUMPDEST PUSH32 0x1C9B9AE417B15D6782146A380A280B52403258CAAC00795087E065BBC9FB9E80 PUSH1 0x40 MLOAD PUSH1 0x40 MLOAD DUP1 SWAP2 SUB SWAP1 LOG1 JUMP JUMPDEST PUSH1 0x60 DUP1 PUSH1 0x0 PUSH1 0x1 PUSH1 0x2 DUP2 GT ISZERO PUSH2 0x1BEA JUMPI INVALID JUMPDEST PUSH1 0x1 PUSH1 0x14 SWAP1 SLOAD SWAP1 PUSH2 0x100 EXP SWAP1 DIV PUSH1 0xFF AND PUSH1 0x2 DUP2 GT ISZERO PUSH2 0x1C05 JUMPI INVALID JUMPDEST EQ PUSH2 0x1C78 JUMPI PUSH1 0x40 MLOAD PUSH32 0x8C379A000000000000000000000000000000000000000000000000000000000 DUP2 MSTORE PUSH1 0x4 ADD DUP1 DUP1 PUSH1 0x20 ADD DUP3 DUP2 SUB DUP3 MSTORE PUSH1 0xF DUP2 MSTORE PUSH1 0x20 ADD DUP1 PUSH32 0x566F74696E67206E6F74206F70656E0000000000000000000000000000000000 DUP2 MSTORE POP PUSH1 0x20 ADD SWAP2 POP POP PUSH1 0x40 MLOAD DUP1 SWAP2 SUB SWAP1 REVERT JUMPDEST PUSH1 0x7 PUSH1 0x0 DUP6 DUP2 MSTORE PUSH1 0x20 ADD SWAP1 DUP2 MSTORE PUSH1 0x20 ADD PUSH1 0x0 KECCAK256 PUSH1 0x2 ADD PUSH1 0x7 PUSH1 0x0 DUP7 DUP2 MSTORE PUSH1 0x20 ADD SWAP1 DUP2 MSTORE PUSH1 0x20 ADD PUSH1 0x0 KECCAK256 PUSH1 0x3 ADD PUSH1 0x7 PUSH1 0x0 DUP8 DUP2 MSTORE PUSH1 0x20 ADD SWAP1 DUP2 MSTORE PUSH1 0x20 ADD PUSH1 0x0 KECCAK256 PUSH1 0x1 ADD PUSH1 0x0 SWAP1 SLOAD SWAP1 PUSH2 0x100 EXP SWAP1 DIV PUSH20 0xFFFFFFFFFFFFFFFFFFFFFFFFFFFFFFFFFFFFFFFF AND DUP3 DUP1 SLOAD PUSH1 0x1 DUP2 PUSH1 0x1 AND ISZERO PUSH2 0x100 MUL SUB AND PUSH1 0x2 SWAP1 DIV DUP1 PUSH1 0x1F ADD PUSH1 0x20 DUP1 SWAP2 DIV MUL PUSH1 0x20 ADD PUSH1 0x40 MLOAD SWAP1 DUP2 ADD PUSH1 0x40 MSTORE DUP1 SWAP3 SWAP2 SWAP1 DUP2 DUP2 MSTORE PUSH1 0x20 ADD DUP3 DUP1 SLOAD PUSH1 0x1 DUP2 PUSH1 0x1 AND ISZERO PUSH2 0x100 MUL SUB AND PUSH1 0x2 SWAP1 DIV DUP1 ISZERO PUSH2 0x1D70 JUMPI DUP1 PUSH1 0x1F LT PUSH2 0x1D45 JUMPI PUSH2 0x100 DUP1 DUP4 SLOAD DIV MUL DUP4 MSTORE SWAP2 PUSH1 0x20 ADD SWAP2 PUSH2 0x1D70 JUMP JUMPDEST DUP3 ADD SWAP2 SWAP1 PUSH1 0x0 MSTORE PUSH1 0x20 PUSH1 0x0 KECCAK256 SWAP1 JUMPDEST DUP2 SLOAD DUP2 MSTORE SWAP1 PUSH1 0x1 ADD SWAP1 PUSH1 0x20 ADD DUP1 DUP4 GT PUSH2 0x1D53 JUMPI DUP3 SWAP1 SUB PUSH1 0x1F AND DUP3 ADD SWAP2 JUMPDEST POP POP POP POP POP SWAP3 POP DUP2 DUP1 SLOAD PUSH1 0x1 DUP2 PUSH1 0x1 AND ISZERO PUSH2 0x100 MUL SUB AND PUSH1 0x2 SWAP1 DIV DUP1 PUSH1 0x1F ADD PUSH1 0x20 DUP1 SWAP2 DIV MUL PUSH1 0x20 ADD PUSH1 0x40 MLOAD SWAP1 DUP2 ADD PUSH1 0x40 MSTORE DUP1 SWAP3 SWAP2 SWAP1 DUP2 DUP2 MSTORE PUSH1 0x20 ADD DUP3 DUP1 SLOAD PUSH1 0x1 DUP2 PUSH1 0x1 AND ISZERO PUSH2 0x100 MUL SUB AND PUSH1 0x2 SWAP1 DIV DUP1 ISZERO PUSH2 0x1E0C JUMPI DUP1 PUSH1 0x1F LT PUSH2 0x1DE1 JUMPI PUSH2 0x100 DUP1 DUP4 SLOAD DIV MUL DUP4 MSTORE SWAP2 PUSH1 0x20 ADD SWAP2 PUSH2 0x1E0C JUMP JUMPDEST DUP3 ADD SWAP2 SWAP1 PUSH1 0x0 MSTORE PUSH1 0x20 PUSH1 0x0 KECCAK256 SWAP1 JUMPDEST DUP2 SLOAD DUP2 MSTORE SWAP1 PUSH1 0x1 ADD SWAP1 PUSH1 0x20 ADD DUP1 DUP4 GT PUSH2 0x1DEF JUMPI DUP3 SWAP1 SUB PUSH1 0x1F AND DUP3 ADD SWAP2 JUMPDEST POP POP POP POP POP SWAP2 POP SWAP3 POP SWAP3 POP SWAP3 POP SWAP2 SWAP4 SWAP1 SWAP3 POP JUMP JUMPDEST PUSH1 0x0 DUP1 SWAP1 SLOAD SWAP1 PUSH2 0x100 EXP SWAP1 DIV PUSH20 0xFFFFFFFFFFFFFFFFFFFFFFFFFFFFFFFFFFFFFFFF AND PUSH20 0xFFFFFFFFFFFFFFFFFFFFFFFFFFFFFFFFFFFFFFFF AND CALLER PUSH20 0xFFFFFFFFFFFFFFFFFFFFFFFFFFFFFFFFFFFFFFFF AND EQ PUSH2 0x1EE2 JUMPI PUSH1 0x40 MLOAD PUSH32 0x8C379A000000000000000000000000000000000000000000000000000000000 DUP2 MSTORE PUSH1 0x4 ADD DUP1 DUP1 PUSH1 0x20 ADD DUP3 DUP2 SUB DUP3 MSTORE PUSH1 0xC DUP2 MSTORE PUSH1 0x20 ADD DUP1 PUSH32 0x556E617574686F72697A65640000000000000000000000000000000000000000 DUP2 MSTORE POP PUSH1 0x20 ADD SWAP2 POP POP PUSH1 0x40 MLOAD DUP1 SWAP2 SUB SWAP1 REVERT JUMPDEST PUSH1 0x2 PUSH1 0x1 PUSH1 0x14 PUSH2 0x100 EXP DUP2 SLOAD DUP2 PUSH1 0xFF MUL NOT AND SWAP1 DUP4 PUSH1 0x2 DUP2 GT ISZERO PUSH2 0x1F01 JUMPI INVALID JUMPDEST MUL OR SWAP1 SSTORE POP PUSH32 0xF4E0C2A3CCFDAD421C3E3559795347DD6FE723001DF3AE4558BFD557CE59D6BE PUSH1 0x40 MLOAD PUSH1 0x40 MLOAD DUP1 SWAP2 SUB SWAP1 LOG1 JUMP JUMPDEST PUSH1 0x5 PUSH1 0x0 CALLER PUSH20 0xFFFFFFFFFFFFFFFFFFFFFFFFFFFFFFFFFFFFFFFF AND PUSH20 0xFFFFFFFFFFFFFFFFFFFFFFFFFFFFFFFFFFFFFFFF AND DUP2 MSTORE PUSH1 0x20 ADD SWAP1 DUP2 MSTORE PUSH1 0x20 ADD PUSH1 0x0 KECCAK256 PUSH1 0x0 SWAP1 SLOAD SWAP1 PUSH2 0x100 EXP SWAP1 DIV PUSH1 0xFF AND PUSH2 0x1FF3 JUMPI PUSH1 0x40 MLOAD PUSH32 0x8C379A000000000000000000000000000000000000000000000000000000000 DUP2 MSTORE PUSH1 0x4 ADD DUP1 DUP1 PUSH1 0x20 ADD DUP3 DUP2 SUB DUP3 MSTORE PUSH1 0x11 DUP2 MSTORE PUSH1 0x20 ADD DUP1 PUSH32 0x4E6F742061207061727469636970616E74000000000000000000000000000000 DUP2 MSTORE POP PUSH1 0x20 ADD SWAP2 POP POP PUSH1 0x40 MLOAD DUP1 SWAP2 SUB SWAP1 REVERT JUMPDEST CALLVALUE PUSH1 0x2 SLOAD DUP2 LT ISZERO PUSH2 0x206C JUMPI PUSH1 0x40 MLOAD PUSH32 0x8C379A000000000000000000000000000000000000000000000000000000000 DUP2 MSTORE PUSH1 0x4 ADD DUP1 DUP1 PUSH1 0x20 ADD DUP3 DUP2 SUB DUP3 MSTORE PUSH1 0x17 DUP2 MSTORE PUSH1 0x20 ADD DUP1 PUSH32 0x496E76616C696420707572636861736520616D6F756E74000000000000000000 DUP2 MSTORE POP PUSH1 0x20 ADD SWAP2 POP POP PUSH1 0x40 MLOAD DUP1 SWAP2 SUB SWAP1 REVERT JUMPDEST PUSH1 0x2 SLOAD CALLVALUE DUP2 PUSH2 0x2077 JUMPI INVALID JUMPDEST DIV PUSH1 0x3 SLOAD DUP2 PUSH1 0x1 PUSH1 0x0 SWAP1 SLOAD SWAP1 PUSH2 0x100 EXP SWAP1 DIV PUSH20 0xFFFFFFFFFFFFFFFFFFFFFFFFFFFFFFFFFFFFFFFF AND PUSH20 0xFFFFFFFFFFFFFFFFFFFFFFFFFFFFFFFFFFFFFFFF AND PUSH4 0x18160DDD PUSH1 0x40 MLOAD DUP2 PUSH4 0xFFFFFFFF AND PUSH1 0xE0 SHL DUP2 MSTORE PUSH1 0x4 ADD PUSH1 0x20 PUSH1 0x40 MLOAD DUP1 DUP4 SUB DUP2 DUP7 DUP1 EXTCODESIZE ISZERO DUP1 ISZERO PUSH2 0x20E4 JUMPI PUSH1 0x0 DUP1 REVERT JUMPDEST POP GAS STATICCALL ISZERO DUP1 ISZERO PUSH2 0x20F8 JUMPI RETURNDATASIZE PUSH1 0x0 DUP1 RETURNDATACOPY RETURNDATASIZE PUSH1 0x0 REVERT JUMPDEST POP POP POP POP PUSH1 0x40 MLOAD RETURNDATASIZE PUSH1 0x20 DUP2 LT ISZERO PUSH2 0x210E JUMPI PUSH1 0x0 DUP1 REVERT JUMPDEST DUP2 ADD SWAP1 DUP1 DUP1 MLOAD SWAP1 PUSH1 0x20 ADD SWAP1 SWAP3 SWAP2 SWAP1 POP POP POP ADD LT PUSH2 0x2176 JUMPI PUSH1 0x40 MLOAD PUSH32 0x8C379A000000000000000000000000000000000000000000000000000000000 DUP2 MSTORE PUSH1 0x4 ADD DUP1 DUP1 PUSH1 0x20 ADD DUP3 DUP2 SUB DUP3 MSTORE PUSH1 0x2F DUP2 MSTORE PUSH1 0x20 ADD DUP1 PUSH2 0x39ED PUSH1 0x2F SWAP2 CODECOPY PUSH1 0x40 ADD SWAP2 POP POP PUSH1 0x40 MLOAD DUP1 SWAP2 SUB SWAP1 REVERT JUMPDEST PUSH1 0x1 PUSH1 0x0 SWAP1 SLOAD SWAP1 PUSH2 0x100 EXP SWAP1 DIV PUSH20 0xFFFFFFFFFFFFFFFFFFFFFFFFFFFFFFFFFFFFFFFF AND PUSH20 0xFFFFFFFFFFFFFFFFFFFFFFFFFFFFFFFFFFFFFFFF AND PUSH4 0x40C10F19 CALLER PUSH1 0x2 SLOAD CALLVALUE DUP2 PUSH2 0x21C0 JUMPI INVALID JUMPDEST DIV PUSH1 0x40 MLOAD DUP4 PUSH4 0xFFFFFFFF AND PUSH1 0xE0 SHL DUP2 MSTORE PUSH1 0x4 ADD DUP1 DUP4 PUSH20 0xFFFFFFFFFFFFFFFFFFFFFFFFFFFFFFFFFFFFFFFF AND PUSH20 0xFFFFFFFFFFFFFFFFFFFFFFFFFFFFFFFFFFFFFFFF AND DUP2 MSTORE PUSH1 0x20 ADD DUP3 DUP2 MSTORE PUSH1 0x20 ADD SWAP3 POP POP POP PUSH1 0x0 PUSH1 0x40 MLOAD DUP1 DUP4 SUB DUP2 PUSH1 0x0 DUP8 DUP1 EXTCODESIZE ISZERO DUP1 ISZERO PUSH2 0x222A JUMPI PUSH1 0x0 DUP1 REVERT JUMPDEST POP GAS CALL ISZERO DUP1 ISZERO PUSH2 0x223E JUMPI RETURNDATASIZE PUSH1 0x0 DUP1 RETURNDATACOPY RETURNDATASIZE PUSH1 0x0 REVERT JUMPDEST POP POP POP POP POP POP JUMP JUMPDEST PUSH1 0x5 PUSH1 0x0 CALLER PUSH20 0xFFFFFFFFFFFFFFFFFFFFFFFFFFFFFFFFFFFFFFFF AND PUSH20 0xFFFFFFFFFFFFFFFFFFFFFFFFFFFFFFFFFFFFFFFF AND DUP2 MSTORE PUSH1 0x20 ADD SWAP1 DUP2 MSTORE PUSH1 0x20 ADD PUSH1 0x0 KECCAK256 PUSH1 0x0 SWAP1 SLOAD SWAP1 PUSH2 0x100 EXP SWAP1 DIV PUSH1 0xFF AND PUSH2 0x2305 JUMPI PUSH1 0x40 MLOAD PUSH32 0x8C379A000000000000000000000000000000000000000000000000000000000 DUP2 MSTORE PUSH1 0x4 ADD DUP1 DUP1 PUSH1 0x20 ADD DUP3 DUP2 SUB DUP3 MSTORE PUSH1 0x11 DUP2 MSTORE PUSH1 0x20 ADD DUP1 PUSH32 0x4E6F742061207061727469636970616E74000000000000000000000000000000 DUP2 MSTORE POP PUSH1 0x20 ADD SWAP2 POP POP PUSH1 0x40 MLOAD DUP1 SWAP2 SUB SWAP1 REVERT JUMPDEST DUP1 CALLER PUSH20 0xFFFFFFFFFFFFFFFFFFFFFFFFFFFFFFFFFFFFFFFF AND PUSH1 0x7 PUSH1 0x0 DUP4 DUP2 MSTORE PUSH1 0x20 ADD SWAP1 DUP2 MSTORE PUSH1 0x20 ADD PUSH1 0x0 KECCAK256 PUSH1 0x0 ADD PUSH1 0x0 SWAP1 SLOAD SWAP1 PUSH2 0x100 EXP SWAP1 DIV PUSH20 0xFFFFFFFFFFFFFFFFFFFFFFFFFFFFFFFFFFFFFFFF AND PUSH20 0xFFFFFFFFFFFFFFFFFFFFFFFFFFFFFFFFFFFFFFFF AND EQ PUSH2 0x23DD JUMPI PUSH1 0x40 MLOAD PUSH32 0x8C379A000000000000000000000000000000000000000000000000000000000 DUP2 MSTORE PUSH1 0x4 ADD DUP1 DUP1 PUSH1 0x20 ADD DUP3 DUP2 SUB DUP3 MSTORE PUSH1 0xC DUP2 MSTORE PUSH1 0x20 ADD DUP1 PUSH32 0x556E617574686F72697A65640000000000000000000000000000000000000000 DUP2 MSTORE POP PUSH1 0x20 ADD SWAP2 POP POP PUSH1 0x40 MLOAD DUP1 SWAP2 SUB SWAP1 REVERT JUMPDEST PUSH1 0x2 DUP1 DUP2 GT ISZERO PUSH2 0x23E9 JUMPI INVALID JUMPDEST PUSH1 0x1 PUSH1 0x14 SWAP1 SLOAD SWAP1 PUSH2 0x100 EXP SWAP1 DIV PUSH1 0xFF AND PUSH1 0x2 DUP2 GT ISZERO PUSH2 0x2404 JUMPI INVALID JUMPDEST EQ PUSH2 0x2477 JUMPI PUSH1 0x40 MLOAD PUSH32 0x8C379A000000000000000000000000000000000000000000000000000000000 DUP2 MSTORE PUSH1 0x4 ADD DUP1 DUP1 PUSH1 0x20 ADD DUP3 DUP2 SUB DUP3 MSTORE PUSH1 0x12 DUP2 MSTORE PUSH1 0x20 ADD DUP1 PUSH32 0x566F74696E67206E6F742077616974696E670000000000000000000000000000 DUP2 MSTORE POP PUSH1 0x20 ADD SWAP2 POP POP PUSH1 0x40 MLOAD DUP1 SWAP2 SUB SWAP1 REVERT JUMPDEST PUSH2 0x2480 DUP3 PUSH2 0x312F JUMP JUMPDEST POP POP JUMP JUMPDEST PUSH1 0x5 PUSH1 0x0 CALLER PUSH20 0xFFFFFFFFFFFFFFFFFFFFFFFFFFFFFFFFFFFFFFFF AND PUSH20 0xFFFFFFFFFFFFFFFFFFFFFFFFFFFFFFFFFFFFFFFF AND DUP2 MSTORE PUSH1 0x20 ADD SWAP1 DUP2 MSTORE PUSH1 0x20 ADD PUSH1 0x0 KECCAK256 PUSH1 0x0 SWAP1 SLOAD SWAP1 PUSH2 0x100 EXP SWAP1 DIV PUSH1 0xFF AND PUSH2 0x2543 JUMPI PUSH1 0x40 MLOAD PUSH32 0x8C379A000000000000000000000000000000000000000000000000000000000 DUP2 MSTORE PUSH1 0x4 ADD DUP1 DUP1 PUSH1 0x20 ADD DUP3 DUP2 SUB DUP3 MSTORE PUSH1 0x11 DUP2 MSTORE PUSH1 0x20 ADD DUP1 PUSH32 0x4E6F742061207061727469636970616E74000000000000000000000000000000 DUP2 MSTORE POP PUSH1 0x20 ADD SWAP2 POP POP PUSH1 0x40 MLOAD DUP1 SWAP2 SUB SWAP1 REVERT JUMPDEST PUSH1 0x1 PUSH1 0x2 DUP2 GT ISZERO PUSH2 0x2550 JUMPI INVALID JUMPDEST PUSH1 0x1 PUSH1 0x14 SWAP1 SLOAD SWAP1 PUSH2 0x100 EXP SWAP1 DIV PUSH1 0xFF AND PUSH1 0x2 DUP2 GT ISZERO PUSH2 0x256B JUMPI INVALID JUMPDEST EQ PUSH2 0x25DE JUMPI PUSH1 0x40 MLOAD PUSH32 0x8C379A000000000000000000000000000000000000000000000000000000000 DUP2 MSTORE PUSH1 0x4 ADD DUP1 DUP1 PUSH1 0x20 ADD DUP3 DUP2 SUB DUP3 MSTORE PUSH1 0xF DUP2 MSTORE PUSH1 0x20 ADD DUP1 PUSH32 0x566F74696E67206E6F74206F70656E0000000000000000000000000000000000 DUP2 MSTORE POP PUSH1 0x20 ADD SWAP2 POP POP PUSH1 0x40 MLOAD DUP1 SWAP2 SUB SWAP1 REVERT JUMPDEST DUP1 CALLER PUSH20 0xFFFFFFFFFFFFFFFFFFFFFFFFFFFFFFFFFFFFFFFF AND PUSH1 0x7 PUSH1 0x0 DUP4 DUP2 MSTORE PUSH1 0x20 ADD SWAP1 DUP2 MSTORE PUSH1 0x20 ADD PUSH1 0x0 KECCAK256 PUSH1 0x0 ADD PUSH1 0x0 SWAP1 SLOAD SWAP1 PUSH2 0x100 EXP SWAP1 DIV PUSH20 0xFFFFFFFFFFFFFFFFFFFFFFFFFFFFFFFFFFFFFFFF AND PUSH20 0xFFFFFFFFFFFFFFFFFFFFFFFFFFFFFFFFFFFFFFFF AND EQ PUSH2 0x26B6 JUMPI PUSH1 0x40 MLOAD PUSH32 0x8C379A000000000000000000000000000000000000000000000000000000000 DUP2 MSTORE PUSH1 0x4 ADD DUP1 DUP1 PUSH1 0x20 ADD DUP3 DUP2 SUB DUP3 MSTORE PUSH1 0xC DUP2 MSTORE PUSH1 0x20 ADD DUP1 PUSH32 0x556E617574686F72697A65640000000000000000000000000000000000000000 DUP2 MSTORE POP PUSH1 0x20 ADD SWAP2 POP POP PUSH1 0x40 MLOAD DUP1 SWAP2 SUB SWAP1 REVERT JUMPDEST DUP2 PUSH1 0x0 PUSH1 0x2 DUP2 GT ISZERO PUSH2 0x26C4 JUMPI INVALID JUMPDEST PUSH1 0x7 PUSH1 0x0 DUP4 DUP2 MSTORE PUSH1 0x20 ADD SWAP1 DUP2 MSTORE PUSH1 0x20 ADD PUSH1 0x0 KECCAK256 PUSH1 0x8 ADD PUSH1 0x0 SWAP1 SLOAD SWAP1 PUSH2 0x100 EXP SWAP1 DIV PUSH1 0xFF AND PUSH1 0x2 DUP2 GT ISZERO PUSH2 0x26F3 JUMPI INVALID JUMPDEST EQ PUSH2 0x2766 JUMPI PUSH1 0x40 MLOAD PUSH32 0x8C379A000000000000000000000000000000000000000000000000000000000 DUP2 MSTORE PUSH1 0x4 ADD DUP1 DUP1 PUSH1 0x20 ADD DUP3 DUP2 SUB DUP3 MSTORE PUSH1 0x14 DUP2 MSTORE PUSH1 0x20 ADD DUP1 PUSH32 0x50726F706F73616C206E6F7420656E61626C6564000000000000000000000000 DUP2 MSTORE POP PUSH1 0x20 ADD SWAP2 POP POP PUSH1 0x40 MLOAD DUP1 SWAP2 SUB SWAP1 REVERT JUMPDEST PUSH1 0x1 PUSH1 0x7 PUSH1 0x0 DUP6 DUP2 MSTORE PUSH1 0x20 ADD SWAP1 DUP2 MSTORE PUSH1 0x20 ADD PUSH1 0x0 KECCAK256 PUSH1 0x8 ADD PUSH1 0x0 PUSH2 0x100 EXP DUP2 SLOAD DUP2 PUSH1 0xFF MUL NOT AND SWAP1 DUP4 PUSH1 0x2 DUP2 GT ISZERO PUSH2 0x2799 JUMPI INVALID JUMPDEST MUL OR SWAP1 SSTORE POP PUSH32 0x91222B74076A9254A8EA367A3678EA96FBDE84AFE416FD6530A5777EA85A9BBE DUP4 PUSH1 0x40 MLOAD DUP1 DUP3 DUP2 MSTORE PUSH1 0x20 ADD SWAP2 POP POP PUSH1 0x40 MLOAD DUP1 SWAP2 SUB SWAP1 LOG1 POP POP POP JUMP JUMPDEST CALLVALUE PUSH1 0x2 SLOAD DUP2 LT ISZERO PUSH2 0x2853 JUMPI PUSH1 0x40 MLOAD PUSH32 0x8C379A000000000000000000000000000000000000000000000000000000000 DUP2 MSTORE PUSH1 0x4 ADD DUP1 DUP1 PUSH1 0x20 ADD DUP3 DUP2 SUB DUP3 MSTORE PUSH1 0x17 DUP2 MSTORE PUSH1 0x20 ADD DUP1 PUSH32 0x496E76616C696420707572636861736520616D6F756E74000000000000000000 DUP2 MSTORE POP PUSH1 0x20 ADD SWAP2 POP POP PUSH1 0x40 MLOAD DUP1 SWAP2 SUB SWAP1 REVERT JUMPDEST PUSH1 0x5 PUSH1 0x0 CALLER PUSH20 0xFFFFFFFFFFFFFFFFFFFFFFFFFFFFFFFFFFFFFFFF AND PUSH20 0xFFFFFFFFFFFFFFFFFFFFFFFFFFFFFFFFFFFFFFFF AND DUP2 MSTORE PUSH1 0x20 ADD SWAP1 DUP2 MSTORE PUSH1 0x20 ADD PUSH1 0x0 KECCAK256 PUSH1 0x0 SWAP1 SLOAD SWAP1 PUSH2 0x100 EXP SWAP1 DIV PUSH1 0xFF AND ISZERO PUSH2 0x2913 JUMPI PUSH1 0x40 MLOAD PUSH32 0x8C379A000000000000000000000000000000000000000000000000000000000 DUP2 MSTORE PUSH1 0x4 ADD DUP1 DUP1 PUSH1 0x20 ADD DUP3 DUP2 SUB DUP3 MSTORE PUSH1 0x13 DUP2 MSTORE PUSH1 0x20 ADD DUP1 PUSH32 0x416C7265616479207061727469636970616E7400000000000000000000000000 DUP2 MSTORE POP PUSH1 0x20 ADD SWAP2 POP POP PUSH1 0x40 MLOAD DUP1 SWAP2 SUB SWAP1 REVERT JUMPDEST PUSH1 0x1 PUSH1 0x5 PUSH1 0x0 CALLER PUSH20 0xFFFFFFFFFFFFFFFFFFFFFFFFFFFFFFFFFFFFFFFF AND PUSH20 0xFFFFFFFFFFFFFFFFFFFFFFFFFFFFFFFFFFFFFFFF AND DUP2 MSTORE PUSH1 0x20 ADD SWAP1 DUP2 MSTORE PUSH1 0x20 ADD PUSH1 0x0 KECCAK256 PUSH1 0x0 PUSH2 0x100 EXP DUP2 SLOAD DUP2 PUSH1 0xFF MUL NOT AND SWAP1 DUP4 ISZERO ISZERO MUL OR SWAP1 SSTORE POP PUSH1 0x1 PUSH1 0x0 SWAP1 SLOAD SWAP1 PUSH2 0x100 EXP SWAP1 DIV PUSH20 0xFFFFFFFFFFFFFFFFFFFFFFFFFFFFFFFFFFFFFFFF AND PUSH20 0xFFFFFFFFFFFFFFFFFFFFFFFFFFFFFFFFFFFFFFFF AND PUSH4 0x40C10F19 CALLER PUSH1 0x2 SLOAD CALLVALUE DUP2 PUSH2 0x29B5 JUMPI INVALID JUMPDEST DIV PUSH1 0x40 MLOAD DUP4 PUSH4 0xFFFFFFFF AND PUSH1 0xE0 SHL DUP2 MSTORE PUSH1 0x4 ADD DUP1 DUP4 PUSH20 0xFFFFFFFFFFFFFFFFFFFFFFFFFFFFFFFFFFFFFFFF AND PUSH20 0xFFFFFFFFFFFFFFFFFFFFFFFFFFFFFFFFFFFFFFFF AND DUP2 MSTORE PUSH1 0x20 ADD DUP3 DUP2 MSTORE PUSH1 0x20 ADD SWAP3 POP POP POP PUSH1 0x0 PUSH1 0x40 MLOAD DUP1 DUP4 SUB DUP2 PUSH1 0x0 DUP8 DUP1 EXTCODESIZE ISZERO DUP1 ISZERO PUSH2 0x2A1F JUMPI PUSH1 0x0 DUP1 REVERT JUMPDEST POP GAS CALL ISZERO DUP1 ISZERO PUSH2 0x2A33 JUMPI RETURNDATASIZE PUSH1 0x0 DUP1 RETURNDATACOPY RETURNDATASIZE PUSH1 0x0 REVERT JUMPDEST POP POP POP POP PUSH1 0x4 PUSH1 0x0 DUP2 SLOAD DUP1 SWAP3 SWAP2 SWAP1 PUSH1 0x1 ADD SWAP2 SWAP1 POP SSTORE POP POP JUMP JUMPDEST DUP1 DUP1 PUSH1 0x8 SLOAD GT ISZERO DUP1 ISZERO PUSH2 0x2A61 JUMPI POP PUSH1 0x9 SLOAD DUP2 GT ISZERO JUMPDEST PUSH2 0x2AD3 JUMPI PUSH1 0x40 MLOAD PUSH32 0x8C379A000000000000000000000000000000000000000000000000000000000 DUP2 MSTORE PUSH1 0x4 ADD DUP1 DUP1 PUSH1 0x20 ADD DUP3 DUP2 SUB DUP3 MSTORE PUSH1 0x15 DUP2 MSTORE PUSH1 0x20 ADD DUP1 PUSH32 0x50726F706F73616C206964206E6F742076616C69640000000000000000000000 DUP2 MSTORE POP PUSH1 0x20 ADD SWAP2 POP POP PUSH1 0x40 MLOAD DUP1 SWAP2 SUB SWAP1 REVERT JUMPDEST DUP2 PUSH1 0x1 PUSH1 0x2 DUP2 GT ISZERO PUSH2 0x2AE1 JUMPI INVALID JUMPDEST PUSH1 0x7 PUSH1 0x0 DUP4 DUP2 MSTORE PUSH1 0x20 ADD SWAP1 DUP2 MSTORE PUSH1 0x20 ADD PUSH1 0x0 KECCAK256 PUSH1 0x8 ADD PUSH1 0x0 SWAP1 SLOAD SWAP1 PUSH2 0x100 EXP SWAP1 DIV PUSH1 0xFF AND PUSH1 0x2 DUP2 GT ISZERO PUSH2 0x2B10 JUMPI INVALID JUMPDEST EQ ISZERO PUSH2 0x2B84 JUMPI PUSH1 0x40 MLOAD PUSH32 0x8C379A000000000000000000000000000000000000000000000000000000000 DUP2 MSTORE PUSH1 0x4 ADD DUP1 DUP1 PUSH1 0x20 ADD DUP3 DUP2 SUB DUP3 MSTORE PUSH1 0x11 DUP2 MSTORE PUSH1 0x20 ADD DUP1 PUSH32 0x50726F706F73616C2064697361626C6564000000000000000000000000000000 DUP2 MSTORE POP PUSH1 0x20 ADD SWAP2 POP POP PUSH1 0x40 MLOAD DUP1 SWAP2 SUB SWAP1 REVERT JUMPDEST PUSH1 0x0 PUSH2 0x2B90 DUP5 DUP7 PUSH2 0x354B JUMP JUMPDEST SWAP1 POP DUP5 PUSH1 0x7 PUSH1 0x0 DUP7 DUP2 MSTORE PUSH1 0x20 ADD SWAP1 DUP2 MSTORE PUSH1 0x20 ADD PUSH1 0x0 KECCAK256 PUSH1 0x5 ADD PUSH1 0x0 DUP3 DUP3 SLOAD SUB SWAP3 POP POP DUP2 SWAP1 SSTORE POP DUP5 PUSH1 0x7 PUSH1 0x0 DUP7 DUP2 MSTORE PUSH1 0x20 ADD SWAP1 DUP2 MSTORE PUSH1 0x20 ADD PUSH1 0x0 KECCAK256 PUSH1 0x7 ADD PUSH1 0x0 CALLER PUSH20 0xFFFFFFFFFFFFFFFFFFFFFFFFFFFFFFFFFFFFFFFF AND PUSH20 0xFFFFFFFFFFFFFFFFFFFFFFFFFFFFFFFFFFFFFFFF AND DUP2 MSTORE PUSH1 0x20 ADD SWAP1 DUP2 MSTORE PUSH1 0x20 ADD PUSH1 0x0 KECCAK256 PUSH1 0x0 DUP3 DUP3 SLOAD SUB SWAP3 POP POP DUP2 SWAP1 SSTORE POP DUP1 PUSH1 0x7 PUSH1 0x0 DUP7 DUP2 MSTORE PUSH1 0x20 ADD SWAP1 DUP2 MSTORE PUSH1 0x20 ADD PUSH1 0x0 KECCAK256 PUSH1 0x6 ADD PUSH1 0x0 DUP3 DUP3 SLOAD SUB SWAP3 POP POP DUP2 SWAP1 SSTORE POP PUSH1 0x1 PUSH1 0x0 SWAP1 SLOAD SWAP1 PUSH2 0x100 EXP SWAP1 DIV PUSH20 0xFFFFFFFFFFFFFFFFFFFFFFFFFFFFFFFFFFFFFFFF AND PUSH20 0xFFFFFFFFFFFFFFFFFFFFFFFFFFFFFFFFFFFFFFFF AND PUSH4 0xA9059CBB CALLER DUP4 PUSH1 0x40 MLOAD DUP4 PUSH4 0xFFFFFFFF AND PUSH1 0xE0 SHL DUP2 MSTORE PUSH1 0x4 ADD DUP1 DUP4 PUSH20 0xFFFFFFFFFFFFFFFFFFFFFFFFFFFFFFFFFFFFFFFF AND PUSH20 0xFFFFFFFFFFFFFFFFFFFFFFFFFFFFFFFFFFFFFFFF AND DUP2 MSTORE PUSH1 0x20 ADD DUP3 DUP2 MSTORE PUSH1 0x20 ADD SWAP3 POP POP POP PUSH1 0x20 PUSH1 0x40 MLOAD DUP1 DUP4 SUB DUP2 PUSH1 0x0 DUP8 DUP1 EXTCODESIZE ISZERO DUP1 ISZERO PUSH2 0x2CE4 JUMPI PUSH1 0x0 DUP1 REVERT JUMPDEST POP GAS CALL ISZERO DUP1 ISZERO PUSH2 0x2CF8 JUMPI RETURNDATASIZE PUSH1 0x0 DUP1 RETURNDATACOPY RETURNDATASIZE PUSH1 0x0 REVERT JUMPDEST POP POP POP POP PUSH1 0x40 MLOAD RETURNDATASIZE PUSH1 0x20 DUP2 LT ISZERO PUSH2 0x2D0E JUMPI PUSH1 0x0 DUP1 REVERT JUMPDEST DUP2 ADD SWAP1 DUP1 DUP1 MLOAD SWAP1 PUSH1 0x20 ADD SWAP1 SWAP3 SWAP2 SWAP1 POP POP POP POP POP POP POP POP POP JUMP JUMPDEST PUSH1 0x1 PUSH1 0x2 DUP2 GT ISZERO PUSH2 0x2D34 JUMPI INVALID JUMPDEST PUSH1 0x1 PUSH1 0x14 SWAP1 SLOAD SWAP1 PUSH2 0x100 EXP SWAP1 DIV PUSH1 0xFF AND PUSH1 0x2 DUP2 GT ISZERO PUSH2 0x2D4F JUMPI INVALID JUMPDEST EQ ISZERO PUSH2 0x2EF7 JUMPI PUSH1 0x0 PUSH2 0x2D61 DUP3 DUP5 PUSH2 0x354B JUMP JUMPDEST SWAP1 POP DUP3 PUSH1 0x7 PUSH1 0x0 DUP5 DUP2 MSTORE PUSH1 0x20 ADD SWAP1 DUP2 MSTORE PUSH1 0x20 ADD PUSH1 0x0 KECCAK256 PUSH1 0x5 ADD PUSH1 0x0 DUP3 DUP3 SLOAD SUB SWAP3 POP POP DUP2 SWAP1 SSTORE POP DUP3 PUSH1 0x7 PUSH1 0x0 DUP5 DUP2 MSTORE PUSH1 0x20 ADD SWAP1 DUP2 MSTORE PUSH1 0x20 ADD PUSH1 0x0 KECCAK256 PUSH1 0x7 ADD PUSH1 0x0 CALLER PUSH20 0xFFFFFFFFFFFFFFFFFFFFFFFFFFFFFFFFFFFFFFFF AND PUSH20 0xFFFFFFFFFFFFFFFFFFFFFFFFFFFFFFFFFFFFFFFF AND DUP2 MSTORE PUSH1 0x20 ADD SWAP1 DUP2 MSTORE PUSH1 0x20 ADD PUSH1 0x0 KECCAK256 PUSH1 0x0 DUP3 DUP3 SLOAD SUB SWAP3 POP POP DUP2 SWAP1 SSTORE POP DUP1 PUSH1 0x7 PUSH1 0x0 DUP5 DUP2 MSTORE PUSH1 0x20 ADD SWAP1 DUP2 MSTORE PUSH1 0x20 ADD PUSH1 0x0 KECCAK256 PUSH1 0x6 ADD PUSH1 0x0 DUP3 DUP3 SLOAD SUB SWAP3 POP POP DUP2 SWAP1 SSTORE POP PUSH1 0x1 PUSH1 0x0 SWAP1 SLOAD SWAP1 PUSH2 0x100 EXP SWAP1 DIV PUSH20 0xFFFFFFFFFFFFFFFFFFFFFFFFFFFFFFFFFFFFFFFF AND PUSH20 0xFFFFFFFFFFFFFFFFFFFFFFFFFFFFFFFFFFFFFFFF AND PUSH4 0xA9059CBB CALLER DUP4 PUSH1 0x40 MLOAD DUP4 PUSH4 0xFFFFFFFF AND PUSH1 0xE0 SHL DUP2 MSTORE PUSH1 0x4 ADD DUP1 DUP4 PUSH20 0xFFFFFFFFFFFFFFFFFFFFFFFFFFFFFFFFFFFFFFFF AND PUSH20 0xFFFFFFFFFFFFFFFFFFFFFFFFFFFFFFFFFFFFFFFF AND DUP2 MSTORE PUSH1 0x20 ADD DUP3 DUP2 MSTORE PUSH1 0x20 ADD SWAP3 POP POP POP PUSH1 0x20 PUSH1 0x40 MLOAD DUP1 DUP4 SUB DUP2 PUSH1 0x0 DUP8 DUP1 EXTCODESIZE ISZERO DUP1 ISZERO PUSH2 0x2EB5 JUMPI PUSH1 0x0 DUP1 REVERT JUMPDEST POP GAS CALL ISZERO DUP1 ISZERO PUSH2 0x2EC9 JUMPI RETURNDATASIZE PUSH1 0x0 DUP1 RETURNDATACOPY RETURNDATASIZE PUSH1 0x0 REVERT JUMPDEST POP POP POP POP PUSH1 0x40 MLOAD RETURNDATASIZE PUSH1 0x20 DUP2 LT ISZERO PUSH2 0x2EDF JUMPI PUSH1 0x0 DUP1 REVERT JUMPDEST DUP2 ADD SWAP1 DUP1 DUP1 MLOAD SWAP1 PUSH1 0x20 ADD SWAP1 SWAP3 SWAP2 SWAP1 POP POP POP POP POP PUSH2 0x307B JUMP JUMPDEST PUSH1 0x2 DUP1 DUP2 GT ISZERO PUSH2 0x2F03 JUMPI INVALID JUMPDEST PUSH1 0x1 PUSH1 0x14 SWAP1 SLOAD SWAP1 PUSH2 0x100 EXP SWAP1 DIV PUSH1 0xFF AND PUSH1 0x2 DUP2 GT ISZERO PUSH2 0x2F1E JUMPI INVALID JUMPDEST EQ ISZERO PUSH2 0x307A JUMPI PUSH1 0x0 PUSH2 0x2F30 DUP3 DUP5 PUSH2 0x354B JUMP JUMPDEST SWAP1 POP DUP3 PUSH1 0x7 PUSH1 0x0 DUP5 DUP2 MSTORE PUSH1 0x20 ADD SWAP1 DUP2 MSTORE PUSH1 0x20 ADD PUSH1 0x0 KECCAK256 PUSH1 0x7 ADD PUSH1 0x0 CALLER PUSH20 0xFFFFFFFFFFFFFFFFFFFFFFFFFFFFFFFFFFFFFFFF AND PUSH20 0xFFFFFFFFFFFFFFFFFFFFFFFFFFFFFFFFFFFFFFFF AND DUP2 MSTORE PUSH1 0x20 ADD SWAP1 DUP2 MSTORE PUSH1 0x20 ADD PUSH1 0x0 KECCAK256 PUSH1 0x0 DUP3 DUP3 SLOAD SUB SWAP3 POP POP DUP2 SWAP1 SSTORE POP PUSH1 0x1 PUSH1 0x0 SWAP1 SLOAD SWAP1 PUSH2 0x100 EXP SWAP1 DIV PUSH20 0xFFFFFFFFFFFFFFFFFFFFFFFFFFFFFFFFFFFFFFFF AND PUSH20 0xFFFFFFFFFFFFFFFFFFFFFFFFFFFFFFFFFFFFFFFF AND PUSH4 0xA9059CBB CALLER DUP4 PUSH1 0x40 MLOAD DUP4 PUSH4 0xFFFFFFFF AND PUSH1 0xE0 SHL DUP2 MSTORE PUSH1 0x4 ADD DUP1 DUP4 PUSH20 0xFFFFFFFFFFFFFFFFFFFFFFFFFFFFFFFFFFFFFFFF AND PUSH20 0xFFFFFFFFFFFFFFFFFFFFFFFFFFFFFFFFFFFFFFFF AND DUP2 MSTORE PUSH1 0x20 ADD DUP3 DUP2 MSTORE PUSH1 0x20 ADD SWAP3 POP POP POP PUSH1 0x20 PUSH1 0x40 MLOAD DUP1 DUP4 SUB DUP2 PUSH1 0x0 DUP8 DUP1 EXTCODESIZE ISZERO DUP1 ISZERO PUSH2 0x303C JUMPI PUSH1 0x0 DUP1 REVERT JUMPDEST POP GAS CALL ISZERO DUP1 ISZERO PUSH2 0x3050 JUMPI RETURNDATASIZE PUSH1 0x0 DUP1 RETURNDATACOPY RETURNDATASIZE PUSH1 0x0 REVERT JUMPDEST POP POP POP POP PUSH1 0x40 MLOAD RETURNDATASIZE PUSH1 0x20 DUP2 LT ISZERO PUSH2 0x3066 JUMPI PUSH1 0x0 DUP1 REVERT JUMPDEST DUP2 ADD SWAP1 DUP1 DUP1 MLOAD SWAP1 PUSH1 0x20 ADD SWAP1 SWAP3 SWAP2 SWAP1 POP POP POP POP POP JUMPDEST JUMPDEST POP POP JUMP JUMPDEST PUSH1 0x0 DUP1 PUSH1 0x7 PUSH1 0x0 DUP6 DUP2 MSTORE PUSH1 0x20 ADD SWAP1 DUP2 MSTORE PUSH1 0x20 ADD PUSH1 0x0 KECCAK256 PUSH1 0x7 ADD PUSH1 0x0 CALLER PUSH20 0xFFFFFFFFFFFFFFFFFFFFFFFFFFFFFFFFFFFFFFFF AND PUSH20 0xFFFFFFFFFFFFFFFFFFFFFFFFFFFFFFFFFFFFFFFF AND DUP2 MSTORE PUSH1 0x20 ADD SWAP1 DUP2 MSTORE PUSH1 0x20 ADD PUSH1 0x0 KECCAK256 SLOAD SWAP1 POP PUSH1 0x0 PUSH1 0x2 DUP3 EXP SWAP1 POP PUSH1 0x0 DUP5 DUP4 ADD SWAP1 POP PUSH1 0x0 PUSH1 0x2 DUP3 EXP SWAP1 POP DUP3 DUP2 SUB SWAP5 POP POP POP POP POP SWAP3 SWAP2 POP POP JUMP JUMPDEST PUSH2 0x3107 DUP2 PUSH2 0x35CA JUMP JUMPDEST ISZERO PUSH2 0x3116 JUMPI PUSH2 0x3115 DUP2 PUSH2 0x312F JUMP JUMPDEST JUMPDEST POP JUMP JUMPDEST PUSH1 0x0 PUSH1 0x6 DUP2 SWAP1 SSTORE POP PUSH1 0x1 PUSH1 0x9 SLOAD ADD PUSH1 0x8 DUP2 SWAP1 SSTORE POP JUMP JUMPDEST PUSH1 0x6 PUSH1 0x0 DUP2 SLOAD DUP1 SWAP3 SWAP2 SWAP1 PUSH1 0x1 SWAP1 SUB SWAP2 SWAP1 POP SSTORE POP PUSH1 0x2 PUSH1 0x7 PUSH1 0x0 DUP4 DUP2 MSTORE PUSH1 0x20 ADD SWAP1 DUP2 MSTORE PUSH1 0x20 ADD PUSH1 0x0 KECCAK256 PUSH1 0x8 ADD PUSH1 0x0 PUSH2 0x100 EXP DUP2 SLOAD DUP2 PUSH1 0xFF MUL NOT AND SWAP1 DUP4 PUSH1 0x2 DUP2 GT ISZERO PUSH2 0x3175 JUMPI INVALID JUMPDEST MUL OR SWAP1 SSTORE POP PUSH2 0x3182 PUSH2 0x38C4 JUMP JUMPDEST PUSH1 0x7 PUSH1 0x0 DUP4 DUP2 MSTORE PUSH1 0x20 ADD SWAP1 DUP2 MSTORE PUSH1 0x20 ADD PUSH1 0x0 KECCAK256 PUSH1 0x40 MLOAD DUP1 PUSH2 0x120 ADD PUSH1 0x40 MSTORE SWAP1 DUP2 PUSH1 0x0 DUP3 ADD PUSH1 0x0 SWAP1 SLOAD SWAP1 PUSH2 0x100 EXP SWAP1 DIV PUSH20 0xFFFFFFFFFFFFFFFFFFFFFFFFFFFFFFFFFFFFFFFF AND PUSH20 0xFFFFFFFFFFFFFFFFFFFFFFFFFFFFFFFFFFFFFFFF AND PUSH20 0xFFFFFFFFFFFFFFFFFFFFFFFFFFFFFFFFFFFFFFFF AND DUP2 MSTORE PUSH1 0x20 ADD PUSH1 0x1 DUP3 ADD PUSH1 0x0 SWAP1 SLOAD SWAP1 PUSH2 0x100 EXP SWAP1 DIV PUSH20 0xFFFFFFFFFFFFFFFFFFFFFFFFFFFFFFFFFFFFFFFF AND PUSH20 0xFFFFFFFFFFFFFFFFFFFFFFFFFFFFFFFFFFFFFFFF AND PUSH20 0xFFFFFFFFFFFFFFFFFFFFFFFFFFFFFFFFFFFFFFFF AND DUP2 MSTORE PUSH1 0x20 ADD PUSH1 0x2 DUP3 ADD DUP1 SLOAD PUSH1 0x1 DUP2 PUSH1 0x1 AND ISZERO PUSH2 0x100 MUL SUB AND PUSH1 0x2 SWAP1 DIV DUP1 PUSH1 0x1F ADD PUSH1 0x20 DUP1 SWAP2 DIV MUL PUSH1 0x20 ADD PUSH1 0x40 MLOAD SWAP1 DUP2 ADD PUSH1 0x40 MSTORE DUP1 SWAP3 SWAP2 SWAP1 DUP2 DUP2 MSTORE PUSH1 0x20 ADD DUP3 DUP1 SLOAD PUSH1 0x1 DUP2 PUSH1 0x1 AND ISZERO PUSH2 0x100 MUL SUB AND PUSH1 0x2 SWAP1 DIV DUP1 ISZERO PUSH2 0x32E6 JUMPI DUP1 PUSH1 0x1F LT PUSH2 0x32BB JUMPI PUSH2 0x100 DUP1 DUP4 SLOAD DIV MUL DUP4 MSTORE SWAP2 PUSH1 0x20 ADD SWAP2 PUSH2 0x32E6 JUMP JUMPDEST DUP3 ADD SWAP2 SWAP1 PUSH1 0x0 MSTORE PUSH1 0x20 PUSH1 0x0 KECCAK256 SWAP1 JUMPDEST DUP2 SLOAD DUP2 MSTORE SWAP1 PUSH1 0x1 ADD SWAP1 PUSH1 0x20 ADD DUP1 DUP4 GT PUSH2 0x32C9 JUMPI DUP3 SWAP1 SUB PUSH1 0x1F AND DUP3 ADD SWAP2 JUMPDEST POP POP POP POP POP DUP2 MSTORE PUSH1 0x20 ADD PUSH1 0x3 DUP3 ADD DUP1 SLOAD PUSH1 0x1 DUP2 PUSH1 0x1 AND ISZERO PUSH2 0x100 MUL SUB AND PUSH1 0x2 SWAP1 DIV DUP1 PUSH1 0x1F ADD PUSH1 0x20 DUP1 SWAP2 DIV MUL PUSH1 0x20 ADD PUSH1 0x40 MLOAD SWAP1 DUP2 ADD PUSH1 0x40 MSTORE DUP1 SWAP3 SWAP2 SWAP1 DUP2 DUP2 MSTORE PUSH1 0x20 ADD DUP3 DUP1 SLOAD PUSH1 0x1 DUP2 PUSH1 0x1 AND ISZERO PUSH2 0x100 MUL SUB AND PUSH1 0x2 SWAP1 DIV DUP1 ISZERO PUSH2 0x3388 JUMPI DUP1 PUSH1 0x1F LT PUSH2 0x335D JUMPI PUSH2 0x100 DUP1 DUP4 SLOAD DIV MUL DUP4 MSTORE SWAP2 PUSH1 0x20 ADD SWAP2 PUSH2 0x3388 JUMP JUMPDEST DUP3 ADD SWAP2 SWAP1 PUSH1 0x0 MSTORE PUSH1 0x20 PUSH1 0x0 KECCAK256 SWAP1 JUMPDEST DUP2 SLOAD DUP2 MSTORE SWAP1 PUSH1 0x1 ADD SWAP1 PUSH1 0x20 ADD DUP1 DUP4 GT PUSH2 0x336B JUMPI DUP3 SWAP1 SUB PUSH1 0x1F AND DUP3 ADD SWAP2 JUMPDEST POP POP POP POP POP DUP2 MSTORE PUSH1 0x20 ADD PUSH1 0x4 DUP3 ADD SLOAD DUP2 MSTORE PUSH1 0x20 ADD PUSH1 0x5 DUP3 ADD SLOAD DUP2 MSTORE PUSH1 0x20 ADD PUSH1 0x6 DUP3 ADD SLOAD DUP2 MSTORE PUSH1 0x20 ADD PUSH1 0x8 DUP3 ADD PUSH1 0x0 SWAP1 SLOAD SWAP1 PUSH2 0x100 EXP SWAP1 DIV PUSH1 0xFF AND PUSH1 0x2 DUP2 GT ISZERO PUSH2 0x33CD JUMPI INVALID JUMPDEST PUSH1 0x2 DUP2 GT ISZERO PUSH2 0x33D8 JUMPI INVALID JUMPDEST DUP2 MSTORE PUSH1 0x20 ADD PUSH1 0x9 DUP3 ADD SLOAD DUP2 MSTORE POP POP SWAP1 POP PUSH1 0x0 DUP2 PUSH1 0x80 ADD MLOAD GT ISZERO PUSH2 0x34BB JUMPI PUSH1 0x1 PUSH1 0x0 SWAP1 SLOAD SWAP1 PUSH2 0x100 EXP SWAP1 DIV PUSH20 0xFFFFFFFFFFFFFFFFFFFFFFFFFFFFFFFFFFFFFFFF AND PUSH20 0xFFFFFFFFFFFFFFFFFFFFFFFFFFFFFFFFFFFFFFFF AND PUSH4 0x9DC29FAC ADDRESS DUP4 PUSH1 0xC0 ADD MLOAD PUSH1 0x40 MLOAD DUP4 PUSH4 0xFFFFFFFF AND PUSH1 0xE0 SHL DUP2 MSTORE PUSH1 0x4 ADD DUP1 DUP4 PUSH20 0xFFFFFFFFFFFFFFFFFFFFFFFFFFFFFFFFFFFFFFFF AND PUSH20 0xFFFFFFFFFFFFFFFFFFFFFFFFFFFFFFFFFFFFFFFF AND DUP2 MSTORE PUSH1 0x20 ADD DUP3 DUP2 MSTORE PUSH1 0x20 ADD SWAP3 POP POP POP PUSH1 0x0 PUSH1 0x40 MLOAD DUP1 DUP4 SUB DUP2 PUSH1 0x0 DUP8 DUP1 EXTCODESIZE ISZERO DUP1 ISZERO PUSH2 0x34A2 JUMPI PUSH1 0x0 DUP1 REVERT JUMPDEST POP GAS CALL ISZERO DUP1 ISZERO PUSH2 0x34B6 JUMPI RETURNDATASIZE PUSH1 0x0 DUP1 RETURNDATACOPY RETURNDATASIZE PUSH1 0x0 REVERT JUMPDEST POP POP POP POP JUMPDEST DUP1 PUSH1 0x20 ADD MLOAD PUSH20 0xFFFFFFFFFFFFFFFFFFFFFFFFFFFFFFFFFFFFFFFF AND PUSH4 0x986CC311 DUP3 PUSH1 0x80 ADD MLOAD DUP5 DUP5 PUSH1 0xA0 ADD MLOAD DUP6 PUSH1 0xC0 ADD MLOAD PUSH1 0x40 MLOAD DUP6 PUSH4 0xFFFFFFFF AND PUSH1 0xE0 SHL DUP2 MSTORE PUSH1 0x4 ADD DUP1 DUP5 DUP2 MSTORE PUSH1 0x20 ADD DUP4 DUP2 MSTORE PUSH1 0x20 ADD DUP3 DUP2 MSTORE PUSH1 0x20 ADD SWAP4 POP POP POP POP PUSH1 0x0 PUSH1 0x40 MLOAD DUP1 DUP4 SUB DUP2 DUP6 DUP9 DUP1 EXTCODESIZE ISZERO DUP1 ISZERO PUSH2 0x352E JUMPI PUSH1 0x0 DUP1 REVERT JUMPDEST POP GAS CALL ISZERO DUP1 ISZERO PUSH2 0x3542 JUMPI RETURNDATASIZE PUSH1 0x0 DUP1 RETURNDATACOPY RETURNDATASIZE PUSH1 0x0 REVERT JUMPDEST POP POP POP POP POP POP POP JUMP JUMPDEST PUSH1 0x0 DUP1 PUSH1 0x7 PUSH1 0x0 DUP6 DUP2 MSTORE PUSH1 0x20 ADD SWAP1 DUP2 MSTORE PUSH1 0x20 ADD PUSH1 0x0 KECCAK256 PUSH1 0x7 ADD PUSH1 0x0 CALLER PUSH20 0xFFFFFFFFFFFFFFFFFFFFFFFFFFFFFFFFFFFFFFFF AND PUSH20 0xFFFFFFFFFFFFFFFFFFFFFFFFFFFFFFFFFFFFFFFF AND DUP2 MSTORE PUSH1 0x20 ADD SWAP1 DUP2 MSTORE PUSH1 0x20 ADD PUSH1 0x0 KECCAK256 SLOAD SWAP1 POP PUSH1 0x0 PUSH1 0x2 DUP3 EXP SWAP1 POP PUSH1 0x0 DUP5 DUP4 SUB SWAP1 POP PUSH1 0x0 PUSH1 0x2 DUP3 EXP SWAP1 POP DUP1 DUP4 SUB SWAP5 POP POP POP POP POP SWAP3 SWAP2 POP POP JUMP JUMPDEST PUSH1 0x0 PUSH2 0x35D4 PUSH2 0x38C4 JUMP JUMPDEST PUSH1 0x7 PUSH1 0x0 DUP5 DUP2 MSTORE PUSH1 0x20 ADD SWAP1 DUP2 MSTORE PUSH1 0x20 ADD PUSH1 0x0 KECCAK256 PUSH1 0x40 MLOAD DUP1 PUSH2 0x120 ADD PUSH1 0x40 MSTORE SWAP1 DUP2 PUSH1 0x0 DUP3 ADD PUSH1 0x0 SWAP1 SLOAD SWAP1 PUSH2 0x100 EXP SWAP1 DIV PUSH20 0xFFFFFFFFFFFFFFFFFFFFFFFFFFFFFFFFFFFFFFFF AND PUSH20 0xFFFFFFFFFFFFFFFFFFFFFFFFFFFFFFFFFFFFFFFF AND PUSH20 0xFFFFFFFFFFFFFFFFFFFFFFFFFFFFFFFFFFFFFFFF AND DUP2 MSTORE PUSH1 0x20 ADD PUSH1 0x1 DUP3 ADD PUSH1 0x0 SWAP1 SLOAD SWAP1 PUSH2 0x100 EXP SWAP1 DIV PUSH20 0xFFFFFFFFFFFFFFFFFFFFFFFFFFFFFFFFFFFFFFFF AND PUSH20 0xFFFFFFFFFFFFFFFFFFFFFFFFFFFFFFFFFFFFFFFF AND PUSH20 0xFFFFFFFFFFFFFFFFFFFFFFFFFFFFFFFFFFFFFFFF AND DUP2 MSTORE PUSH1 0x20 ADD PUSH1 0x2 DUP3 ADD DUP1 SLOAD PUSH1 0x1 DUP2 PUSH1 0x1 AND ISZERO PUSH2 0x100 MUL SUB AND PUSH1 0x2 SWAP1 DIV DUP1 PUSH1 0x1F ADD PUSH1 0x20 DUP1 SWAP2 DIV MUL PUSH1 0x20 ADD PUSH1 0x40 MLOAD SWAP1 DUP2 ADD PUSH1 0x40 MSTORE DUP1 SWAP3 SWAP2 SWAP1 DUP2 DUP2 MSTORE PUSH1 0x20 ADD DUP3 DUP1 SLOAD PUSH1 0x1 DUP2 PUSH1 0x1 AND ISZERO PUSH2 0x100 MUL SUB AND PUSH1 0x2 SWAP1 DIV DUP1 ISZERO PUSH2 0x3738 JUMPI DUP1 PUSH1 0x1F LT PUSH2 0x370D JUMPI PUSH2 0x100 DUP1 DUP4 SLOAD DIV MUL DUP4 MSTORE SWAP2 PUSH1 0x20 ADD SWAP2 PUSH2 0x3738 JUMP JUMPDEST DUP3 ADD SWAP2 SWAP1 PUSH1 0x0 MSTORE PUSH1 0x20 PUSH1 0x0 KECCAK256 SWAP1 JUMPDEST DUP2 SLOAD DUP2 MSTORE SWAP1 PUSH1 0x1 ADD SWAP1 PUSH1 0x20 ADD DUP1 DUP4 GT PUSH2 0x371B JUMPI DUP3 SWAP1 SUB PUSH1 0x1F AND DUP3 ADD SWAP2 JUMPDEST POP POP POP POP POP DUP2 MSTORE PUSH1 0x20 ADD PUSH1 0x3 DUP3 ADD DUP1 SLOAD PUSH1 0x1 DUP2 PUSH1 0x1 AND ISZERO PUSH2 0x100 MUL SUB AND PUSH1 0x2 SWAP1 DIV DUP1 PUSH1 0x1F ADD PUSH1 0x20 DUP1 SWAP2 DIV MUL PUSH1 0x20 ADD PUSH1 0x40 MLOAD SWAP1 DUP2 ADD PUSH1 0x40 MSTORE DUP1 SWAP3 SWAP2 SWAP1 DUP2 DUP2 MSTORE PUSH1 0x20 ADD DUP3 DUP1 SLOAD PUSH1 0x1 DUP2 PUSH1 0x1 AND ISZERO PUSH2 0x100 MUL SUB AND PUSH1 0x2 SWAP1 DIV DUP1 ISZERO PUSH2 0x37DA JUMPI DUP1 PUSH1 0x1F LT PUSH2 0x37AF JUMPI PUSH2 0x100 DUP1 DUP4 SLOAD DIV MUL DUP4 MSTORE SWAP2 PUSH1 0x20 ADD SWAP2 PUSH2 0x37DA JUMP JUMPDEST DUP3 ADD SWAP2 SWAP1 PUSH1 0x0 MSTORE PUSH1 0x20 PUSH1 0x0 KECCAK256 SWAP1 JUMPDEST DUP2 SLOAD DUP2 MSTORE SWAP1 PUSH1 0x1 ADD SWAP1 PUSH1 0x20 ADD DUP1 DUP4 GT PUSH2 0x37BD JUMPI DUP3 SWAP1 SUB PUSH1 0x1F AND DUP3 ADD SWAP2 JUMPDEST POP POP POP POP POP DUP2 MSTORE PUSH1 0x20 ADD PUSH1 0x4 DUP3 ADD SLOAD DUP2 MSTORE PUSH1 0x20 ADD PUSH1 0x5 DUP3 ADD SLOAD DUP2 MSTORE PUSH1 0x20 ADD PUSH1 0x6 DUP3 ADD SLOAD DUP2 MSTORE PUSH1 0x20 ADD PUSH1 0x8 DUP3 ADD PUSH1 0x0 SWAP1 SLOAD SWAP1 PUSH2 0x100 EXP SWAP1 DIV PUSH1 0xFF AND PUSH1 0x2 DUP2 GT ISZERO PUSH2 0x381F JUMPI INVALID JUMPDEST PUSH1 0x2 DUP2 GT ISZERO PUSH2 0x382A JUMPI INVALID JUMPDEST DUP2 MSTORE PUSH1 0x20 ADD PUSH1 0x9 DUP3 ADD SLOAD DUP2 MSTORE POP POP SWAP1 POP SELFBALANCE DUP2 PUSH1 0x80 ADD MLOAD LT DUP1 ISZERO PUSH2 0x3858 JUMPI POP PUSH2 0x3851 DUP4 PUSH2 0x3860 JUMP JUMPDEST DUP2 PUSH1 0xA0 ADD MLOAD GT JUMPDEST SWAP2 POP POP SWAP2 SWAP1 POP JUMP JUMPDEST PUSH1 0x0 PUSH1 0x6 SLOAD PUSH1 0x4 SLOAD PUSH1 0xA DUP1 SELFBALANCE MUL PUSH1 0xA PUSH1 0x7 PUSH1 0x0 DUP9 DUP2 MSTORE PUSH1 0x20 ADD SWAP1 DUP2 MSTORE PUSH1 0x20 ADD PUSH1 0x0 KECCAK256 PUSH1 0x4 ADD SLOAD MUL DUP2 PUSH2 0x388E JUMPI INVALID JUMPDEST DIV PUSH1 0x2 ADD DUP2 PUSH2 0x3899 JUMPI INVALID JUMPDEST DIV MUL ADD SWAP1 POP SWAP2 SWAP1 POP JUMP JUMPDEST POP DUP1 SLOAD PUSH1 0x0 DUP3 SSTORE SWAP1 PUSH1 0x0 MSTORE PUSH1 0x20 PUSH1 0x0 KECCAK256 SWAP1 DUP2 ADD SWAP1 PUSH2 0x38C1 SWAP2 SWAP1 PUSH2 0x39C7 JUMP JUMPDEST POP JUMP JUMPDEST PUSH1 0x40 MLOAD DUP1 PUSH2 0x120 ADD PUSH1 0x40 MSTORE DUP1 PUSH1 0x0 PUSH20 0xFFFFFFFFFFFFFFFFFFFFFFFFFFFFFFFFFFFFFFFF AND DUP2 MSTORE PUSH1 0x20 ADD PUSH1 0x0 PUSH20 0xFFFFFFFFFFFFFFFFFFFFFFFFFFFFFFFFFFFFFFFF AND DUP2 MSTORE PUSH1 0x20 ADD PUSH1 0x60 DUP2 MSTORE PUSH1 0x20 ADD PUSH1 0x60 DUP2 MSTORE PUSH1 0x20 ADD PUSH1 0x0 DUP2 MSTORE PUSH1 0x20 ADD PUSH1 0x0 DUP2 MSTORE PUSH1 0x20 ADD PUSH1 0x0 DUP2 MSTORE PUSH1 0x20 ADD PUSH1 0x0 PUSH1 0x2 DUP2 GT ISZERO PUSH2 0x393A JUMPI INVALID JUMPDEST DUP2 MSTORE PUSH1 0x20 ADD PUSH1 0x0 DUP2 MSTORE POP SWAP1 JUMP JUMPDEST DUP3 DUP1 SLOAD PUSH1 0x1 DUP2 PUSH1 0x1 AND ISZERO PUSH2 0x100 MUL SUB AND PUSH1 0x2 SWAP1 DIV SWAP1 PUSH1 0x0 MSTORE PUSH1 0x20 PUSH1 0x0 KECCAK256 SWAP1 PUSH1 0x1F ADD PUSH1 0x20 SWAP1 DIV DUP2 ADD SWAP3 DUP3 PUSH1 0x1F LT PUSH2 0x3988 JUMPI DUP1 MLOAD PUSH1 0xFF NOT AND DUP4 DUP1 ADD OR DUP6 SSTORE PUSH2 0x39B6 JUMP JUMPDEST DUP3 DUP1 ADD PUSH1 0x1 ADD DUP6 SSTORE DUP3 ISZERO PUSH2 0x39B6 JUMPI SWAP2 DUP3 ADD JUMPDEST DUP3 DUP2 GT ISZERO PUSH2 0x39B5 JUMPI DUP3 MLOAD DUP3 SSTORE SWAP2 PUSH1 0x20 ADD SWAP2 SWAP1 PUSH1 0x1 ADD SWAP1 PUSH2 0x399A JUMP JUMPDEST JUMPDEST POP SWAP1 POP PUSH2 0x39C3 SWAP2 SWAP1 PUSH2 0x39C7 JUMP JUMPDEST POP SWAP1 JUMP JUMPDEST PUSH2 0x39E9 SWAP2 SWAP1 JUMPDEST DUP1 DUP3 GT ISZERO PUSH2 0x39E5 JUMPI PUSH1 0x0 DUP2 PUSH1 0x0 SWAP1 SSTORE POP PUSH1 0x1 ADD PUSH2 0x39CD JUMP JUMPDEST POP SWAP1 JUMP JUMPDEST SWAP1 JUMP INVALID SLOAD PUSH9 0x65206D6178696D756D KECCAK256 PUSH15 0x756D626572206F6620746F6B656E73 KECCAK256 PUSH9 0x6173206265656E2067 PUSH6 0x6E6572617465 PUSH5 0xA265627A7A PUSH19 0x31582099AD36012F3DA02360910DE6A0BBAE04 XOR EXTCODESIZE 0xC3 0x49 0x2F 0xD1 0xC7 0xBD SWAP1 SIGNEXTEND CHAINID DUP9 CALLVALUE LT LOG3 SELFBALANCE PUSH5 0x736F6C6343 STOP SDIV GT STOP ORIGIN PUSH1 0x80 PUSH1 0x40 MSTORE CALLVALUE DUP1 ISZERO PUSH3 0x11 JUMPI PUSH1 0x0 DUP1 REVERT JUMPDEST POP PUSH1 0x40 MLOAD DUP1 PUSH1 0x40 ADD PUSH1 0x40 MSTORE DUP1 PUSH1 0x3 DUP2 MSTORE PUSH1 0x20 ADD PUSH32 0x55434D0000000000000000000000000000000000000000000000000000000000 DUP2 MSTORE POP PUSH1 0x40 MLOAD DUP1 PUSH1 0x40 ADD PUSH1 0x40 MSTORE DUP1 PUSH1 0x3 DUP2 MSTORE PUSH1 0x20 ADD PUSH32 0x55434D0000000000000000000000000000000000000000000000000000000000 DUP2 MSTORE POP PUSH1 0x0 DUP3 PUSH1 0x3 SWAP1 DUP1 MLOAD SWAP1 PUSH1 0x20 ADD SWAP1 PUSH3 0x98 SWAP3 SWAP2 SWAP1 PUSH3 0x364 JUMP JUMPDEST POP DUP2 PUSH1 0x4 SWAP1 DUP1 MLOAD SWAP1 PUSH1 0x20 ADD SWAP1 PUSH3 0xB1 SWAP3 SWAP2 SWAP1 PUSH3 0x364 JUMP JUMPDEST POP DUP1 PUSH1 0x5 PUSH1 0x0 PUSH2 0x100 EXP DUP2 SLOAD DUP2 PUSH1 0xFF MUL NOT AND SWAP1 DUP4 PUSH1 0xFF AND MUL OR SWAP1 SSTORE POP POP POP POP PUSH3 0xF0 PUSH3 0xE4 PUSH3 0x137 PUSH1 0x20 SHL PUSH1 0x20 SHR JUMP JUMPDEST PUSH3 0x13F PUSH1 0x20 SHL PUSH1 0x20 SHR JUMP JUMPDEST CALLER PUSH1 0x7 PUSH1 0x0 PUSH2 0x100 EXP DUP2 SLOAD DUP2 PUSH20 0xFFFFFFFFFFFFFFFFFFFFFFFFFFFFFFFFFFFFFFFF MUL NOT AND SWAP1 DUP4 PUSH20 0xFFFFFFFFFFFFFFFFFFFFFFFFFFFFFFFFFFFFFFFF AND MUL OR SWAP1 SSTORE POP PUSH3 0x413 JUMP JUMPDEST PUSH1 0x0 CALLER SWAP1 POP SWAP1 JUMP JUMPDEST PUSH3 0x15A DUP2 PUSH1 0x6 PUSH3 0x1A0 PUSH1 0x20 SHL PUSH3 0x17D2 OR SWAP1 SWAP2 SWAP1 PUSH1 0x20 SHR JUMP JUMPDEST DUP1 PUSH20 0xFFFFFFFFFFFFFFFFFFFFFFFFFFFFFFFFFFFFFFFF AND PUSH32 0x6AE172837EA30B801FBFCDD4108AA1D5BF8FF775444FD70256B44E6BF3DFC3F6 PUSH1 0x40 MLOAD PUSH1 0x40 MLOAD DUP1 SWAP2 SUB SWAP1 LOG2 POP JUMP JUMPDEST PUSH3 0x1B2 DUP3 DUP3 PUSH3 0x284 PUSH1 0x20 SHL PUSH1 0x20 SHR JUMP JUMPDEST ISZERO PUSH3 0x226 JUMPI PUSH1 0x40 MLOAD PUSH32 0x8C379A000000000000000000000000000000000000000000000000000000000 DUP2 MSTORE PUSH1 0x4 ADD DUP1 DUP1 PUSH1 0x20 ADD DUP3 DUP2 SUB DUP3 MSTORE PUSH1 0x1F DUP2 MSTORE PUSH1 0x20 ADD DUP1 PUSH32 0x526F6C65733A206163636F756E7420616C72656164792068617320726F6C6500 DUP2 MSTORE POP PUSH1 0x20 ADD SWAP2 POP POP PUSH1 0x40 MLOAD DUP1 SWAP2 SUB SWAP1 REVERT JUMPDEST PUSH1 0x1 DUP3 PUSH1 0x0 ADD PUSH1 0x0 DUP4 PUSH20 0xFFFFFFFFFFFFFFFFFFFFFFFFFFFFFFFFFFFFFFFF AND PUSH20 0xFFFFFFFFFFFFFFFFFFFFFFFFFFFFFFFFFFFFFFFF AND DUP2 MSTORE PUSH1 0x20 ADD SWAP1 DUP2 MSTORE PUSH1 0x20 ADD PUSH1 0x0 KECCAK256 PUSH1 0x0 PUSH2 0x100 EXP DUP2 SLOAD DUP2 PUSH1 0xFF MUL NOT AND SWAP1 DUP4 ISZERO ISZERO MUL OR SWAP1 SSTORE POP POP POP JUMP JUMPDEST PUSH1 0x0 DUP1 PUSH20 0xFFFFFFFFFFFFFFFFFFFFFFFFFFFFFFFFFFFFFFFF AND DUP3 PUSH20 0xFFFFFFFFFFFFFFFFFFFFFFFFFFFFFFFFFFFFFFFF AND EQ ISZERO PUSH3 0x30D JUMPI PUSH1 0x40 MLOAD PUSH32 0x8C379A000000000000000000000000000000000000000000000000000000000 DUP2 MSTORE PUSH1 0x4 ADD DUP1 DUP1 PUSH1 0x20 ADD DUP3 DUP2 SUB DUP3 MSTORE PUSH1 0x22 DUP2 MSTORE PUSH1 0x20 ADD DUP1 PUSH3 0x1FC3 PUSH1 0x22 SWAP2 CODECOPY PUSH1 0x40 ADD SWAP2 POP POP PUSH1 0x40 MLOAD DUP1 SWAP2 SUB SWAP1 REVERT JUMPDEST DUP3 PUSH1 0x0 ADD PUSH1 0x0 DUP4 PUSH20 0xFFFFFFFFFFFFFFFFFFFFFFFFFFFFFFFFFFFFFFFF AND PUSH20 0xFFFFFFFFFFFFFFFFFFFFFFFFFFFFFFFFFFFFFFFF AND DUP2 MSTORE PUSH1 0x20 ADD SWAP1 DUP2 MSTORE PUSH1 0x20 ADD PUSH1 0x0 KECCAK256 PUSH1 0x0 SWAP1 SLOAD SWAP1 PUSH2 0x100 EXP SWAP1 DIV PUSH1 0xFF AND SWAP1 POP SWAP3 SWAP2 POP POP JUMP JUMPDEST DUP3 DUP1 SLOAD PUSH1 0x1 DUP2 PUSH1 0x1 AND ISZERO PUSH2 0x100 MUL SUB AND PUSH1 0x2 SWAP1 DIV SWAP1 PUSH1 0x0 MSTORE PUSH1 0x20 PUSH1 0x0 KECCAK256 SWAP1 PUSH1 0x1F ADD PUSH1 0x20 SWAP1 DIV DUP2 ADD SWAP3 DUP3 PUSH1 0x1F LT PUSH3 0x3A7 JUMPI DUP1 MLOAD PUSH1 0xFF NOT AND DUP4 DUP1 ADD OR DUP6 SSTORE PUSH3 0x3D8 JUMP JUMPDEST DUP3 DUP1 ADD PUSH1 0x1 ADD DUP6 SSTORE DUP3 ISZERO PUSH3 0x3D8 JUMPI SWAP2 DUP3 ADD JUMPDEST DUP3 DUP2 GT ISZERO PUSH3 0x3D7 JUMPI DUP3 MLOAD DUP3 SSTORE SWAP2 PUSH1 0x20 ADD SWAP2 SWAP1 PUSH1 0x1 ADD SWAP1 PUSH3 0x3BA JUMP JUMPDEST JUMPDEST POP SWAP1 POP PUSH3 0x3E7 SWAP2 SWAP1 PUSH3 0x3EB JUMP JUMPDEST POP SWAP1 JUMP JUMPDEST PUSH3 0x410 SWAP2 SWAP1 JUMPDEST DUP1 DUP3 GT ISZERO PUSH3 0x40C JUMPI PUSH1 0x0 DUP2 PUSH1 0x0 SWAP1 SSTORE POP PUSH1 0x1 ADD PUSH3 0x3F2 JUMP JUMPDEST POP SWAP1 JUMP JUMPDEST SWAP1 JUMP JUMPDEST PUSH2 0x1BA0 DUP1 PUSH3 0x423 PUSH1 0x0 CODECOPY PUSH1 0x0 RETURN INVALID PUSH1 0x80 PUSH1 0x40 MSTORE CALLVALUE DUP1 ISZERO PUSH2 0x10 JUMPI PUSH1 0x0 DUP1 REVERT JUMPDEST POP PUSH1 0x4 CALLDATASIZE LT PUSH2 0x100 JUMPI PUSH1 0x0 CALLDATALOAD PUSH1 0xE0 SHR DUP1 PUSH4 0x95D89B41 GT PUSH2 0x97 JUMPI DUP1 PUSH4 0xA457C2D7 GT PUSH2 0x66 JUMPI DUP1 PUSH4 0xA457C2D7 EQ PUSH2 0x4E1 JUMPI DUP1 PUSH4 0xA9059CBB EQ PUSH2 0x547 JUMPI DUP1 PUSH4 0xAA271E1A EQ PUSH2 0x5AD JUMPI DUP1 PUSH4 0xDD62ED3E EQ PUSH2 0x609 JUMPI PUSH2 0x100 JUMP JUMPDEST DUP1 PUSH4 0x95D89B41 EQ PUSH2 0x3C2 JUMPI DUP1 PUSH4 0x983B2D56 EQ PUSH2 0x445 JUMPI DUP1 PUSH4 0x98650275 EQ PUSH2 0x489 JUMPI DUP1 PUSH4 0x9DC29FAC EQ PUSH2 0x493 JUMPI PUSH2 0x100 JUMP JUMPDEST DUP1 PUSH4 0x313CE567 GT PUSH2 0xD3 JUMPI DUP1 PUSH4 0x313CE567 EQ PUSH2 0x292 JUMPI DUP1 PUSH4 0x39509351 EQ PUSH2 0x2B6 JUMPI DUP1 PUSH4 0x40C10F19 EQ PUSH2 0x31C JUMPI DUP1 PUSH4 0x70A08231 EQ PUSH2 0x36A JUMPI PUSH2 0x100 JUMP JUMPDEST DUP1 PUSH4 0x6FDDE03 EQ PUSH2 0x105 JUMPI DUP1 PUSH4 0x95EA7B3 EQ PUSH2 0x188 JUMPI DUP1 PUSH4 0x18160DDD EQ PUSH2 0x1EE JUMPI DUP1 PUSH4 0x23B872DD EQ PUSH2 0x20C JUMPI JUMPDEST PUSH1 0x0 DUP1 REVERT JUMPDEST PUSH2 0x10D PUSH2 0x681 JUMP JUMPDEST PUSH1 0x40 MLOAD DUP1 DUP1 PUSH1 0x20 ADD DUP3 DUP2 SUB DUP3 MSTORE DUP4 DUP2 DUP2 MLOAD DUP2 MSTORE PUSH1 0x20 ADD SWAP2 POP DUP1 MLOAD SWAP1 PUSH1 0x20 ADD SWAP1 DUP1 DUP4 DUP4 PUSH1 0x0 JUMPDEST DUP4 DUP2 LT ISZERO PUSH2 0x14D JUMPI DUP1 DUP3 ADD MLOAD DUP2 DUP5 ADD MSTORE PUSH1 0x20 DUP2 ADD SWAP1 POP PUSH2 0x132 JUMP JUMPDEST POP POP POP POP SWAP1 POP SWAP1 DUP2 ADD SWAP1 PUSH1 0x1F AND DUP1 ISZERO PUSH2 0x17A JUMPI DUP1 DUP3 SUB DUP1 MLOAD PUSH1 0x1 DUP4 PUSH1 0x20 SUB PUSH2 0x100 EXP SUB NOT AND DUP2 MSTORE PUSH1 0x20 ADD SWAP2 POP JUMPDEST POP SWAP3 POP POP POP PUSH1 0x40 MLOAD DUP1 SWAP2 SUB SWAP1 RETURN JUMPDEST PUSH2 0x1D4 PUSH1 0x4 DUP1 CALLDATASIZE SUB PUSH1 0x40 DUP2 LT ISZERO PUSH2 0x19E JUMPI PUSH1 0x0 DUP1 REVERT JUMPDEST DUP2 ADD SWAP1 DUP1 DUP1 CALLDATALOAD PUSH20 0xFFFFFFFFFFFFFFFFFFFFFFFFFFFFFFFFFFFFFFFF AND SWAP1 PUSH1 0x20 ADD SWAP1 SWAP3 SWAP2 SWAP1 DUP1 CALLDATALOAD SWAP1 PUSH1 0x20 ADD SWAP1 SWAP3 SWAP2 SWAP1 POP POP POP PUSH2 0x723 JUMP JUMPDEST PUSH1 0x40 MLOAD DUP1 DUP3 ISZERO ISZERO ISZERO ISZERO DUP2 MSTORE PUSH1 0x20 ADD SWAP2 POP POP PUSH1 0x40 MLOAD DUP1 SWAP2 SUB SWAP1 RETURN JUMPDEST PUSH2 0x1F6 PUSH2 0x741 JUMP JUMPDEST PUSH1 0x40 MLOAD DUP1 DUP3 DUP2 MSTORE PUSH1 0x20 ADD SWAP2 POP POP PUSH1 0x40 MLOAD DUP1 SWAP2 SUB SWAP1 RETURN JUMPDEST PUSH2 0x278 PUSH1 0x4 DUP1 CALLDATASIZE SUB PUSH1 0x60 DUP2 LT ISZERO PUSH2 0x222 JUMPI PUSH1 0x0 DUP1 REVERT JUMPDEST DUP2 ADD SWAP1 DUP1 DUP1 CALLDATALOAD PUSH20 0xFFFFFFFFFFFFFFFFFFFFFFFFFFFFFFFFFFFFFFFF AND SWAP1 PUSH1 0x20 ADD SWAP1 SWAP3 SWAP2 SWAP1 DUP1 CALLDATALOAD PUSH20 0xFFFFFFFFFFFFFFFFFFFFFFFFFFFFFFFFFFFFFFFF AND SWAP1 PUSH1 0x20 ADD SWAP1 SWAP3 SWAP2 SWAP1 DUP1 CALLDATALOAD SWAP1 PUSH1 0x20 ADD SWAP1 SWAP3 SWAP2 SWAP1 POP POP POP PUSH2 0x74B JUMP JUMPDEST PUSH1 0x40 MLOAD DUP1 DUP3 ISZERO ISZERO ISZERO ISZERO DUP2 MSTORE PUSH1 0x20 ADD SWAP2 POP POP PUSH1 0x40 MLOAD DUP1 SWAP2 SUB SWAP1 RETURN JUMPDEST PUSH2 0x29A PUSH2 0x824 JUMP JUMPDEST PUSH1 0x40 MLOAD DUP1 DUP3 PUSH1 0xFF AND PUSH1 0xFF AND DUP2 MSTORE PUSH1 0x20 ADD SWAP2 POP POP PUSH1 0x40 MLOAD DUP1 SWAP2 SUB SWAP1 RETURN JUMPDEST PUSH2 0x302 PUSH1 0x4 DUP1 CALLDATASIZE SUB PUSH1 0x40 DUP2 LT ISZERO PUSH2 0x2CC JUMPI PUSH1 0x0 DUP1 REVERT JUMPDEST DUP2 ADD SWAP1 DUP1 DUP1 CALLDATALOAD PUSH20 0xFFFFFFFFFFFFFFFFFFFFFFFFFFFFFFFFFFFFFFFF AND SWAP1 PUSH1 0x20 ADD SWAP1 SWAP3 SWAP2 SWAP1 DUP1 CALLDATALOAD SWAP1 PUSH1 0x20 ADD SWAP1 SWAP3 SWAP2 SWAP1 POP POP POP PUSH2 0x83B JUMP JUMPDEST PUSH1 0x40 MLOAD DUP1 DUP3 ISZERO ISZERO ISZERO ISZERO DUP2 MSTORE PUSH1 0x20 ADD SWAP2 POP POP PUSH1 0x40 MLOAD DUP1 SWAP2 SUB SWAP1 RETURN JUMPDEST PUSH2 0x368 PUSH1 0x4 DUP1 CALLDATASIZE SUB PUSH1 0x40 DUP2 LT ISZERO PUSH2 0x332 JUMPI PUSH1 0x0 DUP1 REVERT JUMPDEST DUP2 ADD SWAP1 DUP1 DUP1 CALLDATALOAD PUSH20 0xFFFFFFFFFFFFFFFFFFFFFFFFFFFFFFFFFFFFFFFF AND SWAP1 PUSH1 0x20 ADD SWAP1 SWAP3 SWAP2 SWAP1 DUP1 CALLDATALOAD SWAP1 PUSH1 0x20 ADD SWAP1 SWAP3 SWAP2 SWAP1 POP POP POP PUSH2 0x8EE JUMP JUMPDEST STOP JUMPDEST PUSH2 0x3AC PUSH1 0x4 DUP1 CALLDATASIZE SUB PUSH1 0x20 DUP2 LT ISZERO PUSH2 0x380 JUMPI PUSH1 0x0 DUP1 REVERT JUMPDEST DUP2 ADD SWAP1 DUP1 DUP1 CALLDATALOAD PUSH20 0xFFFFFFFFFFFFFFFFFFFFFFFFFFFFFFFFFFFFFFFF AND SWAP1 PUSH1 0x20 ADD SWAP1 SWAP3 SWAP2 SWAP1 POP POP POP PUSH2 0x961 JUMP JUMPDEST PUSH1 0x40 MLOAD DUP1 DUP3 DUP2 MSTORE PUSH1 0x20 ADD SWAP2 POP POP PUSH1 0x40 MLOAD DUP1 SWAP2 SUB SWAP1 RETURN JUMPDEST PUSH2 0x3CA PUSH2 0x9A9 JUMP JUMPDEST PUSH1 0x40 MLOAD DUP1 DUP1 PUSH1 0x20 ADD DUP3 DUP2 SUB DUP3 MSTORE DUP4 DUP2 DUP2 MLOAD DUP2 MSTORE PUSH1 0x20 ADD SWAP2 POP DUP1 MLOAD SWAP1 PUSH1 0x20 ADD SWAP1 DUP1 DUP4 DUP4 PUSH1 0x0 JUMPDEST DUP4 DUP2 LT ISZERO PUSH2 0x40A JUMPI DUP1 DUP3 ADD MLOAD DUP2 DUP5 ADD MSTORE PUSH1 0x20 DUP2 ADD SWAP1 POP PUSH2 0x3EF JUMP JUMPDEST POP POP POP POP SWAP1 POP SWAP1 DUP2 ADD SWAP1 PUSH1 0x1F AND DUP1 ISZERO PUSH2 0x437 JUMPI DUP1 DUP3 SUB DUP1 MLOAD PUSH1 0x1 DUP4 PUSH1 0x20 SUB PUSH2 0x100 EXP SUB NOT AND DUP2 MSTORE PUSH1 0x20 ADD SWAP2 POP JUMPDEST POP SWAP3 POP POP POP PUSH1 0x40 MLOAD DUP1 SWAP2 SUB SWAP1 RETURN JUMPDEST PUSH2 0x487 PUSH1 0x4 DUP1 CALLDATASIZE SUB PUSH1 0x20 DUP2 LT ISZERO PUSH2 0x45B JUMPI PUSH1 0x0 DUP1 REVERT JUMPDEST DUP2 ADD SWAP1 DUP1 DUP1 CALLDATALOAD PUSH20 0xFFFFFFFFFFFFFFFFFFFFFFFFFFFFFFFFFFFFFFFF AND SWAP1 PUSH1 0x20 ADD SWAP1 SWAP3 SWAP2 SWAP1 POP POP POP PUSH2 0xA4B JUMP JUMPDEST STOP JUMPDEST PUSH2 0x491 PUSH2 0xABC JUMP JUMPDEST STOP JUMPDEST PUSH2 0x4DF PUSH1 0x4 DUP1 CALLDATASIZE SUB PUSH1 0x40 DUP2 LT ISZERO PUSH2 0x4A9 JUMPI PUSH1 0x0 DUP1 REVERT JUMPDEST DUP2 ADD SWAP1 DUP1 DUP1 CALLDATALOAD PUSH20 0xFFFFFFFFFFFFFFFFFFFFFFFFFFFFFFFFFFFFFFFF AND SWAP1 PUSH1 0x20 ADD SWAP1 SWAP3 SWAP2 SWAP1 DUP1 CALLDATALOAD SWAP1 PUSH1 0x20 ADD SWAP1 SWAP3 SWAP2 SWAP1 POP POP POP PUSH2 0xACE JUMP JUMPDEST STOP JUMPDEST PUSH2 0x52D PUSH1 0x4 DUP1 CALLDATASIZE SUB PUSH1 0x40 DUP2 LT ISZERO PUSH2 0x4F7 JUMPI PUSH1 0x0 DUP1 REVERT JUMPDEST DUP2 ADD SWAP1 DUP1 DUP1 CALLDATALOAD PUSH20 0xFFFFFFFFFFFFFFFFFFFFFFFFFFFFFFFFFFFFFFFF AND SWAP1 PUSH1 0x20 ADD SWAP1 SWAP3 SWAP2 SWAP1 DUP1 CALLDATALOAD SWAP1 PUSH1 0x20 ADD SWAP1 SWAP3 SWAP2 SWAP1 POP POP POP PUSH2 0xB41 JUMP JUMPDEST PUSH1 0x40 MLOAD DUP1 DUP3 ISZERO ISZERO ISZERO ISZERO DUP2 MSTORE PUSH1 0x20 ADD SWAP2 POP POP PUSH1 0x40 MLOAD DUP1 SWAP2 SUB SWAP1 RETURN JUMPDEST PUSH2 0x593 PUSH1 0x4 DUP1 CALLDATASIZE SUB PUSH1 0x40 DUP2 LT ISZERO PUSH2 0x55D JUMPI PUSH1 0x0 DUP1 REVERT JUMPDEST DUP2 ADD SWAP1 DUP1 DUP1 CALLDATALOAD PUSH20 0xFFFFFFFFFFFFFFFFFFFFFFFFFFFFFFFFFFFFFFFF AND SWAP1 PUSH1 0x20 ADD SWAP1 SWAP3 SWAP2 SWAP1 DUP1 CALLDATALOAD SWAP1 PUSH1 0x20 ADD SWAP1 SWAP3 SWAP2 SWAP1 POP POP POP PUSH2 0xC0E JUMP JUMPDEST PUSH1 0x40 MLOAD DUP1 DUP3 ISZERO ISZERO ISZERO ISZERO DUP2 MSTORE PUSH1 0x20 ADD SWAP2 POP POP PUSH1 0x40 MLOAD DUP1 SWAP2 SUB SWAP1 RETURN JUMPDEST PUSH2 0x5EF PUSH1 0x4 DUP1 CALLDATASIZE SUB PUSH1 0x20 DUP2 LT ISZERO PUSH2 0x5C3 JUMPI PUSH1 0x0 DUP1 REVERT JUMPDEST DUP2 ADD SWAP1 DUP1 DUP1 CALLDATALOAD PUSH20 0xFFFFFFFFFFFFFFFFFFFFFFFFFFFFFFFFFFFFFFFF AND SWAP1 PUSH1 0x20 ADD SWAP1 SWAP3 SWAP2 SWAP1 POP POP POP PUSH2 0xC2C JUMP JUMPDEST PUSH1 0x40 MLOAD DUP1 DUP3 ISZERO ISZERO ISZERO ISZERO DUP2 MSTORE PUSH1 0x20 ADD SWAP2 POP POP PUSH1 0x40 MLOAD DUP1 SWAP2 SUB SWAP1 RETURN JUMPDEST PUSH2 0x66B PUSH1 0x4 DUP1 CALLDATASIZE SUB PUSH1 0x40 DUP2 LT ISZERO PUSH2 0x61F JUMPI PUSH1 0x0 DUP1 REVERT JUMPDEST DUP2 ADD SWAP1 DUP1 DUP1 CALLDATALOAD PUSH20 0xFFFFFFFFFFFFFFFFFFFFFFFFFFFFFFFFFFFFFFFF AND SWAP1 PUSH1 0x20 ADD SWAP1 SWAP3 SWAP2 SWAP1 DUP1 CALLDATALOAD PUSH20 0xFFFFFFFFFFFFFFFFFFFFFFFFFFFFFFFFFFFFFFFF AND SWAP1 PUSH1 0x20 ADD SWAP1 SWAP3 SWAP2 SWAP1 POP POP POP PUSH2 0xC49 JUMP JUMPDEST PUSH1 0x40 MLOAD DUP1 DUP3 DUP2 MSTORE PUSH1 0x20 ADD SWAP2 POP POP PUSH1 0x40 MLOAD DUP1 SWAP2 SUB SWAP1 RETURN JUMPDEST PUSH1 0x60 PUSH1 0x3 DUP1 SLOAD PUSH1 0x1 DUP2 PUSH1 0x1 AND ISZERO PUSH2 0x100 MUL SUB AND PUSH1 0x2 SWAP1 DIV DUP1 PUSH1 0x1F ADD PUSH1 0x20 DUP1 SWAP2 DIV MUL PUSH1 0x20 ADD PUSH1 0x40 MLOAD SWAP1 DUP2 ADD PUSH1 0x40 MSTORE DUP1 SWAP3 SWAP2 SWAP1 DUP2 DUP2 MSTORE PUSH1 0x20 ADD DUP3 DUP1 SLOAD PUSH1 0x1 DUP2 PUSH1 0x1 AND ISZERO PUSH2 0x100 MUL SUB AND PUSH1 0x2 SWAP1 DIV DUP1 ISZERO PUSH2 0x719 JUMPI DUP1 PUSH1 0x1F LT PUSH2 0x6EE JUMPI PUSH2 0x100 DUP1 DUP4 SLOAD DIV MUL DUP4 MSTORE SWAP2 PUSH1 0x20 ADD SWAP2 PUSH2 0x719 JUMP JUMPDEST DUP3 ADD SWAP2 SWAP1 PUSH1 0x0 MSTORE PUSH1 0x20 PUSH1 0x0 KECCAK256 SWAP1 JUMPDEST DUP2 SLOAD DUP2 MSTORE SWAP1 PUSH1 0x1 ADD SWAP1 PUSH1 0x20 ADD DUP1 DUP4 GT PUSH2 0x6FC JUMPI DUP3 SWAP1 SUB PUSH1 0x1F AND DUP3 ADD SWAP2 JUMPDEST POP POP POP POP POP SWAP1 POP SWAP1 JUMP JUMPDEST PUSH1 0x0 PUSH2 0x737 PUSH2 0x730 PUSH2 0xCD0 JUMP JUMPDEST DUP5 DUP5 PUSH2 0xCD8 JUMP JUMPDEST PUSH1 0x1 SWAP1 POP SWAP3 SWAP2 POP POP JUMP JUMPDEST PUSH1 0x0 PUSH1 0x2 SLOAD SWAP1 POP SWAP1 JUMP JUMPDEST PUSH1 0x0 PUSH2 0x758 DUP5 DUP5 DUP5 PUSH2 0xECF JUMP JUMPDEST PUSH2 0x819 DUP5 PUSH2 0x764 PUSH2 0xCD0 JUMP JUMPDEST PUSH2 0x814 DUP6 PUSH1 0x40 MLOAD DUP1 PUSH1 0x60 ADD PUSH1 0x40 MSTORE DUP1 PUSH1 0x28 DUP2 MSTORE PUSH1 0x20 ADD PUSH2 0x1A93 PUSH1 0x28 SWAP2 CODECOPY PUSH1 0x1 PUSH1 0x0 DUP12 PUSH20 0xFFFFFFFFFFFFFFFFFFFFFFFFFFFFFFFFFFFFFFFF AND PUSH20 0xFFFFFFFFFFFFFFFFFFFFFFFFFFFFFFFFFFFFFFFF AND DUP2 MSTORE PUSH1 0x20 ADD SWAP1 DUP2 MSTORE PUSH1 0x20 ADD PUSH1 0x0 KECCAK256 PUSH1 0x0 PUSH2 0x7CA PUSH2 0xCD0 JUMP JUMPDEST PUSH20 0xFFFFFFFFFFFFFFFFFFFFFFFFFFFFFFFFFFFFFFFF AND PUSH20 0xFFFFFFFFFFFFFFFFFFFFFFFFFFFFFFFFFFFFFFFF AND DUP2 MSTORE PUSH1 0x20 ADD SWAP1 DUP2 MSTORE PUSH1 0x20 ADD PUSH1 0x0 KECCAK256 SLOAD PUSH2 0x1185 SWAP1 SWAP3 SWAP2 SWAP1 PUSH4 0xFFFFFFFF AND JUMP JUMPDEST PUSH2 0xCD8 JUMP JUMPDEST PUSH1 0x1 SWAP1 POP SWAP4 SWAP3 POP POP POP JUMP JUMPDEST PUSH1 0x0 PUSH1 0x5 PUSH1 0x0 SWAP1 SLOAD SWAP1 PUSH2 0x100 EXP SWAP1 DIV PUSH1 0xFF AND SWAP1 POP SWAP1 JUMP JUMPDEST PUSH1 0x0 PUSH2 0x8E4 PUSH2 0x848 PUSH2 0xCD0 JUMP JUMPDEST DUP5 PUSH2 0x8DF DUP6 PUSH1 0x1 PUSH1 0x0 PUSH2 0x859 PUSH2 0xCD0 JUMP JUMPDEST PUSH20 0xFFFFFFFFFFFFFFFFFFFFFFFFFFFFFFFFFFFFFFFF AND PUSH20 0xFFFFFFFFFFFFFFFFFFFFFFFFFFFFFFFFFFFFFFFF AND DUP2 MSTORE PUSH1 0x20 ADD SWAP1 DUP2 MSTORE PUSH1 0x20 ADD PUSH1 0x0 KECCAK256 PUSH1 0x0 DUP10 PUSH20 0xFFFFFFFFFFFFFFFFFFFFFFFFFFFFFFFFFFFFFFFF AND PUSH20 0xFFFFFFFFFFFFFFFFFFFFFFFFFFFFFFFFFFFFFFFF AND DUP2 MSTORE PUSH1 0x20 ADD SWAP1 DUP2 MSTORE PUSH1 0x20 ADD PUSH1 0x0 KECCAK256 SLOAD PUSH2 0x1245 SWAP1 SWAP2 SWAP1 PUSH4 0xFFFFFFFF AND JUMP JUMPDEST PUSH2 0xCD8 JUMP JUMPDEST PUSH1 0x1 SWAP1 POP SWAP3 SWAP2 POP POP JUMP JUMPDEST PUSH2 0x8FE PUSH2 0x8F9 PUSH2 0xCD0 JUMP JUMPDEST PUSH2 0xC2C JUMP JUMPDEST PUSH2 0x953 JUMPI PUSH1 0x40 MLOAD PUSH32 0x8C379A000000000000000000000000000000000000000000000000000000000 DUP2 MSTORE PUSH1 0x4 ADD DUP1 DUP1 PUSH1 0x20 ADD DUP3 DUP2 SUB DUP3 MSTORE PUSH1 0x30 DUP2 MSTORE PUSH1 0x20 ADD DUP1 PUSH2 0x1A42 PUSH1 0x30 SWAP2 CODECOPY PUSH1 0x40 ADD SWAP2 POP POP PUSH1 0x40 MLOAD DUP1 SWAP2 SUB SWAP1 REVERT JUMPDEST PUSH2 0x95D DUP3 DUP3 PUSH2 0x12CD JUMP JUMPDEST POP POP JUMP JUMPDEST PUSH1 0x0 DUP1 PUSH1 0x0 DUP4 PUSH20 0xFFFFFFFFFFFFFFFFFFFFFFFFFFFFFFFFFFFFFFFF AND PUSH20 0xFFFFFFFFFFFFFFFFFFFFFFFFFFFFFFFFFFFFFFFF AND DUP2 MSTORE PUSH1 0x20 ADD SWAP1 DUP2 MSTORE PUSH1 0x20 ADD PUSH1 0x0 KECCAK256 SLOAD SWAP1 POP SWAP2 SWAP1 POP JUMP JUMPDEST PUSH1 0x60 PUSH1 0x4 DUP1 SLOAD PUSH1 0x1 DUP2 PUSH1 0x1 AND ISZERO PUSH2 0x100 MUL SUB AND PUSH1 0x2 SWAP1 DIV DUP1 PUSH1 0x1F ADD PUSH1 0x20 DUP1 SWAP2 DIV MUL PUSH1 0x20 ADD PUSH1 0x40 MLOAD SWAP1 DUP2 ADD PUSH1 0x40 MSTORE DUP1 SWAP3 SWAP2 SWAP1 DUP2 DUP2 MSTORE PUSH1 0x20 ADD DUP3 DUP1 SLOAD PUSH1 0x1 DUP2 PUSH1 0x1 AND ISZERO PUSH2 0x100 MUL SUB AND PUSH1 0x2 SWAP1 DIV DUP1 ISZERO PUSH2 0xA41 JUMPI DUP1 PUSH1 0x1F LT PUSH2 0xA16 JUMPI PUSH2 0x100 DUP1 DUP4 SLOAD DIV MUL DUP4 MSTORE SWAP2 PUSH1 0x20 ADD SWAP2 PUSH2 0xA41 JUMP JUMPDEST DUP3 ADD SWAP2 SWAP1 PUSH1 0x0 MSTORE PUSH1 0x20 PUSH1 0x0 KECCAK256 SWAP1 JUMPDEST DUP2 SLOAD DUP2 MSTORE SWAP1 PUSH1 0x1 ADD SWAP1 PUSH1 0x20 ADD DUP1 DUP4 GT PUSH2 0xA24 JUMPI DUP3 SWAP1 SUB PUSH1 0x1F AND DUP3 ADD SWAP2 JUMPDEST POP POP POP POP POP SWAP1 POP SWAP1 JUMP JUMPDEST PUSH2 0xA5B PUSH2 0xA56 PUSH2 0xCD0 JUMP JUMPDEST PUSH2 0xC2C JUMP JUMPDEST PUSH2 0xAB0 JUMPI PUSH1 0x40 MLOAD PUSH32 0x8C379A000000000000000000000000000000000000000000000000000000000 DUP2 MSTORE PUSH1 0x4 ADD DUP1 DUP1 PUSH1 0x20 ADD DUP3 DUP2 SUB DUP3 MSTORE PUSH1 0x30 DUP2 MSTORE PUSH1 0x20 ADD DUP1 PUSH2 0x1A42 PUSH1 0x30 SWAP2 CODECOPY PUSH1 0x40 ADD SWAP2 POP POP PUSH1 0x40 MLOAD DUP1 SWAP2 SUB SWAP1 REVERT JUMPDEST PUSH2 0xAB9 DUP2 PUSH2 0x1488 JUMP JUMPDEST POP JUMP JUMPDEST PUSH2 0xACC PUSH2 0xAC7 PUSH2 0xCD0 JUMP JUMPDEST PUSH2 0x14E2 JUMP JUMPDEST JUMP JUMPDEST PUSH2 0xADE PUSH2 0xAD9 PUSH2 0xCD0 JUMP JUMPDEST PUSH2 0xC2C JUMP JUMPDEST PUSH2 0xB33 JUMPI PUSH1 0x40 MLOAD PUSH32 0x8C379A000000000000000000000000000000000000000000000000000000000 DUP2 MSTORE PUSH1 0x4 ADD DUP1 DUP1 PUSH1 0x20 ADD DUP3 DUP2 SUB DUP3 MSTORE PUSH1 0x30 DUP2 MSTORE PUSH1 0x20 ADD DUP1 PUSH2 0x1A42 PUSH1 0x30 SWAP2 CODECOPY PUSH1 0x40 ADD SWAP2 POP POP PUSH1 0x40 MLOAD DUP1 SWAP2 SUB SWAP1 REVERT JUMPDEST PUSH2 0xB3D DUP3 DUP3 PUSH2 0x153C JUMP JUMPDEST POP POP JUMP JUMPDEST PUSH1 0x0 PUSH2 0xC04 PUSH2 0xB4E PUSH2 0xCD0 JUMP JUMPDEST DUP5 PUSH2 0xBFF DUP6 PUSH1 0x40 MLOAD DUP1 PUSH1 0x60 ADD PUSH1 0x40 MSTORE DUP1 PUSH1 0x25 DUP2 MSTORE PUSH1 0x20 ADD PUSH2 0x1B47 PUSH1 0x25 SWAP2 CODECOPY PUSH1 0x1 PUSH1 0x0 PUSH2 0xB78 PUSH2 0xCD0 JUMP JUMPDEST PUSH20 0xFFFFFFFFFFFFFFFFFFFFFFFFFFFFFFFFFFFFFFFF AND PUSH20 0xFFFFFFFFFFFFFFFFFFFFFFFFFFFFFFFFFFFFFFFF AND DUP2 MSTORE PUSH1 0x20 ADD SWAP1 DUP2 MSTORE PUSH1 0x20 ADD PUSH1 0x0 KECCAK256 PUSH1 0x0 DUP11 PUSH20 0xFFFFFFFFFFFFFFFFFFFFFFFFFFFFFFFFFFFFFFFF AND PUSH20 0xFFFFFFFFFFFFFFFFFFFFFFFFFFFFFFFFFFFFFFFF AND DUP2 MSTORE PUSH1 0x20 ADD SWAP1 DUP2 MSTORE PUSH1 0x20 ADD PUSH1 0x0 KECCAK256 SLOAD PUSH2 0x1185 SWAP1 SWAP3 SWAP2 SWAP1 PUSH4 0xFFFFFFFF AND JUMP JUMPDEST PUSH2 0xCD8 JUMP JUMPDEST PUSH1 0x1 SWAP1 POP SWAP3 SWAP2 POP POP JUMP JUMPDEST PUSH1 0x0 PUSH2 0xC22 PUSH2 0xC1B PUSH2 0xCD0 JUMP JUMPDEST DUP5 DUP5 PUSH2 0xECF JUMP JUMPDEST PUSH1 0x1 SWAP1 POP SWAP3 SWAP2 POP POP JUMP JUMPDEST PUSH1 0x0 PUSH2 0xC42 DUP3 PUSH1 0x6 PUSH2 0x16F4 SWAP1 SWAP2 SWAP1 PUSH4 0xFFFFFFFF AND JUMP JUMPDEST SWAP1 POP SWAP2 SWAP1 POP JUMP JUMPDEST PUSH1 0x0 PUSH1 0x1 PUSH1 0x0 DUP5 PUSH20 0xFFFFFFFFFFFFFFFFFFFFFFFFFFFFFFFFFFFFFFFF AND PUSH20 0xFFFFFFFFFFFFFFFFFFFFFFFFFFFFFFFFFFFFFFFF AND DUP2 MSTORE PUSH1 0x20 ADD SWAP1 DUP2 MSTORE PUSH1 0x20 ADD PUSH1 0x0 KECCAK256 PUSH1 0x0 DUP4 PUSH20 0xFFFFFFFFFFFFFFFFFFFFFFFFFFFFFFFFFFFFFFFF AND PUSH20 0xFFFFFFFFFFFFFFFFFFFFFFFFFFFFFFFFFFFFFFFF AND DUP2 MSTORE PUSH1 0x20 ADD SWAP1 DUP2 MSTORE PUSH1 0x20 ADD PUSH1 0x0 KECCAK256 SLOAD SWAP1 POP SWAP3 SWAP2 POP POP JUMP JUMPDEST PUSH1 0x0 CALLER SWAP1 POP SWAP1 JUMP JUMPDEST PUSH1 0x0 PUSH20 0xFFFFFFFFFFFFFFFFFFFFFFFFFFFFFFFFFFFFFFFF AND DUP4 PUSH20 0xFFFFFFFFFFFFFFFFFFFFFFFFFFFFFFFFFFFFFFFF AND EQ ISZERO PUSH2 0xD5E JUMPI PUSH1 0x40 MLOAD PUSH32 0x8C379A000000000000000000000000000000000000000000000000000000000 DUP2 MSTORE PUSH1 0x4 ADD DUP1 DUP1 PUSH1 0x20 ADD DUP3 DUP2 SUB DUP3 MSTORE PUSH1 0x24 DUP2 MSTORE PUSH1 0x20 ADD DUP1 PUSH2 0x1B23 PUSH1 0x24 SWAP2 CODECOPY PUSH1 0x40 ADD SWAP2 POP POP PUSH1 0x40 MLOAD DUP1 SWAP2 SUB SWAP1 REVERT JUMPDEST PUSH1 0x0 PUSH20 0xFFFFFFFFFFFFFFFFFFFFFFFFFFFFFFFFFFFFFFFF AND DUP3 PUSH20 0xFFFFFFFFFFFFFFFFFFFFFFFFFFFFFFFFFFFFFFFF AND EQ ISZERO PUSH2 0xDE4 JUMPI PUSH1 0x40 MLOAD PUSH32 0x8C379A000000000000000000000000000000000000000000000000000000000 DUP2 MSTORE PUSH1 0x4 ADD DUP1 DUP1 PUSH1 0x20 ADD DUP3 DUP2 SUB DUP3 MSTORE PUSH1 0x22 DUP2 MSTORE PUSH1 0x20 ADD DUP1 PUSH2 0x19FA PUSH1 0x22 SWAP2 CODECOPY PUSH1 0x40 ADD SWAP2 POP POP PUSH1 0x40 MLOAD DUP1 SWAP2 SUB SWAP1 REVERT JUMPDEST DUP1 PUSH1 0x1 PUSH1 0x0 DUP6 PUSH20 0xFFFFFFFFFFFFFFFFFFFFFFFFFFFFFFFFFFFFFFFF AND PUSH20 0xFFFFFFFFFFFFFFFFFFFFFFFFFFFFFFFFFFFFFFFF AND DUP2 MSTORE PUSH1 0x20 ADD SWAP1 DUP2 MSTORE PUSH1 0x20 ADD PUSH1 0x0 KECCAK256 PUSH1 0x0 DUP5 PUSH20 0xFFFFFFFFFFFFFFFFFFFFFFFFFFFFFFFFFFFFFFFF AND PUSH20 0xFFFFFFFFFFFFFFFFFFFFFFFFFFFFFFFFFFFFFFFF AND DUP2 MSTORE PUSH1 0x20 ADD SWAP1 DUP2 MSTORE PUSH1 0x20 ADD PUSH1 0x0 KECCAK256 DUP2 SWAP1 SSTORE POP DUP2 PUSH20 0xFFFFFFFFFFFFFFFFFFFFFFFFFFFFFFFFFFFFFFFF AND DUP4 PUSH20 0xFFFFFFFFFFFFFFFFFFFFFFFFFFFFFFFFFFFFFFFF AND PUSH32 0x8C5BE1E5EBEC7D5BD14F71427D1E84F3DD0314C0F7B2291E5B200AC8C7C3B925 DUP4 PUSH1 0x40 MLOAD DUP1 DUP3 DUP2 MSTORE PUSH1 0x20 ADD SWAP2 POP POP PUSH1 0x40 MLOAD DUP1 SWAP2 SUB SWAP1 LOG3 POP POP POP JUMP JUMPDEST PUSH1 0x0 PUSH20 0xFFFFFFFFFFFFFFFFFFFFFFFFFFFFFFFFFFFFFFFF AND DUP4 PUSH20 0xFFFFFFFFFFFFFFFFFFFFFFFFFFFFFFFFFFFFFFFF AND EQ ISZERO PUSH2 0xF55 JUMPI PUSH1 0x40 MLOAD PUSH32 0x8C379A000000000000000000000000000000000000000000000000000000000 DUP2 MSTORE PUSH1 0x4 ADD DUP1 DUP1 PUSH1 0x20 ADD DUP3 DUP2 SUB DUP3 MSTORE PUSH1 0x25 DUP2 MSTORE PUSH1 0x20 ADD DUP1 PUSH2 0x1AFE PUSH1 0x25 SWAP2 CODECOPY PUSH1 0x40 ADD SWAP2 POP POP PUSH1 0x40 MLOAD DUP1 SWAP2 SUB SWAP1 REVERT JUMPDEST PUSH1 0x0 PUSH20 0xFFFFFFFFFFFFFFFFFFFFFFFFFFFFFFFFFFFFFFFF AND DUP3 PUSH20 0xFFFFFFFFFFFFFFFFFFFFFFFFFFFFFFFFFFFFFFFF AND EQ ISZERO PUSH2 0xFDB JUMPI PUSH1 0x40 MLOAD PUSH32 0x8C379A000000000000000000000000000000000000000000000000000000000 DUP2 MSTORE PUSH1 0x4 ADD DUP1 DUP1 PUSH1 0x20 ADD DUP3 DUP2 SUB DUP3 MSTORE PUSH1 0x23 DUP2 MSTORE PUSH1 0x20 ADD DUP1 PUSH2 0x19B5 PUSH1 0x23 SWAP2 CODECOPY PUSH1 0x40 ADD SWAP2 POP POP PUSH1 0x40 MLOAD DUP1 SWAP2 SUB SWAP1 REVERT JUMPDEST PUSH2 0x1046 DUP2 PUSH1 0x40 MLOAD DUP1 PUSH1 0x60 ADD PUSH1 0x40 MSTORE DUP1 PUSH1 0x26 DUP2 MSTORE PUSH1 0x20 ADD PUSH2 0x1A1C PUSH1 0x26 SWAP2 CODECOPY PUSH1 0x0 DUP1 DUP8 PUSH20 0xFFFFFFFFFFFFFFFFFFFFFFFFFFFFFFFFFFFFFFFF AND PUSH20 0xFFFFFFFFFFFFFFFFFFFFFFFFFFFFFFFFFFFFFFFF AND DUP2 MSTORE PUSH1 0x20 ADD SWAP1 DUP2 MSTORE PUSH1 0x20 ADD PUSH1 0x0 KECCAK256 SLOAD PUSH2 0x1185 SWAP1 SWAP3 SWAP2 SWAP1 PUSH4 0xFFFFFFFF AND JUMP JUMPDEST PUSH1 0x0 DUP1 DUP6 PUSH20 0xFFFFFFFFFFFFFFFFFFFFFFFFFFFFFFFFFFFFFFFF AND PUSH20 0xFFFFFFFFFFFFFFFFFFFFFFFFFFFFFFFFFFFFFFFF AND DUP2 MSTORE PUSH1 0x20 ADD SWAP1 DUP2 MSTORE PUSH1 0x20 ADD PUSH1 0x0 KECCAK256 DUP2 SWAP1 SSTORE POP PUSH2 0x10D9 DUP2 PUSH1 0x0 DUP1 DUP6 PUSH20 0xFFFFFFFFFFFFFFFFFFFFFFFFFFFFFFFFFFFFFFFF AND PUSH20 0xFFFFFFFFFFFFFFFFFFFFFFFFFFFFFFFFFFFFFFFF AND DUP2 MSTORE PUSH1 0x20 ADD SWAP1 DUP2 MSTORE PUSH1 0x20 ADD PUSH1 0x0 KECCAK256 SLOAD PUSH2 0x1245 SWAP1 SWAP2 SWAP1 PUSH4 0xFFFFFFFF AND JUMP JUMPDEST PUSH1 0x0 DUP1 DUP5 PUSH20 0xFFFFFFFFFFFFFFFFFFFFFFFFFFFFFFFFFFFFFFFF AND PUSH20 0xFFFFFFFFFFFFFFFFFFFFFFFFFFFFFFFFFFFFFFFF AND DUP2 MSTORE PUSH1 0x20 ADD SWAP1 DUP2 MSTORE PUSH1 0x20 ADD PUSH1 0x0 KECCAK256 DUP2 SWAP1 SSTORE POP DUP2 PUSH20 0xFFFFFFFFFFFFFFFFFFFFFFFFFFFFFFFFFFFFFFFF AND DUP4 PUSH20 0xFFFFFFFFFFFFFFFFFFFFFFFFFFFFFFFFFFFFFFFF AND PUSH32 0xDDF252AD1BE2C89B69C2B068FC378DAA952BA7F163C4A11628F55A4DF523B3EF DUP4 PUSH1 0x40 MLOAD DUP1 DUP3 DUP2 MSTORE PUSH1 0x20 ADD SWAP2 POP POP PUSH1 0x40 MLOAD DUP1 SWAP2 SUB SWAP1 LOG3 POP POP POP JUMP JUMPDEST PUSH1 0x0 DUP4 DUP4 GT ISZERO DUP3 SWAP1 PUSH2 0x1232 JUMPI PUSH1 0x40 MLOAD PUSH32 0x8C379A000000000000000000000000000000000000000000000000000000000 DUP2 MSTORE PUSH1 0x4 ADD DUP1 DUP1 PUSH1 0x20 ADD DUP3 DUP2 SUB DUP3 MSTORE DUP4 DUP2 DUP2 MLOAD DUP2 MSTORE PUSH1 0x20 ADD SWAP2 POP DUP1 MLOAD SWAP1 PUSH1 0x20 ADD SWAP1 DUP1 DUP4 DUP4 PUSH1 0x0 JUMPDEST DUP4 DUP2 LT ISZERO PUSH2 0x11F7 JUMPI DUP1 DUP3 ADD MLOAD DUP2 DUP5 ADD MSTORE PUSH1 0x20 DUP2 ADD SWAP1 POP PUSH2 0x11DC JUMP JUMPDEST POP POP POP POP SWAP1 POP SWAP1 DUP2 ADD SWAP1 PUSH1 0x1F AND DUP1 ISZERO PUSH2 0x1224 JUMPI DUP1 DUP3 SUB DUP1 MLOAD PUSH1 0x1 DUP4 PUSH1 0x20 SUB PUSH2 0x100 EXP SUB NOT AND DUP2 MSTORE PUSH1 0x20 ADD SWAP2 POP JUMPDEST POP SWAP3 POP POP POP PUSH1 0x40 MLOAD DUP1 SWAP2 SUB SWAP1 REVERT JUMPDEST POP PUSH1 0x0 DUP4 DUP6 SUB SWAP1 POP DUP1 SWAP2 POP POP SWAP4 SWAP3 POP POP POP JUMP JUMPDEST PUSH1 0x0 DUP1 DUP3 DUP5 ADD SWAP1 POP DUP4 DUP2 LT ISZERO PUSH2 0x12C3 JUMPI PUSH1 0x40 MLOAD PUSH32 0x8C379A000000000000000000000000000000000000000000000000000000000 DUP2 MSTORE PUSH1 0x4 ADD DUP1 DUP1 PUSH1 0x20 ADD DUP3 DUP2 SUB DUP3 MSTORE PUSH1 0x1B DUP2 MSTORE PUSH1 0x20 ADD DUP1 PUSH32 0x536166654D6174683A206164646974696F6E206F766572666C6F770000000000 DUP2 MSTORE POP PUSH1 0x20 ADD SWAP2 POP POP PUSH1 0x40 MLOAD DUP1 SWAP2 SUB SWAP1 REVERT JUMPDEST DUP1 SWAP2 POP POP SWAP3 SWAP2 POP POP JUMP JUMPDEST PUSH1 0x0 PUSH20 0xFFFFFFFFFFFFFFFFFFFFFFFFFFFFFFFFFFFFFFFF AND DUP3 PUSH20 0xFFFFFFFFFFFFFFFFFFFFFFFFFFFFFFFFFFFFFFFF AND EQ ISZERO PUSH2 0x1370 JUMPI PUSH1 0x40 MLOAD PUSH32 0x8C379A000000000000000000000000000000000000000000000000000000000 DUP2 MSTORE PUSH1 0x4 ADD DUP1 DUP1 PUSH1 0x20 ADD DUP3 DUP2 SUB DUP3 MSTORE PUSH1 0x1F DUP2 MSTORE PUSH1 0x20 ADD DUP1 PUSH32 0x45524332303A206D696E7420746F20746865207A65726F206164647265737300 DUP2 MSTORE POP PUSH1 0x20 ADD SWAP2 POP POP PUSH1 0x40 MLOAD DUP1 SWAP2 SUB SWAP1 REVERT JUMPDEST PUSH2 0x1385 DUP2 PUSH1 0x2 SLOAD PUSH2 0x1245 SWAP1 SWAP2 SWAP1 PUSH4 0xFFFFFFFF AND JUMP JUMPDEST PUSH1 0x2 DUP2 SWAP1 SSTORE POP PUSH2 0x13DC DUP2 PUSH1 0x0 DUP1 DUP6 PUSH20 0xFFFFFFFFFFFFFFFFFFFFFFFFFFFFFFFFFFFFFFFF AND PUSH20 0xFFFFFFFFFFFFFFFFFFFFFFFFFFFFFFFFFFFFFFFF AND DUP2 MSTORE PUSH1 0x20 ADD SWAP1 DUP2 MSTORE PUSH1 0x20 ADD PUSH1 0x0 KECCAK256 SLOAD PUSH2 0x1245 SWAP1 SWAP2 SWAP1 PUSH4 0xFFFFFFFF AND JUMP JUMPDEST PUSH1 0x0 DUP1 DUP5 PUSH20 0xFFFFFFFFFFFFFFFFFFFFFFFFFFFFFFFFFFFFFFFF AND PUSH20 0xFFFFFFFFFFFFFFFFFFFFFFFFFFFFFFFFFFFFFFFF AND DUP2 MSTORE PUSH1 0x20 ADD SWAP1 DUP2 MSTORE PUSH1 0x20 ADD PUSH1 0x0 KECCAK256 DUP2 SWAP1 SSTORE POP DUP2 PUSH20 0xFFFFFFFFFFFFFFFFFFFFFFFFFFFFFFFFFFFFFFFF AND PUSH1 0x0 PUSH20 0xFFFFFFFFFFFFFFFFFFFFFFFFFFFFFFFFFFFFFFFF AND PUSH32 0xDDF252AD1BE2C89B69C2B068FC378DAA952BA7F163C4A11628F55A4DF523B3EF DUP4 PUSH1 0x40 MLOAD DUP1 DUP3 DUP2 MSTORE PUSH1 0x20 ADD SWAP2 POP POP PUSH1 0x40 MLOAD DUP1 SWAP2 SUB SWAP1 LOG3 POP POP JUMP JUMPDEST PUSH2 0x149C DUP2 PUSH1 0x6 PUSH2 0x17D2 SWAP1 SWAP2 SWAP1 PUSH4 0xFFFFFFFF AND JUMP JUMPDEST DUP1 PUSH20 0xFFFFFFFFFFFFFFFFFFFFFFFFFFFFFFFFFFFFFFFF AND PUSH32 0x6AE172837EA30B801FBFCDD4108AA1D5BF8FF775444FD70256B44E6BF3DFC3F6 PUSH1 0x40 MLOAD PUSH1 0x40 MLOAD DUP1 SWAP2 SUB SWAP1 LOG2 POP JUMP JUMPDEST PUSH2 0x14F6 DUP2 PUSH1 0x6 PUSH2 0x18AD SWAP1 SWAP2 SWAP1 PUSH4 0xFFFFFFFF AND JUMP JUMPDEST DUP1 PUSH20 0xFFFFFFFFFFFFFFFFFFFFFFFFFFFFFFFFFFFFFFFF AND PUSH32 0xE94479A9F7E1952CC78F2D6BAAB678ADC1B772D936C6583DEF489E524CB66692 PUSH1 0x40 MLOAD PUSH1 0x40 MLOAD DUP1 SWAP2 SUB SWAP1 LOG2 POP JUMP JUMPDEST PUSH1 0x0 PUSH20 0xFFFFFFFFFFFFFFFFFFFFFFFFFFFFFFFFFFFFFFFF AND DUP3 PUSH20 0xFFFFFFFFFFFFFFFFFFFFFFFFFFFFFFFFFFFFFFFF AND EQ ISZERO PUSH2 0x15C2 JUMPI PUSH1 0x40 MLOAD PUSH32 0x8C379A000000000000000000000000000000000000000000000000000000000 DUP2 MSTORE PUSH1 0x4 ADD DUP1 DUP1 PUSH1 0x20 ADD DUP3 DUP2 SUB DUP3 MSTORE PUSH1 0x21 DUP2 MSTORE PUSH1 0x20 ADD DUP1 PUSH2 0x1ADD PUSH1 0x21 SWAP2 CODECOPY PUSH1 0x40 ADD SWAP2 POP POP PUSH1 0x40 MLOAD DUP1 SWAP2 SUB SWAP1 REVERT JUMPDEST PUSH2 0x162D DUP2 PUSH1 0x40 MLOAD DUP1 PUSH1 0x60 ADD PUSH1 0x40 MSTORE DUP1 PUSH1 0x22 DUP2 MSTORE PUSH1 0x20 ADD PUSH2 0x19D8 PUSH1 0x22 SWAP2 CODECOPY PUSH1 0x0 DUP1 DUP7 PUSH20 0xFFFFFFFFFFFFFFFFFFFFFFFFFFFFFFFFFFFFFFFF AND PUSH20 0xFFFFFFFFFFFFFFFFFFFFFFFFFFFFFFFFFFFFFFFF AND DUP2 MSTORE PUSH1 0x20 ADD SWAP1 DUP2 MSTORE PUSH1 0x20 ADD PUSH1 0x0 KECCAK256 SLOAD PUSH2 0x1185 SWAP1 SWAP3 SWAP2 SWAP1 PUSH4 0xFFFFFFFF AND JUMP JUMPDEST PUSH1 0x0 DUP1 DUP5 PUSH20 0xFFFFFFFFFFFFFFFFFFFFFFFFFFFFFFFFFFFFFFFF AND PUSH20 0xFFFFFFFFFFFFFFFFFFFFFFFFFFFFFFFFFFFFFFFF AND DUP2 MSTORE PUSH1 0x20 ADD SWAP1 DUP2 MSTORE PUSH1 0x20 ADD PUSH1 0x0 KECCAK256 DUP2 SWAP1 SSTORE POP PUSH2 0x1684 DUP2 PUSH1 0x2 SLOAD PUSH2 0x196A SWAP1 SWAP2 SWAP1 PUSH4 0xFFFFFFFF AND JUMP JUMPDEST PUSH1 0x2 DUP2 SWAP1 SSTORE POP PUSH1 0x0 PUSH20 0xFFFFFFFFFFFFFFFFFFFFFFFFFFFFFFFFFFFFFFFF AND DUP3 PUSH20 0xFFFFFFFFFFFFFFFFFFFFFFFFFFFFFFFFFFFFFFFF AND PUSH32 0xDDF252AD1BE2C89B69C2B068FC378DAA952BA7F163C4A11628F55A4DF523B3EF DUP4 PUSH1 0x40 MLOAD DUP1 DUP3 DUP2 MSTORE PUSH1 0x20 ADD SWAP2 POP POP PUSH1 0x40 MLOAD DUP1 SWAP2 SUB SWAP1 LOG3 POP POP JUMP JUMPDEST PUSH1 0x0 DUP1 PUSH20 0xFFFFFFFFFFFFFFFFFFFFFFFFFFFFFFFFFFFFFFFF AND DUP3 PUSH20 0xFFFFFFFFFFFFFFFFFFFFFFFFFFFFFFFFFFFFFFFF AND EQ ISZERO PUSH2 0x177B JUMPI PUSH1 0x40 MLOAD PUSH32 0x8C379A000000000000000000000000000000000000000000000000000000000 DUP2 MSTORE PUSH1 0x4 ADD DUP1 DUP1 PUSH1 0x20 ADD DUP3 DUP2 SUB DUP3 MSTORE PUSH1 0x22 DUP2 MSTORE PUSH1 0x20 ADD DUP1 PUSH2 0x1ABB PUSH1 0x22 SWAP2 CODECOPY PUSH1 0x40 ADD SWAP2 POP POP PUSH1 0x40 MLOAD DUP1 SWAP2 SUB SWAP1 REVERT JUMPDEST DUP3 PUSH1 0x0 ADD PUSH1 0x0 DUP4 PUSH20 0xFFFFFFFFFFFFFFFFFFFFFFFFFFFFFFFFFFFFFFFF AND PUSH20 0xFFFFFFFFFFFFFFFFFFFFFFFFFFFFFFFFFFFFFFFF AND DUP2 MSTORE PUSH1 0x20 ADD SWAP1 DUP2 MSTORE PUSH1 0x20 ADD PUSH1 0x0 KECCAK256 PUSH1 0x0 SWAP1 SLOAD SWAP1 PUSH2 0x100 EXP SWAP1 DIV PUSH1 0xFF AND SWAP1 POP SWAP3 SWAP2 POP POP JUMP JUMPDEST PUSH2 0x17DC DUP3 DUP3 PUSH2 0x16F4 JUMP JUMPDEST ISZERO PUSH2 0x184F JUMPI PUSH1 0x40 MLOAD PUSH32 0x8C379A000000000000000000000000000000000000000000000000000000000 DUP2 MSTORE PUSH1 0x4 ADD DUP1 DUP1 PUSH1 0x20 ADD DUP3 DUP2 SUB DUP3 MSTORE PUSH1 0x1F DUP2 MSTORE PUSH1 0x20 ADD DUP1 PUSH32 0x526F6C65733A206163636F756E7420616C72656164792068617320726F6C6500 DUP2 MSTORE POP PUSH1 0x20 ADD SWAP2 POP POP PUSH1 0x40 MLOAD DUP1 SWAP2 SUB SWAP1 REVERT JUMPDEST PUSH1 0x1 DUP3 PUSH1 0x0 ADD PUSH1 0x0 DUP4 PUSH20 0xFFFFFFFFFFFFFFFFFFFFFFFFFFFFFFFFFFFFFFFF AND PUSH20 0xFFFFFFFFFFFFFFFFFFFFFFFFFFFFFFFFFFFFFFFF AND DUP2 MSTORE PUSH1 0x20 ADD SWAP1 DUP2 MSTORE PUSH1 0x20 ADD PUSH1 0x0 KECCAK256 PUSH1 0x0 PUSH2 0x100 EXP DUP2 SLOAD DUP2 PUSH1 0xFF MUL NOT AND SWAP1 DUP4 ISZERO ISZERO MUL OR SWAP1 SSTORE POP POP POP JUMP JUMPDEST PUSH2 0x18B7 DUP3 DUP3 PUSH2 0x16F4 JUMP JUMPDEST PUSH2 0x190C JUMPI PUSH1 0x40 MLOAD PUSH32 0x8C379A000000000000000000000000000000000000000000000000000000000 DUP2 MSTORE PUSH1 0x4 ADD DUP1 DUP1 PUSH1 0x20 ADD DUP3 DUP2 SUB DUP3 MSTORE PUSH1 0x21 DUP2 MSTORE PUSH1 0x20 ADD DUP1 PUSH2 0x1A72 PUSH1 0x21 SWAP2 CODECOPY PUSH1 0x40 ADD SWAP2 POP POP PUSH1 0x40 MLOAD DUP1 SWAP2 SUB SWAP1 REVERT JUMPDEST PUSH1 0x0 DUP3 PUSH1 0x0 ADD PUSH1 0x0 DUP4 PUSH20 0xFFFFFFFFFFFFFFFFFFFFFFFFFFFFFFFFFFFFFFFF AND PUSH20 0xFFFFFFFFFFFFFFFFFFFFFFFFFFFFFFFFFFFFFFFF AND DUP2 MSTORE PUSH1 0x20 ADD SWAP1 DUP2 MSTORE PUSH1 0x20 ADD PUSH1 0x0 KECCAK256 PUSH1 0x0 PUSH2 0x100 EXP DUP2 SLOAD DUP2 PUSH1 0xFF MUL NOT AND SWAP1 DUP4 ISZERO ISZERO MUL OR SWAP1 SSTORE POP POP POP JUMP JUMPDEST PUSH1 0x0 PUSH2 0x19AC DUP4 DUP4 PUSH1 0x40 MLOAD DUP1 PUSH1 0x40 ADD PUSH1 0x40 MSTORE DUP1 PUSH1 0x1E DUP2 MSTORE PUSH1 0x20 ADD PUSH32 0x536166654D6174683A207375627472616374696F6E206F766572666C6F770000 DUP2 MSTORE POP PUSH2 0x1185 JUMP JUMPDEST SWAP1 POP SWAP3 SWAP2 POP POP JUMP INVALID GASLIMIT MSTORE NUMBER ORIGIN ADDRESS GASPRICE KECCAK256 PUSH21 0x72616E7366657220746F20746865207A65726F2061 PUSH5 0x6472657373 GASLIMIT MSTORE NUMBER ORIGIN ADDRESS GASPRICE KECCAK256 PUSH3 0x75726E KECCAK256 PUSH2 0x6D6F PUSH22 0x6E7420657863656564732062616C616E636545524332 ADDRESS GASPRICE KECCAK256 PUSH2 0x7070 PUSH19 0x6F766520746F20746865207A65726F20616464 PUSH19 0x65737345524332303A207472616E7366657220 PUSH2 0x6D6F PUSH22 0x6E7420657863656564732062616C616E63654D696E74 PUSH6 0x72526F6C653A KECCAK256 PUSH4 0x616C6C65 PUSH19 0x20646F6573206E6F7420686176652074686520 0x4D PUSH10 0x6E74657220726F6C6552 PUSH16 0x6C65733A206163636F756E7420646F65 PUSH20 0x206E6F74206861766520726F6C6545524332303A KECCAK256 PUSH21 0x72616E7366657220616D6F756E7420657863656564 PUSH20 0x20616C6C6F77616E6365526F6C65733A20616363 PUSH16 0x756E7420697320746865207A65726F20 PUSH2 0x6464 PUSH19 0x65737345524332303A206275726E2066726F6D KECCAK256 PUSH21 0x6865207A65726F206164647265737345524332303A KECCAK256 PUSH21 0x72616E736665722066726F6D20746865207A65726F KECCAK256 PUSH2 0x6464 PUSH19 0x65737345524332303A20617070726F76652066 PUSH19 0x6F6D20746865207A65726F2061646472657373 GASLIMIT MSTORE NUMBER ORIGIN ADDRESS GASPRICE KECCAK256 PUSH5 0x6563726561 PUSH20 0x656420616C6C6F77616E63652062656C6F77207A PUSH6 0x726FA265627A PUSH27 0x72315820C90B75124C28CC44F92E9328AB3351EE5F444FCBA55979 ISZERO DUP12 PUSH11 0xD59A627D6BA64736F6C63 NUMBER STOP SDIV GT STOP ORIGIN MSTORE PUSH16 0x6C65733A206163636F756E7420697320 PUSH21 0x6865207A65726F2061646472657373000000000000 "
				},
				"gasEstimates": {
					"creation": {
						"codeDepositCost": "2985600",
						"executionCost": "infinite",
						"totalCost": "infinite"
					},
					"external": {
						"addParticipant()": "infinite",
						"addProposal(string,string,uint256,address)": "infinite",
						"buyTokens()": "infinite",
						"cancelProposal(uint256)": "26194",
						"closeVoting()": "22817",
						"executeSignaling(uint256)": "infinite",
						"getApprovedProposals()": "infinite",
						"getERC20()": "1107",
						"getPendingProposals()": "infinite",
						"getProposalInfo(uint256)": "infinite",
						"getSignalingProposals()": "infinite",
						"openVoting()": "50534",
						"sellTokens(uint256)": "infinite",
						"stake(uint256,uint256)": "infinite",
						"withdrawFromProposal(uint256,uint256)": "infinite"
					},
					"internal": {
						"_approveProposal(uint256)": "infinite",
						"_calculateThreshold(uint256)": "2606",
						"_calculateVoteCost(uint256,uint256)": "1199",
						"_calculateWithdrawVote(uint256,uint256)": "1199",
						"_checkAndExecuteProposal(uint256)": "infinite",
						"_clear()": "25843",
						"_isProposalApproved(uint256)": "infinite",
						"_withdrawFromFinanceProposal(uint256,uint256)": "infinite",
						"_withdrawFromSignalingProposal(uint256,uint256)": "infinite"
					}
				},
				"methodIdentifiers": {
					"addParticipant()": "fffefd91",
					"addProposal(string,string,uint256,address)": "9ab3f7a6",
					"buyTokens()": "d0febe4c",
					"cancelProposal(uint256)": "e0a8f6f5",
					"closeVoting()": "c631b292",
					"executeSignaling(uint256)": "da6001d1",
					"getApprovedProposals()": "3ac0feac",
					"getERC20()": "4ece90a8",
					"getPendingProposals()": "a80db6fc",
					"getProposalInfo(uint256)": "bc903cb8",
					"getSignalingProposals()": "8e08a50b",
					"openVoting()": "affc0670",
					"sellTokens(uint256)": "6c11bcd3",
					"stake(uint256,uint256)": "7b0472f0",
					"withdrawFromProposal(uint256,uint256)": "649c649c"
				}
			},
			"storageLayout": {
				"storage": [
					{
						"astId": 139,
						"contract": "QuadraticVoting.sol:QuadraticVoting",
						"label": "owner",
						"offset": 0,
						"slot": "0",
						"type": "t_address"
					},
					{
						"astId": 141,
						"contract": "QuadraticVoting.sol:QuadraticVoting",
						"label": "tokenContract",
						"offset": 0,
						"slot": "1",
						"type": "t_contract(UCMToken)1453"
					},
					{
						"astId": 143,
						"contract": "QuadraticVoting.sol:QuadraticVoting",
						"label": "votingState",
						"offset": 20,
						"slot": "1",
						"type": "t_enum(QuadraticVotingState)27"
					},
					{
						"astId": 145,
						"contract": "QuadraticVoting.sol:QuadraticVoting",
						"label": "tokenPrice",
						"offset": 0,
						"slot": "2",
						"type": "t_uint256"
					},
					{
						"astId": 147,
						"contract": "QuadraticVoting.sol:QuadraticVoting",
						"label": "maxTokens",
						"offset": 0,
						"slot": "3",
						"type": "t_uint256"
					},
					{
						"astId": 149,
						"contract": "QuadraticVoting.sol:QuadraticVoting",
						"label": "nParticipants",
						"offset": 0,
						"slot": "4",
						"type": "t_uint256"
					},
					{
						"astId": 153,
						"contract": "QuadraticVoting.sol:QuadraticVoting",
						"label": "participants",
						"offset": 0,
						"slot": "5",
						"type": "t_mapping(t_address,t_bool)"
					},
					{
						"astId": 155,
						"contract": "QuadraticVoting.sol:QuadraticVoting",
						"label": "nProposals",
						"offset": 0,
						"slot": "6",
						"type": "t_uint256"
					},
					{
						"astId": 159,
						"contract": "QuadraticVoting.sol:QuadraticVoting",
						"label": "proposals",
						"offset": 0,
						"slot": "7",
						"type": "t_mapping(t_uint256,t_struct(Proposal)54_storage)"
					},
					{
						"astId": 161,
						"contract": "QuadraticVoting.sol:QuadraticVoting",
						"label": "initialProposalId",
						"offset": 0,
						"slot": "8",
						"type": "t_uint256"
					},
					{
						"astId": 163,
						"contract": "QuadraticVoting.sol:QuadraticVoting",
						"label": "lastProposalId",
						"offset": 0,
						"slot": "9",
						"type": "t_uint256"
					},
					{
						"astId": 166,
						"contract": "QuadraticVoting.sol:QuadraticVoting",
						"label": "pendingProposalsIds",
						"offset": 0,
						"slot": "10",
						"type": "t_array(t_uint256)dyn_storage"
					},
					{
						"astId": 169,
						"contract": "QuadraticVoting.sol:QuadraticVoting",
						"label": "approvedProposalsIds",
						"offset": 0,
						"slot": "11",
						"type": "t_array(t_uint256)dyn_storage"
					},
					{
						"astId": 172,
						"contract": "QuadraticVoting.sol:QuadraticVoting",
						"label": "signalingProposalsIds",
						"offset": 0,
						"slot": "12",
						"type": "t_array(t_uint256)dyn_storage"
					}
				],
				"types": {
					"t_address": {
						"encoding": "inplace",
						"label": "address",
						"numberOfBytes": "20"
					},
					"t_array(t_uint256)dyn_storage": {
						"base": "t_uint256",
						"encoding": "dynamic_array",
						"label": "uint256[]",
						"numberOfBytes": "32"
					},
					"t_bool": {
						"encoding": "inplace",
						"label": "bool",
						"numberOfBytes": "1"
					},
					"t_contract(IExecutableProposal)11": {
						"encoding": "inplace",
						"label": "contract IExecutableProposal",
						"numberOfBytes": "20"
					},
					"t_contract(UCMToken)1453": {
						"encoding": "inplace",
						"label": "contract UCMToken",
						"numberOfBytes": "20"
					},
					"t_enum(ProposalState)31": {
						"encoding": "inplace",
						"label": "enum IQuadraticVoting.ProposalState",
						"numberOfBytes": "1"
					},
					"t_enum(QuadraticVotingState)27": {
						"encoding": "inplace",
						"label": "enum IQuadraticVoting.QuadraticVotingState",
						"numberOfBytes": "1"
					},
					"t_mapping(t_address,t_bool)": {
						"encoding": "mapping",
						"key": "t_address",
						"label": "mapping(address => bool)",
						"numberOfBytes": "32",
						"value": "t_bool"
					},
					"t_mapping(t_address,t_uint256)": {
						"encoding": "mapping",
						"key": "t_address",
						"label": "mapping(address => uint256)",
						"numberOfBytes": "32",
						"value": "t_uint256"
					},
					"t_mapping(t_uint256,t_struct(Proposal)54_storage)": {
						"encoding": "mapping",
						"key": "t_uint256",
						"label": "mapping(uint256 => struct IQuadraticVoting.Proposal)",
						"numberOfBytes": "32",
						"value": "t_struct(Proposal)54_storage"
					},
					"t_string_storage": {
						"encoding": "bytes",
						"label": "string",
						"numberOfBytes": "32"
					},
					"t_struct(Proposal)54_storage": {
						"encoding": "inplace",
						"label": "struct IQuadraticVoting.Proposal",
						"members": [
							{
								"astId": 33,
								"contract": "QuadraticVoting.sol:QuadraticVoting",
								"label": "owner",
								"offset": 0,
								"slot": "0",
								"type": "t_address"
							},
							{
								"astId": 35,
								"contract": "QuadraticVoting.sol:QuadraticVoting",
								"label": "executableProposal",
								"offset": 0,
								"slot": "1",
								"type": "t_contract(IExecutableProposal)11"
							},
							{
								"astId": 37,
								"contract": "QuadraticVoting.sol:QuadraticVoting",
								"label": "title",
								"offset": 0,
								"slot": "2",
								"type": "t_string_storage"
							},
							{
								"astId": 39,
								"contract": "QuadraticVoting.sol:QuadraticVoting",
								"label": "description",
								"offset": 0,
								"slot": "3",
								"type": "t_string_storage"
							},
							{
								"astId": 41,
								"contract": "QuadraticVoting.sol:QuadraticVoting",
								"label": "budget",
								"offset": 0,
								"slot": "4",
								"type": "t_uint256"
							},
							{
								"astId": 43,
								"contract": "QuadraticVoting.sol:QuadraticVoting",
								"label": "votesAmount",
								"offset": 0,
								"slot": "5",
								"type": "t_uint256"
							},
							{
								"astId": 45,
								"contract": "QuadraticVoting.sol:QuadraticVoting",
								"label": "tokensAmount",
								"offset": 0,
								"slot": "6",
								"type": "t_uint256"
							},
							{
								"astId": 49,
								"contract": "QuadraticVoting.sol:QuadraticVoting",
								"label": "votes",
								"offset": 0,
								"slot": "7",
								"type": "t_mapping(t_address,t_uint256)"
							},
							{
								"astId": 51,
								"contract": "QuadraticVoting.sol:QuadraticVoting",
								"label": "state",
								"offset": 0,
								"slot": "8",
								"type": "t_enum(ProposalState)31"
							},
							{
								"astId": 53,
								"contract": "QuadraticVoting.sol:QuadraticVoting",
								"label": "posArrays",
								"offset": 0,
								"slot": "9",
								"type": "t_uint256"
							}
						],
						"numberOfBytes": "320"
					},
					"t_uint256": {
						"encoding": "inplace",
						"label": "uint256",
						"numberOfBytes": "32"
					}
				}
			},
			"userdoc": {
				"methods": {}
			}
		}
	}
}